{
	"data": {
		"bytecode": {
			"linkReferences": {},
			"object": "6080604052678ac7230489e8000060055560405180606001604052806040518060400160405280600781526020017f4d4152424c45580000000000000000000000000000000000000000000000000081525081526020016040518060400160405280600581526020017f474d54454500000000000000000000000000000000000000000000000000000081525081526020016040518060400160405280600581526020017f4d415449430000000000000000000000000000000000000000000000000000008152508152506006906003620000dc929190620004ad565b5060405180606001604052806040518060a00160405280606f815260200162002e17606f913981526020016040518060600160405280602e815260200162002da9602e9139815260200160405180606001604052806040815260200162002dd760409139815250600790600362000155929190620004ad565b5034801562000162575f80fd5b5060405162002e8638038062002e86833981810160405281019062000188919062000717565b818181600390816200019b9190620009d1565b508060049081620001ad9190620009d1565b505050620001ef33620001c5620001f760201b60201c565b600a620001d3919062000c3e565b620186a0620001e3919062000c8e565b620001ff60201b60201c565b505062000dd7565b5f6012905090565b5f73ffffffffffffffffffffffffffffffffffffffff168273ffffffffffffffffffffffffffffffffffffffff160362000272575f6040517fec442f0500000000000000000000000000000000000000000000000000000000815260040162000269919062000d1b565b60405180910390fd5b620002855f83836200028960201b60201c565b5050565b5f73ffffffffffffffffffffffffffffffffffffffff168373ffffffffffffffffffffffffffffffffffffffff1603620002dd578060025f828254620002d0919062000d36565b92505081905550620003ae565b5f805f8573ffffffffffffffffffffffffffffffffffffffff1673ffffffffffffffffffffffffffffffffffffffff1681526020019081526020015f205490508181101562000369578381836040517fe450d38c000000000000000000000000000000000000000000000000000000008152600401620003609392919062000d81565b60405180910390fd5b8181035f808673ffffffffffffffffffffffffffffffffffffffff1673ffffffffffffffffffffffffffffffffffffffff1681526020019081526020015f2081905550505b5f73ffffffffffffffffffffffffffffffffffffffff168273ffffffffffffffffffffffffffffffffffffffff1603620003f7578060025f828254039250508190555062000441565b805f808473ffffffffffffffffffffffffffffffffffffffff1673ffffffffffffffffffffffffffffffffffffffff1681526020019081526020015f205f82825401925050819055505b8173ffffffffffffffffffffffffffffffffffffffff168373ffffffffffffffffffffffffffffffffffffffff167fddf252ad1be2c89b69c2b068fc378daa952ba7f163c4a11628f55a4df523b3ef83604051620004a0919062000dbc565b60405180910390a3505050565b828054828255905f5260205f20908101928215620004f8579160200282015b82811115620004f7578251829081620004e69190620009d1565b5091602001919060010190620004cc565b5b5090506200050791906200050b565b5090565b5b808211156200052e575f818162000524919062000532565b506001016200050c565b5090565b5080546200054090620007d1565b5f825580601f1062000553575062000572565b601f0160209004905f5260205f209081019062000571919062000575565b5b50565b5b808211156200058e575f815f90555060010162000576565b5090565b5f604051905090565b5f80fd5b5f80fd5b5f80fd5b5f80fd5b5f601f19601f8301169050919050565b7f4e487b71000000000000000000000000000000000000000000000000000000005f52604160045260245ffd5b620005f382620005ab565b810181811067ffffffffffffffff82111715620006155762000614620005bb565b5b80604052505050565b5f6200062962000592565b9050620006378282620005e8565b919050565b5f67ffffffffffffffff821115620006595762000658620005bb565b5b6200066482620005ab565b9050602081019050919050565b5f5b838110156200069057808201518184015260208101905062000673565b5f8484015250505050565b5f620006b1620006ab846200063c565b6200061e565b905082815260208101848484011115620006d057620006cf620005a7565b5b620006dd84828562000671565b509392505050565b5f82601f830112620006fc57620006fb620005a3565b5b81516200070e8482602086016200069b565b91505092915050565b5f806040838503121562000730576200072f6200059b565b5b5f83015167ffffffffffffffff81111562000750576200074f6200059f565b5b6200075e85828601620006e5565b925050602083015167ffffffffffffffff8111156200078257620007816200059f565b5b6200079085828601620006e5565b9150509250929050565b5f81519050919050565b7f4e487b71000000000000000000000000000000000000000000000000000000005f52602260045260245ffd5b5f6002820490506001821680620007e957607f821691505b602082108103620007ff57620007fe620007a4565b5b50919050565b5f819050815f5260205f209050919050565b5f6020601f8301049050919050565b5f82821b905092915050565b5f60088302620008637fffffffffffffffffffffffffffffffffffffffffffffffffffffffffffffffff8262000826565b6200086f868362000826565b95508019841693508086168417925050509392505050565b5f819050919050565b5f819050919050565b5f620008b9620008b3620008ad8462000887565b62000890565b62000887565b9050919050565b5f819050919050565b620008d48362000899565b620008ec620008e382620008c0565b84845462000832565b825550505050565b5f90565b62000902620008f4565b6200090f818484620008c9565b505050565b5b8181101562000936576200092a5f82620008f8565b60018101905062000915565b5050565b601f82111562000985576200094f8162000805565b6200095a8462000817565b810160208510156200096a578190505b62000982620009798562000817565b83018262000914565b50505b505050565b5f82821c905092915050565b5f620009a75f19846008026200098a565b1980831691505092915050565b5f620009c1838362000996565b9150826002028217905092915050565b620009dc826200079a565b67ffffffffffffffff811115620009f857620009f7620005bb565b5b62000a048254620007d1565b62000a118282856200093a565b5f60209050601f83116001811462000a47575f841562000a32578287015190505b62000a3e8582620009b4565b86555062000aad565b601f19841662000a578662000805565b5f5b8281101562000a805784890151825560018201915060208501945060208101905062000a59565b8683101562000aa0578489015162000a9c601f89168262000996565b8355505b6001600288020188555050505b505050505050565b7f4e487b71000000000000000000000000000000000000000000000000000000005f52601160045260245ffd5b5f8160011c9050919050565b5f808291508390505b600185111562000b3f5780860481111562000b175762000b1662000ab5565b5b600185161562000b275780820291505b808102905062000b378562000ae2565b945062000af7565b94509492505050565b5f8262000b59576001905062000c2b565b8162000b68575f905062000c2b565b816001811462000b81576002811462000b8c5762000bc2565b600191505062000c2b565b60ff84111562000ba15762000ba062000ab5565b5b8360020a91508482111562000bbb5762000bba62000ab5565b5b5062000c2b565b5060208310610133831016604e8410600b841016171562000bfc5782820a90508381111562000bf65762000bf562000ab5565b5b62000c2b565b62000c0b848484600162000aee565b9250905081840481111562000c255762000c2462000ab5565b5b81810290505b9392505050565b5f60ff82169050919050565b5f62000c4a8262000887565b915062000c578362000c32565b925062000c867fffffffffffffffffffffffffffffffffffffffffffffffffffffffffffffffff848462000b48565b905092915050565b5f62000c9a8262000887565b915062000ca78362000887565b925082820262000cb78162000887565b9150828204841483151762000cd15762000cd062000ab5565b5b5092915050565b5f73ffffffffffffffffffffffffffffffffffffffff82169050919050565b5f62000d038262000cd8565b9050919050565b62000d158162000cf7565b82525050565b5f60208201905062000d305f83018462000d0a565b92915050565b5f62000d428262000887565b915062000d4f8362000887565b925082820190508082111562000d6a5762000d6962000ab5565b5b92915050565b62000d7b8162000887565b82525050565b5f60608201905062000d965f83018662000d0a565b62000da5602083018562000d70565b62000db4604083018462000d70565b949350505050565b5f60208201905062000dd15f83018462000d70565b92915050565b611fc48062000de55f395ff3fe608060405234801561000f575f80fd5b50600436106100f3575f3560e01c8063545e163e1161009557806395d89b411161006457806395d89b411461029a578063a9059cbb146102b8578063bfaede13146102e8578063dd62ed3e146102f2576100f3565b8063545e163e146101ff5780635dfac4e41461023057806370a082311461024e5780639257b5911461027e576100f3565b806318160ddd116100d157806318160ddd1461016357806323b872dd14610181578063313ce567146101b1578063365b98b2146101cf576100f3565b806303e276af146100f757806306fdde0314610115578063095ea7b314610133575b5f80fd5b6100ff610322565b60405161010c91906114ae565b60405180910390f35b61011d6104d8565b60405161012a9190611516565b60405180910390f35b61014d600480360381019061014891906115c7565b610568565b60405161015a919061161f565b60405180910390f35b61016b61058a565b6040516101789190611647565b60405180910390f35b61019b60048036038101906101969190611660565b610593565b6040516101a8919061161f565b60405180910390f35b6101b96105c1565b6040516101c691906116cb565b60405180910390f35b6101e960048036038101906101e491906116e4565b6105c9565b6040516101f6919061171e565b60405180910390f35b610219600480360381019061021491906115c7565b61060d565b604051610227929190611737565b60405180910390f35b610238610753565b604051610245919061183d565b60405180910390f35b6102686004803603810190610263919061185d565b6107ff565b6040516102759190611647565b60405180910390f35b6102986004803603810190610293919061185d565b610844565b005b6102a2610872565b6040516102af9190611516565b60405180910390f35b6102d260048036038101906102cd91906115c7565b610902565b6040516102df919061161f565b60405180910390f35b6102f0610924565b005b61030c60048036038101906103079190611888565b610ca4565b6040516103199190611647565b60405180910390f35b606060085f3373ffffffffffffffffffffffffffffffffffffffff1673ffffffffffffffffffffffffffffffffffffffff1681526020019081526020015f20805480602002602001604051908101604052809291908181526020015f905b828210156104cf578382905f5260205f2090600202016040518060400160405290815f820180546103b0906118f3565b80601f01602080910402602001604051908101604052809291908181526020018280546103dc906118f3565b80156104275780601f106103fe57610100808354040283529160200191610427565b820191905f5260205f20905b81548152906001019060200180831161040a57829003601f168201915b50505050508152602001600182018054610440906118f3565b80601f016020809104026020016040519081016040528092919081815260200182805461046c906118f3565b80156104b75780601f1061048e576101008083540402835291602001916104b7565b820191905f5260205f20905b81548152906001019060200180831161049a57829003601f168201915b50505050508152505081526020019060010190610380565b50505050905090565b6060600380546104e7906118f3565b80601f0160208091040260200160405190810160405280929190818152602001828054610513906118f3565b801561055e5780601f106105355761010080835404028352916020019161055e565b820191905f5260205f20905b81548152906001019060200180831161054157829003601f168201915b5050505050905090565b5f80610572610d26565b905061057f818585610d2d565b600191505092915050565b5f600254905090565b5f8061059d610d26565b90506105aa858285610d3f565b6105b5858585610dd1565b60019150509392505050565b5f6012905090565b600981815481106105d8575f80fd5b905f5260205f20015f91509050805f015f9054906101000a900473ffffffffffffffffffffffffffffffffffffffff16905081565b6008602052815f5260405f208181548110610626575f80fd5b905f5260205f2090600202015f9150915050805f018054610646906118f3565b80601f0160208091040260200160405190810160405280929190818152602001828054610672906118f3565b80156106bd5780601f10610694576101008083540402835291602001916106bd565b820191905f5260205f20905b8154815290600101906020018083116106a057829003601f168201915b5050505050908060010180546106d2906118f3565b80601f01602080910402602001604051908101604052809291908181526020018280546106fe906118f3565b80156107495780601f1061072057610100808354040283529160200191610749565b820191905f5260205f20905b81548152906001019060200180831161072c57829003601f168201915b5050505050905082565b60606009805480602002602001604051908101604052809291908181526020015f905b828210156107f6578382905f5260205f20016040518060200160405290815f82015f9054906101000a900473ffffffffffffffffffffffffffffffffffffffff1673ffffffffffffffffffffffffffffffffffffffff1673ffffffffffffffffffffffffffffffffffffffff168152505081526020019060010190610776565b50505050905090565b5f805f8373ffffffffffffffffffffffffffffffffffffffff1673ffffffffffffffffffffffffffffffffffffffff1681526020019081526020015f20549050919050565b61086f816108506105c1565b600a61085c9190611a7f565b620186a061086a9190611ac9565b610ec1565b50565b606060048054610881906118f3565b80601f01602080910402602001604051908101604052809291908181526020018280546108ad906118f3565b80156108f85780601f106108cf576101008083540402835291602001916108f8565b820191905f5260205f20905b8154815290600101906020018083116108db57829003601f168201915b5050505050905090565b5f8061090c610d26565b9050610919818585610dd1565b600191505092915050565b600554610930336107ff565b101561093a575f80fd5b610947335f600554610f40565b5f42414360405160200161095d93929190611b80565b604051602081830303815290604052805190602001205f1c90506003816109849190611be9565b905060085f3373ffffffffffffffffffffffffffffffffffffffff1673ffffffffffffffffffffffffffffffffffffffff1681526020019081526020015f206040518060400160405280600784815481106109e2576109e1611c19565b5b905f5260205f200180546109f5906118f3565b80601f0160208091040260200160405190810160405280929190818152602001828054610a21906118f3565b8015610a6c5780601f10610a4357610100808354040283529160200191610a6c565b820191905f5260205f20905b815481529060010190602001808311610a4f57829003601f168201915b5050505050815260200160068481548110610a8a57610a89611c19565b5b905f5260205f20018054610a9d906118f3565b80601f0160208091040260200160405190810160405280929190818152602001828054610ac9906118f3565b8015610b145780601f10610aeb57610100808354040283529160200191610b14565b820191905f5260205f20905b815481529060010190602001808311610af757829003601f168201915b5050505050815250908060018154018082558091505060019003905f5260205f2090600202015f909190919091505f820151815f019081610b559190611e10565b506020820151816001019081610b6b9190611e10565b5050505f805b600980549050811015610c0a573373ffffffffffffffffffffffffffffffffffffffff1660098281548110610ba957610ba8611c19565b5b905f5260205f20015f015f9054906101000a900473ffffffffffffffffffffffffffffffffffffffff1673ffffffffffffffffffffffffffffffffffffffff1603610bf75760019150610c0a565b8080610c0290611edf565b915050610b71565b5080610ca057600960405180602001604052803373ffffffffffffffffffffffffffffffffffffffff16815250908060018154018082558091505060019003905f5260205f20015f909190919091505f820151815f015f6101000a81548173ffffffffffffffffffffffffffffffffffffffff021916908373ffffffffffffffffffffffffffffffffffffffff16021790555050505b5050565b5f60015f8473ffffffffffffffffffffffffffffffffffffffff1673ffffffffffffffffffffffffffffffffffffffff1681526020019081526020015f205f8373ffffffffffffffffffffffffffffffffffffffff1673ffffffffffffffffffffffffffffffffffffffff1681526020019081526020015f2054905092915050565b5f33905090565b610d3a8383836001611159565b505050565b5f610d4a8484610ca4565b90507fffffffffffffffffffffffffffffffffffffffffffffffffffffffffffffffff8114610dcb5781811015610dbc578281836040517ffb8f41b2000000000000000000000000000000000000000000000000000000008152600401610db393929190611f26565b60405180910390fd5b610dca84848484035f611159565b5b50505050565b5f73ffffffffffffffffffffffffffffffffffffffff168373ffffffffffffffffffffffffffffffffffffffff1603610e41575f6040517f96c6fd1e000000000000000000000000000000000000000000000000000000008152600401610e38919061171e565b60405180910390fd5b5f73ffffffffffffffffffffffffffffffffffffffff168273ffffffffffffffffffffffffffffffffffffffff1603610eb1575f6040517fec442f05000000000000000000000000000000000000000000000000000000008152600401610ea8919061171e565b60405180910390fd5b610ebc838383610f40565b505050565b5f73ffffffffffffffffffffffffffffffffffffffff168273ffffffffffffffffffffffffffffffffffffffff1603610f31575f6040517fec442f05000000000000000000000000000000000000000000000000000000008152600401610f28919061171e565b60405180910390fd5b610f3c5f8383610f40565b5050565b5f73ffffffffffffffffffffffffffffffffffffffff168373ffffffffffffffffffffffffffffffffffffffff1603610f90578060025f828254610f849190611f5b565b9250508190555061105e565b5f805f8573ffffffffffffffffffffffffffffffffffffffff1673ffffffffffffffffffffffffffffffffffffffff1681526020019081526020015f2054905081811015611019578381836040517fe450d38c00000000000000000000000000000000000000000000000000000000815260040161101093929190611f26565b60405180910390fd5b8181035f808673ffffffffffffffffffffffffffffffffffffffff1673ffffffffffffffffffffffffffffffffffffffff1681526020019081526020015f2081905550505b5f73ffffffffffffffffffffffffffffffffffffffff168273ffffffffffffffffffffffffffffffffffffffff16036110a5578060025f82825403925050819055506110ef565b805f808473ffffffffffffffffffffffffffffffffffffffff1673ffffffffffffffffffffffffffffffffffffffff1681526020019081526020015f205f82825401925050819055505b8173ffffffffffffffffffffffffffffffffffffffff168373ffffffffffffffffffffffffffffffffffffffff167fddf252ad1be2c89b69c2b068fc378daa952ba7f163c4a11628f55a4df523b3ef8360405161114c9190611647565b60405180910390a3505050565b5f73ffffffffffffffffffffffffffffffffffffffff168473ffffffffffffffffffffffffffffffffffffffff16036111c9575f6040517fe602df050000000000000000000000000000000000000000000000000000000081526004016111c0919061171e565b60405180910390fd5b5f73ffffffffffffffffffffffffffffffffffffffff168373ffffffffffffffffffffffffffffffffffffffff1603611239575f6040517f94280d62000000000000000000000000000000000000000000000000000000008152600401611230919061171e565b60405180910390fd5b8160015f8673ffffffffffffffffffffffffffffffffffffffff1673ffffffffffffffffffffffffffffffffffffffff1681526020019081526020015f205f8573ffffffffffffffffffffffffffffffffffffffff1673ffffffffffffffffffffffffffffffffffffffff1681526020019081526020015f20819055508015611322578273ffffffffffffffffffffffffffffffffffffffff168473ffffffffffffffffffffffffffffffffffffffff167f8c5be1e5ebec7d5bd14f71427d1e84f3dd0314c0f7b2291e5b200ac8c7c3b925846040516113199190611647565b60405180910390a35b50505050565b5f81519050919050565b5f82825260208201905092915050565b5f819050602082019050919050565b5f81519050919050565b5f82825260208201905092915050565b5f5b8381101561138857808201518184015260208101905061136d565b5f8484015250505050565b5f601f19601f8301169050919050565b5f6113ad82611351565b6113b7818561135b565b93506113c781856020860161136b565b6113d081611393565b840191505092915050565b5f604083015f8301518482035f8601526113f582826113a3565b9150506020830151848203602086015261140f82826113a3565b9150508091505092915050565b5f61142783836113db565b905092915050565b5f602082019050919050565b5f61144582611328565b61144f8185611332565b93508360208202850161146185611342565b805f5b8581101561149c578484038952815161147d858261141c565b94506114888361142f565b925060208a01995050600181019050611464565b50829750879550505050505092915050565b5f6020820190508181035f8301526114c6818461143b565b905092915050565b5f82825260208201905092915050565b5f6114e882611351565b6114f281856114ce565b935061150281856020860161136b565b61150b81611393565b840191505092915050565b5f6020820190508181035f83015261152e81846114de565b905092915050565b5f80fd5b5f73ffffffffffffffffffffffffffffffffffffffff82169050919050565b5f6115638261153a565b9050919050565b61157381611559565b811461157d575f80fd5b50565b5f8135905061158e8161156a565b92915050565b5f819050919050565b6115a681611594565b81146115b0575f80fd5b50565b5f813590506115c18161159d565b92915050565b5f80604083850312156115dd576115dc611536565b5b5f6115ea85828601611580565b92505060206115fb858286016115b3565b9150509250929050565b5f8115159050919050565b61161981611605565b82525050565b5f6020820190506116325f830184611610565b92915050565b61164181611594565b82525050565b5f60208201905061165a5f830184611638565b92915050565b5f805f6060848603121561167757611676611536565b5b5f61168486828701611580565b935050602061169586828701611580565b92505060406116a6868287016115b3565b9150509250925092565b5f60ff82169050919050565b6116c5816116b0565b82525050565b5f6020820190506116de5f8301846116bc565b92915050565b5f602082840312156116f9576116f8611536565b5b5f611706848285016115b3565b91505092915050565b61171881611559565b82525050565b5f6020820190506117315f83018461170f565b92915050565b5f6040820190508181035f83015261174f81856114de565b9050818103602083015261176381846114de565b90509392505050565b5f81519050919050565b5f82825260208201905092915050565b5f819050602082019050919050565b61179e81611559565b82525050565b602082015f8201516117b85f850182611795565b50505050565b5f6117c983836117a4565b60208301905092915050565b5f602082019050919050565b5f6117eb8261176c565b6117f58185611776565b935061180083611786565b805f5b8381101561183057815161181788826117be565b9750611822836117d5565b925050600181019050611803565b5085935050505092915050565b5f6020820190508181035f83015261185581846117e1565b905092915050565b5f6020828403121561187257611871611536565b5b5f61187f84828501611580565b91505092915050565b5f806040838503121561189e5761189d611536565b5b5f6118ab85828601611580565b92505060206118bc85828601611580565b9150509250929050565b7f4e487b71000000000000000000000000000000000000000000000000000000005f52602260045260245ffd5b5f600282049050600182168061190a57607f821691505b60208210810361191d5761191c6118c6565b5b50919050565b7f4e487b71000000000000000000000000000000000000000000000000000000005f52601160045260245ffd5b5f8160011c9050919050565b5f808291508390505b60018511156119a55780860481111561198157611980611923565b5b60018516156119905780820291505b808102905061199e85611950565b9450611965565b94509492505050565b5f826119bd5760019050611a78565b816119ca575f9050611a78565b81600181146119e057600281146119ea57611a19565b6001915050611a78565b60ff8411156119fc576119fb611923565b5b8360020a915084821115611a1357611a12611923565b5b50611a78565b5060208310610133831016604e8410600b8410161715611a4e5782820a905083811115611a4957611a48611923565b5b611a78565b611a5b848484600161195c565b92509050818404811115611a7257611a71611923565b5b81810290505b9392505050565b5f611a8982611594565b9150611a94836116b0565b9250611ac17fffffffffffffffffffffffffffffffffffffffffffffffffffffffffffffffff84846119ae565b905092915050565b5f611ad382611594565b9150611ade83611594565b9250828202611aec81611594565b91508282048414831517611b0357611b02611923565b5b5092915050565b5f819050919050565b611b24611b1f82611594565b611b0a565b82525050565b5f611b348261153a565b9050919050565b5f8160601b9050919050565b5f611b5182611b3b565b9050919050565b5f611b6282611b47565b9050919050565b611b7a611b7582611b2a565b611b58565b82525050565b5f611b8b8286611b13565b602082019150611b9b8285611b69565b601482019150611bab8284611b13565b602082019150819050949350505050565b7f4e487b71000000000000000000000000000000000000000000000000000000005f52601260045260245ffd5b5f611bf382611594565b9150611bfe83611594565b925082611c0e57611c0d611bbc565b5b828206905092915050565b7f4e487b71000000000000000000000000000000000000000000000000000000005f52603260045260245ffd5b7f4e487b71000000000000000000000000000000000000000000000000000000005f52604160045260245ffd5b5f819050815f5260205f209050919050565b5f6020601f8301049050919050565b5f82821b905092915050565b5f60088302611ccf7fffffffffffffffffffffffffffffffffffffffffffffffffffffffffffffffff82611c94565b611cd98683611c94565b95508019841693508086168417925050509392505050565b5f819050919050565b5f611d14611d0f611d0a84611594565b611cf1565b611594565b9050919050565b5f819050919050565b611d2d83611cfa565b611d41611d3982611d1b565b848454611ca0565b825550505050565b5f90565b611d55611d49565b611d60818484611d24565b505050565b5b81811015611d8357611d785f82611d4d565b600181019050611d66565b5050565b601f821115611dc857611d9981611c73565b611da284611c85565b81016020851015611db1578190505b611dc5611dbd85611c85565b830182611d65565b50505b505050565b5f82821c905092915050565b5f611de85f1984600802611dcd565b1980831691505092915050565b5f611e008383611dd9565b9150826002028217905092915050565b611e1982611351565b67ffffffffffffffff811115611e3257611e31611c46565b5b611e3c82546118f3565b611e47828285611d87565b5f60209050601f831160018114611e78575f8415611e66578287015190505b611e708582611df5565b865550611ed7565b601f198416611e8686611c73565b5f5b82811015611ead57848901518255600182019150602085019450602081019050611e88565b86831015611eca5784890151611ec6601f891682611dd9565b8355505b6001600288020188555050505b505050505050565b5f611ee982611594565b91507fffffffffffffffffffffffffffffffffffffffffffffffffffffffffffffffff8203611f1b57611f1a611923565b5b600182019050919050565b5f606082019050611f395f83018661170f565b611f466020830185611638565b611f536040830184611638565b949350505050565b5f611f6582611594565b9150611f7083611594565b9250828201905080821115611f8857611f87611923565b5b9291505056fea2646970667358221220be923b1ea8952bc48312f72f9bfdca27a5c079cc5c90c8d27597e767c2c89f7164736f6c6343000814003368747470733a2f2f66312e746f6b656e706f73742e6b722f323032332f30392f396c6f7332676b356e742e706e6768747470733a2f2f63646e2e6e626e74762e636f2e6b722f6e6577732f70686f746f2f3230323330372f333030313034335f3230313531335f3332312e6a706768747470733a2f2f6e696d6167652e672d656e6577732e636f6d2f7068707761732f726573746d625f616c6c6964786d616b652e7068703f6964783d352673696d673d323032333130313231333131303630323632386335666137356566383632313131383031323536312e6a7067",
			"opcodes": "PUSH1 0x80 PUSH1 0x40 MSTORE PUSH8 0x8AC7230489E80000 PUSH1 0x5 SSTORE PUSH1 0x40 MLOAD DUP1 PUSH1 0x60 ADD PUSH1 0x40 MSTORE DUP1 PUSH1 0x40 MLOAD DUP1 PUSH1 0x40 ADD PUSH1 0x40 MSTORE DUP1 PUSH1 0x7 DUP2 MSTORE PUSH1 0x20 ADD PUSH32 0x4D4152424C455800000000000000000000000000000000000000000000000000 DUP2 MSTORE POP DUP2 MSTORE PUSH1 0x20 ADD PUSH1 0x40 MLOAD DUP1 PUSH1 0x40 ADD PUSH1 0x40 MSTORE DUP1 PUSH1 0x5 DUP2 MSTORE PUSH1 0x20 ADD PUSH32 0x474D544545000000000000000000000000000000000000000000000000000000 DUP2 MSTORE POP DUP2 MSTORE PUSH1 0x20 ADD PUSH1 0x40 MLOAD DUP1 PUSH1 0x40 ADD PUSH1 0x40 MSTORE DUP1 PUSH1 0x5 DUP2 MSTORE PUSH1 0x20 ADD PUSH32 0x4D41544943000000000000000000000000000000000000000000000000000000 DUP2 MSTORE POP DUP2 MSTORE POP PUSH1 0x6 SWAP1 PUSH1 0x3 PUSH3 0xDC SWAP3 SWAP2 SWAP1 PUSH3 0x4AD JUMP JUMPDEST POP PUSH1 0x40 MLOAD DUP1 PUSH1 0x60 ADD PUSH1 0x40 MSTORE DUP1 PUSH1 0x40 MLOAD DUP1 PUSH1 0xA0 ADD PUSH1 0x40 MSTORE DUP1 PUSH1 0x6F DUP2 MSTORE PUSH1 0x20 ADD PUSH3 0x2E17 PUSH1 0x6F SWAP2 CODECOPY DUP2 MSTORE PUSH1 0x20 ADD PUSH1 0x40 MLOAD DUP1 PUSH1 0x60 ADD PUSH1 0x40 MSTORE DUP1 PUSH1 0x2E DUP2 MSTORE PUSH1 0x20 ADD PUSH3 0x2DA9 PUSH1 0x2E SWAP2 CODECOPY DUP2 MSTORE PUSH1 0x20 ADD PUSH1 0x40 MLOAD DUP1 PUSH1 0x60 ADD PUSH1 0x40 MSTORE DUP1 PUSH1 0x40 DUP2 MSTORE PUSH1 0x20 ADD PUSH3 0x2DD7 PUSH1 0x40 SWAP2 CODECOPY DUP2 MSTORE POP PUSH1 0x7 SWAP1 PUSH1 0x3 PUSH3 0x155 SWAP3 SWAP2 SWAP1 PUSH3 0x4AD JUMP JUMPDEST POP CALLVALUE DUP1 ISZERO PUSH3 0x162 JUMPI PUSH0 DUP1 REVERT JUMPDEST POP PUSH1 0x40 MLOAD PUSH3 0x2E86 CODESIZE SUB DUP1 PUSH3 0x2E86 DUP4 CODECOPY DUP2 DUP2 ADD PUSH1 0x40 MSTORE DUP2 ADD SWAP1 PUSH3 0x188 SWAP2 SWAP1 PUSH3 0x717 JUMP JUMPDEST DUP2 DUP2 DUP2 PUSH1 0x3 SWAP1 DUP2 PUSH3 0x19B SWAP2 SWAP1 PUSH3 0x9D1 JUMP JUMPDEST POP DUP1 PUSH1 0x4 SWAP1 DUP2 PUSH3 0x1AD SWAP2 SWAP1 PUSH3 0x9D1 JUMP JUMPDEST POP POP POP PUSH3 0x1EF CALLER PUSH3 0x1C5 PUSH3 0x1F7 PUSH1 0x20 SHL PUSH1 0x20 SHR JUMP JUMPDEST PUSH1 0xA PUSH3 0x1D3 SWAP2 SWAP1 PUSH3 0xC3E JUMP JUMPDEST PUSH3 0x186A0 PUSH3 0x1E3 SWAP2 SWAP1 PUSH3 0xC8E JUMP JUMPDEST PUSH3 0x1FF PUSH1 0x20 SHL PUSH1 0x20 SHR JUMP JUMPDEST POP POP PUSH3 0xDD7 JUMP JUMPDEST PUSH0 PUSH1 0x12 SWAP1 POP SWAP1 JUMP JUMPDEST PUSH0 PUSH20 0xFFFFFFFFFFFFFFFFFFFFFFFFFFFFFFFFFFFFFFFF AND DUP3 PUSH20 0xFFFFFFFFFFFFFFFFFFFFFFFFFFFFFFFFFFFFFFFF AND SUB PUSH3 0x272 JUMPI PUSH0 PUSH1 0x40 MLOAD PUSH32 0xEC442F0500000000000000000000000000000000000000000000000000000000 DUP2 MSTORE PUSH1 0x4 ADD PUSH3 0x269 SWAP2 SWAP1 PUSH3 0xD1B JUMP JUMPDEST PUSH1 0x40 MLOAD DUP1 SWAP2 SUB SWAP1 REVERT JUMPDEST PUSH3 0x285 PUSH0 DUP4 DUP4 PUSH3 0x289 PUSH1 0x20 SHL PUSH1 0x20 SHR JUMP JUMPDEST POP POP JUMP JUMPDEST PUSH0 PUSH20 0xFFFFFFFFFFFFFFFFFFFFFFFFFFFFFFFFFFFFFFFF AND DUP4 PUSH20 0xFFFFFFFFFFFFFFFFFFFFFFFFFFFFFFFFFFFFFFFF AND SUB PUSH3 0x2DD JUMPI DUP1 PUSH1 0x2 PUSH0 DUP3 DUP3 SLOAD PUSH3 0x2D0 SWAP2 SWAP1 PUSH3 0xD36 JUMP JUMPDEST SWAP3 POP POP DUP2 SWAP1 SSTORE POP PUSH3 0x3AE JUMP JUMPDEST PUSH0 DUP1 PUSH0 DUP6 PUSH20 0xFFFFFFFFFFFFFFFFFFFFFFFFFFFFFFFFFFFFFFFF AND PUSH20 0xFFFFFFFFFFFFFFFFFFFFFFFFFFFFFFFFFFFFFFFF AND DUP2 MSTORE PUSH1 0x20 ADD SWAP1 DUP2 MSTORE PUSH1 0x20 ADD PUSH0 KECCAK256 SLOAD SWAP1 POP DUP2 DUP2 LT ISZERO PUSH3 0x369 JUMPI DUP4 DUP2 DUP4 PUSH1 0x40 MLOAD PUSH32 0xE450D38C00000000000000000000000000000000000000000000000000000000 DUP2 MSTORE PUSH1 0x4 ADD PUSH3 0x360 SWAP4 SWAP3 SWAP2 SWAP1 PUSH3 0xD81 JUMP JUMPDEST PUSH1 0x40 MLOAD DUP1 SWAP2 SUB SWAP1 REVERT JUMPDEST DUP2 DUP2 SUB PUSH0 DUP1 DUP7 PUSH20 0xFFFFFFFFFFFFFFFFFFFFFFFFFFFFFFFFFFFFFFFF AND PUSH20 0xFFFFFFFFFFFFFFFFFFFFFFFFFFFFFFFFFFFFFFFF AND DUP2 MSTORE PUSH1 0x20 ADD SWAP1 DUP2 MSTORE PUSH1 0x20 ADD PUSH0 KECCAK256 DUP2 SWAP1 SSTORE POP POP JUMPDEST PUSH0 PUSH20 0xFFFFFFFFFFFFFFFFFFFFFFFFFFFFFFFFFFFFFFFF AND DUP3 PUSH20 0xFFFFFFFFFFFFFFFFFFFFFFFFFFFFFFFFFFFFFFFF AND SUB PUSH3 0x3F7 JUMPI DUP1 PUSH1 0x2 PUSH0 DUP3 DUP3 SLOAD SUB SWAP3 POP POP DUP2 SWAP1 SSTORE POP PUSH3 0x441 JUMP JUMPDEST DUP1 PUSH0 DUP1 DUP5 PUSH20 0xFFFFFFFFFFFFFFFFFFFFFFFFFFFFFFFFFFFFFFFF AND PUSH20 0xFFFFFFFFFFFFFFFFFFFFFFFFFFFFFFFFFFFFFFFF AND DUP2 MSTORE PUSH1 0x20 ADD SWAP1 DUP2 MSTORE PUSH1 0x20 ADD PUSH0 KECCAK256 PUSH0 DUP3 DUP3 SLOAD ADD SWAP3 POP POP DUP2 SWAP1 SSTORE POP JUMPDEST DUP2 PUSH20 0xFFFFFFFFFFFFFFFFFFFFFFFFFFFFFFFFFFFFFFFF AND DUP4 PUSH20 0xFFFFFFFFFFFFFFFFFFFFFFFFFFFFFFFFFFFFFFFF AND PUSH32 0xDDF252AD1BE2C89B69C2B068FC378DAA952BA7F163C4A11628F55A4DF523B3EF DUP4 PUSH1 0x40 MLOAD PUSH3 0x4A0 SWAP2 SWAP1 PUSH3 0xDBC JUMP JUMPDEST PUSH1 0x40 MLOAD DUP1 SWAP2 SUB SWAP1 LOG3 POP POP POP JUMP JUMPDEST DUP3 DUP1 SLOAD DUP3 DUP3 SSTORE SWAP1 PUSH0 MSTORE PUSH1 0x20 PUSH0 KECCAK256 SWAP1 DUP2 ADD SWAP3 DUP3 ISZERO PUSH3 0x4F8 JUMPI SWAP2 PUSH1 0x20 MUL DUP3 ADD JUMPDEST DUP3 DUP2 GT ISZERO PUSH3 0x4F7 JUMPI DUP3 MLOAD DUP3 SWAP1 DUP2 PUSH3 0x4E6 SWAP2 SWAP1 PUSH3 0x9D1 JUMP JUMPDEST POP SWAP2 PUSH1 0x20 ADD SWAP2 SWAP1 PUSH1 0x1 ADD SWAP1 PUSH3 0x4CC JUMP JUMPDEST JUMPDEST POP SWAP1 POP PUSH3 0x507 SWAP2 SWAP1 PUSH3 0x50B JUMP JUMPDEST POP SWAP1 JUMP JUMPDEST JUMPDEST DUP1 DUP3 GT ISZERO PUSH3 0x52E JUMPI PUSH0 DUP2 DUP2 PUSH3 0x524 SWAP2 SWAP1 PUSH3 0x532 JUMP JUMPDEST POP PUSH1 0x1 ADD PUSH3 0x50C JUMP JUMPDEST POP SWAP1 JUMP JUMPDEST POP DUP1 SLOAD PUSH3 0x540 SWAP1 PUSH3 0x7D1 JUMP JUMPDEST PUSH0 DUP3 SSTORE DUP1 PUSH1 0x1F LT PUSH3 0x553 JUMPI POP PUSH3 0x572 JUMP JUMPDEST PUSH1 0x1F ADD PUSH1 0x20 SWAP1 DIV SWAP1 PUSH0 MSTORE PUSH1 0x20 PUSH0 KECCAK256 SWAP1 DUP2 ADD SWAP1 PUSH3 0x571 SWAP2 SWAP1 PUSH3 0x575 JUMP JUMPDEST JUMPDEST POP JUMP JUMPDEST JUMPDEST DUP1 DUP3 GT ISZERO PUSH3 0x58E JUMPI PUSH0 DUP2 PUSH0 SWAP1 SSTORE POP PUSH1 0x1 ADD PUSH3 0x576 JUMP JUMPDEST POP SWAP1 JUMP JUMPDEST PUSH0 PUSH1 0x40 MLOAD SWAP1 POP SWAP1 JUMP JUMPDEST PUSH0 DUP1 REVERT JUMPDEST PUSH0 DUP1 REVERT JUMPDEST PUSH0 DUP1 REVERT JUMPDEST PUSH0 DUP1 REVERT JUMPDEST PUSH0 PUSH1 0x1F NOT PUSH1 0x1F DUP4 ADD AND SWAP1 POP SWAP2 SWAP1 POP JUMP JUMPDEST PUSH32 0x4E487B7100000000000000000000000000000000000000000000000000000000 PUSH0 MSTORE PUSH1 0x41 PUSH1 0x4 MSTORE PUSH1 0x24 PUSH0 REVERT JUMPDEST PUSH3 0x5F3 DUP3 PUSH3 0x5AB JUMP JUMPDEST DUP2 ADD DUP2 DUP2 LT PUSH8 0xFFFFFFFFFFFFFFFF DUP3 GT OR ISZERO PUSH3 0x615 JUMPI PUSH3 0x614 PUSH3 0x5BB JUMP JUMPDEST JUMPDEST DUP1 PUSH1 0x40 MSTORE POP POP POP JUMP JUMPDEST PUSH0 PUSH3 0x629 PUSH3 0x592 JUMP JUMPDEST SWAP1 POP PUSH3 0x637 DUP3 DUP3 PUSH3 0x5E8 JUMP JUMPDEST SWAP2 SWAP1 POP JUMP JUMPDEST PUSH0 PUSH8 0xFFFFFFFFFFFFFFFF DUP3 GT ISZERO PUSH3 0x659 JUMPI PUSH3 0x658 PUSH3 0x5BB JUMP JUMPDEST JUMPDEST PUSH3 0x664 DUP3 PUSH3 0x5AB JUMP JUMPDEST SWAP1 POP PUSH1 0x20 DUP2 ADD SWAP1 POP SWAP2 SWAP1 POP JUMP JUMPDEST PUSH0 JUMPDEST DUP4 DUP2 LT ISZERO PUSH3 0x690 JUMPI DUP1 DUP3 ADD MLOAD DUP2 DUP5 ADD MSTORE PUSH1 0x20 DUP2 ADD SWAP1 POP PUSH3 0x673 JUMP JUMPDEST PUSH0 DUP5 DUP5 ADD MSTORE POP POP POP POP JUMP JUMPDEST PUSH0 PUSH3 0x6B1 PUSH3 0x6AB DUP5 PUSH3 0x63C JUMP JUMPDEST PUSH3 0x61E JUMP JUMPDEST SWAP1 POP DUP3 DUP2 MSTORE PUSH1 0x20 DUP2 ADD DUP5 DUP5 DUP5 ADD GT ISZERO PUSH3 0x6D0 JUMPI PUSH3 0x6CF PUSH3 0x5A7 JUMP JUMPDEST JUMPDEST PUSH3 0x6DD DUP5 DUP3 DUP6 PUSH3 0x671 JUMP JUMPDEST POP SWAP4 SWAP3 POP POP POP JUMP JUMPDEST PUSH0 DUP3 PUSH1 0x1F DUP4 ADD SLT PUSH3 0x6FC JUMPI PUSH3 0x6FB PUSH3 0x5A3 JUMP JUMPDEST JUMPDEST DUP2 MLOAD PUSH3 0x70E DUP5 DUP3 PUSH1 0x20 DUP7 ADD PUSH3 0x69B JUMP JUMPDEST SWAP2 POP POP SWAP3 SWAP2 POP POP JUMP JUMPDEST PUSH0 DUP1 PUSH1 0x40 DUP4 DUP6 SUB SLT ISZERO PUSH3 0x730 JUMPI PUSH3 0x72F PUSH3 0x59B JUMP JUMPDEST JUMPDEST PUSH0 DUP4 ADD MLOAD PUSH8 0xFFFFFFFFFFFFFFFF DUP2 GT ISZERO PUSH3 0x750 JUMPI PUSH3 0x74F PUSH3 0x59F JUMP JUMPDEST JUMPDEST PUSH3 0x75E DUP6 DUP3 DUP7 ADD PUSH3 0x6E5 JUMP JUMPDEST SWAP3 POP POP PUSH1 0x20 DUP4 ADD MLOAD PUSH8 0xFFFFFFFFFFFFFFFF DUP2 GT ISZERO PUSH3 0x782 JUMPI PUSH3 0x781 PUSH3 0x59F JUMP JUMPDEST JUMPDEST PUSH3 0x790 DUP6 DUP3 DUP7 ADD PUSH3 0x6E5 JUMP JUMPDEST SWAP2 POP POP SWAP3 POP SWAP3 SWAP1 POP JUMP JUMPDEST PUSH0 DUP2 MLOAD SWAP1 POP SWAP2 SWAP1 POP JUMP JUMPDEST PUSH32 0x4E487B7100000000000000000000000000000000000000000000000000000000 PUSH0 MSTORE PUSH1 0x22 PUSH1 0x4 MSTORE PUSH1 0x24 PUSH0 REVERT JUMPDEST PUSH0 PUSH1 0x2 DUP3 DIV SWAP1 POP PUSH1 0x1 DUP3 AND DUP1 PUSH3 0x7E9 JUMPI PUSH1 0x7F DUP3 AND SWAP2 POP JUMPDEST PUSH1 0x20 DUP3 LT DUP2 SUB PUSH3 0x7FF JUMPI PUSH3 0x7FE PUSH3 0x7A4 JUMP JUMPDEST JUMPDEST POP SWAP2 SWAP1 POP JUMP JUMPDEST PUSH0 DUP2 SWAP1 POP DUP2 PUSH0 MSTORE PUSH1 0x20 PUSH0 KECCAK256 SWAP1 POP SWAP2 SWAP1 POP JUMP JUMPDEST PUSH0 PUSH1 0x20 PUSH1 0x1F DUP4 ADD DIV SWAP1 POP SWAP2 SWAP1 POP JUMP JUMPDEST PUSH0 DUP3 DUP3 SHL SWAP1 POP SWAP3 SWAP2 POP POP JUMP JUMPDEST PUSH0 PUSH1 0x8 DUP4 MUL PUSH3 0x863 PUSH32 0xFFFFFFFFFFFFFFFFFFFFFFFFFFFFFFFFFFFFFFFFFFFFFFFFFFFFFFFFFFFFFFFF DUP3 PUSH3 0x826 JUMP JUMPDEST PUSH3 0x86F DUP7 DUP4 PUSH3 0x826 JUMP JUMPDEST SWAP6 POP DUP1 NOT DUP5 AND SWAP4 POP DUP1 DUP7 AND DUP5 OR SWAP3 POP POP POP SWAP4 SWAP3 POP POP POP JUMP JUMPDEST PUSH0 DUP2 SWAP1 POP SWAP2 SWAP1 POP JUMP JUMPDEST PUSH0 DUP2 SWAP1 POP SWAP2 SWAP1 POP JUMP JUMPDEST PUSH0 PUSH3 0x8B9 PUSH3 0x8B3 PUSH3 0x8AD DUP5 PUSH3 0x887 JUMP JUMPDEST PUSH3 0x890 JUMP JUMPDEST PUSH3 0x887 JUMP JUMPDEST SWAP1 POP SWAP2 SWAP1 POP JUMP JUMPDEST PUSH0 DUP2 SWAP1 POP SWAP2 SWAP1 POP JUMP JUMPDEST PUSH3 0x8D4 DUP4 PUSH3 0x899 JUMP JUMPDEST PUSH3 0x8EC PUSH3 0x8E3 DUP3 PUSH3 0x8C0 JUMP JUMPDEST DUP5 DUP5 SLOAD PUSH3 0x832 JUMP JUMPDEST DUP3 SSTORE POP POP POP POP JUMP JUMPDEST PUSH0 SWAP1 JUMP JUMPDEST PUSH3 0x902 PUSH3 0x8F4 JUMP JUMPDEST PUSH3 0x90F DUP2 DUP5 DUP5 PUSH3 0x8C9 JUMP JUMPDEST POP POP POP JUMP JUMPDEST JUMPDEST DUP2 DUP2 LT ISZERO PUSH3 0x936 JUMPI PUSH3 0x92A PUSH0 DUP3 PUSH3 0x8F8 JUMP JUMPDEST PUSH1 0x1 DUP2 ADD SWAP1 POP PUSH3 0x915 JUMP JUMPDEST POP POP JUMP JUMPDEST PUSH1 0x1F DUP3 GT ISZERO PUSH3 0x985 JUMPI PUSH3 0x94F DUP2 PUSH3 0x805 JUMP JUMPDEST PUSH3 0x95A DUP5 PUSH3 0x817 JUMP JUMPDEST DUP2 ADD PUSH1 0x20 DUP6 LT ISZERO PUSH3 0x96A JUMPI DUP2 SWAP1 POP JUMPDEST PUSH3 0x982 PUSH3 0x979 DUP6 PUSH3 0x817 JUMP JUMPDEST DUP4 ADD DUP3 PUSH3 0x914 JUMP JUMPDEST POP POP JUMPDEST POP POP POP JUMP JUMPDEST PUSH0 DUP3 DUP3 SHR SWAP1 POP SWAP3 SWAP2 POP POP JUMP JUMPDEST PUSH0 PUSH3 0x9A7 PUSH0 NOT DUP5 PUSH1 0x8 MUL PUSH3 0x98A JUMP JUMPDEST NOT DUP1 DUP4 AND SWAP2 POP POP SWAP3 SWAP2 POP POP JUMP JUMPDEST PUSH0 PUSH3 0x9C1 DUP4 DUP4 PUSH3 0x996 JUMP JUMPDEST SWAP2 POP DUP3 PUSH1 0x2 MUL DUP3 OR SWAP1 POP SWAP3 SWAP2 POP POP JUMP JUMPDEST PUSH3 0x9DC DUP3 PUSH3 0x79A JUMP JUMPDEST PUSH8 0xFFFFFFFFFFFFFFFF DUP2 GT ISZERO PUSH3 0x9F8 JUMPI PUSH3 0x9F7 PUSH3 0x5BB JUMP JUMPDEST JUMPDEST PUSH3 0xA04 DUP3 SLOAD PUSH3 0x7D1 JUMP JUMPDEST PUSH3 0xA11 DUP3 DUP3 DUP6 PUSH3 0x93A JUMP JUMPDEST PUSH0 PUSH1 0x20 SWAP1 POP PUSH1 0x1F DUP4 GT PUSH1 0x1 DUP2 EQ PUSH3 0xA47 JUMPI PUSH0 DUP5 ISZERO PUSH3 0xA32 JUMPI DUP3 DUP8 ADD MLOAD SWAP1 POP JUMPDEST PUSH3 0xA3E DUP6 DUP3 PUSH3 0x9B4 JUMP JUMPDEST DUP7 SSTORE POP PUSH3 0xAAD JUMP JUMPDEST PUSH1 0x1F NOT DUP5 AND PUSH3 0xA57 DUP7 PUSH3 0x805 JUMP JUMPDEST PUSH0 JUMPDEST DUP3 DUP2 LT ISZERO PUSH3 0xA80 JUMPI DUP5 DUP10 ADD MLOAD DUP3 SSTORE PUSH1 0x1 DUP3 ADD SWAP2 POP PUSH1 0x20 DUP6 ADD SWAP5 POP PUSH1 0x20 DUP2 ADD SWAP1 POP PUSH3 0xA59 JUMP JUMPDEST DUP7 DUP4 LT ISZERO PUSH3 0xAA0 JUMPI DUP5 DUP10 ADD MLOAD PUSH3 0xA9C PUSH1 0x1F DUP10 AND DUP3 PUSH3 0x996 JUMP JUMPDEST DUP4 SSTORE POP JUMPDEST PUSH1 0x1 PUSH1 0x2 DUP9 MUL ADD DUP9 SSTORE POP POP POP JUMPDEST POP POP POP POP POP POP JUMP JUMPDEST PUSH32 0x4E487B7100000000000000000000000000000000000000000000000000000000 PUSH0 MSTORE PUSH1 0x11 PUSH1 0x4 MSTORE PUSH1 0x24 PUSH0 REVERT JUMPDEST PUSH0 DUP2 PUSH1 0x1 SHR SWAP1 POP SWAP2 SWAP1 POP JUMP JUMPDEST PUSH0 DUP1 DUP3 SWAP2 POP DUP4 SWAP1 POP JUMPDEST PUSH1 0x1 DUP6 GT ISZERO PUSH3 0xB3F JUMPI DUP1 DUP7 DIV DUP2 GT ISZERO PUSH3 0xB17 JUMPI PUSH3 0xB16 PUSH3 0xAB5 JUMP JUMPDEST JUMPDEST PUSH1 0x1 DUP6 AND ISZERO PUSH3 0xB27 JUMPI DUP1 DUP3 MUL SWAP2 POP JUMPDEST DUP1 DUP2 MUL SWAP1 POP PUSH3 0xB37 DUP6 PUSH3 0xAE2 JUMP JUMPDEST SWAP5 POP PUSH3 0xAF7 JUMP JUMPDEST SWAP5 POP SWAP5 SWAP3 POP POP POP JUMP JUMPDEST PUSH0 DUP3 PUSH3 0xB59 JUMPI PUSH1 0x1 SWAP1 POP PUSH3 0xC2B JUMP JUMPDEST DUP2 PUSH3 0xB68 JUMPI PUSH0 SWAP1 POP PUSH3 0xC2B JUMP JUMPDEST DUP2 PUSH1 0x1 DUP2 EQ PUSH3 0xB81 JUMPI PUSH1 0x2 DUP2 EQ PUSH3 0xB8C JUMPI PUSH3 0xBC2 JUMP JUMPDEST PUSH1 0x1 SWAP2 POP POP PUSH3 0xC2B JUMP JUMPDEST PUSH1 0xFF DUP5 GT ISZERO PUSH3 0xBA1 JUMPI PUSH3 0xBA0 PUSH3 0xAB5 JUMP JUMPDEST JUMPDEST DUP4 PUSH1 0x2 EXP SWAP2 POP DUP5 DUP3 GT ISZERO PUSH3 0xBBB JUMPI PUSH3 0xBBA PUSH3 0xAB5 JUMP JUMPDEST JUMPDEST POP PUSH3 0xC2B JUMP JUMPDEST POP PUSH1 0x20 DUP4 LT PUSH2 0x133 DUP4 LT AND PUSH1 0x4E DUP5 LT PUSH1 0xB DUP5 LT AND OR ISZERO PUSH3 0xBFC JUMPI DUP3 DUP3 EXP SWAP1 POP DUP4 DUP2 GT ISZERO PUSH3 0xBF6 JUMPI PUSH3 0xBF5 PUSH3 0xAB5 JUMP JUMPDEST JUMPDEST PUSH3 0xC2B JUMP JUMPDEST PUSH3 0xC0B DUP5 DUP5 DUP5 PUSH1 0x1 PUSH3 0xAEE JUMP JUMPDEST SWAP3 POP SWAP1 POP DUP2 DUP5 DIV DUP2 GT ISZERO PUSH3 0xC25 JUMPI PUSH3 0xC24 PUSH3 0xAB5 JUMP JUMPDEST JUMPDEST DUP2 DUP2 MUL SWAP1 POP JUMPDEST SWAP4 SWAP3 POP POP POP JUMP JUMPDEST PUSH0 PUSH1 0xFF DUP3 AND SWAP1 POP SWAP2 SWAP1 POP JUMP JUMPDEST PUSH0 PUSH3 0xC4A DUP3 PUSH3 0x887 JUMP JUMPDEST SWAP2 POP PUSH3 0xC57 DUP4 PUSH3 0xC32 JUMP JUMPDEST SWAP3 POP PUSH3 0xC86 PUSH32 0xFFFFFFFFFFFFFFFFFFFFFFFFFFFFFFFFFFFFFFFFFFFFFFFFFFFFFFFFFFFFFFFF DUP5 DUP5 PUSH3 0xB48 JUMP JUMPDEST SWAP1 POP SWAP3 SWAP2 POP POP JUMP JUMPDEST PUSH0 PUSH3 0xC9A DUP3 PUSH3 0x887 JUMP JUMPDEST SWAP2 POP PUSH3 0xCA7 DUP4 PUSH3 0x887 JUMP JUMPDEST SWAP3 POP DUP3 DUP3 MUL PUSH3 0xCB7 DUP2 PUSH3 0x887 JUMP JUMPDEST SWAP2 POP DUP3 DUP3 DIV DUP5 EQ DUP4 ISZERO OR PUSH3 0xCD1 JUMPI PUSH3 0xCD0 PUSH3 0xAB5 JUMP JUMPDEST JUMPDEST POP SWAP3 SWAP2 POP POP JUMP JUMPDEST PUSH0 PUSH20 0xFFFFFFFFFFFFFFFFFFFFFFFFFFFFFFFFFFFFFFFF DUP3 AND SWAP1 POP SWAP2 SWAP1 POP JUMP JUMPDEST PUSH0 PUSH3 0xD03 DUP3 PUSH3 0xCD8 JUMP JUMPDEST SWAP1 POP SWAP2 SWAP1 POP JUMP JUMPDEST PUSH3 0xD15 DUP2 PUSH3 0xCF7 JUMP JUMPDEST DUP3 MSTORE POP POP JUMP JUMPDEST PUSH0 PUSH1 0x20 DUP3 ADD SWAP1 POP PUSH3 0xD30 PUSH0 DUP4 ADD DUP5 PUSH3 0xD0A JUMP JUMPDEST SWAP3 SWAP2 POP POP JUMP JUMPDEST PUSH0 PUSH3 0xD42 DUP3 PUSH3 0x887 JUMP JUMPDEST SWAP2 POP PUSH3 0xD4F DUP4 PUSH3 0x887 JUMP JUMPDEST SWAP3 POP DUP3 DUP3 ADD SWAP1 POP DUP1 DUP3 GT ISZERO PUSH3 0xD6A JUMPI PUSH3 0xD69 PUSH3 0xAB5 JUMP JUMPDEST JUMPDEST SWAP3 SWAP2 POP POP JUMP JUMPDEST PUSH3 0xD7B DUP2 PUSH3 0x887 JUMP JUMPDEST DUP3 MSTORE POP POP JUMP JUMPDEST PUSH0 PUSH1 0x60 DUP3 ADD SWAP1 POP PUSH3 0xD96 PUSH0 DUP4 ADD DUP7 PUSH3 0xD0A JUMP JUMPDEST PUSH3 0xDA5 PUSH1 0x20 DUP4 ADD DUP6 PUSH3 0xD70 JUMP JUMPDEST PUSH3 0xDB4 PUSH1 0x40 DUP4 ADD DUP5 PUSH3 0xD70 JUMP JUMPDEST SWAP5 SWAP4 POP POP POP POP JUMP JUMPDEST PUSH0 PUSH1 0x20 DUP3 ADD SWAP1 POP PUSH3 0xDD1 PUSH0 DUP4 ADD DUP5 PUSH3 0xD70 JUMP JUMPDEST SWAP3 SWAP2 POP POP JUMP JUMPDEST PUSH2 0x1FC4 DUP1 PUSH3 0xDE5 PUSH0 CODECOPY PUSH0 RETURN INVALID PUSH1 0x80 PUSH1 0x40 MSTORE CALLVALUE DUP1 ISZERO PUSH2 0xF JUMPI PUSH0 DUP1 REVERT JUMPDEST POP PUSH1 0x4 CALLDATASIZE LT PUSH2 0xF3 JUMPI PUSH0 CALLDATALOAD PUSH1 0xE0 SHR DUP1 PUSH4 0x545E163E GT PUSH2 0x95 JUMPI DUP1 PUSH4 0x95D89B41 GT PUSH2 0x64 JUMPI DUP1 PUSH4 0x95D89B41 EQ PUSH2 0x29A JUMPI DUP1 PUSH4 0xA9059CBB EQ PUSH2 0x2B8 JUMPI DUP1 PUSH4 0xBFAEDE13 EQ PUSH2 0x2E8 JUMPI DUP1 PUSH4 0xDD62ED3E EQ PUSH2 0x2F2 JUMPI PUSH2 0xF3 JUMP JUMPDEST DUP1 PUSH4 0x545E163E EQ PUSH2 0x1FF JUMPI DUP1 PUSH4 0x5DFAC4E4 EQ PUSH2 0x230 JUMPI DUP1 PUSH4 0x70A08231 EQ PUSH2 0x24E JUMPI DUP1 PUSH4 0x9257B591 EQ PUSH2 0x27E JUMPI PUSH2 0xF3 JUMP JUMPDEST DUP1 PUSH4 0x18160DDD GT PUSH2 0xD1 JUMPI DUP1 PUSH4 0x18160DDD EQ PUSH2 0x163 JUMPI DUP1 PUSH4 0x23B872DD EQ PUSH2 0x181 JUMPI DUP1 PUSH4 0x313CE567 EQ PUSH2 0x1B1 JUMPI DUP1 PUSH4 0x365B98B2 EQ PUSH2 0x1CF JUMPI PUSH2 0xF3 JUMP JUMPDEST DUP1 PUSH4 0x3E276AF EQ PUSH2 0xF7 JUMPI DUP1 PUSH4 0x6FDDE03 EQ PUSH2 0x115 JUMPI DUP1 PUSH4 0x95EA7B3 EQ PUSH2 0x133 JUMPI JUMPDEST PUSH0 DUP1 REVERT JUMPDEST PUSH2 0xFF PUSH2 0x322 JUMP JUMPDEST PUSH1 0x40 MLOAD PUSH2 0x10C SWAP2 SWAP1 PUSH2 0x14AE JUMP JUMPDEST PUSH1 0x40 MLOAD DUP1 SWAP2 SUB SWAP1 RETURN JUMPDEST PUSH2 0x11D PUSH2 0x4D8 JUMP JUMPDEST PUSH1 0x40 MLOAD PUSH2 0x12A SWAP2 SWAP1 PUSH2 0x1516 JUMP JUMPDEST PUSH1 0x40 MLOAD DUP1 SWAP2 SUB SWAP1 RETURN JUMPDEST PUSH2 0x14D PUSH1 0x4 DUP1 CALLDATASIZE SUB DUP2 ADD SWAP1 PUSH2 0x148 SWAP2 SWAP1 PUSH2 0x15C7 JUMP JUMPDEST PUSH2 0x568 JUMP JUMPDEST PUSH1 0x40 MLOAD PUSH2 0x15A SWAP2 SWAP1 PUSH2 0x161F JUMP JUMPDEST PUSH1 0x40 MLOAD DUP1 SWAP2 SUB SWAP1 RETURN JUMPDEST PUSH2 0x16B PUSH2 0x58A JUMP JUMPDEST PUSH1 0x40 MLOAD PUSH2 0x178 SWAP2 SWAP1 PUSH2 0x1647 JUMP JUMPDEST PUSH1 0x40 MLOAD DUP1 SWAP2 SUB SWAP1 RETURN JUMPDEST PUSH2 0x19B PUSH1 0x4 DUP1 CALLDATASIZE SUB DUP2 ADD SWAP1 PUSH2 0x196 SWAP2 SWAP1 PUSH2 0x1660 JUMP JUMPDEST PUSH2 0x593 JUMP JUMPDEST PUSH1 0x40 MLOAD PUSH2 0x1A8 SWAP2 SWAP1 PUSH2 0x161F JUMP JUMPDEST PUSH1 0x40 MLOAD DUP1 SWAP2 SUB SWAP1 RETURN JUMPDEST PUSH2 0x1B9 PUSH2 0x5C1 JUMP JUMPDEST PUSH1 0x40 MLOAD PUSH2 0x1C6 SWAP2 SWAP1 PUSH2 0x16CB JUMP JUMPDEST PUSH1 0x40 MLOAD DUP1 SWAP2 SUB SWAP1 RETURN JUMPDEST PUSH2 0x1E9 PUSH1 0x4 DUP1 CALLDATASIZE SUB DUP2 ADD SWAP1 PUSH2 0x1E4 SWAP2 SWAP1 PUSH2 0x16E4 JUMP JUMPDEST PUSH2 0x5C9 JUMP JUMPDEST PUSH1 0x40 MLOAD PUSH2 0x1F6 SWAP2 SWAP1 PUSH2 0x171E JUMP JUMPDEST PUSH1 0x40 MLOAD DUP1 SWAP2 SUB SWAP1 RETURN JUMPDEST PUSH2 0x219 PUSH1 0x4 DUP1 CALLDATASIZE SUB DUP2 ADD SWAP1 PUSH2 0x214 SWAP2 SWAP1 PUSH2 0x15C7 JUMP JUMPDEST PUSH2 0x60D JUMP JUMPDEST PUSH1 0x40 MLOAD PUSH2 0x227 SWAP3 SWAP2 SWAP1 PUSH2 0x1737 JUMP JUMPDEST PUSH1 0x40 MLOAD DUP1 SWAP2 SUB SWAP1 RETURN JUMPDEST PUSH2 0x238 PUSH2 0x753 JUMP JUMPDEST PUSH1 0x40 MLOAD PUSH2 0x245 SWAP2 SWAP1 PUSH2 0x183D JUMP JUMPDEST PUSH1 0x40 MLOAD DUP1 SWAP2 SUB SWAP1 RETURN JUMPDEST PUSH2 0x268 PUSH1 0x4 DUP1 CALLDATASIZE SUB DUP2 ADD SWAP1 PUSH2 0x263 SWAP2 SWAP1 PUSH2 0x185D JUMP JUMPDEST PUSH2 0x7FF JUMP JUMPDEST PUSH1 0x40 MLOAD PUSH2 0x275 SWAP2 SWAP1 PUSH2 0x1647 JUMP JUMPDEST PUSH1 0x40 MLOAD DUP1 SWAP2 SUB SWAP1 RETURN JUMPDEST PUSH2 0x298 PUSH1 0x4 DUP1 CALLDATASIZE SUB DUP2 ADD SWAP1 PUSH2 0x293 SWAP2 SWAP1 PUSH2 0x185D JUMP JUMPDEST PUSH2 0x844 JUMP JUMPDEST STOP JUMPDEST PUSH2 0x2A2 PUSH2 0x872 JUMP JUMPDEST PUSH1 0x40 MLOAD PUSH2 0x2AF SWAP2 SWAP1 PUSH2 0x1516 JUMP JUMPDEST PUSH1 0x40 MLOAD DUP1 SWAP2 SUB SWAP1 RETURN JUMPDEST PUSH2 0x2D2 PUSH1 0x4 DUP1 CALLDATASIZE SUB DUP2 ADD SWAP1 PUSH2 0x2CD SWAP2 SWAP1 PUSH2 0x15C7 JUMP JUMPDEST PUSH2 0x902 JUMP JUMPDEST PUSH1 0x40 MLOAD PUSH2 0x2DF SWAP2 SWAP1 PUSH2 0x161F JUMP JUMPDEST PUSH1 0x40 MLOAD DUP1 SWAP2 SUB SWAP1 RETURN JUMPDEST PUSH2 0x2F0 PUSH2 0x924 JUMP JUMPDEST STOP JUMPDEST PUSH2 0x30C PUSH1 0x4 DUP1 CALLDATASIZE SUB DUP2 ADD SWAP1 PUSH2 0x307 SWAP2 SWAP1 PUSH2 0x1888 JUMP JUMPDEST PUSH2 0xCA4 JUMP JUMPDEST PUSH1 0x40 MLOAD PUSH2 0x319 SWAP2 SWAP1 PUSH2 0x1647 JUMP JUMPDEST PUSH1 0x40 MLOAD DUP1 SWAP2 SUB SWAP1 RETURN JUMPDEST PUSH1 0x60 PUSH1 0x8 PUSH0 CALLER PUSH20 0xFFFFFFFFFFFFFFFFFFFFFFFFFFFFFFFFFFFFFFFF AND PUSH20 0xFFFFFFFFFFFFFFFFFFFFFFFFFFFFFFFFFFFFFFFF AND DUP2 MSTORE PUSH1 0x20 ADD SWAP1 DUP2 MSTORE PUSH1 0x20 ADD PUSH0 KECCAK256 DUP1 SLOAD DUP1 PUSH1 0x20 MUL PUSH1 0x20 ADD PUSH1 0x40 MLOAD SWAP1 DUP2 ADD PUSH1 0x40 MSTORE DUP1 SWAP3 SWAP2 SWAP1 DUP2 DUP2 MSTORE PUSH1 0x20 ADD PUSH0 SWAP1 JUMPDEST DUP3 DUP3 LT ISZERO PUSH2 0x4CF JUMPI DUP4 DUP3 SWAP1 PUSH0 MSTORE PUSH1 0x20 PUSH0 KECCAK256 SWAP1 PUSH1 0x2 MUL ADD PUSH1 0x40 MLOAD DUP1 PUSH1 0x40 ADD PUSH1 0x40 MSTORE SWAP1 DUP2 PUSH0 DUP3 ADD DUP1 SLOAD PUSH2 0x3B0 SWAP1 PUSH2 0x18F3 JUMP JUMPDEST DUP1 PUSH1 0x1F ADD PUSH1 0x20 DUP1 SWAP2 DIV MUL PUSH1 0x20 ADD PUSH1 0x40 MLOAD SWAP1 DUP2 ADD PUSH1 0x40 MSTORE DUP1 SWAP3 SWAP2 SWAP1 DUP2 DUP2 MSTORE PUSH1 0x20 ADD DUP3 DUP1 SLOAD PUSH2 0x3DC SWAP1 PUSH2 0x18F3 JUMP JUMPDEST DUP1 ISZERO PUSH2 0x427 JUMPI DUP1 PUSH1 0x1F LT PUSH2 0x3FE JUMPI PUSH2 0x100 DUP1 DUP4 SLOAD DIV MUL DUP4 MSTORE SWAP2 PUSH1 0x20 ADD SWAP2 PUSH2 0x427 JUMP JUMPDEST DUP3 ADD SWAP2 SWAP1 PUSH0 MSTORE PUSH1 0x20 PUSH0 KECCAK256 SWAP1 JUMPDEST DUP2 SLOAD DUP2 MSTORE SWAP1 PUSH1 0x1 ADD SWAP1 PUSH1 0x20 ADD DUP1 DUP4 GT PUSH2 0x40A JUMPI DUP3 SWAP1 SUB PUSH1 0x1F AND DUP3 ADD SWAP2 JUMPDEST POP POP POP POP POP DUP2 MSTORE PUSH1 0x20 ADD PUSH1 0x1 DUP3 ADD DUP1 SLOAD PUSH2 0x440 SWAP1 PUSH2 0x18F3 JUMP JUMPDEST DUP1 PUSH1 0x1F ADD PUSH1 0x20 DUP1 SWAP2 DIV MUL PUSH1 0x20 ADD PUSH1 0x40 MLOAD SWAP1 DUP2 ADD PUSH1 0x40 MSTORE DUP1 SWAP3 SWAP2 SWAP1 DUP2 DUP2 MSTORE PUSH1 0x20 ADD DUP3 DUP1 SLOAD PUSH2 0x46C SWAP1 PUSH2 0x18F3 JUMP JUMPDEST DUP1 ISZERO PUSH2 0x4B7 JUMPI DUP1 PUSH1 0x1F LT PUSH2 0x48E JUMPI PUSH2 0x100 DUP1 DUP4 SLOAD DIV MUL DUP4 MSTORE SWAP2 PUSH1 0x20 ADD SWAP2 PUSH2 0x4B7 JUMP JUMPDEST DUP3 ADD SWAP2 SWAP1 PUSH0 MSTORE PUSH1 0x20 PUSH0 KECCAK256 SWAP1 JUMPDEST DUP2 SLOAD DUP2 MSTORE SWAP1 PUSH1 0x1 ADD SWAP1 PUSH1 0x20 ADD DUP1 DUP4 GT PUSH2 0x49A JUMPI DUP3 SWAP1 SUB PUSH1 0x1F AND DUP3 ADD SWAP2 JUMPDEST POP POP POP POP POP DUP2 MSTORE POP POP DUP2 MSTORE PUSH1 0x20 ADD SWAP1 PUSH1 0x1 ADD SWAP1 PUSH2 0x380 JUMP JUMPDEST POP POP POP POP SWAP1 POP SWAP1 JUMP JUMPDEST PUSH1 0x60 PUSH1 0x3 DUP1 SLOAD PUSH2 0x4E7 SWAP1 PUSH2 0x18F3 JUMP JUMPDEST DUP1 PUSH1 0x1F ADD PUSH1 0x20 DUP1 SWAP2 DIV MUL PUSH1 0x20 ADD PUSH1 0x40 MLOAD SWAP1 DUP2 ADD PUSH1 0x40 MSTORE DUP1 SWAP3 SWAP2 SWAP1 DUP2 DUP2 MSTORE PUSH1 0x20 ADD DUP3 DUP1 SLOAD PUSH2 0x513 SWAP1 PUSH2 0x18F3 JUMP JUMPDEST DUP1 ISZERO PUSH2 0x55E JUMPI DUP1 PUSH1 0x1F LT PUSH2 0x535 JUMPI PUSH2 0x100 DUP1 DUP4 SLOAD DIV MUL DUP4 MSTORE SWAP2 PUSH1 0x20 ADD SWAP2 PUSH2 0x55E JUMP JUMPDEST DUP3 ADD SWAP2 SWAP1 PUSH0 MSTORE PUSH1 0x20 PUSH0 KECCAK256 SWAP1 JUMPDEST DUP2 SLOAD DUP2 MSTORE SWAP1 PUSH1 0x1 ADD SWAP1 PUSH1 0x20 ADD DUP1 DUP4 GT PUSH2 0x541 JUMPI DUP3 SWAP1 SUB PUSH1 0x1F AND DUP3 ADD SWAP2 JUMPDEST POP POP POP POP POP SWAP1 POP SWAP1 JUMP JUMPDEST PUSH0 DUP1 PUSH2 0x572 PUSH2 0xD26 JUMP JUMPDEST SWAP1 POP PUSH2 0x57F DUP2 DUP6 DUP6 PUSH2 0xD2D JUMP JUMPDEST PUSH1 0x1 SWAP2 POP POP SWAP3 SWAP2 POP POP JUMP JUMPDEST PUSH0 PUSH1 0x2 SLOAD SWAP1 POP SWAP1 JUMP JUMPDEST PUSH0 DUP1 PUSH2 0x59D PUSH2 0xD26 JUMP JUMPDEST SWAP1 POP PUSH2 0x5AA DUP6 DUP3 DUP6 PUSH2 0xD3F JUMP JUMPDEST PUSH2 0x5B5 DUP6 DUP6 DUP6 PUSH2 0xDD1 JUMP JUMPDEST PUSH1 0x1 SWAP2 POP POP SWAP4 SWAP3 POP POP POP JUMP JUMPDEST PUSH0 PUSH1 0x12 SWAP1 POP SWAP1 JUMP JUMPDEST PUSH1 0x9 DUP2 DUP2 SLOAD DUP2 LT PUSH2 0x5D8 JUMPI PUSH0 DUP1 REVERT JUMPDEST SWAP1 PUSH0 MSTORE PUSH1 0x20 PUSH0 KECCAK256 ADD PUSH0 SWAP2 POP SWAP1 POP DUP1 PUSH0 ADD PUSH0 SWAP1 SLOAD SWAP1 PUSH2 0x100 EXP SWAP1 DIV PUSH20 0xFFFFFFFFFFFFFFFFFFFFFFFFFFFFFFFFFFFFFFFF AND SWAP1 POP DUP2 JUMP JUMPDEST PUSH1 0x8 PUSH1 0x20 MSTORE DUP2 PUSH0 MSTORE PUSH1 0x40 PUSH0 KECCAK256 DUP2 DUP2 SLOAD DUP2 LT PUSH2 0x626 JUMPI PUSH0 DUP1 REVERT JUMPDEST SWAP1 PUSH0 MSTORE PUSH1 0x20 PUSH0 KECCAK256 SWAP1 PUSH1 0x2 MUL ADD PUSH0 SWAP2 POP SWAP2 POP POP DUP1 PUSH0 ADD DUP1 SLOAD PUSH2 0x646 SWAP1 PUSH2 0x18F3 JUMP JUMPDEST DUP1 PUSH1 0x1F ADD PUSH1 0x20 DUP1 SWAP2 DIV MUL PUSH1 0x20 ADD PUSH1 0x40 MLOAD SWAP1 DUP2 ADD PUSH1 0x40 MSTORE DUP1 SWAP3 SWAP2 SWAP1 DUP2 DUP2 MSTORE PUSH1 0x20 ADD DUP3 DUP1 SLOAD PUSH2 0x672 SWAP1 PUSH2 0x18F3 JUMP JUMPDEST DUP1 ISZERO PUSH2 0x6BD JUMPI DUP1 PUSH1 0x1F LT PUSH2 0x694 JUMPI PUSH2 0x100 DUP1 DUP4 SLOAD DIV MUL DUP4 MSTORE SWAP2 PUSH1 0x20 ADD SWAP2 PUSH2 0x6BD JUMP JUMPDEST DUP3 ADD SWAP2 SWAP1 PUSH0 MSTORE PUSH1 0x20 PUSH0 KECCAK256 SWAP1 JUMPDEST DUP2 SLOAD DUP2 MSTORE SWAP1 PUSH1 0x1 ADD SWAP1 PUSH1 0x20 ADD DUP1 DUP4 GT PUSH2 0x6A0 JUMPI DUP3 SWAP1 SUB PUSH1 0x1F AND DUP3 ADD SWAP2 JUMPDEST POP POP POP POP POP SWAP1 DUP1 PUSH1 0x1 ADD DUP1 SLOAD PUSH2 0x6D2 SWAP1 PUSH2 0x18F3 JUMP JUMPDEST DUP1 PUSH1 0x1F ADD PUSH1 0x20 DUP1 SWAP2 DIV MUL PUSH1 0x20 ADD PUSH1 0x40 MLOAD SWAP1 DUP2 ADD PUSH1 0x40 MSTORE DUP1 SWAP3 SWAP2 SWAP1 DUP2 DUP2 MSTORE PUSH1 0x20 ADD DUP3 DUP1 SLOAD PUSH2 0x6FE SWAP1 PUSH2 0x18F3 JUMP JUMPDEST DUP1 ISZERO PUSH2 0x749 JUMPI DUP1 PUSH1 0x1F LT PUSH2 0x720 JUMPI PUSH2 0x100 DUP1 DUP4 SLOAD DIV MUL DUP4 MSTORE SWAP2 PUSH1 0x20 ADD SWAP2 PUSH2 0x749 JUMP JUMPDEST DUP3 ADD SWAP2 SWAP1 PUSH0 MSTORE PUSH1 0x20 PUSH0 KECCAK256 SWAP1 JUMPDEST DUP2 SLOAD DUP2 MSTORE SWAP1 PUSH1 0x1 ADD SWAP1 PUSH1 0x20 ADD DUP1 DUP4 GT PUSH2 0x72C JUMPI DUP3 SWAP1 SUB PUSH1 0x1F AND DUP3 ADD SWAP2 JUMPDEST POP POP POP POP POP SWAP1 POP DUP3 JUMP JUMPDEST PUSH1 0x60 PUSH1 0x9 DUP1 SLOAD DUP1 PUSH1 0x20 MUL PUSH1 0x20 ADD PUSH1 0x40 MLOAD SWAP1 DUP2 ADD PUSH1 0x40 MSTORE DUP1 SWAP3 SWAP2 SWAP1 DUP2 DUP2 MSTORE PUSH1 0x20 ADD PUSH0 SWAP1 JUMPDEST DUP3 DUP3 LT ISZERO PUSH2 0x7F6 JUMPI DUP4 DUP3 SWAP1 PUSH0 MSTORE PUSH1 0x20 PUSH0 KECCAK256 ADD PUSH1 0x40 MLOAD DUP1 PUSH1 0x20 ADD PUSH1 0x40 MSTORE SWAP1 DUP2 PUSH0 DUP3 ADD PUSH0 SWAP1 SLOAD SWAP1 PUSH2 0x100 EXP SWAP1 DIV PUSH20 0xFFFFFFFFFFFFFFFFFFFFFFFFFFFFFFFFFFFFFFFF AND PUSH20 0xFFFFFFFFFFFFFFFFFFFFFFFFFFFFFFFFFFFFFFFF AND PUSH20 0xFFFFFFFFFFFFFFFFFFFFFFFFFFFFFFFFFFFFFFFF AND DUP2 MSTORE POP POP DUP2 MSTORE PUSH1 0x20 ADD SWAP1 PUSH1 0x1 ADD SWAP1 PUSH2 0x776 JUMP JUMPDEST POP POP POP POP SWAP1 POP SWAP1 JUMP JUMPDEST PUSH0 DUP1 PUSH0 DUP4 PUSH20 0xFFFFFFFFFFFFFFFFFFFFFFFFFFFFFFFFFFFFFFFF AND PUSH20 0xFFFFFFFFFFFFFFFFFFFFFFFFFFFFFFFFFFFFFFFF AND DUP2 MSTORE PUSH1 0x20 ADD SWAP1 DUP2 MSTORE PUSH1 0x20 ADD PUSH0 KECCAK256 SLOAD SWAP1 POP SWAP2 SWAP1 POP JUMP JUMPDEST PUSH2 0x86F DUP2 PUSH2 0x850 PUSH2 0x5C1 JUMP JUMPDEST PUSH1 0xA PUSH2 0x85C SWAP2 SWAP1 PUSH2 0x1A7F JUMP JUMPDEST PUSH3 0x186A0 PUSH2 0x86A SWAP2 SWAP1 PUSH2 0x1AC9 JUMP JUMPDEST PUSH2 0xEC1 JUMP JUMPDEST POP JUMP JUMPDEST PUSH1 0x60 PUSH1 0x4 DUP1 SLOAD PUSH2 0x881 SWAP1 PUSH2 0x18F3 JUMP JUMPDEST DUP1 PUSH1 0x1F ADD PUSH1 0x20 DUP1 SWAP2 DIV MUL PUSH1 0x20 ADD PUSH1 0x40 MLOAD SWAP1 DUP2 ADD PUSH1 0x40 MSTORE DUP1 SWAP3 SWAP2 SWAP1 DUP2 DUP2 MSTORE PUSH1 0x20 ADD DUP3 DUP1 SLOAD PUSH2 0x8AD SWAP1 PUSH2 0x18F3 JUMP JUMPDEST DUP1 ISZERO PUSH2 0x8F8 JUMPI DUP1 PUSH1 0x1F LT PUSH2 0x8CF JUMPI PUSH2 0x100 DUP1 DUP4 SLOAD DIV MUL DUP4 MSTORE SWAP2 PUSH1 0x20 ADD SWAP2 PUSH2 0x8F8 JUMP JUMPDEST DUP3 ADD SWAP2 SWAP1 PUSH0 MSTORE PUSH1 0x20 PUSH0 KECCAK256 SWAP1 JUMPDEST DUP2 SLOAD DUP2 MSTORE SWAP1 PUSH1 0x1 ADD SWAP1 PUSH1 0x20 ADD DUP1 DUP4 GT PUSH2 0x8DB JUMPI DUP3 SWAP1 SUB PUSH1 0x1F AND DUP3 ADD SWAP2 JUMPDEST POP POP POP POP POP SWAP1 POP SWAP1 JUMP JUMPDEST PUSH0 DUP1 PUSH2 0x90C PUSH2 0xD26 JUMP JUMPDEST SWAP1 POP PUSH2 0x919 DUP2 DUP6 DUP6 PUSH2 0xDD1 JUMP JUMPDEST PUSH1 0x1 SWAP2 POP POP SWAP3 SWAP2 POP POP JUMP JUMPDEST PUSH1 0x5 SLOAD PUSH2 0x930 CALLER PUSH2 0x7FF JUMP JUMPDEST LT ISZERO PUSH2 0x93A JUMPI PUSH0 DUP1 REVERT JUMPDEST PUSH2 0x947 CALLER PUSH0 PUSH1 0x5 SLOAD PUSH2 0xF40 JUMP JUMPDEST PUSH0 TIMESTAMP COINBASE NUMBER PUSH1 0x40 MLOAD PUSH1 0x20 ADD PUSH2 0x95D SWAP4 SWAP3 SWAP2 SWAP1 PUSH2 0x1B80 JUMP JUMPDEST PUSH1 0x40 MLOAD PUSH1 0x20 DUP2 DUP4 SUB SUB DUP2 MSTORE SWAP1 PUSH1 0x40 MSTORE DUP1 MLOAD SWAP1 PUSH1 0x20 ADD KECCAK256 PUSH0 SHR SWAP1 POP PUSH1 0x3 DUP2 PUSH2 0x984 SWAP2 SWAP1 PUSH2 0x1BE9 JUMP JUMPDEST SWAP1 POP PUSH1 0x8 PUSH0 CALLER PUSH20 0xFFFFFFFFFFFFFFFFFFFFFFFFFFFFFFFFFFFFFFFF AND PUSH20 0xFFFFFFFFFFFFFFFFFFFFFFFFFFFFFFFFFFFFFFFF AND DUP2 MSTORE PUSH1 0x20 ADD SWAP1 DUP2 MSTORE PUSH1 0x20 ADD PUSH0 KECCAK256 PUSH1 0x40 MLOAD DUP1 PUSH1 0x40 ADD PUSH1 0x40 MSTORE DUP1 PUSH1 0x7 DUP5 DUP2 SLOAD DUP2 LT PUSH2 0x9E2 JUMPI PUSH2 0x9E1 PUSH2 0x1C19 JUMP JUMPDEST JUMPDEST SWAP1 PUSH0 MSTORE PUSH1 0x20 PUSH0 KECCAK256 ADD DUP1 SLOAD PUSH2 0x9F5 SWAP1 PUSH2 0x18F3 JUMP JUMPDEST DUP1 PUSH1 0x1F ADD PUSH1 0x20 DUP1 SWAP2 DIV MUL PUSH1 0x20 ADD PUSH1 0x40 MLOAD SWAP1 DUP2 ADD PUSH1 0x40 MSTORE DUP1 SWAP3 SWAP2 SWAP1 DUP2 DUP2 MSTORE PUSH1 0x20 ADD DUP3 DUP1 SLOAD PUSH2 0xA21 SWAP1 PUSH2 0x18F3 JUMP JUMPDEST DUP1 ISZERO PUSH2 0xA6C JUMPI DUP1 PUSH1 0x1F LT PUSH2 0xA43 JUMPI PUSH2 0x100 DUP1 DUP4 SLOAD DIV MUL DUP4 MSTORE SWAP2 PUSH1 0x20 ADD SWAP2 PUSH2 0xA6C JUMP JUMPDEST DUP3 ADD SWAP2 SWAP1 PUSH0 MSTORE PUSH1 0x20 PUSH0 KECCAK256 SWAP1 JUMPDEST DUP2 SLOAD DUP2 MSTORE SWAP1 PUSH1 0x1 ADD SWAP1 PUSH1 0x20 ADD DUP1 DUP4 GT PUSH2 0xA4F JUMPI DUP3 SWAP1 SUB PUSH1 0x1F AND DUP3 ADD SWAP2 JUMPDEST POP POP POP POP POP DUP2 MSTORE PUSH1 0x20 ADD PUSH1 0x6 DUP5 DUP2 SLOAD DUP2 LT PUSH2 0xA8A JUMPI PUSH2 0xA89 PUSH2 0x1C19 JUMP JUMPDEST JUMPDEST SWAP1 PUSH0 MSTORE PUSH1 0x20 PUSH0 KECCAK256 ADD DUP1 SLOAD PUSH2 0xA9D SWAP1 PUSH2 0x18F3 JUMP JUMPDEST DUP1 PUSH1 0x1F ADD PUSH1 0x20 DUP1 SWAP2 DIV MUL PUSH1 0x20 ADD PUSH1 0x40 MLOAD SWAP1 DUP2 ADD PUSH1 0x40 MSTORE DUP1 SWAP3 SWAP2 SWAP1 DUP2 DUP2 MSTORE PUSH1 0x20 ADD DUP3 DUP1 SLOAD PUSH2 0xAC9 SWAP1 PUSH2 0x18F3 JUMP JUMPDEST DUP1 ISZERO PUSH2 0xB14 JUMPI DUP1 PUSH1 0x1F LT PUSH2 0xAEB JUMPI PUSH2 0x100 DUP1 DUP4 SLOAD DIV MUL DUP4 MSTORE SWAP2 PUSH1 0x20 ADD SWAP2 PUSH2 0xB14 JUMP JUMPDEST DUP3 ADD SWAP2 SWAP1 PUSH0 MSTORE PUSH1 0x20 PUSH0 KECCAK256 SWAP1 JUMPDEST DUP2 SLOAD DUP2 MSTORE SWAP1 PUSH1 0x1 ADD SWAP1 PUSH1 0x20 ADD DUP1 DUP4 GT PUSH2 0xAF7 JUMPI DUP3 SWAP1 SUB PUSH1 0x1F AND DUP3 ADD SWAP2 JUMPDEST POP POP POP POP POP DUP2 MSTORE POP SWAP1 DUP1 PUSH1 0x1 DUP2 SLOAD ADD DUP1 DUP3 SSTORE DUP1 SWAP2 POP POP PUSH1 0x1 SWAP1 SUB SWAP1 PUSH0 MSTORE PUSH1 0x20 PUSH0 KECCAK256 SWAP1 PUSH1 0x2 MUL ADD PUSH0 SWAP1 SWAP2 SWAP1 SWAP2 SWAP1 SWAP2 POP PUSH0 DUP3 ADD MLOAD DUP2 PUSH0 ADD SWAP1 DUP2 PUSH2 0xB55 SWAP2 SWAP1 PUSH2 0x1E10 JUMP JUMPDEST POP PUSH1 0x20 DUP3 ADD MLOAD DUP2 PUSH1 0x1 ADD SWAP1 DUP2 PUSH2 0xB6B SWAP2 SWAP1 PUSH2 0x1E10 JUMP JUMPDEST POP POP POP PUSH0 DUP1 JUMPDEST PUSH1 0x9 DUP1 SLOAD SWAP1 POP DUP2 LT ISZERO PUSH2 0xC0A JUMPI CALLER PUSH20 0xFFFFFFFFFFFFFFFFFFFFFFFFFFFFFFFFFFFFFFFF AND PUSH1 0x9 DUP3 DUP2 SLOAD DUP2 LT PUSH2 0xBA9 JUMPI PUSH2 0xBA8 PUSH2 0x1C19 JUMP JUMPDEST JUMPDEST SWAP1 PUSH0 MSTORE PUSH1 0x20 PUSH0 KECCAK256 ADD PUSH0 ADD PUSH0 SWAP1 SLOAD SWAP1 PUSH2 0x100 EXP SWAP1 DIV PUSH20 0xFFFFFFFFFFFFFFFFFFFFFFFFFFFFFFFFFFFFFFFF AND PUSH20 0xFFFFFFFFFFFFFFFFFFFFFFFFFFFFFFFFFFFFFFFF AND SUB PUSH2 0xBF7 JUMPI PUSH1 0x1 SWAP2 POP PUSH2 0xC0A JUMP JUMPDEST DUP1 DUP1 PUSH2 0xC02 SWAP1 PUSH2 0x1EDF JUMP JUMPDEST SWAP2 POP POP PUSH2 0xB71 JUMP JUMPDEST POP DUP1 PUSH2 0xCA0 JUMPI PUSH1 0x9 PUSH1 0x40 MLOAD DUP1 PUSH1 0x20 ADD PUSH1 0x40 MSTORE DUP1 CALLER PUSH20 0xFFFFFFFFFFFFFFFFFFFFFFFFFFFFFFFFFFFFFFFF AND DUP2 MSTORE POP SWAP1 DUP1 PUSH1 0x1 DUP2 SLOAD ADD DUP1 DUP3 SSTORE DUP1 SWAP2 POP POP PUSH1 0x1 SWAP1 SUB SWAP1 PUSH0 MSTORE PUSH1 0x20 PUSH0 KECCAK256 ADD PUSH0 SWAP1 SWAP2 SWAP1 SWAP2 SWAP1 SWAP2 POP PUSH0 DUP3 ADD MLOAD DUP2 PUSH0 ADD PUSH0 PUSH2 0x100 EXP DUP2 SLOAD DUP2 PUSH20 0xFFFFFFFFFFFFFFFFFFFFFFFFFFFFFFFFFFFFFFFF MUL NOT AND SWAP1 DUP4 PUSH20 0xFFFFFFFFFFFFFFFFFFFFFFFFFFFFFFFFFFFFFFFF AND MUL OR SWAP1 SSTORE POP POP POP JUMPDEST POP POP JUMP JUMPDEST PUSH0 PUSH1 0x1 PUSH0 DUP5 PUSH20 0xFFFFFFFFFFFFFFFFFFFFFFFFFFFFFFFFFFFFFFFF AND PUSH20 0xFFFFFFFFFFFFFFFFFFFFFFFFFFFFFFFFFFFFFFFF AND DUP2 MSTORE PUSH1 0x20 ADD SWAP1 DUP2 MSTORE PUSH1 0x20 ADD PUSH0 KECCAK256 PUSH0 DUP4 PUSH20 0xFFFFFFFFFFFFFFFFFFFFFFFFFFFFFFFFFFFFFFFF AND PUSH20 0xFFFFFFFFFFFFFFFFFFFFFFFFFFFFFFFFFFFFFFFF AND DUP2 MSTORE PUSH1 0x20 ADD SWAP1 DUP2 MSTORE PUSH1 0x20 ADD PUSH0 KECCAK256 SLOAD SWAP1 POP SWAP3 SWAP2 POP POP JUMP JUMPDEST PUSH0 CALLER SWAP1 POP SWAP1 JUMP JUMPDEST PUSH2 0xD3A DUP4 DUP4 DUP4 PUSH1 0x1 PUSH2 0x1159 JUMP JUMPDEST POP POP POP JUMP JUMPDEST PUSH0 PUSH2 0xD4A DUP5 DUP5 PUSH2 0xCA4 JUMP JUMPDEST SWAP1 POP PUSH32 0xFFFFFFFFFFFFFFFFFFFFFFFFFFFFFFFFFFFFFFFFFFFFFFFFFFFFFFFFFFFFFFFF DUP2 EQ PUSH2 0xDCB JUMPI DUP2 DUP2 LT ISZERO PUSH2 0xDBC JUMPI DUP3 DUP2 DUP4 PUSH1 0x40 MLOAD PUSH32 0xFB8F41B200000000000000000000000000000000000000000000000000000000 DUP2 MSTORE PUSH1 0x4 ADD PUSH2 0xDB3 SWAP4 SWAP3 SWAP2 SWAP1 PUSH2 0x1F26 JUMP JUMPDEST PUSH1 0x40 MLOAD DUP1 SWAP2 SUB SWAP1 REVERT JUMPDEST PUSH2 0xDCA DUP5 DUP5 DUP5 DUP5 SUB PUSH0 PUSH2 0x1159 JUMP JUMPDEST JUMPDEST POP POP POP POP JUMP JUMPDEST PUSH0 PUSH20 0xFFFFFFFFFFFFFFFFFFFFFFFFFFFFFFFFFFFFFFFF AND DUP4 PUSH20 0xFFFFFFFFFFFFFFFFFFFFFFFFFFFFFFFFFFFFFFFF AND SUB PUSH2 0xE41 JUMPI PUSH0 PUSH1 0x40 MLOAD PUSH32 0x96C6FD1E00000000000000000000000000000000000000000000000000000000 DUP2 MSTORE PUSH1 0x4 ADD PUSH2 0xE38 SWAP2 SWAP1 PUSH2 0x171E JUMP JUMPDEST PUSH1 0x40 MLOAD DUP1 SWAP2 SUB SWAP1 REVERT JUMPDEST PUSH0 PUSH20 0xFFFFFFFFFFFFFFFFFFFFFFFFFFFFFFFFFFFFFFFF AND DUP3 PUSH20 0xFFFFFFFFFFFFFFFFFFFFFFFFFFFFFFFFFFFFFFFF AND SUB PUSH2 0xEB1 JUMPI PUSH0 PUSH1 0x40 MLOAD PUSH32 0xEC442F0500000000000000000000000000000000000000000000000000000000 DUP2 MSTORE PUSH1 0x4 ADD PUSH2 0xEA8 SWAP2 SWAP1 PUSH2 0x171E JUMP JUMPDEST PUSH1 0x40 MLOAD DUP1 SWAP2 SUB SWAP1 REVERT JUMPDEST PUSH2 0xEBC DUP4 DUP4 DUP4 PUSH2 0xF40 JUMP JUMPDEST POP POP POP JUMP JUMPDEST PUSH0 PUSH20 0xFFFFFFFFFFFFFFFFFFFFFFFFFFFFFFFFFFFFFFFF AND DUP3 PUSH20 0xFFFFFFFFFFFFFFFFFFFFFFFFFFFFFFFFFFFFFFFF AND SUB PUSH2 0xF31 JUMPI PUSH0 PUSH1 0x40 MLOAD PUSH32 0xEC442F0500000000000000000000000000000000000000000000000000000000 DUP2 MSTORE PUSH1 0x4 ADD PUSH2 0xF28 SWAP2 SWAP1 PUSH2 0x171E JUMP JUMPDEST PUSH1 0x40 MLOAD DUP1 SWAP2 SUB SWAP1 REVERT JUMPDEST PUSH2 0xF3C PUSH0 DUP4 DUP4 PUSH2 0xF40 JUMP JUMPDEST POP POP JUMP JUMPDEST PUSH0 PUSH20 0xFFFFFFFFFFFFFFFFFFFFFFFFFFFFFFFFFFFFFFFF AND DUP4 PUSH20 0xFFFFFFFFFFFFFFFFFFFFFFFFFFFFFFFFFFFFFFFF AND SUB PUSH2 0xF90 JUMPI DUP1 PUSH1 0x2 PUSH0 DUP3 DUP3 SLOAD PUSH2 0xF84 SWAP2 SWAP1 PUSH2 0x1F5B JUMP JUMPDEST SWAP3 POP POP DUP2 SWAP1 SSTORE POP PUSH2 0x105E JUMP JUMPDEST PUSH0 DUP1 PUSH0 DUP6 PUSH20 0xFFFFFFFFFFFFFFFFFFFFFFFFFFFFFFFFFFFFFFFF AND PUSH20 0xFFFFFFFFFFFFFFFFFFFFFFFFFFFFFFFFFFFFFFFF AND DUP2 MSTORE PUSH1 0x20 ADD SWAP1 DUP2 MSTORE PUSH1 0x20 ADD PUSH0 KECCAK256 SLOAD SWAP1 POP DUP2 DUP2 LT ISZERO PUSH2 0x1019 JUMPI DUP4 DUP2 DUP4 PUSH1 0x40 MLOAD PUSH32 0xE450D38C00000000000000000000000000000000000000000000000000000000 DUP2 MSTORE PUSH1 0x4 ADD PUSH2 0x1010 SWAP4 SWAP3 SWAP2 SWAP1 PUSH2 0x1F26 JUMP JUMPDEST PUSH1 0x40 MLOAD DUP1 SWAP2 SUB SWAP1 REVERT JUMPDEST DUP2 DUP2 SUB PUSH0 DUP1 DUP7 PUSH20 0xFFFFFFFFFFFFFFFFFFFFFFFFFFFFFFFFFFFFFFFF AND PUSH20 0xFFFFFFFFFFFFFFFFFFFFFFFFFFFFFFFFFFFFFFFF AND DUP2 MSTORE PUSH1 0x20 ADD SWAP1 DUP2 MSTORE PUSH1 0x20 ADD PUSH0 KECCAK256 DUP2 SWAP1 SSTORE POP POP JUMPDEST PUSH0 PUSH20 0xFFFFFFFFFFFFFFFFFFFFFFFFFFFFFFFFFFFFFFFF AND DUP3 PUSH20 0xFFFFFFFFFFFFFFFFFFFFFFFFFFFFFFFFFFFFFFFF AND SUB PUSH2 0x10A5 JUMPI DUP1 PUSH1 0x2 PUSH0 DUP3 DUP3 SLOAD SUB SWAP3 POP POP DUP2 SWAP1 SSTORE POP PUSH2 0x10EF JUMP JUMPDEST DUP1 PUSH0 DUP1 DUP5 PUSH20 0xFFFFFFFFFFFFFFFFFFFFFFFFFFFFFFFFFFFFFFFF AND PUSH20 0xFFFFFFFFFFFFFFFFFFFFFFFFFFFFFFFFFFFFFFFF AND DUP2 MSTORE PUSH1 0x20 ADD SWAP1 DUP2 MSTORE PUSH1 0x20 ADD PUSH0 KECCAK256 PUSH0 DUP3 DUP3 SLOAD ADD SWAP3 POP POP DUP2 SWAP1 SSTORE POP JUMPDEST DUP2 PUSH20 0xFFFFFFFFFFFFFFFFFFFFFFFFFFFFFFFFFFFFFFFF AND DUP4 PUSH20 0xFFFFFFFFFFFFFFFFFFFFFFFFFFFFFFFFFFFFFFFF AND PUSH32 0xDDF252AD1BE2C89B69C2B068FC378DAA952BA7F163C4A11628F55A4DF523B3EF DUP4 PUSH1 0x40 MLOAD PUSH2 0x114C SWAP2 SWAP1 PUSH2 0x1647 JUMP JUMPDEST PUSH1 0x40 MLOAD DUP1 SWAP2 SUB SWAP1 LOG3 POP POP POP JUMP JUMPDEST PUSH0 PUSH20 0xFFFFFFFFFFFFFFFFFFFFFFFFFFFFFFFFFFFFFFFF AND DUP5 PUSH20 0xFFFFFFFFFFFFFFFFFFFFFFFFFFFFFFFFFFFFFFFF AND SUB PUSH2 0x11C9 JUMPI PUSH0 PUSH1 0x40 MLOAD PUSH32 0xE602DF0500000000000000000000000000000000000000000000000000000000 DUP2 MSTORE PUSH1 0x4 ADD PUSH2 0x11C0 SWAP2 SWAP1 PUSH2 0x171E JUMP JUMPDEST PUSH1 0x40 MLOAD DUP1 SWAP2 SUB SWAP1 REVERT JUMPDEST PUSH0 PUSH20 0xFFFFFFFFFFFFFFFFFFFFFFFFFFFFFFFFFFFFFFFF AND DUP4 PUSH20 0xFFFFFFFFFFFFFFFFFFFFFFFFFFFFFFFFFFFFFFFF AND SUB PUSH2 0x1239 JUMPI PUSH0 PUSH1 0x40 MLOAD PUSH32 0x94280D6200000000000000000000000000000000000000000000000000000000 DUP2 MSTORE PUSH1 0x4 ADD PUSH2 0x1230 SWAP2 SWAP1 PUSH2 0x171E JUMP JUMPDEST PUSH1 0x40 MLOAD DUP1 SWAP2 SUB SWAP1 REVERT JUMPDEST DUP2 PUSH1 0x1 PUSH0 DUP7 PUSH20 0xFFFFFFFFFFFFFFFFFFFFFFFFFFFFFFFFFFFFFFFF AND PUSH20 0xFFFFFFFFFFFFFFFFFFFFFFFFFFFFFFFFFFFFFFFF AND DUP2 MSTORE PUSH1 0x20 ADD SWAP1 DUP2 MSTORE PUSH1 0x20 ADD PUSH0 KECCAK256 PUSH0 DUP6 PUSH20 0xFFFFFFFFFFFFFFFFFFFFFFFFFFFFFFFFFFFFFFFF AND PUSH20 0xFFFFFFFFFFFFFFFFFFFFFFFFFFFFFFFFFFFFFFFF AND DUP2 MSTORE PUSH1 0x20 ADD SWAP1 DUP2 MSTORE PUSH1 0x20 ADD PUSH0 KECCAK256 DUP2 SWAP1 SSTORE POP DUP1 ISZERO PUSH2 0x1322 JUMPI DUP3 PUSH20 0xFFFFFFFFFFFFFFFFFFFFFFFFFFFFFFFFFFFFFFFF AND DUP5 PUSH20 0xFFFFFFFFFFFFFFFFFFFFFFFFFFFFFFFFFFFFFFFF AND PUSH32 0x8C5BE1E5EBEC7D5BD14F71427D1E84F3DD0314C0F7B2291E5B200AC8C7C3B925 DUP5 PUSH1 0x40 MLOAD PUSH2 0x1319 SWAP2 SWAP1 PUSH2 0x1647 JUMP JUMPDEST PUSH1 0x40 MLOAD DUP1 SWAP2 SUB SWAP1 LOG3 JUMPDEST POP POP POP POP JUMP JUMPDEST PUSH0 DUP2 MLOAD SWAP1 POP SWAP2 SWAP1 POP JUMP JUMPDEST PUSH0 DUP3 DUP3 MSTORE PUSH1 0x20 DUP3 ADD SWAP1 POP SWAP3 SWAP2 POP POP JUMP JUMPDEST PUSH0 DUP2 SWAP1 POP PUSH1 0x20 DUP3 ADD SWAP1 POP SWAP2 SWAP1 POP JUMP JUMPDEST PUSH0 DUP2 MLOAD SWAP1 POP SWAP2 SWAP1 POP JUMP JUMPDEST PUSH0 DUP3 DUP3 MSTORE PUSH1 0x20 DUP3 ADD SWAP1 POP SWAP3 SWAP2 POP POP JUMP JUMPDEST PUSH0 JUMPDEST DUP4 DUP2 LT ISZERO PUSH2 0x1388 JUMPI DUP1 DUP3 ADD MLOAD DUP2 DUP5 ADD MSTORE PUSH1 0x20 DUP2 ADD SWAP1 POP PUSH2 0x136D JUMP JUMPDEST PUSH0 DUP5 DUP5 ADD MSTORE POP POP POP POP JUMP JUMPDEST PUSH0 PUSH1 0x1F NOT PUSH1 0x1F DUP4 ADD AND SWAP1 POP SWAP2 SWAP1 POP JUMP JUMPDEST PUSH0 PUSH2 0x13AD DUP3 PUSH2 0x1351 JUMP JUMPDEST PUSH2 0x13B7 DUP2 DUP6 PUSH2 0x135B JUMP JUMPDEST SWAP4 POP PUSH2 0x13C7 DUP2 DUP6 PUSH1 0x20 DUP7 ADD PUSH2 0x136B JUMP JUMPDEST PUSH2 0x13D0 DUP2 PUSH2 0x1393 JUMP JUMPDEST DUP5 ADD SWAP2 POP POP SWAP3 SWAP2 POP POP JUMP JUMPDEST PUSH0 PUSH1 0x40 DUP4 ADD PUSH0 DUP4 ADD MLOAD DUP5 DUP3 SUB PUSH0 DUP7 ADD MSTORE PUSH2 0x13F5 DUP3 DUP3 PUSH2 0x13A3 JUMP JUMPDEST SWAP2 POP POP PUSH1 0x20 DUP4 ADD MLOAD DUP5 DUP3 SUB PUSH1 0x20 DUP7 ADD MSTORE PUSH2 0x140F DUP3 DUP3 PUSH2 0x13A3 JUMP JUMPDEST SWAP2 POP POP DUP1 SWAP2 POP POP SWAP3 SWAP2 POP POP JUMP JUMPDEST PUSH0 PUSH2 0x1427 DUP4 DUP4 PUSH2 0x13DB JUMP JUMPDEST SWAP1 POP SWAP3 SWAP2 POP POP JUMP JUMPDEST PUSH0 PUSH1 0x20 DUP3 ADD SWAP1 POP SWAP2 SWAP1 POP JUMP JUMPDEST PUSH0 PUSH2 0x1445 DUP3 PUSH2 0x1328 JUMP JUMPDEST PUSH2 0x144F DUP2 DUP6 PUSH2 0x1332 JUMP JUMPDEST SWAP4 POP DUP4 PUSH1 0x20 DUP3 MUL DUP6 ADD PUSH2 0x1461 DUP6 PUSH2 0x1342 JUMP JUMPDEST DUP1 PUSH0 JUMPDEST DUP6 DUP2 LT ISZERO PUSH2 0x149C JUMPI DUP5 DUP5 SUB DUP10 MSTORE DUP2 MLOAD PUSH2 0x147D DUP6 DUP3 PUSH2 0x141C JUMP JUMPDEST SWAP5 POP PUSH2 0x1488 DUP4 PUSH2 0x142F JUMP JUMPDEST SWAP3 POP PUSH1 0x20 DUP11 ADD SWAP10 POP POP PUSH1 0x1 DUP2 ADD SWAP1 POP PUSH2 0x1464 JUMP JUMPDEST POP DUP3 SWAP8 POP DUP8 SWAP6 POP POP POP POP POP POP SWAP3 SWAP2 POP POP JUMP JUMPDEST PUSH0 PUSH1 0x20 DUP3 ADD SWAP1 POP DUP2 DUP2 SUB PUSH0 DUP4 ADD MSTORE PUSH2 0x14C6 DUP2 DUP5 PUSH2 0x143B JUMP JUMPDEST SWAP1 POP SWAP3 SWAP2 POP POP JUMP JUMPDEST PUSH0 DUP3 DUP3 MSTORE PUSH1 0x20 DUP3 ADD SWAP1 POP SWAP3 SWAP2 POP POP JUMP JUMPDEST PUSH0 PUSH2 0x14E8 DUP3 PUSH2 0x1351 JUMP JUMPDEST PUSH2 0x14F2 DUP2 DUP6 PUSH2 0x14CE JUMP JUMPDEST SWAP4 POP PUSH2 0x1502 DUP2 DUP6 PUSH1 0x20 DUP7 ADD PUSH2 0x136B JUMP JUMPDEST PUSH2 0x150B DUP2 PUSH2 0x1393 JUMP JUMPDEST DUP5 ADD SWAP2 POP POP SWAP3 SWAP2 POP POP JUMP JUMPDEST PUSH0 PUSH1 0x20 DUP3 ADD SWAP1 POP DUP2 DUP2 SUB PUSH0 DUP4 ADD MSTORE PUSH2 0x152E DUP2 DUP5 PUSH2 0x14DE JUMP JUMPDEST SWAP1 POP SWAP3 SWAP2 POP POP JUMP JUMPDEST PUSH0 DUP1 REVERT JUMPDEST PUSH0 PUSH20 0xFFFFFFFFFFFFFFFFFFFFFFFFFFFFFFFFFFFFFFFF DUP3 AND SWAP1 POP SWAP2 SWAP1 POP JUMP JUMPDEST PUSH0 PUSH2 0x1563 DUP3 PUSH2 0x153A JUMP JUMPDEST SWAP1 POP SWAP2 SWAP1 POP JUMP JUMPDEST PUSH2 0x1573 DUP2 PUSH2 0x1559 JUMP JUMPDEST DUP2 EQ PUSH2 0x157D JUMPI PUSH0 DUP1 REVERT JUMPDEST POP JUMP JUMPDEST PUSH0 DUP2 CALLDATALOAD SWAP1 POP PUSH2 0x158E DUP2 PUSH2 0x156A JUMP JUMPDEST SWAP3 SWAP2 POP POP JUMP JUMPDEST PUSH0 DUP2 SWAP1 POP SWAP2 SWAP1 POP JUMP JUMPDEST PUSH2 0x15A6 DUP2 PUSH2 0x1594 JUMP JUMPDEST DUP2 EQ PUSH2 0x15B0 JUMPI PUSH0 DUP1 REVERT JUMPDEST POP JUMP JUMPDEST PUSH0 DUP2 CALLDATALOAD SWAP1 POP PUSH2 0x15C1 DUP2 PUSH2 0x159D JUMP JUMPDEST SWAP3 SWAP2 POP POP JUMP JUMPDEST PUSH0 DUP1 PUSH1 0x40 DUP4 DUP6 SUB SLT ISZERO PUSH2 0x15DD JUMPI PUSH2 0x15DC PUSH2 0x1536 JUMP JUMPDEST JUMPDEST PUSH0 PUSH2 0x15EA DUP6 DUP3 DUP7 ADD PUSH2 0x1580 JUMP JUMPDEST SWAP3 POP POP PUSH1 0x20 PUSH2 0x15FB DUP6 DUP3 DUP7 ADD PUSH2 0x15B3 JUMP JUMPDEST SWAP2 POP POP SWAP3 POP SWAP3 SWAP1 POP JUMP JUMPDEST PUSH0 DUP2 ISZERO ISZERO SWAP1 POP SWAP2 SWAP1 POP JUMP JUMPDEST PUSH2 0x1619 DUP2 PUSH2 0x1605 JUMP JUMPDEST DUP3 MSTORE POP POP JUMP JUMPDEST PUSH0 PUSH1 0x20 DUP3 ADD SWAP1 POP PUSH2 0x1632 PUSH0 DUP4 ADD DUP5 PUSH2 0x1610 JUMP JUMPDEST SWAP3 SWAP2 POP POP JUMP JUMPDEST PUSH2 0x1641 DUP2 PUSH2 0x1594 JUMP JUMPDEST DUP3 MSTORE POP POP JUMP JUMPDEST PUSH0 PUSH1 0x20 DUP3 ADD SWAP1 POP PUSH2 0x165A PUSH0 DUP4 ADD DUP5 PUSH2 0x1638 JUMP JUMPDEST SWAP3 SWAP2 POP POP JUMP JUMPDEST PUSH0 DUP1 PUSH0 PUSH1 0x60 DUP5 DUP7 SUB SLT ISZERO PUSH2 0x1677 JUMPI PUSH2 0x1676 PUSH2 0x1536 JUMP JUMPDEST JUMPDEST PUSH0 PUSH2 0x1684 DUP7 DUP3 DUP8 ADD PUSH2 0x1580 JUMP JUMPDEST SWAP4 POP POP PUSH1 0x20 PUSH2 0x1695 DUP7 DUP3 DUP8 ADD PUSH2 0x1580 JUMP JUMPDEST SWAP3 POP POP PUSH1 0x40 PUSH2 0x16A6 DUP7 DUP3 DUP8 ADD PUSH2 0x15B3 JUMP JUMPDEST SWAP2 POP POP SWAP3 POP SWAP3 POP SWAP3 JUMP JUMPDEST PUSH0 PUSH1 0xFF DUP3 AND SWAP1 POP SWAP2 SWAP1 POP JUMP JUMPDEST PUSH2 0x16C5 DUP2 PUSH2 0x16B0 JUMP JUMPDEST DUP3 MSTORE POP POP JUMP JUMPDEST PUSH0 PUSH1 0x20 DUP3 ADD SWAP1 POP PUSH2 0x16DE PUSH0 DUP4 ADD DUP5 PUSH2 0x16BC JUMP JUMPDEST SWAP3 SWAP2 POP POP JUMP JUMPDEST PUSH0 PUSH1 0x20 DUP3 DUP5 SUB SLT ISZERO PUSH2 0x16F9 JUMPI PUSH2 0x16F8 PUSH2 0x1536 JUMP JUMPDEST JUMPDEST PUSH0 PUSH2 0x1706 DUP5 DUP3 DUP6 ADD PUSH2 0x15B3 JUMP JUMPDEST SWAP2 POP POP SWAP3 SWAP2 POP POP JUMP JUMPDEST PUSH2 0x1718 DUP2 PUSH2 0x1559 JUMP JUMPDEST DUP3 MSTORE POP POP JUMP JUMPDEST PUSH0 PUSH1 0x20 DUP3 ADD SWAP1 POP PUSH2 0x1731 PUSH0 DUP4 ADD DUP5 PUSH2 0x170F JUMP JUMPDEST SWAP3 SWAP2 POP POP JUMP JUMPDEST PUSH0 PUSH1 0x40 DUP3 ADD SWAP1 POP DUP2 DUP2 SUB PUSH0 DUP4 ADD MSTORE PUSH2 0x174F DUP2 DUP6 PUSH2 0x14DE JUMP JUMPDEST SWAP1 POP DUP2 DUP2 SUB PUSH1 0x20 DUP4 ADD MSTORE PUSH2 0x1763 DUP2 DUP5 PUSH2 0x14DE JUMP JUMPDEST SWAP1 POP SWAP4 SWAP3 POP POP POP JUMP JUMPDEST PUSH0 DUP2 MLOAD SWAP1 POP SWAP2 SWAP1 POP JUMP JUMPDEST PUSH0 DUP3 DUP3 MSTORE PUSH1 0x20 DUP3 ADD SWAP1 POP SWAP3 SWAP2 POP POP JUMP JUMPDEST PUSH0 DUP2 SWAP1 POP PUSH1 0x20 DUP3 ADD SWAP1 POP SWAP2 SWAP1 POP JUMP JUMPDEST PUSH2 0x179E DUP2 PUSH2 0x1559 JUMP JUMPDEST DUP3 MSTORE POP POP JUMP JUMPDEST PUSH1 0x20 DUP3 ADD PUSH0 DUP3 ADD MLOAD PUSH2 0x17B8 PUSH0 DUP6 ADD DUP3 PUSH2 0x1795 JUMP JUMPDEST POP POP POP POP JUMP JUMPDEST PUSH0 PUSH2 0x17C9 DUP4 DUP4 PUSH2 0x17A4 JUMP JUMPDEST PUSH1 0x20 DUP4 ADD SWAP1 POP SWAP3 SWAP2 POP POP JUMP JUMPDEST PUSH0 PUSH1 0x20 DUP3 ADD SWAP1 POP SWAP2 SWAP1 POP JUMP JUMPDEST PUSH0 PUSH2 0x17EB DUP3 PUSH2 0x176C JUMP JUMPDEST PUSH2 0x17F5 DUP2 DUP6 PUSH2 0x1776 JUMP JUMPDEST SWAP4 POP PUSH2 0x1800 DUP4 PUSH2 0x1786 JUMP JUMPDEST DUP1 PUSH0 JUMPDEST DUP4 DUP2 LT ISZERO PUSH2 0x1830 JUMPI DUP2 MLOAD PUSH2 0x1817 DUP9 DUP3 PUSH2 0x17BE JUMP JUMPDEST SWAP8 POP PUSH2 0x1822 DUP4 PUSH2 0x17D5 JUMP JUMPDEST SWAP3 POP POP PUSH1 0x1 DUP2 ADD SWAP1 POP PUSH2 0x1803 JUMP JUMPDEST POP DUP6 SWAP4 POP POP POP POP SWAP3 SWAP2 POP POP JUMP JUMPDEST PUSH0 PUSH1 0x20 DUP3 ADD SWAP1 POP DUP2 DUP2 SUB PUSH0 DUP4 ADD MSTORE PUSH2 0x1855 DUP2 DUP5 PUSH2 0x17E1 JUMP JUMPDEST SWAP1 POP SWAP3 SWAP2 POP POP JUMP JUMPDEST PUSH0 PUSH1 0x20 DUP3 DUP5 SUB SLT ISZERO PUSH2 0x1872 JUMPI PUSH2 0x1871 PUSH2 0x1536 JUMP JUMPDEST JUMPDEST PUSH0 PUSH2 0x187F DUP5 DUP3 DUP6 ADD PUSH2 0x1580 JUMP JUMPDEST SWAP2 POP POP SWAP3 SWAP2 POP POP JUMP JUMPDEST PUSH0 DUP1 PUSH1 0x40 DUP4 DUP6 SUB SLT ISZERO PUSH2 0x189E JUMPI PUSH2 0x189D PUSH2 0x1536 JUMP JUMPDEST JUMPDEST PUSH0 PUSH2 0x18AB DUP6 DUP3 DUP7 ADD PUSH2 0x1580 JUMP JUMPDEST SWAP3 POP POP PUSH1 0x20 PUSH2 0x18BC DUP6 DUP3 DUP7 ADD PUSH2 0x1580 JUMP JUMPDEST SWAP2 POP POP SWAP3 POP SWAP3 SWAP1 POP JUMP JUMPDEST PUSH32 0x4E487B7100000000000000000000000000000000000000000000000000000000 PUSH0 MSTORE PUSH1 0x22 PUSH1 0x4 MSTORE PUSH1 0x24 PUSH0 REVERT JUMPDEST PUSH0 PUSH1 0x2 DUP3 DIV SWAP1 POP PUSH1 0x1 DUP3 AND DUP1 PUSH2 0x190A JUMPI PUSH1 0x7F DUP3 AND SWAP2 POP JUMPDEST PUSH1 0x20 DUP3 LT DUP2 SUB PUSH2 0x191D JUMPI PUSH2 0x191C PUSH2 0x18C6 JUMP JUMPDEST JUMPDEST POP SWAP2 SWAP1 POP JUMP JUMPDEST PUSH32 0x4E487B7100000000000000000000000000000000000000000000000000000000 PUSH0 MSTORE PUSH1 0x11 PUSH1 0x4 MSTORE PUSH1 0x24 PUSH0 REVERT JUMPDEST PUSH0 DUP2 PUSH1 0x1 SHR SWAP1 POP SWAP2 SWAP1 POP JUMP JUMPDEST PUSH0 DUP1 DUP3 SWAP2 POP DUP4 SWAP1 POP JUMPDEST PUSH1 0x1 DUP6 GT ISZERO PUSH2 0x19A5 JUMPI DUP1 DUP7 DIV DUP2 GT ISZERO PUSH2 0x1981 JUMPI PUSH2 0x1980 PUSH2 0x1923 JUMP JUMPDEST JUMPDEST PUSH1 0x1 DUP6 AND ISZERO PUSH2 0x1990 JUMPI DUP1 DUP3 MUL SWAP2 POP JUMPDEST DUP1 DUP2 MUL SWAP1 POP PUSH2 0x199E DUP6 PUSH2 0x1950 JUMP JUMPDEST SWAP5 POP PUSH2 0x1965 JUMP JUMPDEST SWAP5 POP SWAP5 SWAP3 POP POP POP JUMP JUMPDEST PUSH0 DUP3 PUSH2 0x19BD JUMPI PUSH1 0x1 SWAP1 POP PUSH2 0x1A78 JUMP JUMPDEST DUP2 PUSH2 0x19CA JUMPI PUSH0 SWAP1 POP PUSH2 0x1A78 JUMP JUMPDEST DUP2 PUSH1 0x1 DUP2 EQ PUSH2 0x19E0 JUMPI PUSH1 0x2 DUP2 EQ PUSH2 0x19EA JUMPI PUSH2 0x1A19 JUMP JUMPDEST PUSH1 0x1 SWAP2 POP POP PUSH2 0x1A78 JUMP JUMPDEST PUSH1 0xFF DUP5 GT ISZERO PUSH2 0x19FC JUMPI PUSH2 0x19FB PUSH2 0x1923 JUMP JUMPDEST JUMPDEST DUP4 PUSH1 0x2 EXP SWAP2 POP DUP5 DUP3 GT ISZERO PUSH2 0x1A13 JUMPI PUSH2 0x1A12 PUSH2 0x1923 JUMP JUMPDEST JUMPDEST POP PUSH2 0x1A78 JUMP JUMPDEST POP PUSH1 0x20 DUP4 LT PUSH2 0x133 DUP4 LT AND PUSH1 0x4E DUP5 LT PUSH1 0xB DUP5 LT AND OR ISZERO PUSH2 0x1A4E JUMPI DUP3 DUP3 EXP SWAP1 POP DUP4 DUP2 GT ISZERO PUSH2 0x1A49 JUMPI PUSH2 0x1A48 PUSH2 0x1923 JUMP JUMPDEST JUMPDEST PUSH2 0x1A78 JUMP JUMPDEST PUSH2 0x1A5B DUP5 DUP5 DUP5 PUSH1 0x1 PUSH2 0x195C JUMP JUMPDEST SWAP3 POP SWAP1 POP DUP2 DUP5 DIV DUP2 GT ISZERO PUSH2 0x1A72 JUMPI PUSH2 0x1A71 PUSH2 0x1923 JUMP JUMPDEST JUMPDEST DUP2 DUP2 MUL SWAP1 POP JUMPDEST SWAP4 SWAP3 POP POP POP JUMP JUMPDEST PUSH0 PUSH2 0x1A89 DUP3 PUSH2 0x1594 JUMP JUMPDEST SWAP2 POP PUSH2 0x1A94 DUP4 PUSH2 0x16B0 JUMP JUMPDEST SWAP3 POP PUSH2 0x1AC1 PUSH32 0xFFFFFFFFFFFFFFFFFFFFFFFFFFFFFFFFFFFFFFFFFFFFFFFFFFFFFFFFFFFFFFFF DUP5 DUP5 PUSH2 0x19AE JUMP JUMPDEST SWAP1 POP SWAP3 SWAP2 POP POP JUMP JUMPDEST PUSH0 PUSH2 0x1AD3 DUP3 PUSH2 0x1594 JUMP JUMPDEST SWAP2 POP PUSH2 0x1ADE DUP4 PUSH2 0x1594 JUMP JUMPDEST SWAP3 POP DUP3 DUP3 MUL PUSH2 0x1AEC DUP2 PUSH2 0x1594 JUMP JUMPDEST SWAP2 POP DUP3 DUP3 DIV DUP5 EQ DUP4 ISZERO OR PUSH2 0x1B03 JUMPI PUSH2 0x1B02 PUSH2 0x1923 JUMP JUMPDEST JUMPDEST POP SWAP3 SWAP2 POP POP JUMP JUMPDEST PUSH0 DUP2 SWAP1 POP SWAP2 SWAP1 POP JUMP JUMPDEST PUSH2 0x1B24 PUSH2 0x1B1F DUP3 PUSH2 0x1594 JUMP JUMPDEST PUSH2 0x1B0A JUMP JUMPDEST DUP3 MSTORE POP POP JUMP JUMPDEST PUSH0 PUSH2 0x1B34 DUP3 PUSH2 0x153A JUMP JUMPDEST SWAP1 POP SWAP2 SWAP1 POP JUMP JUMPDEST PUSH0 DUP2 PUSH1 0x60 SHL SWAP1 POP SWAP2 SWAP1 POP JUMP JUMPDEST PUSH0 PUSH2 0x1B51 DUP3 PUSH2 0x1B3B JUMP JUMPDEST SWAP1 POP SWAP2 SWAP1 POP JUMP JUMPDEST PUSH0 PUSH2 0x1B62 DUP3 PUSH2 0x1B47 JUMP JUMPDEST SWAP1 POP SWAP2 SWAP1 POP JUMP JUMPDEST PUSH2 0x1B7A PUSH2 0x1B75 DUP3 PUSH2 0x1B2A JUMP JUMPDEST PUSH2 0x1B58 JUMP JUMPDEST DUP3 MSTORE POP POP JUMP JUMPDEST PUSH0 PUSH2 0x1B8B DUP3 DUP7 PUSH2 0x1B13 JUMP JUMPDEST PUSH1 0x20 DUP3 ADD SWAP2 POP PUSH2 0x1B9B DUP3 DUP6 PUSH2 0x1B69 JUMP JUMPDEST PUSH1 0x14 DUP3 ADD SWAP2 POP PUSH2 0x1BAB DUP3 DUP5 PUSH2 0x1B13 JUMP JUMPDEST PUSH1 0x20 DUP3 ADD SWAP2 POP DUP2 SWAP1 POP SWAP5 SWAP4 POP POP POP POP JUMP JUMPDEST PUSH32 0x4E487B7100000000000000000000000000000000000000000000000000000000 PUSH0 MSTORE PUSH1 0x12 PUSH1 0x4 MSTORE PUSH1 0x24 PUSH0 REVERT JUMPDEST PUSH0 PUSH2 0x1BF3 DUP3 PUSH2 0x1594 JUMP JUMPDEST SWAP2 POP PUSH2 0x1BFE DUP4 PUSH2 0x1594 JUMP JUMPDEST SWAP3 POP DUP3 PUSH2 0x1C0E JUMPI PUSH2 0x1C0D PUSH2 0x1BBC JUMP JUMPDEST JUMPDEST DUP3 DUP3 MOD SWAP1 POP SWAP3 SWAP2 POP POP JUMP JUMPDEST PUSH32 0x4E487B7100000000000000000000000000000000000000000000000000000000 PUSH0 MSTORE PUSH1 0x32 PUSH1 0x4 MSTORE PUSH1 0x24 PUSH0 REVERT JUMPDEST PUSH32 0x4E487B7100000000000000000000000000000000000000000000000000000000 PUSH0 MSTORE PUSH1 0x41 PUSH1 0x4 MSTORE PUSH1 0x24 PUSH0 REVERT JUMPDEST PUSH0 DUP2 SWAP1 POP DUP2 PUSH0 MSTORE PUSH1 0x20 PUSH0 KECCAK256 SWAP1 POP SWAP2 SWAP1 POP JUMP JUMPDEST PUSH0 PUSH1 0x20 PUSH1 0x1F DUP4 ADD DIV SWAP1 POP SWAP2 SWAP1 POP JUMP JUMPDEST PUSH0 DUP3 DUP3 SHL SWAP1 POP SWAP3 SWAP2 POP POP JUMP JUMPDEST PUSH0 PUSH1 0x8 DUP4 MUL PUSH2 0x1CCF PUSH32 0xFFFFFFFFFFFFFFFFFFFFFFFFFFFFFFFFFFFFFFFFFFFFFFFFFFFFFFFFFFFFFFFF DUP3 PUSH2 0x1C94 JUMP JUMPDEST PUSH2 0x1CD9 DUP7 DUP4 PUSH2 0x1C94 JUMP JUMPDEST SWAP6 POP DUP1 NOT DUP5 AND SWAP4 POP DUP1 DUP7 AND DUP5 OR SWAP3 POP POP POP SWAP4 SWAP3 POP POP POP JUMP JUMPDEST PUSH0 DUP2 SWAP1 POP SWAP2 SWAP1 POP JUMP JUMPDEST PUSH0 PUSH2 0x1D14 PUSH2 0x1D0F PUSH2 0x1D0A DUP5 PUSH2 0x1594 JUMP JUMPDEST PUSH2 0x1CF1 JUMP JUMPDEST PUSH2 0x1594 JUMP JUMPDEST SWAP1 POP SWAP2 SWAP1 POP JUMP JUMPDEST PUSH0 DUP2 SWAP1 POP SWAP2 SWAP1 POP JUMP JUMPDEST PUSH2 0x1D2D DUP4 PUSH2 0x1CFA JUMP JUMPDEST PUSH2 0x1D41 PUSH2 0x1D39 DUP3 PUSH2 0x1D1B JUMP JUMPDEST DUP5 DUP5 SLOAD PUSH2 0x1CA0 JUMP JUMPDEST DUP3 SSTORE POP POP POP POP JUMP JUMPDEST PUSH0 SWAP1 JUMP JUMPDEST PUSH2 0x1D55 PUSH2 0x1D49 JUMP JUMPDEST PUSH2 0x1D60 DUP2 DUP5 DUP5 PUSH2 0x1D24 JUMP JUMPDEST POP POP POP JUMP JUMPDEST JUMPDEST DUP2 DUP2 LT ISZERO PUSH2 0x1D83 JUMPI PUSH2 0x1D78 PUSH0 DUP3 PUSH2 0x1D4D JUMP JUMPDEST PUSH1 0x1 DUP2 ADD SWAP1 POP PUSH2 0x1D66 JUMP JUMPDEST POP POP JUMP JUMPDEST PUSH1 0x1F DUP3 GT ISZERO PUSH2 0x1DC8 JUMPI PUSH2 0x1D99 DUP2 PUSH2 0x1C73 JUMP JUMPDEST PUSH2 0x1DA2 DUP5 PUSH2 0x1C85 JUMP JUMPDEST DUP2 ADD PUSH1 0x20 DUP6 LT ISZERO PUSH2 0x1DB1 JUMPI DUP2 SWAP1 POP JUMPDEST PUSH2 0x1DC5 PUSH2 0x1DBD DUP6 PUSH2 0x1C85 JUMP JUMPDEST DUP4 ADD DUP3 PUSH2 0x1D65 JUMP JUMPDEST POP POP JUMPDEST POP POP POP JUMP JUMPDEST PUSH0 DUP3 DUP3 SHR SWAP1 POP SWAP3 SWAP2 POP POP JUMP JUMPDEST PUSH0 PUSH2 0x1DE8 PUSH0 NOT DUP5 PUSH1 0x8 MUL PUSH2 0x1DCD JUMP JUMPDEST NOT DUP1 DUP4 AND SWAP2 POP POP SWAP3 SWAP2 POP POP JUMP JUMPDEST PUSH0 PUSH2 0x1E00 DUP4 DUP4 PUSH2 0x1DD9 JUMP JUMPDEST SWAP2 POP DUP3 PUSH1 0x2 MUL DUP3 OR SWAP1 POP SWAP3 SWAP2 POP POP JUMP JUMPDEST PUSH2 0x1E19 DUP3 PUSH2 0x1351 JUMP JUMPDEST PUSH8 0xFFFFFFFFFFFFFFFF DUP2 GT ISZERO PUSH2 0x1E32 JUMPI PUSH2 0x1E31 PUSH2 0x1C46 JUMP JUMPDEST JUMPDEST PUSH2 0x1E3C DUP3 SLOAD PUSH2 0x18F3 JUMP JUMPDEST PUSH2 0x1E47 DUP3 DUP3 DUP6 PUSH2 0x1D87 JUMP JUMPDEST PUSH0 PUSH1 0x20 SWAP1 POP PUSH1 0x1F DUP4 GT PUSH1 0x1 DUP2 EQ PUSH2 0x1E78 JUMPI PUSH0 DUP5 ISZERO PUSH2 0x1E66 JUMPI DUP3 DUP8 ADD MLOAD SWAP1 POP JUMPDEST PUSH2 0x1E70 DUP6 DUP3 PUSH2 0x1DF5 JUMP JUMPDEST DUP7 SSTORE POP PUSH2 0x1ED7 JUMP JUMPDEST PUSH1 0x1F NOT DUP5 AND PUSH2 0x1E86 DUP7 PUSH2 0x1C73 JUMP JUMPDEST PUSH0 JUMPDEST DUP3 DUP2 LT ISZERO PUSH2 0x1EAD JUMPI DUP5 DUP10 ADD MLOAD DUP3 SSTORE PUSH1 0x1 DUP3 ADD SWAP2 POP PUSH1 0x20 DUP6 ADD SWAP5 POP PUSH1 0x20 DUP2 ADD SWAP1 POP PUSH2 0x1E88 JUMP JUMPDEST DUP7 DUP4 LT ISZERO PUSH2 0x1ECA JUMPI DUP5 DUP10 ADD MLOAD PUSH2 0x1EC6 PUSH1 0x1F DUP10 AND DUP3 PUSH2 0x1DD9 JUMP JUMPDEST DUP4 SSTORE POP JUMPDEST PUSH1 0x1 PUSH1 0x2 DUP9 MUL ADD DUP9 SSTORE POP POP POP JUMPDEST POP POP POP POP POP POP JUMP JUMPDEST PUSH0 PUSH2 0x1EE9 DUP3 PUSH2 0x1594 JUMP JUMPDEST SWAP2 POP PUSH32 0xFFFFFFFFFFFFFFFFFFFFFFFFFFFFFFFFFFFFFFFFFFFFFFFFFFFFFFFFFFFFFFFF DUP3 SUB PUSH2 0x1F1B JUMPI PUSH2 0x1F1A PUSH2 0x1923 JUMP JUMPDEST JUMPDEST PUSH1 0x1 DUP3 ADD SWAP1 POP SWAP2 SWAP1 POP JUMP JUMPDEST PUSH0 PUSH1 0x60 DUP3 ADD SWAP1 POP PUSH2 0x1F39 PUSH0 DUP4 ADD DUP7 PUSH2 0x170F JUMP JUMPDEST PUSH2 0x1F46 PUSH1 0x20 DUP4 ADD DUP6 PUSH2 0x1638 JUMP JUMPDEST PUSH2 0x1F53 PUSH1 0x40 DUP4 ADD DUP5 PUSH2 0x1638 JUMP JUMPDEST SWAP5 SWAP4 POP POP POP POP JUMP JUMPDEST PUSH0 PUSH2 0x1F65 DUP3 PUSH2 0x1594 JUMP JUMPDEST SWAP2 POP PUSH2 0x1F70 DUP4 PUSH2 0x1594 JUMP JUMPDEST SWAP3 POP DUP3 DUP3 ADD SWAP1 POP DUP1 DUP3 GT ISZERO PUSH2 0x1F88 JUMPI PUSH2 0x1F87 PUSH2 0x1923 JUMP JUMPDEST JUMPDEST SWAP3 SWAP2 POP POP JUMP INVALID LOG2 PUSH5 0x6970667358 0x22 SLT KECCAK256 0xBE SWAP3 EXTCODESIZE 0x1E 0xA8 SWAP6 0x2B 0xC4 DUP4 SLT 0xF7 0x2F SWAP12 REVERT 0xCA 0x27 0xA5 0xC0 PUSH26 0xCC5C90C8D27597E767C2C89F7164736F6C634300081400336874 PUSH21 0x70733A2F2F66312E746F6B656E706F73742E6B722F ORIGIN ADDRESS ORIGIN CALLER 0x2F ADDRESS CODECOPY 0x2F CODECOPY PUSH13 0x6F7332676B356E742E706E6768 PUSH21 0x7470733A2F2F63646E2E6E626E74762E636F2E6B72 0x2F PUSH15 0x6577732F70686F746F2F3230323330 CALLDATACOPY 0x2F CALLER ADDRESS ADDRESS BALANCE ADDRESS CALLVALUE CALLER PUSH0 ORIGIN ADDRESS BALANCE CALLDATALOAD BALANCE CALLER PUSH0 CALLER ORIGIN BALANCE 0x2E PUSH11 0x706768747470733A2F2F6E PUSH10 0x6D6167652E672D656E65 PUSH24 0x732E636F6D2F7068707761732F726573746D625F616C6C69 PUSH5 0x786D616B65 0x2E PUSH17 0x68703F6964783D352673696D673D323032 CALLER BALANCE ADDRESS BALANCE ORIGIN BALANCE CALLER BALANCE BALANCE ADDRESS CALLDATASIZE ADDRESS ORIGIN CALLDATASIZE ORIGIN CODESIZE PUSH4 0x35666137 CALLDATALOAD PUSH6 0x663836323131 BALANCE CODESIZE ADDRESS BALANCE ORIGIN CALLDATALOAD CALLDATASIZE BALANCE 0x2E PUSH11 0x7067000000000000000000 "
		},
		"gasEstimates": {
			"creation": {
				"codeDepositCost": "1626400",
				"executionCost": "infinite",
				"totalCost": "infinite"
			},
			"external": {
				"_mints(address)": "infinite",
				"allowance(address,address)": "infinite",
				"approve(address,uint256)": "infinite",
				"balanceOf(address)": "2896",
				"buyMusme()": "infinite",
				"decimals()": "405",
				"getMusme()": "infinite",
				"getMusmeUser()": "infinite",
				"musmes(address,uint256)": "infinite",
				"name()": "infinite",
				"symbol()": "infinite",
				"totalSupply()": "2455",
				"transfer(address,uint256)": "infinite",
				"transferFrom(address,address,uint256)": "infinite",
				"users(uint256)": "5056"
			}
		},
		"methodIdentifiers": {
			"_mints(address)": "9257b591",
			"allowance(address,address)": "dd62ed3e",
			"approve(address,uint256)": "095ea7b3",
			"balanceOf(address)": "70a08231",
			"buyMusme()": "bfaede13",
			"decimals()": "313ce567",
			"getMusme()": "03e276af",
			"getMusmeUser()": "5dfac4e4",
			"musmes(address,uint256)": "545e163e",
			"name()": "06fdde03",
			"symbol()": "95d89b41",
			"totalSupply()": "18160ddd",
			"transfer(address,uint256)": "a9059cbb",
			"transferFrom(address,address,uint256)": "23b872dd",
			"users(uint256)": "365b98b2"
		}
	},
	"abi": [
		{
			"inputs": [
				{
					"internalType": "string",
					"name": "name",
					"type": "string"
				},
				{
					"internalType": "string",
					"name": "symbol",
					"type": "string"
				}
			],
			"stateMutability": "nonpayable",
			"type": "constructor"
		},
		{
			"inputs": [
				{
					"internalType": "address",
					"name": "spender",
					"type": "address"
				},
				{
					"internalType": "uint256",
					"name": "allowance",
					"type": "uint256"
				},
				{
					"internalType": "uint256",
					"name": "needed",
					"type": "uint256"
				}
			],
			"name": "ERC20InsufficientAllowance",
			"type": "error"
		},
		{
			"inputs": [
				{
					"internalType": "address",
					"name": "sender",
					"type": "address"
				},
				{
					"internalType": "uint256",
					"name": "balance",
					"type": "uint256"
				},
				{
					"internalType": "uint256",
					"name": "needed",
					"type": "uint256"
				}
			],
			"name": "ERC20InsufficientBalance",
			"type": "error"
		},
		{
			"inputs": [
				{
					"internalType": "address",
					"name": "approver",
					"type": "address"
				}
			],
			"name": "ERC20InvalidApprover",
			"type": "error"
		},
		{
			"inputs": [
				{
					"internalType": "address",
					"name": "receiver",
					"type": "address"
				}
			],
			"name": "ERC20InvalidReceiver",
			"type": "error"
		},
		{
			"inputs": [
				{
					"internalType": "address",
					"name": "sender",
					"type": "address"
				}
			],
			"name": "ERC20InvalidSender",
			"type": "error"
		},
		{
			"inputs": [
				{
					"internalType": "address",
					"name": "spender",
					"type": "address"
				}
			],
			"name": "ERC20InvalidSpender",
			"type": "error"
		},
		{
			"anonymous": false,
			"inputs": [
				{
					"indexed": true,
					"internalType": "address",
					"name": "owner",
					"type": "address"
				},
				{
					"indexed": true,
					"internalType": "address",
					"name": "spender",
					"type": "address"
				},
				{
					"indexed": false,
					"internalType": "uint256",
					"name": "value",
					"type": "uint256"
				}
			],
			"name": "Approval",
			"type": "event"
		},
		{
			"anonymous": false,
			"inputs": [
				{
					"indexed": true,
					"internalType": "address",
					"name": "from",
					"type": "address"
				},
				{
					"indexed": true,
					"internalType": "address",
					"name": "to",
					"type": "address"
				},
				{
					"indexed": false,
					"internalType": "uint256",
					"name": "value",
					"type": "uint256"
				}
			],
			"name": "Transfer",
			"type": "event"
		},
		{
			"inputs": [
				{
					"internalType": "address",
					"name": "_address",
					"type": "address"
				}
			],
			"name": "_mints",
			"outputs": [],
			"stateMutability": "nonpayable",
			"type": "function"
		},
		{
			"inputs": [
				{
					"internalType": "address",
					"name": "owner",
					"type": "address"
				},
				{
					"internalType": "address",
					"name": "spender",
					"type": "address"
				}
			],
			"name": "allowance",
			"outputs": [
				{
					"internalType": "uint256",
					"name": "",
					"type": "uint256"
				}
			],
			"stateMutability": "view",
			"type": "function"
		},
		{
			"inputs": [
				{
					"internalType": "address",
					"name": "spender",
					"type": "address"
				},
				{
					"internalType": "uint256",
					"name": "value",
					"type": "uint256"
				}
			],
			"name": "approve",
			"outputs": [
				{
					"internalType": "bool",
					"name": "",
					"type": "bool"
				}
			],
			"stateMutability": "nonpayable",
			"type": "function"
		},
		{
			"inputs": [
				{
					"internalType": "address",
					"name": "account",
					"type": "address"
				}
			],
			"name": "balanceOf",
			"outputs": [
				{
					"internalType": "uint256",
					"name": "",
					"type": "uint256"
				}
			],
			"stateMutability": "view",
			"type": "function"
		},
		{
			"inputs": [],
			"name": "buyMusme",
			"outputs": [],
			"stateMutability": "nonpayable",
			"type": "function"
		},
		{
			"inputs": [],
			"name": "decimals",
			"outputs": [
				{
					"internalType": "uint8",
					"name": "",
					"type": "uint8"
				}
			],
			"stateMutability": "view",
			"type": "function"
		},
		{
			"inputs": [],
			"name": "getMusme",
			"outputs": [
				{
					"components": [
						{
							"internalType": "string",
							"name": "url",
							"type": "string"
						},
						{
							"internalType": "string",
							"name": "name",
							"type": "string"
						}
					],
					"internalType": "struct CoinMusme.Musme[]",
					"name": "",
					"type": "tuple[]"
				}
			],
			"stateMutability": "view",
			"type": "function"
		},
		{
			"inputs": [],
			"name": "getMusmeUser",
			"outputs": [
				{
					"components": [
						{
							"internalType": "address",
							"name": "account",
							"type": "address"
						}
					],
					"internalType": "struct CoinMusme.User[]",
					"name": "",
					"type": "tuple[]"
				}
			],
			"stateMutability": "view",
			"type": "function"
		},
		{
			"inputs": [
				{
					"internalType": "address",
					"name": "",
					"type": "address"
				},
				{
					"internalType": "uint256",
					"name": "",
					"type": "uint256"
				}
			],
			"name": "musmes",
			"outputs": [
				{
					"internalType": "string",
					"name": "url",
					"type": "string"
				},
				{
					"internalType": "string",
					"name": "name",
					"type": "string"
				}
			],
			"stateMutability": "view",
			"type": "function"
		},
		{
			"inputs": [],
			"name": "name",
			"outputs": [
				{
					"internalType": "string",
					"name": "",
					"type": "string"
				}
			],
			"stateMutability": "view",
			"type": "function"
		},
		{
			"inputs": [],
			"name": "symbol",
			"outputs": [
				{
					"internalType": "string",
					"name": "",
					"type": "string"
				}
			],
			"stateMutability": "view",
			"type": "function"
		},
		{
			"inputs": [],
			"name": "totalSupply",
			"outputs": [
				{
					"internalType": "uint256",
					"name": "",
					"type": "uint256"
				}
			],
			"stateMutability": "view",
			"type": "function"
		},
		{
			"inputs": [
				{
					"internalType": "address",
					"name": "to",
					"type": "address"
				},
				{
					"internalType": "uint256",
					"name": "value",
					"type": "uint256"
				}
			],
			"name": "transfer",
			"outputs": [
				{
					"internalType": "bool",
					"name": "",
					"type": "bool"
				}
			],
			"stateMutability": "nonpayable",
			"type": "function"
		},
		{
			"inputs": [
				{
					"internalType": "address",
					"name": "from",
					"type": "address"
				},
				{
					"internalType": "address",
					"name": "to",
					"type": "address"
				},
				{
					"internalType": "uint256",
					"name": "value",
					"type": "uint256"
				}
			],
			"name": "transferFrom",
			"outputs": [
				{
					"internalType": "bool",
					"name": "",
					"type": "bool"
				}
			],
			"stateMutability": "nonpayable",
			"type": "function"
		},
		{
			"inputs": [
				{
					"internalType": "uint256",
					"name": "",
					"type": "uint256"
				}
			],
			"name": "users",
			"outputs": [
				{
					"internalType": "address",
					"name": "account",
					"type": "address"
				}
			],
			"stateMutability": "view",
			"type": "function"
		}
	]
}