{
	"contracts/CoinMusme.sol": {
		"CoinMusme": {
			"abi": [
				{
					"inputs": [
						{
							"internalType": "string",
							"name": "name",
							"type": "string"
						},
						{
							"internalType": "string",
							"name": "symbol",
							"type": "string"
						}
					],
					"stateMutability": "nonpayable",
					"type": "constructor"
				},
				{
					"inputs": [
						{
							"internalType": "address",
							"name": "spender",
							"type": "address"
						},
						{
							"internalType": "uint256",
							"name": "allowance",
							"type": "uint256"
						},
						{
							"internalType": "uint256",
							"name": "needed",
							"type": "uint256"
						}
					],
					"name": "ERC20InsufficientAllowance",
					"type": "error"
				},
				{
					"inputs": [
						{
							"internalType": "address",
							"name": "sender",
							"type": "address"
						},
						{
							"internalType": "uint256",
							"name": "balance",
							"type": "uint256"
						},
						{
							"internalType": "uint256",
							"name": "needed",
							"type": "uint256"
						}
					],
					"name": "ERC20InsufficientBalance",
					"type": "error"
				},
				{
					"inputs": [
						{
							"internalType": "address",
							"name": "approver",
							"type": "address"
						}
					],
					"name": "ERC20InvalidApprover",
					"type": "error"
				},
				{
					"inputs": [
						{
							"internalType": "address",
							"name": "receiver",
							"type": "address"
						}
					],
					"name": "ERC20InvalidReceiver",
					"type": "error"
				},
				{
					"inputs": [
						{
							"internalType": "address",
							"name": "sender",
							"type": "address"
						}
					],
					"name": "ERC20InvalidSender",
					"type": "error"
				},
				{
					"inputs": [
						{
							"internalType": "address",
							"name": "spender",
							"type": "address"
						}
					],
					"name": "ERC20InvalidSpender",
					"type": "error"
				},
				{
					"anonymous": false,
					"inputs": [
						{
							"indexed": true,
							"internalType": "address",
							"name": "owner",
							"type": "address"
						},
						{
							"indexed": true,
							"internalType": "address",
							"name": "spender",
							"type": "address"
						},
						{
							"indexed": false,
							"internalType": "uint256",
							"name": "value",
							"type": "uint256"
						}
					],
					"name": "Approval",
					"type": "event"
				},
				{
					"anonymous": false,
					"inputs": [
						{
							"indexed": true,
							"internalType": "address",
							"name": "from",
							"type": "address"
						},
						{
							"indexed": true,
							"internalType": "address",
							"name": "to",
							"type": "address"
						},
						{
							"indexed": false,
							"internalType": "uint256",
							"name": "value",
							"type": "uint256"
						}
					],
					"name": "Transfer",
					"type": "event"
				},
				{
					"inputs": [
						{
							"internalType": "address",
							"name": "_address",
							"type": "address"
						}
					],
					"name": "_mints",
					"outputs": [],
					"stateMutability": "nonpayable",
					"type": "function"
				},
				{
					"inputs": [
						{
							"internalType": "address",
							"name": "owner",
							"type": "address"
						},
						{
							"internalType": "address",
							"name": "spender",
							"type": "address"
						}
					],
					"name": "allowance",
					"outputs": [
						{
							"internalType": "uint256",
							"name": "",
							"type": "uint256"
						}
					],
					"stateMutability": "view",
					"type": "function"
				},
				{
					"inputs": [
						{
							"internalType": "address",
							"name": "spender",
							"type": "address"
						},
						{
							"internalType": "uint256",
							"name": "value",
							"type": "uint256"
						}
					],
					"name": "approve",
					"outputs": [
						{
							"internalType": "bool",
							"name": "",
							"type": "bool"
						}
					],
					"stateMutability": "nonpayable",
					"type": "function"
				},
				{
					"inputs": [
						{
							"internalType": "address",
							"name": "account",
							"type": "address"
						}
					],
					"name": "balanceOf",
					"outputs": [
						{
							"internalType": "uint256",
							"name": "",
							"type": "uint256"
						}
					],
					"stateMutability": "view",
					"type": "function"
				},
				{
					"inputs": [],
					"name": "buyMusme",
					"outputs": [],
					"stateMutability": "nonpayable",
					"type": "function"
				},
				{
					"inputs": [],
					"name": "decimals",
					"outputs": [
						{
							"internalType": "uint8",
							"name": "",
							"type": "uint8"
						}
					],
					"stateMutability": "view",
					"type": "function"
				},
				{
					"inputs": [],
					"name": "getMusme",
					"outputs": [
						{
							"components": [
								{
									"internalType": "string",
									"name": "url",
									"type": "string"
								},
								{
									"internalType": "string",
									"name": "name",
									"type": "string"
								}
							],
							"internalType": "struct CoinMusme.Musme[]",
							"name": "",
							"type": "tuple[]"
						}
					],
					"stateMutability": "view",
					"type": "function"
				},
				{
					"inputs": [],
					"name": "getMusmeUser",
					"outputs": [
						{
							"components": [
								{
									"internalType": "address",
									"name": "account",
									"type": "address"
								}
							],
							"internalType": "struct CoinMusme.User[]",
							"name": "",
							"type": "tuple[]"
						}
					],
					"stateMutability": "view",
					"type": "function"
				},
				{
					"inputs": [
						{
							"internalType": "address",
							"name": "",
							"type": "address"
						},
						{
							"internalType": "uint256",
							"name": "",
							"type": "uint256"
						}
					],
					"name": "musmes",
					"outputs": [
						{
							"internalType": "string",
							"name": "url",
							"type": "string"
						},
						{
							"internalType": "string",
							"name": "name",
							"type": "string"
						}
					],
					"stateMutability": "view",
					"type": "function"
				},
				{
					"inputs": [],
					"name": "name",
					"outputs": [
						{
							"internalType": "string",
							"name": "",
							"type": "string"
						}
					],
					"stateMutability": "view",
					"type": "function"
				},
				{
					"inputs": [],
					"name": "symbol",
					"outputs": [
						{
							"internalType": "string",
							"name": "",
							"type": "string"
						}
					],
					"stateMutability": "view",
					"type": "function"
				},
				{
					"inputs": [],
					"name": "totalSupply",
					"outputs": [
						{
							"internalType": "uint256",
							"name": "",
							"type": "uint256"
						}
					],
					"stateMutability": "view",
					"type": "function"
				},
				{
					"inputs": [
						{
							"internalType": "address",
							"name": "to",
							"type": "address"
						},
						{
							"internalType": "uint256",
							"name": "value",
							"type": "uint256"
						}
					],
					"name": "transfer",
					"outputs": [
						{
							"internalType": "bool",
							"name": "",
							"type": "bool"
						}
					],
					"stateMutability": "nonpayable",
					"type": "function"
				},
				{
					"inputs": [
						{
							"internalType": "address",
							"name": "from",
							"type": "address"
						},
						{
							"internalType": "address",
							"name": "to",
							"type": "address"
						},
						{
							"internalType": "uint256",
							"name": "value",
							"type": "uint256"
						}
					],
					"name": "transferFrom",
					"outputs": [
						{
							"internalType": "bool",
							"name": "",
							"type": "bool"
						}
					],
					"stateMutability": "nonpayable",
					"type": "function"
				},
				{
					"inputs": [
						{
							"internalType": "uint256",
							"name": "",
							"type": "uint256"
						}
					],
					"name": "users",
					"outputs": [
						{
							"internalType": "address",
							"name": "account",
							"type": "address"
						}
					],
					"stateMutability": "view",
					"type": "function"
				}
			],
			"devdoc": {
				"errors": {
					"ERC20InsufficientAllowance(address,uint256,uint256)": [
						{
							"details": "Indicates a failure with the `spender`’s `allowance`. Used in transfers.",
							"params": {
								"allowance": "Amount of tokens a `spender` is allowed to operate with.",
								"needed": "Minimum amount required to perform a transfer.",
								"spender": "Address that may be allowed to operate on tokens without being their owner."
							}
						}
					],
					"ERC20InsufficientBalance(address,uint256,uint256)": [
						{
							"details": "Indicates an error related to the current `balance` of a `sender`. Used in transfers.",
							"params": {
								"balance": "Current balance for the interacting account.",
								"needed": "Minimum amount required to perform a transfer.",
								"sender": "Address whose tokens are being transferred."
							}
						}
					],
					"ERC20InvalidApprover(address)": [
						{
							"details": "Indicates a failure with the `approver` of a token to be approved. Used in approvals.",
							"params": {
								"approver": "Address initiating an approval operation."
							}
						}
					],
					"ERC20InvalidReceiver(address)": [
						{
							"details": "Indicates a failure with the token `receiver`. Used in transfers.",
							"params": {
								"receiver": "Address to which tokens are being transferred."
							}
						}
					],
					"ERC20InvalidSender(address)": [
						{
							"details": "Indicates a failure with the token `sender`. Used in transfers.",
							"params": {
								"sender": "Address whose tokens are being transferred."
							}
						}
					],
					"ERC20InvalidSpender(address)": [
						{
							"details": "Indicates a failure with the `spender` to be approved. Used in approvals.",
							"params": {
								"spender": "Address that may be allowed to operate on tokens without being their owner."
							}
						}
					]
				},
				"events": {
					"Approval(address,address,uint256)": {
						"details": "Emitted when the allowance of a `spender` for an `owner` is set by a call to {approve}. `value` is the new allowance."
					},
					"Transfer(address,address,uint256)": {
						"details": "Emitted when `value` tokens are moved from one account (`from`) to another (`to`). Note that `value` may be zero."
					}
				},
				"kind": "dev",
				"methods": {
					"allowance(address,address)": {
						"details": "See {IERC20-allowance}."
					},
					"approve(address,uint256)": {
						"details": "See {IERC20-approve}. NOTE: If `value` is the maximum `uint256`, the allowance is not updated on `transferFrom`. This is semantically equivalent to an infinite approval. Requirements: - `spender` cannot be the zero address."
					},
					"balanceOf(address)": {
						"details": "See {IERC20-balanceOf}."
					},
					"decimals()": {
						"details": "Returns the number of decimals used to get its user representation. For example, if `decimals` equals `2`, a balance of `505` tokens should be displayed to a user as `5.05` (`505 / 10 ** 2`). Tokens usually opt for a value of 18, imitating the relationship between Ether and Wei. This is the default value returned by this function, unless it's overridden. NOTE: This information is only used for _display_ purposes: it in no way affects any of the arithmetic of the contract, including {IERC20-balanceOf} and {IERC20-transfer}."
					},
					"name()": {
						"details": "Returns the name of the token."
					},
					"symbol()": {
						"details": "Returns the symbol of the token, usually a shorter version of the name."
					},
					"totalSupply()": {
						"details": "See {IERC20-totalSupply}."
					},
					"transfer(address,uint256)": {
						"details": "See {IERC20-transfer}. Requirements: - `to` cannot be the zero address. - the caller must have a balance of at least `value`."
					},
					"transferFrom(address,address,uint256)": {
						"details": "See {IERC20-transferFrom}. Emits an {Approval} event indicating the updated allowance. This is not required by the EIP. See the note at the beginning of {ERC20}. NOTE: Does not update the allowance if the current allowance is the maximum `uint256`. Requirements: - `from` and `to` cannot be the zero address. - `from` must have a balance of at least `value`. - the caller must have allowance for ``from``'s tokens of at least `value`."
					}
				},
				"version": 1
			},
			"evm": {
				"assembly": "    /* \"contracts/CoinMusme.sol\":120:3378  contract CoinMusme is ERC20 {... */\n  mstore(0x40, 0x80)\n    /* \"contracts/CoinMusme.sol\":706:714  10 ether */\n  0x8ac7230489e80000\n    /* \"contracts/CoinMusme.sol\":677:714  uint256 private tokenPrice = 10 ether */\n  0x05\n  sstore\n    /* \"contracts/CoinMusme.sol\":822:872  string[] musmeName = [\"MARBLEX\", \"GMTEE\", \"MATIC\"] */\n  mload(0x40)\n  dup1\n  0x60\n  add\n  0x40\n  mstore\n  dup1\n  mload(0x40)\n  dup1\n  0x40\n  add\n  0x40\n  mstore\n  dup1\n  0x07\n  dup2\n  mstore\n  0x20\n  add\n  0x4d4152424c455800000000000000000000000000000000000000000000000000\n  dup2\n  mstore\n  pop\n  dup2\n  mstore\n  0x20\n  add\n  mload(0x40)\n  dup1\n  0x40\n  add\n  0x40\n  mstore\n  dup1\n  0x05\n  dup2\n  mstore\n  0x20\n  add\n  0x474d544545000000000000000000000000000000000000000000000000000000\n  dup2\n  mstore\n  pop\n  dup2\n  mstore\n  0x20\n  add\n  mload(0x40)\n  dup1\n  0x40\n  add\n  0x40\n  mstore\n  dup1\n  0x05\n  dup2\n  mstore\n  0x20\n  add\n  0x4d41544943000000000000000000000000000000000000000000000000000000\n  dup2\n  mstore\n  pop\n  dup2\n  mstore\n  pop\n  0x06\n  swap1\n  0x03\n  tag_1\n  swap3\n  swap2\n  swap1\n  tag_2\n  jump\t// in\ntag_1:\n  pop\n    /* \"contracts/CoinMusme.sol\":932:1219  string[] musmeUrl = [... */\n  mload(0x40)\n  dup1\n  0x60\n  add\n  0x40\n  mstore\n  dup1\n  mload(0x40)\n  dup1\n  0xa0\n  add\n  0x40\n  mstore\n  dup1\n  0x6f\n  dup2\n  mstore\n  0x20\n  add\n  data_d13ba52582fcd0f179f13e75f1522d826281a9b824a34210a641df595d98cb69\n  0x6f\n  swap2\n  codecopy\n  dup2\n  mstore\n  0x20\n  add\n  mload(0x40)\n  dup1\n  0x60\n  add\n  0x40\n  mstore\n  dup1\n  0x2e\n  dup2\n  mstore\n  0x20\n  add\n  data_611fcf90768f533ea33192c536b5d2c3db5d6c8c19f817c4a6bbc68d54b0ca17\n  0x2e\n  swap2\n  codecopy\n  dup2\n  mstore\n  0x20\n  add\n  mload(0x40)\n  dup1\n  0x60\n  add\n  0x40\n  mstore\n  dup1\n  0x40\n  dup2\n  mstore\n  0x20\n  add\n  data_73a6d2e6e759531154c1a0bb0e95f01a832acc61cefdfa266b8e61f5b6eeac7a\n  0x40\n  swap2\n  codecopy\n  dup2\n  mstore\n  pop\n  0x07\n  swap1\n  0x03\n  tag_3\n  swap3\n  swap2\n  swap1\n  tag_2\n  jump\t// in\ntag_3:\n  pop\n    /* \"contracts/CoinMusme.sol\":155:294  constructor(string memory name, string memory symbol) ERC20(name, symbol) {... */\n  callvalue\n  dup1\n  iszero\n  tag_4\n  jumpi\n  0x00\n  dup1\n  revert\ntag_4:\n  pop\n  mload(0x40)\n  sub(codesize, bytecodeSize)\n  dup1\n  bytecodeSize\n  dup4\n  codecopy\n  dup2\n  dup2\n  add\n  0x40\n  mstore\n  dup2\n  add\n  swap1\n  tag_5\n  swap2\n  swap1\n  tag_6\n  jump\t// in\ntag_5:\n    /* \"contracts/CoinMusme.sol\":215:219  name */\n  dup2\n    /* \"contracts/CoinMusme.sol\":221:227  symbol */\n  dup2\n    /* \"@openzeppelin/contracts/token/ERC20/ERC20.sol\":1970:1975  name_ */\n  dup2\n    /* \"@openzeppelin/contracts/token/ERC20/ERC20.sol\":1962:1967  _name */\n  0x03\n    /* \"@openzeppelin/contracts/token/ERC20/ERC20.sol\":1962:1975  _name = name_ */\n  swap1\n  dup2\n  tag_10\n  swap2\n  swap1\n  tag_11\n  jump\t// in\ntag_10:\n  pop\n    /* \"@openzeppelin/contracts/token/ERC20/ERC20.sol\":1995:2002  symbol_ */\n  dup1\n    /* \"@openzeppelin/contracts/token/ERC20/ERC20.sol\":1985:1992  _symbol */\n  0x04\n    /* \"@openzeppelin/contracts/token/ERC20/ERC20.sol\":1985:2002  _symbol = symbol_ */\n  swap1\n  dup2\n  tag_12\n  swap2\n  swap1\n  tag_11\n  jump\t// in\ntag_12:\n  pop\n    /* \"@openzeppelin/contracts/token/ERC20/ERC20.sol\":1896:2009  constructor(string memory name_, string memory symbol_) {... */\n  pop\n  pop\n    /* \"contracts/CoinMusme.sol\":240:286  _mint(msg.sender, 100000 * (10 ** decimals())) */\n  tag_14\n    /* \"contracts/CoinMusme.sol\":246:256  msg.sender */\n  caller\n    /* \"contracts/CoinMusme.sol\":274:284  decimals() */\n  tag_15\n    /* \"contracts/CoinMusme.sol\":274:282  decimals */\n  shl(0x20, tag_16)\n    /* \"contracts/CoinMusme.sol\":274:284  decimals() */\n  0x20\n  shr\n  jump\t// in\ntag_15:\n    /* \"contracts/CoinMusme.sol\":268:270  10 */\n  0x0a\n    /* \"contracts/CoinMusme.sol\":268:284  10 ** decimals() */\n  tag_17\n  swap2\n  swap1\n  tag_18\n  jump\t// in\ntag_17:\n    /* \"contracts/CoinMusme.sol\":258:264  100000 */\n  0x0186a0\n    /* \"contracts/CoinMusme.sol\":258:285  100000 * (10 ** decimals()) */\n  tag_19\n  swap2\n  swap1\n  tag_20\n  jump\t// in\ntag_19:\n    /* \"contracts/CoinMusme.sol\":240:245  _mint */\n  shl(0x20, tag_21)\n    /* \"contracts/CoinMusme.sol\":240:286  _mint(msg.sender, 100000 * (10 ** decimals())) */\n  0x20\n  shr\n  jump\t// in\ntag_14:\n    /* \"contracts/CoinMusme.sol\":155:294  constructor(string memory name, string memory symbol) ERC20(name, symbol) {... */\n  pop\n  pop\n    /* \"contracts/CoinMusme.sol\":120:3378  contract CoinMusme is ERC20 {... */\n  jump(tag_22)\n    /* \"@openzeppelin/contracts/token/ERC20/ERC20.sol\":3002:3084  function decimals() public view virtual returns (uint8) {... */\ntag_16:\n    /* \"@openzeppelin/contracts/token/ERC20/ERC20.sol\":3051:3056  uint8 */\n  0x00\n    /* \"@openzeppelin/contracts/token/ERC20/ERC20.sol\":3075:3077  18 */\n  0x12\n    /* \"@openzeppelin/contracts/token/ERC20/ERC20.sol\":3068:3077  return 18 */\n  swap1\n  pop\n    /* \"@openzeppelin/contracts/token/ERC20/ERC20.sol\":3002:3084  function decimals() public view virtual returns (uint8) {... */\n  swap1\n  jump\t// out\n    /* \"@openzeppelin/contracts/token/ERC20/ERC20.sol\":7721:7929  function _mint(address account, uint256 value) internal {... */\ntag_21:\n    /* \"@openzeppelin/contracts/token/ERC20/ERC20.sol\":7810:7811  0 */\n  0x00\n    /* \"@openzeppelin/contracts/token/ERC20/ERC20.sol\":7791:7812  account == address(0) */\n  0xffffffffffffffffffffffffffffffffffffffff\n  and\n    /* \"@openzeppelin/contracts/token/ERC20/ERC20.sol\":7791:7798  account */\n  dup3\n    /* \"@openzeppelin/contracts/token/ERC20/ERC20.sol\":7791:7812  account == address(0) */\n  0xffffffffffffffffffffffffffffffffffffffff\n  and\n  sub\n    /* \"@openzeppelin/contracts/token/ERC20/ERC20.sol\":7787:7878  if (account == address(0)) {... */\n  tag_25\n  jumpi\n    /* \"@openzeppelin/contracts/token/ERC20/ERC20.sol\":7864:7865  0 */\n  0x00\n    /* \"@openzeppelin/contracts/token/ERC20/ERC20.sol\":7835:7867  ERC20InvalidReceiver(address(0)) */\n  mload(0x40)\n  0xec442f0500000000000000000000000000000000000000000000000000000000\n  dup2\n  mstore\n  0x04\n  add\n  tag_26\n  swap2\n  swap1\n  tag_27\n  jump\t// in\ntag_26:\n  mload(0x40)\n  dup1\n  swap2\n  sub\n  swap1\n  revert\n    /* \"@openzeppelin/contracts/token/ERC20/ERC20.sol\":7787:7878  if (account == address(0)) {... */\ntag_25:\n    /* \"@openzeppelin/contracts/token/ERC20/ERC20.sol\":7887:7922  _update(address(0), account, value) */\n  tag_28\n    /* \"@openzeppelin/contracts/token/ERC20/ERC20.sol\":7903:7904  0 */\n  0x00\n    /* \"@openzeppelin/contracts/token/ERC20/ERC20.sol\":7907:7914  account */\n  dup4\n    /* \"@openzeppelin/contracts/token/ERC20/ERC20.sol\":7916:7921  value */\n  dup4\n    /* \"@openzeppelin/contracts/token/ERC20/ERC20.sol\":7887:7894  _update */\n  shl(0x20, tag_29)\n    /* \"@openzeppelin/contracts/token/ERC20/ERC20.sol\":7887:7922  _update(address(0), account, value) */\n  0x20\n  shr\n  jump\t// in\ntag_28:\n    /* \"@openzeppelin/contracts/token/ERC20/ERC20.sol\":7721:7929  function _mint(address account, uint256 value) internal {... */\n  pop\n  pop\n  jump\t// out\n    /* \"@openzeppelin/contracts/token/ERC20/ERC20.sol\":6271:7378  function _update(address from, address to, uint256 value) internal virtual {... */\ntag_29:\n    /* \"@openzeppelin/contracts/token/ERC20/ERC20.sol\":6376:6377  0 */\n  0x00\n    /* \"@openzeppelin/contracts/token/ERC20/ERC20.sol\":6360:6378  from == address(0) */\n  0xffffffffffffffffffffffffffffffffffffffff\n  and\n    /* \"@openzeppelin/contracts/token/ERC20/ERC20.sol\":6360:6364  from */\n  dup4\n    /* \"@openzeppelin/contracts/token/ERC20/ERC20.sol\":6360:6378  from == address(0) */\n  0xffffffffffffffffffffffffffffffffffffffff\n  and\n  sub\n    /* \"@openzeppelin/contracts/token/ERC20/ERC20.sol\":6356:6896  if (from == address(0)) {... */\n  tag_31\n  jumpi\n    /* \"@openzeppelin/contracts/token/ERC20/ERC20.sol\":6512:6517  value */\n  dup1\n    /* \"@openzeppelin/contracts/token/ERC20/ERC20.sol\":6496:6508  _totalSupply */\n  0x02\n  0x00\n    /* \"@openzeppelin/contracts/token/ERC20/ERC20.sol\":6496:6517  _totalSupply += value */\n  dup3\n  dup3\n  sload\n  tag_32\n  swap2\n  swap1\n  tag_33\n  jump\t// in\ntag_32:\n  swap3\n  pop\n  pop\n  dup2\n  swap1\n  sstore\n  pop\n    /* \"@openzeppelin/contracts/token/ERC20/ERC20.sol\":6356:6896  if (from == address(0)) {... */\n  jump(tag_34)\ntag_31:\n    /* \"@openzeppelin/contracts/token/ERC20/ERC20.sol\":6548:6567  uint256 fromBalance */\n  0x00\n    /* \"@openzeppelin/contracts/token/ERC20/ERC20.sol\":6570:6579  _balances */\n  dup1\n    /* \"@openzeppelin/contracts/token/ERC20/ERC20.sol\":6570:6585  _balances[from] */\n  0x00\n    /* \"@openzeppelin/contracts/token/ERC20/ERC20.sol\":6580:6584  from */\n  dup6\n    /* \"@openzeppelin/contracts/token/ERC20/ERC20.sol\":6570:6585  _balances[from] */\n  0xffffffffffffffffffffffffffffffffffffffff\n  and\n  0xffffffffffffffffffffffffffffffffffffffff\n  and\n  dup2\n  mstore\n  0x20\n  add\n  swap1\n  dup2\n  mstore\n  0x20\n  add\n  0x00\n  keccak256\n  sload\n    /* \"@openzeppelin/contracts/token/ERC20/ERC20.sol\":6548:6585  uint256 fromBalance = _balances[from] */\n  swap1\n  pop\n    /* \"@openzeppelin/contracts/token/ERC20/ERC20.sol\":6617:6622  value */\n  dup2\n    /* \"@openzeppelin/contracts/token/ERC20/ERC20.sol\":6603:6614  fromBalance */\n  dup2\n    /* \"@openzeppelin/contracts/token/ERC20/ERC20.sol\":6603:6622  fromBalance < value */\n  lt\n    /* \"@openzeppelin/contracts/token/ERC20/ERC20.sol\":6599:6714  if (fromBalance < value) {... */\n  iszero\n  tag_35\n  jumpi\n    /* \"@openzeppelin/contracts/token/ERC20/ERC20.sol\":6674:6678  from */\n  dup4\n    /* \"@openzeppelin/contracts/token/ERC20/ERC20.sol\":6680:6691  fromBalance */\n  dup2\n    /* \"@openzeppelin/contracts/token/ERC20/ERC20.sol\":6693:6698  value */\n  dup4\n    /* \"@openzeppelin/contracts/token/ERC20/ERC20.sol\":6649:6699  ERC20InsufficientBalance(from, fromBalance, value) */\n  mload(0x40)\n  0xe450d38c00000000000000000000000000000000000000000000000000000000\n  dup2\n  mstore\n  0x04\n  add\n  tag_36\n  swap4\n  swap3\n  swap2\n  swap1\n  tag_37\n  jump\t// in\ntag_36:\n  mload(0x40)\n  dup1\n  swap2\n  sub\n  swap1\n  revert\n    /* \"@openzeppelin/contracts/token/ERC20/ERC20.sol\":6599:6714  if (fromBalance < value) {... */\ntag_35:\n    /* \"@openzeppelin/contracts/token/ERC20/ERC20.sol\":6866:6871  value */\n  dup2\n    /* \"@openzeppelin/contracts/token/ERC20/ERC20.sol\":6852:6863  fromBalance */\n  dup2\n    /* \"@openzeppelin/contracts/token/ERC20/ERC20.sol\":6852:6871  fromBalance - value */\n  sub\n    /* \"@openzeppelin/contracts/token/ERC20/ERC20.sol\":6834:6843  _balances */\n  0x00\n    /* \"@openzeppelin/contracts/token/ERC20/ERC20.sol\":6834:6849  _balances[from] */\n  dup1\n    /* \"@openzeppelin/contracts/token/ERC20/ERC20.sol\":6844:6848  from */\n  dup7\n    /* \"@openzeppelin/contracts/token/ERC20/ERC20.sol\":6834:6849  _balances[from] */\n  0xffffffffffffffffffffffffffffffffffffffff\n  and\n  0xffffffffffffffffffffffffffffffffffffffff\n  and\n  dup2\n  mstore\n  0x20\n  add\n  swap1\n  dup2\n  mstore\n  0x20\n  add\n  0x00\n  keccak256\n    /* \"@openzeppelin/contracts/token/ERC20/ERC20.sol\":6834:6871  _balances[from] = fromBalance - value */\n  dup2\n  swap1\n  sstore\n  pop\n    /* \"@openzeppelin/contracts/token/ERC20/ERC20.sol\":6534:6896  {... */\n  pop\n    /* \"@openzeppelin/contracts/token/ERC20/ERC20.sol\":6356:6896  if (from == address(0)) {... */\ntag_34:\n    /* \"@openzeppelin/contracts/token/ERC20/ERC20.sol\":6924:6925  0 */\n  0x00\n    /* \"@openzeppelin/contracts/token/ERC20/ERC20.sol\":6910:6926  to == address(0) */\n  0xffffffffffffffffffffffffffffffffffffffff\n  and\n    /* \"@openzeppelin/contracts/token/ERC20/ERC20.sol\":6910:6912  to */\n  dup3\n    /* \"@openzeppelin/contracts/token/ERC20/ERC20.sol\":6910:6926  to == address(0) */\n  0xffffffffffffffffffffffffffffffffffffffff\n  and\n  sub\n    /* \"@openzeppelin/contracts/token/ERC20/ERC20.sol\":6906:7331  if (to == address(0)) {... */\n  tag_38\n  jumpi\n    /* \"@openzeppelin/contracts/token/ERC20/ERC20.sol\":7089:7094  value */\n  dup1\n    /* \"@openzeppelin/contracts/token/ERC20/ERC20.sol\":7073:7085  _totalSupply */\n  0x02\n  0x00\n    /* \"@openzeppelin/contracts/token/ERC20/ERC20.sol\":7073:7094  _totalSupply -= value */\n  dup3\n  dup3\n  sload\n  sub\n  swap3\n  pop\n  pop\n  dup2\n  swap1\n  sstore\n  pop\n    /* \"@openzeppelin/contracts/token/ERC20/ERC20.sol\":6906:7331  if (to == address(0)) {... */\n  jump(tag_39)\ntag_38:\n    /* \"@openzeppelin/contracts/token/ERC20/ERC20.sol\":7301:7306  value */\n  dup1\n    /* \"@openzeppelin/contracts/token/ERC20/ERC20.sol\":7284:7293  _balances */\n  0x00\n    /* \"@openzeppelin/contracts/token/ERC20/ERC20.sol\":7284:7297  _balances[to] */\n  dup1\n    /* \"@openzeppelin/contracts/token/ERC20/ERC20.sol\":7294:7296  to */\n  dup5\n    /* \"@openzeppelin/contracts/token/ERC20/ERC20.sol\":7284:7297  _balances[to] */\n  0xffffffffffffffffffffffffffffffffffffffff\n  and\n  0xffffffffffffffffffffffffffffffffffffffff\n  and\n  dup2\n  mstore\n  0x20\n  add\n  swap1\n  dup2\n  mstore\n  0x20\n  add\n  0x00\n  keccak256\n  0x00\n    /* \"@openzeppelin/contracts/token/ERC20/ERC20.sol\":7284:7306  _balances[to] += value */\n  dup3\n  dup3\n  sload\n  add\n  swap3\n  pop\n  pop\n  dup2\n  swap1\n  sstore\n  pop\n    /* \"@openzeppelin/contracts/token/ERC20/ERC20.sol\":6906:7331  if (to == address(0)) {... */\ntag_39:\n    /* \"@openzeppelin/contracts/token/ERC20/ERC20.sol\":7361:7363  to */\n  dup2\n    /* \"@openzeppelin/contracts/token/ERC20/ERC20.sol\":7346:7371  Transfer(from, to, value) */\n  0xffffffffffffffffffffffffffffffffffffffff\n  and\n    /* \"@openzeppelin/contracts/token/ERC20/ERC20.sol\":7355:7359  from */\n  dup4\n    /* \"@openzeppelin/contracts/token/ERC20/ERC20.sol\":7346:7371  Transfer(from, to, value) */\n  0xffffffffffffffffffffffffffffffffffffffff\n  and\n  0xddf252ad1be2c89b69c2b068fc378daa952ba7f163c4a11628f55a4df523b3ef\n    /* \"@openzeppelin/contracts/token/ERC20/ERC20.sol\":7365:7370  value */\n  dup4\n    /* \"@openzeppelin/contracts/token/ERC20/ERC20.sol\":7346:7371  Transfer(from, to, value) */\n  mload(0x40)\n  tag_40\n  swap2\n  swap1\n  tag_41\n  jump\t// in\ntag_40:\n  mload(0x40)\n  dup1\n  swap2\n  sub\n  swap1\n  log3\n    /* \"@openzeppelin/contracts/token/ERC20/ERC20.sol\":6271:7378  function _update(address from, address to, uint256 value) internal virtual {... */\n  pop\n  pop\n  pop\n  jump\t// out\n    /* \"contracts/CoinMusme.sol\":120:3378  contract CoinMusme is ERC20 {... */\ntag_2:\n  dup3\n  dup1\n  sload\n  dup3\n  dup3\n  sstore\n  swap1\n  0x00\n  mstore\n  keccak256(0x00, 0x20)\n  swap1\n  dup2\n  add\n  swap3\n  dup3\n  iszero\n  tag_42\n  jumpi\n  swap2\n  0x20\n  mul\n  dup3\n  add\ntag_43:\n  dup3\n  dup2\n  gt\n  iszero\n  tag_44\n  jumpi\n  dup3\n  mload\n  dup3\n  swap1\n  dup2\n  tag_45\n  swap2\n  swap1\n  tag_11\n  jump\t// in\ntag_45:\n  pop\n  swap2\n  0x20\n  add\n  swap2\n  swap1\n  0x01\n  add\n  swap1\n  jump(tag_43)\ntag_44:\ntag_42:\n  pop\n  swap1\n  pop\n  tag_46\n  swap2\n  swap1\n  tag_47\n  jump\t// in\ntag_46:\n  pop\n  swap1\n  jump\t// out\ntag_47:\ntag_48:\n  dup1\n  dup3\n  gt\n  iszero\n  tag_49\n  jumpi\n  0x00\n  dup2\n  dup2\n  tag_50\n  swap2\n  swap1\n  tag_51\n  jump\t// in\ntag_50:\n  pop\n  0x01\n  add\n  jump(tag_48)\ntag_49:\n  pop\n  swap1\n  jump\t// out\ntag_51:\n  pop\n  dup1\n  sload\n  tag_52\n  swap1\n  tag_53\n  jump\t// in\ntag_52:\n  0x00\n  dup3\n  sstore\n  dup1\n  0x1f\n  lt\n  tag_55\n  jumpi\n  pop\n  jump(tag_54)\ntag_55:\n  0x1f\n  add\n  0x20\n  swap1\n  div\n  swap1\n  0x00\n  mstore\n  keccak256(0x00, 0x20)\n  swap1\n  dup2\n  add\n  swap1\n  tag_56\n  swap2\n  swap1\n  tag_57\n  jump\t// in\ntag_56:\ntag_54:\n  pop\n  jump\t// out\ntag_57:\ntag_58:\n  dup1\n  dup3\n  gt\n  iszero\n  tag_59\n  jumpi\n  0x00\n  dup2\n  0x00\n  swap1\n  sstore\n  pop\n  0x01\n  add\n  jump(tag_58)\ntag_59:\n  pop\n  swap1\n  jump\t// out\n    /* \"#utility.yul\":7:82   */\ntag_60:\n    /* \"#utility.yul\":40:46   */\n  0x00\n    /* \"#utility.yul\":73:75   */\n  0x40\n    /* \"#utility.yul\":67:76   */\n  mload\n    /* \"#utility.yul\":57:76   */\n  swap1\n  pop\n    /* \"#utility.yul\":7:82   */\n  swap1\n  jump\t// out\n    /* \"#utility.yul\":88:205   */\ntag_61:\n    /* \"#utility.yul\":197:198   */\n  0x00\n    /* \"#utility.yul\":194:195   */\n  dup1\n    /* \"#utility.yul\":187:199   */\n  revert\n    /* \"#utility.yul\":211:328   */\ntag_62:\n    /* \"#utility.yul\":320:321   */\n  0x00\n    /* \"#utility.yul\":317:318   */\n  dup1\n    /* \"#utility.yul\":310:322   */\n  revert\n    /* \"#utility.yul\":334:451   */\ntag_63:\n    /* \"#utility.yul\":443:444   */\n  0x00\n    /* \"#utility.yul\":440:441   */\n  dup1\n    /* \"#utility.yul\":433:445   */\n  revert\n    /* \"#utility.yul\":457:574   */\ntag_64:\n    /* \"#utility.yul\":566:567   */\n  0x00\n    /* \"#utility.yul\":563:564   */\n  dup1\n    /* \"#utility.yul\":556:568   */\n  revert\n    /* \"#utility.yul\":580:682   */\ntag_65:\n    /* \"#utility.yul\":621:627   */\n  0x00\n    /* \"#utility.yul\":672:674   */\n  0x1f\n    /* \"#utility.yul\":668:675   */\n  not\n    /* \"#utility.yul\":663:665   */\n  0x1f\n    /* \"#utility.yul\":656:661   */\n  dup4\n    /* \"#utility.yul\":652:666   */\n  add\n    /* \"#utility.yul\":648:676   */\n  and\n    /* \"#utility.yul\":638:676   */\n  swap1\n  pop\n    /* \"#utility.yul\":580:682   */\n  swap2\n  swap1\n  pop\n  jump\t// out\n    /* \"#utility.yul\":688:868   */\ntag_66:\n    /* \"#utility.yul\":736:813   */\n  0x4e487b7100000000000000000000000000000000000000000000000000000000\n    /* \"#utility.yul\":733:734   */\n  0x00\n    /* \"#utility.yul\":726:814   */\n  mstore\n    /* \"#utility.yul\":833:837   */\n  0x41\n    /* \"#utility.yul\":830:831   */\n  0x04\n    /* \"#utility.yul\":823:838   */\n  mstore\n    /* \"#utility.yul\":857:861   */\n  0x24\n    /* \"#utility.yul\":854:855   */\n  0x00\n    /* \"#utility.yul\":847:862   */\n  revert\n    /* \"#utility.yul\":874:1155   */\ntag_67:\n    /* \"#utility.yul\":957:984   */\n  tag_109\n    /* \"#utility.yul\":979:983   */\n  dup3\n    /* \"#utility.yul\":957:984   */\n  tag_65\n  jump\t// in\ntag_109:\n    /* \"#utility.yul\":949:955   */\n  dup2\n    /* \"#utility.yul\":945:985   */\n  add\n    /* \"#utility.yul\":1087:1093   */\n  dup2\n    /* \"#utility.yul\":1075:1085   */\n  dup2\n    /* \"#utility.yul\":1072:1094   */\n  lt\n    /* \"#utility.yul\":1051:1069   */\n  0xffffffffffffffff\n    /* \"#utility.yul\":1039:1049   */\n  dup3\n    /* \"#utility.yul\":1036:1070   */\n  gt\n    /* \"#utility.yul\":1033:1095   */\n  or\n    /* \"#utility.yul\":1030:1118   */\n  iszero\n  tag_110\n  jumpi\n    /* \"#utility.yul\":1098:1116   */\n  tag_111\n  tag_66\n  jump\t// in\ntag_111:\n    /* \"#utility.yul\":1030:1118   */\ntag_110:\n    /* \"#utility.yul\":1138:1148   */\n  dup1\n    /* \"#utility.yul\":1134:1136   */\n  0x40\n    /* \"#utility.yul\":1127:1149   */\n  mstore\n    /* \"#utility.yul\":917:1155   */\n  pop\n    /* \"#utility.yul\":874:1155   */\n  pop\n  pop\n  jump\t// out\n    /* \"#utility.yul\":1161:1290   */\ntag_68:\n    /* \"#utility.yul\":1195:1201   */\n  0x00\n    /* \"#utility.yul\":1222:1242   */\n  tag_113\n  tag_60\n  jump\t// in\ntag_113:\n    /* \"#utility.yul\":1212:1242   */\n  swap1\n  pop\n    /* \"#utility.yul\":1251:1284   */\n  tag_114\n    /* \"#utility.yul\":1279:1283   */\n  dup3\n    /* \"#utility.yul\":1271:1277   */\n  dup3\n    /* \"#utility.yul\":1251:1284   */\n  tag_67\n  jump\t// in\ntag_114:\n    /* \"#utility.yul\":1161:1290   */\n  swap2\n  swap1\n  pop\n  jump\t// out\n    /* \"#utility.yul\":1296:1604   */\ntag_69:\n    /* \"#utility.yul\":1358:1362   */\n  0x00\n    /* \"#utility.yul\":1448:1466   */\n  0xffffffffffffffff\n    /* \"#utility.yul\":1440:1446   */\n  dup3\n    /* \"#utility.yul\":1437:1467   */\n  gt\n    /* \"#utility.yul\":1434:1490   */\n  iszero\n  tag_116\n  jumpi\n    /* \"#utility.yul\":1470:1488   */\n  tag_117\n  tag_66\n  jump\t// in\ntag_117:\n    /* \"#utility.yul\":1434:1490   */\ntag_116:\n    /* \"#utility.yul\":1508:1537   */\n  tag_118\n    /* \"#utility.yul\":1530:1536   */\n  dup3\n    /* \"#utility.yul\":1508:1537   */\n  tag_65\n  jump\t// in\ntag_118:\n    /* \"#utility.yul\":1500:1537   */\n  swap1\n  pop\n    /* \"#utility.yul\":1592:1596   */\n  0x20\n    /* \"#utility.yul\":1586:1590   */\n  dup2\n    /* \"#utility.yul\":1582:1597   */\n  add\n    /* \"#utility.yul\":1574:1597   */\n  swap1\n  pop\n    /* \"#utility.yul\":1296:1604   */\n  swap2\n  swap1\n  pop\n  jump\t// out\n    /* \"#utility.yul\":1610:1856   */\ntag_70:\n    /* \"#utility.yul\":1691:1692   */\n  0x00\n    /* \"#utility.yul\":1701:1814   */\ntag_120:\n    /* \"#utility.yul\":1715:1721   */\n  dup4\n    /* \"#utility.yul\":1712:1713   */\n  dup2\n    /* \"#utility.yul\":1709:1722   */\n  lt\n    /* \"#utility.yul\":1701:1814   */\n  iszero\n  tag_122\n  jumpi\n    /* \"#utility.yul\":1800:1801   */\n  dup1\n    /* \"#utility.yul\":1795:1798   */\n  dup3\n    /* \"#utility.yul\":1791:1802   */\n  add\n    /* \"#utility.yul\":1785:1803   */\n  mload\n    /* \"#utility.yul\":1781:1782   */\n  dup2\n    /* \"#utility.yul\":1776:1779   */\n  dup5\n    /* \"#utility.yul\":1772:1783   */\n  add\n    /* \"#utility.yul\":1765:1804   */\n  mstore\n    /* \"#utility.yul\":1737:1739   */\n  0x20\n    /* \"#utility.yul\":1734:1735   */\n  dup2\n    /* \"#utility.yul\":1730:1740   */\n  add\n    /* \"#utility.yul\":1725:1740   */\n  swap1\n  pop\n    /* \"#utility.yul\":1701:1814   */\n  jump(tag_120)\ntag_122:\n    /* \"#utility.yul\":1848:1849   */\n  0x00\n    /* \"#utility.yul\":1839:1845   */\n  dup5\n    /* \"#utility.yul\":1834:1837   */\n  dup5\n    /* \"#utility.yul\":1830:1846   */\n  add\n    /* \"#utility.yul\":1823:1850   */\n  mstore\n    /* \"#utility.yul\":1672:1856   */\n  pop\n    /* \"#utility.yul\":1610:1856   */\n  pop\n  pop\n  pop\n  jump\t// out\n    /* \"#utility.yul\":1862:2296   */\ntag_71:\n    /* \"#utility.yul\":1951:1956   */\n  0x00\n    /* \"#utility.yul\":1976:2042   */\n  tag_124\n    /* \"#utility.yul\":1992:2041   */\n  tag_125\n    /* \"#utility.yul\":2034:2040   */\n  dup5\n    /* \"#utility.yul\":1992:2041   */\n  tag_69\n  jump\t// in\ntag_125:\n    /* \"#utility.yul\":1976:2042   */\n  tag_68\n  jump\t// in\ntag_124:\n    /* \"#utility.yul\":1967:2042   */\n  swap1\n  pop\n    /* \"#utility.yul\":2065:2071   */\n  dup3\n    /* \"#utility.yul\":2058:2063   */\n  dup2\n    /* \"#utility.yul\":2051:2072   */\n  mstore\n    /* \"#utility.yul\":2103:2107   */\n  0x20\n    /* \"#utility.yul\":2096:2101   */\n  dup2\n    /* \"#utility.yul\":2092:2108   */\n  add\n    /* \"#utility.yul\":2141:2144   */\n  dup5\n    /* \"#utility.yul\":2132:2138   */\n  dup5\n    /* \"#utility.yul\":2127:2130   */\n  dup5\n    /* \"#utility.yul\":2123:2139   */\n  add\n    /* \"#utility.yul\":2120:2145   */\n  gt\n    /* \"#utility.yul\":2117:2229   */\n  iszero\n  tag_126\n  jumpi\n    /* \"#utility.yul\":2148:2227   */\n  tag_127\n  tag_64\n  jump\t// in\ntag_127:\n    /* \"#utility.yul\":2117:2229   */\ntag_126:\n    /* \"#utility.yul\":2238:2290   */\n  tag_128\n    /* \"#utility.yul\":2283:2289   */\n  dup5\n    /* \"#utility.yul\":2278:2281   */\n  dup3\n    /* \"#utility.yul\":2273:2276   */\n  dup6\n    /* \"#utility.yul\":2238:2290   */\n  tag_70\n  jump\t// in\ntag_128:\n    /* \"#utility.yul\":1957:2296   */\n  pop\n    /* \"#utility.yul\":1862:2296   */\n  swap4\n  swap3\n  pop\n  pop\n  pop\n  jump\t// out\n    /* \"#utility.yul\":2316:2671   */\ntag_72:\n    /* \"#utility.yul\":2383:2388   */\n  0x00\n    /* \"#utility.yul\":2432:2435   */\n  dup3\n    /* \"#utility.yul\":2425:2429   */\n  0x1f\n    /* \"#utility.yul\":2417:2423   */\n  dup4\n    /* \"#utility.yul\":2413:2430   */\n  add\n    /* \"#utility.yul\":2409:2436   */\n  slt\n    /* \"#utility.yul\":2399:2521   */\n  tag_130\n  jumpi\n    /* \"#utility.yul\":2440:2519   */\n  tag_131\n  tag_63\n  jump\t// in\ntag_131:\n    /* \"#utility.yul\":2399:2521   */\ntag_130:\n    /* \"#utility.yul\":2550:2556   */\n  dup2\n    /* \"#utility.yul\":2544:2557   */\n  mload\n    /* \"#utility.yul\":2575:2665   */\n  tag_132\n    /* \"#utility.yul\":2661:2664   */\n  dup5\n    /* \"#utility.yul\":2653:2659   */\n  dup3\n    /* \"#utility.yul\":2646:2650   */\n  0x20\n    /* \"#utility.yul\":2638:2644   */\n  dup7\n    /* \"#utility.yul\":2634:2651   */\n  add\n    /* \"#utility.yul\":2575:2665   */\n  tag_71\n  jump\t// in\ntag_132:\n    /* \"#utility.yul\":2566:2665   */\n  swap2\n  pop\n    /* \"#utility.yul\":2389:2671   */\n  pop\n    /* \"#utility.yul\":2316:2671   */\n  swap3\n  swap2\n  pop\n  pop\n  jump\t// out\n    /* \"#utility.yul\":2677:3530   */\ntag_6:\n    /* \"#utility.yul\":2776:2782   */\n  0x00\n    /* \"#utility.yul\":2784:2790   */\n  dup1\n    /* \"#utility.yul\":2833:2835   */\n  0x40\n    /* \"#utility.yul\":2821:2830   */\n  dup4\n    /* \"#utility.yul\":2812:2819   */\n  dup6\n    /* \"#utility.yul\":2808:2831   */\n  sub\n    /* \"#utility.yul\":2804:2836   */\n  slt\n    /* \"#utility.yul\":2801:2920   */\n  iszero\n  tag_134\n  jumpi\n    /* \"#utility.yul\":2839:2918   */\n  tag_135\n  tag_61\n  jump\t// in\ntag_135:\n    /* \"#utility.yul\":2801:2920   */\ntag_134:\n    /* \"#utility.yul\":2980:2981   */\n  0x00\n    /* \"#utility.yul\":2969:2978   */\n  dup4\n    /* \"#utility.yul\":2965:2982   */\n  add\n    /* \"#utility.yul\":2959:2983   */\n  mload\n    /* \"#utility.yul\":3010:3028   */\n  0xffffffffffffffff\n    /* \"#utility.yul\":3002:3008   */\n  dup2\n    /* \"#utility.yul\":2999:3029   */\n  gt\n    /* \"#utility.yul\":2996:3113   */\n  iszero\n  tag_136\n  jumpi\n    /* \"#utility.yul\":3032:3111   */\n  tag_137\n  tag_62\n  jump\t// in\ntag_137:\n    /* \"#utility.yul\":2996:3113   */\ntag_136:\n    /* \"#utility.yul\":3137:3211   */\n  tag_138\n    /* \"#utility.yul\":3203:3210   */\n  dup6\n    /* \"#utility.yul\":3194:3200   */\n  dup3\n    /* \"#utility.yul\":3183:3192   */\n  dup7\n    /* \"#utility.yul\":3179:3201   */\n  add\n    /* \"#utility.yul\":3137:3211   */\n  tag_72\n  jump\t// in\ntag_138:\n    /* \"#utility.yul\":3127:3211   */\n  swap3\n  pop\n    /* \"#utility.yul\":2930:3221   */\n  pop\n    /* \"#utility.yul\":3281:3283   */\n  0x20\n    /* \"#utility.yul\":3270:3279   */\n  dup4\n    /* \"#utility.yul\":3266:3284   */\n  add\n    /* \"#utility.yul\":3260:3285   */\n  mload\n    /* \"#utility.yul\":3312:3330   */\n  0xffffffffffffffff\n    /* \"#utility.yul\":3304:3310   */\n  dup2\n    /* \"#utility.yul\":3301:3331   */\n  gt\n    /* \"#utility.yul\":3298:3415   */\n  iszero\n  tag_139\n  jumpi\n    /* \"#utility.yul\":3334:3413   */\n  tag_140\n  tag_62\n  jump\t// in\ntag_140:\n    /* \"#utility.yul\":3298:3415   */\ntag_139:\n    /* \"#utility.yul\":3439:3513   */\n  tag_141\n    /* \"#utility.yul\":3505:3512   */\n  dup6\n    /* \"#utility.yul\":3496:3502   */\n  dup3\n    /* \"#utility.yul\":3485:3494   */\n  dup7\n    /* \"#utility.yul\":3481:3503   */\n  add\n    /* \"#utility.yul\":3439:3513   */\n  tag_72\n  jump\t// in\ntag_141:\n    /* \"#utility.yul\":3429:3513   */\n  swap2\n  pop\n    /* \"#utility.yul\":3231:3523   */\n  pop\n    /* \"#utility.yul\":2677:3530   */\n  swap3\n  pop\n  swap3\n  swap1\n  pop\n  jump\t// out\n    /* \"#utility.yul\":3536:3635   */\ntag_73:\n    /* \"#utility.yul\":3588:3594   */\n  0x00\n    /* \"#utility.yul\":3622:3627   */\n  dup2\n    /* \"#utility.yul\":3616:3628   */\n  mload\n    /* \"#utility.yul\":3606:3628   */\n  swap1\n  pop\n    /* \"#utility.yul\":3536:3635   */\n  swap2\n  swap1\n  pop\n  jump\t// out\n    /* \"#utility.yul\":3641:3821   */\ntag_74:\n    /* \"#utility.yul\":3689:3766   */\n  0x4e487b7100000000000000000000000000000000000000000000000000000000\n    /* \"#utility.yul\":3686:3687   */\n  0x00\n    /* \"#utility.yul\":3679:3767   */\n  mstore\n    /* \"#utility.yul\":3786:3790   */\n  0x22\n    /* \"#utility.yul\":3783:3784   */\n  0x04\n    /* \"#utility.yul\":3776:3791   */\n  mstore\n    /* \"#utility.yul\":3810:3814   */\n  0x24\n    /* \"#utility.yul\":3807:3808   */\n  0x00\n    /* \"#utility.yul\":3800:3815   */\n  revert\n    /* \"#utility.yul\":3827:4147   */\ntag_53:\n    /* \"#utility.yul\":3871:3877   */\n  0x00\n    /* \"#utility.yul\":3908:3909   */\n  0x02\n    /* \"#utility.yul\":3902:3906   */\n  dup3\n    /* \"#utility.yul\":3898:3910   */\n  div\n    /* \"#utility.yul\":3888:3910   */\n  swap1\n  pop\n    /* \"#utility.yul\":3955:3956   */\n  0x01\n    /* \"#utility.yul\":3949:3953   */\n  dup3\n    /* \"#utility.yul\":3945:3957   */\n  and\n    /* \"#utility.yul\":3976:3994   */\n  dup1\n    /* \"#utility.yul\":3966:4047   */\n  tag_145\n  jumpi\n    /* \"#utility.yul\":4032:4036   */\n  0x7f\n    /* \"#utility.yul\":4024:4030   */\n  dup3\n    /* \"#utility.yul\":4020:4037   */\n  and\n    /* \"#utility.yul\":4010:4037   */\n  swap2\n  pop\n    /* \"#utility.yul\":3966:4047   */\ntag_145:\n    /* \"#utility.yul\":4094:4096   */\n  0x20\n    /* \"#utility.yul\":4086:4092   */\n  dup3\n    /* \"#utility.yul\":4083:4097   */\n  lt\n    /* \"#utility.yul\":4063:4081   */\n  dup2\n    /* \"#utility.yul\":4060:4098   */\n  sub\n    /* \"#utility.yul\":4057:4141   */\n  tag_146\n  jumpi\n    /* \"#utility.yul\":4113:4131   */\n  tag_147\n  tag_74\n  jump\t// in\ntag_147:\n    /* \"#utility.yul\":4057:4141   */\ntag_146:\n    /* \"#utility.yul\":3878:4147   */\n  pop\n    /* \"#utility.yul\":3827:4147   */\n  swap2\n  swap1\n  pop\n  jump\t// out\n    /* \"#utility.yul\":4153:4294   */\ntag_75:\n    /* \"#utility.yul\":4202:4206   */\n  0x00\n    /* \"#utility.yul\":4225:4228   */\n  dup2\n    /* \"#utility.yul\":4217:4228   */\n  swap1\n  pop\n    /* \"#utility.yul\":4248:4251   */\n  dup2\n    /* \"#utility.yul\":4245:4246   */\n  0x00\n    /* \"#utility.yul\":4238:4252   */\n  mstore\n    /* \"#utility.yul\":4282:4286   */\n  0x20\n    /* \"#utility.yul\":4279:4280   */\n  0x00\n    /* \"#utility.yul\":4269:4287   */\n  keccak256\n    /* \"#utility.yul\":4261:4287   */\n  swap1\n  pop\n    /* \"#utility.yul\":4153:4294   */\n  swap2\n  swap1\n  pop\n  jump\t// out\n    /* \"#utility.yul\":4300:4393   */\ntag_76:\n    /* \"#utility.yul\":4337:4343   */\n  0x00\n    /* \"#utility.yul\":4384:4386   */\n  0x20\n    /* \"#utility.yul\":4379:4381   */\n  0x1f\n    /* \"#utility.yul\":4372:4377   */\n  dup4\n    /* \"#utility.yul\":4368:4382   */\n  add\n    /* \"#utility.yul\":4364:4387   */\n  div\n    /* \"#utility.yul\":4354:4387   */\n  swap1\n  pop\n    /* \"#utility.yul\":4300:4393   */\n  swap2\n  swap1\n  pop\n  jump\t// out\n    /* \"#utility.yul\":4399:4506   */\ntag_77:\n    /* \"#utility.yul\":4443:4451   */\n  0x00\n    /* \"#utility.yul\":4493:4498   */\n  dup3\n    /* \"#utility.yul\":4487:4491   */\n  dup3\n    /* \"#utility.yul\":4483:4499   */\n  shl\n    /* \"#utility.yul\":4462:4499   */\n  swap1\n  pop\n    /* \"#utility.yul\":4399:4506   */\n  swap3\n  swap2\n  pop\n  pop\n  jump\t// out\n    /* \"#utility.yul\":4512:4905   */\ntag_78:\n    /* \"#utility.yul\":4581:4587   */\n  0x00\n    /* \"#utility.yul\":4631:4632   */\n  0x08\n    /* \"#utility.yul\":4619:4629   */\n  dup4\n    /* \"#utility.yul\":4615:4633   */\n  mul\n    /* \"#utility.yul\":4654:4751   */\n  tag_152\n    /* \"#utility.yul\":4684:4750   */\n  0xffffffffffffffffffffffffffffffffffffffffffffffffffffffffffffffff\n    /* \"#utility.yul\":4673:4682   */\n  dup3\n    /* \"#utility.yul\":4654:4751   */\n  tag_77\n  jump\t// in\ntag_152:\n    /* \"#utility.yul\":4772:4811   */\n  tag_153\n    /* \"#utility.yul\":4802:4810   */\n  dup7\n    /* \"#utility.yul\":4791:4800   */\n  dup4\n    /* \"#utility.yul\":4772:4811   */\n  tag_77\n  jump\t// in\ntag_153:\n    /* \"#utility.yul\":4760:4811   */\n  swap6\n  pop\n    /* \"#utility.yul\":4844:4848   */\n  dup1\n    /* \"#utility.yul\":4840:4849   */\n  not\n    /* \"#utility.yul\":4833:4838   */\n  dup5\n    /* \"#utility.yul\":4829:4850   */\n  and\n    /* \"#utility.yul\":4820:4850   */\n  swap4\n  pop\n    /* \"#utility.yul\":4893:4897   */\n  dup1\n    /* \"#utility.yul\":4883:4891   */\n  dup7\n    /* \"#utility.yul\":4879:4898   */\n  and\n    /* \"#utility.yul\":4872:4877   */\n  dup5\n    /* \"#utility.yul\":4869:4899   */\n  or\n    /* \"#utility.yul\":4859:4899   */\n  swap3\n  pop\n    /* \"#utility.yul\":4588:4905   */\n  pop\n  pop\n    /* \"#utility.yul\":4512:4905   */\n  swap4\n  swap3\n  pop\n  pop\n  pop\n  jump\t// out\n    /* \"#utility.yul\":4911:4988   */\ntag_79:\n    /* \"#utility.yul\":4948:4955   */\n  0x00\n    /* \"#utility.yul\":4977:4982   */\n  dup2\n    /* \"#utility.yul\":4966:4982   */\n  swap1\n  pop\n    /* \"#utility.yul\":4911:4988   */\n  swap2\n  swap1\n  pop\n  jump\t// out\n    /* \"#utility.yul\":4994:5054   */\ntag_80:\n    /* \"#utility.yul\":5022:5025   */\n  0x00\n    /* \"#utility.yul\":5043:5048   */\n  dup2\n    /* \"#utility.yul\":5036:5048   */\n  swap1\n  pop\n    /* \"#utility.yul\":4994:5054   */\n  swap2\n  swap1\n  pop\n  jump\t// out\n    /* \"#utility.yul\":5060:5202   */\ntag_81:\n    /* \"#utility.yul\":5110:5119   */\n  0x00\n    /* \"#utility.yul\":5143:5196   */\n  tag_157\n    /* \"#utility.yul\":5161:5195   */\n  tag_158\n    /* \"#utility.yul\":5170:5194   */\n  tag_159\n    /* \"#utility.yul\":5188:5193   */\n  dup5\n    /* \"#utility.yul\":5170:5194   */\n  tag_79\n  jump\t// in\ntag_159:\n    /* \"#utility.yul\":5161:5195   */\n  tag_80\n  jump\t// in\ntag_158:\n    /* \"#utility.yul\":5143:5196   */\n  tag_79\n  jump\t// in\ntag_157:\n    /* \"#utility.yul\":5130:5196   */\n  swap1\n  pop\n    /* \"#utility.yul\":5060:5202   */\n  swap2\n  swap1\n  pop\n  jump\t// out\n    /* \"#utility.yul\":5208:5283   */\ntag_82:\n    /* \"#utility.yul\":5251:5254   */\n  0x00\n    /* \"#utility.yul\":5272:5277   */\n  dup2\n    /* \"#utility.yul\":5265:5277   */\n  swap1\n  pop\n    /* \"#utility.yul\":5208:5283   */\n  swap2\n  swap1\n  pop\n  jump\t// out\n    /* \"#utility.yul\":5289:5558   */\ntag_83:\n    /* \"#utility.yul\":5399:5438   */\n  tag_162\n    /* \"#utility.yul\":5430:5437   */\n  dup4\n    /* \"#utility.yul\":5399:5438   */\n  tag_81\n  jump\t// in\ntag_162:\n    /* \"#utility.yul\":5460:5551   */\n  tag_163\n    /* \"#utility.yul\":5509:5550   */\n  tag_164\n    /* \"#utility.yul\":5533:5549   */\n  dup3\n    /* \"#utility.yul\":5509:5550   */\n  tag_82\n  jump\t// in\ntag_164:\n    /* \"#utility.yul\":5501:5507   */\n  dup5\n    /* \"#utility.yul\":5494:5498   */\n  dup5\n    /* \"#utility.yul\":5488:5499   */\n  sload\n    /* \"#utility.yul\":5460:5551   */\n  tag_78\n  jump\t// in\ntag_163:\n    /* \"#utility.yul\":5454:5458   */\n  dup3\n    /* \"#utility.yul\":5447:5552   */\n  sstore\n    /* \"#utility.yul\":5365:5558   */\n  pop\n    /* \"#utility.yul\":5289:5558   */\n  pop\n  pop\n  pop\n  jump\t// out\n    /* \"#utility.yul\":5564:5637   */\ntag_84:\n    /* \"#utility.yul\":5609:5612   */\n  0x00\n    /* \"#utility.yul\":5564:5637   */\n  swap1\n  jump\t// out\n    /* \"#utility.yul\":5643:5832   */\ntag_85:\n    /* \"#utility.yul\":5720:5752   */\n  tag_167\n  tag_84\n  jump\t// in\ntag_167:\n    /* \"#utility.yul\":5761:5826   */\n  tag_168\n    /* \"#utility.yul\":5819:5825   */\n  dup2\n    /* \"#utility.yul\":5811:5817   */\n  dup5\n    /* \"#utility.yul\":5805:5809   */\n  dup5\n    /* \"#utility.yul\":5761:5826   */\n  tag_83\n  jump\t// in\ntag_168:\n    /* \"#utility.yul\":5696:5832   */\n  pop\n    /* \"#utility.yul\":5643:5832   */\n  pop\n  pop\n  jump\t// out\n    /* \"#utility.yul\":5838:6024   */\ntag_86:\n    /* \"#utility.yul\":5898:6018   */\ntag_170:\n    /* \"#utility.yul\":5915:5918   */\n  dup2\n    /* \"#utility.yul\":5908:5913   */\n  dup2\n    /* \"#utility.yul\":5905:5919   */\n  lt\n    /* \"#utility.yul\":5898:6018   */\n  iszero\n  tag_172\n  jumpi\n    /* \"#utility.yul\":5969:6008   */\n  tag_173\n    /* \"#utility.yul\":6006:6007   */\n  0x00\n    /* \"#utility.yul\":5999:6004   */\n  dup3\n    /* \"#utility.yul\":5969:6008   */\n  tag_85\n  jump\t// in\ntag_173:\n    /* \"#utility.yul\":5942:5943   */\n  0x01\n    /* \"#utility.yul\":5935:5940   */\n  dup2\n    /* \"#utility.yul\":5931:5944   */\n  add\n    /* \"#utility.yul\":5922:5944   */\n  swap1\n  pop\n    /* \"#utility.yul\":5898:6018   */\n  jump(tag_170)\ntag_172:\n    /* \"#utility.yul\":5838:6024   */\n  pop\n  pop\n  jump\t// out\n    /* \"#utility.yul\":6030:6573   */\ntag_87:\n    /* \"#utility.yul\":6131:6133   */\n  0x1f\n    /* \"#utility.yul\":6126:6129   */\n  dup3\n    /* \"#utility.yul\":6123:6134   */\n  gt\n    /* \"#utility.yul\":6120:6566   */\n  iszero\n  tag_175\n  jumpi\n    /* \"#utility.yul\":6165:6203   */\n  tag_176\n    /* \"#utility.yul\":6197:6202   */\n  dup2\n    /* \"#utility.yul\":6165:6203   */\n  tag_75\n  jump\t// in\ntag_176:\n    /* \"#utility.yul\":6249:6278   */\n  tag_177\n    /* \"#utility.yul\":6267:6277   */\n  dup5\n    /* \"#utility.yul\":6249:6278   */\n  tag_76\n  jump\t// in\ntag_177:\n    /* \"#utility.yul\":6239:6247   */\n  dup2\n    /* \"#utility.yul\":6235:6279   */\n  add\n    /* \"#utility.yul\":6432:6434   */\n  0x20\n    /* \"#utility.yul\":6420:6430   */\n  dup6\n    /* \"#utility.yul\":6417:6435   */\n  lt\n    /* \"#utility.yul\":6414:6463   */\n  iszero\n  tag_178\n  jumpi\n    /* \"#utility.yul\":6453:6461   */\n  dup2\n    /* \"#utility.yul\":6438:6461   */\n  swap1\n  pop\n    /* \"#utility.yul\":6414:6463   */\ntag_178:\n    /* \"#utility.yul\":6476:6556   */\n  tag_179\n    /* \"#utility.yul\":6532:6554   */\n  tag_180\n    /* \"#utility.yul\":6550:6553   */\n  dup6\n    /* \"#utility.yul\":6532:6554   */\n  tag_76\n  jump\t// in\ntag_180:\n    /* \"#utility.yul\":6522:6530   */\n  dup4\n    /* \"#utility.yul\":6518:6555   */\n  add\n    /* \"#utility.yul\":6505:6516   */\n  dup3\n    /* \"#utility.yul\":6476:6556   */\n  tag_86\n  jump\t// in\ntag_179:\n    /* \"#utility.yul\":6135:6566   */\n  pop\n  pop\n    /* \"#utility.yul\":6120:6566   */\ntag_175:\n    /* \"#utility.yul\":6030:6573   */\n  pop\n  pop\n  pop\n  jump\t// out\n    /* \"#utility.yul\":6579:6696   */\ntag_88:\n    /* \"#utility.yul\":6633:6641   */\n  0x00\n    /* \"#utility.yul\":6683:6688   */\n  dup3\n    /* \"#utility.yul\":6677:6681   */\n  dup3\n    /* \"#utility.yul\":6673:6689   */\n  shr\n    /* \"#utility.yul\":6652:6689   */\n  swap1\n  pop\n    /* \"#utility.yul\":6579:6696   */\n  swap3\n  swap2\n  pop\n  pop\n  jump\t// out\n    /* \"#utility.yul\":6702:6871   */\ntag_89:\n    /* \"#utility.yul\":6746:6752   */\n  0x00\n    /* \"#utility.yul\":6779:6830   */\n  tag_183\n    /* \"#utility.yul\":6827:6828   */\n  0x00\n    /* \"#utility.yul\":6823:6829   */\n  not\n    /* \"#utility.yul\":6815:6820   */\n  dup5\n    /* \"#utility.yul\":6812:6813   */\n  0x08\n    /* \"#utility.yul\":6808:6821   */\n  mul\n    /* \"#utility.yul\":6779:6830   */\n  tag_88\n  jump\t// in\ntag_183:\n    /* \"#utility.yul\":6775:6831   */\n  not\n    /* \"#utility.yul\":6860:6864   */\n  dup1\n    /* \"#utility.yul\":6854:6858   */\n  dup4\n    /* \"#utility.yul\":6850:6865   */\n  and\n    /* \"#utility.yul\":6840:6865   */\n  swap2\n  pop\n    /* \"#utility.yul\":6753:6871   */\n  pop\n    /* \"#utility.yul\":6702:6871   */\n  swap3\n  swap2\n  pop\n  pop\n  jump\t// out\n    /* \"#utility.yul\":6876:7171   */\ntag_90:\n    /* \"#utility.yul\":6952:6956   */\n  0x00\n    /* \"#utility.yul\":7098:7127   */\n  tag_185\n    /* \"#utility.yul\":7123:7126   */\n  dup4\n    /* \"#utility.yul\":7117:7121   */\n  dup4\n    /* \"#utility.yul\":7098:7127   */\n  tag_89\n  jump\t// in\ntag_185:\n    /* \"#utility.yul\":7090:7127   */\n  swap2\n  pop\n    /* \"#utility.yul\":7160:7163   */\n  dup3\n    /* \"#utility.yul\":7157:7158   */\n  0x02\n    /* \"#utility.yul\":7153:7164   */\n  mul\n    /* \"#utility.yul\":7147:7151   */\n  dup3\n    /* \"#utility.yul\":7144:7165   */\n  or\n    /* \"#utility.yul\":7136:7165   */\n  swap1\n  pop\n    /* \"#utility.yul\":6876:7171   */\n  swap3\n  swap2\n  pop\n  pop\n  jump\t// out\n    /* \"#utility.yul\":7176:8571   */\ntag_11:\n    /* \"#utility.yul\":7293:7330   */\n  tag_187\n    /* \"#utility.yul\":7326:7329   */\n  dup3\n    /* \"#utility.yul\":7293:7330   */\n  tag_73\n  jump\t// in\ntag_187:\n    /* \"#utility.yul\":7395:7413   */\n  0xffffffffffffffff\n    /* \"#utility.yul\":7387:7393   */\n  dup2\n    /* \"#utility.yul\":7384:7414   */\n  gt\n    /* \"#utility.yul\":7381:7437   */\n  iszero\n  tag_188\n  jumpi\n    /* \"#utility.yul\":7417:7435   */\n  tag_189\n  tag_66\n  jump\t// in\ntag_189:\n    /* \"#utility.yul\":7381:7437   */\ntag_188:\n    /* \"#utility.yul\":7461:7499   */\n  tag_190\n    /* \"#utility.yul\":7493:7497   */\n  dup3\n    /* \"#utility.yul\":7487:7498   */\n  sload\n    /* \"#utility.yul\":7461:7499   */\n  tag_53\n  jump\t// in\ntag_190:\n    /* \"#utility.yul\":7546:7613   */\n  tag_191\n    /* \"#utility.yul\":7606:7612   */\n  dup3\n    /* \"#utility.yul\":7598:7604   */\n  dup3\n    /* \"#utility.yul\":7592:7596   */\n  dup6\n    /* \"#utility.yul\":7546:7613   */\n  tag_87\n  jump\t// in\ntag_191:\n    /* \"#utility.yul\":7640:7641   */\n  0x00\n    /* \"#utility.yul\":7664:7668   */\n  0x20\n    /* \"#utility.yul\":7651:7668   */\n  swap1\n  pop\n    /* \"#utility.yul\":7696:7698   */\n  0x1f\n    /* \"#utility.yul\":7688:7694   */\n  dup4\n    /* \"#utility.yul\":7685:7699   */\n  gt\n    /* \"#utility.yul\":7713:7714   */\n  0x01\n    /* \"#utility.yul\":7708:8326   */\n  dup2\n  eq\n  tag_193\n  jumpi\n    /* \"#utility.yul\":8370:8371   */\n  0x00\n    /* \"#utility.yul\":8387:8393   */\n  dup5\n    /* \"#utility.yul\":8384:8461   */\n  iszero\n  tag_194\n  jumpi\n    /* \"#utility.yul\":8436:8445   */\n  dup3\n    /* \"#utility.yul\":8431:8434   */\n  dup8\n    /* \"#utility.yul\":8427:8446   */\n  add\n    /* \"#utility.yul\":8421:8447   */\n  mload\n    /* \"#utility.yul\":8412:8447   */\n  swap1\n  pop\n    /* \"#utility.yul\":8384:8461   */\ntag_194:\n    /* \"#utility.yul\":8487:8554   */\n  tag_195\n    /* \"#utility.yul\":8547:8553   */\n  dup6\n    /* \"#utility.yul\":8540:8545   */\n  dup3\n    /* \"#utility.yul\":8487:8554   */\n  tag_90\n  jump\t// in\ntag_195:\n    /* \"#utility.yul\":8481:8485   */\n  dup7\n    /* \"#utility.yul\":8474:8555   */\n  sstore\n    /* \"#utility.yul\":8343:8565   */\n  pop\n    /* \"#utility.yul\":7678:8565   */\n  jump(tag_192)\n    /* \"#utility.yul\":7708:8326   */\ntag_193:\n    /* \"#utility.yul\":7760:7764   */\n  0x1f\n    /* \"#utility.yul\":7756:7765   */\n  not\n    /* \"#utility.yul\":7748:7754   */\n  dup5\n    /* \"#utility.yul\":7744:7766   */\n  and\n    /* \"#utility.yul\":7794:7831   */\n  tag_196\n    /* \"#utility.yul\":7826:7830   */\n  dup7\n    /* \"#utility.yul\":7794:7831   */\n  tag_75\n  jump\t// in\ntag_196:\n    /* \"#utility.yul\":7853:7854   */\n  0x00\n    /* \"#utility.yul\":7867:8075   */\ntag_197:\n    /* \"#utility.yul\":7881:7888   */\n  dup3\n    /* \"#utility.yul\":7878:7879   */\n  dup2\n    /* \"#utility.yul\":7875:7889   */\n  lt\n    /* \"#utility.yul\":7867:8075   */\n  iszero\n  tag_199\n  jumpi\n    /* \"#utility.yul\":7960:7969   */\n  dup5\n    /* \"#utility.yul\":7955:7958   */\n  dup10\n    /* \"#utility.yul\":7951:7970   */\n  add\n    /* \"#utility.yul\":7945:7971   */\n  mload\n    /* \"#utility.yul\":7937:7943   */\n  dup3\n    /* \"#utility.yul\":7930:7972   */\n  sstore\n    /* \"#utility.yul\":8011:8012   */\n  0x01\n    /* \"#utility.yul\":8003:8009   */\n  dup3\n    /* \"#utility.yul\":7999:8013   */\n  add\n    /* \"#utility.yul\":7989:8013   */\n  swap2\n  pop\n    /* \"#utility.yul\":8058:8060   */\n  0x20\n    /* \"#utility.yul\":8047:8056   */\n  dup6\n    /* \"#utility.yul\":8043:8061   */\n  add\n    /* \"#utility.yul\":8030:8061   */\n  swap5\n  pop\n    /* \"#utility.yul\":7904:7908   */\n  0x20\n    /* \"#utility.yul\":7901:7902   */\n  dup2\n    /* \"#utility.yul\":7897:7909   */\n  add\n    /* \"#utility.yul\":7892:7909   */\n  swap1\n  pop\n    /* \"#utility.yul\":7867:8075   */\n  jump(tag_197)\ntag_199:\n    /* \"#utility.yul\":8103:8109   */\n  dup7\n    /* \"#utility.yul\":8094:8101   */\n  dup4\n    /* \"#utility.yul\":8091:8110   */\n  lt\n    /* \"#utility.yul\":8088:8267   */\n  iszero\n  tag_200\n  jumpi\n    /* \"#utility.yul\":8161:8170   */\n  dup5\n    /* \"#utility.yul\":8156:8159   */\n  dup10\n    /* \"#utility.yul\":8152:8171   */\n  add\n    /* \"#utility.yul\":8146:8172   */\n  mload\n    /* \"#utility.yul\":8204:8252   */\n  tag_201\n    /* \"#utility.yul\":8246:8250   */\n  0x1f\n    /* \"#utility.yul\":8238:8244   */\n  dup10\n    /* \"#utility.yul\":8234:8251   */\n  and\n    /* \"#utility.yul\":8223:8232   */\n  dup3\n    /* \"#utility.yul\":8204:8252   */\n  tag_89\n  jump\t// in\ntag_201:\n    /* \"#utility.yul\":8196:8202   */\n  dup4\n    /* \"#utility.yul\":8189:8253   */\n  sstore\n    /* \"#utility.yul\":8111:8267   */\n  pop\n    /* \"#utility.yul\":8088:8267   */\ntag_200:\n    /* \"#utility.yul\":8313:8314   */\n  0x01\n    /* \"#utility.yul\":8309:8310   */\n  0x02\n    /* \"#utility.yul\":8301:8307   */\n  dup9\n    /* \"#utility.yul\":8297:8311   */\n  mul\n    /* \"#utility.yul\":8293:8315   */\n  add\n    /* \"#utility.yul\":8287:8291   */\n  dup9\n    /* \"#utility.yul\":8280:8316   */\n  sstore\n    /* \"#utility.yul\":7715:8326   */\n  pop\n  pop\n  pop\n    /* \"#utility.yul\":7678:8565   */\ntag_192:\n  pop\n    /* \"#utility.yul\":7268:8571   */\n  pop\n  pop\n  pop\n    /* \"#utility.yul\":7176:8571   */\n  pop\n  pop\n  jump\t// out\n    /* \"#utility.yul\":8577:8757   */\ntag_91:\n    /* \"#utility.yul\":8625:8702   */\n  0x4e487b7100000000000000000000000000000000000000000000000000000000\n    /* \"#utility.yul\":8622:8623   */\n  0x00\n    /* \"#utility.yul\":8615:8703   */\n  mstore\n    /* \"#utility.yul\":8722:8726   */\n  0x11\n    /* \"#utility.yul\":8719:8720   */\n  0x04\n    /* \"#utility.yul\":8712:8727   */\n  mstore\n    /* \"#utility.yul\":8746:8750   */\n  0x24\n    /* \"#utility.yul\":8743:8744   */\n  0x00\n    /* \"#utility.yul\":8736:8751   */\n  revert\n    /* \"#utility.yul\":8763:8865   */\ntag_92:\n    /* \"#utility.yul\":8805:8813   */\n  0x00\n    /* \"#utility.yul\":8852:8857   */\n  dup2\n    /* \"#utility.yul\":8849:8850   */\n  0x01\n    /* \"#utility.yul\":8845:8858   */\n  shr\n    /* \"#utility.yul\":8824:8858   */\n  swap1\n  pop\n    /* \"#utility.yul\":8763:8865   */\n  swap2\n  swap1\n  pop\n  jump\t// out\n    /* \"#utility.yul\":8871:9719   */\ntag_93:\n    /* \"#utility.yul\":8932:8937   */\n  0x00\n    /* \"#utility.yul\":8939:8943   */\n  dup1\n    /* \"#utility.yul\":8963:8969   */\n  dup3\n    /* \"#utility.yul\":8954:8969   */\n  swap2\n  pop\n    /* \"#utility.yul\":8987:8992   */\n  dup4\n    /* \"#utility.yul\":8978:8992   */\n  swap1\n  pop\n    /* \"#utility.yul\":9001:9713   */\ntag_205:\n    /* \"#utility.yul\":9022:9023   */\n  0x01\n    /* \"#utility.yul\":9012:9020   */\n  dup6\n    /* \"#utility.yul\":9009:9024   */\n  gt\n    /* \"#utility.yul\":9001:9713   */\n  iszero\n  tag_207\n  jumpi\n    /* \"#utility.yul\":9117:9121   */\n  dup1\n    /* \"#utility.yul\":9112:9115   */\n  dup7\n    /* \"#utility.yul\":9108:9122   */\n  div\n    /* \"#utility.yul\":9102:9106   */\n  dup2\n    /* \"#utility.yul\":9099:9123   */\n  gt\n    /* \"#utility.yul\":9096:9146   */\n  iszero\n  tag_208\n  jumpi\n    /* \"#utility.yul\":9126:9144   */\n  tag_209\n  tag_91\n  jump\t// in\ntag_209:\n    /* \"#utility.yul\":9096:9146   */\ntag_208:\n    /* \"#utility.yul\":9176:9177   */\n  0x01\n    /* \"#utility.yul\":9166:9174   */\n  dup6\n    /* \"#utility.yul\":9162:9178   */\n  and\n    /* \"#utility.yul\":9159:9610   */\n  iszero\n  tag_210\n  jumpi\n    /* \"#utility.yul\":9591:9595   */\n  dup1\n    /* \"#utility.yul\":9584:9589   */\n  dup3\n    /* \"#utility.yul\":9580:9596   */\n  mul\n    /* \"#utility.yul\":9571:9596   */\n  swap2\n  pop\n    /* \"#utility.yul\":9159:9610   */\ntag_210:\n    /* \"#utility.yul\":9641:9645   */\n  dup1\n    /* \"#utility.yul\":9635:9639   */\n  dup2\n    /* \"#utility.yul\":9631:9646   */\n  mul\n    /* \"#utility.yul\":9623:9646   */\n  swap1\n  pop\n    /* \"#utility.yul\":9671:9703   */\n  tag_211\n    /* \"#utility.yul\":9694:9702   */\n  dup6\n    /* \"#utility.yul\":9671:9703   */\n  tag_92\n  jump\t// in\ntag_211:\n    /* \"#utility.yul\":9659:9703   */\n  swap5\n  pop\n    /* \"#utility.yul\":9001:9713   */\n  jump(tag_205)\ntag_207:\n    /* \"#utility.yul\":8871:9719   */\n  swap5\n  pop\n  swap5\n  swap3\n  pop\n  pop\n  pop\n  jump\t// out\n    /* \"#utility.yul\":9725:10798   */\ntag_94:\n    /* \"#utility.yul\":9779:9784   */\n  0x00\n    /* \"#utility.yul\":9970:9978   */\n  dup3\n    /* \"#utility.yul\":9960:10000   */\n  tag_213\n  jumpi\n    /* \"#utility.yul\":9991:9992   */\n  0x01\n    /* \"#utility.yul\":9982:9992   */\n  swap1\n  pop\n    /* \"#utility.yul\":9993:9998   */\n  jump(tag_212)\n    /* \"#utility.yul\":9960:10000   */\ntag_213:\n    /* \"#utility.yul\":10019:10023   */\n  dup2\n    /* \"#utility.yul\":10009:10045   */\n  tag_214\n  jumpi\n    /* \"#utility.yul\":10036:10037   */\n  0x00\n    /* \"#utility.yul\":10027:10037   */\n  swap1\n  pop\n    /* \"#utility.yul\":10038:10043   */\n  jump(tag_212)\n    /* \"#utility.yul\":10009:10045   */\ntag_214:\n    /* \"#utility.yul\":10105:10109   */\n  dup2\n    /* \"#utility.yul\":10153:10154   */\n  0x01\n    /* \"#utility.yul\":10148:10175   */\n  dup2\n  eq\n  tag_216\n  jumpi\n    /* \"#utility.yul\":10189:10190   */\n  0x02\n    /* \"#utility.yul\":10184:10375   */\n  dup2\n  eq\n  tag_217\n  jumpi\n    /* \"#utility.yul\":10098:10375   */\n  jump(tag_215)\n    /* \"#utility.yul\":10148:10175   */\ntag_216:\n    /* \"#utility.yul\":10166:10167   */\n  0x01\n    /* \"#utility.yul\":10157:10167   */\n  swap2\n  pop\n    /* \"#utility.yul\":10168:10173   */\n  pop\n  jump(tag_212)\n    /* \"#utility.yul\":10184:10375   */\ntag_217:\n    /* \"#utility.yul\":10229:10232   */\n  0xff\n    /* \"#utility.yul\":10219:10227   */\n  dup5\n    /* \"#utility.yul\":10216:10233   */\n  gt\n    /* \"#utility.yul\":10213:10256   */\n  iszero\n  tag_218\n  jumpi\n    /* \"#utility.yul\":10236:10254   */\n  tag_219\n  tag_91\n  jump\t// in\ntag_219:\n    /* \"#utility.yul\":10213:10256   */\ntag_218:\n    /* \"#utility.yul\":10285:10293   */\n  dup4\n    /* \"#utility.yul\":10282:10283   */\n  0x02\n    /* \"#utility.yul\":10278:10294   */\n  exp\n    /* \"#utility.yul\":10269:10294   */\n  swap2\n  pop\n    /* \"#utility.yul\":10320:10323   */\n  dup5\n    /* \"#utility.yul\":10313:10318   */\n  dup3\n    /* \"#utility.yul\":10310:10324   */\n  gt\n    /* \"#utility.yul\":10307:10347   */\n  iszero\n  tag_220\n  jumpi\n    /* \"#utility.yul\":10327:10345   */\n  tag_221\n  tag_91\n  jump\t// in\ntag_221:\n    /* \"#utility.yul\":10307:10347   */\ntag_220:\n    /* \"#utility.yul\":10360:10365   */\n  pop\n  jump(tag_212)\n    /* \"#utility.yul\":10098:10375   */\ntag_215:\n  pop\n    /* \"#utility.yul\":10484:10486   */\n  0x20\n    /* \"#utility.yul\":10474:10482   */\n  dup4\n    /* \"#utility.yul\":10471:10487   */\n  lt\n    /* \"#utility.yul\":10465:10468   */\n  0x0133\n    /* \"#utility.yul\":10459:10463   */\n  dup4\n    /* \"#utility.yul\":10456:10469   */\n  lt\n    /* \"#utility.yul\":10452:10488   */\n  and\n    /* \"#utility.yul\":10434:10436   */\n  0x4e\n    /* \"#utility.yul\":10424:10432   */\n  dup5\n    /* \"#utility.yul\":10421:10437   */\n  lt\n    /* \"#utility.yul\":10416:10418   */\n  0x0b\n    /* \"#utility.yul\":10410:10414   */\n  dup5\n    /* \"#utility.yul\":10407:10419   */\n  lt\n    /* \"#utility.yul\":10403:10438   */\n  and\n    /* \"#utility.yul\":10387:10498   */\n  or\n    /* \"#utility.yul\":10384:10630   */\n  iszero\n  tag_222\n  jumpi\n    /* \"#utility.yul\":10540:10548   */\n  dup3\n    /* \"#utility.yul\":10534:10538   */\n  dup3\n    /* \"#utility.yul\":10530:10549   */\n  exp\n    /* \"#utility.yul\":10521:10549   */\n  swap1\n  pop\n    /* \"#utility.yul\":10575:10578   */\n  dup4\n    /* \"#utility.yul\":10568:10573   */\n  dup2\n    /* \"#utility.yul\":10565:10579   */\n  gt\n    /* \"#utility.yul\":10562:10602   */\n  iszero\n  tag_223\n  jumpi\n    /* \"#utility.yul\":10582:10600   */\n  tag_224\n  tag_91\n  jump\t// in\ntag_224:\n    /* \"#utility.yul\":10562:10602   */\ntag_223:\n    /* \"#utility.yul\":10615:10620   */\n  jump(tag_212)\n    /* \"#utility.yul\":10384:10630   */\ntag_222:\n    /* \"#utility.yul\":10655:10697   */\n  tag_225\n    /* \"#utility.yul\":10693:10696   */\n  dup5\n    /* \"#utility.yul\":10683:10691   */\n  dup5\n    /* \"#utility.yul\":10677:10681   */\n  dup5\n    /* \"#utility.yul\":10674:10675   */\n  0x01\n    /* \"#utility.yul\":10655:10697   */\n  tag_93\n  jump\t// in\ntag_225:\n    /* \"#utility.yul\":10640:10697   */\n  swap3\n  pop\n  swap1\n  pop\n    /* \"#utility.yul\":10729:10733   */\n  dup2\n    /* \"#utility.yul\":10724:10727   */\n  dup5\n    /* \"#utility.yul\":10720:10734   */\n  div\n    /* \"#utility.yul\":10713:10718   */\n  dup2\n    /* \"#utility.yul\":10710:10735   */\n  gt\n    /* \"#utility.yul\":10707:10758   */\n  iszero\n  tag_226\n  jumpi\n    /* \"#utility.yul\":10738:10756   */\n  tag_227\n  tag_91\n  jump\t// in\ntag_227:\n    /* \"#utility.yul\":10707:10758   */\ntag_226:\n    /* \"#utility.yul\":10787:10791   */\n  dup2\n    /* \"#utility.yul\":10780:10785   */\n  dup2\n    /* \"#utility.yul\":10776:10792   */\n  mul\n    /* \"#utility.yul\":10767:10792   */\n  swap1\n  pop\n    /* \"#utility.yul\":9725:10798   */\ntag_212:\n  swap4\n  swap3\n  pop\n  pop\n  pop\n  jump\t// out\n    /* \"#utility.yul\":10804:10890   */\ntag_95:\n    /* \"#utility.yul\":10839:10846   */\n  0x00\n    /* \"#utility.yul\":10879:10883   */\n  0xff\n    /* \"#utility.yul\":10872:10877   */\n  dup3\n    /* \"#utility.yul\":10868:10884   */\n  and\n    /* \"#utility.yul\":10857:10884   */\n  swap1\n  pop\n    /* \"#utility.yul\":10804:10890   */\n  swap2\n  swap1\n  pop\n  jump\t// out\n    /* \"#utility.yul\":10896:11177   */\ntag_18:\n    /* \"#utility.yul\":10954:10959   */\n  0x00\n    /* \"#utility.yul\":10978:11001   */\n  tag_230\n    /* \"#utility.yul\":10996:11000   */\n  dup3\n    /* \"#utility.yul\":10978:11001   */\n  tag_79\n  jump\t// in\ntag_230:\n    /* \"#utility.yul\":10970:11001   */\n  swap2\n  pop\n    /* \"#utility.yul\":11022:11047   */\n  tag_231\n    /* \"#utility.yul\":11038:11046   */\n  dup4\n    /* \"#utility.yul\":11022:11047   */\n  tag_95\n  jump\t// in\ntag_231:\n    /* \"#utility.yul\":11010:11047   */\n  swap3\n  pop\n    /* \"#utility.yul\":11066:11170   */\n  tag_232\n    /* \"#utility.yul\":11103:11169   */\n  0xffffffffffffffffffffffffffffffffffffffffffffffffffffffffffffffff\n    /* \"#utility.yul\":11093:11101   */\n  dup5\n    /* \"#utility.yul\":11087:11091   */\n  dup5\n    /* \"#utility.yul\":11066:11170   */\n  tag_94\n  jump\t// in\ntag_232:\n    /* \"#utility.yul\":11057:11170   */\n  swap1\n  pop\n    /* \"#utility.yul\":10896:11177   */\n  swap3\n  swap2\n  pop\n  pop\n  jump\t// out\n    /* \"#utility.yul\":11183:11593   */\ntag_20:\n    /* \"#utility.yul\":11223:11230   */\n  0x00\n    /* \"#utility.yul\":11246:11266   */\n  tag_234\n    /* \"#utility.yul\":11264:11265   */\n  dup3\n    /* \"#utility.yul\":11246:11266   */\n  tag_79\n  jump\t// in\ntag_234:\n    /* \"#utility.yul\":11241:11266   */\n  swap2\n  pop\n    /* \"#utility.yul\":11280:11300   */\n  tag_235\n    /* \"#utility.yul\":11298:11299   */\n  dup4\n    /* \"#utility.yul\":11280:11300   */\n  tag_79\n  jump\t// in\ntag_235:\n    /* \"#utility.yul\":11275:11300   */\n  swap3\n  pop\n    /* \"#utility.yul\":11335:11336   */\n  dup3\n    /* \"#utility.yul\":11332:11333   */\n  dup3\n    /* \"#utility.yul\":11328:11337   */\n  mul\n    /* \"#utility.yul\":11357:11387   */\n  tag_236\n    /* \"#utility.yul\":11375:11386   */\n  dup2\n    /* \"#utility.yul\":11357:11387   */\n  tag_79\n  jump\t// in\ntag_236:\n    /* \"#utility.yul\":11346:11387   */\n  swap2\n  pop\n    /* \"#utility.yul\":11536:11537   */\n  dup3\n    /* \"#utility.yul\":11527:11534   */\n  dup3\n    /* \"#utility.yul\":11523:11538   */\n  div\n    /* \"#utility.yul\":11520:11521   */\n  dup5\n    /* \"#utility.yul\":11517:11539   */\n  eq\n    /* \"#utility.yul\":11497:11498   */\n  dup4\n    /* \"#utility.yul\":11490:11499   */\n  iszero\n    /* \"#utility.yul\":11470:11553   */\n  or\n    /* \"#utility.yul\":11447:11586   */\n  tag_237\n  jumpi\n    /* \"#utility.yul\":11566:11584   */\n  tag_238\n  tag_91\n  jump\t// in\ntag_238:\n    /* \"#utility.yul\":11447:11586   */\ntag_237:\n    /* \"#utility.yul\":11231:11593   */\n  pop\n    /* \"#utility.yul\":11183:11593   */\n  swap3\n  swap2\n  pop\n  pop\n  jump\t// out\n    /* \"#utility.yul\":11599:11725   */\ntag_96:\n    /* \"#utility.yul\":11636:11643   */\n  0x00\n    /* \"#utility.yul\":11676:11718   */\n  0xffffffffffffffffffffffffffffffffffffffff\n    /* \"#utility.yul\":11669:11674   */\n  dup3\n    /* \"#utility.yul\":11665:11719   */\n  and\n    /* \"#utility.yul\":11654:11719   */\n  swap1\n  pop\n    /* \"#utility.yul\":11599:11725   */\n  swap2\n  swap1\n  pop\n  jump\t// out\n    /* \"#utility.yul\":11731:11827   */\ntag_97:\n    /* \"#utility.yul\":11768:11775   */\n  0x00\n    /* \"#utility.yul\":11797:11821   */\n  tag_241\n    /* \"#utility.yul\":11815:11820   */\n  dup3\n    /* \"#utility.yul\":11797:11821   */\n  tag_96\n  jump\t// in\ntag_241:\n    /* \"#utility.yul\":11786:11821   */\n  swap1\n  pop\n    /* \"#utility.yul\":11731:11827   */\n  swap2\n  swap1\n  pop\n  jump\t// out\n    /* \"#utility.yul\":11833:11951   */\ntag_98:\n    /* \"#utility.yul\":11920:11944   */\n  tag_243\n    /* \"#utility.yul\":11938:11943   */\n  dup2\n    /* \"#utility.yul\":11920:11944   */\n  tag_97\n  jump\t// in\ntag_243:\n    /* \"#utility.yul\":11915:11918   */\n  dup3\n    /* \"#utility.yul\":11908:11945   */\n  mstore\n    /* \"#utility.yul\":11833:11951   */\n  pop\n  pop\n  jump\t// out\n    /* \"#utility.yul\":11957:12179   */\ntag_27:\n    /* \"#utility.yul\":12050:12054   */\n  0x00\n    /* \"#utility.yul\":12088:12090   */\n  0x20\n    /* \"#utility.yul\":12077:12086   */\n  dup3\n    /* \"#utility.yul\":12073:12091   */\n  add\n    /* \"#utility.yul\":12065:12091   */\n  swap1\n  pop\n    /* \"#utility.yul\":12101:12172   */\n  tag_245\n    /* \"#utility.yul\":12169:12170   */\n  0x00\n    /* \"#utility.yul\":12158:12167   */\n  dup4\n    /* \"#utility.yul\":12154:12171   */\n  add\n    /* \"#utility.yul\":12145:12151   */\n  dup5\n    /* \"#utility.yul\":12101:12172   */\n  tag_98\n  jump\t// in\ntag_245:\n    /* \"#utility.yul\":11957:12179   */\n  swap3\n  swap2\n  pop\n  pop\n  jump\t// out\n    /* \"#utility.yul\":12185:12376   */\ntag_33:\n    /* \"#utility.yul\":12225:12228   */\n  0x00\n    /* \"#utility.yul\":12244:12264   */\n  tag_247\n    /* \"#utility.yul\":12262:12263   */\n  dup3\n    /* \"#utility.yul\":12244:12264   */\n  tag_79\n  jump\t// in\ntag_247:\n    /* \"#utility.yul\":12239:12264   */\n  swap2\n  pop\n    /* \"#utility.yul\":12278:12298   */\n  tag_248\n    /* \"#utility.yul\":12296:12297   */\n  dup4\n    /* \"#utility.yul\":12278:12298   */\n  tag_79\n  jump\t// in\ntag_248:\n    /* \"#utility.yul\":12273:12298   */\n  swap3\n  pop\n    /* \"#utility.yul\":12321:12322   */\n  dup3\n    /* \"#utility.yul\":12318:12319   */\n  dup3\n    /* \"#utility.yul\":12314:12323   */\n  add\n    /* \"#utility.yul\":12307:12323   */\n  swap1\n  pop\n    /* \"#utility.yul\":12342:12345   */\n  dup1\n    /* \"#utility.yul\":12339:12340   */\n  dup3\n    /* \"#utility.yul\":12336:12346   */\n  gt\n    /* \"#utility.yul\":12333:12369   */\n  iszero\n  tag_249\n  jumpi\n    /* \"#utility.yul\":12349:12367   */\n  tag_250\n  tag_91\n  jump\t// in\ntag_250:\n    /* \"#utility.yul\":12333:12369   */\ntag_249:\n    /* \"#utility.yul\":12185:12376   */\n  swap3\n  swap2\n  pop\n  pop\n  jump\t// out\n    /* \"#utility.yul\":12382:12500   */\ntag_99:\n    /* \"#utility.yul\":12469:12493   */\n  tag_252\n    /* \"#utility.yul\":12487:12492   */\n  dup2\n    /* \"#utility.yul\":12469:12493   */\n  tag_79\n  jump\t// in\ntag_252:\n    /* \"#utility.yul\":12464:12467   */\n  dup3\n    /* \"#utility.yul\":12457:12494   */\n  mstore\n    /* \"#utility.yul\":12382:12500   */\n  pop\n  pop\n  jump\t// out\n    /* \"#utility.yul\":12506:12948   */\ntag_37:\n    /* \"#utility.yul\":12655:12659   */\n  0x00\n    /* \"#utility.yul\":12693:12695   */\n  0x60\n    /* \"#utility.yul\":12682:12691   */\n  dup3\n    /* \"#utility.yul\":12678:12696   */\n  add\n    /* \"#utility.yul\":12670:12696   */\n  swap1\n  pop\n    /* \"#utility.yul\":12706:12777   */\n  tag_254\n    /* \"#utility.yul\":12774:12775   */\n  0x00\n    /* \"#utility.yul\":12763:12772   */\n  dup4\n    /* \"#utility.yul\":12759:12776   */\n  add\n    /* \"#utility.yul\":12750:12756   */\n  dup7\n    /* \"#utility.yul\":12706:12777   */\n  tag_98\n  jump\t// in\ntag_254:\n    /* \"#utility.yul\":12787:12859   */\n  tag_255\n    /* \"#utility.yul\":12855:12857   */\n  0x20\n    /* \"#utility.yul\":12844:12853   */\n  dup4\n    /* \"#utility.yul\":12840:12858   */\n  add\n    /* \"#utility.yul\":12831:12837   */\n  dup6\n    /* \"#utility.yul\":12787:12859   */\n  tag_99\n  jump\t// in\ntag_255:\n    /* \"#utility.yul\":12869:12941   */\n  tag_256\n    /* \"#utility.yul\":12937:12939   */\n  0x40\n    /* \"#utility.yul\":12926:12935   */\n  dup4\n    /* \"#utility.yul\":12922:12940   */\n  add\n    /* \"#utility.yul\":12913:12919   */\n  dup5\n    /* \"#utility.yul\":12869:12941   */\n  tag_99\n  jump\t// in\ntag_256:\n    /* \"#utility.yul\":12506:12948   */\n  swap5\n  swap4\n  pop\n  pop\n  pop\n  pop\n  jump\t// out\n    /* \"#utility.yul\":12954:13176   */\ntag_41:\n    /* \"#utility.yul\":13047:13051   */\n  0x00\n    /* \"#utility.yul\":13085:13087   */\n  0x20\n    /* \"#utility.yul\":13074:13083   */\n  dup3\n    /* \"#utility.yul\":13070:13088   */\n  add\n    /* \"#utility.yul\":13062:13088   */\n  swap1\n  pop\n    /* \"#utility.yul\":13098:13169   */\n  tag_258\n    /* \"#utility.yul\":13166:13167   */\n  0x00\n    /* \"#utility.yul\":13155:13164   */\n  dup4\n    /* \"#utility.yul\":13151:13168   */\n  add\n    /* \"#utility.yul\":13142:13148   */\n  dup5\n    /* \"#utility.yul\":13098:13169   */\n  tag_99\n  jump\t// in\ntag_258:\n    /* \"#utility.yul\":12954:13176   */\n  swap3\n  swap2\n  pop\n  pop\n  jump\t// out\n    /* \"contracts/CoinMusme.sol\":120:3378  contract CoinMusme is ERC20 {... */\ntag_22:\n  dataSize(sub_0)\n  dup1\n  dataOffset(sub_0)\n  0x00\n  codecopy\n  0x00\n  return\nstop\ndata_611fcf90768f533ea33192c536b5d2c3db5d6c8c19f817c4a6bbc68d54b0ca17 68747470733a2f2f66312e746f6b656e706f73742e6b722f323032332f30392f396c6f7332676b356e742e706e67\ndata_73a6d2e6e759531154c1a0bb0e95f01a832acc61cefdfa266b8e61f5b6eeac7a 68747470733a2f2f63646e2e6e626e74762e636f2e6b722f6e6577732f70686f746f2f3230323330372f333030313034335f3230313531335f3332312e6a7067\ndata_d13ba52582fcd0f179f13e75f1522d826281a9b824a34210a641df595d98cb69 68747470733a2f2f6e696d6167652e672d656e6577732e636f6d2f7068707761732f726573746d625f616c6c6964786d616b652e7068703f6964783d352673696d673d323032333130313231333131303630323632386335666137356566383632313131383031323536312e6a7067\n\nsub_0: assembly {\n        /* \"contracts/CoinMusme.sol\":120:3378  contract CoinMusme is ERC20 {... */\n      mstore(0x40, 0x80)\n      callvalue\n      dup1\n      iszero\n      tag_1\n      jumpi\n      0x00\n      dup1\n      revert\n    tag_1:\n      pop\n      jumpi(tag_2, lt(calldatasize, 0x04))\n      shr(0xe0, calldataload(0x00))\n      dup1\n      0x545e163e\n      gt\n      tag_18\n      jumpi\n      dup1\n      0x95d89b41\n      gt\n      tag_19\n      jumpi\n      dup1\n      0x95d89b41\n      eq\n      tag_14\n      jumpi\n      dup1\n      0xa9059cbb\n      eq\n      tag_15\n      jumpi\n      dup1\n      0xbfaede13\n      eq\n      tag_16\n      jumpi\n      dup1\n      0xdd62ed3e\n      eq\n      tag_17\n      jumpi\n      jump(tag_2)\n    tag_19:\n      dup1\n      0x545e163e\n      eq\n      tag_10\n      jumpi\n      dup1\n      0x5dfac4e4\n      eq\n      tag_11\n      jumpi\n      dup1\n      0x70a08231\n      eq\n      tag_12\n      jumpi\n      dup1\n      0x9257b591\n      eq\n      tag_13\n      jumpi\n      jump(tag_2)\n    tag_18:\n      dup1\n      0x18160ddd\n      gt\n      tag_20\n      jumpi\n      dup1\n      0x18160ddd\n      eq\n      tag_6\n      jumpi\n      dup1\n      0x23b872dd\n      eq\n      tag_7\n      jumpi\n      dup1\n      0x313ce567\n      eq\n      tag_8\n      jumpi\n      dup1\n      0x365b98b2\n      eq\n      tag_9\n      jumpi\n      jump(tag_2)\n    tag_20:\n      dup1\n      0x03e276af\n      eq\n      tag_3\n      jumpi\n      dup1\n      0x06fdde03\n      eq\n      tag_4\n      jumpi\n      dup1\n      0x095ea7b3\n      eq\n      tag_5\n      jumpi\n    tag_2:\n      0x00\n      dup1\n      revert\n        /* \"contracts/CoinMusme.sol\":1822:1923  function getMusme() public view returns (Musme[] memory) {... */\n    tag_3:\n      tag_21\n      tag_22\n      jump\t// in\n    tag_21:\n      mload(0x40)\n      tag_23\n      swap2\n      swap1\n      tag_24\n      jump\t// in\n    tag_23:\n      mload(0x40)\n      dup1\n      swap2\n      sub\n      swap1\n      return\n        /* \"@openzeppelin/contracts/token/ERC20/ERC20.sol\":2074:2163  function name() public view virtual returns (string memory) {... */\n    tag_4:\n      tag_25\n      tag_26\n      jump\t// in\n    tag_25:\n      mload(0x40)\n      tag_27\n      swap2\n      swap1\n      tag_28\n      jump\t// in\n    tag_27:\n      mload(0x40)\n      dup1\n      swap2\n      sub\n      swap1\n      return\n        /* \"@openzeppelin/contracts/token/ERC20/ERC20.sol\":4293:4479  function approve(address spender, uint256 value) public virtual returns (bool) {... */\n    tag_5:\n      tag_29\n      0x04\n      dup1\n      calldatasize\n      sub\n      dup2\n      add\n      swap1\n      tag_30\n      swap2\n      swap1\n      tag_31\n      jump\t// in\n    tag_30:\n      tag_32\n      jump\t// in\n    tag_29:\n      mload(0x40)\n      tag_33\n      swap2\n      swap1\n      tag_34\n      jump\t// in\n    tag_33:\n      mload(0x40)\n      dup1\n      swap2\n      sub\n      swap1\n      return\n        /* \"@openzeppelin/contracts/token/ERC20/ERC20.sol\":3144:3241  function totalSupply() public view virtual returns (uint256) {... */\n    tag_6:\n      tag_35\n      tag_36\n      jump\t// in\n    tag_35:\n      mload(0x40)\n      tag_37\n      swap2\n      swap1\n      tag_38\n      jump\t// in\n    tag_37:\n      mload(0x40)\n      dup1\n      swap2\n      sub\n      swap1\n      return\n        /* \"@openzeppelin/contracts/token/ERC20/ERC20.sol\":5039:5283  function transferFrom(address from, address to, uint256 value) public virtual returns (bool) {... */\n    tag_7:\n      tag_39\n      0x04\n      dup1\n      calldatasize\n      sub\n      dup2\n      add\n      swap1\n      tag_40\n      swap2\n      swap1\n      tag_41\n      jump\t// in\n    tag_40:\n      tag_42\n      jump\t// in\n    tag_39:\n      mload(0x40)\n      tag_43\n      swap2\n      swap1\n      tag_34\n      jump\t// in\n    tag_43:\n      mload(0x40)\n      dup1\n      swap2\n      sub\n      swap1\n      return\n        /* \"@openzeppelin/contracts/token/ERC20/ERC20.sol\":3002:3084  function decimals() public view virtual returns (uint8) {... */\n    tag_8:\n      tag_44\n      tag_45\n      jump\t// in\n    tag_44:\n      mload(0x40)\n      tag_46\n      swap2\n      swap1\n      tag_47\n      jump\t// in\n    tag_46:\n      mload(0x40)\n      dup1\n      swap2\n      sub\n      swap1\n      return\n        /* \"contracts/CoinMusme.sol\":1672:1691  User[] public users */\n    tag_9:\n      tag_48\n      0x04\n      dup1\n      calldatasize\n      sub\n      dup2\n      add\n      swap1\n      tag_49\n      swap2\n      swap1\n      tag_50\n      jump\t// in\n    tag_49:\n      tag_51\n      jump\t// in\n    tag_48:\n      mload(0x40)\n      tag_52\n      swap2\n      swap1\n      tag_53\n      jump\t// in\n    tag_52:\n      mload(0x40)\n      dup1\n      swap2\n      sub\n      swap1\n      return\n        /* \"contracts/CoinMusme.sol\":1303:1344  mapping(address => Musme[]) public musmes */\n    tag_10:\n      tag_54\n      0x04\n      dup1\n      calldatasize\n      sub\n      dup2\n      add\n      swap1\n      tag_55\n      swap2\n      swap1\n      tag_31\n      jump\t// in\n    tag_55:\n      tag_56\n      jump\t// in\n    tag_54:\n      mload(0x40)\n      tag_57\n      swap3\n      swap2\n      swap1\n      tag_58\n      jump\t// in\n    tag_57:\n      mload(0x40)\n      dup1\n      swap2\n      sub\n      swap1\n      return\n        /* \"contracts/CoinMusme.sol\":1983:2074  function getMusmeUser() public view returns (User[] memory) {... */\n    tag_11:\n      tag_59\n      tag_60\n      jump\t// in\n    tag_59:\n      mload(0x40)\n      tag_61\n      swap2\n      swap1\n      tag_62\n      jump\t// in\n    tag_61:\n      mload(0x40)\n      dup1\n      swap2\n      sub\n      swap1\n      return\n        /* \"@openzeppelin/contracts/token/ERC20/ERC20.sol\":3299:3415  function balanceOf(address account) public view virtual returns (uint256) {... */\n    tag_12:\n      tag_63\n      0x04\n      dup1\n      calldatasize\n      sub\n      dup2\n      add\n      swap1\n      tag_64\n      swap2\n      swap1\n      tag_65\n      jump\t// in\n    tag_64:\n      tag_66\n      jump\t// in\n    tag_63:\n      mload(0x40)\n      tag_67\n      swap2\n      swap1\n      tag_38\n      jump\t// in\n    tag_67:\n      mload(0x40)\n      dup1\n      swap2\n      sub\n      swap1\n      return\n        /* \"@openzeppelin/contracts/token/ERC20/ERC20.sol\":7939:8041  function _mints(address _address) public {... */\n    tag_13:\n      tag_68\n      0x04\n      dup1\n      calldatasize\n      sub\n      dup2\n      add\n      swap1\n      tag_69\n      swap2\n      swap1\n      tag_65\n      jump\t// in\n    tag_69:\n      tag_70\n      jump\t// in\n    tag_68:\n      stop\n        /* \"@openzeppelin/contracts/token/ERC20/ERC20.sol\":2276:2369  function symbol() public view virtual returns (string memory) {... */\n    tag_14:\n      tag_71\n      tag_72\n      jump\t// in\n    tag_71:\n      mload(0x40)\n      tag_73\n      swap2\n      swap1\n      tag_28\n      jump\t// in\n    tag_73:\n      mload(0x40)\n      dup1\n      swap2\n      sub\n      swap1\n      return\n        /* \"@openzeppelin/contracts/token/ERC20/ERC20.sol\":3610:3788  function transfer(address to, uint256 value) public virtual returns (bool) {... */\n    tag_15:\n      tag_74\n      0x04\n      dup1\n      calldatasize\n      sub\n      dup2\n      add\n      swap1\n      tag_75\n      swap2\n      swap1\n      tag_31\n      jump\t// in\n    tag_75:\n      tag_76\n      jump\t// in\n    tag_74:\n      mload(0x40)\n      tag_77\n      swap2\n      swap1\n      tag_34\n      jump\t// in\n    tag_77:\n      mload(0x40)\n      dup1\n      swap2\n      sub\n      swap1\n      return\n        /* \"contracts/CoinMusme.sol\":2107:3375  function buyMusme() public {... */\n    tag_16:\n      tag_78\n      tag_79\n      jump\t// in\n    tag_78:\n      stop\n        /* \"@openzeppelin/contracts/token/ERC20/ERC20.sol\":3846:3986  function allowance(address owner, address spender) public view virtual returns (uint256) {... */\n    tag_17:\n      tag_80\n      0x04\n      dup1\n      calldatasize\n      sub\n      dup2\n      add\n      swap1\n      tag_81\n      swap2\n      swap1\n      tag_82\n      jump\t// in\n    tag_81:\n      tag_83\n      jump\t// in\n    tag_80:\n      mload(0x40)\n      tag_84\n      swap2\n      swap1\n      tag_38\n      jump\t// in\n    tag_84:\n      mload(0x40)\n      dup1\n      swap2\n      sub\n      swap1\n      return\n        /* \"contracts/CoinMusme.sol\":1822:1923  function getMusme() public view returns (Musme[] memory) {... */\n    tag_22:\n        /* \"contracts/CoinMusme.sol\":1863:1877  Musme[] memory */\n      0x60\n        /* \"contracts/CoinMusme.sol\":1897:1903  musmes */\n      0x08\n        /* \"contracts/CoinMusme.sol\":1897:1915  musmes[msg.sender] */\n      0x00\n        /* \"contracts/CoinMusme.sol\":1904:1914  msg.sender */\n      caller\n        /* \"contracts/CoinMusme.sol\":1897:1915  musmes[msg.sender] */\n      0xffffffffffffffffffffffffffffffffffffffff\n      and\n      0xffffffffffffffffffffffffffffffffffffffff\n      and\n      dup2\n      mstore\n      0x20\n      add\n      swap1\n      dup2\n      mstore\n      0x20\n      add\n      0x00\n      keccak256\n        /* \"contracts/CoinMusme.sol\":1890:1915  return musmes[msg.sender] */\n      dup1\n      sload\n      dup1\n      0x20\n      mul\n      0x20\n      add\n      mload(0x40)\n      swap1\n      dup2\n      add\n      0x40\n      mstore\n      dup1\n      swap3\n      swap2\n      swap1\n      dup2\n      dup2\n      mstore\n      0x20\n      add\n      0x00\n      swap1\n    tag_86:\n      dup3\n      dup3\n      lt\n      iszero\n      tag_87\n      jumpi\n      dup4\n      dup3\n      swap1\n      0x00\n      mstore\n      keccak256(0x00, 0x20)\n      swap1\n      0x02\n      mul\n      add\n      mload(0x40)\n      dup1\n      0x40\n      add\n      0x40\n      mstore\n      swap1\n      dup2\n      0x00\n      dup3\n      add\n      dup1\n      sload\n      tag_89\n      swap1\n      tag_90\n      jump\t// in\n    tag_89:\n      dup1\n      0x1f\n      add\n      0x20\n      dup1\n      swap2\n      div\n      mul\n      0x20\n      add\n      mload(0x40)\n      swap1\n      dup2\n      add\n      0x40\n      mstore\n      dup1\n      swap3\n      swap2\n      swap1\n      dup2\n      dup2\n      mstore\n      0x20\n      add\n      dup3\n      dup1\n      sload\n      tag_91\n      swap1\n      tag_90\n      jump\t// in\n    tag_91:\n      dup1\n      iszero\n      tag_92\n      jumpi\n      dup1\n      0x1f\n      lt\n      tag_93\n      jumpi\n      0x0100\n      dup1\n      dup4\n      sload\n      div\n      mul\n      dup4\n      mstore\n      swap2\n      0x20\n      add\n      swap2\n      jump(tag_92)\n    tag_93:\n      dup3\n      add\n      swap2\n      swap1\n      0x00\n      mstore\n      keccak256(0x00, 0x20)\n      swap1\n    tag_94:\n      dup2\n      sload\n      dup2\n      mstore\n      swap1\n      0x01\n      add\n      swap1\n      0x20\n      add\n      dup1\n      dup4\n      gt\n      tag_94\n      jumpi\n      dup3\n      swap1\n      sub\n      0x1f\n      and\n      dup3\n      add\n      swap2\n    tag_92:\n      pop\n      pop\n      pop\n      pop\n      pop\n      dup2\n      mstore\n      0x20\n      add\n      0x01\n      dup3\n      add\n      dup1\n      sload\n      tag_95\n      swap1\n      tag_90\n      jump\t// in\n    tag_95:\n      dup1\n      0x1f\n      add\n      0x20\n      dup1\n      swap2\n      div\n      mul\n      0x20\n      add\n      mload(0x40)\n      swap1\n      dup2\n      add\n      0x40\n      mstore\n      dup1\n      swap3\n      swap2\n      swap1\n      dup2\n      dup2\n      mstore\n      0x20\n      add\n      dup3\n      dup1\n      sload\n      tag_96\n      swap1\n      tag_90\n      jump\t// in\n    tag_96:\n      dup1\n      iszero\n      tag_97\n      jumpi\n      dup1\n      0x1f\n      lt\n      tag_98\n      jumpi\n      0x0100\n      dup1\n      dup4\n      sload\n      div\n      mul\n      dup4\n      mstore\n      swap2\n      0x20\n      add\n      swap2\n      jump(tag_97)\n    tag_98:\n      dup3\n      add\n      swap2\n      swap1\n      0x00\n      mstore\n      keccak256(0x00, 0x20)\n      swap1\n    tag_99:\n      dup2\n      sload\n      dup2\n      mstore\n      swap1\n      0x01\n      add\n      swap1\n      0x20\n      add\n      dup1\n      dup4\n      gt\n      tag_99\n      jumpi\n      dup3\n      swap1\n      sub\n      0x1f\n      and\n      dup3\n      add\n      swap2\n    tag_97:\n      pop\n      pop\n      pop\n      pop\n      pop\n      dup2\n      mstore\n      pop\n      pop\n      dup2\n      mstore\n      0x20\n      add\n      swap1\n      0x01\n      add\n      swap1\n      jump(tag_86)\n    tag_87:\n      pop\n      pop\n      pop\n      pop\n      swap1\n      pop\n        /* \"contracts/CoinMusme.sol\":1822:1923  function getMusme() public view returns (Musme[] memory) {... */\n      swap1\n      jump\t// out\n        /* \"@openzeppelin/contracts/token/ERC20/ERC20.sol\":2074:2163  function name() public view virtual returns (string memory) {... */\n    tag_26:\n        /* \"@openzeppelin/contracts/token/ERC20/ERC20.sol\":2119:2132  string memory */\n      0x60\n        /* \"@openzeppelin/contracts/token/ERC20/ERC20.sol\":2151:2156  _name */\n      0x03\n        /* \"@openzeppelin/contracts/token/ERC20/ERC20.sol\":2144:2156  return _name */\n      dup1\n      sload\n      tag_101\n      swap1\n      tag_90\n      jump\t// in\n    tag_101:\n      dup1\n      0x1f\n      add\n      0x20\n      dup1\n      swap2\n      div\n      mul\n      0x20\n      add\n      mload(0x40)\n      swap1\n      dup2\n      add\n      0x40\n      mstore\n      dup1\n      swap3\n      swap2\n      swap1\n      dup2\n      dup2\n      mstore\n      0x20\n      add\n      dup3\n      dup1\n      sload\n      tag_102\n      swap1\n      tag_90\n      jump\t// in\n    tag_102:\n      dup1\n      iszero\n      tag_103\n      jumpi\n      dup1\n      0x1f\n      lt\n      tag_104\n      jumpi\n      0x0100\n      dup1\n      dup4\n      sload\n      div\n      mul\n      dup4\n      mstore\n      swap2\n      0x20\n      add\n      swap2\n      jump(tag_103)\n    tag_104:\n      dup3\n      add\n      swap2\n      swap1\n      0x00\n      mstore\n      keccak256(0x00, 0x20)\n      swap1\n    tag_105:\n      dup2\n      sload\n      dup2\n      mstore\n      swap1\n      0x01\n      add\n      swap1\n      0x20\n      add\n      dup1\n      dup4\n      gt\n      tag_105\n      jumpi\n      dup3\n      swap1\n      sub\n      0x1f\n      and\n      dup3\n      add\n      swap2\n    tag_103:\n      pop\n      pop\n      pop\n      pop\n      pop\n      swap1\n      pop\n        /* \"@openzeppelin/contracts/token/ERC20/ERC20.sol\":2074:2163  function name() public view virtual returns (string memory) {... */\n      swap1\n      jump\t// out\n        /* \"@openzeppelin/contracts/token/ERC20/ERC20.sol\":4293:4479  function approve(address spender, uint256 value) public virtual returns (bool) {... */\n    tag_32:\n        /* \"@openzeppelin/contracts/token/ERC20/ERC20.sol\":4366:4370  bool */\n      0x00\n        /* \"@openzeppelin/contracts/token/ERC20/ERC20.sol\":4382:4395  address owner */\n      dup1\n        /* \"@openzeppelin/contracts/token/ERC20/ERC20.sol\":4398:4410  _msgSender() */\n      tag_107\n        /* \"@openzeppelin/contracts/token/ERC20/ERC20.sol\":4398:4408  _msgSender */\n      tag_108\n        /* \"@openzeppelin/contracts/token/ERC20/ERC20.sol\":4398:4410  _msgSender() */\n      jump\t// in\n    tag_107:\n        /* \"@openzeppelin/contracts/token/ERC20/ERC20.sol\":4382:4410  address owner = _msgSender() */\n      swap1\n      pop\n        /* \"@openzeppelin/contracts/token/ERC20/ERC20.sol\":4420:4451  _approve(owner, spender, value) */\n      tag_109\n        /* \"@openzeppelin/contracts/token/ERC20/ERC20.sol\":4429:4434  owner */\n      dup2\n        /* \"@openzeppelin/contracts/token/ERC20/ERC20.sol\":4436:4443  spender */\n      dup6\n        /* \"@openzeppelin/contracts/token/ERC20/ERC20.sol\":4445:4450  value */\n      dup6\n        /* \"@openzeppelin/contracts/token/ERC20/ERC20.sol\":4420:4428  _approve */\n      tag_110\n        /* \"@openzeppelin/contracts/token/ERC20/ERC20.sol\":4420:4451  _approve(owner, spender, value) */\n      jump\t// in\n    tag_109:\n        /* \"@openzeppelin/contracts/token/ERC20/ERC20.sol\":4468:4472  true */\n      0x01\n        /* \"@openzeppelin/contracts/token/ERC20/ERC20.sol\":4461:4472  return true */\n      swap2\n      pop\n      pop\n        /* \"@openzeppelin/contracts/token/ERC20/ERC20.sol\":4293:4479  function approve(address spender, uint256 value) public virtual returns (bool) {... */\n      swap3\n      swap2\n      pop\n      pop\n      jump\t// out\n        /* \"@openzeppelin/contracts/token/ERC20/ERC20.sol\":3144:3241  function totalSupply() public view virtual returns (uint256) {... */\n    tag_36:\n        /* \"@openzeppelin/contracts/token/ERC20/ERC20.sol\":3196:3203  uint256 */\n      0x00\n        /* \"@openzeppelin/contracts/token/ERC20/ERC20.sol\":3222:3234  _totalSupply */\n      sload(0x02)\n        /* \"@openzeppelin/contracts/token/ERC20/ERC20.sol\":3215:3234  return _totalSupply */\n      swap1\n      pop\n        /* \"@openzeppelin/contracts/token/ERC20/ERC20.sol\":3144:3241  function totalSupply() public view virtual returns (uint256) {... */\n      swap1\n      jump\t// out\n        /* \"@openzeppelin/contracts/token/ERC20/ERC20.sol\":5039:5283  function transferFrom(address from, address to, uint256 value) public virtual returns (bool) {... */\n    tag_42:\n        /* \"@openzeppelin/contracts/token/ERC20/ERC20.sol\":5126:5130  bool */\n      0x00\n        /* \"@openzeppelin/contracts/token/ERC20/ERC20.sol\":5142:5157  address spender */\n      dup1\n        /* \"@openzeppelin/contracts/token/ERC20/ERC20.sol\":5160:5172  _msgSender() */\n      tag_113\n        /* \"@openzeppelin/contracts/token/ERC20/ERC20.sol\":5160:5170  _msgSender */\n      tag_108\n        /* \"@openzeppelin/contracts/token/ERC20/ERC20.sol\":5160:5172  _msgSender() */\n      jump\t// in\n    tag_113:\n        /* \"@openzeppelin/contracts/token/ERC20/ERC20.sol\":5142:5172  address spender = _msgSender() */\n      swap1\n      pop\n        /* \"@openzeppelin/contracts/token/ERC20/ERC20.sol\":5182:5219  _spendAllowance(from, spender, value) */\n      tag_114\n        /* \"@openzeppelin/contracts/token/ERC20/ERC20.sol\":5198:5202  from */\n      dup6\n        /* \"@openzeppelin/contracts/token/ERC20/ERC20.sol\":5204:5211  spender */\n      dup3\n        /* \"@openzeppelin/contracts/token/ERC20/ERC20.sol\":5213:5218  value */\n      dup6\n        /* \"@openzeppelin/contracts/token/ERC20/ERC20.sol\":5182:5197  _spendAllowance */\n      tag_115\n        /* \"@openzeppelin/contracts/token/ERC20/ERC20.sol\":5182:5219  _spendAllowance(from, spender, value) */\n      jump\t// in\n    tag_114:\n        /* \"@openzeppelin/contracts/token/ERC20/ERC20.sol\":5229:5255  _transfer(from, to, value) */\n      tag_116\n        /* \"@openzeppelin/contracts/token/ERC20/ERC20.sol\":5239:5243  from */\n      dup6\n        /* \"@openzeppelin/contracts/token/ERC20/ERC20.sol\":5245:5247  to */\n      dup6\n        /* \"@openzeppelin/contracts/token/ERC20/ERC20.sol\":5249:5254  value */\n      dup6\n        /* \"@openzeppelin/contracts/token/ERC20/ERC20.sol\":5229:5238  _transfer */\n      tag_117\n        /* \"@openzeppelin/contracts/token/ERC20/ERC20.sol\":5229:5255  _transfer(from, to, value) */\n      jump\t// in\n    tag_116:\n        /* \"@openzeppelin/contracts/token/ERC20/ERC20.sol\":5272:5276  true */\n      0x01\n        /* \"@openzeppelin/contracts/token/ERC20/ERC20.sol\":5265:5276  return true */\n      swap2\n      pop\n      pop\n        /* \"@openzeppelin/contracts/token/ERC20/ERC20.sol\":5039:5283  function transferFrom(address from, address to, uint256 value) public virtual returns (bool) {... */\n      swap4\n      swap3\n      pop\n      pop\n      pop\n      jump\t// out\n        /* \"@openzeppelin/contracts/token/ERC20/ERC20.sol\":3002:3084  function decimals() public view virtual returns (uint8) {... */\n    tag_45:\n        /* \"@openzeppelin/contracts/token/ERC20/ERC20.sol\":3051:3056  uint8 */\n      0x00\n        /* \"@openzeppelin/contracts/token/ERC20/ERC20.sol\":3075:3077  18 */\n      0x12\n        /* \"@openzeppelin/contracts/token/ERC20/ERC20.sol\":3068:3077  return 18 */\n      swap1\n      pop\n        /* \"@openzeppelin/contracts/token/ERC20/ERC20.sol\":3002:3084  function decimals() public view virtual returns (uint8) {... */\n      swap1\n      jump\t// out\n        /* \"contracts/CoinMusme.sol\":1672:1691  User[] public users */\n    tag_51:\n      0x09\n      dup2\n      dup2\n      sload\n      dup2\n      lt\n      tag_119\n      jumpi\n      0x00\n      dup1\n      revert\n    tag_119:\n      swap1\n      0x00\n      mstore\n      keccak256(0x00, 0x20)\n      add\n      0x00\n      swap2\n      pop\n      swap1\n      pop\n      dup1\n      0x00\n      add\n      0x00\n      swap1\n      sload\n      swap1\n      0x0100\n      exp\n      swap1\n      div\n      0xffffffffffffffffffffffffffffffffffffffff\n      and\n      swap1\n      pop\n      dup2\n      jump\t// out\n        /* \"contracts/CoinMusme.sol\":1303:1344  mapping(address => Musme[]) public musmes */\n    tag_56:\n      mstore(0x20, 0x08)\n      dup2\n      0x00\n      mstore\n      keccak256(0x00, 0x40)\n      dup2\n      dup2\n      sload\n      dup2\n      lt\n      tag_121\n      jumpi\n      0x00\n      dup1\n      revert\n    tag_121:\n      swap1\n      0x00\n      mstore\n      keccak256(0x00, 0x20)\n      swap1\n      0x02\n      mul\n      add\n      0x00\n      swap2\n      pop\n      swap2\n      pop\n      pop\n      dup1\n      0x00\n      add\n      dup1\n      sload\n      tag_123\n      swap1\n      tag_90\n      jump\t// in\n    tag_123:\n      dup1\n      0x1f\n      add\n      0x20\n      dup1\n      swap2\n      div\n      mul\n      0x20\n      add\n      mload(0x40)\n      swap1\n      dup2\n      add\n      0x40\n      mstore\n      dup1\n      swap3\n      swap2\n      swap1\n      dup2\n      dup2\n      mstore\n      0x20\n      add\n      dup3\n      dup1\n      sload\n      tag_124\n      swap1\n      tag_90\n      jump\t// in\n    tag_124:\n      dup1\n      iszero\n      tag_125\n      jumpi\n      dup1\n      0x1f\n      lt\n      tag_126\n      jumpi\n      0x0100\n      dup1\n      dup4\n      sload\n      div\n      mul\n      dup4\n      mstore\n      swap2\n      0x20\n      add\n      swap2\n      jump(tag_125)\n    tag_126:\n      dup3\n      add\n      swap2\n      swap1\n      0x00\n      mstore\n      keccak256(0x00, 0x20)\n      swap1\n    tag_127:\n      dup2\n      sload\n      dup2\n      mstore\n      swap1\n      0x01\n      add\n      swap1\n      0x20\n      add\n      dup1\n      dup4\n      gt\n      tag_127\n      jumpi\n      dup3\n      swap1\n      sub\n      0x1f\n      and\n      dup3\n      add\n      swap2\n    tag_125:\n      pop\n      pop\n      pop\n      pop\n      pop\n      swap1\n      dup1\n      0x01\n      add\n      dup1\n      sload\n      tag_128\n      swap1\n      tag_90\n      jump\t// in\n    tag_128:\n      dup1\n      0x1f\n      add\n      0x20\n      dup1\n      swap2\n      div\n      mul\n      0x20\n      add\n      mload(0x40)\n      swap1\n      dup2\n      add\n      0x40\n      mstore\n      dup1\n      swap3\n      swap2\n      swap1\n      dup2\n      dup2\n      mstore\n      0x20\n      add\n      dup3\n      dup1\n      sload\n      tag_129\n      swap1\n      tag_90\n      jump\t// in\n    tag_129:\n      dup1\n      iszero\n      tag_130\n      jumpi\n      dup1\n      0x1f\n      lt\n      tag_131\n      jumpi\n      0x0100\n      dup1\n      dup4\n      sload\n      div\n      mul\n      dup4\n      mstore\n      swap2\n      0x20\n      add\n      swap2\n      jump(tag_130)\n    tag_131:\n      dup3\n      add\n      swap2\n      swap1\n      0x00\n      mstore\n      keccak256(0x00, 0x20)\n      swap1\n    tag_132:\n      dup2\n      sload\n      dup2\n      mstore\n      swap1\n      0x01\n      add\n      swap1\n      0x20\n      add\n      dup1\n      dup4\n      gt\n      tag_132\n      jumpi\n      dup3\n      swap1\n      sub\n      0x1f\n      and\n      dup3\n      add\n      swap2\n    tag_130:\n      pop\n      pop\n      pop\n      pop\n      pop\n      swap1\n      pop\n      dup3\n      jump\t// out\n        /* \"contracts/CoinMusme.sol\":1983:2074  function getMusmeUser() public view returns (User[] memory) {... */\n    tag_60:\n        /* \"contracts/CoinMusme.sol\":2028:2041  User[] memory */\n      0x60\n        /* \"contracts/CoinMusme.sol\":2061:2066  users */\n      0x09\n        /* \"contracts/CoinMusme.sol\":2054:2066  return users */\n      dup1\n      sload\n      dup1\n      0x20\n      mul\n      0x20\n      add\n      mload(0x40)\n      swap1\n      dup2\n      add\n      0x40\n      mstore\n      dup1\n      swap3\n      swap2\n      swap1\n      dup2\n      dup2\n      mstore\n      0x20\n      add\n      0x00\n      swap1\n    tag_134:\n      dup3\n      dup3\n      lt\n      iszero\n      tag_135\n      jumpi\n      dup4\n      dup3\n      swap1\n      0x00\n      mstore\n      keccak256(0x00, 0x20)\n      add\n      mload(0x40)\n      dup1\n      0x20\n      add\n      0x40\n      mstore\n      swap1\n      dup2\n      0x00\n      dup3\n      add\n      0x00\n      swap1\n      sload\n      swap1\n      0x0100\n      exp\n      swap1\n      div\n      0xffffffffffffffffffffffffffffffffffffffff\n      and\n      0xffffffffffffffffffffffffffffffffffffffff\n      and\n      0xffffffffffffffffffffffffffffffffffffffff\n      and\n      dup2\n      mstore\n      pop\n      pop\n      dup2\n      mstore\n      0x20\n      add\n      swap1\n      0x01\n      add\n      swap1\n      jump(tag_134)\n    tag_135:\n      pop\n      pop\n      pop\n      pop\n      swap1\n      pop\n        /* \"contracts/CoinMusme.sol\":1983:2074  function getMusmeUser() public view returns (User[] memory) {... */\n      swap1\n      jump\t// out\n        /* \"@openzeppelin/contracts/token/ERC20/ERC20.sol\":3299:3415  function balanceOf(address account) public view virtual returns (uint256) {... */\n    tag_66:\n        /* \"@openzeppelin/contracts/token/ERC20/ERC20.sol\":3364:3371  uint256 */\n      0x00\n        /* \"@openzeppelin/contracts/token/ERC20/ERC20.sol\":3390:3399  _balances */\n      dup1\n        /* \"@openzeppelin/contracts/token/ERC20/ERC20.sol\":3390:3408  _balances[account] */\n      0x00\n        /* \"@openzeppelin/contracts/token/ERC20/ERC20.sol\":3400:3407  account */\n      dup4\n        /* \"@openzeppelin/contracts/token/ERC20/ERC20.sol\":3390:3408  _balances[account] */\n      0xffffffffffffffffffffffffffffffffffffffff\n      and\n      0xffffffffffffffffffffffffffffffffffffffff\n      and\n      dup2\n      mstore\n      0x20\n      add\n      swap1\n      dup2\n      mstore\n      0x20\n      add\n      0x00\n      keccak256\n      sload\n        /* \"@openzeppelin/contracts/token/ERC20/ERC20.sol\":3383:3408  return _balances[account] */\n      swap1\n      pop\n        /* \"@openzeppelin/contracts/token/ERC20/ERC20.sol\":3299:3415  function balanceOf(address account) public view virtual returns (uint256) {... */\n      swap2\n      swap1\n      pop\n      jump\t// out\n        /* \"@openzeppelin/contracts/token/ERC20/ERC20.sol\":7939:8041  function _mints(address _address) public {... */\n    tag_70:\n        /* \"@openzeppelin/contracts/token/ERC20/ERC20.sol\":7990:8034  _mint(_address, 100000 * (10 ** decimals())) */\n      tag_139\n        /* \"@openzeppelin/contracts/token/ERC20/ERC20.sol\":7996:8004  _address */\n      dup2\n        /* \"@openzeppelin/contracts/token/ERC20/ERC20.sol\":8022:8032  decimals() */\n      tag_140\n        /* \"@openzeppelin/contracts/token/ERC20/ERC20.sol\":8022:8030  decimals */\n      tag_45\n        /* \"@openzeppelin/contracts/token/ERC20/ERC20.sol\":8022:8032  decimals() */\n      jump\t// in\n    tag_140:\n        /* \"@openzeppelin/contracts/token/ERC20/ERC20.sol\":8016:8018  10 */\n      0x0a\n        /* \"@openzeppelin/contracts/token/ERC20/ERC20.sol\":8016:8032  10 ** decimals() */\n      tag_141\n      swap2\n      swap1\n      tag_142\n      jump\t// in\n    tag_141:\n        /* \"@openzeppelin/contracts/token/ERC20/ERC20.sol\":8006:8012  100000 */\n      0x0186a0\n        /* \"@openzeppelin/contracts/token/ERC20/ERC20.sol\":8006:8033  100000 * (10 ** decimals()) */\n      tag_143\n      swap2\n      swap1\n      tag_144\n      jump\t// in\n    tag_143:\n        /* \"@openzeppelin/contracts/token/ERC20/ERC20.sol\":7990:7995  _mint */\n      tag_145\n        /* \"@openzeppelin/contracts/token/ERC20/ERC20.sol\":7990:8034  _mint(_address, 100000 * (10 ** decimals())) */\n      jump\t// in\n    tag_139:\n        /* \"@openzeppelin/contracts/token/ERC20/ERC20.sol\":7939:8041  function _mints(address _address) public {... */\n      pop\n      jump\t// out\n        /* \"@openzeppelin/contracts/token/ERC20/ERC20.sol\":2276:2369  function symbol() public view virtual returns (string memory) {... */\n    tag_72:\n        /* \"@openzeppelin/contracts/token/ERC20/ERC20.sol\":2323:2336  string memory */\n      0x60\n        /* \"@openzeppelin/contracts/token/ERC20/ERC20.sol\":2355:2362  _symbol */\n      0x04\n        /* \"@openzeppelin/contracts/token/ERC20/ERC20.sol\":2348:2362  return _symbol */\n      dup1\n      sload\n      tag_147\n      swap1\n      tag_90\n      jump\t// in\n    tag_147:\n      dup1\n      0x1f\n      add\n      0x20\n      dup1\n      swap2\n      div\n      mul\n      0x20\n      add\n      mload(0x40)\n      swap1\n      dup2\n      add\n      0x40\n      mstore\n      dup1\n      swap3\n      swap2\n      swap1\n      dup2\n      dup2\n      mstore\n      0x20\n      add\n      dup3\n      dup1\n      sload\n      tag_148\n      swap1\n      tag_90\n      jump\t// in\n    tag_148:\n      dup1\n      iszero\n      tag_149\n      jumpi\n      dup1\n      0x1f\n      lt\n      tag_150\n      jumpi\n      0x0100\n      dup1\n      dup4\n      sload\n      div\n      mul\n      dup4\n      mstore\n      swap2\n      0x20\n      add\n      swap2\n      jump(tag_149)\n    tag_150:\n      dup3\n      add\n      swap2\n      swap1\n      0x00\n      mstore\n      keccak256(0x00, 0x20)\n      swap1\n    tag_151:\n      dup2\n      sload\n      dup2\n      mstore\n      swap1\n      0x01\n      add\n      swap1\n      0x20\n      add\n      dup1\n      dup4\n      gt\n      tag_151\n      jumpi\n      dup3\n      swap1\n      sub\n      0x1f\n      and\n      dup3\n      add\n      swap2\n    tag_149:\n      pop\n      pop\n      pop\n      pop\n      pop\n      swap1\n      pop\n        /* \"@openzeppelin/contracts/token/ERC20/ERC20.sol\":2276:2369  function symbol() public view virtual returns (string memory) {... */\n      swap1\n      jump\t// out\n        /* \"@openzeppelin/contracts/token/ERC20/ERC20.sol\":3610:3788  function transfer(address to, uint256 value) public virtual returns (bool) {... */\n    tag_76:\n        /* \"@openzeppelin/contracts/token/ERC20/ERC20.sol\":3679:3683  bool */\n      0x00\n        /* \"@openzeppelin/contracts/token/ERC20/ERC20.sol\":3695:3708  address owner */\n      dup1\n        /* \"@openzeppelin/contracts/token/ERC20/ERC20.sol\":3711:3723  _msgSender() */\n      tag_153\n        /* \"@openzeppelin/contracts/token/ERC20/ERC20.sol\":3711:3721  _msgSender */\n      tag_108\n        /* \"@openzeppelin/contracts/token/ERC20/ERC20.sol\":3711:3723  _msgSender() */\n      jump\t// in\n    tag_153:\n        /* \"@openzeppelin/contracts/token/ERC20/ERC20.sol\":3695:3723  address owner = _msgSender() */\n      swap1\n      pop\n        /* \"@openzeppelin/contracts/token/ERC20/ERC20.sol\":3733:3760  _transfer(owner, to, value) */\n      tag_154\n        /* \"@openzeppelin/contracts/token/ERC20/ERC20.sol\":3743:3748  owner */\n      dup2\n        /* \"@openzeppelin/contracts/token/ERC20/ERC20.sol\":3750:3752  to */\n      dup6\n        /* \"@openzeppelin/contracts/token/ERC20/ERC20.sol\":3754:3759  value */\n      dup6\n        /* \"@openzeppelin/contracts/token/ERC20/ERC20.sol\":3733:3742  _transfer */\n      tag_117\n        /* \"@openzeppelin/contracts/token/ERC20/ERC20.sol\":3733:3760  _transfer(owner, to, value) */\n      jump\t// in\n    tag_154:\n        /* \"@openzeppelin/contracts/token/ERC20/ERC20.sol\":3777:3781  true */\n      0x01\n        /* \"@openzeppelin/contracts/token/ERC20/ERC20.sol\":3770:3781  return true */\n      swap2\n      pop\n      pop\n        /* \"@openzeppelin/contracts/token/ERC20/ERC20.sol\":3610:3788  function transfer(address to, uint256 value) public virtual returns (bool) {... */\n      swap3\n      swap2\n      pop\n      pop\n      jump\t// out\n        /* \"contracts/CoinMusme.sol\":2107:3375  function buyMusme() public {... */\n    tag_79:\n        /* \"contracts/CoinMusme.sol\":2399:2409  tokenPrice */\n      sload(0x05)\n        /* \"contracts/CoinMusme.sol\":2374:2395  balanceOf(msg.sender) */\n      tag_156\n        /* \"contracts/CoinMusme.sol\":2384:2394  msg.sender */\n      caller\n        /* \"contracts/CoinMusme.sol\":2374:2383  balanceOf */\n      tag_66\n        /* \"contracts/CoinMusme.sol\":2374:2395  balanceOf(msg.sender) */\n      jump\t// in\n    tag_156:\n        /* \"contracts/CoinMusme.sol\":2374:2409  balanceOf(msg.sender) >= tokenPrice */\n      lt\n      iszero\n        /* \"contracts/CoinMusme.sol\":2366:2410  require(balanceOf(msg.sender) >= tokenPrice) */\n      tag_157\n      jumpi\n      0x00\n      dup1\n      revert\n    tag_157:\n        /* \"contracts/CoinMusme.sol\":2421:2464  _update(msg.sender, address(0), tokenPrice) */\n      tag_158\n        /* \"contracts/CoinMusme.sol\":2429:2439  msg.sender */\n      caller\n        /* \"contracts/CoinMusme.sol\":2449:2450  0 */\n      0x00\n        /* \"contracts/CoinMusme.sol\":2453:2463  tokenPrice */\n      sload(0x05)\n        /* \"contracts/CoinMusme.sol\":2421:2428  _update */\n      tag_159\n        /* \"contracts/CoinMusme.sol\":2421:2464  _update(msg.sender, address(0), tokenPrice) */\n      jump\t// in\n    tag_158:\n        /* \"contracts/CoinMusme.sol\":2545:2556  uint random */\n      0x00\n        /* \"contracts/CoinMusme.sol\":2623:2638  block.timestamp */\n      timestamp\n        /* \"contracts/CoinMusme.sol\":2640:2654  block.coinbase */\n      coinbase\n        /* \"contracts/CoinMusme.sol\":2656:2668  block.number */\n      number\n        /* \"contracts/CoinMusme.sol\":2606:2669  abi.encodePacked(block.timestamp, block.coinbase, block.number) */\n      add(0x20, mload(0x40))\n      tag_160\n      swap4\n      swap3\n      swap2\n      swap1\n      tag_161\n      jump\t// in\n    tag_160:\n      mload(0x40)\n      0x20\n      dup2\n      dup4\n      sub\n      sub\n      dup2\n      mstore\n      swap1\n      0x40\n      mstore\n        /* \"contracts/CoinMusme.sol\":2578:2684  keccak256(... */\n      dup1\n      mload\n      swap1\n      0x20\n      add\n      keccak256\n        /* \"contracts/CoinMusme.sol\":2559:2695  uint(... */\n      0x00\n      shr\n        /* \"contracts/CoinMusme.sol\":2545:2695  uint random = uint(... */\n      swap1\n      pop\n        /* \"contracts/CoinMusme.sol\":2768:2769  3 */\n      0x03\n        /* \"contracts/CoinMusme.sol\":2759:2765  random */\n      dup2\n        /* \"contracts/CoinMusme.sol\":2759:2769  random % 3 */\n      tag_162\n      swap2\n      swap1\n      tag_163\n      jump\t// in\n    tag_162:\n        /* \"contracts/CoinMusme.sol\":2745:2770  random = uint(random % 3) */\n      swap1\n      pop\n        /* \"contracts/CoinMusme.sol\":2888:2894  musmes */\n      0x08\n        /* \"contracts/CoinMusme.sol\":2888:2906  musmes[msg.sender] */\n      0x00\n        /* \"contracts/CoinMusme.sol\":2895:2905  msg.sender */\n      caller\n        /* \"contracts/CoinMusme.sol\":2888:2906  musmes[msg.sender] */\n      0xffffffffffffffffffffffffffffffffffffffff\n      and\n      0xffffffffffffffffffffffffffffffffffffffff\n      and\n      dup2\n      mstore\n      0x20\n      add\n      swap1\n      dup2\n      mstore\n      0x20\n      add\n      0x00\n      keccak256\n        /* \"contracts/CoinMusme.sol\":2912:2954  Musme(musmeUrl[random], musmeName[random]) */\n      mload(0x40)\n      dup1\n      0x40\n      add\n      0x40\n      mstore\n      dup1\n        /* \"contracts/CoinMusme.sol\":2918:2926  musmeUrl */\n      0x07\n        /* \"contracts/CoinMusme.sol\":2927:2933  random */\n      dup5\n        /* \"contracts/CoinMusme.sol\":2918:2934  musmeUrl[random] */\n      dup2\n      sload\n      dup2\n      lt\n      tag_164\n      jumpi\n      tag_165\n      tag_166\n      jump\t// in\n    tag_165:\n    tag_164:\n      swap1\n      0x00\n      mstore\n      keccak256(0x00, 0x20)\n      add\n        /* \"contracts/CoinMusme.sol\":2912:2954  Musme(musmeUrl[random], musmeName[random]) */\n      dup1\n      sload\n      tag_168\n      swap1\n      tag_90\n      jump\t// in\n    tag_168:\n      dup1\n      0x1f\n      add\n      0x20\n      dup1\n      swap2\n      div\n      mul\n      0x20\n      add\n      mload(0x40)\n      swap1\n      dup2\n      add\n      0x40\n      mstore\n      dup1\n      swap3\n      swap2\n      swap1\n      dup2\n      dup2\n      mstore\n      0x20\n      add\n      dup3\n      dup1\n      sload\n      tag_169\n      swap1\n      tag_90\n      jump\t// in\n    tag_169:\n      dup1\n      iszero\n      tag_170\n      jumpi\n      dup1\n      0x1f\n      lt\n      tag_171\n      jumpi\n      0x0100\n      dup1\n      dup4\n      sload\n      div\n      mul\n      dup4\n      mstore\n      swap2\n      0x20\n      add\n      swap2\n      jump(tag_170)\n    tag_171:\n      dup3\n      add\n      swap2\n      swap1\n      0x00\n      mstore\n      keccak256(0x00, 0x20)\n      swap1\n    tag_172:\n      dup2\n      sload\n      dup2\n      mstore\n      swap1\n      0x01\n      add\n      swap1\n      0x20\n      add\n      dup1\n      dup4\n      gt\n      tag_172\n      jumpi\n      dup3\n      swap1\n      sub\n      0x1f\n      and\n      dup3\n      add\n      swap2\n    tag_170:\n      pop\n      pop\n      pop\n      pop\n      pop\n      dup2\n      mstore\n      0x20\n      add\n        /* \"contracts/CoinMusme.sol\":2936:2945  musmeName */\n      0x06\n        /* \"contracts/CoinMusme.sol\":2946:2952  random */\n      dup5\n        /* \"contracts/CoinMusme.sol\":2936:2953  musmeName[random] */\n      dup2\n      sload\n      dup2\n      lt\n      tag_173\n      jumpi\n      tag_174\n      tag_166\n      jump\t// in\n    tag_174:\n    tag_173:\n      swap1\n      0x00\n      mstore\n      keccak256(0x00, 0x20)\n      add\n        /* \"contracts/CoinMusme.sol\":2912:2954  Musme(musmeUrl[random], musmeName[random]) */\n      dup1\n      sload\n      tag_176\n      swap1\n      tag_90\n      jump\t// in\n    tag_176:\n      dup1\n      0x1f\n      add\n      0x20\n      dup1\n      swap2\n      div\n      mul\n      0x20\n      add\n      mload(0x40)\n      swap1\n      dup2\n      add\n      0x40\n      mstore\n      dup1\n      swap3\n      swap2\n      swap1\n      dup2\n      dup2\n      mstore\n      0x20\n      add\n      dup3\n      dup1\n      sload\n      tag_177\n      swap1\n      tag_90\n      jump\t// in\n    tag_177:\n      dup1\n      iszero\n      tag_178\n      jumpi\n      dup1\n      0x1f\n      lt\n      tag_179\n      jumpi\n      0x0100\n      dup1\n      dup4\n      sload\n      div\n      mul\n      dup4\n      mstore\n      swap2\n      0x20\n      add\n      swap2\n      jump(tag_178)\n    tag_179:\n      dup3\n      add\n      swap2\n      swap1\n      0x00\n      mstore\n      keccak256(0x00, 0x20)\n      swap1\n    tag_180:\n      dup2\n      sload\n      dup2\n      mstore\n      swap1\n      0x01\n      add\n      swap1\n      0x20\n      add\n      dup1\n      dup4\n      gt\n      tag_180\n      jumpi\n      dup3\n      swap1\n      sub\n      0x1f\n      and\n      dup3\n      add\n      swap2\n    tag_178:\n      pop\n      pop\n      pop\n      pop\n      pop\n      dup2\n      mstore\n      pop\n        /* \"contracts/CoinMusme.sol\":2888:2955  musmes[msg.sender].push(Musme(musmeUrl[random], musmeName[random])) */\n      swap1\n      dup1\n      0x01\n      dup2\n      sload\n      add\n      dup1\n      dup3\n      sstore\n      dup1\n      swap2\n      pop\n      pop\n      0x01\n      swap1\n      sub\n      swap1\n      0x00\n      mstore\n      keccak256(0x00, 0x20)\n      swap1\n      0x02\n      mul\n      add\n      0x00\n      swap1\n      swap2\n      swap1\n      swap2\n      swap1\n      swap2\n      pop\n      0x00\n      dup3\n      add\n      mload\n      dup2\n      0x00\n      add\n      swap1\n      dup2\n      tag_182\n      swap2\n      swap1\n      tag_183\n      jump\t// in\n    tag_182:\n      pop\n      0x20\n      dup3\n      add\n      mload\n      dup2\n      0x01\n      add\n      swap1\n      dup2\n      tag_184\n      swap2\n      swap1\n      tag_183\n      jump\t// in\n    tag_184:\n      pop\n      pop\n      pop\n        /* \"contracts/CoinMusme.sol\":3026:3037  bool isUser */\n      0x00\n        /* \"contracts/CoinMusme.sol\":3063:3072  uint256 i */\n      dup1\n        /* \"contracts/CoinMusme.sol\":3058:3235  for (uint256 i = 0; i < users.length; i++) {... */\n    tag_185:\n        /* \"contracts/CoinMusme.sol\":3082:3087  users */\n      0x09\n        /* \"contracts/CoinMusme.sol\":3082:3094  users.length */\n      dup1\n      sload\n      swap1\n      pop\n        /* \"contracts/CoinMusme.sol\":3078:3079  i */\n      dup2\n        /* \"contracts/CoinMusme.sol\":3078:3094  i < users.length */\n      lt\n        /* \"contracts/CoinMusme.sol\":3058:3235  for (uint256 i = 0; i < users.length; i++) {... */\n      iszero\n      tag_186\n      jumpi\n        /* \"contracts/CoinMusme.sol\":3140:3150  msg.sender */\n      caller\n        /* \"contracts/CoinMusme.sol\":3120:3150  users[i].account == msg.sender */\n      0xffffffffffffffffffffffffffffffffffffffff\n      and\n        /* \"contracts/CoinMusme.sol\":3120:3125  users */\n      0x09\n        /* \"contracts/CoinMusme.sol\":3126:3127  i */\n      dup3\n        /* \"contracts/CoinMusme.sol\":3120:3128  users[i] */\n      dup2\n      sload\n      dup2\n      lt\n      tag_188\n      jumpi\n      tag_189\n      tag_166\n      jump\t// in\n    tag_189:\n    tag_188:\n      swap1\n      0x00\n      mstore\n      keccak256(0x00, 0x20)\n      add\n        /* \"contracts/CoinMusme.sol\":3120:3136  users[i].account */\n      0x00\n      add\n      0x00\n      swap1\n      sload\n      swap1\n      0x0100\n      exp\n      swap1\n      div\n      0xffffffffffffffffffffffffffffffffffffffff\n      and\n        /* \"contracts/CoinMusme.sol\":3120:3150  users[i].account == msg.sender */\n      0xffffffffffffffffffffffffffffffffffffffff\n      and\n      sub\n        /* \"contracts/CoinMusme.sol\":3116:3224  if (users[i].account == msg.sender) {... */\n      tag_191\n      jumpi\n        /* \"contracts/CoinMusme.sol\":3180:3184  true */\n      0x01\n        /* \"contracts/CoinMusme.sol\":3171:3184  isUser = true */\n      swap2\n      pop\n        /* \"contracts/CoinMusme.sol\":3203:3208  break */\n      jump(tag_186)\n        /* \"contracts/CoinMusme.sol\":3116:3224  if (users[i].account == msg.sender) {... */\n    tag_191:\n        /* \"contracts/CoinMusme.sol\":3096:3099  i++ */\n      dup1\n      dup1\n      tag_192\n      swap1\n      tag_193\n      jump\t// in\n    tag_192:\n      swap2\n      pop\n      pop\n        /* \"contracts/CoinMusme.sol\":3058:3235  for (uint256 i = 0; i < users.length; i++) {... */\n      jump(tag_185)\n    tag_186:\n      pop\n        /* \"contracts/CoinMusme.sol\":3305:3311  isUser */\n      dup1\n        /* \"contracts/CoinMusme.sol\":3300:3368  if (!isUser) {... */\n      tag_194\n      jumpi\n        /* \"contracts/CoinMusme.sol\":3328:3333  users */\n      0x09\n        /* \"contracts/CoinMusme.sol\":3339:3355  User(msg.sender) */\n      mload(0x40)\n      dup1\n      0x20\n      add\n      0x40\n      mstore\n      dup1\n        /* \"contracts/CoinMusme.sol\":3344:3354  msg.sender */\n      caller\n        /* \"contracts/CoinMusme.sol\":3339:3355  User(msg.sender) */\n      0xffffffffffffffffffffffffffffffffffffffff\n      and\n      dup2\n      mstore\n      pop\n        /* \"contracts/CoinMusme.sol\":3328:3356  users.push(User(msg.sender)) */\n      swap1\n      dup1\n      0x01\n      dup2\n      sload\n      add\n      dup1\n      dup3\n      sstore\n      dup1\n      swap2\n      pop\n      pop\n      0x01\n      swap1\n      sub\n      swap1\n      0x00\n      mstore\n      keccak256(0x00, 0x20)\n      add\n      0x00\n      swap1\n      swap2\n      swap1\n      swap2\n      swap1\n      swap2\n      pop\n      0x00\n      dup3\n      add\n      mload\n      dup2\n      0x00\n      add\n      exp(0x0100, 0x00)\n      dup2\n      sload\n      dup2\n      0xffffffffffffffffffffffffffffffffffffffff\n      mul\n      not\n      and\n      swap1\n      dup4\n      0xffffffffffffffffffffffffffffffffffffffff\n      and\n      mul\n      or\n      swap1\n      sstore\n      pop\n      pop\n      pop\n        /* \"contracts/CoinMusme.sol\":3300:3368  if (!isUser) {... */\n    tag_194:\n        /* \"contracts/CoinMusme.sol\":2134:3375  {... */\n      pop\n      pop\n        /* \"contracts/CoinMusme.sol\":2107:3375  function buyMusme() public {... */\n      jump\t// out\n        /* \"@openzeppelin/contracts/token/ERC20/ERC20.sol\":3846:3986  function allowance(address owner, address spender) public view virtual returns (uint256) {... */\n    tag_83:\n        /* \"@openzeppelin/contracts/token/ERC20/ERC20.sol\":3926:3933  uint256 */\n      0x00\n        /* \"@openzeppelin/contracts/token/ERC20/ERC20.sol\":3952:3963  _allowances */\n      0x01\n        /* \"@openzeppelin/contracts/token/ERC20/ERC20.sol\":3952:3970  _allowances[owner] */\n      0x00\n        /* \"@openzeppelin/contracts/token/ERC20/ERC20.sol\":3964:3969  owner */\n      dup5\n        /* \"@openzeppelin/contracts/token/ERC20/ERC20.sol\":3952:3970  _allowances[owner] */\n      0xffffffffffffffffffffffffffffffffffffffff\n      and\n      0xffffffffffffffffffffffffffffffffffffffff\n      and\n      dup2\n      mstore\n      0x20\n      add\n      swap1\n      dup2\n      mstore\n      0x20\n      add\n      0x00\n      keccak256\n        /* \"@openzeppelin/contracts/token/ERC20/ERC20.sol\":3952:3979  _allowances[owner][spender] */\n      0x00\n        /* \"@openzeppelin/contracts/token/ERC20/ERC20.sol\":3971:3978  spender */\n      dup4\n        /* \"@openzeppelin/contracts/token/ERC20/ERC20.sol\":3952:3979  _allowances[owner][spender] */\n      0xffffffffffffffffffffffffffffffffffffffff\n      and\n      0xffffffffffffffffffffffffffffffffffffffff\n      and\n      dup2\n      mstore\n      0x20\n      add\n      swap1\n      dup2\n      mstore\n      0x20\n      add\n      0x00\n      keccak256\n      sload\n        /* \"@openzeppelin/contracts/token/ERC20/ERC20.sol\":3945:3979  return _allowances[owner][spender] */\n      swap1\n      pop\n        /* \"@openzeppelin/contracts/token/ERC20/ERC20.sol\":3846:3986  function allowance(address owner, address spender) public view virtual returns (uint256) {... */\n      swap3\n      swap2\n      pop\n      pop\n      jump\t// out\n        /* \"@openzeppelin/contracts/utils/Context.sol\":656:752  function _msgSender() internal view virtual returns (address) {... */\n    tag_108:\n        /* \"@openzeppelin/contracts/utils/Context.sol\":709:716  address */\n      0x00\n        /* \"@openzeppelin/contracts/utils/Context.sol\":735:745  msg.sender */\n      caller\n        /* \"@openzeppelin/contracts/utils/Context.sol\":728:745  return msg.sender */\n      swap1\n      pop\n        /* \"@openzeppelin/contracts/utils/Context.sol\":656:752  function _msgSender() internal view virtual returns (address) {... */\n      swap1\n      jump\t// out\n        /* \"@openzeppelin/contracts/token/ERC20/ERC20.sol\":9101:9229  function _approve(address owner, address spender, uint256 value) internal {... */\n    tag_110:\n        /* \"@openzeppelin/contracts/token/ERC20/ERC20.sol\":9185:9222  _approve(owner, spender, value, true) */\n      tag_199\n        /* \"@openzeppelin/contracts/token/ERC20/ERC20.sol\":9194:9199  owner */\n      dup4\n        /* \"@openzeppelin/contracts/token/ERC20/ERC20.sol\":9201:9208  spender */\n      dup4\n        /* \"@openzeppelin/contracts/token/ERC20/ERC20.sol\":9210:9215  value */\n      dup4\n        /* \"@openzeppelin/contracts/token/ERC20/ERC20.sol\":9217:9221  true */\n      0x01\n        /* \"@openzeppelin/contracts/token/ERC20/ERC20.sol\":9185:9193  _approve */\n      tag_200\n        /* \"@openzeppelin/contracts/token/ERC20/ERC20.sol\":9185:9222  _approve(owner, spender, value, true) */\n      jump\t// in\n    tag_199:\n        /* \"@openzeppelin/contracts/token/ERC20/ERC20.sol\":9101:9229  function _approve(address owner, address spender, uint256 value) internal {... */\n      pop\n      pop\n      pop\n      jump\t// out\n        /* \"@openzeppelin/contracts/token/ERC20/ERC20.sol\":10775:11252  function _spendAllowance(address owner, address spender, uint256 value) internal virtual {... */\n    tag_115:\n        /* \"@openzeppelin/contracts/token/ERC20/ERC20.sol\":10874:10898  uint256 currentAllowance */\n      0x00\n        /* \"@openzeppelin/contracts/token/ERC20/ERC20.sol\":10901:10926  allowance(owner, spender) */\n      tag_202\n        /* \"@openzeppelin/contracts/token/ERC20/ERC20.sol\":10911:10916  owner */\n      dup5\n        /* \"@openzeppelin/contracts/token/ERC20/ERC20.sol\":10918:10925  spender */\n      dup5\n        /* \"@openzeppelin/contracts/token/ERC20/ERC20.sol\":10901:10910  allowance */\n      tag_83\n        /* \"@openzeppelin/contracts/token/ERC20/ERC20.sol\":10901:10926  allowance(owner, spender) */\n      jump\t// in\n    tag_202:\n        /* \"@openzeppelin/contracts/token/ERC20/ERC20.sol\":10874:10926  uint256 currentAllowance = allowance(owner, spender) */\n      swap1\n      pop\n        /* \"@openzeppelin/contracts/token/ERC20/ERC20.sol\":10960:10977  type(uint256).max */\n      0xffffffffffffffffffffffffffffffffffffffffffffffffffffffffffffffff\n        /* \"@openzeppelin/contracts/token/ERC20/ERC20.sol\":10940:10956  currentAllowance */\n      dup2\n        /* \"@openzeppelin/contracts/token/ERC20/ERC20.sol\":10940:10977  currentAllowance != type(uint256).max */\n      eq\n        /* \"@openzeppelin/contracts/token/ERC20/ERC20.sol\":10936:11246  if (currentAllowance != type(uint256).max) {... */\n      tag_203\n      jumpi\n        /* \"@openzeppelin/contracts/token/ERC20/ERC20.sol\":11016:11021  value */\n      dup2\n        /* \"@openzeppelin/contracts/token/ERC20/ERC20.sol\":10997:11013  currentAllowance */\n      dup2\n        /* \"@openzeppelin/contracts/token/ERC20/ERC20.sol\":10997:11021  currentAllowance < value */\n      lt\n        /* \"@openzeppelin/contracts/token/ERC20/ERC20.sol\":10993:11123  if (currentAllowance < value) {... */\n      iszero\n      tag_204\n      jumpi\n        /* \"@openzeppelin/contracts/token/ERC20/ERC20.sol\":11075:11082  spender */\n      dup3\n        /* \"@openzeppelin/contracts/token/ERC20/ERC20.sol\":11084:11100  currentAllowance */\n      dup2\n        /* \"@openzeppelin/contracts/token/ERC20/ERC20.sol\":11102:11107  value */\n      dup4\n        /* \"@openzeppelin/contracts/token/ERC20/ERC20.sol\":11048:11108  ERC20InsufficientAllowance(spender, currentAllowance, value) */\n      mload(0x40)\n      0xfb8f41b200000000000000000000000000000000000000000000000000000000\n      dup2\n      mstore\n      0x04\n      add\n      tag_205\n      swap4\n      swap3\n      swap2\n      swap1\n      tag_206\n      jump\t// in\n    tag_205:\n      mload(0x40)\n      dup1\n      swap2\n      sub\n      swap1\n      revert\n        /* \"@openzeppelin/contracts/token/ERC20/ERC20.sol\":10993:11123  if (currentAllowance < value) {... */\n    tag_204:\n        /* \"@openzeppelin/contracts/token/ERC20/ERC20.sol\":11164:11221  _approve(owner, spender, currentAllowance - value, false) */\n      tag_207\n        /* \"@openzeppelin/contracts/token/ERC20/ERC20.sol\":11173:11178  owner */\n      dup5\n        /* \"@openzeppelin/contracts/token/ERC20/ERC20.sol\":11180:11187  spender */\n      dup5\n        /* \"@openzeppelin/contracts/token/ERC20/ERC20.sol\":11208:11213  value */\n      dup5\n        /* \"@openzeppelin/contracts/token/ERC20/ERC20.sol\":11189:11205  currentAllowance */\n      dup5\n        /* \"@openzeppelin/contracts/token/ERC20/ERC20.sol\":11189:11213  currentAllowance - value */\n      sub\n        /* \"@openzeppelin/contracts/token/ERC20/ERC20.sol\":11215:11220  false */\n      0x00\n        /* \"@openzeppelin/contracts/token/ERC20/ERC20.sol\":11164:11172  _approve */\n      tag_200\n        /* \"@openzeppelin/contracts/token/ERC20/ERC20.sol\":11164:11221  _approve(owner, spender, currentAllowance - value, false) */\n      jump\t// in\n    tag_207:\n        /* \"@openzeppelin/contracts/token/ERC20/ERC20.sol\":10936:11246  if (currentAllowance != type(uint256).max) {... */\n    tag_203:\n        /* \"@openzeppelin/contracts/token/ERC20/ERC20.sol\":10864:11252  {... */\n      pop\n        /* \"@openzeppelin/contracts/token/ERC20/ERC20.sol\":10775:11252  function _spendAllowance(address owner, address spender, uint256 value) internal virtual {... */\n      pop\n      pop\n      pop\n      jump\t// out\n        /* \"@openzeppelin/contracts/token/ERC20/ERC20.sol\":5656:5956  function _transfer(address from, address to, uint256 value) internal {... */\n    tag_117:\n        /* \"@openzeppelin/contracts/token/ERC20/ERC20.sol\":5755:5756  0 */\n      0x00\n        /* \"@openzeppelin/contracts/token/ERC20/ERC20.sol\":5739:5757  from == address(0) */\n      0xffffffffffffffffffffffffffffffffffffffff\n      and\n        /* \"@openzeppelin/contracts/token/ERC20/ERC20.sol\":5739:5743  from */\n      dup4\n        /* \"@openzeppelin/contracts/token/ERC20/ERC20.sol\":5739:5757  from == address(0) */\n      0xffffffffffffffffffffffffffffffffffffffff\n      and\n      sub\n        /* \"@openzeppelin/contracts/token/ERC20/ERC20.sol\":5735:5821  if (from == address(0)) {... */\n      tag_209\n      jumpi\n        /* \"@openzeppelin/contracts/token/ERC20/ERC20.sol\":5807:5808  0 */\n      0x00\n        /* \"@openzeppelin/contracts/token/ERC20/ERC20.sol\":5780:5810  ERC20InvalidSender(address(0)) */\n      mload(0x40)\n      0x96c6fd1e00000000000000000000000000000000000000000000000000000000\n      dup2\n      mstore\n      0x04\n      add\n      tag_210\n      swap2\n      swap1\n      tag_53\n      jump\t// in\n    tag_210:\n      mload(0x40)\n      dup1\n      swap2\n      sub\n      swap1\n      revert\n        /* \"@openzeppelin/contracts/token/ERC20/ERC20.sol\":5735:5821  if (from == address(0)) {... */\n    tag_209:\n        /* \"@openzeppelin/contracts/token/ERC20/ERC20.sol\":5848:5849  0 */\n      0x00\n        /* \"@openzeppelin/contracts/token/ERC20/ERC20.sol\":5834:5850  to == address(0) */\n      0xffffffffffffffffffffffffffffffffffffffff\n      and\n        /* \"@openzeppelin/contracts/token/ERC20/ERC20.sol\":5834:5836  to */\n      dup3\n        /* \"@openzeppelin/contracts/token/ERC20/ERC20.sol\":5834:5850  to == address(0) */\n      0xffffffffffffffffffffffffffffffffffffffff\n      and\n      sub\n        /* \"@openzeppelin/contracts/token/ERC20/ERC20.sol\":5830:5916  if (to == address(0)) {... */\n      tag_211\n      jumpi\n        /* \"@openzeppelin/contracts/token/ERC20/ERC20.sol\":5902:5903  0 */\n      0x00\n        /* \"@openzeppelin/contracts/token/ERC20/ERC20.sol\":5873:5905  ERC20InvalidReceiver(address(0)) */\n      mload(0x40)\n      0xec442f0500000000000000000000000000000000000000000000000000000000\n      dup2\n      mstore\n      0x04\n      add\n      tag_212\n      swap2\n      swap1\n      tag_53\n      jump\t// in\n    tag_212:\n      mload(0x40)\n      dup1\n      swap2\n      sub\n      swap1\n      revert\n        /* \"@openzeppelin/contracts/token/ERC20/ERC20.sol\":5830:5916  if (to == address(0)) {... */\n    tag_211:\n        /* \"@openzeppelin/contracts/token/ERC20/ERC20.sol\":5925:5949  _update(from, to, value) */\n      tag_213\n        /* \"@openzeppelin/contracts/token/ERC20/ERC20.sol\":5933:5937  from */\n      dup4\n        /* \"@openzeppelin/contracts/token/ERC20/ERC20.sol\":5939:5941  to */\n      dup4\n        /* \"@openzeppelin/contracts/token/ERC20/ERC20.sol\":5943:5948  value */\n      dup4\n        /* \"@openzeppelin/contracts/token/ERC20/ERC20.sol\":5925:5932  _update */\n      tag_159\n        /* \"@openzeppelin/contracts/token/ERC20/ERC20.sol\":5925:5949  _update(from, to, value) */\n      jump\t// in\n    tag_213:\n        /* \"@openzeppelin/contracts/token/ERC20/ERC20.sol\":5656:5956  function _transfer(address from, address to, uint256 value) internal {... */\n      pop\n      pop\n      pop\n      jump\t// out\n        /* \"@openzeppelin/contracts/token/ERC20/ERC20.sol\":7721:7929  function _mint(address account, uint256 value) internal {... */\n    tag_145:\n        /* \"@openzeppelin/contracts/token/ERC20/ERC20.sol\":7810:7811  0 */\n      0x00\n        /* \"@openzeppelin/contracts/token/ERC20/ERC20.sol\":7791:7812  account == address(0) */\n      0xffffffffffffffffffffffffffffffffffffffff\n      and\n        /* \"@openzeppelin/contracts/token/ERC20/ERC20.sol\":7791:7798  account */\n      dup3\n        /* \"@openzeppelin/contracts/token/ERC20/ERC20.sol\":7791:7812  account == address(0) */\n      0xffffffffffffffffffffffffffffffffffffffff\n      and\n      sub\n        /* \"@openzeppelin/contracts/token/ERC20/ERC20.sol\":7787:7878  if (account == address(0)) {... */\n      tag_215\n      jumpi\n        /* \"@openzeppelin/contracts/token/ERC20/ERC20.sol\":7864:7865  0 */\n      0x00\n        /* \"@openzeppelin/contracts/token/ERC20/ERC20.sol\":7835:7867  ERC20InvalidReceiver(address(0)) */\n      mload(0x40)\n      0xec442f0500000000000000000000000000000000000000000000000000000000\n      dup2\n      mstore\n      0x04\n      add\n      tag_216\n      swap2\n      swap1\n      tag_53\n      jump\t// in\n    tag_216:\n      mload(0x40)\n      dup1\n      swap2\n      sub\n      swap1\n      revert\n        /* \"@openzeppelin/contracts/token/ERC20/ERC20.sol\":7787:7878  if (account == address(0)) {... */\n    tag_215:\n        /* \"@openzeppelin/contracts/token/ERC20/ERC20.sol\":7887:7922  _update(address(0), account, value) */\n      tag_217\n        /* \"@openzeppelin/contracts/token/ERC20/ERC20.sol\":7903:7904  0 */\n      0x00\n        /* \"@openzeppelin/contracts/token/ERC20/ERC20.sol\":7907:7914  account */\n      dup4\n        /* \"@openzeppelin/contracts/token/ERC20/ERC20.sol\":7916:7921  value */\n      dup4\n        /* \"@openzeppelin/contracts/token/ERC20/ERC20.sol\":7887:7894  _update */\n      tag_159\n        /* \"@openzeppelin/contracts/token/ERC20/ERC20.sol\":7887:7922  _update(address(0), account, value) */\n      jump\t// in\n    tag_217:\n        /* \"@openzeppelin/contracts/token/ERC20/ERC20.sol\":7721:7929  function _mint(address account, uint256 value) internal {... */\n      pop\n      pop\n      jump\t// out\n        /* \"@openzeppelin/contracts/token/ERC20/ERC20.sol\":6271:7378  function _update(address from, address to, uint256 value) internal virtual {... */\n    tag_159:\n        /* \"@openzeppelin/contracts/token/ERC20/ERC20.sol\":6376:6377  0 */\n      0x00\n        /* \"@openzeppelin/contracts/token/ERC20/ERC20.sol\":6360:6378  from == address(0) */\n      0xffffffffffffffffffffffffffffffffffffffff\n      and\n        /* \"@openzeppelin/contracts/token/ERC20/ERC20.sol\":6360:6364  from */\n      dup4\n        /* \"@openzeppelin/contracts/token/ERC20/ERC20.sol\":6360:6378  from == address(0) */\n      0xffffffffffffffffffffffffffffffffffffffff\n      and\n      sub\n        /* \"@openzeppelin/contracts/token/ERC20/ERC20.sol\":6356:6896  if (from == address(0)) {... */\n      tag_219\n      jumpi\n        /* \"@openzeppelin/contracts/token/ERC20/ERC20.sol\":6512:6517  value */\n      dup1\n        /* \"@openzeppelin/contracts/token/ERC20/ERC20.sol\":6496:6508  _totalSupply */\n      0x02\n      0x00\n        /* \"@openzeppelin/contracts/token/ERC20/ERC20.sol\":6496:6517  _totalSupply += value */\n      dup3\n      dup3\n      sload\n      tag_220\n      swap2\n      swap1\n      tag_221\n      jump\t// in\n    tag_220:\n      swap3\n      pop\n      pop\n      dup2\n      swap1\n      sstore\n      pop\n        /* \"@openzeppelin/contracts/token/ERC20/ERC20.sol\":6356:6896  if (from == address(0)) {... */\n      jump(tag_222)\n    tag_219:\n        /* \"@openzeppelin/contracts/token/ERC20/ERC20.sol\":6548:6567  uint256 fromBalance */\n      0x00\n        /* \"@openzeppelin/contracts/token/ERC20/ERC20.sol\":6570:6579  _balances */\n      dup1\n        /* \"@openzeppelin/contracts/token/ERC20/ERC20.sol\":6570:6585  _balances[from] */\n      0x00\n        /* \"@openzeppelin/contracts/token/ERC20/ERC20.sol\":6580:6584  from */\n      dup6\n        /* \"@openzeppelin/contracts/token/ERC20/ERC20.sol\":6570:6585  _balances[from] */\n      0xffffffffffffffffffffffffffffffffffffffff\n      and\n      0xffffffffffffffffffffffffffffffffffffffff\n      and\n      dup2\n      mstore\n      0x20\n      add\n      swap1\n      dup2\n      mstore\n      0x20\n      add\n      0x00\n      keccak256\n      sload\n        /* \"@openzeppelin/contracts/token/ERC20/ERC20.sol\":6548:6585  uint256 fromBalance = _balances[from] */\n      swap1\n      pop\n        /* \"@openzeppelin/contracts/token/ERC20/ERC20.sol\":6617:6622  value */\n      dup2\n        /* \"@openzeppelin/contracts/token/ERC20/ERC20.sol\":6603:6614  fromBalance */\n      dup2\n        /* \"@openzeppelin/contracts/token/ERC20/ERC20.sol\":6603:6622  fromBalance < value */\n      lt\n        /* \"@openzeppelin/contracts/token/ERC20/ERC20.sol\":6599:6714  if (fromBalance < value) {... */\n      iszero\n      tag_223\n      jumpi\n        /* \"@openzeppelin/contracts/token/ERC20/ERC20.sol\":6674:6678  from */\n      dup4\n        /* \"@openzeppelin/contracts/token/ERC20/ERC20.sol\":6680:6691  fromBalance */\n      dup2\n        /* \"@openzeppelin/contracts/token/ERC20/ERC20.sol\":6693:6698  value */\n      dup4\n        /* \"@openzeppelin/contracts/token/ERC20/ERC20.sol\":6649:6699  ERC20InsufficientBalance(from, fromBalance, value) */\n      mload(0x40)\n      0xe450d38c00000000000000000000000000000000000000000000000000000000\n      dup2\n      mstore\n      0x04\n      add\n      tag_224\n      swap4\n      swap3\n      swap2\n      swap1\n      tag_206\n      jump\t// in\n    tag_224:\n      mload(0x40)\n      dup1\n      swap2\n      sub\n      swap1\n      revert\n        /* \"@openzeppelin/contracts/token/ERC20/ERC20.sol\":6599:6714  if (fromBalance < value) {... */\n    tag_223:\n        /* \"@openzeppelin/contracts/token/ERC20/ERC20.sol\":6866:6871  value */\n      dup2\n        /* \"@openzeppelin/contracts/token/ERC20/ERC20.sol\":6852:6863  fromBalance */\n      dup2\n        /* \"@openzeppelin/contracts/token/ERC20/ERC20.sol\":6852:6871  fromBalance - value */\n      sub\n        /* \"@openzeppelin/contracts/token/ERC20/ERC20.sol\":6834:6843  _balances */\n      0x00\n        /* \"@openzeppelin/contracts/token/ERC20/ERC20.sol\":6834:6849  _balances[from] */\n      dup1\n        /* \"@openzeppelin/contracts/token/ERC20/ERC20.sol\":6844:6848  from */\n      dup7\n        /* \"@openzeppelin/contracts/token/ERC20/ERC20.sol\":6834:6849  _balances[from] */\n      0xffffffffffffffffffffffffffffffffffffffff\n      and\n      0xffffffffffffffffffffffffffffffffffffffff\n      and\n      dup2\n      mstore\n      0x20\n      add\n      swap1\n      dup2\n      mstore\n      0x20\n      add\n      0x00\n      keccak256\n        /* \"@openzeppelin/contracts/token/ERC20/ERC20.sol\":6834:6871  _balances[from] = fromBalance - value */\n      dup2\n      swap1\n      sstore\n      pop\n        /* \"@openzeppelin/contracts/token/ERC20/ERC20.sol\":6534:6896  {... */\n      pop\n        /* \"@openzeppelin/contracts/token/ERC20/ERC20.sol\":6356:6896  if (from == address(0)) {... */\n    tag_222:\n        /* \"@openzeppelin/contracts/token/ERC20/ERC20.sol\":6924:6925  0 */\n      0x00\n        /* \"@openzeppelin/contracts/token/ERC20/ERC20.sol\":6910:6926  to == address(0) */\n      0xffffffffffffffffffffffffffffffffffffffff\n      and\n        /* \"@openzeppelin/contracts/token/ERC20/ERC20.sol\":6910:6912  to */\n      dup3\n        /* \"@openzeppelin/contracts/token/ERC20/ERC20.sol\":6910:6926  to == address(0) */\n      0xffffffffffffffffffffffffffffffffffffffff\n      and\n      sub\n        /* \"@openzeppelin/contracts/token/ERC20/ERC20.sol\":6906:7331  if (to == address(0)) {... */\n      tag_225\n      jumpi\n        /* \"@openzeppelin/contracts/token/ERC20/ERC20.sol\":7089:7094  value */\n      dup1\n        /* \"@openzeppelin/contracts/token/ERC20/ERC20.sol\":7073:7085  _totalSupply */\n      0x02\n      0x00\n        /* \"@openzeppelin/contracts/token/ERC20/ERC20.sol\":7073:7094  _totalSupply -= value */\n      dup3\n      dup3\n      sload\n      sub\n      swap3\n      pop\n      pop\n      dup2\n      swap1\n      sstore\n      pop\n        /* \"@openzeppelin/contracts/token/ERC20/ERC20.sol\":6906:7331  if (to == address(0)) {... */\n      jump(tag_226)\n    tag_225:\n        /* \"@openzeppelin/contracts/token/ERC20/ERC20.sol\":7301:7306  value */\n      dup1\n        /* \"@openzeppelin/contracts/token/ERC20/ERC20.sol\":7284:7293  _balances */\n      0x00\n        /* \"@openzeppelin/contracts/token/ERC20/ERC20.sol\":7284:7297  _balances[to] */\n      dup1\n        /* \"@openzeppelin/contracts/token/ERC20/ERC20.sol\":7294:7296  to */\n      dup5\n        /* \"@openzeppelin/contracts/token/ERC20/ERC20.sol\":7284:7297  _balances[to] */\n      0xffffffffffffffffffffffffffffffffffffffff\n      and\n      0xffffffffffffffffffffffffffffffffffffffff\n      and\n      dup2\n      mstore\n      0x20\n      add\n      swap1\n      dup2\n      mstore\n      0x20\n      add\n      0x00\n      keccak256\n      0x00\n        /* \"@openzeppelin/contracts/token/ERC20/ERC20.sol\":7284:7306  _balances[to] += value */\n      dup3\n      dup3\n      sload\n      add\n      swap3\n      pop\n      pop\n      dup2\n      swap1\n      sstore\n      pop\n        /* \"@openzeppelin/contracts/token/ERC20/ERC20.sol\":6906:7331  if (to == address(0)) {... */\n    tag_226:\n        /* \"@openzeppelin/contracts/token/ERC20/ERC20.sol\":7361:7363  to */\n      dup2\n        /* \"@openzeppelin/contracts/token/ERC20/ERC20.sol\":7346:7371  Transfer(from, to, value) */\n      0xffffffffffffffffffffffffffffffffffffffff\n      and\n        /* \"@openzeppelin/contracts/token/ERC20/ERC20.sol\":7355:7359  from */\n      dup4\n        /* \"@openzeppelin/contracts/token/ERC20/ERC20.sol\":7346:7371  Transfer(from, to, value) */\n      0xffffffffffffffffffffffffffffffffffffffff\n      and\n      0xddf252ad1be2c89b69c2b068fc378daa952ba7f163c4a11628f55a4df523b3ef\n        /* \"@openzeppelin/contracts/token/ERC20/ERC20.sol\":7365:7370  value */\n      dup4\n        /* \"@openzeppelin/contracts/token/ERC20/ERC20.sol\":7346:7371  Transfer(from, to, value) */\n      mload(0x40)\n      tag_227\n      swap2\n      swap1\n      tag_38\n      jump\t// in\n    tag_227:\n      mload(0x40)\n      dup1\n      swap2\n      sub\n      swap1\n      log3\n        /* \"@openzeppelin/contracts/token/ERC20/ERC20.sol\":6271:7378  function _update(address from, address to, uint256 value) internal virtual {... */\n      pop\n      pop\n      pop\n      jump\t// out\n        /* \"@openzeppelin/contracts/token/ERC20/ERC20.sol\":10061:10493  function _approve(address owner, address spender, uint256 value, bool emitEvent) internal virtual {... */\n    tag_200:\n        /* \"@openzeppelin/contracts/token/ERC20/ERC20.sol\":10190:10191  0 */\n      0x00\n        /* \"@openzeppelin/contracts/token/ERC20/ERC20.sol\":10173:10192  owner == address(0) */\n      0xffffffffffffffffffffffffffffffffffffffff\n      and\n        /* \"@openzeppelin/contracts/token/ERC20/ERC20.sol\":10173:10178  owner */\n      dup5\n        /* \"@openzeppelin/contracts/token/ERC20/ERC20.sol\":10173:10192  owner == address(0) */\n      0xffffffffffffffffffffffffffffffffffffffff\n      and\n      sub\n        /* \"@openzeppelin/contracts/token/ERC20/ERC20.sol\":10169:10258  if (owner == address(0)) {... */\n      tag_229\n      jumpi\n        /* \"@openzeppelin/contracts/token/ERC20/ERC20.sol\":10244:10245  0 */\n      0x00\n        /* \"@openzeppelin/contracts/token/ERC20/ERC20.sol\":10215:10247  ERC20InvalidApprover(address(0)) */\n      mload(0x40)\n      0xe602df0500000000000000000000000000000000000000000000000000000000\n      dup2\n      mstore\n      0x04\n      add\n      tag_230\n      swap2\n      swap1\n      tag_53\n      jump\t// in\n    tag_230:\n      mload(0x40)\n      dup1\n      swap2\n      sub\n      swap1\n      revert\n        /* \"@openzeppelin/contracts/token/ERC20/ERC20.sol\":10169:10258  if (owner == address(0)) {... */\n    tag_229:\n        /* \"@openzeppelin/contracts/token/ERC20/ERC20.sol\":10290:10291  0 */\n      0x00\n        /* \"@openzeppelin/contracts/token/ERC20/ERC20.sol\":10271:10292  spender == address(0) */\n      0xffffffffffffffffffffffffffffffffffffffff\n      and\n        /* \"@openzeppelin/contracts/token/ERC20/ERC20.sol\":10271:10278  spender */\n      dup4\n        /* \"@openzeppelin/contracts/token/ERC20/ERC20.sol\":10271:10292  spender == address(0) */\n      0xffffffffffffffffffffffffffffffffffffffff\n      and\n      sub\n        /* \"@openzeppelin/contracts/token/ERC20/ERC20.sol\":10267:10357  if (spender == address(0)) {... */\n      tag_231\n      jumpi\n        /* \"@openzeppelin/contracts/token/ERC20/ERC20.sol\":10343:10344  0 */\n      0x00\n        /* \"@openzeppelin/contracts/token/ERC20/ERC20.sol\":10315:10346  ERC20InvalidSpender(address(0)) */\n      mload(0x40)\n      0x94280d6200000000000000000000000000000000000000000000000000000000\n      dup2\n      mstore\n      0x04\n      add\n      tag_232\n      swap2\n      swap1\n      tag_53\n      jump\t// in\n    tag_232:\n      mload(0x40)\n      dup1\n      swap2\n      sub\n      swap1\n      revert\n        /* \"@openzeppelin/contracts/token/ERC20/ERC20.sol\":10267:10357  if (spender == address(0)) {... */\n    tag_231:\n        /* \"@openzeppelin/contracts/token/ERC20/ERC20.sol\":10396:10401  value */\n      dup2\n        /* \"@openzeppelin/contracts/token/ERC20/ERC20.sol\":10366:10377  _allowances */\n      0x01\n        /* \"@openzeppelin/contracts/token/ERC20/ERC20.sol\":10366:10384  _allowances[owner] */\n      0x00\n        /* \"@openzeppelin/contracts/token/ERC20/ERC20.sol\":10378:10383  owner */\n      dup7\n        /* \"@openzeppelin/contracts/token/ERC20/ERC20.sol\":10366:10384  _allowances[owner] */\n      0xffffffffffffffffffffffffffffffffffffffff\n      and\n      0xffffffffffffffffffffffffffffffffffffffff\n      and\n      dup2\n      mstore\n      0x20\n      add\n      swap1\n      dup2\n      mstore\n      0x20\n      add\n      0x00\n      keccak256\n        /* \"@openzeppelin/contracts/token/ERC20/ERC20.sol\":10366:10393  _allowances[owner][spender] */\n      0x00\n        /* \"@openzeppelin/contracts/token/ERC20/ERC20.sol\":10385:10392  spender */\n      dup6\n        /* \"@openzeppelin/contracts/token/ERC20/ERC20.sol\":10366:10393  _allowances[owner][spender] */\n      0xffffffffffffffffffffffffffffffffffffffff\n      and\n      0xffffffffffffffffffffffffffffffffffffffff\n      and\n      dup2\n      mstore\n      0x20\n      add\n      swap1\n      dup2\n      mstore\n      0x20\n      add\n      0x00\n      keccak256\n        /* \"@openzeppelin/contracts/token/ERC20/ERC20.sol\":10366:10401  _allowances[owner][spender] = value */\n      dup2\n      swap1\n      sstore\n      pop\n        /* \"@openzeppelin/contracts/token/ERC20/ERC20.sol\":10415:10424  emitEvent */\n      dup1\n        /* \"@openzeppelin/contracts/token/ERC20/ERC20.sol\":10411:10487  if (emitEvent) {... */\n      iszero\n      tag_233\n      jumpi\n        /* \"@openzeppelin/contracts/token/ERC20/ERC20.sol\":10461:10468  spender */\n      dup3\n        /* \"@openzeppelin/contracts/token/ERC20/ERC20.sol\":10445:10476  Approval(owner, spender, value) */\n      0xffffffffffffffffffffffffffffffffffffffff\n      and\n        /* \"@openzeppelin/contracts/token/ERC20/ERC20.sol\":10454:10459  owner */\n      dup5\n        /* \"@openzeppelin/contracts/token/ERC20/ERC20.sol\":10445:10476  Approval(owner, spender, value) */\n      0xffffffffffffffffffffffffffffffffffffffff\n      and\n      0x8c5be1e5ebec7d5bd14f71427d1e84f3dd0314c0f7b2291e5b200ac8c7c3b925\n        /* \"@openzeppelin/contracts/token/ERC20/ERC20.sol\":10470:10475  value */\n      dup5\n        /* \"@openzeppelin/contracts/token/ERC20/ERC20.sol\":10445:10476  Approval(owner, spender, value) */\n      mload(0x40)\n      tag_234\n      swap2\n      swap1\n      tag_38\n      jump\t// in\n    tag_234:\n      mload(0x40)\n      dup1\n      swap2\n      sub\n      swap1\n      log3\n        /* \"@openzeppelin/contracts/token/ERC20/ERC20.sol\":10411:10487  if (emitEvent) {... */\n    tag_233:\n        /* \"@openzeppelin/contracts/token/ERC20/ERC20.sol\":10061:10493  function _approve(address owner, address spender, uint256 value, bool emitEvent) internal virtual {... */\n      pop\n      pop\n      pop\n      pop\n      jump\t// out\n        /* \"#utility.yul\":7:143   */\n    tag_235:\n        /* \"#utility.yul\":96:102   */\n      0x00\n        /* \"#utility.yul\":130:135   */\n      dup2\n        /* \"#utility.yul\":124:136   */\n      mload\n        /* \"#utility.yul\":114:136   */\n      swap1\n      pop\n        /* \"#utility.yul\":7:143   */\n      swap2\n      swap1\n      pop\n      jump\t// out\n        /* \"#utility.yul\":149:355   */\n    tag_236:\n        /* \"#utility.yul\":270:281   */\n      0x00\n        /* \"#utility.yul\":304:310   */\n      dup3\n        /* \"#utility.yul\":299:302   */\n      dup3\n        /* \"#utility.yul\":292:311   */\n      mstore\n        /* \"#utility.yul\":344:348   */\n      0x20\n        /* \"#utility.yul\":339:342   */\n      dup3\n        /* \"#utility.yul\":335:349   */\n      add\n        /* \"#utility.yul\":320:349   */\n      swap1\n      pop\n        /* \"#utility.yul\":149:355   */\n      swap3\n      swap2\n      pop\n      pop\n      jump\t// out\n        /* \"#utility.yul\":361:515   */\n    tag_237:\n        /* \"#utility.yul\":450:454   */\n      0x00\n        /* \"#utility.yul\":473:476   */\n      dup2\n        /* \"#utility.yul\":465:476   */\n      swap1\n      pop\n        /* \"#utility.yul\":503:507   */\n      0x20\n        /* \"#utility.yul\":498:501   */\n      dup3\n        /* \"#utility.yul\":494:508   */\n      add\n        /* \"#utility.yul\":486:508   */\n      swap1\n      pop\n        /* \"#utility.yul\":361:515   */\n      swap2\n      swap1\n      pop\n      jump\t// out\n        /* \"#utility.yul\":521:620   */\n    tag_238:\n        /* \"#utility.yul\":573:579   */\n      0x00\n        /* \"#utility.yul\":607:612   */\n      dup2\n        /* \"#utility.yul\":601:613   */\n      mload\n        /* \"#utility.yul\":591:613   */\n      swap1\n      pop\n        /* \"#utility.yul\":521:620   */\n      swap2\n      swap1\n      pop\n      jump\t// out\n        /* \"#utility.yul\":626:785   */\n    tag_239:\n        /* \"#utility.yul\":700:711   */\n      0x00\n        /* \"#utility.yul\":734:740   */\n      dup3\n        /* \"#utility.yul\":729:732   */\n      dup3\n        /* \"#utility.yul\":722:741   */\n      mstore\n        /* \"#utility.yul\":774:778   */\n      0x20\n        /* \"#utility.yul\":769:772   */\n      dup3\n        /* \"#utility.yul\":765:779   */\n      add\n        /* \"#utility.yul\":750:779   */\n      swap1\n      pop\n        /* \"#utility.yul\":626:785   */\n      swap3\n      swap2\n      pop\n      pop\n      jump\t// out\n        /* \"#utility.yul\":791:1037   */\n    tag_240:\n        /* \"#utility.yul\":872:873   */\n      0x00\n        /* \"#utility.yul\":882:995   */\n    tag_309:\n        /* \"#utility.yul\":896:902   */\n      dup4\n        /* \"#utility.yul\":893:894   */\n      dup2\n        /* \"#utility.yul\":890:903   */\n      lt\n        /* \"#utility.yul\":882:995   */\n      iszero\n      tag_311\n      jumpi\n        /* \"#utility.yul\":981:982   */\n      dup1\n        /* \"#utility.yul\":976:979   */\n      dup3\n        /* \"#utility.yul\":972:983   */\n      add\n        /* \"#utility.yul\":966:984   */\n      mload\n        /* \"#utility.yul\":962:963   */\n      dup2\n        /* \"#utility.yul\":957:960   */\n      dup5\n        /* \"#utility.yul\":953:964   */\n      add\n        /* \"#utility.yul\":946:985   */\n      mstore\n        /* \"#utility.yul\":918:920   */\n      0x20\n        /* \"#utility.yul\":915:916   */\n      dup2\n        /* \"#utility.yul\":911:921   */\n      add\n        /* \"#utility.yul\":906:921   */\n      swap1\n      pop\n        /* \"#utility.yul\":882:995   */\n      jump(tag_309)\n    tag_311:\n        /* \"#utility.yul\":1029:1030   */\n      0x00\n        /* \"#utility.yul\":1020:1026   */\n      dup5\n        /* \"#utility.yul\":1015:1018   */\n      dup5\n        /* \"#utility.yul\":1011:1027   */\n      add\n        /* \"#utility.yul\":1004:1031   */\n      mstore\n        /* \"#utility.yul\":853:1037   */\n      pop\n        /* \"#utility.yul\":791:1037   */\n      pop\n      pop\n      pop\n      jump\t// out\n        /* \"#utility.yul\":1043:1145   */\n    tag_241:\n        /* \"#utility.yul\":1084:1090   */\n      0x00\n        /* \"#utility.yul\":1135:1137   */\n      0x1f\n        /* \"#utility.yul\":1131:1138   */\n      not\n        /* \"#utility.yul\":1126:1128   */\n      0x1f\n        /* \"#utility.yul\":1119:1124   */\n      dup4\n        /* \"#utility.yul\":1115:1129   */\n      add\n        /* \"#utility.yul\":1111:1139   */\n      and\n        /* \"#utility.yul\":1101:1139   */\n      swap1\n      pop\n        /* \"#utility.yul\":1043:1145   */\n      swap2\n      swap1\n      pop\n      jump\t// out\n        /* \"#utility.yul\":1151:1508   */\n    tag_242:\n        /* \"#utility.yul\":1229:1232   */\n      0x00\n        /* \"#utility.yul\":1257:1296   */\n      tag_314\n        /* \"#utility.yul\":1290:1295   */\n      dup3\n        /* \"#utility.yul\":1257:1296   */\n      tag_238\n      jump\t// in\n    tag_314:\n        /* \"#utility.yul\":1312:1373   */\n      tag_315\n        /* \"#utility.yul\":1366:1372   */\n      dup2\n        /* \"#utility.yul\":1361:1364   */\n      dup6\n        /* \"#utility.yul\":1312:1373   */\n      tag_239\n      jump\t// in\n    tag_315:\n        /* \"#utility.yul\":1305:1373   */\n      swap4\n      pop\n        /* \"#utility.yul\":1382:1447   */\n      tag_316\n        /* \"#utility.yul\":1440:1446   */\n      dup2\n        /* \"#utility.yul\":1435:1438   */\n      dup6\n        /* \"#utility.yul\":1428:1432   */\n      0x20\n        /* \"#utility.yul\":1421:1426   */\n      dup7\n        /* \"#utility.yul\":1417:1433   */\n      add\n        /* \"#utility.yul\":1382:1447   */\n      tag_240\n      jump\t// in\n    tag_316:\n        /* \"#utility.yul\":1472:1501   */\n      tag_317\n        /* \"#utility.yul\":1494:1500   */\n      dup2\n        /* \"#utility.yul\":1472:1501   */\n      tag_241\n      jump\t// in\n    tag_317:\n        /* \"#utility.yul\":1467:1470   */\n      dup5\n        /* \"#utility.yul\":1463:1502   */\n      add\n        /* \"#utility.yul\":1456:1502   */\n      swap2\n      pop\n        /* \"#utility.yul\":1233:1508   */\n      pop\n        /* \"#utility.yul\":1151:1508   */\n      swap3\n      swap2\n      pop\n      pop\n      jump\t// out\n        /* \"#utility.yul\":1570:2230   */\n    tag_243:\n        /* \"#utility.yul\":1673:1676   */\n      0x00\n        /* \"#utility.yul\":1709:1713   */\n      0x40\n        /* \"#utility.yul\":1704:1707   */\n      dup4\n        /* \"#utility.yul\":1700:1714   */\n      add\n        /* \"#utility.yul\":1795:1799   */\n      0x00\n        /* \"#utility.yul\":1788:1793   */\n      dup4\n        /* \"#utility.yul\":1784:1800   */\n      add\n        /* \"#utility.yul\":1778:1801   */\n      mload\n        /* \"#utility.yul\":1848:1851   */\n      dup5\n        /* \"#utility.yul\":1842:1846   */\n      dup3\n        /* \"#utility.yul\":1838:1852   */\n      sub\n        /* \"#utility.yul\":1831:1835   */\n      0x00\n        /* \"#utility.yul\":1826:1829   */\n      dup7\n        /* \"#utility.yul\":1822:1836   */\n      add\n        /* \"#utility.yul\":1815:1853   */\n      mstore\n        /* \"#utility.yul\":1874:1947   */\n      tag_319\n        /* \"#utility.yul\":1942:1946   */\n      dup3\n        /* \"#utility.yul\":1928:1940   */\n      dup3\n        /* \"#utility.yul\":1874:1947   */\n      tag_242\n      jump\t// in\n    tag_319:\n        /* \"#utility.yul\":1866:1947   */\n      swap2\n      pop\n        /* \"#utility.yul\":1724:1958   */\n      pop\n        /* \"#utility.yul\":2040:2044   */\n      0x20\n        /* \"#utility.yul\":2033:2038   */\n      dup4\n        /* \"#utility.yul\":2029:2045   */\n      add\n        /* \"#utility.yul\":2023:2046   */\n      mload\n        /* \"#utility.yul\":2093:2096   */\n      dup5\n        /* \"#utility.yul\":2087:2091   */\n      dup3\n        /* \"#utility.yul\":2083:2097   */\n      sub\n        /* \"#utility.yul\":2076:2080   */\n      0x20\n        /* \"#utility.yul\":2071:2074   */\n      dup7\n        /* \"#utility.yul\":2067:2081   */\n      add\n        /* \"#utility.yul\":2060:2098   */\n      mstore\n        /* \"#utility.yul\":2119:2192   */\n      tag_320\n        /* \"#utility.yul\":2187:2191   */\n      dup3\n        /* \"#utility.yul\":2173:2185   */\n      dup3\n        /* \"#utility.yul\":2119:2192   */\n      tag_242\n      jump\t// in\n    tag_320:\n        /* \"#utility.yul\":2111:2192   */\n      swap2\n      pop\n        /* \"#utility.yul\":1968:2203   */\n      pop\n        /* \"#utility.yul\":2220:2224   */\n      dup1\n        /* \"#utility.yul\":2213:2224   */\n      swap2\n      pop\n        /* \"#utility.yul\":1678:2230   */\n      pop\n        /* \"#utility.yul\":1570:2230   */\n      swap3\n      swap2\n      pop\n      pop\n      jump\t// out\n        /* \"#utility.yul\":2236:2480   */\n    tag_244:\n        /* \"#utility.yul\":2349:2359   */\n      0x00\n        /* \"#utility.yul\":2384:2474   */\n      tag_322\n        /* \"#utility.yul\":2470:2473   */\n      dup4\n        /* \"#utility.yul\":2462:2468   */\n      dup4\n        /* \"#utility.yul\":2384:2474   */\n      tag_243\n      jump\t// in\n    tag_322:\n        /* \"#utility.yul\":2370:2474   */\n      swap1\n      pop\n        /* \"#utility.yul\":2236:2480   */\n      swap3\n      swap2\n      pop\n      pop\n      jump\t// out\n        /* \"#utility.yul\":2486:2621   */\n    tag_245:\n        /* \"#utility.yul\":2578:2582   */\n      0x00\n        /* \"#utility.yul\":2610:2614   */\n      0x20\n        /* \"#utility.yul\":2605:2608   */\n      dup3\n        /* \"#utility.yul\":2601:2615   */\n      add\n        /* \"#utility.yul\":2593:2615   */\n      swap1\n      pop\n        /* \"#utility.yul\":2486:2621   */\n      swap2\n      swap1\n      pop\n      jump\t// out\n        /* \"#utility.yul\":2687:3774   */\n    tag_246:\n        /* \"#utility.yul\":2850:2853   */\n      0x00\n        /* \"#utility.yul\":2879:2955   */\n      tag_325\n        /* \"#utility.yul\":2949:2954   */\n      dup3\n        /* \"#utility.yul\":2879:2955   */\n      tag_235\n      jump\t// in\n    tag_325:\n        /* \"#utility.yul\":2971:3079   */\n      tag_326\n        /* \"#utility.yul\":3072:3078   */\n      dup2\n        /* \"#utility.yul\":3067:3070   */\n      dup6\n        /* \"#utility.yul\":2971:3079   */\n      tag_236\n      jump\t// in\n    tag_326:\n        /* \"#utility.yul\":2964:3079   */\n      swap4\n      pop\n        /* \"#utility.yul\":3105:3108   */\n      dup4\n        /* \"#utility.yul\":3150:3154   */\n      0x20\n        /* \"#utility.yul\":3142:3148   */\n      dup3\n        /* \"#utility.yul\":3138:3155   */\n      mul\n        /* \"#utility.yul\":3133:3136   */\n      dup6\n        /* \"#utility.yul\":3129:3156   */\n      add\n        /* \"#utility.yul\":3180:3258   */\n      tag_327\n        /* \"#utility.yul\":3252:3257   */\n      dup6\n        /* \"#utility.yul\":3180:3258   */\n      tag_237\n      jump\t// in\n    tag_327:\n        /* \"#utility.yul\":3281:3288   */\n      dup1\n        /* \"#utility.yul\":3312:3313   */\n      0x00\n        /* \"#utility.yul\":3297:3729   */\n    tag_328:\n        /* \"#utility.yul\":3322:3328   */\n      dup6\n        /* \"#utility.yul\":3319:3320   */\n      dup2\n        /* \"#utility.yul\":3316:3329   */\n      lt\n        /* \"#utility.yul\":3297:3729   */\n      iszero\n      tag_330\n      jumpi\n        /* \"#utility.yul\":3393:3402   */\n      dup5\n        /* \"#utility.yul\":3387:3391   */\n      dup5\n        /* \"#utility.yul\":3383:3403   */\n      sub\n        /* \"#utility.yul\":3378:3381   */\n      dup10\n        /* \"#utility.yul\":3371:3404   */\n      mstore\n        /* \"#utility.yul\":3444:3450   */\n      dup2\n        /* \"#utility.yul\":3438:3451   */\n      mload\n        /* \"#utility.yul\":3472:3580   */\n      tag_331\n        /* \"#utility.yul\":3575:3579   */\n      dup6\n        /* \"#utility.yul\":3560:3573   */\n      dup3\n        /* \"#utility.yul\":3472:3580   */\n      tag_244\n      jump\t// in\n    tag_331:\n        /* \"#utility.yul\":3464:3580   */\n      swap5\n      pop\n        /* \"#utility.yul\":3603:3685   */\n      tag_332\n        /* \"#utility.yul\":3678:3684   */\n      dup4\n        /* \"#utility.yul\":3603:3685   */\n      tag_245\n      jump\t// in\n    tag_332:\n        /* \"#utility.yul\":3593:3685   */\n      swap3\n      pop\n        /* \"#utility.yul\":3714:3718   */\n      0x20\n        /* \"#utility.yul\":3709:3712   */\n      dup11\n        /* \"#utility.yul\":3705:3719   */\n      add\n        /* \"#utility.yul\":3698:3719   */\n      swap10\n      pop\n        /* \"#utility.yul\":3357:3729   */\n      pop\n        /* \"#utility.yul\":3344:3345   */\n      0x01\n        /* \"#utility.yul\":3341:3342   */\n      dup2\n        /* \"#utility.yul\":3337:3346   */\n      add\n        /* \"#utility.yul\":3332:3346   */\n      swap1\n      pop\n        /* \"#utility.yul\":3297:3729   */\n      jump(tag_328)\n    tag_330:\n        /* \"#utility.yul\":3301:3315   */\n      pop\n        /* \"#utility.yul\":3745:3749   */\n      dup3\n        /* \"#utility.yul\":3738:3749   */\n      swap8\n      pop\n        /* \"#utility.yul\":3765:3768   */\n      dup8\n        /* \"#utility.yul\":3758:3768   */\n      swap6\n      pop\n        /* \"#utility.yul\":2855:3774   */\n      pop\n      pop\n      pop\n      pop\n      pop\n        /* \"#utility.yul\":2687:3774   */\n      swap3\n      swap2\n      pop\n      pop\n      jump\t// out\n        /* \"#utility.yul\":3780:4241   */\n    tag_24:\n        /* \"#utility.yul\":3967:3971   */\n      0x00\n        /* \"#utility.yul\":4005:4007   */\n      0x20\n        /* \"#utility.yul\":3994:4003   */\n      dup3\n        /* \"#utility.yul\":3990:4008   */\n      add\n        /* \"#utility.yul\":3982:4008   */\n      swap1\n      pop\n        /* \"#utility.yul\":4054:4063   */\n      dup2\n        /* \"#utility.yul\":4048:4052   */\n      dup2\n        /* \"#utility.yul\":4044:4064   */\n      sub\n        /* \"#utility.yul\":4040:4041   */\n      0x00\n        /* \"#utility.yul\":4029:4038   */\n      dup4\n        /* \"#utility.yul\":4025:4042   */\n      add\n        /* \"#utility.yul\":4018:4065   */\n      mstore\n        /* \"#utility.yul\":4082:4234   */\n      tag_334\n        /* \"#utility.yul\":4229:4233   */\n      dup2\n        /* \"#utility.yul\":4220:4226   */\n      dup5\n        /* \"#utility.yul\":4082:4234   */\n      tag_246\n      jump\t// in\n    tag_334:\n        /* \"#utility.yul\":4074:4234   */\n      swap1\n      pop\n        /* \"#utility.yul\":3780:4241   */\n      swap3\n      swap2\n      pop\n      pop\n      jump\t// out\n        /* \"#utility.yul\":4247:4416   */\n    tag_247:\n        /* \"#utility.yul\":4331:4342   */\n      0x00\n        /* \"#utility.yul\":4365:4371   */\n      dup3\n        /* \"#utility.yul\":4360:4363   */\n      dup3\n        /* \"#utility.yul\":4353:4372   */\n      mstore\n        /* \"#utility.yul\":4405:4409   */\n      0x20\n        /* \"#utility.yul\":4400:4403   */\n      dup3\n        /* \"#utility.yul\":4396:4410   */\n      add\n        /* \"#utility.yul\":4381:4410   */\n      swap1\n      pop\n        /* \"#utility.yul\":4247:4416   */\n      swap3\n      swap2\n      pop\n      pop\n      jump\t// out\n        /* \"#utility.yul\":4422:4799   */\n    tag_248:\n        /* \"#utility.yul\":4510:4513   */\n      0x00\n        /* \"#utility.yul\":4538:4577   */\n      tag_337\n        /* \"#utility.yul\":4571:4576   */\n      dup3\n        /* \"#utility.yul\":4538:4577   */\n      tag_238\n      jump\t// in\n    tag_337:\n        /* \"#utility.yul\":4593:4664   */\n      tag_338\n        /* \"#utility.yul\":4657:4663   */\n      dup2\n        /* \"#utility.yul\":4652:4655   */\n      dup6\n        /* \"#utility.yul\":4593:4664   */\n      tag_247\n      jump\t// in\n    tag_338:\n        /* \"#utility.yul\":4586:4664   */\n      swap4\n      pop\n        /* \"#utility.yul\":4673:4738   */\n      tag_339\n        /* \"#utility.yul\":4731:4737   */\n      dup2\n        /* \"#utility.yul\":4726:4729   */\n      dup6\n        /* \"#utility.yul\":4719:4723   */\n      0x20\n        /* \"#utility.yul\":4712:4717   */\n      dup7\n        /* \"#utility.yul\":4708:4724   */\n      add\n        /* \"#utility.yul\":4673:4738   */\n      tag_240\n      jump\t// in\n    tag_339:\n        /* \"#utility.yul\":4763:4792   */\n      tag_340\n        /* \"#utility.yul\":4785:4791   */\n      dup2\n        /* \"#utility.yul\":4763:4792   */\n      tag_241\n      jump\t// in\n    tag_340:\n        /* \"#utility.yul\":4758:4761   */\n      dup5\n        /* \"#utility.yul\":4754:4793   */\n      add\n        /* \"#utility.yul\":4747:4793   */\n      swap2\n      pop\n        /* \"#utility.yul\":4514:4799   */\n      pop\n        /* \"#utility.yul\":4422:4799   */\n      swap3\n      swap2\n      pop\n      pop\n      jump\t// out\n        /* \"#utility.yul\":4805:5118   */\n    tag_28:\n        /* \"#utility.yul\":4918:4922   */\n      0x00\n        /* \"#utility.yul\":4956:4958   */\n      0x20\n        /* \"#utility.yul\":4945:4954   */\n      dup3\n        /* \"#utility.yul\":4941:4959   */\n      add\n        /* \"#utility.yul\":4933:4959   */\n      swap1\n      pop\n        /* \"#utility.yul\":5005:5014   */\n      dup2\n        /* \"#utility.yul\":4999:5003   */\n      dup2\n        /* \"#utility.yul\":4995:5015   */\n      sub\n        /* \"#utility.yul\":4991:4992   */\n      0x00\n        /* \"#utility.yul\":4980:4989   */\n      dup4\n        /* \"#utility.yul\":4976:4993   */\n      add\n        /* \"#utility.yul\":4969:5016   */\n      mstore\n        /* \"#utility.yul\":5033:5111   */\n      tag_342\n        /* \"#utility.yul\":5106:5110   */\n      dup2\n        /* \"#utility.yul\":5097:5103   */\n      dup5\n        /* \"#utility.yul\":5033:5111   */\n      tag_248\n      jump\t// in\n    tag_342:\n        /* \"#utility.yul\":5025:5111   */\n      swap1\n      pop\n        /* \"#utility.yul\":4805:5118   */\n      swap3\n      swap2\n      pop\n      pop\n      jump\t// out\n        /* \"#utility.yul\":5205:5322   */\n    tag_250:\n        /* \"#utility.yul\":5314:5315   */\n      0x00\n        /* \"#utility.yul\":5311:5312   */\n      dup1\n        /* \"#utility.yul\":5304:5316   */\n      revert\n        /* \"#utility.yul\":5451:5577   */\n    tag_252:\n        /* \"#utility.yul\":5488:5495   */\n      0x00\n        /* \"#utility.yul\":5528:5570   */\n      0xffffffffffffffffffffffffffffffffffffffff\n        /* \"#utility.yul\":5521:5526   */\n      dup3\n        /* \"#utility.yul\":5517:5571   */\n      and\n        /* \"#utility.yul\":5506:5571   */\n      swap1\n      pop\n        /* \"#utility.yul\":5451:5577   */\n      swap2\n      swap1\n      pop\n      jump\t// out\n        /* \"#utility.yul\":5583:5679   */\n    tag_253:\n        /* \"#utility.yul\":5620:5627   */\n      0x00\n        /* \"#utility.yul\":5649:5673   */\n      tag_348\n        /* \"#utility.yul\":5667:5672   */\n      dup3\n        /* \"#utility.yul\":5649:5673   */\n      tag_252\n      jump\t// in\n    tag_348:\n        /* \"#utility.yul\":5638:5673   */\n      swap1\n      pop\n        /* \"#utility.yul\":5583:5679   */\n      swap2\n      swap1\n      pop\n      jump\t// out\n        /* \"#utility.yul\":5685:5807   */\n    tag_254:\n        /* \"#utility.yul\":5758:5782   */\n      tag_350\n        /* \"#utility.yul\":5776:5781   */\n      dup2\n        /* \"#utility.yul\":5758:5782   */\n      tag_253\n      jump\t// in\n    tag_350:\n        /* \"#utility.yul\":5751:5756   */\n      dup2\n        /* \"#utility.yul\":5748:5783   */\n      eq\n        /* \"#utility.yul\":5738:5801   */\n      tag_351\n      jumpi\n        /* \"#utility.yul\":5797:5798   */\n      0x00\n        /* \"#utility.yul\":5794:5795   */\n      dup1\n        /* \"#utility.yul\":5787:5799   */\n      revert\n        /* \"#utility.yul\":5738:5801   */\n    tag_351:\n        /* \"#utility.yul\":5685:5807   */\n      pop\n      jump\t// out\n        /* \"#utility.yul\":5813:5952   */\n    tag_255:\n        /* \"#utility.yul\":5859:5864   */\n      0x00\n        /* \"#utility.yul\":5897:5903   */\n      dup2\n        /* \"#utility.yul\":5884:5904   */\n      calldataload\n        /* \"#utility.yul\":5875:5904   */\n      swap1\n      pop\n        /* \"#utility.yul\":5913:5946   */\n      tag_353\n        /* \"#utility.yul\":5940:5945   */\n      dup2\n        /* \"#utility.yul\":5913:5946   */\n      tag_254\n      jump\t// in\n    tag_353:\n        /* \"#utility.yul\":5813:5952   */\n      swap3\n      swap2\n      pop\n      pop\n      jump\t// out\n        /* \"#utility.yul\":5958:6035   */\n    tag_256:\n        /* \"#utility.yul\":5995:6002   */\n      0x00\n        /* \"#utility.yul\":6024:6029   */\n      dup2\n        /* \"#utility.yul\":6013:6029   */\n      swap1\n      pop\n        /* \"#utility.yul\":5958:6035   */\n      swap2\n      swap1\n      pop\n      jump\t// out\n        /* \"#utility.yul\":6041:6163   */\n    tag_257:\n        /* \"#utility.yul\":6114:6138   */\n      tag_356\n        /* \"#utility.yul\":6132:6137   */\n      dup2\n        /* \"#utility.yul\":6114:6138   */\n      tag_256\n      jump\t// in\n    tag_356:\n        /* \"#utility.yul\":6107:6112   */\n      dup2\n        /* \"#utility.yul\":6104:6139   */\n      eq\n        /* \"#utility.yul\":6094:6157   */\n      tag_357\n      jumpi\n        /* \"#utility.yul\":6153:6154   */\n      0x00\n        /* \"#utility.yul\":6150:6151   */\n      dup1\n        /* \"#utility.yul\":6143:6155   */\n      revert\n        /* \"#utility.yul\":6094:6157   */\n    tag_357:\n        /* \"#utility.yul\":6041:6163   */\n      pop\n      jump\t// out\n        /* \"#utility.yul\":6169:6308   */\n    tag_258:\n        /* \"#utility.yul\":6215:6220   */\n      0x00\n        /* \"#utility.yul\":6253:6259   */\n      dup2\n        /* \"#utility.yul\":6240:6260   */\n      calldataload\n        /* \"#utility.yul\":6231:6260   */\n      swap1\n      pop\n        /* \"#utility.yul\":6269:6302   */\n      tag_359\n        /* \"#utility.yul\":6296:6301   */\n      dup2\n        /* \"#utility.yul\":6269:6302   */\n      tag_257\n      jump\t// in\n    tag_359:\n        /* \"#utility.yul\":6169:6308   */\n      swap3\n      swap2\n      pop\n      pop\n      jump\t// out\n        /* \"#utility.yul\":6314:6788   */\n    tag_31:\n        /* \"#utility.yul\":6382:6388   */\n      0x00\n        /* \"#utility.yul\":6390:6396   */\n      dup1\n        /* \"#utility.yul\":6439:6441   */\n      0x40\n        /* \"#utility.yul\":6427:6436   */\n      dup4\n        /* \"#utility.yul\":6418:6425   */\n      dup6\n        /* \"#utility.yul\":6414:6437   */\n      sub\n        /* \"#utility.yul\":6410:6442   */\n      slt\n        /* \"#utility.yul\":6407:6526   */\n      iszero\n      tag_361\n      jumpi\n        /* \"#utility.yul\":6445:6524   */\n      tag_362\n      tag_250\n      jump\t// in\n    tag_362:\n        /* \"#utility.yul\":6407:6526   */\n    tag_361:\n        /* \"#utility.yul\":6565:6566   */\n      0x00\n        /* \"#utility.yul\":6590:6643   */\n      tag_363\n        /* \"#utility.yul\":6635:6642   */\n      dup6\n        /* \"#utility.yul\":6626:6632   */\n      dup3\n        /* \"#utility.yul\":6615:6624   */\n      dup7\n        /* \"#utility.yul\":6611:6633   */\n      add\n        /* \"#utility.yul\":6590:6643   */\n      tag_255\n      jump\t// in\n    tag_363:\n        /* \"#utility.yul\":6580:6643   */\n      swap3\n      pop\n        /* \"#utility.yul\":6536:6653   */\n      pop\n        /* \"#utility.yul\":6692:6694   */\n      0x20\n        /* \"#utility.yul\":6718:6771   */\n      tag_364\n        /* \"#utility.yul\":6763:6770   */\n      dup6\n        /* \"#utility.yul\":6754:6760   */\n      dup3\n        /* \"#utility.yul\":6743:6752   */\n      dup7\n        /* \"#utility.yul\":6739:6761   */\n      add\n        /* \"#utility.yul\":6718:6771   */\n      tag_258\n      jump\t// in\n    tag_364:\n        /* \"#utility.yul\":6708:6771   */\n      swap2\n      pop\n        /* \"#utility.yul\":6663:6781   */\n      pop\n        /* \"#utility.yul\":6314:6788   */\n      swap3\n      pop\n      swap3\n      swap1\n      pop\n      jump\t// out\n        /* \"#utility.yul\":6794:6884   */\n    tag_259:\n        /* \"#utility.yul\":6828:6835   */\n      0x00\n        /* \"#utility.yul\":6871:6876   */\n      dup2\n        /* \"#utility.yul\":6864:6877   */\n      iszero\n        /* \"#utility.yul\":6857:6878   */\n      iszero\n        /* \"#utility.yul\":6846:6878   */\n      swap1\n      pop\n        /* \"#utility.yul\":6794:6884   */\n      swap2\n      swap1\n      pop\n      jump\t// out\n        /* \"#utility.yul\":6890:6999   */\n    tag_260:\n        /* \"#utility.yul\":6971:6992   */\n      tag_367\n        /* \"#utility.yul\":6986:6991   */\n      dup2\n        /* \"#utility.yul\":6971:6992   */\n      tag_259\n      jump\t// in\n    tag_367:\n        /* \"#utility.yul\":6966:6969   */\n      dup3\n        /* \"#utility.yul\":6959:6993   */\n      mstore\n        /* \"#utility.yul\":6890:6999   */\n      pop\n      pop\n      jump\t// out\n        /* \"#utility.yul\":7005:7215   */\n    tag_34:\n        /* \"#utility.yul\":7092:7096   */\n      0x00\n        /* \"#utility.yul\":7130:7132   */\n      0x20\n        /* \"#utility.yul\":7119:7128   */\n      dup3\n        /* \"#utility.yul\":7115:7133   */\n      add\n        /* \"#utility.yul\":7107:7133   */\n      swap1\n      pop\n        /* \"#utility.yul\":7143:7208   */\n      tag_369\n        /* \"#utility.yul\":7205:7206   */\n      0x00\n        /* \"#utility.yul\":7194:7203   */\n      dup4\n        /* \"#utility.yul\":7190:7207   */\n      add\n        /* \"#utility.yul\":7181:7187   */\n      dup5\n        /* \"#utility.yul\":7143:7208   */\n      tag_260\n      jump\t// in\n    tag_369:\n        /* \"#utility.yul\":7005:7215   */\n      swap3\n      swap2\n      pop\n      pop\n      jump\t// out\n        /* \"#utility.yul\":7221:7339   */\n    tag_261:\n        /* \"#utility.yul\":7308:7332   */\n      tag_371\n        /* \"#utility.yul\":7326:7331   */\n      dup2\n        /* \"#utility.yul\":7308:7332   */\n      tag_256\n      jump\t// in\n    tag_371:\n        /* \"#utility.yul\":7303:7306   */\n      dup3\n        /* \"#utility.yul\":7296:7333   */\n      mstore\n        /* \"#utility.yul\":7221:7339   */\n      pop\n      pop\n      jump\t// out\n        /* \"#utility.yul\":7345:7567   */\n    tag_38:\n        /* \"#utility.yul\":7438:7442   */\n      0x00\n        /* \"#utility.yul\":7476:7478   */\n      0x20\n        /* \"#utility.yul\":7465:7474   */\n      dup3\n        /* \"#utility.yul\":7461:7479   */\n      add\n        /* \"#utility.yul\":7453:7479   */\n      swap1\n      pop\n        /* \"#utility.yul\":7489:7560   */\n      tag_373\n        /* \"#utility.yul\":7557:7558   */\n      0x00\n        /* \"#utility.yul\":7546:7555   */\n      dup4\n        /* \"#utility.yul\":7542:7559   */\n      add\n        /* \"#utility.yul\":7533:7539   */\n      dup5\n        /* \"#utility.yul\":7489:7560   */\n      tag_261\n      jump\t// in\n    tag_373:\n        /* \"#utility.yul\":7345:7567   */\n      swap3\n      swap2\n      pop\n      pop\n      jump\t// out\n        /* \"#utility.yul\":7573:8192   */\n    tag_41:\n        /* \"#utility.yul\":7650:7656   */\n      0x00\n        /* \"#utility.yul\":7658:7664   */\n      dup1\n        /* \"#utility.yul\":7666:7672   */\n      0x00\n        /* \"#utility.yul\":7715:7717   */\n      0x60\n        /* \"#utility.yul\":7703:7712   */\n      dup5\n        /* \"#utility.yul\":7694:7701   */\n      dup7\n        /* \"#utility.yul\":7690:7713   */\n      sub\n        /* \"#utility.yul\":7686:7718   */\n      slt\n        /* \"#utility.yul\":7683:7802   */\n      iszero\n      tag_375\n      jumpi\n        /* \"#utility.yul\":7721:7800   */\n      tag_376\n      tag_250\n      jump\t// in\n    tag_376:\n        /* \"#utility.yul\":7683:7802   */\n    tag_375:\n        /* \"#utility.yul\":7841:7842   */\n      0x00\n        /* \"#utility.yul\":7866:7919   */\n      tag_377\n        /* \"#utility.yul\":7911:7918   */\n      dup7\n        /* \"#utility.yul\":7902:7908   */\n      dup3\n        /* \"#utility.yul\":7891:7900   */\n      dup8\n        /* \"#utility.yul\":7887:7909   */\n      add\n        /* \"#utility.yul\":7866:7919   */\n      tag_255\n      jump\t// in\n    tag_377:\n        /* \"#utility.yul\":7856:7919   */\n      swap4\n      pop\n        /* \"#utility.yul\":7812:7929   */\n      pop\n        /* \"#utility.yul\":7968:7970   */\n      0x20\n        /* \"#utility.yul\":7994:8047   */\n      tag_378\n        /* \"#utility.yul\":8039:8046   */\n      dup7\n        /* \"#utility.yul\":8030:8036   */\n      dup3\n        /* \"#utility.yul\":8019:8028   */\n      dup8\n        /* \"#utility.yul\":8015:8037   */\n      add\n        /* \"#utility.yul\":7994:8047   */\n      tag_255\n      jump\t// in\n    tag_378:\n        /* \"#utility.yul\":7984:8047   */\n      swap3\n      pop\n        /* \"#utility.yul\":7939:8057   */\n      pop\n        /* \"#utility.yul\":8096:8098   */\n      0x40\n        /* \"#utility.yul\":8122:8175   */\n      tag_379\n        /* \"#utility.yul\":8167:8174   */\n      dup7\n        /* \"#utility.yul\":8158:8164   */\n      dup3\n        /* \"#utility.yul\":8147:8156   */\n      dup8\n        /* \"#utility.yul\":8143:8165   */\n      add\n        /* \"#utility.yul\":8122:8175   */\n      tag_258\n      jump\t// in\n    tag_379:\n        /* \"#utility.yul\":8112:8175   */\n      swap2\n      pop\n        /* \"#utility.yul\":8067:8185   */\n      pop\n        /* \"#utility.yul\":7573:8192   */\n      swap3\n      pop\n      swap3\n      pop\n      swap3\n      jump\t// out\n        /* \"#utility.yul\":8198:8284   */\n    tag_262:\n        /* \"#utility.yul\":8233:8240   */\n      0x00\n        /* \"#utility.yul\":8273:8277   */\n      0xff\n        /* \"#utility.yul\":8266:8271   */\n      dup3\n        /* \"#utility.yul\":8262:8278   */\n      and\n        /* \"#utility.yul\":8251:8278   */\n      swap1\n      pop\n        /* \"#utility.yul\":8198:8284   */\n      swap2\n      swap1\n      pop\n      jump\t// out\n        /* \"#utility.yul\":8290:8402   */\n    tag_263:\n        /* \"#utility.yul\":8373:8395   */\n      tag_382\n        /* \"#utility.yul\":8389:8394   */\n      dup2\n        /* \"#utility.yul\":8373:8395   */\n      tag_262\n      jump\t// in\n    tag_382:\n        /* \"#utility.yul\":8368:8371   */\n      dup3\n        /* \"#utility.yul\":8361:8396   */\n      mstore\n        /* \"#utility.yul\":8290:8402   */\n      pop\n      pop\n      jump\t// out\n        /* \"#utility.yul\":8408:8622   */\n    tag_47:\n        /* \"#utility.yul\":8497:8501   */\n      0x00\n        /* \"#utility.yul\":8535:8537   */\n      0x20\n        /* \"#utility.yul\":8524:8533   */\n      dup3\n        /* \"#utility.yul\":8520:8538   */\n      add\n        /* \"#utility.yul\":8512:8538   */\n      swap1\n      pop\n        /* \"#utility.yul\":8548:8615   */\n      tag_384\n        /* \"#utility.yul\":8612:8613   */\n      0x00\n        /* \"#utility.yul\":8601:8610   */\n      dup4\n        /* \"#utility.yul\":8597:8614   */\n      add\n        /* \"#utility.yul\":8588:8594   */\n      dup5\n        /* \"#utility.yul\":8548:8615   */\n      tag_263\n      jump\t// in\n    tag_384:\n        /* \"#utility.yul\":8408:8622   */\n      swap3\n      swap2\n      pop\n      pop\n      jump\t// out\n        /* \"#utility.yul\":8628:8957   */\n    tag_50:\n        /* \"#utility.yul\":8687:8693   */\n      0x00\n        /* \"#utility.yul\":8736:8738   */\n      0x20\n        /* \"#utility.yul\":8724:8733   */\n      dup3\n        /* \"#utility.yul\":8715:8722   */\n      dup5\n        /* \"#utility.yul\":8711:8734   */\n      sub\n        /* \"#utility.yul\":8707:8739   */\n      slt\n        /* \"#utility.yul\":8704:8823   */\n      iszero\n      tag_386\n      jumpi\n        /* \"#utility.yul\":8742:8821   */\n      tag_387\n      tag_250\n      jump\t// in\n    tag_387:\n        /* \"#utility.yul\":8704:8823   */\n    tag_386:\n        /* \"#utility.yul\":8862:8863   */\n      0x00\n        /* \"#utility.yul\":8887:8940   */\n      tag_388\n        /* \"#utility.yul\":8932:8939   */\n      dup5\n        /* \"#utility.yul\":8923:8929   */\n      dup3\n        /* \"#utility.yul\":8912:8921   */\n      dup6\n        /* \"#utility.yul\":8908:8930   */\n      add\n        /* \"#utility.yul\":8887:8940   */\n      tag_258\n      jump\t// in\n    tag_388:\n        /* \"#utility.yul\":8877:8940   */\n      swap2\n      pop\n        /* \"#utility.yul\":8833:8950   */\n      pop\n        /* \"#utility.yul\":8628:8957   */\n      swap3\n      swap2\n      pop\n      pop\n      jump\t// out\n        /* \"#utility.yul\":8963:9081   */\n    tag_264:\n        /* \"#utility.yul\":9050:9074   */\n      tag_390\n        /* \"#utility.yul\":9068:9073   */\n      dup2\n        /* \"#utility.yul\":9050:9074   */\n      tag_253\n      jump\t// in\n    tag_390:\n        /* \"#utility.yul\":9045:9048   */\n      dup3\n        /* \"#utility.yul\":9038:9075   */\n      mstore\n        /* \"#utility.yul\":8963:9081   */\n      pop\n      pop\n      jump\t// out\n        /* \"#utility.yul\":9087:9309   */\n    tag_53:\n        /* \"#utility.yul\":9180:9184   */\n      0x00\n        /* \"#utility.yul\":9218:9220   */\n      0x20\n        /* \"#utility.yul\":9207:9216   */\n      dup3\n        /* \"#utility.yul\":9203:9221   */\n      add\n        /* \"#utility.yul\":9195:9221   */\n      swap1\n      pop\n        /* \"#utility.yul\":9231:9302   */\n      tag_392\n        /* \"#utility.yul\":9299:9300   */\n      0x00\n        /* \"#utility.yul\":9288:9297   */\n      dup4\n        /* \"#utility.yul\":9284:9301   */\n      add\n        /* \"#utility.yul\":9275:9281   */\n      dup5\n        /* \"#utility.yul\":9231:9302   */\n      tag_264\n      jump\t// in\n    tag_392:\n        /* \"#utility.yul\":9087:9309   */\n      swap3\n      swap2\n      pop\n      pop\n      jump\t// out\n        /* \"#utility.yul\":9315:9829   */\n    tag_58:\n        /* \"#utility.yul\":9476:9480   */\n      0x00\n        /* \"#utility.yul\":9514:9516   */\n      0x40\n        /* \"#utility.yul\":9503:9512   */\n      dup3\n        /* \"#utility.yul\":9499:9517   */\n      add\n        /* \"#utility.yul\":9491:9517   */\n      swap1\n      pop\n        /* \"#utility.yul\":9563:9572   */\n      dup2\n        /* \"#utility.yul\":9557:9561   */\n      dup2\n        /* \"#utility.yul\":9553:9573   */\n      sub\n        /* \"#utility.yul\":9549:9550   */\n      0x00\n        /* \"#utility.yul\":9538:9547   */\n      dup4\n        /* \"#utility.yul\":9534:9551   */\n      add\n        /* \"#utility.yul\":9527:9574   */\n      mstore\n        /* \"#utility.yul\":9591:9669   */\n      tag_394\n        /* \"#utility.yul\":9664:9668   */\n      dup2\n        /* \"#utility.yul\":9655:9661   */\n      dup6\n        /* \"#utility.yul\":9591:9669   */\n      tag_248\n      jump\t// in\n    tag_394:\n        /* \"#utility.yul\":9583:9669   */\n      swap1\n      pop\n        /* \"#utility.yul\":9716:9725   */\n      dup2\n        /* \"#utility.yul\":9710:9714   */\n      dup2\n        /* \"#utility.yul\":9706:9726   */\n      sub\n        /* \"#utility.yul\":9701:9703   */\n      0x20\n        /* \"#utility.yul\":9690:9699   */\n      dup4\n        /* \"#utility.yul\":9686:9704   */\n      add\n        /* \"#utility.yul\":9679:9727   */\n      mstore\n        /* \"#utility.yul\":9744:9822   */\n      tag_395\n        /* \"#utility.yul\":9817:9821   */\n      dup2\n        /* \"#utility.yul\":9808:9814   */\n      dup5\n        /* \"#utility.yul\":9744:9822   */\n      tag_248\n      jump\t// in\n    tag_395:\n        /* \"#utility.yul\":9736:9822   */\n      swap1\n      pop\n        /* \"#utility.yul\":9315:9829   */\n      swap4\n      swap3\n      pop\n      pop\n      pop\n      jump\t// out\n        /* \"#utility.yul\":9835:9970   */\n    tag_265:\n        /* \"#utility.yul\":9923:9929   */\n      0x00\n        /* \"#utility.yul\":9957:9962   */\n      dup2\n        /* \"#utility.yul\":9951:9963   */\n      mload\n        /* \"#utility.yul\":9941:9963   */\n      swap1\n      pop\n        /* \"#utility.yul\":9835:9970   */\n      swap2\n      swap1\n      pop\n      jump\t// out\n        /* \"#utility.yul\":9976:10181   */\n    tag_266:\n        /* \"#utility.yul\":10096:10107   */\n      0x00\n        /* \"#utility.yul\":10130:10136   */\n      dup3\n        /* \"#utility.yul\":10125:10128   */\n      dup3\n        /* \"#utility.yul\":10118:10137   */\n      mstore\n        /* \"#utility.yul\":10170:10174   */\n      0x20\n        /* \"#utility.yul\":10165:10168   */\n      dup3\n        /* \"#utility.yul\":10161:10175   */\n      add\n        /* \"#utility.yul\":10146:10175   */\n      swap1\n      pop\n        /* \"#utility.yul\":9976:10181   */\n      swap3\n      swap2\n      pop\n      pop\n      jump\t// out\n        /* \"#utility.yul\":10187:10340   */\n    tag_267:\n        /* \"#utility.yul\":10275:10279   */\n      0x00\n        /* \"#utility.yul\":10298:10301   */\n      dup2\n        /* \"#utility.yul\":10290:10301   */\n      swap1\n      pop\n        /* \"#utility.yul\":10328:10332   */\n      0x20\n        /* \"#utility.yul\":10323:10326   */\n      dup3\n        /* \"#utility.yul\":10319:10333   */\n      add\n        /* \"#utility.yul\":10311:10333   */\n      swap1\n      pop\n        /* \"#utility.yul\":10187:10340   */\n      swap2\n      swap1\n      pop\n      jump\t// out\n        /* \"#utility.yul\":10346:10454   */\n    tag_268:\n        /* \"#utility.yul\":10423:10447   */\n      tag_400\n        /* \"#utility.yul\":10441:10446   */\n      dup2\n        /* \"#utility.yul\":10423:10447   */\n      tag_253\n      jump\t// in\n    tag_400:\n        /* \"#utility.yul\":10418:10421   */\n      dup3\n        /* \"#utility.yul\":10411:10448   */\n      mstore\n        /* \"#utility.yul\":10346:10454   */\n      pop\n      pop\n      jump\t// out\n        /* \"#utility.yul\":10514:10832   */\n    tag_269:\n        /* \"#utility.yul\":10643:10647   */\n      0x20\n        /* \"#utility.yul\":10638:10641   */\n      dup3\n        /* \"#utility.yul\":10634:10648   */\n      add\n        /* \"#utility.yul\":10733:10737   */\n      0x00\n        /* \"#utility.yul\":10726:10731   */\n      dup3\n        /* \"#utility.yul\":10722:10738   */\n      add\n        /* \"#utility.yul\":10716:10739   */\n      mload\n        /* \"#utility.yul\":10752:10815   */\n      tag_402\n        /* \"#utility.yul\":10809:10813   */\n      0x00\n        /* \"#utility.yul\":10804:10807   */\n      dup6\n        /* \"#utility.yul\":10800:10814   */\n      add\n        /* \"#utility.yul\":10786:10798   */\n      dup3\n        /* \"#utility.yul\":10752:10815   */\n      tag_268\n      jump\t// in\n    tag_402:\n        /* \"#utility.yul\":10658:10825   */\n      pop\n        /* \"#utility.yul\":10612:10832   */\n      pop\n        /* \"#utility.yul\":10514:10832   */\n      pop\n      pop\n      jump\t// out\n        /* \"#utility.yul\":10838:11101   */\n    tag_270:\n        /* \"#utility.yul\":10949:10959   */\n      0x00\n        /* \"#utility.yul\":10970:11058   */\n      tag_404\n        /* \"#utility.yul\":11054:11057   */\n      dup4\n        /* \"#utility.yul\":11046:11052   */\n      dup4\n        /* \"#utility.yul\":10970:11058   */\n      tag_269\n      jump\t// in\n    tag_404:\n        /* \"#utility.yul\":11090:11094   */\n      0x20\n        /* \"#utility.yul\":11085:11088   */\n      dup4\n        /* \"#utility.yul\":11081:11095   */\n      add\n        /* \"#utility.yul\":11067:11095   */\n      swap1\n      pop\n        /* \"#utility.yul\":10838:11101   */\n      swap3\n      swap2\n      pop\n      pop\n      jump\t// out\n        /* \"#utility.yul\":11107:11241   */\n    tag_271:\n        /* \"#utility.yul\":11198:11202   */\n      0x00\n        /* \"#utility.yul\":11230:11234   */\n      0x20\n        /* \"#utility.yul\":11225:11228   */\n      dup3\n        /* \"#utility.yul\":11221:11235   */\n      add\n        /* \"#utility.yul\":11213:11235   */\n      swap1\n      pop\n        /* \"#utility.yul\":11107:11241   */\n      swap2\n      swap1\n      pop\n      jump\t// out\n        /* \"#utility.yul\":11305:12205   */\n    tag_272:\n        /* \"#utility.yul\":11466:11469   */\n      0x00\n        /* \"#utility.yul\":11495:11570   */\n      tag_407\n        /* \"#utility.yul\":11564:11569   */\n      dup3\n        /* \"#utility.yul\":11495:11570   */\n      tag_265\n      jump\t// in\n    tag_407:\n        /* \"#utility.yul\":11586:11693   */\n      tag_408\n        /* \"#utility.yul\":11686:11692   */\n      dup2\n        /* \"#utility.yul\":11681:11684   */\n      dup6\n        /* \"#utility.yul\":11586:11693   */\n      tag_266\n      jump\t// in\n    tag_408:\n        /* \"#utility.yul\":11579:11693   */\n      swap4\n      pop\n        /* \"#utility.yul\":11717:11794   */\n      tag_409\n        /* \"#utility.yul\":11788:11793   */\n      dup4\n        /* \"#utility.yul\":11717:11794   */\n      tag_267\n      jump\t// in\n    tag_409:\n        /* \"#utility.yul\":11817:11824   */\n      dup1\n        /* \"#utility.yul\":11848:11849   */\n      0x00\n        /* \"#utility.yul\":11833:12180   */\n    tag_410:\n        /* \"#utility.yul\":11858:11864   */\n      dup4\n        /* \"#utility.yul\":11855:11856   */\n      dup2\n        /* \"#utility.yul\":11852:11865   */\n      lt\n        /* \"#utility.yul\":11833:12180   */\n      iszero\n      tag_412\n      jumpi\n        /* \"#utility.yul\":11934:11940   */\n      dup2\n        /* \"#utility.yul\":11928:11941   */\n      mload\n        /* \"#utility.yul\":11961:12066   */\n      tag_413\n        /* \"#utility.yul\":12062:12065   */\n      dup9\n        /* \"#utility.yul\":12047:12060   */\n      dup3\n        /* \"#utility.yul\":11961:12066   */\n      tag_270\n      jump\t// in\n    tag_413:\n        /* \"#utility.yul\":11954:12066   */\n      swap8\n      pop\n        /* \"#utility.yul\":12089:12170   */\n      tag_414\n        /* \"#utility.yul\":12163:12169   */\n      dup4\n        /* \"#utility.yul\":12089:12170   */\n      tag_271\n      jump\t// in\n    tag_414:\n        /* \"#utility.yul\":12079:12170   */\n      swap3\n      pop\n        /* \"#utility.yul\":11893:12180   */\n      pop\n        /* \"#utility.yul\":11880:11881   */\n      0x01\n        /* \"#utility.yul\":11877:11878   */\n      dup2\n        /* \"#utility.yul\":11873:11882   */\n      add\n        /* \"#utility.yul\":11868:11882   */\n      swap1\n      pop\n        /* \"#utility.yul\":11833:12180   */\n      jump(tag_410)\n    tag_412:\n        /* \"#utility.yul\":11837:11851   */\n      pop\n        /* \"#utility.yul\":12196:12199   */\n      dup6\n        /* \"#utility.yul\":12189:12199   */\n      swap4\n      pop\n        /* \"#utility.yul\":11471:12205   */\n      pop\n      pop\n      pop\n        /* \"#utility.yul\":11305:12205   */\n      swap3\n      swap2\n      pop\n      pop\n      jump\t// out\n        /* \"#utility.yul\":12211:12668   */\n    tag_62:\n        /* \"#utility.yul\":12396:12400   */\n      0x00\n        /* \"#utility.yul\":12434:12436   */\n      0x20\n        /* \"#utility.yul\":12423:12432   */\n      dup3\n        /* \"#utility.yul\":12419:12437   */\n      add\n        /* \"#utility.yul\":12411:12437   */\n      swap1\n      pop\n        /* \"#utility.yul\":12483:12492   */\n      dup2\n        /* \"#utility.yul\":12477:12481   */\n      dup2\n        /* \"#utility.yul\":12473:12493   */\n      sub\n        /* \"#utility.yul\":12469:12470   */\n      0x00\n        /* \"#utility.yul\":12458:12467   */\n      dup4\n        /* \"#utility.yul\":12454:12471   */\n      add\n        /* \"#utility.yul\":12447:12494   */\n      mstore\n        /* \"#utility.yul\":12511:12661   */\n      tag_416\n        /* \"#utility.yul\":12656:12660   */\n      dup2\n        /* \"#utility.yul\":12647:12653   */\n      dup5\n        /* \"#utility.yul\":12511:12661   */\n      tag_272\n      jump\t// in\n    tag_416:\n        /* \"#utility.yul\":12503:12661   */\n      swap1\n      pop\n        /* \"#utility.yul\":12211:12668   */\n      swap3\n      swap2\n      pop\n      pop\n      jump\t// out\n        /* \"#utility.yul\":12674:13003   */\n    tag_65:\n        /* \"#utility.yul\":12733:12739   */\n      0x00\n        /* \"#utility.yul\":12782:12784   */\n      0x20\n        /* \"#utility.yul\":12770:12779   */\n      dup3\n        /* \"#utility.yul\":12761:12768   */\n      dup5\n        /* \"#utility.yul\":12757:12780   */\n      sub\n        /* \"#utility.yul\":12753:12785   */\n      slt\n        /* \"#utility.yul\":12750:12869   */\n      iszero\n      tag_418\n      jumpi\n        /* \"#utility.yul\":12788:12867   */\n      tag_419\n      tag_250\n      jump\t// in\n    tag_419:\n        /* \"#utility.yul\":12750:12869   */\n    tag_418:\n        /* \"#utility.yul\":12908:12909   */\n      0x00\n        /* \"#utility.yul\":12933:12986   */\n      tag_420\n        /* \"#utility.yul\":12978:12985   */\n      dup5\n        /* \"#utility.yul\":12969:12975   */\n      dup3\n        /* \"#utility.yul\":12958:12967   */\n      dup6\n        /* \"#utility.yul\":12954:12976   */\n      add\n        /* \"#utility.yul\":12933:12986   */\n      tag_255\n      jump\t// in\n    tag_420:\n        /* \"#utility.yul\":12923:12986   */\n      swap2\n      pop\n        /* \"#utility.yul\":12879:12996   */\n      pop\n        /* \"#utility.yul\":12674:13003   */\n      swap3\n      swap2\n      pop\n      pop\n      jump\t// out\n        /* \"#utility.yul\":13009:13483   */\n    tag_82:\n        /* \"#utility.yul\":13077:13083   */\n      0x00\n        /* \"#utility.yul\":13085:13091   */\n      dup1\n        /* \"#utility.yul\":13134:13136   */\n      0x40\n        /* \"#utility.yul\":13122:13131   */\n      dup4\n        /* \"#utility.yul\":13113:13120   */\n      dup6\n        /* \"#utility.yul\":13109:13132   */\n      sub\n        /* \"#utility.yul\":13105:13137   */\n      slt\n        /* \"#utility.yul\":13102:13221   */\n      iszero\n      tag_422\n      jumpi\n        /* \"#utility.yul\":13140:13219   */\n      tag_423\n      tag_250\n      jump\t// in\n    tag_423:\n        /* \"#utility.yul\":13102:13221   */\n    tag_422:\n        /* \"#utility.yul\":13260:13261   */\n      0x00\n        /* \"#utility.yul\":13285:13338   */\n      tag_424\n        /* \"#utility.yul\":13330:13337   */\n      dup6\n        /* \"#utility.yul\":13321:13327   */\n      dup3\n        /* \"#utility.yul\":13310:13319   */\n      dup7\n        /* \"#utility.yul\":13306:13328   */\n      add\n        /* \"#utility.yul\":13285:13338   */\n      tag_255\n      jump\t// in\n    tag_424:\n        /* \"#utility.yul\":13275:13338   */\n      swap3\n      pop\n        /* \"#utility.yul\":13231:13348   */\n      pop\n        /* \"#utility.yul\":13387:13389   */\n      0x20\n        /* \"#utility.yul\":13413:13466   */\n      tag_425\n        /* \"#utility.yul\":13458:13465   */\n      dup6\n        /* \"#utility.yul\":13449:13455   */\n      dup3\n        /* \"#utility.yul\":13438:13447   */\n      dup7\n        /* \"#utility.yul\":13434:13456   */\n      add\n        /* \"#utility.yul\":13413:13466   */\n      tag_255\n      jump\t// in\n    tag_425:\n        /* \"#utility.yul\":13403:13466   */\n      swap2\n      pop\n        /* \"#utility.yul\":13358:13476   */\n      pop\n        /* \"#utility.yul\":13009:13483   */\n      swap3\n      pop\n      swap3\n      swap1\n      pop\n      jump\t// out\n        /* \"#utility.yul\":13489:13669   */\n    tag_273:\n        /* \"#utility.yul\":13537:13614   */\n      0x4e487b7100000000000000000000000000000000000000000000000000000000\n        /* \"#utility.yul\":13534:13535   */\n      0x00\n        /* \"#utility.yul\":13527:13615   */\n      mstore\n        /* \"#utility.yul\":13634:13638   */\n      0x22\n        /* \"#utility.yul\":13631:13632   */\n      0x04\n        /* \"#utility.yul\":13624:13639   */\n      mstore\n        /* \"#utility.yul\":13658:13662   */\n      0x24\n        /* \"#utility.yul\":13655:13656   */\n      0x00\n        /* \"#utility.yul\":13648:13663   */\n      revert\n        /* \"#utility.yul\":13675:13995   */\n    tag_90:\n        /* \"#utility.yul\":13719:13725   */\n      0x00\n        /* \"#utility.yul\":13756:13757   */\n      0x02\n        /* \"#utility.yul\":13750:13754   */\n      dup3\n        /* \"#utility.yul\":13746:13758   */\n      div\n        /* \"#utility.yul\":13736:13758   */\n      swap1\n      pop\n        /* \"#utility.yul\":13803:13804   */\n      0x01\n        /* \"#utility.yul\":13797:13801   */\n      dup3\n        /* \"#utility.yul\":13793:13805   */\n      and\n        /* \"#utility.yul\":13824:13842   */\n      dup1\n        /* \"#utility.yul\":13814:13895   */\n      tag_428\n      jumpi\n        /* \"#utility.yul\":13880:13884   */\n      0x7f\n        /* \"#utility.yul\":13872:13878   */\n      dup3\n        /* \"#utility.yul\":13868:13885   */\n      and\n        /* \"#utility.yul\":13858:13885   */\n      swap2\n      pop\n        /* \"#utility.yul\":13814:13895   */\n    tag_428:\n        /* \"#utility.yul\":13942:13944   */\n      0x20\n        /* \"#utility.yul\":13934:13940   */\n      dup3\n        /* \"#utility.yul\":13931:13945   */\n      lt\n        /* \"#utility.yul\":13911:13929   */\n      dup2\n        /* \"#utility.yul\":13908:13946   */\n      sub\n        /* \"#utility.yul\":13905:13989   */\n      tag_429\n      jumpi\n        /* \"#utility.yul\":13961:13979   */\n      tag_430\n      tag_273\n      jump\t// in\n    tag_430:\n        /* \"#utility.yul\":13905:13989   */\n    tag_429:\n        /* \"#utility.yul\":13726:13995   */\n      pop\n        /* \"#utility.yul\":13675:13995   */\n      swap2\n      swap1\n      pop\n      jump\t// out\n        /* \"#utility.yul\":14001:14181   */\n    tag_274:\n        /* \"#utility.yul\":14049:14126   */\n      0x4e487b7100000000000000000000000000000000000000000000000000000000\n        /* \"#utility.yul\":14046:14047   */\n      0x00\n        /* \"#utility.yul\":14039:14127   */\n      mstore\n        /* \"#utility.yul\":14146:14150   */\n      0x11\n        /* \"#utility.yul\":14143:14144   */\n      0x04\n        /* \"#utility.yul\":14136:14151   */\n      mstore\n        /* \"#utility.yul\":14170:14174   */\n      0x24\n        /* \"#utility.yul\":14167:14168   */\n      0x00\n        /* \"#utility.yul\":14160:14175   */\n      revert\n        /* \"#utility.yul\":14187:14289   */\n    tag_275:\n        /* \"#utility.yul\":14229:14237   */\n      0x00\n        /* \"#utility.yul\":14276:14281   */\n      dup2\n        /* \"#utility.yul\":14273:14274   */\n      0x01\n        /* \"#utility.yul\":14269:14282   */\n      shr\n        /* \"#utility.yul\":14248:14282   */\n      swap1\n      pop\n        /* \"#utility.yul\":14187:14289   */\n      swap2\n      swap1\n      pop\n      jump\t// out\n        /* \"#utility.yul\":14295:15143   */\n    tag_276:\n        /* \"#utility.yul\":14356:14361   */\n      0x00\n        /* \"#utility.yul\":14363:14367   */\n      dup1\n        /* \"#utility.yul\":14387:14393   */\n      dup3\n        /* \"#utility.yul\":14378:14393   */\n      swap2\n      pop\n        /* \"#utility.yul\":14411:14416   */\n      dup4\n        /* \"#utility.yul\":14402:14416   */\n      swap1\n      pop\n        /* \"#utility.yul\":14425:15137   */\n    tag_434:\n        /* \"#utility.yul\":14446:14447   */\n      0x01\n        /* \"#utility.yul\":14436:14444   */\n      dup6\n        /* \"#utility.yul\":14433:14448   */\n      gt\n        /* \"#utility.yul\":14425:15137   */\n      iszero\n      tag_436\n      jumpi\n        /* \"#utility.yul\":14541:14545   */\n      dup1\n        /* \"#utility.yul\":14536:14539   */\n      dup7\n        /* \"#utility.yul\":14532:14546   */\n      div\n        /* \"#utility.yul\":14526:14530   */\n      dup2\n        /* \"#utility.yul\":14523:14547   */\n      gt\n        /* \"#utility.yul\":14520:14570   */\n      iszero\n      tag_437\n      jumpi\n        /* \"#utility.yul\":14550:14568   */\n      tag_438\n      tag_274\n      jump\t// in\n    tag_438:\n        /* \"#utility.yul\":14520:14570   */\n    tag_437:\n        /* \"#utility.yul\":14600:14601   */\n      0x01\n        /* \"#utility.yul\":14590:14598   */\n      dup6\n        /* \"#utility.yul\":14586:14602   */\n      and\n        /* \"#utility.yul\":14583:15034   */\n      iszero\n      tag_439\n      jumpi\n        /* \"#utility.yul\":15015:15019   */\n      dup1\n        /* \"#utility.yul\":15008:15013   */\n      dup3\n        /* \"#utility.yul\":15004:15020   */\n      mul\n        /* \"#utility.yul\":14995:15020   */\n      swap2\n      pop\n        /* \"#utility.yul\":14583:15034   */\n    tag_439:\n        /* \"#utility.yul\":15065:15069   */\n      dup1\n        /* \"#utility.yul\":15059:15063   */\n      dup2\n        /* \"#utility.yul\":15055:15070   */\n      mul\n        /* \"#utility.yul\":15047:15070   */\n      swap1\n      pop\n        /* \"#utility.yul\":15095:15127   */\n      tag_440\n        /* \"#utility.yul\":15118:15126   */\n      dup6\n        /* \"#utility.yul\":15095:15127   */\n      tag_275\n      jump\t// in\n    tag_440:\n        /* \"#utility.yul\":15083:15127   */\n      swap5\n      pop\n        /* \"#utility.yul\":14425:15137   */\n      jump(tag_434)\n    tag_436:\n        /* \"#utility.yul\":14295:15143   */\n      swap5\n      pop\n      swap5\n      swap3\n      pop\n      pop\n      pop\n      jump\t// out\n        /* \"#utility.yul\":15149:16222   */\n    tag_277:\n        /* \"#utility.yul\":15203:15208   */\n      0x00\n        /* \"#utility.yul\":15394:15402   */\n      dup3\n        /* \"#utility.yul\":15384:15424   */\n      tag_442\n      jumpi\n        /* \"#utility.yul\":15415:15416   */\n      0x01\n        /* \"#utility.yul\":15406:15416   */\n      swap1\n      pop\n        /* \"#utility.yul\":15417:15422   */\n      jump(tag_441)\n        /* \"#utility.yul\":15384:15424   */\n    tag_442:\n        /* \"#utility.yul\":15443:15447   */\n      dup2\n        /* \"#utility.yul\":15433:15469   */\n      tag_443\n      jumpi\n        /* \"#utility.yul\":15460:15461   */\n      0x00\n        /* \"#utility.yul\":15451:15461   */\n      swap1\n      pop\n        /* \"#utility.yul\":15462:15467   */\n      jump(tag_441)\n        /* \"#utility.yul\":15433:15469   */\n    tag_443:\n        /* \"#utility.yul\":15529:15533   */\n      dup2\n        /* \"#utility.yul\":15577:15578   */\n      0x01\n        /* \"#utility.yul\":15572:15599   */\n      dup2\n      eq\n      tag_445\n      jumpi\n        /* \"#utility.yul\":15613:15614   */\n      0x02\n        /* \"#utility.yul\":15608:15799   */\n      dup2\n      eq\n      tag_446\n      jumpi\n        /* \"#utility.yul\":15522:15799   */\n      jump(tag_444)\n        /* \"#utility.yul\":15572:15599   */\n    tag_445:\n        /* \"#utility.yul\":15590:15591   */\n      0x01\n        /* \"#utility.yul\":15581:15591   */\n      swap2\n      pop\n        /* \"#utility.yul\":15592:15597   */\n      pop\n      jump(tag_441)\n        /* \"#utility.yul\":15608:15799   */\n    tag_446:\n        /* \"#utility.yul\":15653:15656   */\n      0xff\n        /* \"#utility.yul\":15643:15651   */\n      dup5\n        /* \"#utility.yul\":15640:15657   */\n      gt\n        /* \"#utility.yul\":15637:15680   */\n      iszero\n      tag_447\n      jumpi\n        /* \"#utility.yul\":15660:15678   */\n      tag_448\n      tag_274\n      jump\t// in\n    tag_448:\n        /* \"#utility.yul\":15637:15680   */\n    tag_447:\n        /* \"#utility.yul\":15709:15717   */\n      dup4\n        /* \"#utility.yul\":15706:15707   */\n      0x02\n        /* \"#utility.yul\":15702:15718   */\n      exp\n        /* \"#utility.yul\":15693:15718   */\n      swap2\n      pop\n        /* \"#utility.yul\":15744:15747   */\n      dup5\n        /* \"#utility.yul\":15737:15742   */\n      dup3\n        /* \"#utility.yul\":15734:15748   */\n      gt\n        /* \"#utility.yul\":15731:15771   */\n      iszero\n      tag_449\n      jumpi\n        /* \"#utility.yul\":15751:15769   */\n      tag_450\n      tag_274\n      jump\t// in\n    tag_450:\n        /* \"#utility.yul\":15731:15771   */\n    tag_449:\n        /* \"#utility.yul\":15784:15789   */\n      pop\n      jump(tag_441)\n        /* \"#utility.yul\":15522:15799   */\n    tag_444:\n      pop\n        /* \"#utility.yul\":15908:15910   */\n      0x20\n        /* \"#utility.yul\":15898:15906   */\n      dup4\n        /* \"#utility.yul\":15895:15911   */\n      lt\n        /* \"#utility.yul\":15889:15892   */\n      0x0133\n        /* \"#utility.yul\":15883:15887   */\n      dup4\n        /* \"#utility.yul\":15880:15893   */\n      lt\n        /* \"#utility.yul\":15876:15912   */\n      and\n        /* \"#utility.yul\":15858:15860   */\n      0x4e\n        /* \"#utility.yul\":15848:15856   */\n      dup5\n        /* \"#utility.yul\":15845:15861   */\n      lt\n        /* \"#utility.yul\":15840:15842   */\n      0x0b\n        /* \"#utility.yul\":15834:15838   */\n      dup5\n        /* \"#utility.yul\":15831:15843   */\n      lt\n        /* \"#utility.yul\":15827:15862   */\n      and\n        /* \"#utility.yul\":15811:15922   */\n      or\n        /* \"#utility.yul\":15808:16054   */\n      iszero\n      tag_451\n      jumpi\n        /* \"#utility.yul\":15964:15972   */\n      dup3\n        /* \"#utility.yul\":15958:15962   */\n      dup3\n        /* \"#utility.yul\":15954:15973   */\n      exp\n        /* \"#utility.yul\":15945:15973   */\n      swap1\n      pop\n        /* \"#utility.yul\":15999:16002   */\n      dup4\n        /* \"#utility.yul\":15992:15997   */\n      dup2\n        /* \"#utility.yul\":15989:16003   */\n      gt\n        /* \"#utility.yul\":15986:16026   */\n      iszero\n      tag_452\n      jumpi\n        /* \"#utility.yul\":16006:16024   */\n      tag_453\n      tag_274\n      jump\t// in\n    tag_453:\n        /* \"#utility.yul\":15986:16026   */\n    tag_452:\n        /* \"#utility.yul\":16039:16044   */\n      jump(tag_441)\n        /* \"#utility.yul\":15808:16054   */\n    tag_451:\n        /* \"#utility.yul\":16079:16121   */\n      tag_454\n        /* \"#utility.yul\":16117:16120   */\n      dup5\n        /* \"#utility.yul\":16107:16115   */\n      dup5\n        /* \"#utility.yul\":16101:16105   */\n      dup5\n        /* \"#utility.yul\":16098:16099   */\n      0x01\n        /* \"#utility.yul\":16079:16121   */\n      tag_276\n      jump\t// in\n    tag_454:\n        /* \"#utility.yul\":16064:16121   */\n      swap3\n      pop\n      swap1\n      pop\n        /* \"#utility.yul\":16153:16157   */\n      dup2\n        /* \"#utility.yul\":16148:16151   */\n      dup5\n        /* \"#utility.yul\":16144:16158   */\n      div\n        /* \"#utility.yul\":16137:16142   */\n      dup2\n        /* \"#utility.yul\":16134:16159   */\n      gt\n        /* \"#utility.yul\":16131:16182   */\n      iszero\n      tag_455\n      jumpi\n        /* \"#utility.yul\":16162:16180   */\n      tag_456\n      tag_274\n      jump\t// in\n    tag_456:\n        /* \"#utility.yul\":16131:16182   */\n    tag_455:\n        /* \"#utility.yul\":16211:16215   */\n      dup2\n        /* \"#utility.yul\":16204:16209   */\n      dup2\n        /* \"#utility.yul\":16200:16216   */\n      mul\n        /* \"#utility.yul\":16191:16216   */\n      swap1\n      pop\n        /* \"#utility.yul\":15149:16222   */\n    tag_441:\n      swap4\n      swap3\n      pop\n      pop\n      pop\n      jump\t// out\n        /* \"#utility.yul\":16228:16509   */\n    tag_142:\n        /* \"#utility.yul\":16286:16291   */\n      0x00\n        /* \"#utility.yul\":16310:16333   */\n      tag_458\n        /* \"#utility.yul\":16328:16332   */\n      dup3\n        /* \"#utility.yul\":16310:16333   */\n      tag_256\n      jump\t// in\n    tag_458:\n        /* \"#utility.yul\":16302:16333   */\n      swap2\n      pop\n        /* \"#utility.yul\":16354:16379   */\n      tag_459\n        /* \"#utility.yul\":16370:16378   */\n      dup4\n        /* \"#utility.yul\":16354:16379   */\n      tag_262\n      jump\t// in\n    tag_459:\n        /* \"#utility.yul\":16342:16379   */\n      swap3\n      pop\n        /* \"#utility.yul\":16398:16502   */\n      tag_460\n        /* \"#utility.yul\":16435:16501   */\n      0xffffffffffffffffffffffffffffffffffffffffffffffffffffffffffffffff\n        /* \"#utility.yul\":16425:16433   */\n      dup5\n        /* \"#utility.yul\":16419:16423   */\n      dup5\n        /* \"#utility.yul\":16398:16502   */\n      tag_277\n      jump\t// in\n    tag_460:\n        /* \"#utility.yul\":16389:16502   */\n      swap1\n      pop\n        /* \"#utility.yul\":16228:16509   */\n      swap3\n      swap2\n      pop\n      pop\n      jump\t// out\n        /* \"#utility.yul\":16515:16925   */\n    tag_144:\n        /* \"#utility.yul\":16555:16562   */\n      0x00\n        /* \"#utility.yul\":16578:16598   */\n      tag_462\n        /* \"#utility.yul\":16596:16597   */\n      dup3\n        /* \"#utility.yul\":16578:16598   */\n      tag_256\n      jump\t// in\n    tag_462:\n        /* \"#utility.yul\":16573:16598   */\n      swap2\n      pop\n        /* \"#utility.yul\":16612:16632   */\n      tag_463\n        /* \"#utility.yul\":16630:16631   */\n      dup4\n        /* \"#utility.yul\":16612:16632   */\n      tag_256\n      jump\t// in\n    tag_463:\n        /* \"#utility.yul\":16607:16632   */\n      swap3\n      pop\n        /* \"#utility.yul\":16667:16668   */\n      dup3\n        /* \"#utility.yul\":16664:16665   */\n      dup3\n        /* \"#utility.yul\":16660:16669   */\n      mul\n        /* \"#utility.yul\":16689:16719   */\n      tag_464\n        /* \"#utility.yul\":16707:16718   */\n      dup2\n        /* \"#utility.yul\":16689:16719   */\n      tag_256\n      jump\t// in\n    tag_464:\n        /* \"#utility.yul\":16678:16719   */\n      swap2\n      pop\n        /* \"#utility.yul\":16868:16869   */\n      dup3\n        /* \"#utility.yul\":16859:16866   */\n      dup3\n        /* \"#utility.yul\":16855:16870   */\n      div\n        /* \"#utility.yul\":16852:16853   */\n      dup5\n        /* \"#utility.yul\":16849:16871   */\n      eq\n        /* \"#utility.yul\":16829:16830   */\n      dup4\n        /* \"#utility.yul\":16822:16831   */\n      iszero\n        /* \"#utility.yul\":16802:16885   */\n      or\n        /* \"#utility.yul\":16779:16918   */\n      tag_465\n      jumpi\n        /* \"#utility.yul\":16898:16916   */\n      tag_466\n      tag_274\n      jump\t// in\n    tag_466:\n        /* \"#utility.yul\":16779:16918   */\n    tag_465:\n        /* \"#utility.yul\":16563:16925   */\n      pop\n        /* \"#utility.yul\":16515:16925   */\n      swap3\n      swap2\n      pop\n      pop\n      jump\t// out\n        /* \"#utility.yul\":16931:17010   */\n    tag_278:\n        /* \"#utility.yul\":16970:16977   */\n      0x00\n        /* \"#utility.yul\":16999:17004   */\n      dup2\n        /* \"#utility.yul\":16988:17004   */\n      swap1\n      pop\n        /* \"#utility.yul\":16931:17010   */\n      swap2\n      swap1\n      pop\n      jump\t// out\n        /* \"#utility.yul\":17016:17173   */\n    tag_279:\n        /* \"#utility.yul\":17121:17166   */\n      tag_469\n        /* \"#utility.yul\":17141:17165   */\n      tag_470\n        /* \"#utility.yul\":17159:17164   */\n      dup3\n        /* \"#utility.yul\":17141:17165   */\n      tag_256\n      jump\t// in\n    tag_470:\n        /* \"#utility.yul\":17121:17166   */\n      tag_278\n      jump\t// in\n    tag_469:\n        /* \"#utility.yul\":17116:17119   */\n      dup3\n        /* \"#utility.yul\":17109:17167   */\n      mstore\n        /* \"#utility.yul\":17016:17173   */\n      pop\n      pop\n      jump\t// out\n        /* \"#utility.yul\":17179:17283   */\n    tag_280:\n        /* \"#utility.yul\":17224:17231   */\n      0x00\n        /* \"#utility.yul\":17253:17277   */\n      tag_472\n        /* \"#utility.yul\":17271:17276   */\n      dup3\n        /* \"#utility.yul\":17253:17277   */\n      tag_252\n      jump\t// in\n    tag_472:\n        /* \"#utility.yul\":17242:17277   */\n      swap1\n      pop\n        /* \"#utility.yul\":17179:17283   */\n      swap2\n      swap1\n      pop\n      jump\t// out\n        /* \"#utility.yul\":17289:17383   */\n    tag_281:\n        /* \"#utility.yul\":17322:17330   */\n      0x00\n        /* \"#utility.yul\":17370:17375   */\n      dup2\n        /* \"#utility.yul\":17366:17368   */\n      0x60\n        /* \"#utility.yul\":17362:17376   */\n      shl\n        /* \"#utility.yul\":17341:17376   */\n      swap1\n      pop\n        /* \"#utility.yul\":17289:17383   */\n      swap2\n      swap1\n      pop\n      jump\t// out\n        /* \"#utility.yul\":17389:17483   */\n    tag_282:\n        /* \"#utility.yul\":17428:17435   */\n      0x00\n        /* \"#utility.yul\":17457:17477   */\n      tag_475\n        /* \"#utility.yul\":17471:17476   */\n      dup3\n        /* \"#utility.yul\":17457:17477   */\n      tag_281\n      jump\t// in\n    tag_475:\n        /* \"#utility.yul\":17446:17477   */\n      swap1\n      pop\n        /* \"#utility.yul\":17389:17483   */\n      swap2\n      swap1\n      pop\n      jump\t// out\n        /* \"#utility.yul\":17489:17597   */\n    tag_283:\n        /* \"#utility.yul\":17536:17543   */\n      0x00\n        /* \"#utility.yul\":17565:17591   */\n      tag_477\n        /* \"#utility.yul\":17585:17590   */\n      dup3\n        /* \"#utility.yul\":17565:17591   */\n      tag_282\n      jump\t// in\n    tag_477:\n        /* \"#utility.yul\":17554:17591   */\n      swap1\n      pop\n        /* \"#utility.yul\":17489:17597   */\n      swap2\n      swap1\n      pop\n      jump\t// out\n        /* \"#utility.yul\":17603:17792   */\n    tag_284:\n        /* \"#utility.yul\":17724:17785   */\n      tag_479\n        /* \"#utility.yul\":17752:17784   */\n      tag_480\n        /* \"#utility.yul\":17778:17783   */\n      dup3\n        /* \"#utility.yul\":17752:17784   */\n      tag_280\n      jump\t// in\n    tag_480:\n        /* \"#utility.yul\":17724:17785   */\n      tag_283\n      jump\t// in\n    tag_479:\n        /* \"#utility.yul\":17719:17722   */\n      dup3\n        /* \"#utility.yul\":17712:17786   */\n      mstore\n        /* \"#utility.yul\":17603:17792   */\n      pop\n      pop\n      jump\t// out\n        /* \"#utility.yul\":17798:18368   */\n    tag_161:\n        /* \"#utility.yul\":17982:17985   */\n      0x00\n        /* \"#utility.yul\":17997:18072   */\n      tag_482\n        /* \"#utility.yul\":18068:18071   */\n      dup3\n        /* \"#utility.yul\":18059:18065   */\n      dup7\n        /* \"#utility.yul\":17997:18072   */\n      tag_279\n      jump\t// in\n    tag_482:\n        /* \"#utility.yul\":18097:18099   */\n      0x20\n        /* \"#utility.yul\":18092:18095   */\n      dup3\n        /* \"#utility.yul\":18088:18100   */\n      add\n        /* \"#utility.yul\":18081:18100   */\n      swap2\n      pop\n        /* \"#utility.yul\":18110:18201   */\n      tag_483\n        /* \"#utility.yul\":18197:18200   */\n      dup3\n        /* \"#utility.yul\":18188:18194   */\n      dup6\n        /* \"#utility.yul\":18110:18201   */\n      tag_284\n      jump\t// in\n    tag_483:\n        /* \"#utility.yul\":18226:18228   */\n      0x14\n        /* \"#utility.yul\":18221:18224   */\n      dup3\n        /* \"#utility.yul\":18217:18229   */\n      add\n        /* \"#utility.yul\":18210:18229   */\n      swap2\n      pop\n        /* \"#utility.yul\":18239:18314   */\n      tag_484\n        /* \"#utility.yul\":18310:18313   */\n      dup3\n        /* \"#utility.yul\":18301:18307   */\n      dup5\n        /* \"#utility.yul\":18239:18314   */\n      tag_279\n      jump\t// in\n    tag_484:\n        /* \"#utility.yul\":18339:18341   */\n      0x20\n        /* \"#utility.yul\":18334:18337   */\n      dup3\n        /* \"#utility.yul\":18330:18342   */\n      add\n        /* \"#utility.yul\":18323:18342   */\n      swap2\n      pop\n        /* \"#utility.yul\":18359:18362   */\n      dup2\n        /* \"#utility.yul\":18352:18362   */\n      swap1\n      pop\n        /* \"#utility.yul\":17798:18368   */\n      swap5\n      swap4\n      pop\n      pop\n      pop\n      pop\n      jump\t// out\n        /* \"#utility.yul\":18374:18554   */\n    tag_285:\n        /* \"#utility.yul\":18422:18499   */\n      0x4e487b7100000000000000000000000000000000000000000000000000000000\n        /* \"#utility.yul\":18419:18420   */\n      0x00\n        /* \"#utility.yul\":18412:18500   */\n      mstore\n        /* \"#utility.yul\":18519:18523   */\n      0x12\n        /* \"#utility.yul\":18516:18517   */\n      0x04\n        /* \"#utility.yul\":18509:18524   */\n      mstore\n        /* \"#utility.yul\":18543:18547   */\n      0x24\n        /* \"#utility.yul\":18540:18541   */\n      0x00\n        /* \"#utility.yul\":18533:18548   */\n      revert\n        /* \"#utility.yul\":18560:18736   */\n    tag_163:\n        /* \"#utility.yul\":18592:18593   */\n      0x00\n        /* \"#utility.yul\":18609:18629   */\n      tag_487\n        /* \"#utility.yul\":18627:18628   */\n      dup3\n        /* \"#utility.yul\":18609:18629   */\n      tag_256\n      jump\t// in\n    tag_487:\n        /* \"#utility.yul\":18604:18629   */\n      swap2\n      pop\n        /* \"#utility.yul\":18643:18663   */\n      tag_488\n        /* \"#utility.yul\":18661:18662   */\n      dup4\n        /* \"#utility.yul\":18643:18663   */\n      tag_256\n      jump\t// in\n    tag_488:\n        /* \"#utility.yul\":18638:18663   */\n      swap3\n      pop\n        /* \"#utility.yul\":18682:18683   */\n      dup3\n        /* \"#utility.yul\":18672:18707   */\n      tag_489\n      jumpi\n        /* \"#utility.yul\":18687:18705   */\n      tag_490\n      tag_285\n      jump\t// in\n    tag_490:\n        /* \"#utility.yul\":18672:18707   */\n    tag_489:\n        /* \"#utility.yul\":18728:18729   */\n      dup3\n        /* \"#utility.yul\":18725:18726   */\n      dup3\n        /* \"#utility.yul\":18721:18730   */\n      mod\n        /* \"#utility.yul\":18716:18730   */\n      swap1\n      pop\n        /* \"#utility.yul\":18560:18736   */\n      swap3\n      swap2\n      pop\n      pop\n      jump\t// out\n        /* \"#utility.yul\":18742:18922   */\n    tag_166:\n        /* \"#utility.yul\":18790:18867   */\n      0x4e487b7100000000000000000000000000000000000000000000000000000000\n        /* \"#utility.yul\":18787:18788   */\n      0x00\n        /* \"#utility.yul\":18780:18868   */\n      mstore\n        /* \"#utility.yul\":18887:18891   */\n      0x32\n        /* \"#utility.yul\":18884:18885   */\n      0x04\n        /* \"#utility.yul\":18877:18892   */\n      mstore\n        /* \"#utility.yul\":18911:18915   */\n      0x24\n        /* \"#utility.yul\":18908:18909   */\n      0x00\n        /* \"#utility.yul\":18901:18916   */\n      revert\n        /* \"#utility.yul\":18928:19108   */\n    tag_286:\n        /* \"#utility.yul\":18976:19053   */\n      0x4e487b7100000000000000000000000000000000000000000000000000000000\n        /* \"#utility.yul\":18973:18974   */\n      0x00\n        /* \"#utility.yul\":18966:19054   */\n      mstore\n        /* \"#utility.yul\":19073:19077   */\n      0x41\n        /* \"#utility.yul\":19070:19071   */\n      0x04\n        /* \"#utility.yul\":19063:19078   */\n      mstore\n        /* \"#utility.yul\":19097:19101   */\n      0x24\n        /* \"#utility.yul\":19094:19095   */\n      0x00\n        /* \"#utility.yul\":19087:19102   */\n      revert\n        /* \"#utility.yul\":19114:19255   */\n    tag_287:\n        /* \"#utility.yul\":19163:19167   */\n      0x00\n        /* \"#utility.yul\":19186:19189   */\n      dup2\n        /* \"#utility.yul\":19178:19189   */\n      swap1\n      pop\n        /* \"#utility.yul\":19209:19212   */\n      dup2\n        /* \"#utility.yul\":19206:19207   */\n      0x00\n        /* \"#utility.yul\":19199:19213   */\n      mstore\n        /* \"#utility.yul\":19243:19247   */\n      0x20\n        /* \"#utility.yul\":19240:19241   */\n      0x00\n        /* \"#utility.yul\":19230:19248   */\n      keccak256\n        /* \"#utility.yul\":19222:19248   */\n      swap1\n      pop\n        /* \"#utility.yul\":19114:19255   */\n      swap2\n      swap1\n      pop\n      jump\t// out\n        /* \"#utility.yul\":19261:19354   */\n    tag_288:\n        /* \"#utility.yul\":19298:19304   */\n      0x00\n        /* \"#utility.yul\":19345:19347   */\n      0x20\n        /* \"#utility.yul\":19340:19342   */\n      0x1f\n        /* \"#utility.yul\":19333:19338   */\n      dup4\n        /* \"#utility.yul\":19329:19343   */\n      add\n        /* \"#utility.yul\":19325:19348   */\n      div\n        /* \"#utility.yul\":19315:19348   */\n      swap1\n      pop\n        /* \"#utility.yul\":19261:19354   */\n      swap2\n      swap1\n      pop\n      jump\t// out\n        /* \"#utility.yul\":19360:19467   */\n    tag_289:\n        /* \"#utility.yul\":19404:19412   */\n      0x00\n        /* \"#utility.yul\":19454:19459   */\n      dup3\n        /* \"#utility.yul\":19448:19452   */\n      dup3\n        /* \"#utility.yul\":19444:19460   */\n      shl\n        /* \"#utility.yul\":19423:19460   */\n      swap1\n      pop\n        /* \"#utility.yul\":19360:19467   */\n      swap3\n      swap2\n      pop\n      pop\n      jump\t// out\n        /* \"#utility.yul\":19473:19866   */\n    tag_290:\n        /* \"#utility.yul\":19542:19548   */\n      0x00\n        /* \"#utility.yul\":19592:19593   */\n      0x08\n        /* \"#utility.yul\":19580:19590   */\n      dup4\n        /* \"#utility.yul\":19576:19594   */\n      mul\n        /* \"#utility.yul\":19615:19712   */\n      tag_497\n        /* \"#utility.yul\":19645:19711   */\n      0xffffffffffffffffffffffffffffffffffffffffffffffffffffffffffffffff\n        /* \"#utility.yul\":19634:19643   */\n      dup3\n        /* \"#utility.yul\":19615:19712   */\n      tag_289\n      jump\t// in\n    tag_497:\n        /* \"#utility.yul\":19733:19772   */\n      tag_498\n        /* \"#utility.yul\":19763:19771   */\n      dup7\n        /* \"#utility.yul\":19752:19761   */\n      dup4\n        /* \"#utility.yul\":19733:19772   */\n      tag_289\n      jump\t// in\n    tag_498:\n        /* \"#utility.yul\":19721:19772   */\n      swap6\n      pop\n        /* \"#utility.yul\":19805:19809   */\n      dup1\n        /* \"#utility.yul\":19801:19810   */\n      not\n        /* \"#utility.yul\":19794:19799   */\n      dup5\n        /* \"#utility.yul\":19790:19811   */\n      and\n        /* \"#utility.yul\":19781:19811   */\n      swap4\n      pop\n        /* \"#utility.yul\":19854:19858   */\n      dup1\n        /* \"#utility.yul\":19844:19852   */\n      dup7\n        /* \"#utility.yul\":19840:19859   */\n      and\n        /* \"#utility.yul\":19833:19838   */\n      dup5\n        /* \"#utility.yul\":19830:19860   */\n      or\n        /* \"#utility.yul\":19820:19860   */\n      swap3\n      pop\n        /* \"#utility.yul\":19549:19866   */\n      pop\n      pop\n        /* \"#utility.yul\":19473:19866   */\n      swap4\n      swap3\n      pop\n      pop\n      pop\n      jump\t// out\n        /* \"#utility.yul\":19872:19932   */\n    tag_291:\n        /* \"#utility.yul\":19900:19903   */\n      0x00\n        /* \"#utility.yul\":19921:19926   */\n      dup2\n        /* \"#utility.yul\":19914:19926   */\n      swap1\n      pop\n        /* \"#utility.yul\":19872:19932   */\n      swap2\n      swap1\n      pop\n      jump\t// out\n        /* \"#utility.yul\":19938:20080   */\n    tag_292:\n        /* \"#utility.yul\":19988:19997   */\n      0x00\n        /* \"#utility.yul\":20021:20074   */\n      tag_501\n        /* \"#utility.yul\":20039:20073   */\n      tag_502\n        /* \"#utility.yul\":20048:20072   */\n      tag_503\n        /* \"#utility.yul\":20066:20071   */\n      dup5\n        /* \"#utility.yul\":20048:20072   */\n      tag_256\n      jump\t// in\n    tag_503:\n        /* \"#utility.yul\":20039:20073   */\n      tag_291\n      jump\t// in\n    tag_502:\n        /* \"#utility.yul\":20021:20074   */\n      tag_256\n      jump\t// in\n    tag_501:\n        /* \"#utility.yul\":20008:20074   */\n      swap1\n      pop\n        /* \"#utility.yul\":19938:20080   */\n      swap2\n      swap1\n      pop\n      jump\t// out\n        /* \"#utility.yul\":20086:20161   */\n    tag_293:\n        /* \"#utility.yul\":20129:20132   */\n      0x00\n        /* \"#utility.yul\":20150:20155   */\n      dup2\n        /* \"#utility.yul\":20143:20155   */\n      swap1\n      pop\n        /* \"#utility.yul\":20086:20161   */\n      swap2\n      swap1\n      pop\n      jump\t// out\n        /* \"#utility.yul\":20167:20436   */\n    tag_294:\n        /* \"#utility.yul\":20277:20316   */\n      tag_506\n        /* \"#utility.yul\":20308:20315   */\n      dup4\n        /* \"#utility.yul\":20277:20316   */\n      tag_292\n      jump\t// in\n    tag_506:\n        /* \"#utility.yul\":20338:20429   */\n      tag_507\n        /* \"#utility.yul\":20387:20428   */\n      tag_508\n        /* \"#utility.yul\":20411:20427   */\n      dup3\n        /* \"#utility.yul\":20387:20428   */\n      tag_293\n      jump\t// in\n    tag_508:\n        /* \"#utility.yul\":20379:20385   */\n      dup5\n        /* \"#utility.yul\":20372:20376   */\n      dup5\n        /* \"#utility.yul\":20366:20377   */\n      sload\n        /* \"#utility.yul\":20338:20429   */\n      tag_290\n      jump\t// in\n    tag_507:\n        /* \"#utility.yul\":20332:20336   */\n      dup3\n        /* \"#utility.yul\":20325:20430   */\n      sstore\n        /* \"#utility.yul\":20243:20436   */\n      pop\n        /* \"#utility.yul\":20167:20436   */\n      pop\n      pop\n      pop\n      jump\t// out\n        /* \"#utility.yul\":20442:20515   */\n    tag_295:\n        /* \"#utility.yul\":20487:20490   */\n      0x00\n        /* \"#utility.yul\":20442:20515   */\n      swap1\n      jump\t// out\n        /* \"#utility.yul\":20521:20710   */\n    tag_296:\n        /* \"#utility.yul\":20598:20630   */\n      tag_511\n      tag_295\n      jump\t// in\n    tag_511:\n        /* \"#utility.yul\":20639:20704   */\n      tag_512\n        /* \"#utility.yul\":20697:20703   */\n      dup2\n        /* \"#utility.yul\":20689:20695   */\n      dup5\n        /* \"#utility.yul\":20683:20687   */\n      dup5\n        /* \"#utility.yul\":20639:20704   */\n      tag_294\n      jump\t// in\n    tag_512:\n        /* \"#utility.yul\":20574:20710   */\n      pop\n        /* \"#utility.yul\":20521:20710   */\n      pop\n      pop\n      jump\t// out\n        /* \"#utility.yul\":20716:20902   */\n    tag_297:\n        /* \"#utility.yul\":20776:20896   */\n    tag_514:\n        /* \"#utility.yul\":20793:20796   */\n      dup2\n        /* \"#utility.yul\":20786:20791   */\n      dup2\n        /* \"#utility.yul\":20783:20797   */\n      lt\n        /* \"#utility.yul\":20776:20896   */\n      iszero\n      tag_516\n      jumpi\n        /* \"#utility.yul\":20847:20886   */\n      tag_517\n        /* \"#utility.yul\":20884:20885   */\n      0x00\n        /* \"#utility.yul\":20877:20882   */\n      dup3\n        /* \"#utility.yul\":20847:20886   */\n      tag_296\n      jump\t// in\n    tag_517:\n        /* \"#utility.yul\":20820:20821   */\n      0x01\n        /* \"#utility.yul\":20813:20818   */\n      dup2\n        /* \"#utility.yul\":20809:20822   */\n      add\n        /* \"#utility.yul\":20800:20822   */\n      swap1\n      pop\n        /* \"#utility.yul\":20776:20896   */\n      jump(tag_514)\n    tag_516:\n        /* \"#utility.yul\":20716:20902   */\n      pop\n      pop\n      jump\t// out\n        /* \"#utility.yul\":20908:21451   */\n    tag_298:\n        /* \"#utility.yul\":21009:21011   */\n      0x1f\n        /* \"#utility.yul\":21004:21007   */\n      dup3\n        /* \"#utility.yul\":21001:21012   */\n      gt\n        /* \"#utility.yul\":20998:21444   */\n      iszero\n      tag_519\n      jumpi\n        /* \"#utility.yul\":21043:21081   */\n      tag_520\n        /* \"#utility.yul\":21075:21080   */\n      dup2\n        /* \"#utility.yul\":21043:21081   */\n      tag_287\n      jump\t// in\n    tag_520:\n        /* \"#utility.yul\":21127:21156   */\n      tag_521\n        /* \"#utility.yul\":21145:21155   */\n      dup5\n        /* \"#utility.yul\":21127:21156   */\n      tag_288\n      jump\t// in\n    tag_521:\n        /* \"#utility.yul\":21117:21125   */\n      dup2\n        /* \"#utility.yul\":21113:21157   */\n      add\n        /* \"#utility.yul\":21310:21312   */\n      0x20\n        /* \"#utility.yul\":21298:21308   */\n      dup6\n        /* \"#utility.yul\":21295:21313   */\n      lt\n        /* \"#utility.yul\":21292:21341   */\n      iszero\n      tag_522\n      jumpi\n        /* \"#utility.yul\":21331:21339   */\n      dup2\n        /* \"#utility.yul\":21316:21339   */\n      swap1\n      pop\n        /* \"#utility.yul\":21292:21341   */\n    tag_522:\n        /* \"#utility.yul\":21354:21434   */\n      tag_523\n        /* \"#utility.yul\":21410:21432   */\n      tag_524\n        /* \"#utility.yul\":21428:21431   */\n      dup6\n        /* \"#utility.yul\":21410:21432   */\n      tag_288\n      jump\t// in\n    tag_524:\n        /* \"#utility.yul\":21400:21408   */\n      dup4\n        /* \"#utility.yul\":21396:21433   */\n      add\n        /* \"#utility.yul\":21383:21394   */\n      dup3\n        /* \"#utility.yul\":21354:21434   */\n      tag_297\n      jump\t// in\n    tag_523:\n        /* \"#utility.yul\":21013:21444   */\n      pop\n      pop\n        /* \"#utility.yul\":20998:21444   */\n    tag_519:\n        /* \"#utility.yul\":20908:21451   */\n      pop\n      pop\n      pop\n      jump\t// out\n        /* \"#utility.yul\":21457:21574   */\n    tag_299:\n        /* \"#utility.yul\":21511:21519   */\n      0x00\n        /* \"#utility.yul\":21561:21566   */\n      dup3\n        /* \"#utility.yul\":21555:21559   */\n      dup3\n        /* \"#utility.yul\":21551:21567   */\n      shr\n        /* \"#utility.yul\":21530:21567   */\n      swap1\n      pop\n        /* \"#utility.yul\":21457:21574   */\n      swap3\n      swap2\n      pop\n      pop\n      jump\t// out\n        /* \"#utility.yul\":21580:21749   */\n    tag_300:\n        /* \"#utility.yul\":21624:21630   */\n      0x00\n        /* \"#utility.yul\":21657:21708   */\n      tag_527\n        /* \"#utility.yul\":21705:21706   */\n      0x00\n        /* \"#utility.yul\":21701:21707   */\n      not\n        /* \"#utility.yul\":21693:21698   */\n      dup5\n        /* \"#utility.yul\":21690:21691   */\n      0x08\n        /* \"#utility.yul\":21686:21699   */\n      mul\n        /* \"#utility.yul\":21657:21708   */\n      tag_299\n      jump\t// in\n    tag_527:\n        /* \"#utility.yul\":21653:21709   */\n      not\n        /* \"#utility.yul\":21738:21742   */\n      dup1\n        /* \"#utility.yul\":21732:21736   */\n      dup4\n        /* \"#utility.yul\":21728:21743   */\n      and\n        /* \"#utility.yul\":21718:21743   */\n      swap2\n      pop\n        /* \"#utility.yul\":21631:21749   */\n      pop\n        /* \"#utility.yul\":21580:21749   */\n      swap3\n      swap2\n      pop\n      pop\n      jump\t// out\n        /* \"#utility.yul\":21754:22049   */\n    tag_301:\n        /* \"#utility.yul\":21830:21834   */\n      0x00\n        /* \"#utility.yul\":21976:22005   */\n      tag_529\n        /* \"#utility.yul\":22001:22004   */\n      dup4\n        /* \"#utility.yul\":21995:21999   */\n      dup4\n        /* \"#utility.yul\":21976:22005   */\n      tag_300\n      jump\t// in\n    tag_529:\n        /* \"#utility.yul\":21968:22005   */\n      swap2\n      pop\n        /* \"#utility.yul\":22038:22041   */\n      dup3\n        /* \"#utility.yul\":22035:22036   */\n      0x02\n        /* \"#utility.yul\":22031:22042   */\n      mul\n        /* \"#utility.yul\":22025:22029   */\n      dup3\n        /* \"#utility.yul\":22022:22043   */\n      or\n        /* \"#utility.yul\":22014:22043   */\n      swap1\n      pop\n        /* \"#utility.yul\":21754:22049   */\n      swap3\n      swap2\n      pop\n      pop\n      jump\t// out\n        /* \"#utility.yul\":22054:23449   */\n    tag_183:\n        /* \"#utility.yul\":22171:22208   */\n      tag_531\n        /* \"#utility.yul\":22204:22207   */\n      dup3\n        /* \"#utility.yul\":22171:22208   */\n      tag_238\n      jump\t// in\n    tag_531:\n        /* \"#utility.yul\":22273:22291   */\n      0xffffffffffffffff\n        /* \"#utility.yul\":22265:22271   */\n      dup2\n        /* \"#utility.yul\":22262:22292   */\n      gt\n        /* \"#utility.yul\":22259:22315   */\n      iszero\n      tag_532\n      jumpi\n        /* \"#utility.yul\":22295:22313   */\n      tag_533\n      tag_286\n      jump\t// in\n    tag_533:\n        /* \"#utility.yul\":22259:22315   */\n    tag_532:\n        /* \"#utility.yul\":22339:22377   */\n      tag_534\n        /* \"#utility.yul\":22371:22375   */\n      dup3\n        /* \"#utility.yul\":22365:22376   */\n      sload\n        /* \"#utility.yul\":22339:22377   */\n      tag_90\n      jump\t// in\n    tag_534:\n        /* \"#utility.yul\":22424:22491   */\n      tag_535\n        /* \"#utility.yul\":22484:22490   */\n      dup3\n        /* \"#utility.yul\":22476:22482   */\n      dup3\n        /* \"#utility.yul\":22470:22474   */\n      dup6\n        /* \"#utility.yul\":22424:22491   */\n      tag_298\n      jump\t// in\n    tag_535:\n        /* \"#utility.yul\":22518:22519   */\n      0x00\n        /* \"#utility.yul\":22542:22546   */\n      0x20\n        /* \"#utility.yul\":22529:22546   */\n      swap1\n      pop\n        /* \"#utility.yul\":22574:22576   */\n      0x1f\n        /* \"#utility.yul\":22566:22572   */\n      dup4\n        /* \"#utility.yul\":22563:22577   */\n      gt\n        /* \"#utility.yul\":22591:22592   */\n      0x01\n        /* \"#utility.yul\":22586:23204   */\n      dup2\n      eq\n      tag_537\n      jumpi\n        /* \"#utility.yul\":23248:23249   */\n      0x00\n        /* \"#utility.yul\":23265:23271   */\n      dup5\n        /* \"#utility.yul\":23262:23339   */\n      iszero\n      tag_538\n      jumpi\n        /* \"#utility.yul\":23314:23323   */\n      dup3\n        /* \"#utility.yul\":23309:23312   */\n      dup8\n        /* \"#utility.yul\":23305:23324   */\n      add\n        /* \"#utility.yul\":23299:23325   */\n      mload\n        /* \"#utility.yul\":23290:23325   */\n      swap1\n      pop\n        /* \"#utility.yul\":23262:23339   */\n    tag_538:\n        /* \"#utility.yul\":23365:23432   */\n      tag_539\n        /* \"#utility.yul\":23425:23431   */\n      dup6\n        /* \"#utility.yul\":23418:23423   */\n      dup3\n        /* \"#utility.yul\":23365:23432   */\n      tag_301\n      jump\t// in\n    tag_539:\n        /* \"#utility.yul\":23359:23363   */\n      dup7\n        /* \"#utility.yul\":23352:23433   */\n      sstore\n        /* \"#utility.yul\":23221:23443   */\n      pop\n        /* \"#utility.yul\":22556:23443   */\n      jump(tag_536)\n        /* \"#utility.yul\":22586:23204   */\n    tag_537:\n        /* \"#utility.yul\":22638:22642   */\n      0x1f\n        /* \"#utility.yul\":22634:22643   */\n      not\n        /* \"#utility.yul\":22626:22632   */\n      dup5\n        /* \"#utility.yul\":22622:22644   */\n      and\n        /* \"#utility.yul\":22672:22709   */\n      tag_540\n        /* \"#utility.yul\":22704:22708   */\n      dup7\n        /* \"#utility.yul\":22672:22709   */\n      tag_287\n      jump\t// in\n    tag_540:\n        /* \"#utility.yul\":22731:22732   */\n      0x00\n        /* \"#utility.yul\":22745:22953   */\n    tag_541:\n        /* \"#utility.yul\":22759:22766   */\n      dup3\n        /* \"#utility.yul\":22756:22757   */\n      dup2\n        /* \"#utility.yul\":22753:22767   */\n      lt\n        /* \"#utility.yul\":22745:22953   */\n      iszero\n      tag_543\n      jumpi\n        /* \"#utility.yul\":22838:22847   */\n      dup5\n        /* \"#utility.yul\":22833:22836   */\n      dup10\n        /* \"#utility.yul\":22829:22848   */\n      add\n        /* \"#utility.yul\":22823:22849   */\n      mload\n        /* \"#utility.yul\":22815:22821   */\n      dup3\n        /* \"#utility.yul\":22808:22850   */\n      sstore\n        /* \"#utility.yul\":22889:22890   */\n      0x01\n        /* \"#utility.yul\":22881:22887   */\n      dup3\n        /* \"#utility.yul\":22877:22891   */\n      add\n        /* \"#utility.yul\":22867:22891   */\n      swap2\n      pop\n        /* \"#utility.yul\":22936:22938   */\n      0x20\n        /* \"#utility.yul\":22925:22934   */\n      dup6\n        /* \"#utility.yul\":22921:22939   */\n      add\n        /* \"#utility.yul\":22908:22939   */\n      swap5\n      pop\n        /* \"#utility.yul\":22782:22786   */\n      0x20\n        /* \"#utility.yul\":22779:22780   */\n      dup2\n        /* \"#utility.yul\":22775:22787   */\n      add\n        /* \"#utility.yul\":22770:22787   */\n      swap1\n      pop\n        /* \"#utility.yul\":22745:22953   */\n      jump(tag_541)\n    tag_543:\n        /* \"#utility.yul\":22981:22987   */\n      dup7\n        /* \"#utility.yul\":22972:22979   */\n      dup4\n        /* \"#utility.yul\":22969:22988   */\n      lt\n        /* \"#utility.yul\":22966:23145   */\n      iszero\n      tag_544\n      jumpi\n        /* \"#utility.yul\":23039:23048   */\n      dup5\n        /* \"#utility.yul\":23034:23037   */\n      dup10\n        /* \"#utility.yul\":23030:23049   */\n      add\n        /* \"#utility.yul\":23024:23050   */\n      mload\n        /* \"#utility.yul\":23082:23130   */\n      tag_545\n        /* \"#utility.yul\":23124:23128   */\n      0x1f\n        /* \"#utility.yul\":23116:23122   */\n      dup10\n        /* \"#utility.yul\":23112:23129   */\n      and\n        /* \"#utility.yul\":23101:23110   */\n      dup3\n        /* \"#utility.yul\":23082:23130   */\n      tag_300\n      jump\t// in\n    tag_545:\n        /* \"#utility.yul\":23074:23080   */\n      dup4\n        /* \"#utility.yul\":23067:23131   */\n      sstore\n        /* \"#utility.yul\":22989:23145   */\n      pop\n        /* \"#utility.yul\":22966:23145   */\n    tag_544:\n        /* \"#utility.yul\":23191:23192   */\n      0x01\n        /* \"#utility.yul\":23187:23188   */\n      0x02\n        /* \"#utility.yul\":23179:23185   */\n      dup9\n        /* \"#utility.yul\":23175:23189   */\n      mul\n        /* \"#utility.yul\":23171:23193   */\n      add\n        /* \"#utility.yul\":23165:23169   */\n      dup9\n        /* \"#utility.yul\":23158:23194   */\n      sstore\n        /* \"#utility.yul\":22593:23204   */\n      pop\n      pop\n      pop\n        /* \"#utility.yul\":22556:23443   */\n    tag_536:\n      pop\n        /* \"#utility.yul\":22146:23449   */\n      pop\n      pop\n      pop\n        /* \"#utility.yul\":22054:23449   */\n      pop\n      pop\n      jump\t// out\n        /* \"#utility.yul\":23455:23688   */\n    tag_193:\n        /* \"#utility.yul\":23494:23497   */\n      0x00\n        /* \"#utility.yul\":23517:23541   */\n      tag_547\n        /* \"#utility.yul\":23535:23540   */\n      dup3\n        /* \"#utility.yul\":23517:23541   */\n      tag_256\n      jump\t// in\n    tag_547:\n        /* \"#utility.yul\":23508:23541   */\n      swap2\n      pop\n        /* \"#utility.yul\":23563:23629   */\n      0xffffffffffffffffffffffffffffffffffffffffffffffffffffffffffffffff\n        /* \"#utility.yul\":23556:23561   */\n      dup3\n        /* \"#utility.yul\":23553:23630   */\n      sub\n        /* \"#utility.yul\":23550:23653   */\n      tag_548\n      jumpi\n        /* \"#utility.yul\":23633:23651   */\n      tag_549\n      tag_274\n      jump\t// in\n    tag_549:\n        /* \"#utility.yul\":23550:23653   */\n    tag_548:\n        /* \"#utility.yul\":23680:23681   */\n      0x01\n        /* \"#utility.yul\":23673:23678   */\n      dup3\n        /* \"#utility.yul\":23669:23682   */\n      add\n        /* \"#utility.yul\":23662:23682   */\n      swap1\n      pop\n        /* \"#utility.yul\":23455:23688   */\n      swap2\n      swap1\n      pop\n      jump\t// out\n        /* \"#utility.yul\":23694:24136   */\n    tag_206:\n        /* \"#utility.yul\":23843:23847   */\n      0x00\n        /* \"#utility.yul\":23881:23883   */\n      0x60\n        /* \"#utility.yul\":23870:23879   */\n      dup3\n        /* \"#utility.yul\":23866:23884   */\n      add\n        /* \"#utility.yul\":23858:23884   */\n      swap1\n      pop\n        /* \"#utility.yul\":23894:23965   */\n      tag_551\n        /* \"#utility.yul\":23962:23963   */\n      0x00\n        /* \"#utility.yul\":23951:23960   */\n      dup4\n        /* \"#utility.yul\":23947:23964   */\n      add\n        /* \"#utility.yul\":23938:23944   */\n      dup7\n        /* \"#utility.yul\":23894:23965   */\n      tag_264\n      jump\t// in\n    tag_551:\n        /* \"#utility.yul\":23975:24047   */\n      tag_552\n        /* \"#utility.yul\":24043:24045   */\n      0x20\n        /* \"#utility.yul\":24032:24041   */\n      dup4\n        /* \"#utility.yul\":24028:24046   */\n      add\n        /* \"#utility.yul\":24019:24025   */\n      dup6\n        /* \"#utility.yul\":23975:24047   */\n      tag_261\n      jump\t// in\n    tag_552:\n        /* \"#utility.yul\":24057:24129   */\n      tag_553\n        /* \"#utility.yul\":24125:24127   */\n      0x40\n        /* \"#utility.yul\":24114:24123   */\n      dup4\n        /* \"#utility.yul\":24110:24128   */\n      add\n        /* \"#utility.yul\":24101:24107   */\n      dup5\n        /* \"#utility.yul\":24057:24129   */\n      tag_261\n      jump\t// in\n    tag_553:\n        /* \"#utility.yul\":23694:24136   */\n      swap5\n      swap4\n      pop\n      pop\n      pop\n      pop\n      jump\t// out\n        /* \"#utility.yul\":24142:24333   */\n    tag_221:\n        /* \"#utility.yul\":24182:24185   */\n      0x00\n        /* \"#utility.yul\":24201:24221   */\n      tag_555\n        /* \"#utility.yul\":24219:24220   */\n      dup3\n        /* \"#utility.yul\":24201:24221   */\n      tag_256\n      jump\t// in\n    tag_555:\n        /* \"#utility.yul\":24196:24221   */\n      swap2\n      pop\n        /* \"#utility.yul\":24235:24255   */\n      tag_556\n        /* \"#utility.yul\":24253:24254   */\n      dup4\n        /* \"#utility.yul\":24235:24255   */\n      tag_256\n      jump\t// in\n    tag_556:\n        /* \"#utility.yul\":24230:24255   */\n      swap3\n      pop\n        /* \"#utility.yul\":24278:24279   */\n      dup3\n        /* \"#utility.yul\":24275:24276   */\n      dup3\n        /* \"#utility.yul\":24271:24280   */\n      add\n        /* \"#utility.yul\":24264:24280   */\n      swap1\n      pop\n        /* \"#utility.yul\":24299:24302   */\n      dup1\n        /* \"#utility.yul\":24296:24297   */\n      dup3\n        /* \"#utility.yul\":24293:24303   */\n      gt\n        /* \"#utility.yul\":24290:24326   */\n      iszero\n      tag_557\n      jumpi\n        /* \"#utility.yul\":24306:24324   */\n      tag_558\n      tag_274\n      jump\t// in\n    tag_558:\n        /* \"#utility.yul\":24290:24326   */\n    tag_557:\n        /* \"#utility.yul\":24142:24333   */\n      swap3\n      swap2\n      pop\n      pop\n      jump\t// out\n\n    auxdata: 0xa2646970667358221220be923b1ea8952bc48312f72f9bfdca27a5c079cc5c90c8d27597e767c2c89f7164736f6c63430008140033\n}\n",
				"bytecode": {
					"linkReferences": {},
					"object": "6080604052678ac7230489e8000060055560405180606001604052806040518060400160405280600781526020017f4d4152424c45580000000000000000000000000000000000000000000000000081525081526020016040518060400160405280600581526020017f474d54454500000000000000000000000000000000000000000000000000000081525081526020016040518060400160405280600581526020017f4d415449430000000000000000000000000000000000000000000000000000008152508152506006906003620000dc929190620004ad565b5060405180606001604052806040518060a00160405280606f815260200162002e17606f913981526020016040518060600160405280602e815260200162002da9602e9139815260200160405180606001604052806040815260200162002dd760409139815250600790600362000155929190620004ad565b5034801562000162575f80fd5b5060405162002e8638038062002e86833981810160405281019062000188919062000717565b818181600390816200019b9190620009d1565b508060049081620001ad9190620009d1565b505050620001ef33620001c5620001f760201b60201c565b600a620001d3919062000c3e565b620186a0620001e3919062000c8e565b620001ff60201b60201c565b505062000dd7565b5f6012905090565b5f73ffffffffffffffffffffffffffffffffffffffff168273ffffffffffffffffffffffffffffffffffffffff160362000272575f6040517fec442f0500000000000000000000000000000000000000000000000000000000815260040162000269919062000d1b565b60405180910390fd5b620002855f83836200028960201b60201c565b5050565b5f73ffffffffffffffffffffffffffffffffffffffff168373ffffffffffffffffffffffffffffffffffffffff1603620002dd578060025f828254620002d0919062000d36565b92505081905550620003ae565b5f805f8573ffffffffffffffffffffffffffffffffffffffff1673ffffffffffffffffffffffffffffffffffffffff1681526020019081526020015f205490508181101562000369578381836040517fe450d38c000000000000000000000000000000000000000000000000000000008152600401620003609392919062000d81565b60405180910390fd5b8181035f808673ffffffffffffffffffffffffffffffffffffffff1673ffffffffffffffffffffffffffffffffffffffff1681526020019081526020015f2081905550505b5f73ffffffffffffffffffffffffffffffffffffffff168273ffffffffffffffffffffffffffffffffffffffff1603620003f7578060025f828254039250508190555062000441565b805f808473ffffffffffffffffffffffffffffffffffffffff1673ffffffffffffffffffffffffffffffffffffffff1681526020019081526020015f205f82825401925050819055505b8173ffffffffffffffffffffffffffffffffffffffff168373ffffffffffffffffffffffffffffffffffffffff167fddf252ad1be2c89b69c2b068fc378daa952ba7f163c4a11628f55a4df523b3ef83604051620004a0919062000dbc565b60405180910390a3505050565b828054828255905f5260205f20908101928215620004f8579160200282015b82811115620004f7578251829081620004e69190620009d1565b5091602001919060010190620004cc565b5b5090506200050791906200050b565b5090565b5b808211156200052e575f818162000524919062000532565b506001016200050c565b5090565b5080546200054090620007d1565b5f825580601f1062000553575062000572565b601f0160209004905f5260205f209081019062000571919062000575565b5b50565b5b808211156200058e575f815f90555060010162000576565b5090565b5f604051905090565b5f80fd5b5f80fd5b5f80fd5b5f80fd5b5f601f19601f8301169050919050565b7f4e487b71000000000000000000000000000000000000000000000000000000005f52604160045260245ffd5b620005f382620005ab565b810181811067ffffffffffffffff82111715620006155762000614620005bb565b5b80604052505050565b5f6200062962000592565b9050620006378282620005e8565b919050565b5f67ffffffffffffffff821115620006595762000658620005bb565b5b6200066482620005ab565b9050602081019050919050565b5f5b838110156200069057808201518184015260208101905062000673565b5f8484015250505050565b5f620006b1620006ab846200063c565b6200061e565b905082815260208101848484011115620006d057620006cf620005a7565b5b620006dd84828562000671565b509392505050565b5f82601f830112620006fc57620006fb620005a3565b5b81516200070e8482602086016200069b565b91505092915050565b5f806040838503121562000730576200072f6200059b565b5b5f83015167ffffffffffffffff81111562000750576200074f6200059f565b5b6200075e85828601620006e5565b925050602083015167ffffffffffffffff8111156200078257620007816200059f565b5b6200079085828601620006e5565b9150509250929050565b5f81519050919050565b7f4e487b71000000000000000000000000000000000000000000000000000000005f52602260045260245ffd5b5f6002820490506001821680620007e957607f821691505b602082108103620007ff57620007fe620007a4565b5b50919050565b5f819050815f5260205f209050919050565b5f6020601f8301049050919050565b5f82821b905092915050565b5f60088302620008637fffffffffffffffffffffffffffffffffffffffffffffffffffffffffffffffff8262000826565b6200086f868362000826565b95508019841693508086168417925050509392505050565b5f819050919050565b5f819050919050565b5f620008b9620008b3620008ad8462000887565b62000890565b62000887565b9050919050565b5f819050919050565b620008d48362000899565b620008ec620008e382620008c0565b84845462000832565b825550505050565b5f90565b62000902620008f4565b6200090f818484620008c9565b505050565b5b8181101562000936576200092a5f82620008f8565b60018101905062000915565b5050565b601f82111562000985576200094f8162000805565b6200095a8462000817565b810160208510156200096a578190505b62000982620009798562000817565b83018262000914565b50505b505050565b5f82821c905092915050565b5f620009a75f19846008026200098a565b1980831691505092915050565b5f620009c1838362000996565b9150826002028217905092915050565b620009dc826200079a565b67ffffffffffffffff811115620009f857620009f7620005bb565b5b62000a048254620007d1565b62000a118282856200093a565b5f60209050601f83116001811462000a47575f841562000a32578287015190505b62000a3e8582620009b4565b86555062000aad565b601f19841662000a578662000805565b5f5b8281101562000a805784890151825560018201915060208501945060208101905062000a59565b8683101562000aa0578489015162000a9c601f89168262000996565b8355505b6001600288020188555050505b505050505050565b7f4e487b71000000000000000000000000000000000000000000000000000000005f52601160045260245ffd5b5f8160011c9050919050565b5f808291508390505b600185111562000b3f5780860481111562000b175762000b1662000ab5565b5b600185161562000b275780820291505b808102905062000b378562000ae2565b945062000af7565b94509492505050565b5f8262000b59576001905062000c2b565b8162000b68575f905062000c2b565b816001811462000b81576002811462000b8c5762000bc2565b600191505062000c2b565b60ff84111562000ba15762000ba062000ab5565b5b8360020a91508482111562000bbb5762000bba62000ab5565b5b5062000c2b565b5060208310610133831016604e8410600b841016171562000bfc5782820a90508381111562000bf65762000bf562000ab5565b5b62000c2b565b62000c0b848484600162000aee565b9250905081840481111562000c255762000c2462000ab5565b5b81810290505b9392505050565b5f60ff82169050919050565b5f62000c4a8262000887565b915062000c578362000c32565b925062000c867fffffffffffffffffffffffffffffffffffffffffffffffffffffffffffffffff848462000b48565b905092915050565b5f62000c9a8262000887565b915062000ca78362000887565b925082820262000cb78162000887565b9150828204841483151762000cd15762000cd062000ab5565b5b5092915050565b5f73ffffffffffffffffffffffffffffffffffffffff82169050919050565b5f62000d038262000cd8565b9050919050565b62000d158162000cf7565b82525050565b5f60208201905062000d305f83018462000d0a565b92915050565b5f62000d428262000887565b915062000d4f8362000887565b925082820190508082111562000d6a5762000d6962000ab5565b5b92915050565b62000d7b8162000887565b82525050565b5f60608201905062000d965f83018662000d0a565b62000da5602083018562000d70565b62000db4604083018462000d70565b949350505050565b5f60208201905062000dd15f83018462000d70565b92915050565b611fc48062000de55f395ff3fe608060405234801561000f575f80fd5b50600436106100f3575f3560e01c8063545e163e1161009557806395d89b411161006457806395d89b411461029a578063a9059cbb146102b8578063bfaede13146102e8578063dd62ed3e146102f2576100f3565b8063545e163e146101ff5780635dfac4e41461023057806370a082311461024e5780639257b5911461027e576100f3565b806318160ddd116100d157806318160ddd1461016357806323b872dd14610181578063313ce567146101b1578063365b98b2146101cf576100f3565b806303e276af146100f757806306fdde0314610115578063095ea7b314610133575b5f80fd5b6100ff610322565b60405161010c91906114ae565b60405180910390f35b61011d6104d8565b60405161012a9190611516565b60405180910390f35b61014d600480360381019061014891906115c7565b610568565b60405161015a919061161f565b60405180910390f35b61016b61058a565b6040516101789190611647565b60405180910390f35b61019b60048036038101906101969190611660565b610593565b6040516101a8919061161f565b60405180910390f35b6101b96105c1565b6040516101c691906116cb565b60405180910390f35b6101e960048036038101906101e491906116e4565b6105c9565b6040516101f6919061171e565b60405180910390f35b610219600480360381019061021491906115c7565b61060d565b604051610227929190611737565b60405180910390f35b610238610753565b604051610245919061183d565b60405180910390f35b6102686004803603810190610263919061185d565b6107ff565b6040516102759190611647565b60405180910390f35b6102986004803603810190610293919061185d565b610844565b005b6102a2610872565b6040516102af9190611516565b60405180910390f35b6102d260048036038101906102cd91906115c7565b610902565b6040516102df919061161f565b60405180910390f35b6102f0610924565b005b61030c60048036038101906103079190611888565b610ca4565b6040516103199190611647565b60405180910390f35b606060085f3373ffffffffffffffffffffffffffffffffffffffff1673ffffffffffffffffffffffffffffffffffffffff1681526020019081526020015f20805480602002602001604051908101604052809291908181526020015f905b828210156104cf578382905f5260205f2090600202016040518060400160405290815f820180546103b0906118f3565b80601f01602080910402602001604051908101604052809291908181526020018280546103dc906118f3565b80156104275780601f106103fe57610100808354040283529160200191610427565b820191905f5260205f20905b81548152906001019060200180831161040a57829003601f168201915b50505050508152602001600182018054610440906118f3565b80601f016020809104026020016040519081016040528092919081815260200182805461046c906118f3565b80156104b75780601f1061048e576101008083540402835291602001916104b7565b820191905f5260205f20905b81548152906001019060200180831161049a57829003601f168201915b50505050508152505081526020019060010190610380565b50505050905090565b6060600380546104e7906118f3565b80601f0160208091040260200160405190810160405280929190818152602001828054610513906118f3565b801561055e5780601f106105355761010080835404028352916020019161055e565b820191905f5260205f20905b81548152906001019060200180831161054157829003601f168201915b5050505050905090565b5f80610572610d26565b905061057f818585610d2d565b600191505092915050565b5f600254905090565b5f8061059d610d26565b90506105aa858285610d3f565b6105b5858585610dd1565b60019150509392505050565b5f6012905090565b600981815481106105d8575f80fd5b905f5260205f20015f91509050805f015f9054906101000a900473ffffffffffffffffffffffffffffffffffffffff16905081565b6008602052815f5260405f208181548110610626575f80fd5b905f5260205f2090600202015f9150915050805f018054610646906118f3565b80601f0160208091040260200160405190810160405280929190818152602001828054610672906118f3565b80156106bd5780601f10610694576101008083540402835291602001916106bd565b820191905f5260205f20905b8154815290600101906020018083116106a057829003601f168201915b5050505050908060010180546106d2906118f3565b80601f01602080910402602001604051908101604052809291908181526020018280546106fe906118f3565b80156107495780601f1061072057610100808354040283529160200191610749565b820191905f5260205f20905b81548152906001019060200180831161072c57829003601f168201915b5050505050905082565b60606009805480602002602001604051908101604052809291908181526020015f905b828210156107f6578382905f5260205f20016040518060200160405290815f82015f9054906101000a900473ffffffffffffffffffffffffffffffffffffffff1673ffffffffffffffffffffffffffffffffffffffff1673ffffffffffffffffffffffffffffffffffffffff168152505081526020019060010190610776565b50505050905090565b5f805f8373ffffffffffffffffffffffffffffffffffffffff1673ffffffffffffffffffffffffffffffffffffffff1681526020019081526020015f20549050919050565b61086f816108506105c1565b600a61085c9190611a7f565b620186a061086a9190611ac9565b610ec1565b50565b606060048054610881906118f3565b80601f01602080910402602001604051908101604052809291908181526020018280546108ad906118f3565b80156108f85780601f106108cf576101008083540402835291602001916108f8565b820191905f5260205f20905b8154815290600101906020018083116108db57829003601f168201915b5050505050905090565b5f8061090c610d26565b9050610919818585610dd1565b600191505092915050565b600554610930336107ff565b101561093a575f80fd5b610947335f600554610f40565b5f42414360405160200161095d93929190611b80565b604051602081830303815290604052805190602001205f1c90506003816109849190611be9565b905060085f3373ffffffffffffffffffffffffffffffffffffffff1673ffffffffffffffffffffffffffffffffffffffff1681526020019081526020015f206040518060400160405280600784815481106109e2576109e1611c19565b5b905f5260205f200180546109f5906118f3565b80601f0160208091040260200160405190810160405280929190818152602001828054610a21906118f3565b8015610a6c5780601f10610a4357610100808354040283529160200191610a6c565b820191905f5260205f20905b815481529060010190602001808311610a4f57829003601f168201915b5050505050815260200160068481548110610a8a57610a89611c19565b5b905f5260205f20018054610a9d906118f3565b80601f0160208091040260200160405190810160405280929190818152602001828054610ac9906118f3565b8015610b145780601f10610aeb57610100808354040283529160200191610b14565b820191905f5260205f20905b815481529060010190602001808311610af757829003601f168201915b5050505050815250908060018154018082558091505060019003905f5260205f2090600202015f909190919091505f820151815f019081610b559190611e10565b506020820151816001019081610b6b9190611e10565b5050505f805b600980549050811015610c0a573373ffffffffffffffffffffffffffffffffffffffff1660098281548110610ba957610ba8611c19565b5b905f5260205f20015f015f9054906101000a900473ffffffffffffffffffffffffffffffffffffffff1673ffffffffffffffffffffffffffffffffffffffff1603610bf75760019150610c0a565b8080610c0290611edf565b915050610b71565b5080610ca057600960405180602001604052803373ffffffffffffffffffffffffffffffffffffffff16815250908060018154018082558091505060019003905f5260205f20015f909190919091505f820151815f015f6101000a81548173ffffffffffffffffffffffffffffffffffffffff021916908373ffffffffffffffffffffffffffffffffffffffff16021790555050505b5050565b5f60015f8473ffffffffffffffffffffffffffffffffffffffff1673ffffffffffffffffffffffffffffffffffffffff1681526020019081526020015f205f8373ffffffffffffffffffffffffffffffffffffffff1673ffffffffffffffffffffffffffffffffffffffff1681526020019081526020015f2054905092915050565b5f33905090565b610d3a8383836001611159565b505050565b5f610d4a8484610ca4565b90507fffffffffffffffffffffffffffffffffffffffffffffffffffffffffffffffff8114610dcb5781811015610dbc578281836040517ffb8f41b2000000000000000000000000000000000000000000000000000000008152600401610db393929190611f26565b60405180910390fd5b610dca84848484035f611159565b5b50505050565b5f73ffffffffffffffffffffffffffffffffffffffff168373ffffffffffffffffffffffffffffffffffffffff1603610e41575f6040517f96c6fd1e000000000000000000000000000000000000000000000000000000008152600401610e38919061171e565b60405180910390fd5b5f73ffffffffffffffffffffffffffffffffffffffff168273ffffffffffffffffffffffffffffffffffffffff1603610eb1575f6040517fec442f05000000000000000000000000000000000000000000000000000000008152600401610ea8919061171e565b60405180910390fd5b610ebc838383610f40565b505050565b5f73ffffffffffffffffffffffffffffffffffffffff168273ffffffffffffffffffffffffffffffffffffffff1603610f31575f6040517fec442f05000000000000000000000000000000000000000000000000000000008152600401610f28919061171e565b60405180910390fd5b610f3c5f8383610f40565b5050565b5f73ffffffffffffffffffffffffffffffffffffffff168373ffffffffffffffffffffffffffffffffffffffff1603610f90578060025f828254610f849190611f5b565b9250508190555061105e565b5f805f8573ffffffffffffffffffffffffffffffffffffffff1673ffffffffffffffffffffffffffffffffffffffff1681526020019081526020015f2054905081811015611019578381836040517fe450d38c00000000000000000000000000000000000000000000000000000000815260040161101093929190611f26565b60405180910390fd5b8181035f808673ffffffffffffffffffffffffffffffffffffffff1673ffffffffffffffffffffffffffffffffffffffff1681526020019081526020015f2081905550505b5f73ffffffffffffffffffffffffffffffffffffffff168273ffffffffffffffffffffffffffffffffffffffff16036110a5578060025f82825403925050819055506110ef565b805f808473ffffffffffffffffffffffffffffffffffffffff1673ffffffffffffffffffffffffffffffffffffffff1681526020019081526020015f205f82825401925050819055505b8173ffffffffffffffffffffffffffffffffffffffff168373ffffffffffffffffffffffffffffffffffffffff167fddf252ad1be2c89b69c2b068fc378daa952ba7f163c4a11628f55a4df523b3ef8360405161114c9190611647565b60405180910390a3505050565b5f73ffffffffffffffffffffffffffffffffffffffff168473ffffffffffffffffffffffffffffffffffffffff16036111c9575f6040517fe602df050000000000000000000000000000000000000000000000000000000081526004016111c0919061171e565b60405180910390fd5b5f73ffffffffffffffffffffffffffffffffffffffff168373ffffffffffffffffffffffffffffffffffffffff1603611239575f6040517f94280d62000000000000000000000000000000000000000000000000000000008152600401611230919061171e565b60405180910390fd5b8160015f8673ffffffffffffffffffffffffffffffffffffffff1673ffffffffffffffffffffffffffffffffffffffff1681526020019081526020015f205f8573ffffffffffffffffffffffffffffffffffffffff1673ffffffffffffffffffffffffffffffffffffffff1681526020019081526020015f20819055508015611322578273ffffffffffffffffffffffffffffffffffffffff168473ffffffffffffffffffffffffffffffffffffffff167f8c5be1e5ebec7d5bd14f71427d1e84f3dd0314c0f7b2291e5b200ac8c7c3b925846040516113199190611647565b60405180910390a35b50505050565b5f81519050919050565b5f82825260208201905092915050565b5f819050602082019050919050565b5f81519050919050565b5f82825260208201905092915050565b5f5b8381101561138857808201518184015260208101905061136d565b5f8484015250505050565b5f601f19601f8301169050919050565b5f6113ad82611351565b6113b7818561135b565b93506113c781856020860161136b565b6113d081611393565b840191505092915050565b5f604083015f8301518482035f8601526113f582826113a3565b9150506020830151848203602086015261140f82826113a3565b9150508091505092915050565b5f61142783836113db565b905092915050565b5f602082019050919050565b5f61144582611328565b61144f8185611332565b93508360208202850161146185611342565b805f5b8581101561149c578484038952815161147d858261141c565b94506114888361142f565b925060208a01995050600181019050611464565b50829750879550505050505092915050565b5f6020820190508181035f8301526114c6818461143b565b905092915050565b5f82825260208201905092915050565b5f6114e882611351565b6114f281856114ce565b935061150281856020860161136b565b61150b81611393565b840191505092915050565b5f6020820190508181035f83015261152e81846114de565b905092915050565b5f80fd5b5f73ffffffffffffffffffffffffffffffffffffffff82169050919050565b5f6115638261153a565b9050919050565b61157381611559565b811461157d575f80fd5b50565b5f8135905061158e8161156a565b92915050565b5f819050919050565b6115a681611594565b81146115b0575f80fd5b50565b5f813590506115c18161159d565b92915050565b5f80604083850312156115dd576115dc611536565b5b5f6115ea85828601611580565b92505060206115fb858286016115b3565b9150509250929050565b5f8115159050919050565b61161981611605565b82525050565b5f6020820190506116325f830184611610565b92915050565b61164181611594565b82525050565b5f60208201905061165a5f830184611638565b92915050565b5f805f6060848603121561167757611676611536565b5b5f61168486828701611580565b935050602061169586828701611580565b92505060406116a6868287016115b3565b9150509250925092565b5f60ff82169050919050565b6116c5816116b0565b82525050565b5f6020820190506116de5f8301846116bc565b92915050565b5f602082840312156116f9576116f8611536565b5b5f611706848285016115b3565b91505092915050565b61171881611559565b82525050565b5f6020820190506117315f83018461170f565b92915050565b5f6040820190508181035f83015261174f81856114de565b9050818103602083015261176381846114de565b90509392505050565b5f81519050919050565b5f82825260208201905092915050565b5f819050602082019050919050565b61179e81611559565b82525050565b602082015f8201516117b85f850182611795565b50505050565b5f6117c983836117a4565b60208301905092915050565b5f602082019050919050565b5f6117eb8261176c565b6117f58185611776565b935061180083611786565b805f5b8381101561183057815161181788826117be565b9750611822836117d5565b925050600181019050611803565b5085935050505092915050565b5f6020820190508181035f83015261185581846117e1565b905092915050565b5f6020828403121561187257611871611536565b5b5f61187f84828501611580565b91505092915050565b5f806040838503121561189e5761189d611536565b5b5f6118ab85828601611580565b92505060206118bc85828601611580565b9150509250929050565b7f4e487b71000000000000000000000000000000000000000000000000000000005f52602260045260245ffd5b5f600282049050600182168061190a57607f821691505b60208210810361191d5761191c6118c6565b5b50919050565b7f4e487b71000000000000000000000000000000000000000000000000000000005f52601160045260245ffd5b5f8160011c9050919050565b5f808291508390505b60018511156119a55780860481111561198157611980611923565b5b60018516156119905780820291505b808102905061199e85611950565b9450611965565b94509492505050565b5f826119bd5760019050611a78565b816119ca575f9050611a78565b81600181146119e057600281146119ea57611a19565b6001915050611a78565b60ff8411156119fc576119fb611923565b5b8360020a915084821115611a1357611a12611923565b5b50611a78565b5060208310610133831016604e8410600b8410161715611a4e5782820a905083811115611a4957611a48611923565b5b611a78565b611a5b848484600161195c565b92509050818404811115611a7257611a71611923565b5b81810290505b9392505050565b5f611a8982611594565b9150611a94836116b0565b9250611ac17fffffffffffffffffffffffffffffffffffffffffffffffffffffffffffffffff84846119ae565b905092915050565b5f611ad382611594565b9150611ade83611594565b9250828202611aec81611594565b91508282048414831517611b0357611b02611923565b5b5092915050565b5f819050919050565b611b24611b1f82611594565b611b0a565b82525050565b5f611b348261153a565b9050919050565b5f8160601b9050919050565b5f611b5182611b3b565b9050919050565b5f611b6282611b47565b9050919050565b611b7a611b7582611b2a565b611b58565b82525050565b5f611b8b8286611b13565b602082019150611b9b8285611b69565b601482019150611bab8284611b13565b602082019150819050949350505050565b7f4e487b71000000000000000000000000000000000000000000000000000000005f52601260045260245ffd5b5f611bf382611594565b9150611bfe83611594565b925082611c0e57611c0d611bbc565b5b828206905092915050565b7f4e487b71000000000000000000000000000000000000000000000000000000005f52603260045260245ffd5b7f4e487b71000000000000000000000000000000000000000000000000000000005f52604160045260245ffd5b5f819050815f5260205f209050919050565b5f6020601f8301049050919050565b5f82821b905092915050565b5f60088302611ccf7fffffffffffffffffffffffffffffffffffffffffffffffffffffffffffffffff82611c94565b611cd98683611c94565b95508019841693508086168417925050509392505050565b5f819050919050565b5f611d14611d0f611d0a84611594565b611cf1565b611594565b9050919050565b5f819050919050565b611d2d83611cfa565b611d41611d3982611d1b565b848454611ca0565b825550505050565b5f90565b611d55611d49565b611d60818484611d24565b505050565b5b81811015611d8357611d785f82611d4d565b600181019050611d66565b5050565b601f821115611dc857611d9981611c73565b611da284611c85565b81016020851015611db1578190505b611dc5611dbd85611c85565b830182611d65565b50505b505050565b5f82821c905092915050565b5f611de85f1984600802611dcd565b1980831691505092915050565b5f611e008383611dd9565b9150826002028217905092915050565b611e1982611351565b67ffffffffffffffff811115611e3257611e31611c46565b5b611e3c82546118f3565b611e47828285611d87565b5f60209050601f831160018114611e78575f8415611e66578287015190505b611e708582611df5565b865550611ed7565b601f198416611e8686611c73565b5f5b82811015611ead57848901518255600182019150602085019450602081019050611e88565b86831015611eca5784890151611ec6601f891682611dd9565b8355505b6001600288020188555050505b505050505050565b5f611ee982611594565b91507fffffffffffffffffffffffffffffffffffffffffffffffffffffffffffffffff8203611f1b57611f1a611923565b5b600182019050919050565b5f606082019050611f395f83018661170f565b611f466020830185611638565b611f536040830184611638565b949350505050565b5f611f6582611594565b9150611f7083611594565b9250828201905080821115611f8857611f87611923565b5b9291505056fea2646970667358221220be923b1ea8952bc48312f72f9bfdca27a5c079cc5c90c8d27597e767c2c89f7164736f6c6343000814003368747470733a2f2f66312e746f6b656e706f73742e6b722f323032332f30392f396c6f7332676b356e742e706e6768747470733a2f2f63646e2e6e626e74762e636f2e6b722f6e6577732f70686f746f2f3230323330372f333030313034335f3230313531335f3332312e6a706768747470733a2f2f6e696d6167652e672d656e6577732e636f6d2f7068707761732f726573746d625f616c6c6964786d616b652e7068703f6964783d352673696d673d323032333130313231333131303630323632386335666137356566383632313131383031323536312e6a7067",
					"opcodes": "PUSH1 0x80 PUSH1 0x40 MSTORE PUSH8 0x8AC7230489E80000 PUSH1 0x5 SSTORE PUSH1 0x40 MLOAD DUP1 PUSH1 0x60 ADD PUSH1 0x40 MSTORE DUP1 PUSH1 0x40 MLOAD DUP1 PUSH1 0x40 ADD PUSH1 0x40 MSTORE DUP1 PUSH1 0x7 DUP2 MSTORE PUSH1 0x20 ADD PUSH32 0x4D4152424C455800000000000000000000000000000000000000000000000000 DUP2 MSTORE POP DUP2 MSTORE PUSH1 0x20 ADD PUSH1 0x40 MLOAD DUP1 PUSH1 0x40 ADD PUSH1 0x40 MSTORE DUP1 PUSH1 0x5 DUP2 MSTORE PUSH1 0x20 ADD PUSH32 0x474D544545000000000000000000000000000000000000000000000000000000 DUP2 MSTORE POP DUP2 MSTORE PUSH1 0x20 ADD PUSH1 0x40 MLOAD DUP1 PUSH1 0x40 ADD PUSH1 0x40 MSTORE DUP1 PUSH1 0x5 DUP2 MSTORE PUSH1 0x20 ADD PUSH32 0x4D41544943000000000000000000000000000000000000000000000000000000 DUP2 MSTORE POP DUP2 MSTORE POP PUSH1 0x6 SWAP1 PUSH1 0x3 PUSH3 0xDC SWAP3 SWAP2 SWAP1 PUSH3 0x4AD JUMP JUMPDEST POP PUSH1 0x40 MLOAD DUP1 PUSH1 0x60 ADD PUSH1 0x40 MSTORE DUP1 PUSH1 0x40 MLOAD DUP1 PUSH1 0xA0 ADD PUSH1 0x40 MSTORE DUP1 PUSH1 0x6F DUP2 MSTORE PUSH1 0x20 ADD PUSH3 0x2E17 PUSH1 0x6F SWAP2 CODECOPY DUP2 MSTORE PUSH1 0x20 ADD PUSH1 0x40 MLOAD DUP1 PUSH1 0x60 ADD PUSH1 0x40 MSTORE DUP1 PUSH1 0x2E DUP2 MSTORE PUSH1 0x20 ADD PUSH3 0x2DA9 PUSH1 0x2E SWAP2 CODECOPY DUP2 MSTORE PUSH1 0x20 ADD PUSH1 0x40 MLOAD DUP1 PUSH1 0x60 ADD PUSH1 0x40 MSTORE DUP1 PUSH1 0x40 DUP2 MSTORE PUSH1 0x20 ADD PUSH3 0x2DD7 PUSH1 0x40 SWAP2 CODECOPY DUP2 MSTORE POP PUSH1 0x7 SWAP1 PUSH1 0x3 PUSH3 0x155 SWAP3 SWAP2 SWAP1 PUSH3 0x4AD JUMP JUMPDEST POP CALLVALUE DUP1 ISZERO PUSH3 0x162 JUMPI PUSH0 DUP1 REVERT JUMPDEST POP PUSH1 0x40 MLOAD PUSH3 0x2E86 CODESIZE SUB DUP1 PUSH3 0x2E86 DUP4 CODECOPY DUP2 DUP2 ADD PUSH1 0x40 MSTORE DUP2 ADD SWAP1 PUSH3 0x188 SWAP2 SWAP1 PUSH3 0x717 JUMP JUMPDEST DUP2 DUP2 DUP2 PUSH1 0x3 SWAP1 DUP2 PUSH3 0x19B SWAP2 SWAP1 PUSH3 0x9D1 JUMP JUMPDEST POP DUP1 PUSH1 0x4 SWAP1 DUP2 PUSH3 0x1AD SWAP2 SWAP1 PUSH3 0x9D1 JUMP JUMPDEST POP POP POP PUSH3 0x1EF CALLER PUSH3 0x1C5 PUSH3 0x1F7 PUSH1 0x20 SHL PUSH1 0x20 SHR JUMP JUMPDEST PUSH1 0xA PUSH3 0x1D3 SWAP2 SWAP1 PUSH3 0xC3E JUMP JUMPDEST PUSH3 0x186A0 PUSH3 0x1E3 SWAP2 SWAP1 PUSH3 0xC8E JUMP JUMPDEST PUSH3 0x1FF PUSH1 0x20 SHL PUSH1 0x20 SHR JUMP JUMPDEST POP POP PUSH3 0xDD7 JUMP JUMPDEST PUSH0 PUSH1 0x12 SWAP1 POP SWAP1 JUMP JUMPDEST PUSH0 PUSH20 0xFFFFFFFFFFFFFFFFFFFFFFFFFFFFFFFFFFFFFFFF AND DUP3 PUSH20 0xFFFFFFFFFFFFFFFFFFFFFFFFFFFFFFFFFFFFFFFF AND SUB PUSH3 0x272 JUMPI PUSH0 PUSH1 0x40 MLOAD PUSH32 0xEC442F0500000000000000000000000000000000000000000000000000000000 DUP2 MSTORE PUSH1 0x4 ADD PUSH3 0x269 SWAP2 SWAP1 PUSH3 0xD1B JUMP JUMPDEST PUSH1 0x40 MLOAD DUP1 SWAP2 SUB SWAP1 REVERT JUMPDEST PUSH3 0x285 PUSH0 DUP4 DUP4 PUSH3 0x289 PUSH1 0x20 SHL PUSH1 0x20 SHR JUMP JUMPDEST POP POP JUMP JUMPDEST PUSH0 PUSH20 0xFFFFFFFFFFFFFFFFFFFFFFFFFFFFFFFFFFFFFFFF AND DUP4 PUSH20 0xFFFFFFFFFFFFFFFFFFFFFFFFFFFFFFFFFFFFFFFF AND SUB PUSH3 0x2DD JUMPI DUP1 PUSH1 0x2 PUSH0 DUP3 DUP3 SLOAD PUSH3 0x2D0 SWAP2 SWAP1 PUSH3 0xD36 JUMP JUMPDEST SWAP3 POP POP DUP2 SWAP1 SSTORE POP PUSH3 0x3AE JUMP JUMPDEST PUSH0 DUP1 PUSH0 DUP6 PUSH20 0xFFFFFFFFFFFFFFFFFFFFFFFFFFFFFFFFFFFFFFFF AND PUSH20 0xFFFFFFFFFFFFFFFFFFFFFFFFFFFFFFFFFFFFFFFF AND DUP2 MSTORE PUSH1 0x20 ADD SWAP1 DUP2 MSTORE PUSH1 0x20 ADD PUSH0 KECCAK256 SLOAD SWAP1 POP DUP2 DUP2 LT ISZERO PUSH3 0x369 JUMPI DUP4 DUP2 DUP4 PUSH1 0x40 MLOAD PUSH32 0xE450D38C00000000000000000000000000000000000000000000000000000000 DUP2 MSTORE PUSH1 0x4 ADD PUSH3 0x360 SWAP4 SWAP3 SWAP2 SWAP1 PUSH3 0xD81 JUMP JUMPDEST PUSH1 0x40 MLOAD DUP1 SWAP2 SUB SWAP1 REVERT JUMPDEST DUP2 DUP2 SUB PUSH0 DUP1 DUP7 PUSH20 0xFFFFFFFFFFFFFFFFFFFFFFFFFFFFFFFFFFFFFFFF AND PUSH20 0xFFFFFFFFFFFFFFFFFFFFFFFFFFFFFFFFFFFFFFFF AND DUP2 MSTORE PUSH1 0x20 ADD SWAP1 DUP2 MSTORE PUSH1 0x20 ADD PUSH0 KECCAK256 DUP2 SWAP1 SSTORE POP POP JUMPDEST PUSH0 PUSH20 0xFFFFFFFFFFFFFFFFFFFFFFFFFFFFFFFFFFFFFFFF AND DUP3 PUSH20 0xFFFFFFFFFFFFFFFFFFFFFFFFFFFFFFFFFFFFFFFF AND SUB PUSH3 0x3F7 JUMPI DUP1 PUSH1 0x2 PUSH0 DUP3 DUP3 SLOAD SUB SWAP3 POP POP DUP2 SWAP1 SSTORE POP PUSH3 0x441 JUMP JUMPDEST DUP1 PUSH0 DUP1 DUP5 PUSH20 0xFFFFFFFFFFFFFFFFFFFFFFFFFFFFFFFFFFFFFFFF AND PUSH20 0xFFFFFFFFFFFFFFFFFFFFFFFFFFFFFFFFFFFFFFFF AND DUP2 MSTORE PUSH1 0x20 ADD SWAP1 DUP2 MSTORE PUSH1 0x20 ADD PUSH0 KECCAK256 PUSH0 DUP3 DUP3 SLOAD ADD SWAP3 POP POP DUP2 SWAP1 SSTORE POP JUMPDEST DUP2 PUSH20 0xFFFFFFFFFFFFFFFFFFFFFFFFFFFFFFFFFFFFFFFF AND DUP4 PUSH20 0xFFFFFFFFFFFFFFFFFFFFFFFFFFFFFFFFFFFFFFFF AND PUSH32 0xDDF252AD1BE2C89B69C2B068FC378DAA952BA7F163C4A11628F55A4DF523B3EF DUP4 PUSH1 0x40 MLOAD PUSH3 0x4A0 SWAP2 SWAP1 PUSH3 0xDBC JUMP JUMPDEST PUSH1 0x40 MLOAD DUP1 SWAP2 SUB SWAP1 LOG3 POP POP POP JUMP JUMPDEST DUP3 DUP1 SLOAD DUP3 DUP3 SSTORE SWAP1 PUSH0 MSTORE PUSH1 0x20 PUSH0 KECCAK256 SWAP1 DUP2 ADD SWAP3 DUP3 ISZERO PUSH3 0x4F8 JUMPI SWAP2 PUSH1 0x20 MUL DUP3 ADD JUMPDEST DUP3 DUP2 GT ISZERO PUSH3 0x4F7 JUMPI DUP3 MLOAD DUP3 SWAP1 DUP2 PUSH3 0x4E6 SWAP2 SWAP1 PUSH3 0x9D1 JUMP JUMPDEST POP SWAP2 PUSH1 0x20 ADD SWAP2 SWAP1 PUSH1 0x1 ADD SWAP1 PUSH3 0x4CC JUMP JUMPDEST JUMPDEST POP SWAP1 POP PUSH3 0x507 SWAP2 SWAP1 PUSH3 0x50B JUMP JUMPDEST POP SWAP1 JUMP JUMPDEST JUMPDEST DUP1 DUP3 GT ISZERO PUSH3 0x52E JUMPI PUSH0 DUP2 DUP2 PUSH3 0x524 SWAP2 SWAP1 PUSH3 0x532 JUMP JUMPDEST POP PUSH1 0x1 ADD PUSH3 0x50C JUMP JUMPDEST POP SWAP1 JUMP JUMPDEST POP DUP1 SLOAD PUSH3 0x540 SWAP1 PUSH3 0x7D1 JUMP JUMPDEST PUSH0 DUP3 SSTORE DUP1 PUSH1 0x1F LT PUSH3 0x553 JUMPI POP PUSH3 0x572 JUMP JUMPDEST PUSH1 0x1F ADD PUSH1 0x20 SWAP1 DIV SWAP1 PUSH0 MSTORE PUSH1 0x20 PUSH0 KECCAK256 SWAP1 DUP2 ADD SWAP1 PUSH3 0x571 SWAP2 SWAP1 PUSH3 0x575 JUMP JUMPDEST JUMPDEST POP JUMP JUMPDEST JUMPDEST DUP1 DUP3 GT ISZERO PUSH3 0x58E JUMPI PUSH0 DUP2 PUSH0 SWAP1 SSTORE POP PUSH1 0x1 ADD PUSH3 0x576 JUMP JUMPDEST POP SWAP1 JUMP JUMPDEST PUSH0 PUSH1 0x40 MLOAD SWAP1 POP SWAP1 JUMP JUMPDEST PUSH0 DUP1 REVERT JUMPDEST PUSH0 DUP1 REVERT JUMPDEST PUSH0 DUP1 REVERT JUMPDEST PUSH0 DUP1 REVERT JUMPDEST PUSH0 PUSH1 0x1F NOT PUSH1 0x1F DUP4 ADD AND SWAP1 POP SWAP2 SWAP1 POP JUMP JUMPDEST PUSH32 0x4E487B7100000000000000000000000000000000000000000000000000000000 PUSH0 MSTORE PUSH1 0x41 PUSH1 0x4 MSTORE PUSH1 0x24 PUSH0 REVERT JUMPDEST PUSH3 0x5F3 DUP3 PUSH3 0x5AB JUMP JUMPDEST DUP2 ADD DUP2 DUP2 LT PUSH8 0xFFFFFFFFFFFFFFFF DUP3 GT OR ISZERO PUSH3 0x615 JUMPI PUSH3 0x614 PUSH3 0x5BB JUMP JUMPDEST JUMPDEST DUP1 PUSH1 0x40 MSTORE POP POP POP JUMP JUMPDEST PUSH0 PUSH3 0x629 PUSH3 0x592 JUMP JUMPDEST SWAP1 POP PUSH3 0x637 DUP3 DUP3 PUSH3 0x5E8 JUMP JUMPDEST SWAP2 SWAP1 POP JUMP JUMPDEST PUSH0 PUSH8 0xFFFFFFFFFFFFFFFF DUP3 GT ISZERO PUSH3 0x659 JUMPI PUSH3 0x658 PUSH3 0x5BB JUMP JUMPDEST JUMPDEST PUSH3 0x664 DUP3 PUSH3 0x5AB JUMP JUMPDEST SWAP1 POP PUSH1 0x20 DUP2 ADD SWAP1 POP SWAP2 SWAP1 POP JUMP JUMPDEST PUSH0 JUMPDEST DUP4 DUP2 LT ISZERO PUSH3 0x690 JUMPI DUP1 DUP3 ADD MLOAD DUP2 DUP5 ADD MSTORE PUSH1 0x20 DUP2 ADD SWAP1 POP PUSH3 0x673 JUMP JUMPDEST PUSH0 DUP5 DUP5 ADD MSTORE POP POP POP POP JUMP JUMPDEST PUSH0 PUSH3 0x6B1 PUSH3 0x6AB DUP5 PUSH3 0x63C JUMP JUMPDEST PUSH3 0x61E JUMP JUMPDEST SWAP1 POP DUP3 DUP2 MSTORE PUSH1 0x20 DUP2 ADD DUP5 DUP5 DUP5 ADD GT ISZERO PUSH3 0x6D0 JUMPI PUSH3 0x6CF PUSH3 0x5A7 JUMP JUMPDEST JUMPDEST PUSH3 0x6DD DUP5 DUP3 DUP6 PUSH3 0x671 JUMP JUMPDEST POP SWAP4 SWAP3 POP POP POP JUMP JUMPDEST PUSH0 DUP3 PUSH1 0x1F DUP4 ADD SLT PUSH3 0x6FC JUMPI PUSH3 0x6FB PUSH3 0x5A3 JUMP JUMPDEST JUMPDEST DUP2 MLOAD PUSH3 0x70E DUP5 DUP3 PUSH1 0x20 DUP7 ADD PUSH3 0x69B JUMP JUMPDEST SWAP2 POP POP SWAP3 SWAP2 POP POP JUMP JUMPDEST PUSH0 DUP1 PUSH1 0x40 DUP4 DUP6 SUB SLT ISZERO PUSH3 0x730 JUMPI PUSH3 0x72F PUSH3 0x59B JUMP JUMPDEST JUMPDEST PUSH0 DUP4 ADD MLOAD PUSH8 0xFFFFFFFFFFFFFFFF DUP2 GT ISZERO PUSH3 0x750 JUMPI PUSH3 0x74F PUSH3 0x59F JUMP JUMPDEST JUMPDEST PUSH3 0x75E DUP6 DUP3 DUP7 ADD PUSH3 0x6E5 JUMP JUMPDEST SWAP3 POP POP PUSH1 0x20 DUP4 ADD MLOAD PUSH8 0xFFFFFFFFFFFFFFFF DUP2 GT ISZERO PUSH3 0x782 JUMPI PUSH3 0x781 PUSH3 0x59F JUMP JUMPDEST JUMPDEST PUSH3 0x790 DUP6 DUP3 DUP7 ADD PUSH3 0x6E5 JUMP JUMPDEST SWAP2 POP POP SWAP3 POP SWAP3 SWAP1 POP JUMP JUMPDEST PUSH0 DUP2 MLOAD SWAP1 POP SWAP2 SWAP1 POP JUMP JUMPDEST PUSH32 0x4E487B7100000000000000000000000000000000000000000000000000000000 PUSH0 MSTORE PUSH1 0x22 PUSH1 0x4 MSTORE PUSH1 0x24 PUSH0 REVERT JUMPDEST PUSH0 PUSH1 0x2 DUP3 DIV SWAP1 POP PUSH1 0x1 DUP3 AND DUP1 PUSH3 0x7E9 JUMPI PUSH1 0x7F DUP3 AND SWAP2 POP JUMPDEST PUSH1 0x20 DUP3 LT DUP2 SUB PUSH3 0x7FF JUMPI PUSH3 0x7FE PUSH3 0x7A4 JUMP JUMPDEST JUMPDEST POP SWAP2 SWAP1 POP JUMP JUMPDEST PUSH0 DUP2 SWAP1 POP DUP2 PUSH0 MSTORE PUSH1 0x20 PUSH0 KECCAK256 SWAP1 POP SWAP2 SWAP1 POP JUMP JUMPDEST PUSH0 PUSH1 0x20 PUSH1 0x1F DUP4 ADD DIV SWAP1 POP SWAP2 SWAP1 POP JUMP JUMPDEST PUSH0 DUP3 DUP3 SHL SWAP1 POP SWAP3 SWAP2 POP POP JUMP JUMPDEST PUSH0 PUSH1 0x8 DUP4 MUL PUSH3 0x863 PUSH32 0xFFFFFFFFFFFFFFFFFFFFFFFFFFFFFFFFFFFFFFFFFFFFFFFFFFFFFFFFFFFFFFFF DUP3 PUSH3 0x826 JUMP JUMPDEST PUSH3 0x86F DUP7 DUP4 PUSH3 0x826 JUMP JUMPDEST SWAP6 POP DUP1 NOT DUP5 AND SWAP4 POP DUP1 DUP7 AND DUP5 OR SWAP3 POP POP POP SWAP4 SWAP3 POP POP POP JUMP JUMPDEST PUSH0 DUP2 SWAP1 POP SWAP2 SWAP1 POP JUMP JUMPDEST PUSH0 DUP2 SWAP1 POP SWAP2 SWAP1 POP JUMP JUMPDEST PUSH0 PUSH3 0x8B9 PUSH3 0x8B3 PUSH3 0x8AD DUP5 PUSH3 0x887 JUMP JUMPDEST PUSH3 0x890 JUMP JUMPDEST PUSH3 0x887 JUMP JUMPDEST SWAP1 POP SWAP2 SWAP1 POP JUMP JUMPDEST PUSH0 DUP2 SWAP1 POP SWAP2 SWAP1 POP JUMP JUMPDEST PUSH3 0x8D4 DUP4 PUSH3 0x899 JUMP JUMPDEST PUSH3 0x8EC PUSH3 0x8E3 DUP3 PUSH3 0x8C0 JUMP JUMPDEST DUP5 DUP5 SLOAD PUSH3 0x832 JUMP JUMPDEST DUP3 SSTORE POP POP POP POP JUMP JUMPDEST PUSH0 SWAP1 JUMP JUMPDEST PUSH3 0x902 PUSH3 0x8F4 JUMP JUMPDEST PUSH3 0x90F DUP2 DUP5 DUP5 PUSH3 0x8C9 JUMP JUMPDEST POP POP POP JUMP JUMPDEST JUMPDEST DUP2 DUP2 LT ISZERO PUSH3 0x936 JUMPI PUSH3 0x92A PUSH0 DUP3 PUSH3 0x8F8 JUMP JUMPDEST PUSH1 0x1 DUP2 ADD SWAP1 POP PUSH3 0x915 JUMP JUMPDEST POP POP JUMP JUMPDEST PUSH1 0x1F DUP3 GT ISZERO PUSH3 0x985 JUMPI PUSH3 0x94F DUP2 PUSH3 0x805 JUMP JUMPDEST PUSH3 0x95A DUP5 PUSH3 0x817 JUMP JUMPDEST DUP2 ADD PUSH1 0x20 DUP6 LT ISZERO PUSH3 0x96A JUMPI DUP2 SWAP1 POP JUMPDEST PUSH3 0x982 PUSH3 0x979 DUP6 PUSH3 0x817 JUMP JUMPDEST DUP4 ADD DUP3 PUSH3 0x914 JUMP JUMPDEST POP POP JUMPDEST POP POP POP JUMP JUMPDEST PUSH0 DUP3 DUP3 SHR SWAP1 POP SWAP3 SWAP2 POP POP JUMP JUMPDEST PUSH0 PUSH3 0x9A7 PUSH0 NOT DUP5 PUSH1 0x8 MUL PUSH3 0x98A JUMP JUMPDEST NOT DUP1 DUP4 AND SWAP2 POP POP SWAP3 SWAP2 POP POP JUMP JUMPDEST PUSH0 PUSH3 0x9C1 DUP4 DUP4 PUSH3 0x996 JUMP JUMPDEST SWAP2 POP DUP3 PUSH1 0x2 MUL DUP3 OR SWAP1 POP SWAP3 SWAP2 POP POP JUMP JUMPDEST PUSH3 0x9DC DUP3 PUSH3 0x79A JUMP JUMPDEST PUSH8 0xFFFFFFFFFFFFFFFF DUP2 GT ISZERO PUSH3 0x9F8 JUMPI PUSH3 0x9F7 PUSH3 0x5BB JUMP JUMPDEST JUMPDEST PUSH3 0xA04 DUP3 SLOAD PUSH3 0x7D1 JUMP JUMPDEST PUSH3 0xA11 DUP3 DUP3 DUP6 PUSH3 0x93A JUMP JUMPDEST PUSH0 PUSH1 0x20 SWAP1 POP PUSH1 0x1F DUP4 GT PUSH1 0x1 DUP2 EQ PUSH3 0xA47 JUMPI PUSH0 DUP5 ISZERO PUSH3 0xA32 JUMPI DUP3 DUP8 ADD MLOAD SWAP1 POP JUMPDEST PUSH3 0xA3E DUP6 DUP3 PUSH3 0x9B4 JUMP JUMPDEST DUP7 SSTORE POP PUSH3 0xAAD JUMP JUMPDEST PUSH1 0x1F NOT DUP5 AND PUSH3 0xA57 DUP7 PUSH3 0x805 JUMP JUMPDEST PUSH0 JUMPDEST DUP3 DUP2 LT ISZERO PUSH3 0xA80 JUMPI DUP5 DUP10 ADD MLOAD DUP3 SSTORE PUSH1 0x1 DUP3 ADD SWAP2 POP PUSH1 0x20 DUP6 ADD SWAP5 POP PUSH1 0x20 DUP2 ADD SWAP1 POP PUSH3 0xA59 JUMP JUMPDEST DUP7 DUP4 LT ISZERO PUSH3 0xAA0 JUMPI DUP5 DUP10 ADD MLOAD PUSH3 0xA9C PUSH1 0x1F DUP10 AND DUP3 PUSH3 0x996 JUMP JUMPDEST DUP4 SSTORE POP JUMPDEST PUSH1 0x1 PUSH1 0x2 DUP9 MUL ADD DUP9 SSTORE POP POP POP JUMPDEST POP POP POP POP POP POP JUMP JUMPDEST PUSH32 0x4E487B7100000000000000000000000000000000000000000000000000000000 PUSH0 MSTORE PUSH1 0x11 PUSH1 0x4 MSTORE PUSH1 0x24 PUSH0 REVERT JUMPDEST PUSH0 DUP2 PUSH1 0x1 SHR SWAP1 POP SWAP2 SWAP1 POP JUMP JUMPDEST PUSH0 DUP1 DUP3 SWAP2 POP DUP4 SWAP1 POP JUMPDEST PUSH1 0x1 DUP6 GT ISZERO PUSH3 0xB3F JUMPI DUP1 DUP7 DIV DUP2 GT ISZERO PUSH3 0xB17 JUMPI PUSH3 0xB16 PUSH3 0xAB5 JUMP JUMPDEST JUMPDEST PUSH1 0x1 DUP6 AND ISZERO PUSH3 0xB27 JUMPI DUP1 DUP3 MUL SWAP2 POP JUMPDEST DUP1 DUP2 MUL SWAP1 POP PUSH3 0xB37 DUP6 PUSH3 0xAE2 JUMP JUMPDEST SWAP5 POP PUSH3 0xAF7 JUMP JUMPDEST SWAP5 POP SWAP5 SWAP3 POP POP POP JUMP JUMPDEST PUSH0 DUP3 PUSH3 0xB59 JUMPI PUSH1 0x1 SWAP1 POP PUSH3 0xC2B JUMP JUMPDEST DUP2 PUSH3 0xB68 JUMPI PUSH0 SWAP1 POP PUSH3 0xC2B JUMP JUMPDEST DUP2 PUSH1 0x1 DUP2 EQ PUSH3 0xB81 JUMPI PUSH1 0x2 DUP2 EQ PUSH3 0xB8C JUMPI PUSH3 0xBC2 JUMP JUMPDEST PUSH1 0x1 SWAP2 POP POP PUSH3 0xC2B JUMP JUMPDEST PUSH1 0xFF DUP5 GT ISZERO PUSH3 0xBA1 JUMPI PUSH3 0xBA0 PUSH3 0xAB5 JUMP JUMPDEST JUMPDEST DUP4 PUSH1 0x2 EXP SWAP2 POP DUP5 DUP3 GT ISZERO PUSH3 0xBBB JUMPI PUSH3 0xBBA PUSH3 0xAB5 JUMP JUMPDEST JUMPDEST POP PUSH3 0xC2B JUMP JUMPDEST POP PUSH1 0x20 DUP4 LT PUSH2 0x133 DUP4 LT AND PUSH1 0x4E DUP5 LT PUSH1 0xB DUP5 LT AND OR ISZERO PUSH3 0xBFC JUMPI DUP3 DUP3 EXP SWAP1 POP DUP4 DUP2 GT ISZERO PUSH3 0xBF6 JUMPI PUSH3 0xBF5 PUSH3 0xAB5 JUMP JUMPDEST JUMPDEST PUSH3 0xC2B JUMP JUMPDEST PUSH3 0xC0B DUP5 DUP5 DUP5 PUSH1 0x1 PUSH3 0xAEE JUMP JUMPDEST SWAP3 POP SWAP1 POP DUP2 DUP5 DIV DUP2 GT ISZERO PUSH3 0xC25 JUMPI PUSH3 0xC24 PUSH3 0xAB5 JUMP JUMPDEST JUMPDEST DUP2 DUP2 MUL SWAP1 POP JUMPDEST SWAP4 SWAP3 POP POP POP JUMP JUMPDEST PUSH0 PUSH1 0xFF DUP3 AND SWAP1 POP SWAP2 SWAP1 POP JUMP JUMPDEST PUSH0 PUSH3 0xC4A DUP3 PUSH3 0x887 JUMP JUMPDEST SWAP2 POP PUSH3 0xC57 DUP4 PUSH3 0xC32 JUMP JUMPDEST SWAP3 POP PUSH3 0xC86 PUSH32 0xFFFFFFFFFFFFFFFFFFFFFFFFFFFFFFFFFFFFFFFFFFFFFFFFFFFFFFFFFFFFFFFF DUP5 DUP5 PUSH3 0xB48 JUMP JUMPDEST SWAP1 POP SWAP3 SWAP2 POP POP JUMP JUMPDEST PUSH0 PUSH3 0xC9A DUP3 PUSH3 0x887 JUMP JUMPDEST SWAP2 POP PUSH3 0xCA7 DUP4 PUSH3 0x887 JUMP JUMPDEST SWAP3 POP DUP3 DUP3 MUL PUSH3 0xCB7 DUP2 PUSH3 0x887 JUMP JUMPDEST SWAP2 POP DUP3 DUP3 DIV DUP5 EQ DUP4 ISZERO OR PUSH3 0xCD1 JUMPI PUSH3 0xCD0 PUSH3 0xAB5 JUMP JUMPDEST JUMPDEST POP SWAP3 SWAP2 POP POP JUMP JUMPDEST PUSH0 PUSH20 0xFFFFFFFFFFFFFFFFFFFFFFFFFFFFFFFFFFFFFFFF DUP3 AND SWAP1 POP SWAP2 SWAP1 POP JUMP JUMPDEST PUSH0 PUSH3 0xD03 DUP3 PUSH3 0xCD8 JUMP JUMPDEST SWAP1 POP SWAP2 SWAP1 POP JUMP JUMPDEST PUSH3 0xD15 DUP2 PUSH3 0xCF7 JUMP JUMPDEST DUP3 MSTORE POP POP JUMP JUMPDEST PUSH0 PUSH1 0x20 DUP3 ADD SWAP1 POP PUSH3 0xD30 PUSH0 DUP4 ADD DUP5 PUSH3 0xD0A JUMP JUMPDEST SWAP3 SWAP2 POP POP JUMP JUMPDEST PUSH0 PUSH3 0xD42 DUP3 PUSH3 0x887 JUMP JUMPDEST SWAP2 POP PUSH3 0xD4F DUP4 PUSH3 0x887 JUMP JUMPDEST SWAP3 POP DUP3 DUP3 ADD SWAP1 POP DUP1 DUP3 GT ISZERO PUSH3 0xD6A JUMPI PUSH3 0xD69 PUSH3 0xAB5 JUMP JUMPDEST JUMPDEST SWAP3 SWAP2 POP POP JUMP JUMPDEST PUSH3 0xD7B DUP2 PUSH3 0x887 JUMP JUMPDEST DUP3 MSTORE POP POP JUMP JUMPDEST PUSH0 PUSH1 0x60 DUP3 ADD SWAP1 POP PUSH3 0xD96 PUSH0 DUP4 ADD DUP7 PUSH3 0xD0A JUMP JUMPDEST PUSH3 0xDA5 PUSH1 0x20 DUP4 ADD DUP6 PUSH3 0xD70 JUMP JUMPDEST PUSH3 0xDB4 PUSH1 0x40 DUP4 ADD DUP5 PUSH3 0xD70 JUMP JUMPDEST SWAP5 SWAP4 POP POP POP POP JUMP JUMPDEST PUSH0 PUSH1 0x20 DUP3 ADD SWAP1 POP PUSH3 0xDD1 PUSH0 DUP4 ADD DUP5 PUSH3 0xD70 JUMP JUMPDEST SWAP3 SWAP2 POP POP JUMP JUMPDEST PUSH2 0x1FC4 DUP1 PUSH3 0xDE5 PUSH0 CODECOPY PUSH0 RETURN INVALID PUSH1 0x80 PUSH1 0x40 MSTORE CALLVALUE DUP1 ISZERO PUSH2 0xF JUMPI PUSH0 DUP1 REVERT JUMPDEST POP PUSH1 0x4 CALLDATASIZE LT PUSH2 0xF3 JUMPI PUSH0 CALLDATALOAD PUSH1 0xE0 SHR DUP1 PUSH4 0x545E163E GT PUSH2 0x95 JUMPI DUP1 PUSH4 0x95D89B41 GT PUSH2 0x64 JUMPI DUP1 PUSH4 0x95D89B41 EQ PUSH2 0x29A JUMPI DUP1 PUSH4 0xA9059CBB EQ PUSH2 0x2B8 JUMPI DUP1 PUSH4 0xBFAEDE13 EQ PUSH2 0x2E8 JUMPI DUP1 PUSH4 0xDD62ED3E EQ PUSH2 0x2F2 JUMPI PUSH2 0xF3 JUMP JUMPDEST DUP1 PUSH4 0x545E163E EQ PUSH2 0x1FF JUMPI DUP1 PUSH4 0x5DFAC4E4 EQ PUSH2 0x230 JUMPI DUP1 PUSH4 0x70A08231 EQ PUSH2 0x24E JUMPI DUP1 PUSH4 0x9257B591 EQ PUSH2 0x27E JUMPI PUSH2 0xF3 JUMP JUMPDEST DUP1 PUSH4 0x18160DDD GT PUSH2 0xD1 JUMPI DUP1 PUSH4 0x18160DDD EQ PUSH2 0x163 JUMPI DUP1 PUSH4 0x23B872DD EQ PUSH2 0x181 JUMPI DUP1 PUSH4 0x313CE567 EQ PUSH2 0x1B1 JUMPI DUP1 PUSH4 0x365B98B2 EQ PUSH2 0x1CF JUMPI PUSH2 0xF3 JUMP JUMPDEST DUP1 PUSH4 0x3E276AF EQ PUSH2 0xF7 JUMPI DUP1 PUSH4 0x6FDDE03 EQ PUSH2 0x115 JUMPI DUP1 PUSH4 0x95EA7B3 EQ PUSH2 0x133 JUMPI JUMPDEST PUSH0 DUP1 REVERT JUMPDEST PUSH2 0xFF PUSH2 0x322 JUMP JUMPDEST PUSH1 0x40 MLOAD PUSH2 0x10C SWAP2 SWAP1 PUSH2 0x14AE JUMP JUMPDEST PUSH1 0x40 MLOAD DUP1 SWAP2 SUB SWAP1 RETURN JUMPDEST PUSH2 0x11D PUSH2 0x4D8 JUMP JUMPDEST PUSH1 0x40 MLOAD PUSH2 0x12A SWAP2 SWAP1 PUSH2 0x1516 JUMP JUMPDEST PUSH1 0x40 MLOAD DUP1 SWAP2 SUB SWAP1 RETURN JUMPDEST PUSH2 0x14D PUSH1 0x4 DUP1 CALLDATASIZE SUB DUP2 ADD SWAP1 PUSH2 0x148 SWAP2 SWAP1 PUSH2 0x15C7 JUMP JUMPDEST PUSH2 0x568 JUMP JUMPDEST PUSH1 0x40 MLOAD PUSH2 0x15A SWAP2 SWAP1 PUSH2 0x161F JUMP JUMPDEST PUSH1 0x40 MLOAD DUP1 SWAP2 SUB SWAP1 RETURN JUMPDEST PUSH2 0x16B PUSH2 0x58A JUMP JUMPDEST PUSH1 0x40 MLOAD PUSH2 0x178 SWAP2 SWAP1 PUSH2 0x1647 JUMP JUMPDEST PUSH1 0x40 MLOAD DUP1 SWAP2 SUB SWAP1 RETURN JUMPDEST PUSH2 0x19B PUSH1 0x4 DUP1 CALLDATASIZE SUB DUP2 ADD SWAP1 PUSH2 0x196 SWAP2 SWAP1 PUSH2 0x1660 JUMP JUMPDEST PUSH2 0x593 JUMP JUMPDEST PUSH1 0x40 MLOAD PUSH2 0x1A8 SWAP2 SWAP1 PUSH2 0x161F JUMP JUMPDEST PUSH1 0x40 MLOAD DUP1 SWAP2 SUB SWAP1 RETURN JUMPDEST PUSH2 0x1B9 PUSH2 0x5C1 JUMP JUMPDEST PUSH1 0x40 MLOAD PUSH2 0x1C6 SWAP2 SWAP1 PUSH2 0x16CB JUMP JUMPDEST PUSH1 0x40 MLOAD DUP1 SWAP2 SUB SWAP1 RETURN JUMPDEST PUSH2 0x1E9 PUSH1 0x4 DUP1 CALLDATASIZE SUB DUP2 ADD SWAP1 PUSH2 0x1E4 SWAP2 SWAP1 PUSH2 0x16E4 JUMP JUMPDEST PUSH2 0x5C9 JUMP JUMPDEST PUSH1 0x40 MLOAD PUSH2 0x1F6 SWAP2 SWAP1 PUSH2 0x171E JUMP JUMPDEST PUSH1 0x40 MLOAD DUP1 SWAP2 SUB SWAP1 RETURN JUMPDEST PUSH2 0x219 PUSH1 0x4 DUP1 CALLDATASIZE SUB DUP2 ADD SWAP1 PUSH2 0x214 SWAP2 SWAP1 PUSH2 0x15C7 JUMP JUMPDEST PUSH2 0x60D JUMP JUMPDEST PUSH1 0x40 MLOAD PUSH2 0x227 SWAP3 SWAP2 SWAP1 PUSH2 0x1737 JUMP JUMPDEST PUSH1 0x40 MLOAD DUP1 SWAP2 SUB SWAP1 RETURN JUMPDEST PUSH2 0x238 PUSH2 0x753 JUMP JUMPDEST PUSH1 0x40 MLOAD PUSH2 0x245 SWAP2 SWAP1 PUSH2 0x183D JUMP JUMPDEST PUSH1 0x40 MLOAD DUP1 SWAP2 SUB SWAP1 RETURN JUMPDEST PUSH2 0x268 PUSH1 0x4 DUP1 CALLDATASIZE SUB DUP2 ADD SWAP1 PUSH2 0x263 SWAP2 SWAP1 PUSH2 0x185D JUMP JUMPDEST PUSH2 0x7FF JUMP JUMPDEST PUSH1 0x40 MLOAD PUSH2 0x275 SWAP2 SWAP1 PUSH2 0x1647 JUMP JUMPDEST PUSH1 0x40 MLOAD DUP1 SWAP2 SUB SWAP1 RETURN JUMPDEST PUSH2 0x298 PUSH1 0x4 DUP1 CALLDATASIZE SUB DUP2 ADD SWAP1 PUSH2 0x293 SWAP2 SWAP1 PUSH2 0x185D JUMP JUMPDEST PUSH2 0x844 JUMP JUMPDEST STOP JUMPDEST PUSH2 0x2A2 PUSH2 0x872 JUMP JUMPDEST PUSH1 0x40 MLOAD PUSH2 0x2AF SWAP2 SWAP1 PUSH2 0x1516 JUMP JUMPDEST PUSH1 0x40 MLOAD DUP1 SWAP2 SUB SWAP1 RETURN JUMPDEST PUSH2 0x2D2 PUSH1 0x4 DUP1 CALLDATASIZE SUB DUP2 ADD SWAP1 PUSH2 0x2CD SWAP2 SWAP1 PUSH2 0x15C7 JUMP JUMPDEST PUSH2 0x902 JUMP JUMPDEST PUSH1 0x40 MLOAD PUSH2 0x2DF SWAP2 SWAP1 PUSH2 0x161F JUMP JUMPDEST PUSH1 0x40 MLOAD DUP1 SWAP2 SUB SWAP1 RETURN JUMPDEST PUSH2 0x2F0 PUSH2 0x924 JUMP JUMPDEST STOP JUMPDEST PUSH2 0x30C PUSH1 0x4 DUP1 CALLDATASIZE SUB DUP2 ADD SWAP1 PUSH2 0x307 SWAP2 SWAP1 PUSH2 0x1888 JUMP JUMPDEST PUSH2 0xCA4 JUMP JUMPDEST PUSH1 0x40 MLOAD PUSH2 0x319 SWAP2 SWAP1 PUSH2 0x1647 JUMP JUMPDEST PUSH1 0x40 MLOAD DUP1 SWAP2 SUB SWAP1 RETURN JUMPDEST PUSH1 0x60 PUSH1 0x8 PUSH0 CALLER PUSH20 0xFFFFFFFFFFFFFFFFFFFFFFFFFFFFFFFFFFFFFFFF AND PUSH20 0xFFFFFFFFFFFFFFFFFFFFFFFFFFFFFFFFFFFFFFFF AND DUP2 MSTORE PUSH1 0x20 ADD SWAP1 DUP2 MSTORE PUSH1 0x20 ADD PUSH0 KECCAK256 DUP1 SLOAD DUP1 PUSH1 0x20 MUL PUSH1 0x20 ADD PUSH1 0x40 MLOAD SWAP1 DUP2 ADD PUSH1 0x40 MSTORE DUP1 SWAP3 SWAP2 SWAP1 DUP2 DUP2 MSTORE PUSH1 0x20 ADD PUSH0 SWAP1 JUMPDEST DUP3 DUP3 LT ISZERO PUSH2 0x4CF JUMPI DUP4 DUP3 SWAP1 PUSH0 MSTORE PUSH1 0x20 PUSH0 KECCAK256 SWAP1 PUSH1 0x2 MUL ADD PUSH1 0x40 MLOAD DUP1 PUSH1 0x40 ADD PUSH1 0x40 MSTORE SWAP1 DUP2 PUSH0 DUP3 ADD DUP1 SLOAD PUSH2 0x3B0 SWAP1 PUSH2 0x18F3 JUMP JUMPDEST DUP1 PUSH1 0x1F ADD PUSH1 0x20 DUP1 SWAP2 DIV MUL PUSH1 0x20 ADD PUSH1 0x40 MLOAD SWAP1 DUP2 ADD PUSH1 0x40 MSTORE DUP1 SWAP3 SWAP2 SWAP1 DUP2 DUP2 MSTORE PUSH1 0x20 ADD DUP3 DUP1 SLOAD PUSH2 0x3DC SWAP1 PUSH2 0x18F3 JUMP JUMPDEST DUP1 ISZERO PUSH2 0x427 JUMPI DUP1 PUSH1 0x1F LT PUSH2 0x3FE JUMPI PUSH2 0x100 DUP1 DUP4 SLOAD DIV MUL DUP4 MSTORE SWAP2 PUSH1 0x20 ADD SWAP2 PUSH2 0x427 JUMP JUMPDEST DUP3 ADD SWAP2 SWAP1 PUSH0 MSTORE PUSH1 0x20 PUSH0 KECCAK256 SWAP1 JUMPDEST DUP2 SLOAD DUP2 MSTORE SWAP1 PUSH1 0x1 ADD SWAP1 PUSH1 0x20 ADD DUP1 DUP4 GT PUSH2 0x40A JUMPI DUP3 SWAP1 SUB PUSH1 0x1F AND DUP3 ADD SWAP2 JUMPDEST POP POP POP POP POP DUP2 MSTORE PUSH1 0x20 ADD PUSH1 0x1 DUP3 ADD DUP1 SLOAD PUSH2 0x440 SWAP1 PUSH2 0x18F3 JUMP JUMPDEST DUP1 PUSH1 0x1F ADD PUSH1 0x20 DUP1 SWAP2 DIV MUL PUSH1 0x20 ADD PUSH1 0x40 MLOAD SWAP1 DUP2 ADD PUSH1 0x40 MSTORE DUP1 SWAP3 SWAP2 SWAP1 DUP2 DUP2 MSTORE PUSH1 0x20 ADD DUP3 DUP1 SLOAD PUSH2 0x46C SWAP1 PUSH2 0x18F3 JUMP JUMPDEST DUP1 ISZERO PUSH2 0x4B7 JUMPI DUP1 PUSH1 0x1F LT PUSH2 0x48E JUMPI PUSH2 0x100 DUP1 DUP4 SLOAD DIV MUL DUP4 MSTORE SWAP2 PUSH1 0x20 ADD SWAP2 PUSH2 0x4B7 JUMP JUMPDEST DUP3 ADD SWAP2 SWAP1 PUSH0 MSTORE PUSH1 0x20 PUSH0 KECCAK256 SWAP1 JUMPDEST DUP2 SLOAD DUP2 MSTORE SWAP1 PUSH1 0x1 ADD SWAP1 PUSH1 0x20 ADD DUP1 DUP4 GT PUSH2 0x49A JUMPI DUP3 SWAP1 SUB PUSH1 0x1F AND DUP3 ADD SWAP2 JUMPDEST POP POP POP POP POP DUP2 MSTORE POP POP DUP2 MSTORE PUSH1 0x20 ADD SWAP1 PUSH1 0x1 ADD SWAP1 PUSH2 0x380 JUMP JUMPDEST POP POP POP POP SWAP1 POP SWAP1 JUMP JUMPDEST PUSH1 0x60 PUSH1 0x3 DUP1 SLOAD PUSH2 0x4E7 SWAP1 PUSH2 0x18F3 JUMP JUMPDEST DUP1 PUSH1 0x1F ADD PUSH1 0x20 DUP1 SWAP2 DIV MUL PUSH1 0x20 ADD PUSH1 0x40 MLOAD SWAP1 DUP2 ADD PUSH1 0x40 MSTORE DUP1 SWAP3 SWAP2 SWAP1 DUP2 DUP2 MSTORE PUSH1 0x20 ADD DUP3 DUP1 SLOAD PUSH2 0x513 SWAP1 PUSH2 0x18F3 JUMP JUMPDEST DUP1 ISZERO PUSH2 0x55E JUMPI DUP1 PUSH1 0x1F LT PUSH2 0x535 JUMPI PUSH2 0x100 DUP1 DUP4 SLOAD DIV MUL DUP4 MSTORE SWAP2 PUSH1 0x20 ADD SWAP2 PUSH2 0x55E JUMP JUMPDEST DUP3 ADD SWAP2 SWAP1 PUSH0 MSTORE PUSH1 0x20 PUSH0 KECCAK256 SWAP1 JUMPDEST DUP2 SLOAD DUP2 MSTORE SWAP1 PUSH1 0x1 ADD SWAP1 PUSH1 0x20 ADD DUP1 DUP4 GT PUSH2 0x541 JUMPI DUP3 SWAP1 SUB PUSH1 0x1F AND DUP3 ADD SWAP2 JUMPDEST POP POP POP POP POP SWAP1 POP SWAP1 JUMP JUMPDEST PUSH0 DUP1 PUSH2 0x572 PUSH2 0xD26 JUMP JUMPDEST SWAP1 POP PUSH2 0x57F DUP2 DUP6 DUP6 PUSH2 0xD2D JUMP JUMPDEST PUSH1 0x1 SWAP2 POP POP SWAP3 SWAP2 POP POP JUMP JUMPDEST PUSH0 PUSH1 0x2 SLOAD SWAP1 POP SWAP1 JUMP JUMPDEST PUSH0 DUP1 PUSH2 0x59D PUSH2 0xD26 JUMP JUMPDEST SWAP1 POP PUSH2 0x5AA DUP6 DUP3 DUP6 PUSH2 0xD3F JUMP JUMPDEST PUSH2 0x5B5 DUP6 DUP6 DUP6 PUSH2 0xDD1 JUMP JUMPDEST PUSH1 0x1 SWAP2 POP POP SWAP4 SWAP3 POP POP POP JUMP JUMPDEST PUSH0 PUSH1 0x12 SWAP1 POP SWAP1 JUMP JUMPDEST PUSH1 0x9 DUP2 DUP2 SLOAD DUP2 LT PUSH2 0x5D8 JUMPI PUSH0 DUP1 REVERT JUMPDEST SWAP1 PUSH0 MSTORE PUSH1 0x20 PUSH0 KECCAK256 ADD PUSH0 SWAP2 POP SWAP1 POP DUP1 PUSH0 ADD PUSH0 SWAP1 SLOAD SWAP1 PUSH2 0x100 EXP SWAP1 DIV PUSH20 0xFFFFFFFFFFFFFFFFFFFFFFFFFFFFFFFFFFFFFFFF AND SWAP1 POP DUP2 JUMP JUMPDEST PUSH1 0x8 PUSH1 0x20 MSTORE DUP2 PUSH0 MSTORE PUSH1 0x40 PUSH0 KECCAK256 DUP2 DUP2 SLOAD DUP2 LT PUSH2 0x626 JUMPI PUSH0 DUP1 REVERT JUMPDEST SWAP1 PUSH0 MSTORE PUSH1 0x20 PUSH0 KECCAK256 SWAP1 PUSH1 0x2 MUL ADD PUSH0 SWAP2 POP SWAP2 POP POP DUP1 PUSH0 ADD DUP1 SLOAD PUSH2 0x646 SWAP1 PUSH2 0x18F3 JUMP JUMPDEST DUP1 PUSH1 0x1F ADD PUSH1 0x20 DUP1 SWAP2 DIV MUL PUSH1 0x20 ADD PUSH1 0x40 MLOAD SWAP1 DUP2 ADD PUSH1 0x40 MSTORE DUP1 SWAP3 SWAP2 SWAP1 DUP2 DUP2 MSTORE PUSH1 0x20 ADD DUP3 DUP1 SLOAD PUSH2 0x672 SWAP1 PUSH2 0x18F3 JUMP JUMPDEST DUP1 ISZERO PUSH2 0x6BD JUMPI DUP1 PUSH1 0x1F LT PUSH2 0x694 JUMPI PUSH2 0x100 DUP1 DUP4 SLOAD DIV MUL DUP4 MSTORE SWAP2 PUSH1 0x20 ADD SWAP2 PUSH2 0x6BD JUMP JUMPDEST DUP3 ADD SWAP2 SWAP1 PUSH0 MSTORE PUSH1 0x20 PUSH0 KECCAK256 SWAP1 JUMPDEST DUP2 SLOAD DUP2 MSTORE SWAP1 PUSH1 0x1 ADD SWAP1 PUSH1 0x20 ADD DUP1 DUP4 GT PUSH2 0x6A0 JUMPI DUP3 SWAP1 SUB PUSH1 0x1F AND DUP3 ADD SWAP2 JUMPDEST POP POP POP POP POP SWAP1 DUP1 PUSH1 0x1 ADD DUP1 SLOAD PUSH2 0x6D2 SWAP1 PUSH2 0x18F3 JUMP JUMPDEST DUP1 PUSH1 0x1F ADD PUSH1 0x20 DUP1 SWAP2 DIV MUL PUSH1 0x20 ADD PUSH1 0x40 MLOAD SWAP1 DUP2 ADD PUSH1 0x40 MSTORE DUP1 SWAP3 SWAP2 SWAP1 DUP2 DUP2 MSTORE PUSH1 0x20 ADD DUP3 DUP1 SLOAD PUSH2 0x6FE SWAP1 PUSH2 0x18F3 JUMP JUMPDEST DUP1 ISZERO PUSH2 0x749 JUMPI DUP1 PUSH1 0x1F LT PUSH2 0x720 JUMPI PUSH2 0x100 DUP1 DUP4 SLOAD DIV MUL DUP4 MSTORE SWAP2 PUSH1 0x20 ADD SWAP2 PUSH2 0x749 JUMP JUMPDEST DUP3 ADD SWAP2 SWAP1 PUSH0 MSTORE PUSH1 0x20 PUSH0 KECCAK256 SWAP1 JUMPDEST DUP2 SLOAD DUP2 MSTORE SWAP1 PUSH1 0x1 ADD SWAP1 PUSH1 0x20 ADD DUP1 DUP4 GT PUSH2 0x72C JUMPI DUP3 SWAP1 SUB PUSH1 0x1F AND DUP3 ADD SWAP2 JUMPDEST POP POP POP POP POP SWAP1 POP DUP3 JUMP JUMPDEST PUSH1 0x60 PUSH1 0x9 DUP1 SLOAD DUP1 PUSH1 0x20 MUL PUSH1 0x20 ADD PUSH1 0x40 MLOAD SWAP1 DUP2 ADD PUSH1 0x40 MSTORE DUP1 SWAP3 SWAP2 SWAP1 DUP2 DUP2 MSTORE PUSH1 0x20 ADD PUSH0 SWAP1 JUMPDEST DUP3 DUP3 LT ISZERO PUSH2 0x7F6 JUMPI DUP4 DUP3 SWAP1 PUSH0 MSTORE PUSH1 0x20 PUSH0 KECCAK256 ADD PUSH1 0x40 MLOAD DUP1 PUSH1 0x20 ADD PUSH1 0x40 MSTORE SWAP1 DUP2 PUSH0 DUP3 ADD PUSH0 SWAP1 SLOAD SWAP1 PUSH2 0x100 EXP SWAP1 DIV PUSH20 0xFFFFFFFFFFFFFFFFFFFFFFFFFFFFFFFFFFFFFFFF AND PUSH20 0xFFFFFFFFFFFFFFFFFFFFFFFFFFFFFFFFFFFFFFFF AND PUSH20 0xFFFFFFFFFFFFFFFFFFFFFFFFFFFFFFFFFFFFFFFF AND DUP2 MSTORE POP POP DUP2 MSTORE PUSH1 0x20 ADD SWAP1 PUSH1 0x1 ADD SWAP1 PUSH2 0x776 JUMP JUMPDEST POP POP POP POP SWAP1 POP SWAP1 JUMP JUMPDEST PUSH0 DUP1 PUSH0 DUP4 PUSH20 0xFFFFFFFFFFFFFFFFFFFFFFFFFFFFFFFFFFFFFFFF AND PUSH20 0xFFFFFFFFFFFFFFFFFFFFFFFFFFFFFFFFFFFFFFFF AND DUP2 MSTORE PUSH1 0x20 ADD SWAP1 DUP2 MSTORE PUSH1 0x20 ADD PUSH0 KECCAK256 SLOAD SWAP1 POP SWAP2 SWAP1 POP JUMP JUMPDEST PUSH2 0x86F DUP2 PUSH2 0x850 PUSH2 0x5C1 JUMP JUMPDEST PUSH1 0xA PUSH2 0x85C SWAP2 SWAP1 PUSH2 0x1A7F JUMP JUMPDEST PUSH3 0x186A0 PUSH2 0x86A SWAP2 SWAP1 PUSH2 0x1AC9 JUMP JUMPDEST PUSH2 0xEC1 JUMP JUMPDEST POP JUMP JUMPDEST PUSH1 0x60 PUSH1 0x4 DUP1 SLOAD PUSH2 0x881 SWAP1 PUSH2 0x18F3 JUMP JUMPDEST DUP1 PUSH1 0x1F ADD PUSH1 0x20 DUP1 SWAP2 DIV MUL PUSH1 0x20 ADD PUSH1 0x40 MLOAD SWAP1 DUP2 ADD PUSH1 0x40 MSTORE DUP1 SWAP3 SWAP2 SWAP1 DUP2 DUP2 MSTORE PUSH1 0x20 ADD DUP3 DUP1 SLOAD PUSH2 0x8AD SWAP1 PUSH2 0x18F3 JUMP JUMPDEST DUP1 ISZERO PUSH2 0x8F8 JUMPI DUP1 PUSH1 0x1F LT PUSH2 0x8CF JUMPI PUSH2 0x100 DUP1 DUP4 SLOAD DIV MUL DUP4 MSTORE SWAP2 PUSH1 0x20 ADD SWAP2 PUSH2 0x8F8 JUMP JUMPDEST DUP3 ADD SWAP2 SWAP1 PUSH0 MSTORE PUSH1 0x20 PUSH0 KECCAK256 SWAP1 JUMPDEST DUP2 SLOAD DUP2 MSTORE SWAP1 PUSH1 0x1 ADD SWAP1 PUSH1 0x20 ADD DUP1 DUP4 GT PUSH2 0x8DB JUMPI DUP3 SWAP1 SUB PUSH1 0x1F AND DUP3 ADD SWAP2 JUMPDEST POP POP POP POP POP SWAP1 POP SWAP1 JUMP JUMPDEST PUSH0 DUP1 PUSH2 0x90C PUSH2 0xD26 JUMP JUMPDEST SWAP1 POP PUSH2 0x919 DUP2 DUP6 DUP6 PUSH2 0xDD1 JUMP JUMPDEST PUSH1 0x1 SWAP2 POP POP SWAP3 SWAP2 POP POP JUMP JUMPDEST PUSH1 0x5 SLOAD PUSH2 0x930 CALLER PUSH2 0x7FF JUMP JUMPDEST LT ISZERO PUSH2 0x93A JUMPI PUSH0 DUP1 REVERT JUMPDEST PUSH2 0x947 CALLER PUSH0 PUSH1 0x5 SLOAD PUSH2 0xF40 JUMP JUMPDEST PUSH0 TIMESTAMP COINBASE NUMBER PUSH1 0x40 MLOAD PUSH1 0x20 ADD PUSH2 0x95D SWAP4 SWAP3 SWAP2 SWAP1 PUSH2 0x1B80 JUMP JUMPDEST PUSH1 0x40 MLOAD PUSH1 0x20 DUP2 DUP4 SUB SUB DUP2 MSTORE SWAP1 PUSH1 0x40 MSTORE DUP1 MLOAD SWAP1 PUSH1 0x20 ADD KECCAK256 PUSH0 SHR SWAP1 POP PUSH1 0x3 DUP2 PUSH2 0x984 SWAP2 SWAP1 PUSH2 0x1BE9 JUMP JUMPDEST SWAP1 POP PUSH1 0x8 PUSH0 CALLER PUSH20 0xFFFFFFFFFFFFFFFFFFFFFFFFFFFFFFFFFFFFFFFF AND PUSH20 0xFFFFFFFFFFFFFFFFFFFFFFFFFFFFFFFFFFFFFFFF AND DUP2 MSTORE PUSH1 0x20 ADD SWAP1 DUP2 MSTORE PUSH1 0x20 ADD PUSH0 KECCAK256 PUSH1 0x40 MLOAD DUP1 PUSH1 0x40 ADD PUSH1 0x40 MSTORE DUP1 PUSH1 0x7 DUP5 DUP2 SLOAD DUP2 LT PUSH2 0x9E2 JUMPI PUSH2 0x9E1 PUSH2 0x1C19 JUMP JUMPDEST JUMPDEST SWAP1 PUSH0 MSTORE PUSH1 0x20 PUSH0 KECCAK256 ADD DUP1 SLOAD PUSH2 0x9F5 SWAP1 PUSH2 0x18F3 JUMP JUMPDEST DUP1 PUSH1 0x1F ADD PUSH1 0x20 DUP1 SWAP2 DIV MUL PUSH1 0x20 ADD PUSH1 0x40 MLOAD SWAP1 DUP2 ADD PUSH1 0x40 MSTORE DUP1 SWAP3 SWAP2 SWAP1 DUP2 DUP2 MSTORE PUSH1 0x20 ADD DUP3 DUP1 SLOAD PUSH2 0xA21 SWAP1 PUSH2 0x18F3 JUMP JUMPDEST DUP1 ISZERO PUSH2 0xA6C JUMPI DUP1 PUSH1 0x1F LT PUSH2 0xA43 JUMPI PUSH2 0x100 DUP1 DUP4 SLOAD DIV MUL DUP4 MSTORE SWAP2 PUSH1 0x20 ADD SWAP2 PUSH2 0xA6C JUMP JUMPDEST DUP3 ADD SWAP2 SWAP1 PUSH0 MSTORE PUSH1 0x20 PUSH0 KECCAK256 SWAP1 JUMPDEST DUP2 SLOAD DUP2 MSTORE SWAP1 PUSH1 0x1 ADD SWAP1 PUSH1 0x20 ADD DUP1 DUP4 GT PUSH2 0xA4F JUMPI DUP3 SWAP1 SUB PUSH1 0x1F AND DUP3 ADD SWAP2 JUMPDEST POP POP POP POP POP DUP2 MSTORE PUSH1 0x20 ADD PUSH1 0x6 DUP5 DUP2 SLOAD DUP2 LT PUSH2 0xA8A JUMPI PUSH2 0xA89 PUSH2 0x1C19 JUMP JUMPDEST JUMPDEST SWAP1 PUSH0 MSTORE PUSH1 0x20 PUSH0 KECCAK256 ADD DUP1 SLOAD PUSH2 0xA9D SWAP1 PUSH2 0x18F3 JUMP JUMPDEST DUP1 PUSH1 0x1F ADD PUSH1 0x20 DUP1 SWAP2 DIV MUL PUSH1 0x20 ADD PUSH1 0x40 MLOAD SWAP1 DUP2 ADD PUSH1 0x40 MSTORE DUP1 SWAP3 SWAP2 SWAP1 DUP2 DUP2 MSTORE PUSH1 0x20 ADD DUP3 DUP1 SLOAD PUSH2 0xAC9 SWAP1 PUSH2 0x18F3 JUMP JUMPDEST DUP1 ISZERO PUSH2 0xB14 JUMPI DUP1 PUSH1 0x1F LT PUSH2 0xAEB JUMPI PUSH2 0x100 DUP1 DUP4 SLOAD DIV MUL DUP4 MSTORE SWAP2 PUSH1 0x20 ADD SWAP2 PUSH2 0xB14 JUMP JUMPDEST DUP3 ADD SWAP2 SWAP1 PUSH0 MSTORE PUSH1 0x20 PUSH0 KECCAK256 SWAP1 JUMPDEST DUP2 SLOAD DUP2 MSTORE SWAP1 PUSH1 0x1 ADD SWAP1 PUSH1 0x20 ADD DUP1 DUP4 GT PUSH2 0xAF7 JUMPI DUP3 SWAP1 SUB PUSH1 0x1F AND DUP3 ADD SWAP2 JUMPDEST POP POP POP POP POP DUP2 MSTORE POP SWAP1 DUP1 PUSH1 0x1 DUP2 SLOAD ADD DUP1 DUP3 SSTORE DUP1 SWAP2 POP POP PUSH1 0x1 SWAP1 SUB SWAP1 PUSH0 MSTORE PUSH1 0x20 PUSH0 KECCAK256 SWAP1 PUSH1 0x2 MUL ADD PUSH0 SWAP1 SWAP2 SWAP1 SWAP2 SWAP1 SWAP2 POP PUSH0 DUP3 ADD MLOAD DUP2 PUSH0 ADD SWAP1 DUP2 PUSH2 0xB55 SWAP2 SWAP1 PUSH2 0x1E10 JUMP JUMPDEST POP PUSH1 0x20 DUP3 ADD MLOAD DUP2 PUSH1 0x1 ADD SWAP1 DUP2 PUSH2 0xB6B SWAP2 SWAP1 PUSH2 0x1E10 JUMP JUMPDEST POP POP POP PUSH0 DUP1 JUMPDEST PUSH1 0x9 DUP1 SLOAD SWAP1 POP DUP2 LT ISZERO PUSH2 0xC0A JUMPI CALLER PUSH20 0xFFFFFFFFFFFFFFFFFFFFFFFFFFFFFFFFFFFFFFFF AND PUSH1 0x9 DUP3 DUP2 SLOAD DUP2 LT PUSH2 0xBA9 JUMPI PUSH2 0xBA8 PUSH2 0x1C19 JUMP JUMPDEST JUMPDEST SWAP1 PUSH0 MSTORE PUSH1 0x20 PUSH0 KECCAK256 ADD PUSH0 ADD PUSH0 SWAP1 SLOAD SWAP1 PUSH2 0x100 EXP SWAP1 DIV PUSH20 0xFFFFFFFFFFFFFFFFFFFFFFFFFFFFFFFFFFFFFFFF AND PUSH20 0xFFFFFFFFFFFFFFFFFFFFFFFFFFFFFFFFFFFFFFFF AND SUB PUSH2 0xBF7 JUMPI PUSH1 0x1 SWAP2 POP PUSH2 0xC0A JUMP JUMPDEST DUP1 DUP1 PUSH2 0xC02 SWAP1 PUSH2 0x1EDF JUMP JUMPDEST SWAP2 POP POP PUSH2 0xB71 JUMP JUMPDEST POP DUP1 PUSH2 0xCA0 JUMPI PUSH1 0x9 PUSH1 0x40 MLOAD DUP1 PUSH1 0x20 ADD PUSH1 0x40 MSTORE DUP1 CALLER PUSH20 0xFFFFFFFFFFFFFFFFFFFFFFFFFFFFFFFFFFFFFFFF AND DUP2 MSTORE POP SWAP1 DUP1 PUSH1 0x1 DUP2 SLOAD ADD DUP1 DUP3 SSTORE DUP1 SWAP2 POP POP PUSH1 0x1 SWAP1 SUB SWAP1 PUSH0 MSTORE PUSH1 0x20 PUSH0 KECCAK256 ADD PUSH0 SWAP1 SWAP2 SWAP1 SWAP2 SWAP1 SWAP2 POP PUSH0 DUP3 ADD MLOAD DUP2 PUSH0 ADD PUSH0 PUSH2 0x100 EXP DUP2 SLOAD DUP2 PUSH20 0xFFFFFFFFFFFFFFFFFFFFFFFFFFFFFFFFFFFFFFFF MUL NOT AND SWAP1 DUP4 PUSH20 0xFFFFFFFFFFFFFFFFFFFFFFFFFFFFFFFFFFFFFFFF AND MUL OR SWAP1 SSTORE POP POP POP JUMPDEST POP POP JUMP JUMPDEST PUSH0 PUSH1 0x1 PUSH0 DUP5 PUSH20 0xFFFFFFFFFFFFFFFFFFFFFFFFFFFFFFFFFFFFFFFF AND PUSH20 0xFFFFFFFFFFFFFFFFFFFFFFFFFFFFFFFFFFFFFFFF AND DUP2 MSTORE PUSH1 0x20 ADD SWAP1 DUP2 MSTORE PUSH1 0x20 ADD PUSH0 KECCAK256 PUSH0 DUP4 PUSH20 0xFFFFFFFFFFFFFFFFFFFFFFFFFFFFFFFFFFFFFFFF AND PUSH20 0xFFFFFFFFFFFFFFFFFFFFFFFFFFFFFFFFFFFFFFFF AND DUP2 MSTORE PUSH1 0x20 ADD SWAP1 DUP2 MSTORE PUSH1 0x20 ADD PUSH0 KECCAK256 SLOAD SWAP1 POP SWAP3 SWAP2 POP POP JUMP JUMPDEST PUSH0 CALLER SWAP1 POP SWAP1 JUMP JUMPDEST PUSH2 0xD3A DUP4 DUP4 DUP4 PUSH1 0x1 PUSH2 0x1159 JUMP JUMPDEST POP POP POP JUMP JUMPDEST PUSH0 PUSH2 0xD4A DUP5 DUP5 PUSH2 0xCA4 JUMP JUMPDEST SWAP1 POP PUSH32 0xFFFFFFFFFFFFFFFFFFFFFFFFFFFFFFFFFFFFFFFFFFFFFFFFFFFFFFFFFFFFFFFF DUP2 EQ PUSH2 0xDCB JUMPI DUP2 DUP2 LT ISZERO PUSH2 0xDBC JUMPI DUP3 DUP2 DUP4 PUSH1 0x40 MLOAD PUSH32 0xFB8F41B200000000000000000000000000000000000000000000000000000000 DUP2 MSTORE PUSH1 0x4 ADD PUSH2 0xDB3 SWAP4 SWAP3 SWAP2 SWAP1 PUSH2 0x1F26 JUMP JUMPDEST PUSH1 0x40 MLOAD DUP1 SWAP2 SUB SWAP1 REVERT JUMPDEST PUSH2 0xDCA DUP5 DUP5 DUP5 DUP5 SUB PUSH0 PUSH2 0x1159 JUMP JUMPDEST JUMPDEST POP POP POP POP JUMP JUMPDEST PUSH0 PUSH20 0xFFFFFFFFFFFFFFFFFFFFFFFFFFFFFFFFFFFFFFFF AND DUP4 PUSH20 0xFFFFFFFFFFFFFFFFFFFFFFFFFFFFFFFFFFFFFFFF AND SUB PUSH2 0xE41 JUMPI PUSH0 PUSH1 0x40 MLOAD PUSH32 0x96C6FD1E00000000000000000000000000000000000000000000000000000000 DUP2 MSTORE PUSH1 0x4 ADD PUSH2 0xE38 SWAP2 SWAP1 PUSH2 0x171E JUMP JUMPDEST PUSH1 0x40 MLOAD DUP1 SWAP2 SUB SWAP1 REVERT JUMPDEST PUSH0 PUSH20 0xFFFFFFFFFFFFFFFFFFFFFFFFFFFFFFFFFFFFFFFF AND DUP3 PUSH20 0xFFFFFFFFFFFFFFFFFFFFFFFFFFFFFFFFFFFFFFFF AND SUB PUSH2 0xEB1 JUMPI PUSH0 PUSH1 0x40 MLOAD PUSH32 0xEC442F0500000000000000000000000000000000000000000000000000000000 DUP2 MSTORE PUSH1 0x4 ADD PUSH2 0xEA8 SWAP2 SWAP1 PUSH2 0x171E JUMP JUMPDEST PUSH1 0x40 MLOAD DUP1 SWAP2 SUB SWAP1 REVERT JUMPDEST PUSH2 0xEBC DUP4 DUP4 DUP4 PUSH2 0xF40 JUMP JUMPDEST POP POP POP JUMP JUMPDEST PUSH0 PUSH20 0xFFFFFFFFFFFFFFFFFFFFFFFFFFFFFFFFFFFFFFFF AND DUP3 PUSH20 0xFFFFFFFFFFFFFFFFFFFFFFFFFFFFFFFFFFFFFFFF AND SUB PUSH2 0xF31 JUMPI PUSH0 PUSH1 0x40 MLOAD PUSH32 0xEC442F0500000000000000000000000000000000000000000000000000000000 DUP2 MSTORE PUSH1 0x4 ADD PUSH2 0xF28 SWAP2 SWAP1 PUSH2 0x171E JUMP JUMPDEST PUSH1 0x40 MLOAD DUP1 SWAP2 SUB SWAP1 REVERT JUMPDEST PUSH2 0xF3C PUSH0 DUP4 DUP4 PUSH2 0xF40 JUMP JUMPDEST POP POP JUMP JUMPDEST PUSH0 PUSH20 0xFFFFFFFFFFFFFFFFFFFFFFFFFFFFFFFFFFFFFFFF AND DUP4 PUSH20 0xFFFFFFFFFFFFFFFFFFFFFFFFFFFFFFFFFFFFFFFF AND SUB PUSH2 0xF90 JUMPI DUP1 PUSH1 0x2 PUSH0 DUP3 DUP3 SLOAD PUSH2 0xF84 SWAP2 SWAP1 PUSH2 0x1F5B JUMP JUMPDEST SWAP3 POP POP DUP2 SWAP1 SSTORE POP PUSH2 0x105E JUMP JUMPDEST PUSH0 DUP1 PUSH0 DUP6 PUSH20 0xFFFFFFFFFFFFFFFFFFFFFFFFFFFFFFFFFFFFFFFF AND PUSH20 0xFFFFFFFFFFFFFFFFFFFFFFFFFFFFFFFFFFFFFFFF AND DUP2 MSTORE PUSH1 0x20 ADD SWAP1 DUP2 MSTORE PUSH1 0x20 ADD PUSH0 KECCAK256 SLOAD SWAP1 POP DUP2 DUP2 LT ISZERO PUSH2 0x1019 JUMPI DUP4 DUP2 DUP4 PUSH1 0x40 MLOAD PUSH32 0xE450D38C00000000000000000000000000000000000000000000000000000000 DUP2 MSTORE PUSH1 0x4 ADD PUSH2 0x1010 SWAP4 SWAP3 SWAP2 SWAP1 PUSH2 0x1F26 JUMP JUMPDEST PUSH1 0x40 MLOAD DUP1 SWAP2 SUB SWAP1 REVERT JUMPDEST DUP2 DUP2 SUB PUSH0 DUP1 DUP7 PUSH20 0xFFFFFFFFFFFFFFFFFFFFFFFFFFFFFFFFFFFFFFFF AND PUSH20 0xFFFFFFFFFFFFFFFFFFFFFFFFFFFFFFFFFFFFFFFF AND DUP2 MSTORE PUSH1 0x20 ADD SWAP1 DUP2 MSTORE PUSH1 0x20 ADD PUSH0 KECCAK256 DUP2 SWAP1 SSTORE POP POP JUMPDEST PUSH0 PUSH20 0xFFFFFFFFFFFFFFFFFFFFFFFFFFFFFFFFFFFFFFFF AND DUP3 PUSH20 0xFFFFFFFFFFFFFFFFFFFFFFFFFFFFFFFFFFFFFFFF AND SUB PUSH2 0x10A5 JUMPI DUP1 PUSH1 0x2 PUSH0 DUP3 DUP3 SLOAD SUB SWAP3 POP POP DUP2 SWAP1 SSTORE POP PUSH2 0x10EF JUMP JUMPDEST DUP1 PUSH0 DUP1 DUP5 PUSH20 0xFFFFFFFFFFFFFFFFFFFFFFFFFFFFFFFFFFFFFFFF AND PUSH20 0xFFFFFFFFFFFFFFFFFFFFFFFFFFFFFFFFFFFFFFFF AND DUP2 MSTORE PUSH1 0x20 ADD SWAP1 DUP2 MSTORE PUSH1 0x20 ADD PUSH0 KECCAK256 PUSH0 DUP3 DUP3 SLOAD ADD SWAP3 POP POP DUP2 SWAP1 SSTORE POP JUMPDEST DUP2 PUSH20 0xFFFFFFFFFFFFFFFFFFFFFFFFFFFFFFFFFFFFFFFF AND DUP4 PUSH20 0xFFFFFFFFFFFFFFFFFFFFFFFFFFFFFFFFFFFFFFFF AND PUSH32 0xDDF252AD1BE2C89B69C2B068FC378DAA952BA7F163C4A11628F55A4DF523B3EF DUP4 PUSH1 0x40 MLOAD PUSH2 0x114C SWAP2 SWAP1 PUSH2 0x1647 JUMP JUMPDEST PUSH1 0x40 MLOAD DUP1 SWAP2 SUB SWAP1 LOG3 POP POP POP JUMP JUMPDEST PUSH0 PUSH20 0xFFFFFFFFFFFFFFFFFFFFFFFFFFFFFFFFFFFFFFFF AND DUP5 PUSH20 0xFFFFFFFFFFFFFFFFFFFFFFFFFFFFFFFFFFFFFFFF AND SUB PUSH2 0x11C9 JUMPI PUSH0 PUSH1 0x40 MLOAD PUSH32 0xE602DF0500000000000000000000000000000000000000000000000000000000 DUP2 MSTORE PUSH1 0x4 ADD PUSH2 0x11C0 SWAP2 SWAP1 PUSH2 0x171E JUMP JUMPDEST PUSH1 0x40 MLOAD DUP1 SWAP2 SUB SWAP1 REVERT JUMPDEST PUSH0 PUSH20 0xFFFFFFFFFFFFFFFFFFFFFFFFFFFFFFFFFFFFFFFF AND DUP4 PUSH20 0xFFFFFFFFFFFFFFFFFFFFFFFFFFFFFFFFFFFFFFFF AND SUB PUSH2 0x1239 JUMPI PUSH0 PUSH1 0x40 MLOAD PUSH32 0x94280D6200000000000000000000000000000000000000000000000000000000 DUP2 MSTORE PUSH1 0x4 ADD PUSH2 0x1230 SWAP2 SWAP1 PUSH2 0x171E JUMP JUMPDEST PUSH1 0x40 MLOAD DUP1 SWAP2 SUB SWAP1 REVERT JUMPDEST DUP2 PUSH1 0x1 PUSH0 DUP7 PUSH20 0xFFFFFFFFFFFFFFFFFFFFFFFFFFFFFFFFFFFFFFFF AND PUSH20 0xFFFFFFFFFFFFFFFFFFFFFFFFFFFFFFFFFFFFFFFF AND DUP2 MSTORE PUSH1 0x20 ADD SWAP1 DUP2 MSTORE PUSH1 0x20 ADD PUSH0 KECCAK256 PUSH0 DUP6 PUSH20 0xFFFFFFFFFFFFFFFFFFFFFFFFFFFFFFFFFFFFFFFF AND PUSH20 0xFFFFFFFFFFFFFFFFFFFFFFFFFFFFFFFFFFFFFFFF AND DUP2 MSTORE PUSH1 0x20 ADD SWAP1 DUP2 MSTORE PUSH1 0x20 ADD PUSH0 KECCAK256 DUP2 SWAP1 SSTORE POP DUP1 ISZERO PUSH2 0x1322 JUMPI DUP3 PUSH20 0xFFFFFFFFFFFFFFFFFFFFFFFFFFFFFFFFFFFFFFFF AND DUP5 PUSH20 0xFFFFFFFFFFFFFFFFFFFFFFFFFFFFFFFFFFFFFFFF AND PUSH32 0x8C5BE1E5EBEC7D5BD14F71427D1E84F3DD0314C0F7B2291E5B200AC8C7C3B925 DUP5 PUSH1 0x40 MLOAD PUSH2 0x1319 SWAP2 SWAP1 PUSH2 0x1647 JUMP JUMPDEST PUSH1 0x40 MLOAD DUP1 SWAP2 SUB SWAP1 LOG3 JUMPDEST POP POP POP POP JUMP JUMPDEST PUSH0 DUP2 MLOAD SWAP1 POP SWAP2 SWAP1 POP JUMP JUMPDEST PUSH0 DUP3 DUP3 MSTORE PUSH1 0x20 DUP3 ADD SWAP1 POP SWAP3 SWAP2 POP POP JUMP JUMPDEST PUSH0 DUP2 SWAP1 POP PUSH1 0x20 DUP3 ADD SWAP1 POP SWAP2 SWAP1 POP JUMP JUMPDEST PUSH0 DUP2 MLOAD SWAP1 POP SWAP2 SWAP1 POP JUMP JUMPDEST PUSH0 DUP3 DUP3 MSTORE PUSH1 0x20 DUP3 ADD SWAP1 POP SWAP3 SWAP2 POP POP JUMP JUMPDEST PUSH0 JUMPDEST DUP4 DUP2 LT ISZERO PUSH2 0x1388 JUMPI DUP1 DUP3 ADD MLOAD DUP2 DUP5 ADD MSTORE PUSH1 0x20 DUP2 ADD SWAP1 POP PUSH2 0x136D JUMP JUMPDEST PUSH0 DUP5 DUP5 ADD MSTORE POP POP POP POP JUMP JUMPDEST PUSH0 PUSH1 0x1F NOT PUSH1 0x1F DUP4 ADD AND SWAP1 POP SWAP2 SWAP1 POP JUMP JUMPDEST PUSH0 PUSH2 0x13AD DUP3 PUSH2 0x1351 JUMP JUMPDEST PUSH2 0x13B7 DUP2 DUP6 PUSH2 0x135B JUMP JUMPDEST SWAP4 POP PUSH2 0x13C7 DUP2 DUP6 PUSH1 0x20 DUP7 ADD PUSH2 0x136B JUMP JUMPDEST PUSH2 0x13D0 DUP2 PUSH2 0x1393 JUMP JUMPDEST DUP5 ADD SWAP2 POP POP SWAP3 SWAP2 POP POP JUMP JUMPDEST PUSH0 PUSH1 0x40 DUP4 ADD PUSH0 DUP4 ADD MLOAD DUP5 DUP3 SUB PUSH0 DUP7 ADD MSTORE PUSH2 0x13F5 DUP3 DUP3 PUSH2 0x13A3 JUMP JUMPDEST SWAP2 POP POP PUSH1 0x20 DUP4 ADD MLOAD DUP5 DUP3 SUB PUSH1 0x20 DUP7 ADD MSTORE PUSH2 0x140F DUP3 DUP3 PUSH2 0x13A3 JUMP JUMPDEST SWAP2 POP POP DUP1 SWAP2 POP POP SWAP3 SWAP2 POP POP JUMP JUMPDEST PUSH0 PUSH2 0x1427 DUP4 DUP4 PUSH2 0x13DB JUMP JUMPDEST SWAP1 POP SWAP3 SWAP2 POP POP JUMP JUMPDEST PUSH0 PUSH1 0x20 DUP3 ADD SWAP1 POP SWAP2 SWAP1 POP JUMP JUMPDEST PUSH0 PUSH2 0x1445 DUP3 PUSH2 0x1328 JUMP JUMPDEST PUSH2 0x144F DUP2 DUP6 PUSH2 0x1332 JUMP JUMPDEST SWAP4 POP DUP4 PUSH1 0x20 DUP3 MUL DUP6 ADD PUSH2 0x1461 DUP6 PUSH2 0x1342 JUMP JUMPDEST DUP1 PUSH0 JUMPDEST DUP6 DUP2 LT ISZERO PUSH2 0x149C JUMPI DUP5 DUP5 SUB DUP10 MSTORE DUP2 MLOAD PUSH2 0x147D DUP6 DUP3 PUSH2 0x141C JUMP JUMPDEST SWAP5 POP PUSH2 0x1488 DUP4 PUSH2 0x142F JUMP JUMPDEST SWAP3 POP PUSH1 0x20 DUP11 ADD SWAP10 POP POP PUSH1 0x1 DUP2 ADD SWAP1 POP PUSH2 0x1464 JUMP JUMPDEST POP DUP3 SWAP8 POP DUP8 SWAP6 POP POP POP POP POP POP SWAP3 SWAP2 POP POP JUMP JUMPDEST PUSH0 PUSH1 0x20 DUP3 ADD SWAP1 POP DUP2 DUP2 SUB PUSH0 DUP4 ADD MSTORE PUSH2 0x14C6 DUP2 DUP5 PUSH2 0x143B JUMP JUMPDEST SWAP1 POP SWAP3 SWAP2 POP POP JUMP JUMPDEST PUSH0 DUP3 DUP3 MSTORE PUSH1 0x20 DUP3 ADD SWAP1 POP SWAP3 SWAP2 POP POP JUMP JUMPDEST PUSH0 PUSH2 0x14E8 DUP3 PUSH2 0x1351 JUMP JUMPDEST PUSH2 0x14F2 DUP2 DUP6 PUSH2 0x14CE JUMP JUMPDEST SWAP4 POP PUSH2 0x1502 DUP2 DUP6 PUSH1 0x20 DUP7 ADD PUSH2 0x136B JUMP JUMPDEST PUSH2 0x150B DUP2 PUSH2 0x1393 JUMP JUMPDEST DUP5 ADD SWAP2 POP POP SWAP3 SWAP2 POP POP JUMP JUMPDEST PUSH0 PUSH1 0x20 DUP3 ADD SWAP1 POP DUP2 DUP2 SUB PUSH0 DUP4 ADD MSTORE PUSH2 0x152E DUP2 DUP5 PUSH2 0x14DE JUMP JUMPDEST SWAP1 POP SWAP3 SWAP2 POP POP JUMP JUMPDEST PUSH0 DUP1 REVERT JUMPDEST PUSH0 PUSH20 0xFFFFFFFFFFFFFFFFFFFFFFFFFFFFFFFFFFFFFFFF DUP3 AND SWAP1 POP SWAP2 SWAP1 POP JUMP JUMPDEST PUSH0 PUSH2 0x1563 DUP3 PUSH2 0x153A JUMP JUMPDEST SWAP1 POP SWAP2 SWAP1 POP JUMP JUMPDEST PUSH2 0x1573 DUP2 PUSH2 0x1559 JUMP JUMPDEST DUP2 EQ PUSH2 0x157D JUMPI PUSH0 DUP1 REVERT JUMPDEST POP JUMP JUMPDEST PUSH0 DUP2 CALLDATALOAD SWAP1 POP PUSH2 0x158E DUP2 PUSH2 0x156A JUMP JUMPDEST SWAP3 SWAP2 POP POP JUMP JUMPDEST PUSH0 DUP2 SWAP1 POP SWAP2 SWAP1 POP JUMP JUMPDEST PUSH2 0x15A6 DUP2 PUSH2 0x1594 JUMP JUMPDEST DUP2 EQ PUSH2 0x15B0 JUMPI PUSH0 DUP1 REVERT JUMPDEST POP JUMP JUMPDEST PUSH0 DUP2 CALLDATALOAD SWAP1 POP PUSH2 0x15C1 DUP2 PUSH2 0x159D JUMP JUMPDEST SWAP3 SWAP2 POP POP JUMP JUMPDEST PUSH0 DUP1 PUSH1 0x40 DUP4 DUP6 SUB SLT ISZERO PUSH2 0x15DD JUMPI PUSH2 0x15DC PUSH2 0x1536 JUMP JUMPDEST JUMPDEST PUSH0 PUSH2 0x15EA DUP6 DUP3 DUP7 ADD PUSH2 0x1580 JUMP JUMPDEST SWAP3 POP POP PUSH1 0x20 PUSH2 0x15FB DUP6 DUP3 DUP7 ADD PUSH2 0x15B3 JUMP JUMPDEST SWAP2 POP POP SWAP3 POP SWAP3 SWAP1 POP JUMP JUMPDEST PUSH0 DUP2 ISZERO ISZERO SWAP1 POP SWAP2 SWAP1 POP JUMP JUMPDEST PUSH2 0x1619 DUP2 PUSH2 0x1605 JUMP JUMPDEST DUP3 MSTORE POP POP JUMP JUMPDEST PUSH0 PUSH1 0x20 DUP3 ADD SWAP1 POP PUSH2 0x1632 PUSH0 DUP4 ADD DUP5 PUSH2 0x1610 JUMP JUMPDEST SWAP3 SWAP2 POP POP JUMP JUMPDEST PUSH2 0x1641 DUP2 PUSH2 0x1594 JUMP JUMPDEST DUP3 MSTORE POP POP JUMP JUMPDEST PUSH0 PUSH1 0x20 DUP3 ADD SWAP1 POP PUSH2 0x165A PUSH0 DUP4 ADD DUP5 PUSH2 0x1638 JUMP JUMPDEST SWAP3 SWAP2 POP POP JUMP JUMPDEST PUSH0 DUP1 PUSH0 PUSH1 0x60 DUP5 DUP7 SUB SLT ISZERO PUSH2 0x1677 JUMPI PUSH2 0x1676 PUSH2 0x1536 JUMP JUMPDEST JUMPDEST PUSH0 PUSH2 0x1684 DUP7 DUP3 DUP8 ADD PUSH2 0x1580 JUMP JUMPDEST SWAP4 POP POP PUSH1 0x20 PUSH2 0x1695 DUP7 DUP3 DUP8 ADD PUSH2 0x1580 JUMP JUMPDEST SWAP3 POP POP PUSH1 0x40 PUSH2 0x16A6 DUP7 DUP3 DUP8 ADD PUSH2 0x15B3 JUMP JUMPDEST SWAP2 POP POP SWAP3 POP SWAP3 POP SWAP3 JUMP JUMPDEST PUSH0 PUSH1 0xFF DUP3 AND SWAP1 POP SWAP2 SWAP1 POP JUMP JUMPDEST PUSH2 0x16C5 DUP2 PUSH2 0x16B0 JUMP JUMPDEST DUP3 MSTORE POP POP JUMP JUMPDEST PUSH0 PUSH1 0x20 DUP3 ADD SWAP1 POP PUSH2 0x16DE PUSH0 DUP4 ADD DUP5 PUSH2 0x16BC JUMP JUMPDEST SWAP3 SWAP2 POP POP JUMP JUMPDEST PUSH0 PUSH1 0x20 DUP3 DUP5 SUB SLT ISZERO PUSH2 0x16F9 JUMPI PUSH2 0x16F8 PUSH2 0x1536 JUMP JUMPDEST JUMPDEST PUSH0 PUSH2 0x1706 DUP5 DUP3 DUP6 ADD PUSH2 0x15B3 JUMP JUMPDEST SWAP2 POP POP SWAP3 SWAP2 POP POP JUMP JUMPDEST PUSH2 0x1718 DUP2 PUSH2 0x1559 JUMP JUMPDEST DUP3 MSTORE POP POP JUMP JUMPDEST PUSH0 PUSH1 0x20 DUP3 ADD SWAP1 POP PUSH2 0x1731 PUSH0 DUP4 ADD DUP5 PUSH2 0x170F JUMP JUMPDEST SWAP3 SWAP2 POP POP JUMP JUMPDEST PUSH0 PUSH1 0x40 DUP3 ADD SWAP1 POP DUP2 DUP2 SUB PUSH0 DUP4 ADD MSTORE PUSH2 0x174F DUP2 DUP6 PUSH2 0x14DE JUMP JUMPDEST SWAP1 POP DUP2 DUP2 SUB PUSH1 0x20 DUP4 ADD MSTORE PUSH2 0x1763 DUP2 DUP5 PUSH2 0x14DE JUMP JUMPDEST SWAP1 POP SWAP4 SWAP3 POP POP POP JUMP JUMPDEST PUSH0 DUP2 MLOAD SWAP1 POP SWAP2 SWAP1 POP JUMP JUMPDEST PUSH0 DUP3 DUP3 MSTORE PUSH1 0x20 DUP3 ADD SWAP1 POP SWAP3 SWAP2 POP POP JUMP JUMPDEST PUSH0 DUP2 SWAP1 POP PUSH1 0x20 DUP3 ADD SWAP1 POP SWAP2 SWAP1 POP JUMP JUMPDEST PUSH2 0x179E DUP2 PUSH2 0x1559 JUMP JUMPDEST DUP3 MSTORE POP POP JUMP JUMPDEST PUSH1 0x20 DUP3 ADD PUSH0 DUP3 ADD MLOAD PUSH2 0x17B8 PUSH0 DUP6 ADD DUP3 PUSH2 0x1795 JUMP JUMPDEST POP POP POP POP JUMP JUMPDEST PUSH0 PUSH2 0x17C9 DUP4 DUP4 PUSH2 0x17A4 JUMP JUMPDEST PUSH1 0x20 DUP4 ADD SWAP1 POP SWAP3 SWAP2 POP POP JUMP JUMPDEST PUSH0 PUSH1 0x20 DUP3 ADD SWAP1 POP SWAP2 SWAP1 POP JUMP JUMPDEST PUSH0 PUSH2 0x17EB DUP3 PUSH2 0x176C JUMP JUMPDEST PUSH2 0x17F5 DUP2 DUP6 PUSH2 0x1776 JUMP JUMPDEST SWAP4 POP PUSH2 0x1800 DUP4 PUSH2 0x1786 JUMP JUMPDEST DUP1 PUSH0 JUMPDEST DUP4 DUP2 LT ISZERO PUSH2 0x1830 JUMPI DUP2 MLOAD PUSH2 0x1817 DUP9 DUP3 PUSH2 0x17BE JUMP JUMPDEST SWAP8 POP PUSH2 0x1822 DUP4 PUSH2 0x17D5 JUMP JUMPDEST SWAP3 POP POP PUSH1 0x1 DUP2 ADD SWAP1 POP PUSH2 0x1803 JUMP JUMPDEST POP DUP6 SWAP4 POP POP POP POP SWAP3 SWAP2 POP POP JUMP JUMPDEST PUSH0 PUSH1 0x20 DUP3 ADD SWAP1 POP DUP2 DUP2 SUB PUSH0 DUP4 ADD MSTORE PUSH2 0x1855 DUP2 DUP5 PUSH2 0x17E1 JUMP JUMPDEST SWAP1 POP SWAP3 SWAP2 POP POP JUMP JUMPDEST PUSH0 PUSH1 0x20 DUP3 DUP5 SUB SLT ISZERO PUSH2 0x1872 JUMPI PUSH2 0x1871 PUSH2 0x1536 JUMP JUMPDEST JUMPDEST PUSH0 PUSH2 0x187F DUP5 DUP3 DUP6 ADD PUSH2 0x1580 JUMP JUMPDEST SWAP2 POP POP SWAP3 SWAP2 POP POP JUMP JUMPDEST PUSH0 DUP1 PUSH1 0x40 DUP4 DUP6 SUB SLT ISZERO PUSH2 0x189E JUMPI PUSH2 0x189D PUSH2 0x1536 JUMP JUMPDEST JUMPDEST PUSH0 PUSH2 0x18AB DUP6 DUP3 DUP7 ADD PUSH2 0x1580 JUMP JUMPDEST SWAP3 POP POP PUSH1 0x20 PUSH2 0x18BC DUP6 DUP3 DUP7 ADD PUSH2 0x1580 JUMP JUMPDEST SWAP2 POP POP SWAP3 POP SWAP3 SWAP1 POP JUMP JUMPDEST PUSH32 0x4E487B7100000000000000000000000000000000000000000000000000000000 PUSH0 MSTORE PUSH1 0x22 PUSH1 0x4 MSTORE PUSH1 0x24 PUSH0 REVERT JUMPDEST PUSH0 PUSH1 0x2 DUP3 DIV SWAP1 POP PUSH1 0x1 DUP3 AND DUP1 PUSH2 0x190A JUMPI PUSH1 0x7F DUP3 AND SWAP2 POP JUMPDEST PUSH1 0x20 DUP3 LT DUP2 SUB PUSH2 0x191D JUMPI PUSH2 0x191C PUSH2 0x18C6 JUMP JUMPDEST JUMPDEST POP SWAP2 SWAP1 POP JUMP JUMPDEST PUSH32 0x4E487B7100000000000000000000000000000000000000000000000000000000 PUSH0 MSTORE PUSH1 0x11 PUSH1 0x4 MSTORE PUSH1 0x24 PUSH0 REVERT JUMPDEST PUSH0 DUP2 PUSH1 0x1 SHR SWAP1 POP SWAP2 SWAP1 POP JUMP JUMPDEST PUSH0 DUP1 DUP3 SWAP2 POP DUP4 SWAP1 POP JUMPDEST PUSH1 0x1 DUP6 GT ISZERO PUSH2 0x19A5 JUMPI DUP1 DUP7 DIV DUP2 GT ISZERO PUSH2 0x1981 JUMPI PUSH2 0x1980 PUSH2 0x1923 JUMP JUMPDEST JUMPDEST PUSH1 0x1 DUP6 AND ISZERO PUSH2 0x1990 JUMPI DUP1 DUP3 MUL SWAP2 POP JUMPDEST DUP1 DUP2 MUL SWAP1 POP PUSH2 0x199E DUP6 PUSH2 0x1950 JUMP JUMPDEST SWAP5 POP PUSH2 0x1965 JUMP JUMPDEST SWAP5 POP SWAP5 SWAP3 POP POP POP JUMP JUMPDEST PUSH0 DUP3 PUSH2 0x19BD JUMPI PUSH1 0x1 SWAP1 POP PUSH2 0x1A78 JUMP JUMPDEST DUP2 PUSH2 0x19CA JUMPI PUSH0 SWAP1 POP PUSH2 0x1A78 JUMP JUMPDEST DUP2 PUSH1 0x1 DUP2 EQ PUSH2 0x19E0 JUMPI PUSH1 0x2 DUP2 EQ PUSH2 0x19EA JUMPI PUSH2 0x1A19 JUMP JUMPDEST PUSH1 0x1 SWAP2 POP POP PUSH2 0x1A78 JUMP JUMPDEST PUSH1 0xFF DUP5 GT ISZERO PUSH2 0x19FC JUMPI PUSH2 0x19FB PUSH2 0x1923 JUMP JUMPDEST JUMPDEST DUP4 PUSH1 0x2 EXP SWAP2 POP DUP5 DUP3 GT ISZERO PUSH2 0x1A13 JUMPI PUSH2 0x1A12 PUSH2 0x1923 JUMP JUMPDEST JUMPDEST POP PUSH2 0x1A78 JUMP JUMPDEST POP PUSH1 0x20 DUP4 LT PUSH2 0x133 DUP4 LT AND PUSH1 0x4E DUP5 LT PUSH1 0xB DUP5 LT AND OR ISZERO PUSH2 0x1A4E JUMPI DUP3 DUP3 EXP SWAP1 POP DUP4 DUP2 GT ISZERO PUSH2 0x1A49 JUMPI PUSH2 0x1A48 PUSH2 0x1923 JUMP JUMPDEST JUMPDEST PUSH2 0x1A78 JUMP JUMPDEST PUSH2 0x1A5B DUP5 DUP5 DUP5 PUSH1 0x1 PUSH2 0x195C JUMP JUMPDEST SWAP3 POP SWAP1 POP DUP2 DUP5 DIV DUP2 GT ISZERO PUSH2 0x1A72 JUMPI PUSH2 0x1A71 PUSH2 0x1923 JUMP JUMPDEST JUMPDEST DUP2 DUP2 MUL SWAP1 POP JUMPDEST SWAP4 SWAP3 POP POP POP JUMP JUMPDEST PUSH0 PUSH2 0x1A89 DUP3 PUSH2 0x1594 JUMP JUMPDEST SWAP2 POP PUSH2 0x1A94 DUP4 PUSH2 0x16B0 JUMP JUMPDEST SWAP3 POP PUSH2 0x1AC1 PUSH32 0xFFFFFFFFFFFFFFFFFFFFFFFFFFFFFFFFFFFFFFFFFFFFFFFFFFFFFFFFFFFFFFFF DUP5 DUP5 PUSH2 0x19AE JUMP JUMPDEST SWAP1 POP SWAP3 SWAP2 POP POP JUMP JUMPDEST PUSH0 PUSH2 0x1AD3 DUP3 PUSH2 0x1594 JUMP JUMPDEST SWAP2 POP PUSH2 0x1ADE DUP4 PUSH2 0x1594 JUMP JUMPDEST SWAP3 POP DUP3 DUP3 MUL PUSH2 0x1AEC DUP2 PUSH2 0x1594 JUMP JUMPDEST SWAP2 POP DUP3 DUP3 DIV DUP5 EQ DUP4 ISZERO OR PUSH2 0x1B03 JUMPI PUSH2 0x1B02 PUSH2 0x1923 JUMP JUMPDEST JUMPDEST POP SWAP3 SWAP2 POP POP JUMP JUMPDEST PUSH0 DUP2 SWAP1 POP SWAP2 SWAP1 POP JUMP JUMPDEST PUSH2 0x1B24 PUSH2 0x1B1F DUP3 PUSH2 0x1594 JUMP JUMPDEST PUSH2 0x1B0A JUMP JUMPDEST DUP3 MSTORE POP POP JUMP JUMPDEST PUSH0 PUSH2 0x1B34 DUP3 PUSH2 0x153A JUMP JUMPDEST SWAP1 POP SWAP2 SWAP1 POP JUMP JUMPDEST PUSH0 DUP2 PUSH1 0x60 SHL SWAP1 POP SWAP2 SWAP1 POP JUMP JUMPDEST PUSH0 PUSH2 0x1B51 DUP3 PUSH2 0x1B3B JUMP JUMPDEST SWAP1 POP SWAP2 SWAP1 POP JUMP JUMPDEST PUSH0 PUSH2 0x1B62 DUP3 PUSH2 0x1B47 JUMP JUMPDEST SWAP1 POP SWAP2 SWAP1 POP JUMP JUMPDEST PUSH2 0x1B7A PUSH2 0x1B75 DUP3 PUSH2 0x1B2A JUMP JUMPDEST PUSH2 0x1B58 JUMP JUMPDEST DUP3 MSTORE POP POP JUMP JUMPDEST PUSH0 PUSH2 0x1B8B DUP3 DUP7 PUSH2 0x1B13 JUMP JUMPDEST PUSH1 0x20 DUP3 ADD SWAP2 POP PUSH2 0x1B9B DUP3 DUP6 PUSH2 0x1B69 JUMP JUMPDEST PUSH1 0x14 DUP3 ADD SWAP2 POP PUSH2 0x1BAB DUP3 DUP5 PUSH2 0x1B13 JUMP JUMPDEST PUSH1 0x20 DUP3 ADD SWAP2 POP DUP2 SWAP1 POP SWAP5 SWAP4 POP POP POP POP JUMP JUMPDEST PUSH32 0x4E487B7100000000000000000000000000000000000000000000000000000000 PUSH0 MSTORE PUSH1 0x12 PUSH1 0x4 MSTORE PUSH1 0x24 PUSH0 REVERT JUMPDEST PUSH0 PUSH2 0x1BF3 DUP3 PUSH2 0x1594 JUMP JUMPDEST SWAP2 POP PUSH2 0x1BFE DUP4 PUSH2 0x1594 JUMP JUMPDEST SWAP3 POP DUP3 PUSH2 0x1C0E JUMPI PUSH2 0x1C0D PUSH2 0x1BBC JUMP JUMPDEST JUMPDEST DUP3 DUP3 MOD SWAP1 POP SWAP3 SWAP2 POP POP JUMP JUMPDEST PUSH32 0x4E487B7100000000000000000000000000000000000000000000000000000000 PUSH0 MSTORE PUSH1 0x32 PUSH1 0x4 MSTORE PUSH1 0x24 PUSH0 REVERT JUMPDEST PUSH32 0x4E487B7100000000000000000000000000000000000000000000000000000000 PUSH0 MSTORE PUSH1 0x41 PUSH1 0x4 MSTORE PUSH1 0x24 PUSH0 REVERT JUMPDEST PUSH0 DUP2 SWAP1 POP DUP2 PUSH0 MSTORE PUSH1 0x20 PUSH0 KECCAK256 SWAP1 POP SWAP2 SWAP1 POP JUMP JUMPDEST PUSH0 PUSH1 0x20 PUSH1 0x1F DUP4 ADD DIV SWAP1 POP SWAP2 SWAP1 POP JUMP JUMPDEST PUSH0 DUP3 DUP3 SHL SWAP1 POP SWAP3 SWAP2 POP POP JUMP JUMPDEST PUSH0 PUSH1 0x8 DUP4 MUL PUSH2 0x1CCF PUSH32 0xFFFFFFFFFFFFFFFFFFFFFFFFFFFFFFFFFFFFFFFFFFFFFFFFFFFFFFFFFFFFFFFF DUP3 PUSH2 0x1C94 JUMP JUMPDEST PUSH2 0x1CD9 DUP7 DUP4 PUSH2 0x1C94 JUMP JUMPDEST SWAP6 POP DUP1 NOT DUP5 AND SWAP4 POP DUP1 DUP7 AND DUP5 OR SWAP3 POP POP POP SWAP4 SWAP3 POP POP POP JUMP JUMPDEST PUSH0 DUP2 SWAP1 POP SWAP2 SWAP1 POP JUMP JUMPDEST PUSH0 PUSH2 0x1D14 PUSH2 0x1D0F PUSH2 0x1D0A DUP5 PUSH2 0x1594 JUMP JUMPDEST PUSH2 0x1CF1 JUMP JUMPDEST PUSH2 0x1594 JUMP JUMPDEST SWAP1 POP SWAP2 SWAP1 POP JUMP JUMPDEST PUSH0 DUP2 SWAP1 POP SWAP2 SWAP1 POP JUMP JUMPDEST PUSH2 0x1D2D DUP4 PUSH2 0x1CFA JUMP JUMPDEST PUSH2 0x1D41 PUSH2 0x1D39 DUP3 PUSH2 0x1D1B JUMP JUMPDEST DUP5 DUP5 SLOAD PUSH2 0x1CA0 JUMP JUMPDEST DUP3 SSTORE POP POP POP POP JUMP JUMPDEST PUSH0 SWAP1 JUMP JUMPDEST PUSH2 0x1D55 PUSH2 0x1D49 JUMP JUMPDEST PUSH2 0x1D60 DUP2 DUP5 DUP5 PUSH2 0x1D24 JUMP JUMPDEST POP POP POP JUMP JUMPDEST JUMPDEST DUP2 DUP2 LT ISZERO PUSH2 0x1D83 JUMPI PUSH2 0x1D78 PUSH0 DUP3 PUSH2 0x1D4D JUMP JUMPDEST PUSH1 0x1 DUP2 ADD SWAP1 POP PUSH2 0x1D66 JUMP JUMPDEST POP POP JUMP JUMPDEST PUSH1 0x1F DUP3 GT ISZERO PUSH2 0x1DC8 JUMPI PUSH2 0x1D99 DUP2 PUSH2 0x1C73 JUMP JUMPDEST PUSH2 0x1DA2 DUP5 PUSH2 0x1C85 JUMP JUMPDEST DUP2 ADD PUSH1 0x20 DUP6 LT ISZERO PUSH2 0x1DB1 JUMPI DUP2 SWAP1 POP JUMPDEST PUSH2 0x1DC5 PUSH2 0x1DBD DUP6 PUSH2 0x1C85 JUMP JUMPDEST DUP4 ADD DUP3 PUSH2 0x1D65 JUMP JUMPDEST POP POP JUMPDEST POP POP POP JUMP JUMPDEST PUSH0 DUP3 DUP3 SHR SWAP1 POP SWAP3 SWAP2 POP POP JUMP JUMPDEST PUSH0 PUSH2 0x1DE8 PUSH0 NOT DUP5 PUSH1 0x8 MUL PUSH2 0x1DCD JUMP JUMPDEST NOT DUP1 DUP4 AND SWAP2 POP POP SWAP3 SWAP2 POP POP JUMP JUMPDEST PUSH0 PUSH2 0x1E00 DUP4 DUP4 PUSH2 0x1DD9 JUMP JUMPDEST SWAP2 POP DUP3 PUSH1 0x2 MUL DUP3 OR SWAP1 POP SWAP3 SWAP2 POP POP JUMP JUMPDEST PUSH2 0x1E19 DUP3 PUSH2 0x1351 JUMP JUMPDEST PUSH8 0xFFFFFFFFFFFFFFFF DUP2 GT ISZERO PUSH2 0x1E32 JUMPI PUSH2 0x1E31 PUSH2 0x1C46 JUMP JUMPDEST JUMPDEST PUSH2 0x1E3C DUP3 SLOAD PUSH2 0x18F3 JUMP JUMPDEST PUSH2 0x1E47 DUP3 DUP3 DUP6 PUSH2 0x1D87 JUMP JUMPDEST PUSH0 PUSH1 0x20 SWAP1 POP PUSH1 0x1F DUP4 GT PUSH1 0x1 DUP2 EQ PUSH2 0x1E78 JUMPI PUSH0 DUP5 ISZERO PUSH2 0x1E66 JUMPI DUP3 DUP8 ADD MLOAD SWAP1 POP JUMPDEST PUSH2 0x1E70 DUP6 DUP3 PUSH2 0x1DF5 JUMP JUMPDEST DUP7 SSTORE POP PUSH2 0x1ED7 JUMP JUMPDEST PUSH1 0x1F NOT DUP5 AND PUSH2 0x1E86 DUP7 PUSH2 0x1C73 JUMP JUMPDEST PUSH0 JUMPDEST DUP3 DUP2 LT ISZERO PUSH2 0x1EAD JUMPI DUP5 DUP10 ADD MLOAD DUP3 SSTORE PUSH1 0x1 DUP3 ADD SWAP2 POP PUSH1 0x20 DUP6 ADD SWAP5 POP PUSH1 0x20 DUP2 ADD SWAP1 POP PUSH2 0x1E88 JUMP JUMPDEST DUP7 DUP4 LT ISZERO PUSH2 0x1ECA JUMPI DUP5 DUP10 ADD MLOAD PUSH2 0x1EC6 PUSH1 0x1F DUP10 AND DUP3 PUSH2 0x1DD9 JUMP JUMPDEST DUP4 SSTORE POP JUMPDEST PUSH1 0x1 PUSH1 0x2 DUP9 MUL ADD DUP9 SSTORE POP POP POP JUMPDEST POP POP POP POP POP POP JUMP JUMPDEST PUSH0 PUSH2 0x1EE9 DUP3 PUSH2 0x1594 JUMP JUMPDEST SWAP2 POP PUSH32 0xFFFFFFFFFFFFFFFFFFFFFFFFFFFFFFFFFFFFFFFFFFFFFFFFFFFFFFFFFFFFFFFF DUP3 SUB PUSH2 0x1F1B JUMPI PUSH2 0x1F1A PUSH2 0x1923 JUMP JUMPDEST JUMPDEST PUSH1 0x1 DUP3 ADD SWAP1 POP SWAP2 SWAP1 POP JUMP JUMPDEST PUSH0 PUSH1 0x60 DUP3 ADD SWAP1 POP PUSH2 0x1F39 PUSH0 DUP4 ADD DUP7 PUSH2 0x170F JUMP JUMPDEST PUSH2 0x1F46 PUSH1 0x20 DUP4 ADD DUP6 PUSH2 0x1638 JUMP JUMPDEST PUSH2 0x1F53 PUSH1 0x40 DUP4 ADD DUP5 PUSH2 0x1638 JUMP JUMPDEST SWAP5 SWAP4 POP POP POP POP JUMP JUMPDEST PUSH0 PUSH2 0x1F65 DUP3 PUSH2 0x1594 JUMP JUMPDEST SWAP2 POP PUSH2 0x1F70 DUP4 PUSH2 0x1594 JUMP JUMPDEST SWAP3 POP DUP3 DUP3 ADD SWAP1 POP DUP1 DUP3 GT ISZERO PUSH2 0x1F88 JUMPI PUSH2 0x1F87 PUSH2 0x1923 JUMP JUMPDEST JUMPDEST SWAP3 SWAP2 POP POP JUMP INVALID LOG2 PUSH5 0x6970667358 0x22 SLT KECCAK256 0xBE SWAP3 EXTCODESIZE 0x1E 0xA8 SWAP6 0x2B 0xC4 DUP4 SLT 0xF7 0x2F SWAP12 REVERT 0xCA 0x27 0xA5 0xC0 PUSH26 0xCC5C90C8D27597E767C2C89F7164736F6C634300081400336874 PUSH21 0x70733A2F2F66312E746F6B656E706F73742E6B722F ORIGIN ADDRESS ORIGIN CALLER 0x2F ADDRESS CODECOPY 0x2F CODECOPY PUSH13 0x6F7332676B356E742E706E6768 PUSH21 0x7470733A2F2F63646E2E6E626E74762E636F2E6B72 0x2F PUSH15 0x6577732F70686F746F2F3230323330 CALLDATACOPY 0x2F CALLER ADDRESS ADDRESS BALANCE ADDRESS CALLVALUE CALLER PUSH0 ORIGIN ADDRESS BALANCE CALLDATALOAD BALANCE CALLER PUSH0 CALLER ORIGIN BALANCE 0x2E PUSH11 0x706768747470733A2F2F6E PUSH10 0x6D6167652E672D656E65 PUSH24 0x732E636F6D2F7068707761732F726573746D625F616C6C69 PUSH5 0x786D616B65 0x2E PUSH17 0x68703F6964783D352673696D673D323032 CALLER BALANCE ADDRESS BALANCE ORIGIN BALANCE CALLER BALANCE BALANCE ADDRESS CALLDATASIZE ADDRESS ORIGIN CALLDATASIZE ORIGIN CODESIZE PUSH4 0x35666137 CALLDATALOAD PUSH6 0x663836323131 BALANCE CODESIZE ADDRESS BALANCE ORIGIN CALLDATALOAD CALLDATASIZE BALANCE 0x2E PUSH11 0x7067000000000000000000 "
				},
				"gasEstimates": {
					"creation": {
						"codeDepositCost": "1626400",
						"executionCost": "infinite",
						"totalCost": "infinite"
					},
					"external": {
						"_mints(address)": "infinite",
						"allowance(address,address)": "infinite",
						"approve(address,uint256)": "infinite",
						"balanceOf(address)": "2896",
						"buyMusme()": "infinite",
						"decimals()": "405",
						"getMusme()": "infinite",
						"getMusmeUser()": "infinite",
						"musmes(address,uint256)": "infinite",
						"name()": "infinite",
						"symbol()": "infinite",
						"totalSupply()": "2455",
						"transfer(address,uint256)": "infinite",
						"transferFrom(address,address,uint256)": "infinite",
						"users(uint256)": "5056"
					}
				},
				"methodIdentifiers": {
					"_mints(address)": "9257b591",
					"allowance(address,address)": "dd62ed3e",
					"approve(address,uint256)": "095ea7b3",
					"balanceOf(address)": "70a08231",
					"buyMusme()": "bfaede13",
					"decimals()": "313ce567",
					"getMusme()": "03e276af",
					"getMusmeUser()": "5dfac4e4",
					"musmes(address,uint256)": "545e163e",
					"name()": "06fdde03",
					"symbol()": "95d89b41",
					"totalSupply()": "18160ddd",
					"transfer(address,uint256)": "a9059cbb",
					"transferFrom(address,address,uint256)": "23b872dd",
					"users(uint256)": "365b98b2"
				}
			},
			"storageLayout": {
				"storage": [
					{
						"astId": 159,
						"contract": "contracts/CoinMusme.sol:CoinMusme",
						"label": "_balances",
						"offset": 0,
						"slot": "0",
						"type": "t_mapping(t_address,t_uint256)"
					},
					{
						"astId": 165,
						"contract": "contracts/CoinMusme.sol:CoinMusme",
						"label": "_allowances",
						"offset": 0,
						"slot": "1",
						"type": "t_mapping(t_address,t_mapping(t_address,t_uint256))"
					},
					{
						"astId": 167,
						"contract": "contracts/CoinMusme.sol:CoinMusme",
						"label": "_totalSupply",
						"offset": 0,
						"slot": "2",
						"type": "t_uint256"
					},
					{
						"astId": 169,
						"contract": "contracts/CoinMusme.sol:CoinMusme",
						"label": "_name",
						"offset": 0,
						"slot": "3",
						"type": "t_string_storage"
					},
					{
						"astId": 171,
						"contract": "contracts/CoinMusme.sol:CoinMusme",
						"label": "_symbol",
						"offset": 0,
						"slot": "4",
						"type": "t_string_storage"
					},
					{
						"astId": 842,
						"contract": "contracts/CoinMusme.sol:CoinMusme",
						"label": "tokenPrice",
						"offset": 0,
						"slot": "5",
						"type": "t_uint256"
					},
					{
						"astId": 849,
						"contract": "contracts/CoinMusme.sol:CoinMusme",
						"label": "musmeName",
						"offset": 0,
						"slot": "6",
						"type": "t_array(t_string_storage)dyn_storage"
					},
					{
						"astId": 856,
						"contract": "contracts/CoinMusme.sol:CoinMusme",
						"label": "musmeUrl",
						"offset": 0,
						"slot": "7",
						"type": "t_array(t_string_storage)dyn_storage"
					},
					{
						"astId": 862,
						"contract": "contracts/CoinMusme.sol:CoinMusme",
						"label": "musmes",
						"offset": 0,
						"slot": "8",
						"type": "t_mapping(t_address,t_array(t_struct(Musme)836_storage)dyn_storage)"
					},
					{
						"astId": 866,
						"contract": "contracts/CoinMusme.sol:CoinMusme",
						"label": "users",
						"offset": 0,
						"slot": "9",
						"type": "t_array(t_struct(User)839_storage)dyn_storage"
					}
				],
				"types": {
					"t_address": {
						"encoding": "inplace",
						"label": "address",
						"numberOfBytes": "20"
					},
					"t_array(t_string_storage)dyn_storage": {
						"base": "t_string_storage",
						"encoding": "dynamic_array",
						"label": "string[]",
						"numberOfBytes": "32"
					},
					"t_array(t_struct(Musme)836_storage)dyn_storage": {
						"base": "t_struct(Musme)836_storage",
						"encoding": "dynamic_array",
						"label": "struct CoinMusme.Musme[]",
						"numberOfBytes": "32"
					},
					"t_array(t_struct(User)839_storage)dyn_storage": {
						"base": "t_struct(User)839_storage",
						"encoding": "dynamic_array",
						"label": "struct CoinMusme.User[]",
						"numberOfBytes": "32"
					},
					"t_mapping(t_address,t_array(t_struct(Musme)836_storage)dyn_storage)": {
						"encoding": "mapping",
						"key": "t_address",
						"label": "mapping(address => struct CoinMusme.Musme[])",
						"numberOfBytes": "32",
						"value": "t_array(t_struct(Musme)836_storage)dyn_storage"
					},
					"t_mapping(t_address,t_mapping(t_address,t_uint256))": {
						"encoding": "mapping",
						"key": "t_address",
						"label": "mapping(address => mapping(address => uint256))",
						"numberOfBytes": "32",
						"value": "t_mapping(t_address,t_uint256)"
					},
					"t_mapping(t_address,t_uint256)": {
						"encoding": "mapping",
						"key": "t_address",
						"label": "mapping(address => uint256)",
						"numberOfBytes": "32",
						"value": "t_uint256"
					},
					"t_string_storage": {
						"encoding": "bytes",
						"label": "string",
						"numberOfBytes": "32"
					},
					"t_struct(Musme)836_storage": {
						"encoding": "inplace",
						"label": "struct CoinMusme.Musme",
						"members": [
							{
								"astId": 833,
								"contract": "contracts/CoinMusme.sol:CoinMusme",
								"label": "url",
								"offset": 0,
								"slot": "0",
								"type": "t_string_storage"
							},
							{
								"astId": 835,
								"contract": "contracts/CoinMusme.sol:CoinMusme",
								"label": "name",
								"offset": 0,
								"slot": "1",
								"type": "t_string_storage"
							}
						],
						"numberOfBytes": "64"
					},
					"t_struct(User)839_storage": {
						"encoding": "inplace",
						"label": "struct CoinMusme.User",
						"members": [
							{
								"astId": 838,
								"contract": "contracts/CoinMusme.sol:CoinMusme",
								"label": "account",
								"offset": 0,
								"slot": "0",
								"type": "t_address"
							}
						],
						"numberOfBytes": "32"
					},
					"t_uint256": {
						"encoding": "inplace",
						"label": "uint256",
						"numberOfBytes": "32"
					}
				}
			},
			"userdoc": {
				"kind": "user",
				"methods": {},
				"version": 1
			}
		}
	}
}