{
	"contracts/proxy.sol": {
		"Proxy": {
			"abi": [
				{
					"inputs": [],
					"stateMutability": "nonpayable",
					"type": "constructor"
				},
				{
					"stateMutability": "payable",
					"type": "fallback"
				},
				{
					"inputs": [],
					"name": "ADMIN_SLOT",
					"outputs": [
						{
							"internalType": "bytes32",
							"name": "",
							"type": "bytes32"
						}
					],
					"stateMutability": "view",
					"type": "function"
				},
				{
					"inputs": [],
					"name": "IMPL_SLOT",
					"outputs": [
						{
							"internalType": "bytes32",
							"name": "",
							"type": "bytes32"
						}
					],
					"stateMutability": "view",
					"type": "function"
				},
				{
					"inputs": [],
					"name": "getAdmin",
					"outputs": [
						{
							"internalType": "address",
							"name": "",
							"type": "address"
						}
					],
					"stateMutability": "view",
					"type": "function"
				},
				{
					"inputs": [],
					"name": "getEImpl",
					"outputs": [
						{
							"internalType": "address",
							"name": "",
							"type": "address"
						}
					],
					"stateMutability": "view",
					"type": "function"
				},
				{
					"inputs": [
						{
							"internalType": "address",
							"name": "_CA",
							"type": "address"
						}
					],
					"name": "setImpl",
					"outputs": [],
					"stateMutability": "nonpayable",
					"type": "function"
				},
				{
					"stateMutability": "payable",
					"type": "receive"
				}
			],
			"devdoc": {
				"kind": "dev",
				"methods": {},
				"version": 1
			},
			"evm": {
				"assembly": "    /* \"contracts/proxy.sol\":61:2614  contract Proxy {... */\n  mstore(0x40, 0x80)\n    /* \"contracts/proxy.sol\":972:1025  constructor() {... */\n  callvalue\n  dup1\n  iszero\n  tag_1\n  jumpi\n  0x00\n  dup1\n  revert\ntag_1:\n  pop\n    /* \"contracts/proxy.sol\":997:1017  setOnwer(msg.sender) */\n  tag_4\n    /* \"contracts/proxy.sol\":1006:1016  msg.sender */\n  caller\n    /* \"contracts/proxy.sol\":997:1005  setOnwer */\n  shl(0x20, tag_5)\n    /* \"contracts/proxy.sol\":997:1017  setOnwer(msg.sender) */\n  0x20\n  shr\n  jump\t// in\ntag_4:\n    /* \"contracts/proxy.sol\":61:2614  contract Proxy {... */\n  jump(tag_6)\n    /* \"contracts/proxy.sol\":1248:1465  function setOnwer(address onwer) private {... */\ntag_5:\n    /* \"contracts/proxy.sol\":1452:1457  onwer */\n  dup1\n    /* \"contracts/proxy.sol\":1412:1443  Slot.getAddressSlot(ADMIN_SLOT) */\n  tag_8\n    /* \"contracts/proxy.sol\":839:840  1 */\n  0x01\n    /* \"contracts/proxy.sol\":817:835  keccak256(\"admin\") */\n  0xf23ec0bb4210edd5cba85afd05127efcd2fc6a781bfed49188da1081670b22d8\n    /* \"contracts/proxy.sol\":812:836  uint(keccak256(\"admin\")) */\n  0x00\n  shr\n    /* \"contracts/proxy.sol\":812:840  uint(keccak256(\"admin\")) - 1 */\n  tag_9\n  swap2\n  swap1\n  tag_10\n  jump\t// in\ntag_9:\n    /* \"contracts/proxy.sol\":804:841  bytes32(uint(keccak256(\"admin\")) - 1) */\n  0x00\n  shl\n    /* \"contracts/proxy.sol\":1412:1431  Slot.getAddressSlot */\n  or(tag_0_41, shl(0x20, tag_11))\n    /* \"contracts/proxy.sol\":1412:1443  Slot.getAddressSlot(ADMIN_SLOT) */\n  0x20\n  shr\n  jump\t// in\ntag_8:\n    /* \"contracts/proxy.sol\":1412:1449  Slot.getAddressSlot(ADMIN_SLOT).value */\n  0x00\n  add\n  0x00\n    /* \"contracts/proxy.sol\":1412:1457  Slot.getAddressSlot(ADMIN_SLOT).value = onwer */\n  0x0100\n  exp\n  dup2\n  sload\n  dup2\n  0xffffffffffffffffffffffffffffffffffffffff\n  mul\n  not\n  and\n  swap1\n  dup4\n  0xffffffffffffffffffffffffffffffffffffffff\n  and\n  mul\n  or\n  swap1\n  sstore\n  pop\n    /* \"contracts/proxy.sol\":1248:1465  function setOnwer(address onwer) private {... */\n  pop\n  jump\t// out\n    /* \"contracts/proxy.sol\":2947:3438  function getAddressSlot(... */\ntag_11:\n    /* \"contracts/proxy.sol\":3032:3059  AddressSlot storage pointer */\n  0x00\n    /* \"contracts/proxy.sol\":3408:3420  _slotAddress */\n  dup2\n    /* \"contracts/proxy.sol\":3392:3420  pointer.slot := _slotAddress */\n  swap1\n  pop\n    /* \"contracts/proxy.sol\":2947:3438  function getAddressSlot(... */\n  swap2\n  swap1\n  pop\n  jump\t// out\n    /* \"#utility.yul\":7:84   */\ntag_13:\n    /* \"#utility.yul\":44:51   */\n  0x00\n    /* \"#utility.yul\":73:78   */\n  dup2\n    /* \"#utility.yul\":62:78   */\n  swap1\n  pop\n    /* \"#utility.yul\":7:84   */\n  swap2\n  swap1\n  pop\n  jump\t// out\n    /* \"#utility.yul\":90:270   */\ntag_14:\n    /* \"#utility.yul\":138:215   */\n  0x4e487b7100000000000000000000000000000000000000000000000000000000\n    /* \"#utility.yul\":135:136   */\n  0x00\n    /* \"#utility.yul\":128:216   */\n  mstore\n    /* \"#utility.yul\":235:239   */\n  0x11\n    /* \"#utility.yul\":232:233   */\n  0x04\n    /* \"#utility.yul\":225:240   */\n  mstore\n    /* \"#utility.yul\":259:263   */\n  0x24\n    /* \"#utility.yul\":256:257   */\n  0x00\n    /* \"#utility.yul\":249:264   */\n  revert\n    /* \"#utility.yul\":276:470   */\ntag_10:\n    /* \"#utility.yul\":316:320   */\n  0x00\n    /* \"#utility.yul\":336:356   */\n  tag_19\n    /* \"#utility.yul\":354:355   */\n  dup3\n    /* \"#utility.yul\":336:356   */\n  tag_13\n  jump\t// in\ntag_19:\n    /* \"#utility.yul\":331:356   */\n  swap2\n  pop\n    /* \"#utility.yul\":370:390   */\n  tag_20\n    /* \"#utility.yul\":388:389   */\n  dup4\n    /* \"#utility.yul\":370:390   */\n  tag_13\n  jump\t// in\ntag_20:\n    /* \"#utility.yul\":365:390   */\n  swap3\n  pop\n    /* \"#utility.yul\":414:415   */\n  dup3\n    /* \"#utility.yul\":411:412   */\n  dup3\n    /* \"#utility.yul\":407:416   */\n  sub\n    /* \"#utility.yul\":399:416   */\n  swap1\n  pop\n    /* \"#utility.yul\":438:439   */\n  dup2\n    /* \"#utility.yul\":432:436   */\n  dup2\n    /* \"#utility.yul\":429:440   */\n  gt\n    /* \"#utility.yul\":426:463   */\n  iszero\n  tag_21\n  jumpi\n    /* \"#utility.yul\":443:461   */\n  tag_22\n  tag_14\n  jump\t// in\ntag_22:\n    /* \"#utility.yul\":426:463   */\ntag_21:\n    /* \"#utility.yul\":276:470   */\n  swap3\n  swap2\n  pop\n  pop\n  jump\t// out\n    /* \"contracts/proxy.sol\":61:2614  contract Proxy {... */\ntag_6:\n  dataSize(sub_0)\n  dup1\n  dataOffset(sub_0)\n  0x00\n  codecopy\n  0x00\n  return\nstop\n\nsub_0: assembly {\n        /* \"contracts/proxy.sol\":61:2614  contract Proxy {... */\n      mstore(0x40, 0x80)\n      jumpi(tag_1, lt(calldatasize, 0x04))\n      shr(0xe0, calldataload(0x00))\n      dup1\n      0x373dcc12\n      eq\n      tag_3\n      jumpi\n      dup1\n      0x691bd2ae\n      eq\n      tag_4\n      jumpi\n      dup1\n      0x6e9960c3\n      eq\n      tag_5\n      jumpi\n      dup1\n      0x9c4b32be\n      eq\n      tag_6\n      jumpi\n      dup1\n      0xa0ab35aa\n      eq\n      tag_7\n      jumpi\n      jump(tag_2)\n    tag_1:\n      jumpi(tag_2, calldatasize)\n        /* \"contracts/proxy.sol\":2584:2603  delegate(getImpl()) */\n      tag_10\n        /* \"contracts/proxy.sol\":2593:2602  getImpl() */\n      tag_11\n        /* \"contracts/proxy.sol\":2593:2600  getImpl */\n      tag_12\n        /* \"contracts/proxy.sol\":2593:2602  getImpl() */\n      jump\t// in\n    tag_11:\n        /* \"contracts/proxy.sol\":2584:2592  delegate */\n      tag_13\n        /* \"contracts/proxy.sol\":2584:2603  delegate(getImpl()) */\n      jump\t// in\n    tag_10:\n        /* \"contracts/proxy.sol\":61:2614  contract Proxy {... */\n      stop\n    tag_2:\n        /* \"contracts/proxy.sol\":2511:2530  delegate(getImpl()) */\n      tag_16\n        /* \"contracts/proxy.sol\":2520:2529  getImpl() */\n      tag_17\n        /* \"contracts/proxy.sol\":2520:2527  getImpl */\n      tag_12\n        /* \"contracts/proxy.sol\":2520:2529  getImpl() */\n      jump\t// in\n    tag_17:\n        /* \"contracts/proxy.sol\":2511:2519  delegate */\n      tag_13\n        /* \"contracts/proxy.sol\":2511:2530  delegate(getImpl()) */\n      jump\t// in\n    tag_16:\n        /* \"contracts/proxy.sol\":61:2614  contract Proxy {... */\n      stop\n        /* \"contracts/proxy.sol\":1856:1943  function getEImpl() external view returns (address) {... */\n    tag_3:\n      callvalue\n      dup1\n      iszero\n      tag_18\n      jumpi\n      0x00\n      dup1\n      revert\n    tag_18:\n      pop\n      tag_19\n      tag_20\n      jump\t// in\n    tag_19:\n      mload(0x40)\n      tag_21\n      swap2\n      swap1\n      tag_22\n      jump\t// in\n    tag_21:\n      mload(0x40)\n      dup1\n      swap2\n      sub\n      swap1\n      return\n        /* \"contracts/proxy.sol\":1593:1752  function setImpl(address _CA) public onlyOnwer {... */\n    tag_4:\n      callvalue\n      dup1\n      iszero\n      tag_23\n      jumpi\n      0x00\n      dup1\n      revert\n    tag_23:\n      pop\n      tag_24\n      0x04\n      dup1\n      calldatasize\n      sub\n      dup2\n      add\n      swap1\n      tag_25\n      swap2\n      swap1\n      tag_26\n      jump\t// in\n    tag_25:\n      tag_27\n      jump\t// in\n    tag_24:\n      stop\n        /* \"contracts/proxy.sol\":1760:1848  function getAdmin() external view returns (address) {... */\n    tag_5:\n      callvalue\n      dup1\n      iszero\n      tag_28\n      jumpi\n      0x00\n      dup1\n      revert\n    tag_28:\n      pop\n      tag_29\n      tag_30\n      jump\t// in\n    tag_29:\n      mload(0x40)\n      tag_31\n      swap2\n      swap1\n      tag_22\n      jump\t// in\n    tag_31:\n      mload(0x40)\n      dup1\n      swap2\n      sub\n      swap1\n      return\n        /* \"contracts/proxy.sol\":767:841  bytes32 public constant ADMIN_SLOT = bytes32(uint(keccak256(\"admin\")) - 1) */\n    tag_6:\n      callvalue\n      dup1\n      iszero\n      tag_32\n      jumpi\n      0x00\n      dup1\n      revert\n    tag_32:\n      pop\n      tag_33\n      tag_34\n      jump\t// in\n    tag_33:\n      mload(0x40)\n      tag_35\n      swap2\n      swap1\n      tag_36\n      jump\t// in\n    tag_35:\n      mload(0x40)\n      dup1\n      swap2\n      sub\n      swap1\n      return\n        /* \"contracts/proxy.sol\":486:558  bytes32 public constant IMPL_SLOT = bytes32(uint(keccak256(\"IMPL\")) - 1) */\n    tag_7:\n      callvalue\n      dup1\n      iszero\n      tag_37\n      jumpi\n      0x00\n      dup1\n      revert\n    tag_37:\n      pop\n      tag_38\n      tag_39\n      jump\t// in\n    tag_38:\n      mload(0x40)\n      tag_40\n      swap2\n      swap1\n      tag_36\n      jump\t// in\n    tag_40:\n      mload(0x40)\n      dup1\n      swap2\n      sub\n      swap1\n      return\n        /* \"contracts/proxy.sol\":1473:1585  function getImpl() private view returns (address) {... */\n    tag_12:\n        /* \"contracts/proxy.sol\":1514:1521  address */\n      0x00\n        /* \"contracts/proxy.sol\":1541:1571  Slot.getAddressSlot(IMPL_SLOT) */\n      tag_43\n        /* \"contracts/proxy.sol\":556:557  1 */\n      0x01\n        /* \"contracts/proxy.sol\":535:552  keccak256(\"IMPL\") */\n      0x486287226df0757af294903da9bc1edb84c92006afe00d704a2e6e2aea90d6b8\n        /* \"contracts/proxy.sol\":530:553  uint(keccak256(\"IMPL\")) */\n      0x00\n      shr\n        /* \"contracts/proxy.sol\":530:557  uint(keccak256(\"IMPL\")) - 1 */\n      tag_44\n      swap2\n      swap1\n      tag_45\n      jump\t// in\n    tag_44:\n        /* \"contracts/proxy.sol\":522:558  bytes32(uint(keccak256(\"IMPL\")) - 1) */\n      0x00\n      shl\n        /* \"contracts/proxy.sol\":1541:1560  Slot.getAddressSlot */\n      tag_41\n        /* \"contracts/proxy.sol\":1541:1571  Slot.getAddressSlot(IMPL_SLOT) */\n      jump\t// in\n    tag_43:\n        /* \"contracts/proxy.sol\":1541:1577  Slot.getAddressSlot(IMPL_SLOT).value */\n      0x00\n      add\n      0x00\n      swap1\n      sload\n      swap1\n      0x0100\n      exp\n      swap1\n      div\n      0xffffffffffffffffffffffffffffffffffffffff\n      and\n        /* \"contracts/proxy.sol\":1534:1577  return Slot.getAddressSlot(IMPL_SLOT).value */\n      swap1\n      pop\n        /* \"contracts/proxy.sol\":1473:1585  function getImpl() private view returns (address) {... */\n      swap1\n      jump\t// out\n        /* \"contracts/proxy.sol\":1951:2464  function delegate(address impl) private {... */\n    tag_13:\n        /* \"contracts/proxy.sol\":2105:2119  calldatasize() */\n      calldatasize\n        /* \"contracts/proxy.sol\":2102:2103  0 */\n      0x00\n        /* \"contracts/proxy.sol\":2099:2100  0 */\n      dup1\n        /* \"contracts/proxy.sol\":2086:2120  calldatacopy(0, 0, calldatasize()) */\n      calldatacopy\n        /* \"contracts/proxy.sol\":2198:2199  0 */\n      0x00\n        /* \"contracts/proxy.sol\":2195:2196  0 */\n      dup1\n        /* \"contracts/proxy.sol\":2179:2193  calldatasize() */\n      calldatasize\n        /* \"contracts/proxy.sol\":2176:2177  0 */\n      0x00\n        /* \"contracts/proxy.sol\":2170:2174  impl */\n      dup5\n        /* \"contracts/proxy.sol\":2163:2168  gas() */\n      gas\n        /* \"contracts/proxy.sol\":2150:2200  delegatecall(gas(), impl, 0, calldatasize(), 0, 0) */\n      delegatecall\n        /* \"contracts/proxy.sol\":2235:2251  returndatasize() */\n      returndatasize\n        /* \"contracts/proxy.sol\":2232:2233  0 */\n      0x00\n        /* \"contracts/proxy.sol\":2229:2230  0 */\n      dup1\n        /* \"contracts/proxy.sol\":2214:2252  returndatacopy(0, 0, returndatasize()) */\n      returndatacopy\n        /* \"contracts/proxy.sol\":2275:2281  result */\n      dup1\n        /* \"contracts/proxy.sol\":2300:2301  0 */\n      0x00\n        /* \"contracts/proxy.sol\":2295:2363  case 0 {... */\n      dup2\n      eq\n      tag_48\n      jumpi\n        /* \"contracts/proxy.sol\":2414:2430  returndatasize() */\n      returndatasize\n        /* \"contracts/proxy.sol\":2411:2412  0 */\n      0x00\n        /* \"contracts/proxy.sol\":2404:2431  return(0, returndatasize()) */\n      return\n        /* \"contracts/proxy.sol\":2295:2363  case 0 {... */\n    tag_48:\n        /* \"contracts/proxy.sol\":2331:2347  returndatasize() */\n      returndatasize\n        /* \"contracts/proxy.sol\":2328:2329  0 */\n      0x00\n        /* \"contracts/proxy.sol\":2321:2348  revert(0, returndatasize()) */\n      revert\n        /* \"contracts/proxy.sol\":1856:1943  function getEImpl() external view returns (address) {... */\n    tag_20:\n        /* \"contracts/proxy.sol\":1899:1906  address */\n      0x00\n        /* \"contracts/proxy.sol\":1926:1935  getImpl() */\n      tag_50\n        /* \"contracts/proxy.sol\":1926:1933  getImpl */\n      tag_12\n        /* \"contracts/proxy.sol\":1926:1935  getImpl() */\n      jump\t// in\n    tag_50:\n        /* \"contracts/proxy.sol\":1919:1935  return getImpl() */\n      swap1\n      pop\n        /* \"contracts/proxy.sol\":1856:1943  function getEImpl() external view returns (address) {... */\n      swap1\n      jump\t// out\n        /* \"contracts/proxy.sol\":1593:1752  function setImpl(address _CA) public onlyOnwer {... */\n    tag_27:\n        /* \"contracts/proxy.sol\":1087:1097  getOnwer() */\n      tag_52\n        /* \"contracts/proxy.sol\":1087:1095  getOnwer */\n      tag_53\n        /* \"contracts/proxy.sol\":1087:1097  getOnwer() */\n      jump\t// in\n    tag_52:\n        /* \"contracts/proxy.sol\":1073:1097  msg.sender == getOnwer() */\n      0xffffffffffffffffffffffffffffffffffffffff\n      and\n        /* \"contracts/proxy.sol\":1073:1083  msg.sender */\n      caller\n        /* \"contracts/proxy.sol\":1073:1097  msg.sender == getOnwer() */\n      0xffffffffffffffffffffffffffffffffffffffff\n      and\n      eq\n        /* \"contracts/proxy.sol\":1065:1098  require(msg.sender == getOnwer()) */\n      tag_54\n      jumpi\n      0x00\n      dup1\n      revert\n    tag_54:\n        /* \"contracts/proxy.sol\":1741:1744  _CA */\n      dup1\n        /* \"contracts/proxy.sol\":1702:1732  Slot.getAddressSlot(IMPL_SLOT) */\n      tag_56\n        /* \"contracts/proxy.sol\":556:557  1 */\n      0x01\n        /* \"contracts/proxy.sol\":535:552  keccak256(\"IMPL\") */\n      0x486287226df0757af294903da9bc1edb84c92006afe00d704a2e6e2aea90d6b8\n        /* \"contracts/proxy.sol\":530:553  uint(keccak256(\"IMPL\")) */\n      0x00\n      shr\n        /* \"contracts/proxy.sol\":530:557  uint(keccak256(\"IMPL\")) - 1 */\n      tag_57\n      swap2\n      swap1\n      tag_45\n      jump\t// in\n    tag_57:\n        /* \"contracts/proxy.sol\":522:558  bytes32(uint(keccak256(\"IMPL\")) - 1) */\n      0x00\n      shl\n        /* \"contracts/proxy.sol\":1702:1721  Slot.getAddressSlot */\n      tag_41\n        /* \"contracts/proxy.sol\":1702:1732  Slot.getAddressSlot(IMPL_SLOT) */\n      jump\t// in\n    tag_56:\n        /* \"contracts/proxy.sol\":1702:1738  Slot.getAddressSlot(IMPL_SLOT).value */\n      0x00\n      add\n      0x00\n        /* \"contracts/proxy.sol\":1702:1744  Slot.getAddressSlot(IMPL_SLOT).value = _CA */\n      0x0100\n      exp\n      dup2\n      sload\n      dup2\n      0xffffffffffffffffffffffffffffffffffffffff\n      mul\n      not\n      and\n      swap1\n      dup4\n      0xffffffffffffffffffffffffffffffffffffffff\n      and\n      mul\n      or\n      swap1\n      sstore\n      pop\n        /* \"contracts/proxy.sol\":1593:1752  function setImpl(address _CA) public onlyOnwer {... */\n      pop\n      jump\t// out\n        /* \"contracts/proxy.sol\":1760:1848  function getAdmin() external view returns (address) {... */\n    tag_30:\n        /* \"contracts/proxy.sol\":1803:1810  address */\n      0x00\n        /* \"contracts/proxy.sol\":1830:1840  getOnwer() */\n      tag_59\n        /* \"contracts/proxy.sol\":1830:1838  getOnwer */\n      tag_53\n        /* \"contracts/proxy.sol\":1830:1840  getOnwer() */\n      jump\t// in\n    tag_59:\n        /* \"contracts/proxy.sol\":1823:1840  return getOnwer() */\n      swap1\n      pop\n        /* \"contracts/proxy.sol\":1760:1848  function getAdmin() external view returns (address) {... */\n      swap1\n      jump\t// out\n        /* \"contracts/proxy.sol\":767:841  bytes32 public constant ADMIN_SLOT = bytes32(uint(keccak256(\"admin\")) - 1) */\n    tag_34:\n        /* \"contracts/proxy.sol\":839:840  1 */\n      0x01\n        /* \"contracts/proxy.sol\":817:835  keccak256(\"admin\") */\n      0xf23ec0bb4210edd5cba85afd05127efcd2fc6a781bfed49188da1081670b22d8\n        /* \"contracts/proxy.sol\":812:836  uint(keccak256(\"admin\")) */\n      0x00\n      shr\n        /* \"contracts/proxy.sol\":812:840  uint(keccak256(\"admin\")) - 1 */\n      tag_60\n      swap2\n      swap1\n      tag_45\n      jump\t// in\n    tag_60:\n        /* \"contracts/proxy.sol\":804:841  bytes32(uint(keccak256(\"admin\")) - 1) */\n      0x00\n      shl\n        /* \"contracts/proxy.sol\":767:841  bytes32 public constant ADMIN_SLOT = bytes32(uint(keccak256(\"admin\")) - 1) */\n      dup2\n      jump\t// out\n        /* \"contracts/proxy.sol\":486:558  bytes32 public constant IMPL_SLOT = bytes32(uint(keccak256(\"IMPL\")) - 1) */\n    tag_39:\n        /* \"contracts/proxy.sol\":556:557  1 */\n      0x01\n        /* \"contracts/proxy.sol\":535:552  keccak256(\"IMPL\") */\n      0x486287226df0757af294903da9bc1edb84c92006afe00d704a2e6e2aea90d6b8\n        /* \"contracts/proxy.sol\":530:553  uint(keccak256(\"IMPL\")) */\n      0x00\n      shr\n        /* \"contracts/proxy.sol\":530:557  uint(keccak256(\"IMPL\")) - 1 */\n      tag_61\n      swap2\n      swap1\n      tag_45\n      jump\t// in\n    tag_61:\n        /* \"contracts/proxy.sol\":522:558  bytes32(uint(keccak256(\"IMPL\")) - 1) */\n      0x00\n      shl\n        /* \"contracts/proxy.sol\":486:558  bytes32 public constant IMPL_SLOT = bytes32(uint(keccak256(\"IMPL\")) - 1) */\n      dup2\n      jump\t// out\n        /* \"contracts/proxy.sol\":2947:3438  function getAddressSlot(... */\n    tag_41:\n        /* \"contracts/proxy.sol\":3032:3059  AddressSlot storage pointer */\n      0x00\n        /* \"contracts/proxy.sol\":3408:3420  _slotAddress */\n      dup2\n        /* \"contracts/proxy.sol\":3392:3420  pointer.slot := _slotAddress */\n      swap1\n      pop\n        /* \"contracts/proxy.sol\":2947:3438  function getAddressSlot(... */\n      swap2\n      swap1\n      pop\n      jump\t// out\n        /* \"contracts/proxy.sol\":1126:1240  function getOnwer() private view returns (address) {... */\n    tag_53:\n        /* \"contracts/proxy.sol\":1168:1175  address */\n      0x00\n        /* \"contracts/proxy.sol\":1195:1226  Slot.getAddressSlot(ADMIN_SLOT) */\n      tag_64\n        /* \"contracts/proxy.sol\":839:840  1 */\n      0x01\n        /* \"contracts/proxy.sol\":817:835  keccak256(\"admin\") */\n      0xf23ec0bb4210edd5cba85afd05127efcd2fc6a781bfed49188da1081670b22d8\n        /* \"contracts/proxy.sol\":812:836  uint(keccak256(\"admin\")) */\n      0x00\n      shr\n        /* \"contracts/proxy.sol\":812:840  uint(keccak256(\"admin\")) - 1 */\n      tag_65\n      swap2\n      swap1\n      tag_45\n      jump\t// in\n    tag_65:\n        /* \"contracts/proxy.sol\":804:841  bytes32(uint(keccak256(\"admin\")) - 1) */\n      0x00\n      shl\n        /* \"contracts/proxy.sol\":1195:1214  Slot.getAddressSlot */\n      tag_41\n        /* \"contracts/proxy.sol\":1195:1226  Slot.getAddressSlot(ADMIN_SLOT) */\n      jump\t// in\n    tag_64:\n        /* \"contracts/proxy.sol\":1195:1232  Slot.getAddressSlot(ADMIN_SLOT).value */\n      0x00\n      add\n      0x00\n      swap1\n      sload\n      swap1\n      0x0100\n      exp\n      swap1\n      div\n      0xffffffffffffffffffffffffffffffffffffffff\n      and\n        /* \"contracts/proxy.sol\":1188:1232  return Slot.getAddressSlot(ADMIN_SLOT).value */\n      swap1\n      pop\n        /* \"contracts/proxy.sol\":1126:1240  function getOnwer() private view returns (address) {... */\n      swap1\n      jump\t// out\n        /* \"#utility.yul\":7:133   */\n    tag_66:\n        /* \"#utility.yul\":44:51   */\n      0x00\n        /* \"#utility.yul\":84:126   */\n      0xffffffffffffffffffffffffffffffffffffffff\n        /* \"#utility.yul\":77:82   */\n      dup3\n        /* \"#utility.yul\":73:127   */\n      and\n        /* \"#utility.yul\":62:127   */\n      swap1\n      pop\n        /* \"#utility.yul\":7:133   */\n      swap2\n      swap1\n      pop\n      jump\t// out\n        /* \"#utility.yul\":139:235   */\n    tag_67:\n        /* \"#utility.yul\":176:183   */\n      0x00\n        /* \"#utility.yul\":205:229   */\n      tag_81\n        /* \"#utility.yul\":223:228   */\n      dup3\n        /* \"#utility.yul\":205:229   */\n      tag_66\n      jump\t// in\n    tag_81:\n        /* \"#utility.yul\":194:229   */\n      swap1\n      pop\n        /* \"#utility.yul\":139:235   */\n      swap2\n      swap1\n      pop\n      jump\t// out\n        /* \"#utility.yul\":241:359   */\n    tag_68:\n        /* \"#utility.yul\":328:352   */\n      tag_83\n        /* \"#utility.yul\":346:351   */\n      dup2\n        /* \"#utility.yul\":328:352   */\n      tag_67\n      jump\t// in\n    tag_83:\n        /* \"#utility.yul\":323:326   */\n      dup3\n        /* \"#utility.yul\":316:353   */\n      mstore\n        /* \"#utility.yul\":241:359   */\n      pop\n      pop\n      jump\t// out\n        /* \"#utility.yul\":365:587   */\n    tag_22:\n        /* \"#utility.yul\":458:462   */\n      0x00\n        /* \"#utility.yul\":496:498   */\n      0x20\n        /* \"#utility.yul\":485:494   */\n      dup3\n        /* \"#utility.yul\":481:499   */\n      add\n        /* \"#utility.yul\":473:499   */\n      swap1\n      pop\n        /* \"#utility.yul\":509:580   */\n      tag_85\n        /* \"#utility.yul\":577:578   */\n      0x00\n        /* \"#utility.yul\":566:575   */\n      dup4\n        /* \"#utility.yul\":562:579   */\n      add\n        /* \"#utility.yul\":553:559   */\n      dup5\n        /* \"#utility.yul\":509:580   */\n      tag_68\n      jump\t// in\n    tag_85:\n        /* \"#utility.yul\":365:587   */\n      swap3\n      swap2\n      pop\n      pop\n      jump\t// out\n        /* \"#utility.yul\":674:791   */\n    tag_70:\n        /* \"#utility.yul\":783:784   */\n      0x00\n        /* \"#utility.yul\":780:781   */\n      dup1\n        /* \"#utility.yul\":773:785   */\n      revert\n        /* \"#utility.yul\":920:1042   */\n    tag_72:\n        /* \"#utility.yul\":993:1017   */\n      tag_90\n        /* \"#utility.yul\":1011:1016   */\n      dup2\n        /* \"#utility.yul\":993:1017   */\n      tag_67\n      jump\t// in\n    tag_90:\n        /* \"#utility.yul\":986:991   */\n      dup2\n        /* \"#utility.yul\":983:1018   */\n      eq\n        /* \"#utility.yul\":973:1036   */\n      tag_91\n      jumpi\n        /* \"#utility.yul\":1032:1033   */\n      0x00\n        /* \"#utility.yul\":1029:1030   */\n      dup1\n        /* \"#utility.yul\":1022:1034   */\n      revert\n        /* \"#utility.yul\":973:1036   */\n    tag_91:\n        /* \"#utility.yul\":920:1042   */\n      pop\n      jump\t// out\n        /* \"#utility.yul\":1048:1187   */\n    tag_73:\n        /* \"#utility.yul\":1094:1099   */\n      0x00\n        /* \"#utility.yul\":1132:1138   */\n      dup2\n        /* \"#utility.yul\":1119:1139   */\n      calldataload\n        /* \"#utility.yul\":1110:1139   */\n      swap1\n      pop\n        /* \"#utility.yul\":1148:1181   */\n      tag_93\n        /* \"#utility.yul\":1175:1180   */\n      dup2\n        /* \"#utility.yul\":1148:1181   */\n      tag_72\n      jump\t// in\n    tag_93:\n        /* \"#utility.yul\":1048:1187   */\n      swap3\n      swap2\n      pop\n      pop\n      jump\t// out\n        /* \"#utility.yul\":1193:1522   */\n    tag_26:\n        /* \"#utility.yul\":1252:1258   */\n      0x00\n        /* \"#utility.yul\":1301:1303   */\n      0x20\n        /* \"#utility.yul\":1289:1298   */\n      dup3\n        /* \"#utility.yul\":1280:1287   */\n      dup5\n        /* \"#utility.yul\":1276:1299   */\n      sub\n        /* \"#utility.yul\":1272:1304   */\n      slt\n        /* \"#utility.yul\":1269:1388   */\n      iszero\n      tag_95\n      jumpi\n        /* \"#utility.yul\":1307:1386   */\n      tag_96\n      tag_70\n      jump\t// in\n    tag_96:\n        /* \"#utility.yul\":1269:1388   */\n    tag_95:\n        /* \"#utility.yul\":1427:1428   */\n      0x00\n        /* \"#utility.yul\":1452:1505   */\n      tag_97\n        /* \"#utility.yul\":1497:1504   */\n      dup5\n        /* \"#utility.yul\":1488:1494   */\n      dup3\n        /* \"#utility.yul\":1477:1486   */\n      dup6\n        /* \"#utility.yul\":1473:1495   */\n      add\n        /* \"#utility.yul\":1452:1505   */\n      tag_73\n      jump\t// in\n    tag_97:\n        /* \"#utility.yul\":1442:1505   */\n      swap2\n      pop\n        /* \"#utility.yul\":1398:1515   */\n      pop\n        /* \"#utility.yul\":1193:1522   */\n      swap3\n      swap2\n      pop\n      pop\n      jump\t// out\n        /* \"#utility.yul\":1528:1605   */\n    tag_74:\n        /* \"#utility.yul\":1565:1572   */\n      0x00\n        /* \"#utility.yul\":1594:1599   */\n      dup2\n        /* \"#utility.yul\":1583:1599   */\n      swap1\n      pop\n        /* \"#utility.yul\":1528:1605   */\n      swap2\n      swap1\n      pop\n      jump\t// out\n        /* \"#utility.yul\":1611:1729   */\n    tag_75:\n        /* \"#utility.yul\":1698:1722   */\n      tag_100\n        /* \"#utility.yul\":1716:1721   */\n      dup2\n        /* \"#utility.yul\":1698:1722   */\n      tag_74\n      jump\t// in\n    tag_100:\n        /* \"#utility.yul\":1693:1696   */\n      dup3\n        /* \"#utility.yul\":1686:1723   */\n      mstore\n        /* \"#utility.yul\":1611:1729   */\n      pop\n      pop\n      jump\t// out\n        /* \"#utility.yul\":1735:1957   */\n    tag_36:\n        /* \"#utility.yul\":1828:1832   */\n      0x00\n        /* \"#utility.yul\":1866:1868   */\n      0x20\n        /* \"#utility.yul\":1855:1864   */\n      dup3\n        /* \"#utility.yul\":1851:1869   */\n      add\n        /* \"#utility.yul\":1843:1869   */\n      swap1\n      pop\n        /* \"#utility.yul\":1879:1950   */\n      tag_102\n        /* \"#utility.yul\":1947:1948   */\n      0x00\n        /* \"#utility.yul\":1936:1945   */\n      dup4\n        /* \"#utility.yul\":1932:1949   */\n      add\n        /* \"#utility.yul\":1923:1929   */\n      dup5\n        /* \"#utility.yul\":1879:1950   */\n      tag_75\n      jump\t// in\n    tag_102:\n        /* \"#utility.yul\":1735:1957   */\n      swap3\n      swap2\n      pop\n      pop\n      jump\t// out\n        /* \"#utility.yul\":1963:2040   */\n    tag_76:\n        /* \"#utility.yul\":2000:2007   */\n      0x00\n        /* \"#utility.yul\":2029:2034   */\n      dup2\n        /* \"#utility.yul\":2018:2034   */\n      swap1\n      pop\n        /* \"#utility.yul\":1963:2040   */\n      swap2\n      swap1\n      pop\n      jump\t// out\n        /* \"#utility.yul\":2046:2226   */\n    tag_77:\n        /* \"#utility.yul\":2094:2171   */\n      0x4e487b7100000000000000000000000000000000000000000000000000000000\n        /* \"#utility.yul\":2091:2092   */\n      0x00\n        /* \"#utility.yul\":2084:2172   */\n      mstore\n        /* \"#utility.yul\":2191:2195   */\n      0x11\n        /* \"#utility.yul\":2188:2189   */\n      0x04\n        /* \"#utility.yul\":2181:2196   */\n      mstore\n        /* \"#utility.yul\":2215:2219   */\n      0x24\n        /* \"#utility.yul\":2212:2213   */\n      0x00\n        /* \"#utility.yul\":2205:2220   */\n      revert\n        /* \"#utility.yul\":2232:2426   */\n    tag_45:\n        /* \"#utility.yul\":2272:2276   */\n      0x00\n        /* \"#utility.yul\":2292:2312   */\n      tag_106\n        /* \"#utility.yul\":2310:2311   */\n      dup3\n        /* \"#utility.yul\":2292:2312   */\n      tag_76\n      jump\t// in\n    tag_106:\n        /* \"#utility.yul\":2287:2312   */\n      swap2\n      pop\n        /* \"#utility.yul\":2326:2346   */\n      tag_107\n        /* \"#utility.yul\":2344:2345   */\n      dup4\n        /* \"#utility.yul\":2326:2346   */\n      tag_76\n      jump\t// in\n    tag_107:\n        /* \"#utility.yul\":2321:2346   */\n      swap3\n      pop\n        /* \"#utility.yul\":2370:2371   */\n      dup3\n        /* \"#utility.yul\":2367:2368   */\n      dup3\n        /* \"#utility.yul\":2363:2372   */\n      sub\n        /* \"#utility.yul\":2355:2372   */\n      swap1\n      pop\n        /* \"#utility.yul\":2394:2395   */\n      dup2\n        /* \"#utility.yul\":2388:2392   */\n      dup2\n        /* \"#utility.yul\":2385:2396   */\n      gt\n        /* \"#utility.yul\":2382:2419   */\n      iszero\n      tag_108\n      jumpi\n        /* \"#utility.yul\":2399:2417   */\n      tag_109\n      tag_77\n      jump\t// in\n    tag_109:\n        /* \"#utility.yul\":2382:2419   */\n    tag_108:\n        /* \"#utility.yul\":2232:2426   */\n      swap3\n      swap2\n      pop\n      pop\n      jump\t// out\n\n    auxdata: 0xa264697066735822122097045af9674c1f5377df6072a4e37d391fee07f39c615278eae436fd132ace2164736f6c63430008120033\n}\n",
				"bytecode": {
					"linkReferences": {},
					"object": "608060405234801561001057600080fd5b506100203361002560201b60201c565b610126565b8061006b60017ff23ec0bb4210edd5cba85afd05127efcd2fc6a781bfed49188da1081670b22d860001c61005991906100f2565b60001b6100af60201b6103211760201c565b60000160006101000a81548173ffffffffffffffffffffffffffffffffffffffff021916908373ffffffffffffffffffffffffffffffffffffffff16021790555050565b6000819050919050565b6000819050919050565b7f4e487b7100000000000000000000000000000000000000000000000000000000600052601160045260246000fd5b60006100fd826100b9565b9150610108836100b9565b92508282039050818111156101205761011f6100c3565b5b92915050565b610522806101356000396000f3fe60806040526004361061004e5760003560e01c8063373dcc1214610077578063691bd2ae146100a25780636e9960c3146100cb5780639c4b32be146100f6578063a0ab35aa1461012157610065565b366100655761006361005e61014c565b6101b2565b005b61007561007061014c565b6101b2565b005b34801561008357600080fd5b5061008c6101d8565b60405161009991906103d2565b60405180910390f35b3480156100ae57600080fd5b506100c960048036038101906100c4919061041e565b6101e7565b005b3480156100d757600080fd5b506100e06102a6565b6040516100ed91906103d2565b60405180910390f35b34801561010257600080fd5b5061010b6102b5565b6040516101189190610464565b60405180910390f35b34801561012d57600080fd5b506101366102eb565b6040516101439190610464565b60405180910390f35b600061018960017f486287226df0757af294903da9bc1edb84c92006afe00d704a2e6e2aea90d6b860001c61018191906104b8565b60001b610321565b60000160009054906101000a900473ffffffffffffffffffffffffffffffffffffffff16905090565b3660008037600080366000845af43d6000803e80600081146101d3573d6000f35b3d6000fd5b60006101e261014c565b905090565b6101ef61032b565b73ffffffffffffffffffffffffffffffffffffffff163373ffffffffffffffffffffffffffffffffffffffff161461022657600080fd5b8061026260017f486287226df0757af294903da9bc1edb84c92006afe00d704a2e6e2aea90d6b860001c61025a91906104b8565b60001b610321565b60000160006101000a81548173ffffffffffffffffffffffffffffffffffffffff021916908373ffffffffffffffffffffffffffffffffffffffff16021790555050565b60006102b061032b565b905090565b60017ff23ec0bb4210edd5cba85afd05127efcd2fc6a781bfed49188da1081670b22d860001c6102e591906104b8565b60001b81565b60017f486287226df0757af294903da9bc1edb84c92006afe00d704a2e6e2aea90d6b860001c61031b91906104b8565b60001b81565b6000819050919050565b600061036860017ff23ec0bb4210edd5cba85afd05127efcd2fc6a781bfed49188da1081670b22d860001c61036091906104b8565b60001b610321565b60000160009054906101000a900473ffffffffffffffffffffffffffffffffffffffff16905090565b600073ffffffffffffffffffffffffffffffffffffffff82169050919050565b60006103bc82610391565b9050919050565b6103cc816103b1565b82525050565b60006020820190506103e760008301846103c3565b92915050565b600080fd5b6103fb816103b1565b811461040657600080fd5b50565b600081359050610418816103f2565b92915050565b600060208284031215610434576104336103ed565b5b600061044284828501610409565b91505092915050565b6000819050919050565b61045e8161044b565b82525050565b60006020820190506104796000830184610455565b92915050565b6000819050919050565b7f4e487b7100000000000000000000000000000000000000000000000000000000600052601160045260246000fd5b60006104c38261047f565b91506104ce8361047f565b92508282039050818111156104e6576104e5610489565b5b9291505056fea264697066735822122097045af9674c1f5377df6072a4e37d391fee07f39c615278eae436fd132ace2164736f6c63430008120033",
					"opcodes": "PUSH1 0x80 PUSH1 0x40 MSTORE CALLVALUE DUP1 ISZERO PUSH2 0x10 JUMPI PUSH1 0x0 DUP1 REVERT JUMPDEST POP PUSH2 0x20 CALLER PUSH2 0x25 PUSH1 0x20 SHL PUSH1 0x20 SHR JUMP JUMPDEST PUSH2 0x126 JUMP JUMPDEST DUP1 PUSH2 0x6B PUSH1 0x1 PUSH32 0xF23EC0BB4210EDD5CBA85AFD05127EFCD2FC6A781BFED49188DA1081670B22D8 PUSH1 0x0 SHR PUSH2 0x59 SWAP2 SWAP1 PUSH2 0xF2 JUMP JUMPDEST PUSH1 0x0 SHL PUSH2 0xAF PUSH1 0x20 SHL PUSH2 0x321 OR PUSH1 0x20 SHR JUMP JUMPDEST PUSH1 0x0 ADD PUSH1 0x0 PUSH2 0x100 EXP DUP2 SLOAD DUP2 PUSH20 0xFFFFFFFFFFFFFFFFFFFFFFFFFFFFFFFFFFFFFFFF MUL NOT AND SWAP1 DUP4 PUSH20 0xFFFFFFFFFFFFFFFFFFFFFFFFFFFFFFFFFFFFFFFF AND MUL OR SWAP1 SSTORE POP POP JUMP JUMPDEST PUSH1 0x0 DUP2 SWAP1 POP SWAP2 SWAP1 POP JUMP JUMPDEST PUSH1 0x0 DUP2 SWAP1 POP SWAP2 SWAP1 POP JUMP JUMPDEST PUSH32 0x4E487B7100000000000000000000000000000000000000000000000000000000 PUSH1 0x0 MSTORE PUSH1 0x11 PUSH1 0x4 MSTORE PUSH1 0x24 PUSH1 0x0 REVERT JUMPDEST PUSH1 0x0 PUSH2 0xFD DUP3 PUSH2 0xB9 JUMP JUMPDEST SWAP2 POP PUSH2 0x108 DUP4 PUSH2 0xB9 JUMP JUMPDEST SWAP3 POP DUP3 DUP3 SUB SWAP1 POP DUP2 DUP2 GT ISZERO PUSH2 0x120 JUMPI PUSH2 0x11F PUSH2 0xC3 JUMP JUMPDEST JUMPDEST SWAP3 SWAP2 POP POP JUMP JUMPDEST PUSH2 0x522 DUP1 PUSH2 0x135 PUSH1 0x0 CODECOPY PUSH1 0x0 RETURN INVALID PUSH1 0x80 PUSH1 0x40 MSTORE PUSH1 0x4 CALLDATASIZE LT PUSH2 0x4E JUMPI PUSH1 0x0 CALLDATALOAD PUSH1 0xE0 SHR DUP1 PUSH4 0x373DCC12 EQ PUSH2 0x77 JUMPI DUP1 PUSH4 0x691BD2AE EQ PUSH2 0xA2 JUMPI DUP1 PUSH4 0x6E9960C3 EQ PUSH2 0xCB JUMPI DUP1 PUSH4 0x9C4B32BE EQ PUSH2 0xF6 JUMPI DUP1 PUSH4 0xA0AB35AA EQ PUSH2 0x121 JUMPI PUSH2 0x65 JUMP JUMPDEST CALLDATASIZE PUSH2 0x65 JUMPI PUSH2 0x63 PUSH2 0x5E PUSH2 0x14C JUMP JUMPDEST PUSH2 0x1B2 JUMP JUMPDEST STOP JUMPDEST PUSH2 0x75 PUSH2 0x70 PUSH2 0x14C JUMP JUMPDEST PUSH2 0x1B2 JUMP JUMPDEST STOP JUMPDEST CALLVALUE DUP1 ISZERO PUSH2 0x83 JUMPI PUSH1 0x0 DUP1 REVERT JUMPDEST POP PUSH2 0x8C PUSH2 0x1D8 JUMP JUMPDEST PUSH1 0x40 MLOAD PUSH2 0x99 SWAP2 SWAP1 PUSH2 0x3D2 JUMP JUMPDEST PUSH1 0x40 MLOAD DUP1 SWAP2 SUB SWAP1 RETURN JUMPDEST CALLVALUE DUP1 ISZERO PUSH2 0xAE JUMPI PUSH1 0x0 DUP1 REVERT JUMPDEST POP PUSH2 0xC9 PUSH1 0x4 DUP1 CALLDATASIZE SUB DUP2 ADD SWAP1 PUSH2 0xC4 SWAP2 SWAP1 PUSH2 0x41E JUMP JUMPDEST PUSH2 0x1E7 JUMP JUMPDEST STOP JUMPDEST CALLVALUE DUP1 ISZERO PUSH2 0xD7 JUMPI PUSH1 0x0 DUP1 REVERT JUMPDEST POP PUSH2 0xE0 PUSH2 0x2A6 JUMP JUMPDEST PUSH1 0x40 MLOAD PUSH2 0xED SWAP2 SWAP1 PUSH2 0x3D2 JUMP JUMPDEST PUSH1 0x40 MLOAD DUP1 SWAP2 SUB SWAP1 RETURN JUMPDEST CALLVALUE DUP1 ISZERO PUSH2 0x102 JUMPI PUSH1 0x0 DUP1 REVERT JUMPDEST POP PUSH2 0x10B PUSH2 0x2B5 JUMP JUMPDEST PUSH1 0x40 MLOAD PUSH2 0x118 SWAP2 SWAP1 PUSH2 0x464 JUMP JUMPDEST PUSH1 0x40 MLOAD DUP1 SWAP2 SUB SWAP1 RETURN JUMPDEST CALLVALUE DUP1 ISZERO PUSH2 0x12D JUMPI PUSH1 0x0 DUP1 REVERT JUMPDEST POP PUSH2 0x136 PUSH2 0x2EB JUMP JUMPDEST PUSH1 0x40 MLOAD PUSH2 0x143 SWAP2 SWAP1 PUSH2 0x464 JUMP JUMPDEST PUSH1 0x40 MLOAD DUP1 SWAP2 SUB SWAP1 RETURN JUMPDEST PUSH1 0x0 PUSH2 0x189 PUSH1 0x1 PUSH32 0x486287226DF0757AF294903DA9BC1EDB84C92006AFE00D704A2E6E2AEA90D6B8 PUSH1 0x0 SHR PUSH2 0x181 SWAP2 SWAP1 PUSH2 0x4B8 JUMP JUMPDEST PUSH1 0x0 SHL PUSH2 0x321 JUMP JUMPDEST PUSH1 0x0 ADD PUSH1 0x0 SWAP1 SLOAD SWAP1 PUSH2 0x100 EXP SWAP1 DIV PUSH20 0xFFFFFFFFFFFFFFFFFFFFFFFFFFFFFFFFFFFFFFFF AND SWAP1 POP SWAP1 JUMP JUMPDEST CALLDATASIZE PUSH1 0x0 DUP1 CALLDATACOPY PUSH1 0x0 DUP1 CALLDATASIZE PUSH1 0x0 DUP5 GAS DELEGATECALL RETURNDATASIZE PUSH1 0x0 DUP1 RETURNDATACOPY DUP1 PUSH1 0x0 DUP2 EQ PUSH2 0x1D3 JUMPI RETURNDATASIZE PUSH1 0x0 RETURN JUMPDEST RETURNDATASIZE PUSH1 0x0 REVERT JUMPDEST PUSH1 0x0 PUSH2 0x1E2 PUSH2 0x14C JUMP JUMPDEST SWAP1 POP SWAP1 JUMP JUMPDEST PUSH2 0x1EF PUSH2 0x32B JUMP JUMPDEST PUSH20 0xFFFFFFFFFFFFFFFFFFFFFFFFFFFFFFFFFFFFFFFF AND CALLER PUSH20 0xFFFFFFFFFFFFFFFFFFFFFFFFFFFFFFFFFFFFFFFF AND EQ PUSH2 0x226 JUMPI PUSH1 0x0 DUP1 REVERT JUMPDEST DUP1 PUSH2 0x262 PUSH1 0x1 PUSH32 0x486287226DF0757AF294903DA9BC1EDB84C92006AFE00D704A2E6E2AEA90D6B8 PUSH1 0x0 SHR PUSH2 0x25A SWAP2 SWAP1 PUSH2 0x4B8 JUMP JUMPDEST PUSH1 0x0 SHL PUSH2 0x321 JUMP JUMPDEST PUSH1 0x0 ADD PUSH1 0x0 PUSH2 0x100 EXP DUP2 SLOAD DUP2 PUSH20 0xFFFFFFFFFFFFFFFFFFFFFFFFFFFFFFFFFFFFFFFF MUL NOT AND SWAP1 DUP4 PUSH20 0xFFFFFFFFFFFFFFFFFFFFFFFFFFFFFFFFFFFFFFFF AND MUL OR SWAP1 SSTORE POP POP JUMP JUMPDEST PUSH1 0x0 PUSH2 0x2B0 PUSH2 0x32B JUMP JUMPDEST SWAP1 POP SWAP1 JUMP JUMPDEST PUSH1 0x1 PUSH32 0xF23EC0BB4210EDD5CBA85AFD05127EFCD2FC6A781BFED49188DA1081670B22D8 PUSH1 0x0 SHR PUSH2 0x2E5 SWAP2 SWAP1 PUSH2 0x4B8 JUMP JUMPDEST PUSH1 0x0 SHL DUP2 JUMP JUMPDEST PUSH1 0x1 PUSH32 0x486287226DF0757AF294903DA9BC1EDB84C92006AFE00D704A2E6E2AEA90D6B8 PUSH1 0x0 SHR PUSH2 0x31B SWAP2 SWAP1 PUSH2 0x4B8 JUMP JUMPDEST PUSH1 0x0 SHL DUP2 JUMP JUMPDEST PUSH1 0x0 DUP2 SWAP1 POP SWAP2 SWAP1 POP JUMP JUMPDEST PUSH1 0x0 PUSH2 0x368 PUSH1 0x1 PUSH32 0xF23EC0BB4210EDD5CBA85AFD05127EFCD2FC6A781BFED49188DA1081670B22D8 PUSH1 0x0 SHR PUSH2 0x360 SWAP2 SWAP1 PUSH2 0x4B8 JUMP JUMPDEST PUSH1 0x0 SHL PUSH2 0x321 JUMP JUMPDEST PUSH1 0x0 ADD PUSH1 0x0 SWAP1 SLOAD SWAP1 PUSH2 0x100 EXP SWAP1 DIV PUSH20 0xFFFFFFFFFFFFFFFFFFFFFFFFFFFFFFFFFFFFFFFF AND SWAP1 POP SWAP1 JUMP JUMPDEST PUSH1 0x0 PUSH20 0xFFFFFFFFFFFFFFFFFFFFFFFFFFFFFFFFFFFFFFFF DUP3 AND SWAP1 POP SWAP2 SWAP1 POP JUMP JUMPDEST PUSH1 0x0 PUSH2 0x3BC DUP3 PUSH2 0x391 JUMP JUMPDEST SWAP1 POP SWAP2 SWAP1 POP JUMP JUMPDEST PUSH2 0x3CC DUP2 PUSH2 0x3B1 JUMP JUMPDEST DUP3 MSTORE POP POP JUMP JUMPDEST PUSH1 0x0 PUSH1 0x20 DUP3 ADD SWAP1 POP PUSH2 0x3E7 PUSH1 0x0 DUP4 ADD DUP5 PUSH2 0x3C3 JUMP JUMPDEST SWAP3 SWAP2 POP POP JUMP JUMPDEST PUSH1 0x0 DUP1 REVERT JUMPDEST PUSH2 0x3FB DUP2 PUSH2 0x3B1 JUMP JUMPDEST DUP2 EQ PUSH2 0x406 JUMPI PUSH1 0x0 DUP1 REVERT JUMPDEST POP JUMP JUMPDEST PUSH1 0x0 DUP2 CALLDATALOAD SWAP1 POP PUSH2 0x418 DUP2 PUSH2 0x3F2 JUMP JUMPDEST SWAP3 SWAP2 POP POP JUMP JUMPDEST PUSH1 0x0 PUSH1 0x20 DUP3 DUP5 SUB SLT ISZERO PUSH2 0x434 JUMPI PUSH2 0x433 PUSH2 0x3ED JUMP JUMPDEST JUMPDEST PUSH1 0x0 PUSH2 0x442 DUP5 DUP3 DUP6 ADD PUSH2 0x409 JUMP JUMPDEST SWAP2 POP POP SWAP3 SWAP2 POP POP JUMP JUMPDEST PUSH1 0x0 DUP2 SWAP1 POP SWAP2 SWAP1 POP JUMP JUMPDEST PUSH2 0x45E DUP2 PUSH2 0x44B JUMP JUMPDEST DUP3 MSTORE POP POP JUMP JUMPDEST PUSH1 0x0 PUSH1 0x20 DUP3 ADD SWAP1 POP PUSH2 0x479 PUSH1 0x0 DUP4 ADD DUP5 PUSH2 0x455 JUMP JUMPDEST SWAP3 SWAP2 POP POP JUMP JUMPDEST PUSH1 0x0 DUP2 SWAP1 POP SWAP2 SWAP1 POP JUMP JUMPDEST PUSH32 0x4E487B7100000000000000000000000000000000000000000000000000000000 PUSH1 0x0 MSTORE PUSH1 0x11 PUSH1 0x4 MSTORE PUSH1 0x24 PUSH1 0x0 REVERT JUMPDEST PUSH1 0x0 PUSH2 0x4C3 DUP3 PUSH2 0x47F JUMP JUMPDEST SWAP2 POP PUSH2 0x4CE DUP4 PUSH2 0x47F JUMP JUMPDEST SWAP3 POP DUP3 DUP3 SUB SWAP1 POP DUP2 DUP2 GT ISZERO PUSH2 0x4E6 JUMPI PUSH2 0x4E5 PUSH2 0x489 JUMP JUMPDEST JUMPDEST SWAP3 SWAP2 POP POP JUMP INVALID LOG2 PUSH5 0x6970667358 0x22 SLT KECCAK256 SWAP8 DIV GAS 0xF9 PUSH8 0x4C1F5377DF6072A4 0xE3 PUSH30 0x391FEE07F39C615278EAE436FD132ACE2164736F6C634300081200330000 "
				},
				"gasEstimates": {
					"creation": {
						"codeDepositCost": "262800",
						"executionCost": "infinite",
						"totalCost": "infinite"
					},
					"external": {
						"": "infinite",
						"ADMIN_SLOT()": "infinite",
						"IMPL_SLOT()": "infinite",
						"getAdmin()": "infinite",
						"getEImpl()": "infinite",
						"setImpl(address)": "infinite"
					},
					"internal": {
						"delegate(address)": "infinite",
						"getImpl()": "infinite",
						"getOnwer()": "infinite",
						"setOnwer(address)": "infinite"
					}
				},
				"methodIdentifiers": {
					"ADMIN_SLOT()": "9c4b32be",
					"IMPL_SLOT()": "a0ab35aa",
					"getAdmin()": "6e9960c3",
					"getEImpl()": "373dcc12",
					"setImpl(address)": "691bd2ae"
				}
			},
			"storageLayout": {
				"storage": [],
				"types": null
			},
			"userdoc": {
				"kind": "user",
				"methods": {},
				"version": 1
			}
		}
	}
}