{
	"contracts/DAO.sol": {
		"DAO": {
			"abi": [
				{
					"inputs": [
						{
							"internalType": "address",
							"name": "_owner",
							"type": "address"
						}
					],
					"stateMutability": "nonpayable",
					"type": "constructor"
				},
				{
					"inputs": [
						{
							"internalType": "string",
							"name": "_title",
							"type": "string"
						},
						{
							"internalType": "string",
							"name": "_text",
							"type": "string"
						}
					],
					"name": "createProposal",
					"outputs": [],
					"stateMutability": "nonpayable",
					"type": "function"
				},
				{
					"inputs": [
						{
							"internalType": "uint256",
							"name": "_index",
							"type": "uint256"
						}
					],
					"name": "endVote",
					"outputs": [],
					"stateMutability": "nonpayable",
					"type": "function"
				},
				{
					"inputs": [
						{
							"internalType": "uint256",
							"name": "",
							"type": "uint256"
						}
					],
					"name": "proposals",
					"outputs": [
						{
							"internalType": "string",
							"name": "title",
							"type": "string"
						},
						{
							"internalType": "string",
							"name": "text",
							"type": "string"
						},
						{
							"internalType": "uint256",
							"name": "votes",
							"type": "uint256"
						},
						{
							"internalType": "enum DAO.Play",
							"name": "plays",
							"type": "uint8"
						},
						{
							"internalType": "bool",
							"name": "execute",
							"type": "bool"
						}
					],
					"stateMutability": "view",
					"type": "function"
				},
				{
					"inputs": [
						{
							"internalType": "address",
							"name": "_address",
							"type": "address"
						}
					],
					"name": "setghMenbers",
					"outputs": [],
					"stateMutability": "nonpayable",
					"type": "function"
				},
				{
					"inputs": [
						{
							"internalType": "uint256",
							"name": "_index",
							"type": "uint256"
						}
					],
					"name": "startVote",
					"outputs": [],
					"stateMutability": "nonpayable",
					"type": "function"
				},
				{
					"inputs": [
						{
							"internalType": "uint256",
							"name": "_index",
							"type": "uint256"
						}
					],
					"name": "vote",
					"outputs": [],
					"stateMutability": "nonpayable",
					"type": "function"
				}
			],
			"devdoc": {
				"kind": "dev",
				"methods": {},
				"version": 1
			},
			"evm": {
				"assembly": "    /* \"contracts/DAO.sol\":61:3809  contract DAO {... */\n  mstore(0x40, 0x80)\n    /* \"contracts/DAO.sol\":709:1003  constructor(address _owner) {... */\n  callvalue\n  dup1\n  iszero\n  tag_1\n  jumpi\n  0x00\n  dup1\n  revert\ntag_1:\n  pop\n  mload(0x40)\n  sub(codesize, bytecodeSize)\n  dup1\n  bytecodeSize\n  dup4\n  codecopy\n  dup2\n  dup2\n  add\n  0x40\n  mstore\n  dup2\n  add\n  swap1\n  tag_2\n  swap2\n  swap1\n  tag_3\n  jump\t// in\ntag_2:\n    /* \"contracts/DAO.sol\":853:859  _owner */\n  dup1\n    /* \"contracts/DAO.sol\":845:850  owner */\n  0x00\n  dup1\n    /* \"contracts/DAO.sol\":845:859  owner = _owner */\n  0x0100\n  exp\n  dup2\n  sload\n  dup2\n  0xffffffffffffffffffffffffffffffffffffffff\n  mul\n  not\n  and\n  swap1\n  dup4\n  0xffffffffffffffffffffffffffffffffffffffff\n  and\n  mul\n  or\n  swap1\n  sstore\n  pop\n    /* \"contracts/DAO.sol\":964:968  true */\n  0x01\n    /* \"contracts/DAO.sol\":946:953  members */\n  dup1\n    /* \"contracts/DAO.sol\":946:961  members[_owner] */\n  0x00\n    /* \"contracts/DAO.sol\":954:960  _owner */\n  dup4\n    /* \"contracts/DAO.sol\":946:961  members[_owner] */\n  0xffffffffffffffffffffffffffffffffffffffff\n  and\n  0xffffffffffffffffffffffffffffffffffffffff\n  and\n  dup2\n  mstore\n  0x20\n  add\n  swap1\n  dup2\n  mstore\n  0x20\n  add\n  0x00\n  keccak256\n  0x00\n    /* \"contracts/DAO.sol\":946:968  members[_owner] = true */\n  0x0100\n  exp\n  dup2\n  sload\n  dup2\n  0xff\n  mul\n  not\n  and\n  swap1\n  dup4\n  iszero\n  iszero\n  mul\n  or\n  swap1\n  sstore\n  pop\n    /* \"contracts/DAO.sol\":994:995  1 */\n  0x01\n    /* \"contracts/DAO.sol\":979:990  memberCount */\n  0x02\n  0x00\n    /* \"contracts/DAO.sol\":979:995  memberCount += 1 */\n  dup3\n  dup3\n  sload\n  tag_6\n  swap2\n  swap1\n  tag_7\n  jump\t// in\ntag_6:\n  swap3\n  pop\n  pop\n  dup2\n  swap1\n  sstore\n  pop\n    /* \"contracts/DAO.sol\":709:1003  constructor(address _owner) {... */\n  pop\n    /* \"contracts/DAO.sol\":61:3809  contract DAO {... */\n  jump(tag_8)\n    /* \"#utility.yul\":88:205   */\ntag_10:\n    /* \"#utility.yul\":197:198   */\n  0x00\n    /* \"#utility.yul\":194:195   */\n  dup1\n    /* \"#utility.yul\":187:199   */\n  revert\n    /* \"#utility.yul\":334:460   */\ntag_12:\n    /* \"#utility.yul\":371:378   */\n  0x00\n    /* \"#utility.yul\":411:453   */\n  0xffffffffffffffffffffffffffffffffffffffff\n    /* \"#utility.yul\":404:409   */\n  dup3\n    /* \"#utility.yul\":400:454   */\n  and\n    /* \"#utility.yul\":389:454   */\n  swap1\n  pop\n    /* \"#utility.yul\":334:460   */\n  swap2\n  swap1\n  pop\n  jump\t// out\n    /* \"#utility.yul\":466:562   */\ntag_13:\n    /* \"#utility.yul\":503:510   */\n  0x00\n    /* \"#utility.yul\":532:556   */\n  tag_24\n    /* \"#utility.yul\":550:555   */\n  dup3\n    /* \"#utility.yul\":532:556   */\n  tag_12\n  jump\t// in\ntag_24:\n    /* \"#utility.yul\":521:556   */\n  swap1\n  pop\n    /* \"#utility.yul\":466:562   */\n  swap2\n  swap1\n  pop\n  jump\t// out\n    /* \"#utility.yul\":568:690   */\ntag_14:\n    /* \"#utility.yul\":641:665   */\n  tag_26\n    /* \"#utility.yul\":659:664   */\n  dup2\n    /* \"#utility.yul\":641:665   */\n  tag_13\n  jump\t// in\ntag_26:\n    /* \"#utility.yul\":634:639   */\n  dup2\n    /* \"#utility.yul\":631:666   */\n  eq\n    /* \"#utility.yul\":621:684   */\n  tag_27\n  jumpi\n    /* \"#utility.yul\":680:681   */\n  0x00\n    /* \"#utility.yul\":677:678   */\n  dup1\n    /* \"#utility.yul\":670:682   */\n  revert\n    /* \"#utility.yul\":621:684   */\ntag_27:\n    /* \"#utility.yul\":568:690   */\n  pop\n  jump\t// out\n    /* \"#utility.yul\":696:839   */\ntag_15:\n    /* \"#utility.yul\":753:758   */\n  0x00\n    /* \"#utility.yul\":784:790   */\n  dup2\n    /* \"#utility.yul\":778:791   */\n  mload\n    /* \"#utility.yul\":769:791   */\n  swap1\n  pop\n    /* \"#utility.yul\":800:833   */\n  tag_29\n    /* \"#utility.yul\":827:832   */\n  dup2\n    /* \"#utility.yul\":800:833   */\n  tag_14\n  jump\t// in\ntag_29:\n    /* \"#utility.yul\":696:839   */\n  swap3\n  swap2\n  pop\n  pop\n  jump\t// out\n    /* \"#utility.yul\":845:1196   */\ntag_3:\n    /* \"#utility.yul\":915:921   */\n  0x00\n    /* \"#utility.yul\":964:966   */\n  0x20\n    /* \"#utility.yul\":952:961   */\n  dup3\n    /* \"#utility.yul\":943:950   */\n  dup5\n    /* \"#utility.yul\":939:962   */\n  sub\n    /* \"#utility.yul\":935:967   */\n  slt\n    /* \"#utility.yul\":932:1051   */\n  iszero\n  tag_31\n  jumpi\n    /* \"#utility.yul\":970:1049   */\n  tag_32\n  tag_10\n  jump\t// in\ntag_32:\n    /* \"#utility.yul\":932:1051   */\ntag_31:\n    /* \"#utility.yul\":1090:1091   */\n  0x00\n    /* \"#utility.yul\":1115:1179   */\n  tag_33\n    /* \"#utility.yul\":1171:1178   */\n  dup5\n    /* \"#utility.yul\":1162:1168   */\n  dup3\n    /* \"#utility.yul\":1151:1160   */\n  dup6\n    /* \"#utility.yul\":1147:1169   */\n  add\n    /* \"#utility.yul\":1115:1179   */\n  tag_15\n  jump\t// in\ntag_33:\n    /* \"#utility.yul\":1105:1179   */\n  swap2\n  pop\n    /* \"#utility.yul\":1061:1189   */\n  pop\n    /* \"#utility.yul\":845:1196   */\n  swap3\n  swap2\n  pop\n  pop\n  jump\t// out\n    /* \"#utility.yul\":1202:1279   */\ntag_16:\n    /* \"#utility.yul\":1239:1246   */\n  0x00\n    /* \"#utility.yul\":1268:1273   */\n  dup2\n    /* \"#utility.yul\":1257:1273   */\n  swap1\n  pop\n    /* \"#utility.yul\":1202:1279   */\n  swap2\n  swap1\n  pop\n  jump\t// out\n    /* \"#utility.yul\":1285:1465   */\ntag_17:\n    /* \"#utility.yul\":1333:1410   */\n  0x4e487b7100000000000000000000000000000000000000000000000000000000\n    /* \"#utility.yul\":1330:1331   */\n  0x00\n    /* \"#utility.yul\":1323:1411   */\n  mstore\n    /* \"#utility.yul\":1430:1434   */\n  0x11\n    /* \"#utility.yul\":1427:1428   */\n  0x04\n    /* \"#utility.yul\":1420:1435   */\n  mstore\n    /* \"#utility.yul\":1454:1458   */\n  0x24\n    /* \"#utility.yul\":1451:1452   */\n  0x00\n    /* \"#utility.yul\":1444:1459   */\n  revert\n    /* \"#utility.yul\":1471:1662   */\ntag_7:\n    /* \"#utility.yul\":1511:1514   */\n  0x00\n    /* \"#utility.yul\":1530:1550   */\n  tag_37\n    /* \"#utility.yul\":1548:1549   */\n  dup3\n    /* \"#utility.yul\":1530:1550   */\n  tag_16\n  jump\t// in\ntag_37:\n    /* \"#utility.yul\":1525:1550   */\n  swap2\n  pop\n    /* \"#utility.yul\":1564:1584   */\n  tag_38\n    /* \"#utility.yul\":1582:1583   */\n  dup4\n    /* \"#utility.yul\":1564:1584   */\n  tag_16\n  jump\t// in\ntag_38:\n    /* \"#utility.yul\":1559:1584   */\n  swap3\n  pop\n    /* \"#utility.yul\":1607:1608   */\n  dup3\n    /* \"#utility.yul\":1604:1605   */\n  dup3\n    /* \"#utility.yul\":1600:1609   */\n  add\n    /* \"#utility.yul\":1593:1609   */\n  swap1\n  pop\n    /* \"#utility.yul\":1628:1631   */\n  dup1\n    /* \"#utility.yul\":1625:1626   */\n  dup3\n    /* \"#utility.yul\":1622:1632   */\n  gt\n    /* \"#utility.yul\":1619:1655   */\n  iszero\n  tag_39\n  jumpi\n    /* \"#utility.yul\":1635:1653   */\n  tag_40\n  tag_17\n  jump\t// in\ntag_40:\n    /* \"#utility.yul\":1619:1655   */\ntag_39:\n    /* \"#utility.yul\":1471:1662   */\n  swap3\n  swap2\n  pop\n  pop\n  jump\t// out\n    /* \"contracts/DAO.sol\":61:3809  contract DAO {... */\ntag_8:\n  dataSize(sub_0)\n  dup1\n  dataOffset(sub_0)\n  0x00\n  codecopy\n  0x00\n  return\nstop\n\nsub_0: assembly {\n        /* \"contracts/DAO.sol\":61:3809  contract DAO {... */\n      mstore(0x40, 0x80)\n      callvalue\n      dup1\n      iszero\n      tag_1\n      jumpi\n      0x00\n      dup1\n      revert\n    tag_1:\n      pop\n      jumpi(tag_2, lt(calldatasize, 0x04))\n      shr(0xe0, calldataload(0x00))\n      dup1\n      0x0121b93f\n      eq\n      tag_3\n      jumpi\n      dup1\n      0x013cf08b\n      eq\n      tag_4\n      jumpi\n      dup1\n      0x3f220524\n      eq\n      tag_5\n      jumpi\n      dup1\n      0x44da4b34\n      eq\n      tag_6\n      jumpi\n      dup1\n      0x65e481e2\n      eq\n      tag_7\n      jumpi\n      dup1\n      0x865df0ad\n      eq\n      tag_8\n      jumpi\n    tag_2:\n      0x00\n      dup1\n      revert\n        /* \"contracts/DAO.sol\":2513:2882  function vote(uint _index) public onlyMenber alreadyVote(_index) {... */\n    tag_3:\n      tag_9\n      0x04\n      dup1\n      calldatasize\n      sub\n      dup2\n      add\n      swap1\n      tag_10\n      swap2\n      swap1\n      tag_11\n      jump\t// in\n    tag_10:\n      tag_12\n      jump\t// in\n    tag_9:\n      stop\n        /* \"contracts/DAO.sol\":564:591  Proposal[] public proposals */\n    tag_4:\n      tag_13\n      0x04\n      dup1\n      calldatasize\n      sub\n      dup2\n      add\n      swap1\n      tag_14\n      swap2\n      swap1\n      tag_11\n      jump\t// in\n    tag_14:\n      tag_15\n      jump\t// in\n    tag_13:\n      mload(0x40)\n      tag_16\n      swap6\n      swap5\n      swap4\n      swap3\n      swap2\n      swap1\n      tag_17\n      jump\t// in\n    tag_16:\n      mload(0x40)\n      dup1\n      swap2\n      sub\n      swap1\n      return\n        /* \"contracts/DAO.sol\":2982:3190  function startVote(uint _index) public onlyOwner {... */\n    tag_5:\n      tag_18\n      0x04\n      dup1\n      calldatasize\n      sub\n      dup2\n      add\n      swap1\n      tag_19\n      swap2\n      swap1\n      tag_11\n      jump\t// in\n    tag_19:\n      tag_20\n      jump\t// in\n    tag_18:\n      stop\n        /* \"contracts/DAO.sol\":1706:1888  function setghMenbers(address _address) public onlyOwner {... */\n    tag_6:\n      tag_21\n      0x04\n      dup1\n      calldatasize\n      sub\n      dup2\n      add\n      swap1\n      tag_22\n      swap2\n      swap1\n      tag_23\n      jump\t// in\n    tag_22:\n      tag_24\n      jump\t// in\n    tag_21:\n      stop\n        /* \"contracts/DAO.sol\":2079:2433  function createProposal(... */\n    tag_7:\n      tag_25\n      0x04\n      dup1\n      calldatasize\n      sub\n      dup2\n      add\n      swap1\n      tag_26\n      swap2\n      swap1\n      tag_27\n      jump\t// in\n    tag_26:\n      tag_28\n      jump\t// in\n    tag_25:\n      stop\n        /* \"contracts/DAO.sol\":3250:3806  function endVote(uint _index) public onlyOwner {... */\n    tag_8:\n      tag_29\n      0x04\n      dup1\n      calldatasize\n      sub\n      dup2\n      add\n      swap1\n      tag_30\n      swap2\n      swap1\n      tag_11\n      jump\t// in\n    tag_30:\n      tag_31\n      jump\t// in\n    tag_29:\n      stop\n        /* \"contracts/DAO.sol\":2513:2882  function vote(uint _index) public onlyMenber alreadyVote(_index) {... */\n    tag_12:\n        /* \"contracts/DAO.sol\":1417:1424  members */\n      0x01\n        /* \"contracts/DAO.sol\":1417:1436  members[msg.sender] */\n      0x00\n        /* \"contracts/DAO.sol\":1425:1435  msg.sender */\n      caller\n        /* \"contracts/DAO.sol\":1417:1436  members[msg.sender] */\n      0xffffffffffffffffffffffffffffffffffffffff\n      and\n      0xffffffffffffffffffffffffffffffffffffffff\n      and\n      dup2\n      mstore\n      0x20\n      add\n      swap1\n      dup2\n      mstore\n      0x20\n      add\n      0x00\n      keccak256\n      0x00\n      swap1\n      sload\n      swap1\n      0x0100\n      exp\n      swap1\n      div\n      0xff\n      and\n        /* \"contracts/DAO.sol\":1409:1450  require(members[msg.sender], \"no member\") */\n      tag_33\n      jumpi\n      mload(0x40)\n      0x08c379a000000000000000000000000000000000000000000000000000000000\n      dup2\n      mstore\n      0x04\n      add\n      tag_34\n      swap1\n      tag_35\n      jump\t// in\n    tag_34:\n      mload(0x40)\n      dup1\n      swap2\n      sub\n      swap1\n      revert\n    tag_33:\n        /* \"contracts/DAO.sol\":2570:2576  _index */\n      dup1\n        /* \"contracts/DAO.sol\":1619:1624  voted */\n      0x04\n        /* \"contracts/DAO.sol\":1619:1636  voted[msg.sender] */\n      0x00\n        /* \"contracts/DAO.sol\":1625:1635  msg.sender */\n      caller\n        /* \"contracts/DAO.sol\":1619:1636  voted[msg.sender] */\n      0xffffffffffffffffffffffffffffffffffffffff\n      and\n      0xffffffffffffffffffffffffffffffffffffffff\n      and\n      dup2\n      mstore\n      0x20\n      add\n      swap1\n      dup2\n      mstore\n      0x20\n      add\n      0x00\n      keccak256\n        /* \"contracts/DAO.sol\":1619:1643  voted[msg.sender][index] */\n      0x00\n        /* \"contracts/DAO.sol\":1637:1642  index */\n      dup3\n        /* \"contracts/DAO.sol\":1619:1643  voted[msg.sender][index] */\n      dup2\n      mstore\n      0x20\n      add\n      swap1\n      dup2\n      mstore\n      0x20\n      add\n      0x00\n      keccak256\n      0x00\n      swap1\n      sload\n      swap1\n      0x0100\n      exp\n      swap1\n      div\n      0xff\n      and\n        /* \"contracts/DAO.sol\":1618:1643  !voted[msg.sender][index] */\n      iszero\n        /* \"contracts/DAO.sol\":1610:1644  require(!voted[msg.sender][index]) */\n      tag_37\n      jumpi\n      0x00\n      dup1\n      revert\n    tag_37:\n        /* \"contracts/DAO.sol\":2637:2662  Proposal storage porposal */\n      0x00\n        /* \"contracts/DAO.sol\":2665:2674  proposals */\n      0x03\n        /* \"contracts/DAO.sol\":2675:2681  _index */\n      dup4\n        /* \"contracts/DAO.sol\":2665:2682  proposals[_index] */\n      dup2\n      sload\n      dup2\n      lt\n      tag_39\n      jumpi\n      tag_40\n      tag_41\n      jump\t// in\n    tag_40:\n    tag_39:\n      swap1\n      0x00\n      mstore\n      keccak256(0x00, 0x20)\n      swap1\n      0x04\n      mul\n      add\n        /* \"contracts/DAO.sol\":2637:2682  Proposal storage porposal = proposals[_index] */\n      swap1\n      pop\n        /* \"contracts/DAO.sol\":2721:2731  Play.start */\n      0x01\n        /* \"contracts/DAO.sol\":2703:2731  porposal.plays == Play.start */\n      0x02\n      dup2\n      gt\n      iszero\n      tag_43\n      jumpi\n      tag_44\n      tag_45\n      jump\t// in\n    tag_44:\n    tag_43:\n        /* \"contracts/DAO.sol\":2703:2711  porposal */\n      dup2\n        /* \"contracts/DAO.sol\":2703:2717  porposal.plays */\n      0x03\n      add\n      0x00\n      swap1\n      sload\n      swap1\n      0x0100\n      exp\n      swap1\n      div\n      0xff\n      and\n        /* \"contracts/DAO.sol\":2703:2731  porposal.plays == Play.start */\n      0x02\n      dup2\n      gt\n      iszero\n      tag_46\n      jumpi\n      tag_47\n      tag_45\n      jump\t// in\n    tag_47:\n    tag_46:\n      eq\n        /* \"contracts/DAO.sol\":2695:2732  require(porposal.plays == Play.start) */\n      tag_48\n      jumpi\n      0x00\n      dup1\n      revert\n    tag_48:\n        /* \"contracts/DAO.sol\":2796:2797  1 */\n      0x01\n        /* \"contracts/DAO.sol\":2769:2778  proposals */\n      0x03\n        /* \"contracts/DAO.sol\":2779:2785  _index */\n      dup5\n        /* \"contracts/DAO.sol\":2769:2786  proposals[_index] */\n      dup2\n      sload\n      dup2\n      lt\n      tag_49\n      jumpi\n      tag_50\n      tag_41\n      jump\t// in\n    tag_50:\n    tag_49:\n      swap1\n      0x00\n      mstore\n      keccak256(0x00, 0x20)\n      swap1\n      0x04\n      mul\n      add\n        /* \"contracts/DAO.sol\":2769:2792  proposals[_index].votes */\n      0x02\n      add\n      0x00\n        /* \"contracts/DAO.sol\":2769:2797  proposals[_index].votes += 1 */\n      dup3\n      dup3\n      sload\n      tag_52\n      swap2\n      swap1\n      tag_53\n      jump\t// in\n    tag_52:\n      swap3\n      pop\n      pop\n      dup2\n      swap1\n      sstore\n      pop\n        /* \"contracts/DAO.sol\":2870:2874  true */\n      0x01\n        /* \"contracts/DAO.sol\":2842:2847  voted */\n      0x04\n        /* \"contracts/DAO.sol\":2842:2859  voted[msg.sender] */\n      0x00\n        /* \"contracts/DAO.sol\":2848:2858  msg.sender */\n      caller\n        /* \"contracts/DAO.sol\":2842:2859  voted[msg.sender] */\n      0xffffffffffffffffffffffffffffffffffffffff\n      and\n      0xffffffffffffffffffffffffffffffffffffffff\n      and\n      dup2\n      mstore\n      0x20\n      add\n      swap1\n      dup2\n      mstore\n      0x20\n      add\n      0x00\n      keccak256\n        /* \"contracts/DAO.sol\":2842:2867  voted[msg.sender][_index] */\n      0x00\n        /* \"contracts/DAO.sol\":2860:2866  _index */\n      dup6\n        /* \"contracts/DAO.sol\":2842:2867  voted[msg.sender][_index] */\n      dup2\n      mstore\n      0x20\n      add\n      swap1\n      dup2\n      mstore\n      0x20\n      add\n      0x00\n      keccak256\n      0x00\n        /* \"contracts/DAO.sol\":2842:2874  voted[msg.sender][_index] = true */\n      0x0100\n      exp\n      dup2\n      sload\n      dup2\n      0xff\n      mul\n      not\n      and\n      swap1\n      dup4\n      iszero\n      iszero\n      mul\n      or\n      swap1\n      sstore\n      pop\n        /* \"contracts/DAO.sol\":2578:2882  {... */\n      pop\n        /* \"contracts/DAO.sol\":1461:1462  _ */\n      pop\n        /* \"contracts/DAO.sol\":2513:2882  function vote(uint _index) public onlyMenber alreadyVote(_index) {... */\n      pop\n      jump\t// out\n        /* \"contracts/DAO.sol\":564:591  Proposal[] public proposals */\n    tag_15:\n      0x03\n      dup2\n      dup2\n      sload\n      dup2\n      lt\n      tag_54\n      jumpi\n      0x00\n      dup1\n      revert\n    tag_54:\n      swap1\n      0x00\n      mstore\n      keccak256(0x00, 0x20)\n      swap1\n      0x04\n      mul\n      add\n      0x00\n      swap2\n      pop\n      swap1\n      pop\n      dup1\n      0x00\n      add\n      dup1\n      sload\n      tag_56\n      swap1\n      tag_57\n      jump\t// in\n    tag_56:\n      dup1\n      0x1f\n      add\n      0x20\n      dup1\n      swap2\n      div\n      mul\n      0x20\n      add\n      mload(0x40)\n      swap1\n      dup2\n      add\n      0x40\n      mstore\n      dup1\n      swap3\n      swap2\n      swap1\n      dup2\n      dup2\n      mstore\n      0x20\n      add\n      dup3\n      dup1\n      sload\n      tag_58\n      swap1\n      tag_57\n      jump\t// in\n    tag_58:\n      dup1\n      iszero\n      tag_59\n      jumpi\n      dup1\n      0x1f\n      lt\n      tag_60\n      jumpi\n      0x0100\n      dup1\n      dup4\n      sload\n      div\n      mul\n      dup4\n      mstore\n      swap2\n      0x20\n      add\n      swap2\n      jump(tag_59)\n    tag_60:\n      dup3\n      add\n      swap2\n      swap1\n      0x00\n      mstore\n      keccak256(0x00, 0x20)\n      swap1\n    tag_61:\n      dup2\n      sload\n      dup2\n      mstore\n      swap1\n      0x01\n      add\n      swap1\n      0x20\n      add\n      dup1\n      dup4\n      gt\n      tag_61\n      jumpi\n      dup3\n      swap1\n      sub\n      0x1f\n      and\n      dup3\n      add\n      swap2\n    tag_59:\n      pop\n      pop\n      pop\n      pop\n      pop\n      swap1\n      dup1\n      0x01\n      add\n      dup1\n      sload\n      tag_62\n      swap1\n      tag_57\n      jump\t// in\n    tag_62:\n      dup1\n      0x1f\n      add\n      0x20\n      dup1\n      swap2\n      div\n      mul\n      0x20\n      add\n      mload(0x40)\n      swap1\n      dup2\n      add\n      0x40\n      mstore\n      dup1\n      swap3\n      swap2\n      swap1\n      dup2\n      dup2\n      mstore\n      0x20\n      add\n      dup3\n      dup1\n      sload\n      tag_63\n      swap1\n      tag_57\n      jump\t// in\n    tag_63:\n      dup1\n      iszero\n      tag_64\n      jumpi\n      dup1\n      0x1f\n      lt\n      tag_65\n      jumpi\n      0x0100\n      dup1\n      dup4\n      sload\n      div\n      mul\n      dup4\n      mstore\n      swap2\n      0x20\n      add\n      swap2\n      jump(tag_64)\n    tag_65:\n      dup3\n      add\n      swap2\n      swap1\n      0x00\n      mstore\n      keccak256(0x00, 0x20)\n      swap1\n    tag_66:\n      dup2\n      sload\n      dup2\n      mstore\n      swap1\n      0x01\n      add\n      swap1\n      0x20\n      add\n      dup1\n      dup4\n      gt\n      tag_66\n      jumpi\n      dup3\n      swap1\n      sub\n      0x1f\n      and\n      dup3\n      add\n      swap2\n    tag_64:\n      pop\n      pop\n      pop\n      pop\n      pop\n      swap1\n      dup1\n      0x02\n      add\n      sload\n      swap1\n      dup1\n      0x03\n      add\n      0x00\n      swap1\n      sload\n      swap1\n      0x0100\n      exp\n      swap1\n      div\n      0xff\n      and\n      swap1\n      dup1\n      0x03\n      add\n      0x01\n      swap1\n      sload\n      swap1\n      0x0100\n      exp\n      swap1\n      div\n      0xff\n      and\n      swap1\n      pop\n      dup6\n      jump\t// out\n        /* \"contracts/DAO.sol\":2982:3190  function startVote(uint _index) public onlyOwner {... */\n    tag_20:\n        /* \"contracts/DAO.sol\":1532:1537  owner */\n      0x00\n      dup1\n      sload\n      swap1\n      0x0100\n      exp\n      swap1\n      div\n      0xffffffffffffffffffffffffffffffffffffffff\n      and\n        /* \"contracts/DAO.sol\":1518:1537  msg.sender == owner */\n      0xffffffffffffffffffffffffffffffffffffffff\n      and\n        /* \"contracts/DAO.sol\":1518:1528  msg.sender */\n      caller\n        /* \"contracts/DAO.sol\":1518:1537  msg.sender == owner */\n      0xffffffffffffffffffffffffffffffffffffffff\n      and\n      eq\n        /* \"contracts/DAO.sol\":1510:1538  require(msg.sender == owner) */\n      tag_68\n      jumpi\n      0x00\n      dup1\n      revert\n    tag_68:\n        /* \"contracts/DAO.sol\":3090:3115  Proposal storage porposal */\n      0x00\n        /* \"contracts/DAO.sol\":3118:3127  proposals */\n      0x03\n        /* \"contracts/DAO.sol\":3128:3134  _index */\n      dup3\n        /* \"contracts/DAO.sol\":3118:3135  proposals[_index] */\n      dup2\n      sload\n      dup2\n      lt\n      tag_70\n      jumpi\n      tag_71\n      tag_41\n      jump\t// in\n    tag_71:\n    tag_70:\n      swap1\n      0x00\n      mstore\n      keccak256(0x00, 0x20)\n      swap1\n      0x04\n      mul\n      add\n        /* \"contracts/DAO.sol\":3090:3135  Proposal storage porposal = proposals[_index] */\n      swap1\n      pop\n        /* \"contracts/DAO.sol\":3172:3182  Play.start */\n      0x01\n        /* \"contracts/DAO.sol\":3146:3155  proposals */\n      0x03\n        /* \"contracts/DAO.sol\":3156:3162  _index */\n      dup4\n        /* \"contracts/DAO.sol\":3146:3163  proposals[_index] */\n      dup2\n      sload\n      dup2\n      lt\n      tag_73\n      jumpi\n      tag_74\n      tag_41\n      jump\t// in\n    tag_74:\n    tag_73:\n      swap1\n      0x00\n      mstore\n      keccak256(0x00, 0x20)\n      swap1\n      0x04\n      mul\n      add\n        /* \"contracts/DAO.sol\":3146:3169  proposals[_index].plays */\n      0x03\n      add\n      0x00\n        /* \"contracts/DAO.sol\":3146:3182  proposals[_index].plays = Play.start */\n      0x0100\n      exp\n      dup2\n      sload\n      dup2\n      0xff\n      mul\n      not\n      and\n      swap1\n      dup4\n      0x02\n      dup2\n      gt\n      iszero\n      tag_76\n      jumpi\n      tag_77\n      tag_45\n      jump\t// in\n    tag_77:\n    tag_76:\n      mul\n      or\n      swap1\n      sstore\n      pop\n        /* \"contracts/DAO.sol\":3031:3190  {... */\n      pop\n        /* \"contracts/DAO.sol\":2982:3190  function startVote(uint _index) public onlyOwner {... */\n      pop\n      jump\t// out\n        /* \"contracts/DAO.sol\":1706:1888  function setghMenbers(address _address) public onlyOwner {... */\n    tag_24:\n        /* \"contracts/DAO.sol\":1532:1537  owner */\n      0x00\n      dup1\n      sload\n      swap1\n      0x0100\n      exp\n      swap1\n      div\n      0xffffffffffffffffffffffffffffffffffffffff\n      and\n        /* \"contracts/DAO.sol\":1518:1537  msg.sender == owner */\n      0xffffffffffffffffffffffffffffffffffffffff\n      and\n        /* \"contracts/DAO.sol\":1518:1528  msg.sender */\n      caller\n        /* \"contracts/DAO.sol\":1518:1537  msg.sender == owner */\n      0xffffffffffffffffffffffffffffffffffffffff\n      and\n      eq\n        /* \"contracts/DAO.sol\":1510:1538  require(msg.sender == owner) */\n      tag_79\n      jumpi\n      0x00\n      dup1\n      revert\n    tag_79:\n        /* \"contracts/DAO.sol\":1823:1827  true */\n      0x01\n        /* \"contracts/DAO.sol\":1803:1810  members */\n      dup1\n        /* \"contracts/DAO.sol\":1803:1820  members[_address] */\n      0x00\n        /* \"contracts/DAO.sol\":1811:1819  _address */\n      dup4\n        /* \"contracts/DAO.sol\":1803:1820  members[_address] */\n      0xffffffffffffffffffffffffffffffffffffffff\n      and\n      0xffffffffffffffffffffffffffffffffffffffff\n      and\n      dup2\n      mstore\n      0x20\n      add\n      swap1\n      dup2\n      mstore\n      0x20\n      add\n      0x00\n      keccak256\n      0x00\n        /* \"contracts/DAO.sol\":1803:1827  members[_address] = true */\n      0x0100\n      exp\n      dup2\n      sload\n      dup2\n      0xff\n      mul\n      not\n      and\n      swap1\n      dup4\n      iszero\n      iszero\n      mul\n      or\n      swap1\n      sstore\n      pop\n        /* \"contracts/DAO.sol\":1879:1880  1 */\n      0x01\n        /* \"contracts/DAO.sol\":1864:1875  memberCount */\n      0x02\n      0x00\n        /* \"contracts/DAO.sol\":1864:1880  memberCount += 1 */\n      dup3\n      dup3\n      sload\n      tag_81\n      swap2\n      swap1\n      tag_53\n      jump\t// in\n    tag_81:\n      swap3\n      pop\n      pop\n      dup2\n      swap1\n      sstore\n      pop\n        /* \"contracts/DAO.sol\":1706:1888  function setghMenbers(address _address) public onlyOwner {... */\n      pop\n      jump\t// out\n        /* \"contracts/DAO.sol\":2079:2433  function createProposal(... */\n    tag_28:\n        /* \"contracts/DAO.sol\":1417:1424  members */\n      0x01\n        /* \"contracts/DAO.sol\":1417:1436  members[msg.sender] */\n      0x00\n        /* \"contracts/DAO.sol\":1425:1435  msg.sender */\n      caller\n        /* \"contracts/DAO.sol\":1417:1436  members[msg.sender] */\n      0xffffffffffffffffffffffffffffffffffffffff\n      and\n      0xffffffffffffffffffffffffffffffffffffffff\n      and\n      dup2\n      mstore\n      0x20\n      add\n      swap1\n      dup2\n      mstore\n      0x20\n      add\n      0x00\n      keccak256\n      0x00\n      swap1\n      sload\n      swap1\n      0x0100\n      exp\n      swap1\n      div\n      0xff\n      and\n        /* \"contracts/DAO.sol\":1409:1450  require(members[msg.sender], \"no member\") */\n      tag_83\n      jumpi\n      mload(0x40)\n      0x08c379a000000000000000000000000000000000000000000000000000000000\n      dup2\n      mstore\n      0x04\n      add\n      tag_84\n      swap1\n      tag_35\n      jump\t// in\n    tag_84:\n      mload(0x40)\n      dup1\n      swap2\n      sub\n      swap1\n      revert\n    tag_83:\n        /* \"contracts/DAO.sol\":2200:2209  proposals */\n      0x03\n        /* \"contracts/DAO.sol\":2229:2414  Proposal({... */\n      mload(0x40)\n      dup1\n      0xa0\n      add\n      0x40\n      mstore\n      dup1\n        /* \"contracts/DAO.sol\":2264:2270  _title */\n      dup5\n        /* \"contracts/DAO.sol\":2229:2414  Proposal({... */\n      dup2\n      mstore\n      0x20\n      add\n        /* \"contracts/DAO.sol\":2295:2300  _text */\n      dup4\n        /* \"contracts/DAO.sol\":2229:2414  Proposal({... */\n      dup2\n      mstore\n      0x20\n      add\n        /* \"contracts/DAO.sol\":2326:2327  0 */\n      0x00\n        /* \"contracts/DAO.sol\":2229:2414  Proposal({... */\n      dup2\n      mstore\n      0x20\n      add\n        /* \"contracts/DAO.sol\":2353:2365  Play.loading */\n      0x00\n        /* \"contracts/DAO.sol\":2229:2414  Proposal({... */\n      0x02\n      dup2\n      gt\n      iszero\n      tag_86\n      jumpi\n      tag_87\n      tag_45\n      jump\t// in\n    tag_87:\n    tag_86:\n      dup2\n      mstore\n      0x20\n      add\n        /* \"contracts/DAO.sol\":2393:2398  false */\n      0x00\n        /* \"contracts/DAO.sol\":2229:2414  Proposal({... */\n      iszero\n      iszero\n      dup2\n      mstore\n      pop\n        /* \"contracts/DAO.sol\":2200:2425  proposals.push(... */\n      swap1\n      dup1\n      0x01\n      dup2\n      sload\n      add\n      dup1\n      dup3\n      sstore\n      dup1\n      swap2\n      pop\n      pop\n      0x01\n      swap1\n      sub\n      swap1\n      0x00\n      mstore\n      keccak256(0x00, 0x20)\n      swap1\n      0x04\n      mul\n      add\n      0x00\n      swap1\n      swap2\n      swap1\n      swap2\n      swap1\n      swap2\n      pop\n      0x00\n      dup3\n      add\n      mload\n      dup2\n      0x00\n      add\n      swap1\n      dup2\n      tag_89\n      swap2\n      swap1\n      tag_90\n      jump\t// in\n    tag_89:\n      pop\n      0x20\n      dup3\n      add\n      mload\n      dup2\n      0x01\n      add\n      swap1\n      dup2\n      tag_91\n      swap2\n      swap1\n      tag_90\n      jump\t// in\n    tag_91:\n      pop\n      0x40\n      dup3\n      add\n      mload\n      dup2\n      0x02\n      add\n      sstore\n      0x60\n      dup3\n      add\n      mload\n      dup2\n      0x03\n      add\n      exp(0x0100, 0x00)\n      dup2\n      sload\n      dup2\n      0xff\n      mul\n      not\n      and\n      swap1\n      dup4\n      0x02\n      dup2\n      gt\n      iszero\n      tag_92\n      jumpi\n      tag_93\n      tag_45\n      jump\t// in\n    tag_93:\n    tag_92:\n      mul\n      or\n      swap1\n      sstore\n      pop\n      0x80\n      dup3\n      add\n      mload\n      dup2\n      0x03\n      add\n      exp(0x0100, 0x01)\n      dup2\n      sload\n      dup2\n      0xff\n      mul\n      not\n      and\n      swap1\n      dup4\n      iszero\n      iszero\n      mul\n      or\n      swap1\n      sstore\n      pop\n      pop\n      pop\n        /* \"contracts/DAO.sol\":2079:2433  function createProposal(... */\n      pop\n      pop\n      jump\t// out\n        /* \"contracts/DAO.sol\":3250:3806  function endVote(uint _index) public onlyOwner {... */\n    tag_31:\n        /* \"contracts/DAO.sol\":1532:1537  owner */\n      0x00\n      dup1\n      sload\n      swap1\n      0x0100\n      exp\n      swap1\n      div\n      0xffffffffffffffffffffffffffffffffffffffff\n      and\n        /* \"contracts/DAO.sol\":1518:1537  msg.sender == owner */\n      0xffffffffffffffffffffffffffffffffffffffff\n      and\n        /* \"contracts/DAO.sol\":1518:1528  msg.sender */\n      caller\n        /* \"contracts/DAO.sol\":1518:1537  msg.sender == owner */\n      0xffffffffffffffffffffffffffffffffffffffff\n      and\n      eq\n        /* \"contracts/DAO.sol\":1510:1538  require(msg.sender == owner) */\n      tag_95\n      jumpi\n      0x00\n      dup1\n      revert\n    tag_95:\n        /* \"contracts/DAO.sol\":3356:3382  Proposal storage _porposal */\n      0x00\n        /* \"contracts/DAO.sol\":3385:3394  proposals */\n      0x03\n        /* \"contracts/DAO.sol\":3395:3401  _index */\n      dup3\n        /* \"contracts/DAO.sol\":3385:3402  proposals[_index] */\n      dup2\n      sload\n      dup2\n      lt\n      tag_97\n      jumpi\n      tag_98\n      tag_41\n      jump\t// in\n    tag_98:\n    tag_97:\n      swap1\n      0x00\n      mstore\n      keccak256(0x00, 0x20)\n      swap1\n      0x04\n      mul\n      add\n        /* \"contracts/DAO.sol\":3356:3402  Proposal storage _porposal = proposals[_index] */\n      swap1\n      pop\n        /* \"contracts/DAO.sol\":3440:3450  Play.start */\n      0x01\n        /* \"contracts/DAO.sol\":3421:3450  _porposal.plays == Play.start */\n      0x02\n      dup2\n      gt\n      iszero\n      tag_100\n      jumpi\n      tag_101\n      tag_45\n      jump\t// in\n    tag_101:\n    tag_100:\n        /* \"contracts/DAO.sol\":3421:3430  _porposal */\n      dup2\n        /* \"contracts/DAO.sol\":3421:3436  _porposal.plays */\n      0x03\n      add\n      0x00\n      swap1\n      sload\n      swap1\n      0x0100\n      exp\n      swap1\n      div\n      0xff\n      and\n        /* \"contracts/DAO.sol\":3421:3450  _porposal.plays == Play.start */\n      0x02\n      dup2\n      gt\n      iszero\n      tag_102\n      jumpi\n      tag_103\n      tag_45\n      jump\t// in\n    tag_103:\n    tag_102:\n      eq\n        /* \"contracts/DAO.sol\":3413:3451  require(_porposal.plays == Play.start) */\n      tag_104\n      jumpi\n      0x00\n      dup1\n      revert\n    tag_104:\n        /* \"contracts/DAO.sol\":3592:3593  2 */\n      0x02\n        /* \"contracts/DAO.sol\":3578:3589  memberCount */\n      dup1\n      sload\n        /* \"contracts/DAO.sol\":3578:3593  memberCount / 2 */\n      tag_105\n      swap2\n      swap1\n      tag_106\n      jump\t// in\n    tag_105:\n        /* \"contracts/DAO.sol\":3560:3569  _porposal */\n      dup2\n        /* \"contracts/DAO.sol\":3560:3575  _porposal.votes */\n      0x02\n      add\n      sload\n        /* \"contracts/DAO.sol\":3560:3593  _porposal.votes > memberCount / 2 */\n      gt\n        /* \"contracts/DAO.sol\":3552:3594  require(_porposal.votes > memberCount / 2) */\n      tag_107\n      jumpi\n      0x00\n      dup1\n      revert\n    tag_107:\n        /* \"contracts/DAO.sol\":3749:3753  true */\n      0x01\n        /* \"contracts/DAO.sol\":3721:3730  proposals */\n      0x03\n        /* \"contracts/DAO.sol\":3731:3737  _index */\n      dup4\n        /* \"contracts/DAO.sol\":3721:3738  proposals[_index] */\n      dup2\n      sload\n      dup2\n      lt\n      tag_108\n      jumpi\n      tag_109\n      tag_41\n      jump\t// in\n    tag_109:\n    tag_108:\n      swap1\n      0x00\n      mstore\n      keccak256(0x00, 0x20)\n      swap1\n      0x04\n      mul\n      add\n        /* \"contracts/DAO.sol\":3721:3746  proposals[_index].execute */\n      0x03\n      add\n      0x01\n        /* \"contracts/DAO.sol\":3721:3753  proposals[_index].execute = true */\n      0x0100\n      exp\n      dup2\n      sload\n      dup2\n      0xff\n      mul\n      not\n      and\n      swap1\n      dup4\n      iszero\n      iszero\n      mul\n      or\n      swap1\n      sstore\n      pop\n        /* \"contracts/DAO.sol\":3790:3798  Play.end */\n      0x02\n        /* \"contracts/DAO.sol\":3764:3773  proposals */\n      0x03\n        /* \"contracts/DAO.sol\":3774:3780  _index */\n      dup4\n        /* \"contracts/DAO.sol\":3764:3781  proposals[_index] */\n      dup2\n      sload\n      dup2\n      lt\n      tag_111\n      jumpi\n      tag_112\n      tag_41\n      jump\t// in\n    tag_112:\n    tag_111:\n      swap1\n      0x00\n      mstore\n      keccak256(0x00, 0x20)\n      swap1\n      0x04\n      mul\n      add\n        /* \"contracts/DAO.sol\":3764:3787  proposals[_index].plays */\n      0x03\n      add\n      0x00\n        /* \"contracts/DAO.sol\":3764:3798  proposals[_index].plays = Play.end */\n      0x0100\n      exp\n      dup2\n      sload\n      dup2\n      0xff\n      mul\n      not\n      and\n      swap1\n      dup4\n      0x02\n      dup2\n      gt\n      iszero\n      tag_114\n      jumpi\n      tag_115\n      tag_45\n      jump\t// in\n    tag_115:\n    tag_114:\n      mul\n      or\n      swap1\n      sstore\n      pop\n        /* \"contracts/DAO.sol\":3297:3806  {... */\n      pop\n        /* \"contracts/DAO.sol\":3250:3806  function endVote(uint _index) public onlyOwner {... */\n      pop\n      jump\t// out\n        /* \"#utility.yul\":7:82   */\n    tag_116:\n        /* \"#utility.yul\":40:46   */\n      0x00\n        /* \"#utility.yul\":73:75   */\n      0x40\n        /* \"#utility.yul\":67:76   */\n      mload\n        /* \"#utility.yul\":57:76   */\n      swap1\n      pop\n        /* \"#utility.yul\":7:82   */\n      swap1\n      jump\t// out\n        /* \"#utility.yul\":88:205   */\n    tag_117:\n        /* \"#utility.yul\":197:198   */\n      0x00\n        /* \"#utility.yul\":194:195   */\n      dup1\n        /* \"#utility.yul\":187:199   */\n      revert\n        /* \"#utility.yul\":211:328   */\n    tag_118:\n        /* \"#utility.yul\":320:321   */\n      0x00\n        /* \"#utility.yul\":317:318   */\n      dup1\n        /* \"#utility.yul\":310:322   */\n      revert\n        /* \"#utility.yul\":334:411   */\n    tag_119:\n        /* \"#utility.yul\":371:378   */\n      0x00\n        /* \"#utility.yul\":400:405   */\n      dup2\n        /* \"#utility.yul\":389:405   */\n      swap1\n      pop\n        /* \"#utility.yul\":334:411   */\n      swap2\n      swap1\n      pop\n      jump\t// out\n        /* \"#utility.yul\":417:539   */\n    tag_120:\n        /* \"#utility.yul\":490:514   */\n      tag_173\n        /* \"#utility.yul\":508:513   */\n      dup2\n        /* \"#utility.yul\":490:514   */\n      tag_119\n      jump\t// in\n    tag_173:\n        /* \"#utility.yul\":483:488   */\n      dup2\n        /* \"#utility.yul\":480:515   */\n      eq\n        /* \"#utility.yul\":470:533   */\n      tag_174\n      jumpi\n        /* \"#utility.yul\":529:530   */\n      0x00\n        /* \"#utility.yul\":526:527   */\n      dup1\n        /* \"#utility.yul\":519:531   */\n      revert\n        /* \"#utility.yul\":470:533   */\n    tag_174:\n        /* \"#utility.yul\":417:539   */\n      pop\n      jump\t// out\n        /* \"#utility.yul\":545:684   */\n    tag_121:\n        /* \"#utility.yul\":591:596   */\n      0x00\n        /* \"#utility.yul\":629:635   */\n      dup2\n        /* \"#utility.yul\":616:636   */\n      calldataload\n        /* \"#utility.yul\":607:636   */\n      swap1\n      pop\n        /* \"#utility.yul\":645:678   */\n      tag_176\n        /* \"#utility.yul\":672:677   */\n      dup2\n        /* \"#utility.yul\":645:678   */\n      tag_120\n      jump\t// in\n    tag_176:\n        /* \"#utility.yul\":545:684   */\n      swap3\n      swap2\n      pop\n      pop\n      jump\t// out\n        /* \"#utility.yul\":690:1019   */\n    tag_11:\n        /* \"#utility.yul\":749:755   */\n      0x00\n        /* \"#utility.yul\":798:800   */\n      0x20\n        /* \"#utility.yul\":786:795   */\n      dup3\n        /* \"#utility.yul\":777:784   */\n      dup5\n        /* \"#utility.yul\":773:796   */\n      sub\n        /* \"#utility.yul\":769:801   */\n      slt\n        /* \"#utility.yul\":766:885   */\n      iszero\n      tag_178\n      jumpi\n        /* \"#utility.yul\":804:883   */\n      tag_179\n      tag_117\n      jump\t// in\n    tag_179:\n        /* \"#utility.yul\":766:885   */\n    tag_178:\n        /* \"#utility.yul\":924:925   */\n      0x00\n        /* \"#utility.yul\":949:1002   */\n      tag_180\n        /* \"#utility.yul\":994:1001   */\n      dup5\n        /* \"#utility.yul\":985:991   */\n      dup3\n        /* \"#utility.yul\":974:983   */\n      dup6\n        /* \"#utility.yul\":970:992   */\n      add\n        /* \"#utility.yul\":949:1002   */\n      tag_121\n      jump\t// in\n    tag_180:\n        /* \"#utility.yul\":939:1002   */\n      swap2\n      pop\n        /* \"#utility.yul\":895:1012   */\n      pop\n        /* \"#utility.yul\":690:1019   */\n      swap3\n      swap2\n      pop\n      pop\n      jump\t// out\n        /* \"#utility.yul\":1025:1124   */\n    tag_122:\n        /* \"#utility.yul\":1077:1083   */\n      0x00\n        /* \"#utility.yul\":1111:1116   */\n      dup2\n        /* \"#utility.yul\":1105:1117   */\n      mload\n        /* \"#utility.yul\":1095:1117   */\n      swap1\n      pop\n        /* \"#utility.yul\":1025:1124   */\n      swap2\n      swap1\n      pop\n      jump\t// out\n        /* \"#utility.yul\":1130:1299   */\n    tag_123:\n        /* \"#utility.yul\":1214:1225   */\n      0x00\n        /* \"#utility.yul\":1248:1254   */\n      dup3\n        /* \"#utility.yul\":1243:1246   */\n      dup3\n        /* \"#utility.yul\":1236:1255   */\n      mstore\n        /* \"#utility.yul\":1288:1292   */\n      0x20\n        /* \"#utility.yul\":1283:1286   */\n      dup3\n        /* \"#utility.yul\":1279:1293   */\n      add\n        /* \"#utility.yul\":1264:1293   */\n      swap1\n      pop\n        /* \"#utility.yul\":1130:1299   */\n      swap3\n      swap2\n      pop\n      pop\n      jump\t// out\n        /* \"#utility.yul\":1305:1551   */\n    tag_124:\n        /* \"#utility.yul\":1386:1387   */\n      0x00\n        /* \"#utility.yul\":1396:1509   */\n    tag_184:\n        /* \"#utility.yul\":1410:1416   */\n      dup4\n        /* \"#utility.yul\":1407:1408   */\n      dup2\n        /* \"#utility.yul\":1404:1417   */\n      lt\n        /* \"#utility.yul\":1396:1509   */\n      iszero\n      tag_186\n      jumpi\n        /* \"#utility.yul\":1495:1496   */\n      dup1\n        /* \"#utility.yul\":1490:1493   */\n      dup3\n        /* \"#utility.yul\":1486:1497   */\n      add\n        /* \"#utility.yul\":1480:1498   */\n      mload\n        /* \"#utility.yul\":1476:1477   */\n      dup2\n        /* \"#utility.yul\":1471:1474   */\n      dup5\n        /* \"#utility.yul\":1467:1478   */\n      add\n        /* \"#utility.yul\":1460:1499   */\n      mstore\n        /* \"#utility.yul\":1432:1434   */\n      0x20\n        /* \"#utility.yul\":1429:1430   */\n      dup2\n        /* \"#utility.yul\":1425:1435   */\n      add\n        /* \"#utility.yul\":1420:1435   */\n      swap1\n      pop\n        /* \"#utility.yul\":1396:1509   */\n      jump(tag_184)\n    tag_186:\n        /* \"#utility.yul\":1543:1544   */\n      0x00\n        /* \"#utility.yul\":1534:1540   */\n      dup5\n        /* \"#utility.yul\":1529:1532   */\n      dup5\n        /* \"#utility.yul\":1525:1541   */\n      add\n        /* \"#utility.yul\":1518:1545   */\n      mstore\n        /* \"#utility.yul\":1367:1551   */\n      pop\n        /* \"#utility.yul\":1305:1551   */\n      pop\n      pop\n      pop\n      jump\t// out\n        /* \"#utility.yul\":1557:1659   */\n    tag_125:\n        /* \"#utility.yul\":1598:1604   */\n      0x00\n        /* \"#utility.yul\":1649:1651   */\n      0x1f\n        /* \"#utility.yul\":1645:1652   */\n      not\n        /* \"#utility.yul\":1640:1642   */\n      0x1f\n        /* \"#utility.yul\":1633:1638   */\n      dup4\n        /* \"#utility.yul\":1629:1643   */\n      add\n        /* \"#utility.yul\":1625:1653   */\n      and\n        /* \"#utility.yul\":1615:1653   */\n      swap1\n      pop\n        /* \"#utility.yul\":1557:1659   */\n      swap2\n      swap1\n      pop\n      jump\t// out\n        /* \"#utility.yul\":1665:2042   */\n    tag_126:\n        /* \"#utility.yul\":1753:1756   */\n      0x00\n        /* \"#utility.yul\":1781:1820   */\n      tag_189\n        /* \"#utility.yul\":1814:1819   */\n      dup3\n        /* \"#utility.yul\":1781:1820   */\n      tag_122\n      jump\t// in\n    tag_189:\n        /* \"#utility.yul\":1836:1907   */\n      tag_190\n        /* \"#utility.yul\":1900:1906   */\n      dup2\n        /* \"#utility.yul\":1895:1898   */\n      dup6\n        /* \"#utility.yul\":1836:1907   */\n      tag_123\n      jump\t// in\n    tag_190:\n        /* \"#utility.yul\":1829:1907   */\n      swap4\n      pop\n        /* \"#utility.yul\":1916:1981   */\n      tag_191\n        /* \"#utility.yul\":1974:1980   */\n      dup2\n        /* \"#utility.yul\":1969:1972   */\n      dup6\n        /* \"#utility.yul\":1962:1966   */\n      0x20\n        /* \"#utility.yul\":1955:1960   */\n      dup7\n        /* \"#utility.yul\":1951:1967   */\n      add\n        /* \"#utility.yul\":1916:1981   */\n      tag_124\n      jump\t// in\n    tag_191:\n        /* \"#utility.yul\":2006:2035   */\n      tag_192\n        /* \"#utility.yul\":2028:2034   */\n      dup2\n        /* \"#utility.yul\":2006:2035   */\n      tag_125\n      jump\t// in\n    tag_192:\n        /* \"#utility.yul\":2001:2004   */\n      dup5\n        /* \"#utility.yul\":1997:2036   */\n      add\n        /* \"#utility.yul\":1990:2036   */\n      swap2\n      pop\n        /* \"#utility.yul\":1757:2042   */\n      pop\n        /* \"#utility.yul\":1665:2042   */\n      swap3\n      swap2\n      pop\n      pop\n      jump\t// out\n        /* \"#utility.yul\":2048:2166   */\n    tag_127:\n        /* \"#utility.yul\":2135:2159   */\n      tag_194\n        /* \"#utility.yul\":2153:2158   */\n      dup2\n        /* \"#utility.yul\":2135:2159   */\n      tag_119\n      jump\t// in\n    tag_194:\n        /* \"#utility.yul\":2130:2133   */\n      dup3\n        /* \"#utility.yul\":2123:2160   */\n      mstore\n        /* \"#utility.yul\":2048:2166   */\n      pop\n      pop\n      jump\t// out\n        /* \"#utility.yul\":2172:2352   */\n    tag_45:\n        /* \"#utility.yul\":2220:2297   */\n      0x4e487b7100000000000000000000000000000000000000000000000000000000\n        /* \"#utility.yul\":2217:2218   */\n      0x00\n        /* \"#utility.yul\":2210:2298   */\n      mstore\n        /* \"#utility.yul\":2317:2321   */\n      0x21\n        /* \"#utility.yul\":2314:2315   */\n      0x04\n        /* \"#utility.yul\":2307:2322   */\n      mstore\n        /* \"#utility.yul\":2341:2345   */\n      0x24\n        /* \"#utility.yul\":2338:2339   */\n      0x00\n        /* \"#utility.yul\":2331:2346   */\n      revert\n        /* \"#utility.yul\":2358:2470   */\n    tag_128:\n        /* \"#utility.yul\":2438:2439   */\n      0x03\n        /* \"#utility.yul\":2431:2436   */\n      dup2\n        /* \"#utility.yul\":2428:2440   */\n      lt\n        /* \"#utility.yul\":2418:2464   */\n      tag_197\n      jumpi\n        /* \"#utility.yul\":2444:2462   */\n      tag_198\n      tag_45\n      jump\t// in\n    tag_198:\n        /* \"#utility.yul\":2418:2464   */\n    tag_197:\n        /* \"#utility.yul\":2358:2470   */\n      pop\n      jump\t// out\n        /* \"#utility.yul\":2476:2601   */\n    tag_129:\n        /* \"#utility.yul\":2520:2527   */\n      0x00\n        /* \"#utility.yul\":2549:2554   */\n      dup2\n        /* \"#utility.yul\":2538:2554   */\n      swap1\n      pop\n        /* \"#utility.yul\":2555:2595   */\n      tag_200\n        /* \"#utility.yul\":2589:2594   */\n      dup3\n        /* \"#utility.yul\":2555:2595   */\n      tag_128\n      jump\t// in\n    tag_200:\n        /* \"#utility.yul\":2476:2601   */\n      swap2\n      swap1\n      pop\n      jump\t// out\n        /* \"#utility.yul\":2607:2732   */\n    tag_130:\n        /* \"#utility.yul\":2662:2671   */\n      0x00\n        /* \"#utility.yul\":2695:2726   */\n      tag_202\n        /* \"#utility.yul\":2720:2725   */\n      dup3\n        /* \"#utility.yul\":2695:2726   */\n      tag_129\n      jump\t// in\n    tag_202:\n        /* \"#utility.yul\":2682:2726   */\n      swap1\n      pop\n        /* \"#utility.yul\":2607:2732   */\n      swap2\n      swap1\n      pop\n      jump\t// out\n        /* \"#utility.yul\":2738:2879   */\n    tag_131:\n        /* \"#utility.yul\":2830:2872   */\n      tag_204\n        /* \"#utility.yul\":2866:2871   */\n      dup2\n        /* \"#utility.yul\":2830:2872   */\n      tag_130\n      jump\t// in\n    tag_204:\n        /* \"#utility.yul\":2825:2828   */\n      dup3\n        /* \"#utility.yul\":2818:2873   */\n      mstore\n        /* \"#utility.yul\":2738:2879   */\n      pop\n      pop\n      jump\t// out\n        /* \"#utility.yul\":2885:2975   */\n    tag_132:\n        /* \"#utility.yul\":2919:2926   */\n      0x00\n        /* \"#utility.yul\":2962:2967   */\n      dup2\n        /* \"#utility.yul\":2955:2968   */\n      iszero\n        /* \"#utility.yul\":2948:2969   */\n      iszero\n        /* \"#utility.yul\":2937:2969   */\n      swap1\n      pop\n        /* \"#utility.yul\":2885:2975   */\n      swap2\n      swap1\n      pop\n      jump\t// out\n        /* \"#utility.yul\":2981:3090   */\n    tag_133:\n        /* \"#utility.yul\":3062:3083   */\n      tag_207\n        /* \"#utility.yul\":3077:3082   */\n      dup2\n        /* \"#utility.yul\":3062:3083   */\n      tag_132\n      jump\t// in\n    tag_207:\n        /* \"#utility.yul\":3057:3060   */\n      dup3\n        /* \"#utility.yul\":3050:3084   */\n      mstore\n        /* \"#utility.yul\":2981:3090   */\n      pop\n      pop\n      jump\t// out\n        /* \"#utility.yul\":3096:3940   */\n    tag_17:\n        /* \"#utility.yul\":3340:3344   */\n      0x00\n        /* \"#utility.yul\":3378:3381   */\n      0xa0\n        /* \"#utility.yul\":3367:3376   */\n      dup3\n        /* \"#utility.yul\":3363:3382   */\n      add\n        /* \"#utility.yul\":3355:3382   */\n      swap1\n      pop\n        /* \"#utility.yul\":3428:3437   */\n      dup2\n        /* \"#utility.yul\":3422:3426   */\n      dup2\n        /* \"#utility.yul\":3418:3438   */\n      sub\n        /* \"#utility.yul\":3414:3415   */\n      0x00\n        /* \"#utility.yul\":3403:3412   */\n      dup4\n        /* \"#utility.yul\":3399:3416   */\n      add\n        /* \"#utility.yul\":3392:3439   */\n      mstore\n        /* \"#utility.yul\":3456:3534   */\n      tag_209\n        /* \"#utility.yul\":3529:3533   */\n      dup2\n        /* \"#utility.yul\":3520:3526   */\n      dup9\n        /* \"#utility.yul\":3456:3534   */\n      tag_126\n      jump\t// in\n    tag_209:\n        /* \"#utility.yul\":3448:3534   */\n      swap1\n      pop\n        /* \"#utility.yul\":3581:3590   */\n      dup2\n        /* \"#utility.yul\":3575:3579   */\n      dup2\n        /* \"#utility.yul\":3571:3591   */\n      sub\n        /* \"#utility.yul\":3566:3568   */\n      0x20\n        /* \"#utility.yul\":3555:3564   */\n      dup4\n        /* \"#utility.yul\":3551:3569   */\n      add\n        /* \"#utility.yul\":3544:3592   */\n      mstore\n        /* \"#utility.yul\":3609:3687   */\n      tag_210\n        /* \"#utility.yul\":3682:3686   */\n      dup2\n        /* \"#utility.yul\":3673:3679   */\n      dup8\n        /* \"#utility.yul\":3609:3687   */\n      tag_126\n      jump\t// in\n    tag_210:\n        /* \"#utility.yul\":3601:3687   */\n      swap1\n      pop\n        /* \"#utility.yul\":3697:3769   */\n      tag_211\n        /* \"#utility.yul\":3765:3767   */\n      0x40\n        /* \"#utility.yul\":3754:3763   */\n      dup4\n        /* \"#utility.yul\":3750:3768   */\n      add\n        /* \"#utility.yul\":3741:3747   */\n      dup7\n        /* \"#utility.yul\":3697:3769   */\n      tag_127\n      jump\t// in\n    tag_211:\n        /* \"#utility.yul\":3779:3856   */\n      tag_212\n        /* \"#utility.yul\":3852:3854   */\n      0x60\n        /* \"#utility.yul\":3841:3850   */\n      dup4\n        /* \"#utility.yul\":3837:3855   */\n      add\n        /* \"#utility.yul\":3828:3834   */\n      dup6\n        /* \"#utility.yul\":3779:3856   */\n      tag_131\n      jump\t// in\n    tag_212:\n        /* \"#utility.yul\":3866:3933   */\n      tag_213\n        /* \"#utility.yul\":3928:3931   */\n      0x80\n        /* \"#utility.yul\":3917:3926   */\n      dup4\n        /* \"#utility.yul\":3913:3932   */\n      add\n        /* \"#utility.yul\":3904:3910   */\n      dup5\n        /* \"#utility.yul\":3866:3933   */\n      tag_133\n      jump\t// in\n    tag_213:\n        /* \"#utility.yul\":3096:3940   */\n      swap7\n      swap6\n      pop\n      pop\n      pop\n      pop\n      pop\n      pop\n      jump\t// out\n        /* \"#utility.yul\":3946:4072   */\n    tag_134:\n        /* \"#utility.yul\":3983:3990   */\n      0x00\n        /* \"#utility.yul\":4023:4065   */\n      0xffffffffffffffffffffffffffffffffffffffff\n        /* \"#utility.yul\":4016:4021   */\n      dup3\n        /* \"#utility.yul\":4012:4066   */\n      and\n        /* \"#utility.yul\":4001:4066   */\n      swap1\n      pop\n        /* \"#utility.yul\":3946:4072   */\n      swap2\n      swap1\n      pop\n      jump\t// out\n        /* \"#utility.yul\":4078:4174   */\n    tag_135:\n        /* \"#utility.yul\":4115:4122   */\n      0x00\n        /* \"#utility.yul\":4144:4168   */\n      tag_216\n        /* \"#utility.yul\":4162:4167   */\n      dup3\n        /* \"#utility.yul\":4144:4168   */\n      tag_134\n      jump\t// in\n    tag_216:\n        /* \"#utility.yul\":4133:4168   */\n      swap1\n      pop\n        /* \"#utility.yul\":4078:4174   */\n      swap2\n      swap1\n      pop\n      jump\t// out\n        /* \"#utility.yul\":4180:4302   */\n    tag_136:\n        /* \"#utility.yul\":4253:4277   */\n      tag_218\n        /* \"#utility.yul\":4271:4276   */\n      dup2\n        /* \"#utility.yul\":4253:4277   */\n      tag_135\n      jump\t// in\n    tag_218:\n        /* \"#utility.yul\":4246:4251   */\n      dup2\n        /* \"#utility.yul\":4243:4278   */\n      eq\n        /* \"#utility.yul\":4233:4296   */\n      tag_219\n      jumpi\n        /* \"#utility.yul\":4292:4293   */\n      0x00\n        /* \"#utility.yul\":4289:4290   */\n      dup1\n        /* \"#utility.yul\":4282:4294   */\n      revert\n        /* \"#utility.yul\":4233:4296   */\n    tag_219:\n        /* \"#utility.yul\":4180:4302   */\n      pop\n      jump\t// out\n        /* \"#utility.yul\":4308:4447   */\n    tag_137:\n        /* \"#utility.yul\":4354:4359   */\n      0x00\n        /* \"#utility.yul\":4392:4398   */\n      dup2\n        /* \"#utility.yul\":4379:4399   */\n      calldataload\n        /* \"#utility.yul\":4370:4399   */\n      swap1\n      pop\n        /* \"#utility.yul\":4408:4441   */\n      tag_221\n        /* \"#utility.yul\":4435:4440   */\n      dup2\n        /* \"#utility.yul\":4408:4441   */\n      tag_136\n      jump\t// in\n    tag_221:\n        /* \"#utility.yul\":4308:4447   */\n      swap3\n      swap2\n      pop\n      pop\n      jump\t// out\n        /* \"#utility.yul\":4453:4782   */\n    tag_23:\n        /* \"#utility.yul\":4512:4518   */\n      0x00\n        /* \"#utility.yul\":4561:4563   */\n      0x20\n        /* \"#utility.yul\":4549:4558   */\n      dup3\n        /* \"#utility.yul\":4540:4547   */\n      dup5\n        /* \"#utility.yul\":4536:4559   */\n      sub\n        /* \"#utility.yul\":4532:4564   */\n      slt\n        /* \"#utility.yul\":4529:4648   */\n      iszero\n      tag_223\n      jumpi\n        /* \"#utility.yul\":4567:4646   */\n      tag_224\n      tag_117\n      jump\t// in\n    tag_224:\n        /* \"#utility.yul\":4529:4648   */\n    tag_223:\n        /* \"#utility.yul\":4687:4688   */\n      0x00\n        /* \"#utility.yul\":4712:4765   */\n      tag_225\n        /* \"#utility.yul\":4757:4764   */\n      dup5\n        /* \"#utility.yul\":4748:4754   */\n      dup3\n        /* \"#utility.yul\":4737:4746   */\n      dup6\n        /* \"#utility.yul\":4733:4755   */\n      add\n        /* \"#utility.yul\":4712:4765   */\n      tag_137\n      jump\t// in\n    tag_225:\n        /* \"#utility.yul\":4702:4765   */\n      swap2\n      pop\n        /* \"#utility.yul\":4658:4775   */\n      pop\n        /* \"#utility.yul\":4453:4782   */\n      swap3\n      swap2\n      pop\n      pop\n      jump\t// out\n        /* \"#utility.yul\":4788:4905   */\n    tag_138:\n        /* \"#utility.yul\":4897:4898   */\n      0x00\n        /* \"#utility.yul\":4894:4895   */\n      dup1\n        /* \"#utility.yul\":4887:4899   */\n      revert\n        /* \"#utility.yul\":4911:5028   */\n    tag_139:\n        /* \"#utility.yul\":5020:5021   */\n      0x00\n        /* \"#utility.yul\":5017:5018   */\n      dup1\n        /* \"#utility.yul\":5010:5022   */\n      revert\n        /* \"#utility.yul\":5034:5214   */\n    tag_140:\n        /* \"#utility.yul\":5082:5159   */\n      0x4e487b7100000000000000000000000000000000000000000000000000000000\n        /* \"#utility.yul\":5079:5080   */\n      0x00\n        /* \"#utility.yul\":5072:5160   */\n      mstore\n        /* \"#utility.yul\":5179:5183   */\n      0x41\n        /* \"#utility.yul\":5176:5177   */\n      0x04\n        /* \"#utility.yul\":5169:5184   */\n      mstore\n        /* \"#utility.yul\":5203:5207   */\n      0x24\n        /* \"#utility.yul\":5200:5201   */\n      0x00\n        /* \"#utility.yul\":5193:5208   */\n      revert\n        /* \"#utility.yul\":5220:5501   */\n    tag_141:\n        /* \"#utility.yul\":5303:5330   */\n      tag_230\n        /* \"#utility.yul\":5325:5329   */\n      dup3\n        /* \"#utility.yul\":5303:5330   */\n      tag_125\n      jump\t// in\n    tag_230:\n        /* \"#utility.yul\":5295:5301   */\n      dup2\n        /* \"#utility.yul\":5291:5331   */\n      add\n        /* \"#utility.yul\":5433:5439   */\n      dup2\n        /* \"#utility.yul\":5421:5431   */\n      dup2\n        /* \"#utility.yul\":5418:5440   */\n      lt\n        /* \"#utility.yul\":5397:5415   */\n      0xffffffffffffffff\n        /* \"#utility.yul\":5385:5395   */\n      dup3\n        /* \"#utility.yul\":5382:5416   */\n      gt\n        /* \"#utility.yul\":5379:5441   */\n      or\n        /* \"#utility.yul\":5376:5464   */\n      iszero\n      tag_231\n      jumpi\n        /* \"#utility.yul\":5444:5462   */\n      tag_232\n      tag_140\n      jump\t// in\n    tag_232:\n        /* \"#utility.yul\":5376:5464   */\n    tag_231:\n        /* \"#utility.yul\":5484:5494   */\n      dup1\n        /* \"#utility.yul\":5480:5482   */\n      0x40\n        /* \"#utility.yul\":5473:5495   */\n      mstore\n        /* \"#utility.yul\":5263:5501   */\n      pop\n        /* \"#utility.yul\":5220:5501   */\n      pop\n      pop\n      jump\t// out\n        /* \"#utility.yul\":5507:5636   */\n    tag_142:\n        /* \"#utility.yul\":5541:5547   */\n      0x00\n        /* \"#utility.yul\":5568:5588   */\n      tag_234\n      tag_116\n      jump\t// in\n    tag_234:\n        /* \"#utility.yul\":5558:5588   */\n      swap1\n      pop\n        /* \"#utility.yul\":5597:5630   */\n      tag_235\n        /* \"#utility.yul\":5625:5629   */\n      dup3\n        /* \"#utility.yul\":5617:5623   */\n      dup3\n        /* \"#utility.yul\":5597:5630   */\n      tag_141\n      jump\t// in\n    tag_235:\n        /* \"#utility.yul\":5507:5636   */\n      swap2\n      swap1\n      pop\n      jump\t// out\n        /* \"#utility.yul\":5642:5950   */\n    tag_143:\n        /* \"#utility.yul\":5704:5708   */\n      0x00\n        /* \"#utility.yul\":5794:5812   */\n      0xffffffffffffffff\n        /* \"#utility.yul\":5786:5792   */\n      dup3\n        /* \"#utility.yul\":5783:5813   */\n      gt\n        /* \"#utility.yul\":5780:5836   */\n      iszero\n      tag_237\n      jumpi\n        /* \"#utility.yul\":5816:5834   */\n      tag_238\n      tag_140\n      jump\t// in\n    tag_238:\n        /* \"#utility.yul\":5780:5836   */\n    tag_237:\n        /* \"#utility.yul\":5854:5883   */\n      tag_239\n        /* \"#utility.yul\":5876:5882   */\n      dup3\n        /* \"#utility.yul\":5854:5883   */\n      tag_125\n      jump\t// in\n    tag_239:\n        /* \"#utility.yul\":5846:5883   */\n      swap1\n      pop\n        /* \"#utility.yul\":5938:5942   */\n      0x20\n        /* \"#utility.yul\":5932:5936   */\n      dup2\n        /* \"#utility.yul\":5928:5943   */\n      add\n        /* \"#utility.yul\":5920:5943   */\n      swap1\n      pop\n        /* \"#utility.yul\":5642:5950   */\n      swap2\n      swap1\n      pop\n      jump\t// out\n        /* \"#utility.yul\":5956:6102   */\n    tag_144:\n        /* \"#utility.yul\":6053:6059   */\n      dup3\n        /* \"#utility.yul\":6048:6051   */\n      dup2\n        /* \"#utility.yul\":6043:6046   */\n      dup4\n        /* \"#utility.yul\":6030:6060   */\n      calldatacopy\n        /* \"#utility.yul\":6094:6095   */\n      0x00\n        /* \"#utility.yul\":6085:6091   */\n      dup4\n        /* \"#utility.yul\":6080:6083   */\n      dup4\n        /* \"#utility.yul\":6076:6092   */\n      add\n        /* \"#utility.yul\":6069:6096   */\n      mstore\n        /* \"#utility.yul\":5956:6102   */\n      pop\n      pop\n      pop\n      jump\t// out\n        /* \"#utility.yul\":6108:6533   */\n    tag_145:\n        /* \"#utility.yul\":6186:6191   */\n      0x00\n        /* \"#utility.yul\":6211:6277   */\n      tag_242\n        /* \"#utility.yul\":6227:6276   */\n      tag_243\n        /* \"#utility.yul\":6269:6275   */\n      dup5\n        /* \"#utility.yul\":6227:6276   */\n      tag_143\n      jump\t// in\n    tag_243:\n        /* \"#utility.yul\":6211:6277   */\n      tag_142\n      jump\t// in\n    tag_242:\n        /* \"#utility.yul\":6202:6277   */\n      swap1\n      pop\n        /* \"#utility.yul\":6300:6306   */\n      dup3\n        /* \"#utility.yul\":6293:6298   */\n      dup2\n        /* \"#utility.yul\":6286:6307   */\n      mstore\n        /* \"#utility.yul\":6338:6342   */\n      0x20\n        /* \"#utility.yul\":6331:6336   */\n      dup2\n        /* \"#utility.yul\":6327:6343   */\n      add\n        /* \"#utility.yul\":6376:6379   */\n      dup5\n        /* \"#utility.yul\":6367:6373   */\n      dup5\n        /* \"#utility.yul\":6362:6365   */\n      dup5\n        /* \"#utility.yul\":6358:6374   */\n      add\n        /* \"#utility.yul\":6355:6380   */\n      gt\n        /* \"#utility.yul\":6352:6464   */\n      iszero\n      tag_244\n      jumpi\n        /* \"#utility.yul\":6383:6462   */\n      tag_245\n      tag_139\n      jump\t// in\n    tag_245:\n        /* \"#utility.yul\":6352:6464   */\n    tag_244:\n        /* \"#utility.yul\":6473:6527   */\n      tag_246\n        /* \"#utility.yul\":6520:6526   */\n      dup5\n        /* \"#utility.yul\":6515:6518   */\n      dup3\n        /* \"#utility.yul\":6510:6513   */\n      dup6\n        /* \"#utility.yul\":6473:6527   */\n      tag_144\n      jump\t// in\n    tag_246:\n        /* \"#utility.yul\":6192:6533   */\n      pop\n        /* \"#utility.yul\":6108:6533   */\n      swap4\n      swap3\n      pop\n      pop\n      pop\n      jump\t// out\n        /* \"#utility.yul\":6553:6893   */\n    tag_146:\n        /* \"#utility.yul\":6609:6614   */\n      0x00\n        /* \"#utility.yul\":6658:6661   */\n      dup3\n        /* \"#utility.yul\":6651:6655   */\n      0x1f\n        /* \"#utility.yul\":6643:6649   */\n      dup4\n        /* \"#utility.yul\":6639:6656   */\n      add\n        /* \"#utility.yul\":6635:6662   */\n      slt\n        /* \"#utility.yul\":6625:6747   */\n      tag_248\n      jumpi\n        /* \"#utility.yul\":6666:6745   */\n      tag_249\n      tag_138\n      jump\t// in\n    tag_249:\n        /* \"#utility.yul\":6625:6747   */\n    tag_248:\n        /* \"#utility.yul\":6783:6789   */\n      dup2\n        /* \"#utility.yul\":6770:6790   */\n      calldataload\n        /* \"#utility.yul\":6808:6887   */\n      tag_250\n        /* \"#utility.yul\":6883:6886   */\n      dup5\n        /* \"#utility.yul\":6875:6881   */\n      dup3\n        /* \"#utility.yul\":6868:6872   */\n      0x20\n        /* \"#utility.yul\":6860:6866   */\n      dup7\n        /* \"#utility.yul\":6856:6873   */\n      add\n        /* \"#utility.yul\":6808:6887   */\n      tag_145\n      jump\t// in\n    tag_250:\n        /* \"#utility.yul\":6799:6887   */\n      swap2\n      pop\n        /* \"#utility.yul\":6615:6893   */\n      pop\n        /* \"#utility.yul\":6553:6893   */\n      swap3\n      swap2\n      pop\n      pop\n      jump\t// out\n        /* \"#utility.yul\":6899:7733   */\n    tag_27:\n        /* \"#utility.yul\":6987:6993   */\n      0x00\n        /* \"#utility.yul\":6995:7001   */\n      dup1\n        /* \"#utility.yul\":7044:7046   */\n      0x40\n        /* \"#utility.yul\":7032:7041   */\n      dup4\n        /* \"#utility.yul\":7023:7030   */\n      dup6\n        /* \"#utility.yul\":7019:7042   */\n      sub\n        /* \"#utility.yul\":7015:7047   */\n      slt\n        /* \"#utility.yul\":7012:7131   */\n      iszero\n      tag_252\n      jumpi\n        /* \"#utility.yul\":7050:7129   */\n      tag_253\n      tag_117\n      jump\t// in\n    tag_253:\n        /* \"#utility.yul\":7012:7131   */\n    tag_252:\n        /* \"#utility.yul\":7198:7199   */\n      0x00\n        /* \"#utility.yul\":7187:7196   */\n      dup4\n        /* \"#utility.yul\":7183:7200   */\n      add\n        /* \"#utility.yul\":7170:7201   */\n      calldataload\n        /* \"#utility.yul\":7228:7246   */\n      0xffffffffffffffff\n        /* \"#utility.yul\":7220:7226   */\n      dup2\n        /* \"#utility.yul\":7217:7247   */\n      gt\n        /* \"#utility.yul\":7214:7331   */\n      iszero\n      tag_254\n      jumpi\n        /* \"#utility.yul\":7250:7329   */\n      tag_255\n      tag_118\n      jump\t// in\n    tag_255:\n        /* \"#utility.yul\":7214:7331   */\n    tag_254:\n        /* \"#utility.yul\":7355:7418   */\n      tag_256\n        /* \"#utility.yul\":7410:7417   */\n      dup6\n        /* \"#utility.yul\":7401:7407   */\n      dup3\n        /* \"#utility.yul\":7390:7399   */\n      dup7\n        /* \"#utility.yul\":7386:7408   */\n      add\n        /* \"#utility.yul\":7355:7418   */\n      tag_146\n      jump\t// in\n    tag_256:\n        /* \"#utility.yul\":7345:7418   */\n      swap3\n      pop\n        /* \"#utility.yul\":7141:7428   */\n      pop\n        /* \"#utility.yul\":7495:7497   */\n      0x20\n        /* \"#utility.yul\":7484:7493   */\n      dup4\n        /* \"#utility.yul\":7480:7498   */\n      add\n        /* \"#utility.yul\":7467:7499   */\n      calldataload\n        /* \"#utility.yul\":7526:7544   */\n      0xffffffffffffffff\n        /* \"#utility.yul\":7518:7524   */\n      dup2\n        /* \"#utility.yul\":7515:7545   */\n      gt\n        /* \"#utility.yul\":7512:7629   */\n      iszero\n      tag_257\n      jumpi\n        /* \"#utility.yul\":7548:7627   */\n      tag_258\n      tag_118\n      jump\t// in\n    tag_258:\n        /* \"#utility.yul\":7512:7629   */\n    tag_257:\n        /* \"#utility.yul\":7653:7716   */\n      tag_259\n        /* \"#utility.yul\":7708:7715   */\n      dup6\n        /* \"#utility.yul\":7699:7705   */\n      dup3\n        /* \"#utility.yul\":7688:7697   */\n      dup7\n        /* \"#utility.yul\":7684:7706   */\n      add\n        /* \"#utility.yul\":7653:7716   */\n      tag_146\n      jump\t// in\n    tag_259:\n        /* \"#utility.yul\":7643:7716   */\n      swap2\n      pop\n        /* \"#utility.yul\":7438:7726   */\n      pop\n        /* \"#utility.yul\":6899:7733   */\n      swap3\n      pop\n      swap3\n      swap1\n      pop\n      jump\t// out\n        /* \"#utility.yul\":7739:7898   */\n    tag_147:\n        /* \"#utility.yul\":7879:7890   */\n      0x6e6f206d656d6265720000000000000000000000000000000000000000000000\n        /* \"#utility.yul\":7875:7876   */\n      0x00\n        /* \"#utility.yul\":7867:7873   */\n      dup3\n        /* \"#utility.yul\":7863:7877   */\n      add\n        /* \"#utility.yul\":7856:7891   */\n      mstore\n        /* \"#utility.yul\":7739:7898   */\n      pop\n      jump\t// out\n        /* \"#utility.yul\":7904:8269   */\n    tag_148:\n        /* \"#utility.yul\":8046:8049   */\n      0x00\n        /* \"#utility.yul\":8067:8133   */\n      tag_262\n        /* \"#utility.yul\":8131:8132   */\n      0x09\n        /* \"#utility.yul\":8126:8129   */\n      dup4\n        /* \"#utility.yul\":8067:8133   */\n      tag_123\n      jump\t// in\n    tag_262:\n        /* \"#utility.yul\":8060:8133   */\n      swap2\n      pop\n        /* \"#utility.yul\":8142:8235   */\n      tag_263\n        /* \"#utility.yul\":8231:8234   */\n      dup3\n        /* \"#utility.yul\":8142:8235   */\n      tag_147\n      jump\t// in\n    tag_263:\n        /* \"#utility.yul\":8260:8262   */\n      0x20\n        /* \"#utility.yul\":8255:8258   */\n      dup3\n        /* \"#utility.yul\":8251:8263   */\n      add\n        /* \"#utility.yul\":8244:8263   */\n      swap1\n      pop\n        /* \"#utility.yul\":7904:8269   */\n      swap2\n      swap1\n      pop\n      jump\t// out\n        /* \"#utility.yul\":8275:8694   */\n    tag_35:\n        /* \"#utility.yul\":8441:8445   */\n      0x00\n        /* \"#utility.yul\":8479:8481   */\n      0x20\n        /* \"#utility.yul\":8468:8477   */\n      dup3\n        /* \"#utility.yul\":8464:8482   */\n      add\n        /* \"#utility.yul\":8456:8482   */\n      swap1\n      pop\n        /* \"#utility.yul\":8528:8537   */\n      dup2\n        /* \"#utility.yul\":8522:8526   */\n      dup2\n        /* \"#utility.yul\":8518:8538   */\n      sub\n        /* \"#utility.yul\":8514:8515   */\n      0x00\n        /* \"#utility.yul\":8503:8512   */\n      dup4\n        /* \"#utility.yul\":8499:8516   */\n      add\n        /* \"#utility.yul\":8492:8539   */\n      mstore\n        /* \"#utility.yul\":8556:8687   */\n      tag_265\n        /* \"#utility.yul\":8682:8686   */\n      dup2\n        /* \"#utility.yul\":8556:8687   */\n      tag_148\n      jump\t// in\n    tag_265:\n        /* \"#utility.yul\":8548:8687   */\n      swap1\n      pop\n        /* \"#utility.yul\":8275:8694   */\n      swap2\n      swap1\n      pop\n      jump\t// out\n        /* \"#utility.yul\":8700:8880   */\n    tag_41:\n        /* \"#utility.yul\":8748:8825   */\n      0x4e487b7100000000000000000000000000000000000000000000000000000000\n        /* \"#utility.yul\":8745:8746   */\n      0x00\n        /* \"#utility.yul\":8738:8826   */\n      mstore\n        /* \"#utility.yul\":8845:8849   */\n      0x32\n        /* \"#utility.yul\":8842:8843   */\n      0x04\n        /* \"#utility.yul\":8835:8850   */\n      mstore\n        /* \"#utility.yul\":8869:8873   */\n      0x24\n        /* \"#utility.yul\":8866:8867   */\n      0x00\n        /* \"#utility.yul\":8859:8874   */\n      revert\n        /* \"#utility.yul\":8886:9066   */\n    tag_149:\n        /* \"#utility.yul\":8934:9011   */\n      0x4e487b7100000000000000000000000000000000000000000000000000000000\n        /* \"#utility.yul\":8931:8932   */\n      0x00\n        /* \"#utility.yul\":8924:9012   */\n      mstore\n        /* \"#utility.yul\":9031:9035   */\n      0x11\n        /* \"#utility.yul\":9028:9029   */\n      0x04\n        /* \"#utility.yul\":9021:9036   */\n      mstore\n        /* \"#utility.yul\":9055:9059   */\n      0x24\n        /* \"#utility.yul\":9052:9053   */\n      0x00\n        /* \"#utility.yul\":9045:9060   */\n      revert\n        /* \"#utility.yul\":9072:9263   */\n    tag_53:\n        /* \"#utility.yul\":9112:9115   */\n      0x00\n        /* \"#utility.yul\":9131:9151   */\n      tag_269\n        /* \"#utility.yul\":9149:9150   */\n      dup3\n        /* \"#utility.yul\":9131:9151   */\n      tag_119\n      jump\t// in\n    tag_269:\n        /* \"#utility.yul\":9126:9151   */\n      swap2\n      pop\n        /* \"#utility.yul\":9165:9185   */\n      tag_270\n        /* \"#utility.yul\":9183:9184   */\n      dup4\n        /* \"#utility.yul\":9165:9185   */\n      tag_119\n      jump\t// in\n    tag_270:\n        /* \"#utility.yul\":9160:9185   */\n      swap3\n      pop\n        /* \"#utility.yul\":9208:9209   */\n      dup3\n        /* \"#utility.yul\":9205:9206   */\n      dup3\n        /* \"#utility.yul\":9201:9210   */\n      add\n        /* \"#utility.yul\":9194:9210   */\n      swap1\n      pop\n        /* \"#utility.yul\":9229:9232   */\n      dup1\n        /* \"#utility.yul\":9226:9227   */\n      dup3\n        /* \"#utility.yul\":9223:9233   */\n      gt\n        /* \"#utility.yul\":9220:9256   */\n      iszero\n      tag_271\n      jumpi\n        /* \"#utility.yul\":9236:9254   */\n      tag_272\n      tag_149\n      jump\t// in\n    tag_272:\n        /* \"#utility.yul\":9220:9256   */\n    tag_271:\n        /* \"#utility.yul\":9072:9263   */\n      swap3\n      swap2\n      pop\n      pop\n      jump\t// out\n        /* \"#utility.yul\":9269:9449   */\n    tag_150:\n        /* \"#utility.yul\":9317:9394   */\n      0x4e487b7100000000000000000000000000000000000000000000000000000000\n        /* \"#utility.yul\":9314:9315   */\n      0x00\n        /* \"#utility.yul\":9307:9395   */\n      mstore\n        /* \"#utility.yul\":9414:9418   */\n      0x22\n        /* \"#utility.yul\":9411:9412   */\n      0x04\n        /* \"#utility.yul\":9404:9419   */\n      mstore\n        /* \"#utility.yul\":9438:9442   */\n      0x24\n        /* \"#utility.yul\":9435:9436   */\n      0x00\n        /* \"#utility.yul\":9428:9443   */\n      revert\n        /* \"#utility.yul\":9455:9775   */\n    tag_57:\n        /* \"#utility.yul\":9499:9505   */\n      0x00\n        /* \"#utility.yul\":9536:9537   */\n      0x02\n        /* \"#utility.yul\":9530:9534   */\n      dup3\n        /* \"#utility.yul\":9526:9538   */\n      div\n        /* \"#utility.yul\":9516:9538   */\n      swap1\n      pop\n        /* \"#utility.yul\":9583:9584   */\n      0x01\n        /* \"#utility.yul\":9577:9581   */\n      dup3\n        /* \"#utility.yul\":9573:9585   */\n      and\n        /* \"#utility.yul\":9604:9622   */\n      dup1\n        /* \"#utility.yul\":9594:9675   */\n      tag_275\n      jumpi\n        /* \"#utility.yul\":9660:9664   */\n      0x7f\n        /* \"#utility.yul\":9652:9658   */\n      dup3\n        /* \"#utility.yul\":9648:9665   */\n      and\n        /* \"#utility.yul\":9638:9665   */\n      swap2\n      pop\n        /* \"#utility.yul\":9594:9675   */\n    tag_275:\n        /* \"#utility.yul\":9722:9724   */\n      0x20\n        /* \"#utility.yul\":9714:9720   */\n      dup3\n        /* \"#utility.yul\":9711:9725   */\n      lt\n        /* \"#utility.yul\":9691:9709   */\n      dup2\n        /* \"#utility.yul\":9688:9726   */\n      sub\n        /* \"#utility.yul\":9685:9769   */\n      tag_276\n      jumpi\n        /* \"#utility.yul\":9741:9759   */\n      tag_277\n      tag_150\n      jump\t// in\n    tag_277:\n        /* \"#utility.yul\":9685:9769   */\n    tag_276:\n        /* \"#utility.yul\":9506:9775   */\n      pop\n        /* \"#utility.yul\":9455:9775   */\n      swap2\n      swap1\n      pop\n      jump\t// out\n        /* \"#utility.yul\":9781:9922   */\n    tag_151:\n        /* \"#utility.yul\":9830:9834   */\n      0x00\n        /* \"#utility.yul\":9853:9856   */\n      dup2\n        /* \"#utility.yul\":9845:9856   */\n      swap1\n      pop\n        /* \"#utility.yul\":9876:9879   */\n      dup2\n        /* \"#utility.yul\":9873:9874   */\n      0x00\n        /* \"#utility.yul\":9866:9880   */\n      mstore\n        /* \"#utility.yul\":9910:9914   */\n      0x20\n        /* \"#utility.yul\":9907:9908   */\n      0x00\n        /* \"#utility.yul\":9897:9915   */\n      keccak256\n        /* \"#utility.yul\":9889:9915   */\n      swap1\n      pop\n        /* \"#utility.yul\":9781:9922   */\n      swap2\n      swap1\n      pop\n      jump\t// out\n        /* \"#utility.yul\":9928:10021   */\n    tag_152:\n        /* \"#utility.yul\":9965:9971   */\n      0x00\n        /* \"#utility.yul\":10012:10014   */\n      0x20\n        /* \"#utility.yul\":10007:10009   */\n      0x1f\n        /* \"#utility.yul\":10000:10005   */\n      dup4\n        /* \"#utility.yul\":9996:10010   */\n      add\n        /* \"#utility.yul\":9992:10015   */\n      div\n        /* \"#utility.yul\":9982:10015   */\n      swap1\n      pop\n        /* \"#utility.yul\":9928:10021   */\n      swap2\n      swap1\n      pop\n      jump\t// out\n        /* \"#utility.yul\":10027:10134   */\n    tag_153:\n        /* \"#utility.yul\":10071:10079   */\n      0x00\n        /* \"#utility.yul\":10121:10126   */\n      dup3\n        /* \"#utility.yul\":10115:10119   */\n      dup3\n        /* \"#utility.yul\":10111:10127   */\n      shl\n        /* \"#utility.yul\":10090:10127   */\n      swap1\n      pop\n        /* \"#utility.yul\":10027:10134   */\n      swap3\n      swap2\n      pop\n      pop\n      jump\t// out\n        /* \"#utility.yul\":10140:10533   */\n    tag_154:\n        /* \"#utility.yul\":10209:10215   */\n      0x00\n        /* \"#utility.yul\":10259:10260   */\n      0x08\n        /* \"#utility.yul\":10247:10257   */\n      dup4\n        /* \"#utility.yul\":10243:10261   */\n      mul\n        /* \"#utility.yul\":10282:10379   */\n      tag_282\n        /* \"#utility.yul\":10312:10378   */\n      0xffffffffffffffffffffffffffffffffffffffffffffffffffffffffffffffff\n        /* \"#utility.yul\":10301:10310   */\n      dup3\n        /* \"#utility.yul\":10282:10379   */\n      tag_153\n      jump\t// in\n    tag_282:\n        /* \"#utility.yul\":10400:10439   */\n      tag_283\n        /* \"#utility.yul\":10430:10438   */\n      dup7\n        /* \"#utility.yul\":10419:10428   */\n      dup4\n        /* \"#utility.yul\":10400:10439   */\n      tag_153\n      jump\t// in\n    tag_283:\n        /* \"#utility.yul\":10388:10439   */\n      swap6\n      pop\n        /* \"#utility.yul\":10472:10476   */\n      dup1\n        /* \"#utility.yul\":10468:10477   */\n      not\n        /* \"#utility.yul\":10461:10466   */\n      dup5\n        /* \"#utility.yul\":10457:10478   */\n      and\n        /* \"#utility.yul\":10448:10478   */\n      swap4\n      pop\n        /* \"#utility.yul\":10521:10525   */\n      dup1\n        /* \"#utility.yul\":10511:10519   */\n      dup7\n        /* \"#utility.yul\":10507:10526   */\n      and\n        /* \"#utility.yul\":10500:10505   */\n      dup5\n        /* \"#utility.yul\":10497:10527   */\n      or\n        /* \"#utility.yul\":10487:10527   */\n      swap3\n      pop\n        /* \"#utility.yul\":10216:10533   */\n      pop\n      pop\n        /* \"#utility.yul\":10140:10533   */\n      swap4\n      swap3\n      pop\n      pop\n      pop\n      jump\t// out\n        /* \"#utility.yul\":10539:10599   */\n    tag_155:\n        /* \"#utility.yul\":10567:10570   */\n      0x00\n        /* \"#utility.yul\":10588:10593   */\n      dup2\n        /* \"#utility.yul\":10581:10593   */\n      swap1\n      pop\n        /* \"#utility.yul\":10539:10599   */\n      swap2\n      swap1\n      pop\n      jump\t// out\n        /* \"#utility.yul\":10605:10747   */\n    tag_156:\n        /* \"#utility.yul\":10655:10664   */\n      0x00\n        /* \"#utility.yul\":10688:10741   */\n      tag_286\n        /* \"#utility.yul\":10706:10740   */\n      tag_287\n        /* \"#utility.yul\":10715:10739   */\n      tag_288\n        /* \"#utility.yul\":10733:10738   */\n      dup5\n        /* \"#utility.yul\":10715:10739   */\n      tag_119\n      jump\t// in\n    tag_288:\n        /* \"#utility.yul\":10706:10740   */\n      tag_155\n      jump\t// in\n    tag_287:\n        /* \"#utility.yul\":10688:10741   */\n      tag_119\n      jump\t// in\n    tag_286:\n        /* \"#utility.yul\":10675:10741   */\n      swap1\n      pop\n        /* \"#utility.yul\":10605:10747   */\n      swap2\n      swap1\n      pop\n      jump\t// out\n        /* \"#utility.yul\":10753:10828   */\n    tag_157:\n        /* \"#utility.yul\":10796:10799   */\n      0x00\n        /* \"#utility.yul\":10817:10822   */\n      dup2\n        /* \"#utility.yul\":10810:10822   */\n      swap1\n      pop\n        /* \"#utility.yul\":10753:10828   */\n      swap2\n      swap1\n      pop\n      jump\t// out\n        /* \"#utility.yul\":10834:11103   */\n    tag_158:\n        /* \"#utility.yul\":10944:10983   */\n      tag_291\n        /* \"#utility.yul\":10975:10982   */\n      dup4\n        /* \"#utility.yul\":10944:10983   */\n      tag_156\n      jump\t// in\n    tag_291:\n        /* \"#utility.yul\":11005:11096   */\n      tag_292\n        /* \"#utility.yul\":11054:11095   */\n      tag_293\n        /* \"#utility.yul\":11078:11094   */\n      dup3\n        /* \"#utility.yul\":11054:11095   */\n      tag_157\n      jump\t// in\n    tag_293:\n        /* \"#utility.yul\":11046:11052   */\n      dup5\n        /* \"#utility.yul\":11039:11043   */\n      dup5\n        /* \"#utility.yul\":11033:11044   */\n      sload\n        /* \"#utility.yul\":11005:11096   */\n      tag_154\n      jump\t// in\n    tag_292:\n        /* \"#utility.yul\":10999:11003   */\n      dup3\n        /* \"#utility.yul\":10992:11097   */\n      sstore\n        /* \"#utility.yul\":10910:11103   */\n      pop\n        /* \"#utility.yul\":10834:11103   */\n      pop\n      pop\n      pop\n      jump\t// out\n        /* \"#utility.yul\":11109:11182   */\n    tag_159:\n        /* \"#utility.yul\":11154:11157   */\n      0x00\n        /* \"#utility.yul\":11109:11182   */\n      swap1\n      jump\t// out\n        /* \"#utility.yul\":11188:11377   */\n    tag_160:\n        /* \"#utility.yul\":11265:11297   */\n      tag_296\n      tag_159\n      jump\t// in\n    tag_296:\n        /* \"#utility.yul\":11306:11371   */\n      tag_297\n        /* \"#utility.yul\":11364:11370   */\n      dup2\n        /* \"#utility.yul\":11356:11362   */\n      dup5\n        /* \"#utility.yul\":11350:11354   */\n      dup5\n        /* \"#utility.yul\":11306:11371   */\n      tag_158\n      jump\t// in\n    tag_297:\n        /* \"#utility.yul\":11241:11377   */\n      pop\n        /* \"#utility.yul\":11188:11377   */\n      pop\n      pop\n      jump\t// out\n        /* \"#utility.yul\":11383:11569   */\n    tag_161:\n        /* \"#utility.yul\":11443:11563   */\n    tag_299:\n        /* \"#utility.yul\":11460:11463   */\n      dup2\n        /* \"#utility.yul\":11453:11458   */\n      dup2\n        /* \"#utility.yul\":11450:11464   */\n      lt\n        /* \"#utility.yul\":11443:11563   */\n      iszero\n      tag_301\n      jumpi\n        /* \"#utility.yul\":11514:11553   */\n      tag_302\n        /* \"#utility.yul\":11551:11552   */\n      0x00\n        /* \"#utility.yul\":11544:11549   */\n      dup3\n        /* \"#utility.yul\":11514:11553   */\n      tag_160\n      jump\t// in\n    tag_302:\n        /* \"#utility.yul\":11487:11488   */\n      0x01\n        /* \"#utility.yul\":11480:11485   */\n      dup2\n        /* \"#utility.yul\":11476:11489   */\n      add\n        /* \"#utility.yul\":11467:11489   */\n      swap1\n      pop\n        /* \"#utility.yul\":11443:11563   */\n      jump(tag_299)\n    tag_301:\n        /* \"#utility.yul\":11383:11569   */\n      pop\n      pop\n      jump\t// out\n        /* \"#utility.yul\":11575:12118   */\n    tag_162:\n        /* \"#utility.yul\":11676:11678   */\n      0x1f\n        /* \"#utility.yul\":11671:11674   */\n      dup3\n        /* \"#utility.yul\":11668:11679   */\n      gt\n        /* \"#utility.yul\":11665:12111   */\n      iszero\n      tag_304\n      jumpi\n        /* \"#utility.yul\":11710:11748   */\n      tag_305\n        /* \"#utility.yul\":11742:11747   */\n      dup2\n        /* \"#utility.yul\":11710:11748   */\n      tag_151\n      jump\t// in\n    tag_305:\n        /* \"#utility.yul\":11794:11823   */\n      tag_306\n        /* \"#utility.yul\":11812:11822   */\n      dup5\n        /* \"#utility.yul\":11794:11823   */\n      tag_152\n      jump\t// in\n    tag_306:\n        /* \"#utility.yul\":11784:11792   */\n      dup2\n        /* \"#utility.yul\":11780:11824   */\n      add\n        /* \"#utility.yul\":11977:11979   */\n      0x20\n        /* \"#utility.yul\":11965:11975   */\n      dup6\n        /* \"#utility.yul\":11962:11980   */\n      lt\n        /* \"#utility.yul\":11959:12008   */\n      iszero\n      tag_307\n      jumpi\n        /* \"#utility.yul\":11998:12006   */\n      dup2\n        /* \"#utility.yul\":11983:12006   */\n      swap1\n      pop\n        /* \"#utility.yul\":11959:12008   */\n    tag_307:\n        /* \"#utility.yul\":12021:12101   */\n      tag_308\n        /* \"#utility.yul\":12077:12099   */\n      tag_309\n        /* \"#utility.yul\":12095:12098   */\n      dup6\n        /* \"#utility.yul\":12077:12099   */\n      tag_152\n      jump\t// in\n    tag_309:\n        /* \"#utility.yul\":12067:12075   */\n      dup4\n        /* \"#utility.yul\":12063:12100   */\n      add\n        /* \"#utility.yul\":12050:12061   */\n      dup3\n        /* \"#utility.yul\":12021:12101   */\n      tag_161\n      jump\t// in\n    tag_308:\n        /* \"#utility.yul\":11680:12111   */\n      pop\n      pop\n        /* \"#utility.yul\":11665:12111   */\n    tag_304:\n        /* \"#utility.yul\":11575:12118   */\n      pop\n      pop\n      pop\n      jump\t// out\n        /* \"#utility.yul\":12124:12241   */\n    tag_163:\n        /* \"#utility.yul\":12178:12186   */\n      0x00\n        /* \"#utility.yul\":12228:12233   */\n      dup3\n        /* \"#utility.yul\":12222:12226   */\n      dup3\n        /* \"#utility.yul\":12218:12234   */\n      shr\n        /* \"#utility.yul\":12197:12234   */\n      swap1\n      pop\n        /* \"#utility.yul\":12124:12241   */\n      swap3\n      swap2\n      pop\n      pop\n      jump\t// out\n        /* \"#utility.yul\":12247:12416   */\n    tag_164:\n        /* \"#utility.yul\":12291:12297   */\n      0x00\n        /* \"#utility.yul\":12324:12375   */\n      tag_312\n        /* \"#utility.yul\":12372:12373   */\n      0x00\n        /* \"#utility.yul\":12368:12374   */\n      not\n        /* \"#utility.yul\":12360:12365   */\n      dup5\n        /* \"#utility.yul\":12357:12358   */\n      0x08\n        /* \"#utility.yul\":12353:12366   */\n      mul\n        /* \"#utility.yul\":12324:12375   */\n      tag_163\n      jump\t// in\n    tag_312:\n        /* \"#utility.yul\":12320:12376   */\n      not\n        /* \"#utility.yul\":12405:12409   */\n      dup1\n        /* \"#utility.yul\":12399:12403   */\n      dup4\n        /* \"#utility.yul\":12395:12410   */\n      and\n        /* \"#utility.yul\":12385:12410   */\n      swap2\n      pop\n        /* \"#utility.yul\":12298:12416   */\n      pop\n        /* \"#utility.yul\":12247:12416   */\n      swap3\n      swap2\n      pop\n      pop\n      jump\t// out\n        /* \"#utility.yul\":12421:12716   */\n    tag_165:\n        /* \"#utility.yul\":12497:12501   */\n      0x00\n        /* \"#utility.yul\":12643:12672   */\n      tag_314\n        /* \"#utility.yul\":12668:12671   */\n      dup4\n        /* \"#utility.yul\":12662:12666   */\n      dup4\n        /* \"#utility.yul\":12643:12672   */\n      tag_164\n      jump\t// in\n    tag_314:\n        /* \"#utility.yul\":12635:12672   */\n      swap2\n      pop\n        /* \"#utility.yul\":12705:12708   */\n      dup3\n        /* \"#utility.yul\":12702:12703   */\n      0x02\n        /* \"#utility.yul\":12698:12709   */\n      mul\n        /* \"#utility.yul\":12692:12696   */\n      dup3\n        /* \"#utility.yul\":12689:12710   */\n      or\n        /* \"#utility.yul\":12681:12710   */\n      swap1\n      pop\n        /* \"#utility.yul\":12421:12716   */\n      swap3\n      swap2\n      pop\n      pop\n      jump\t// out\n        /* \"#utility.yul\":12721:14116   */\n    tag_90:\n        /* \"#utility.yul\":12838:12875   */\n      tag_316\n        /* \"#utility.yul\":12871:12874   */\n      dup3\n        /* \"#utility.yul\":12838:12875   */\n      tag_122\n      jump\t// in\n    tag_316:\n        /* \"#utility.yul\":12940:12958   */\n      0xffffffffffffffff\n        /* \"#utility.yul\":12932:12938   */\n      dup2\n        /* \"#utility.yul\":12929:12959   */\n      gt\n        /* \"#utility.yul\":12926:12982   */\n      iszero\n      tag_317\n      jumpi\n        /* \"#utility.yul\":12962:12980   */\n      tag_318\n      tag_140\n      jump\t// in\n    tag_318:\n        /* \"#utility.yul\":12926:12982   */\n    tag_317:\n        /* \"#utility.yul\":13006:13044   */\n      tag_319\n        /* \"#utility.yul\":13038:13042   */\n      dup3\n        /* \"#utility.yul\":13032:13043   */\n      sload\n        /* \"#utility.yul\":13006:13044   */\n      tag_57\n      jump\t// in\n    tag_319:\n        /* \"#utility.yul\":13091:13158   */\n      tag_320\n        /* \"#utility.yul\":13151:13157   */\n      dup3\n        /* \"#utility.yul\":13143:13149   */\n      dup3\n        /* \"#utility.yul\":13137:13141   */\n      dup6\n        /* \"#utility.yul\":13091:13158   */\n      tag_162\n      jump\t// in\n    tag_320:\n        /* \"#utility.yul\":13185:13186   */\n      0x00\n        /* \"#utility.yul\":13209:13213   */\n      0x20\n        /* \"#utility.yul\":13196:13213   */\n      swap1\n      pop\n        /* \"#utility.yul\":13241:13243   */\n      0x1f\n        /* \"#utility.yul\":13233:13239   */\n      dup4\n        /* \"#utility.yul\":13230:13244   */\n      gt\n        /* \"#utility.yul\":13258:13259   */\n      0x01\n        /* \"#utility.yul\":13253:13871   */\n      dup2\n      eq\n      tag_322\n      jumpi\n        /* \"#utility.yul\":13915:13916   */\n      0x00\n        /* \"#utility.yul\":13932:13938   */\n      dup5\n        /* \"#utility.yul\":13929:14006   */\n      iszero\n      tag_323\n      jumpi\n        /* \"#utility.yul\":13981:13990   */\n      dup3\n        /* \"#utility.yul\":13976:13979   */\n      dup8\n        /* \"#utility.yul\":13972:13991   */\n      add\n        /* \"#utility.yul\":13966:13992   */\n      mload\n        /* \"#utility.yul\":13957:13992   */\n      swap1\n      pop\n        /* \"#utility.yul\":13929:14006   */\n    tag_323:\n        /* \"#utility.yul\":14032:14099   */\n      tag_324\n        /* \"#utility.yul\":14092:14098   */\n      dup6\n        /* \"#utility.yul\":14085:14090   */\n      dup3\n        /* \"#utility.yul\":14032:14099   */\n      tag_165\n      jump\t// in\n    tag_324:\n        /* \"#utility.yul\":14026:14030   */\n      dup7\n        /* \"#utility.yul\":14019:14100   */\n      sstore\n        /* \"#utility.yul\":13888:14110   */\n      pop\n        /* \"#utility.yul\":13223:14110   */\n      jump(tag_321)\n        /* \"#utility.yul\":13253:13871   */\n    tag_322:\n        /* \"#utility.yul\":13305:13309   */\n      0x1f\n        /* \"#utility.yul\":13301:13310   */\n      not\n        /* \"#utility.yul\":13293:13299   */\n      dup5\n        /* \"#utility.yul\":13289:13311   */\n      and\n        /* \"#utility.yul\":13339:13376   */\n      tag_325\n        /* \"#utility.yul\":13371:13375   */\n      dup7\n        /* \"#utility.yul\":13339:13376   */\n      tag_151\n      jump\t// in\n    tag_325:\n        /* \"#utility.yul\":13398:13399   */\n      0x00\n        /* \"#utility.yul\":13412:13620   */\n    tag_326:\n        /* \"#utility.yul\":13426:13433   */\n      dup3\n        /* \"#utility.yul\":13423:13424   */\n      dup2\n        /* \"#utility.yul\":13420:13434   */\n      lt\n        /* \"#utility.yul\":13412:13620   */\n      iszero\n      tag_328\n      jumpi\n        /* \"#utility.yul\":13505:13514   */\n      dup5\n        /* \"#utility.yul\":13500:13503   */\n      dup10\n        /* \"#utility.yul\":13496:13515   */\n      add\n        /* \"#utility.yul\":13490:13516   */\n      mload\n        /* \"#utility.yul\":13482:13488   */\n      dup3\n        /* \"#utility.yul\":13475:13517   */\n      sstore\n        /* \"#utility.yul\":13556:13557   */\n      0x01\n        /* \"#utility.yul\":13548:13554   */\n      dup3\n        /* \"#utility.yul\":13544:13558   */\n      add\n        /* \"#utility.yul\":13534:13558   */\n      swap2\n      pop\n        /* \"#utility.yul\":13603:13605   */\n      0x20\n        /* \"#utility.yul\":13592:13601   */\n      dup6\n        /* \"#utility.yul\":13588:13606   */\n      add\n        /* \"#utility.yul\":13575:13606   */\n      swap5\n      pop\n        /* \"#utility.yul\":13449:13453   */\n      0x20\n        /* \"#utility.yul\":13446:13447   */\n      dup2\n        /* \"#utility.yul\":13442:13454   */\n      add\n        /* \"#utility.yul\":13437:13454   */\n      swap1\n      pop\n        /* \"#utility.yul\":13412:13620   */\n      jump(tag_326)\n    tag_328:\n        /* \"#utility.yul\":13648:13654   */\n      dup7\n        /* \"#utility.yul\":13639:13646   */\n      dup4\n        /* \"#utility.yul\":13636:13655   */\n      lt\n        /* \"#utility.yul\":13633:13812   */\n      iszero\n      tag_329\n      jumpi\n        /* \"#utility.yul\":13706:13715   */\n      dup5\n        /* \"#utility.yul\":13701:13704   */\n      dup10\n        /* \"#utility.yul\":13697:13716   */\n      add\n        /* \"#utility.yul\":13691:13717   */\n      mload\n        /* \"#utility.yul\":13749:13797   */\n      tag_330\n        /* \"#utility.yul\":13791:13795   */\n      0x1f\n        /* \"#utility.yul\":13783:13789   */\n      dup10\n        /* \"#utility.yul\":13779:13796   */\n      and\n        /* \"#utility.yul\":13768:13777   */\n      dup3\n        /* \"#utility.yul\":13749:13797   */\n      tag_164\n      jump\t// in\n    tag_330:\n        /* \"#utility.yul\":13741:13747   */\n      dup4\n        /* \"#utility.yul\":13734:13798   */\n      sstore\n        /* \"#utility.yul\":13656:13812   */\n      pop\n        /* \"#utility.yul\":13633:13812   */\n    tag_329:\n        /* \"#utility.yul\":13858:13859   */\n      0x01\n        /* \"#utility.yul\":13854:13855   */\n      0x02\n        /* \"#utility.yul\":13846:13852   */\n      dup9\n        /* \"#utility.yul\":13842:13856   */\n      mul\n        /* \"#utility.yul\":13838:13860   */\n      add\n        /* \"#utility.yul\":13832:13836   */\n      dup9\n        /* \"#utility.yul\":13825:13861   */\n      sstore\n        /* \"#utility.yul\":13260:13871   */\n      pop\n      pop\n      pop\n        /* \"#utility.yul\":13223:14110   */\n    tag_321:\n      pop\n        /* \"#utility.yul\":12813:14116   */\n      pop\n      pop\n      pop\n        /* \"#utility.yul\":12721:14116   */\n      pop\n      pop\n      jump\t// out\n        /* \"#utility.yul\":14122:14302   */\n    tag_166:\n        /* \"#utility.yul\":14170:14247   */\n      0x4e487b7100000000000000000000000000000000000000000000000000000000\n        /* \"#utility.yul\":14167:14168   */\n      0x00\n        /* \"#utility.yul\":14160:14248   */\n      mstore\n        /* \"#utility.yul\":14267:14271   */\n      0x12\n        /* \"#utility.yul\":14264:14265   */\n      0x04\n        /* \"#utility.yul\":14257:14272   */\n      mstore\n        /* \"#utility.yul\":14291:14295   */\n      0x24\n        /* \"#utility.yul\":14288:14289   */\n      0x00\n        /* \"#utility.yul\":14281:14296   */\n      revert\n        /* \"#utility.yul\":14308:14493   */\n    tag_106:\n        /* \"#utility.yul\":14348:14349   */\n      0x00\n        /* \"#utility.yul\":14365:14385   */\n      tag_333\n        /* \"#utility.yul\":14383:14384   */\n      dup3\n        /* \"#utility.yul\":14365:14385   */\n      tag_119\n      jump\t// in\n    tag_333:\n        /* \"#utility.yul\":14360:14385   */\n      swap2\n      pop\n        /* \"#utility.yul\":14399:14419   */\n      tag_334\n        /* \"#utility.yul\":14417:14418   */\n      dup4\n        /* \"#utility.yul\":14399:14419   */\n      tag_119\n      jump\t// in\n    tag_334:\n        /* \"#utility.yul\":14394:14419   */\n      swap3\n      pop\n        /* \"#utility.yul\":14438:14439   */\n      dup3\n        /* \"#utility.yul\":14428:14463   */\n      tag_335\n      jumpi\n        /* \"#utility.yul\":14443:14461   */\n      tag_336\n      tag_166\n      jump\t// in\n    tag_336:\n        /* \"#utility.yul\":14428:14463   */\n    tag_335:\n        /* \"#utility.yul\":14485:14486   */\n      dup3\n        /* \"#utility.yul\":14482:14483   */\n      dup3\n        /* \"#utility.yul\":14478:14487   */\n      div\n        /* \"#utility.yul\":14473:14487   */\n      swap1\n      pop\n        /* \"#utility.yul\":14308:14493   */\n      swap3\n      swap2\n      pop\n      pop\n      jump\t// out\n\n    auxdata: 0xa2646970667358221220988a4c2c80646251d55d3b791a7d8df693f98ecf44e9cb997950e235921390d364736f6c63430008120033\n}\n",
				"bytecode": {
					"linkReferences": {},
					"object": "60806040523480156200001157600080fd5b50604051620013ed380380620013ed83398181016040528101906200003791906200015b565b806000806101000a81548173ffffffffffffffffffffffffffffffffffffffff021916908373ffffffffffffffffffffffffffffffffffffffff16021790555060018060008373ffffffffffffffffffffffffffffffffffffffff1673ffffffffffffffffffffffffffffffffffffffff16815260200190815260200160002060006101000a81548160ff021916908315150217905550600160026000828254620000e39190620001c6565b925050819055505062000201565b600080fd5b600073ffffffffffffffffffffffffffffffffffffffff82169050919050565b60006200012382620000f6565b9050919050565b620001358162000116565b81146200014157600080fd5b50565b60008151905062000155816200012a565b92915050565b600060208284031215620001745762000173620000f1565b5b6000620001848482850162000144565b91505092915050565b6000819050919050565b7f4e487b7100000000000000000000000000000000000000000000000000000000600052601160045260246000fd5b6000620001d3826200018d565b9150620001e0836200018d565b9250828201905080821115620001fb57620001fa62000197565b5b92915050565b6111dc80620002116000396000f3fe608060405234801561001057600080fd5b50600436106100625760003560e01c80630121b93f14610067578063013cf08b146100835780633f220524146100b757806344da4b34146100d357806365e481e2146100ef578063865df0ad1461010b575b600080fd5b610081600480360381019061007c9190610973565b610127565b005b61009d60048036038101906100989190610973565b61032f565b6040516100ae959493929190610ad1565b60405180910390f35b6100d160048036038101906100cc9190610973565b61049f565b005b6100ed60048036038101906100e89190610b90565b61056f565b005b61010960048036038101906101049190610cf2565b61063b565b005b61012560048036038101906101209190610973565b6107bc565b005b600160003373ffffffffffffffffffffffffffffffffffffffff1673ffffffffffffffffffffffffffffffffffffffff16815260200190815260200160002060009054906101000a900460ff166101b3576040517f08c379a00000000000000000000000000000000000000000000000000000000081526004016101aa90610db6565b60405180910390fd5b80600460003373ffffffffffffffffffffffffffffffffffffffff1673ffffffffffffffffffffffffffffffffffffffff168152602001908152602001600020600082815260200190815260200160002060009054906101000a900460ff161561021c57600080fd5b60006003838154811061023257610231610dd6565b5b906000526020600020906004020190506001600281111561025657610255610a3f565b5b8160030160009054906101000a900460ff16600281111561027a57610279610a3f565b5b1461028457600080fd5b60016003848154811061029a57610299610dd6565b5b906000526020600020906004020160020160008282546102ba9190610e34565b925050819055506001600460003373ffffffffffffffffffffffffffffffffffffffff1673ffffffffffffffffffffffffffffffffffffffff168152602001908152602001600020600085815260200190815260200160002060006101000a81548160ff021916908315150217905550505050565b6003818154811061033f57600080fd5b906000526020600020906004020160009150905080600001805461036290610e97565b80601f016020809104026020016040519081016040528092919081815260200182805461038e90610e97565b80156103db5780601f106103b0576101008083540402835291602001916103db565b820191906000526020600020905b8154815290600101906020018083116103be57829003601f168201915b5050505050908060010180546103f090610e97565b80601f016020809104026020016040519081016040528092919081815260200182805461041c90610e97565b80156104695780601f1061043e57610100808354040283529160200191610469565b820191906000526020600020905b81548152906001019060200180831161044c57829003601f168201915b5050505050908060020154908060030160009054906101000a900460ff16908060030160019054906101000a900460ff16905085565b60008054906101000a900473ffffffffffffffffffffffffffffffffffffffff1673ffffffffffffffffffffffffffffffffffffffff163373ffffffffffffffffffffffffffffffffffffffff16146104f757600080fd5b60006003828154811061050d5761050c610dd6565b5b9060005260206000209060040201905060016003838154811061053357610532610dd6565b5b906000526020600020906004020160030160006101000a81548160ff0219169083600281111561056657610565610a3f565b5b02179055505050565b60008054906101000a900473ffffffffffffffffffffffffffffffffffffffff1673ffffffffffffffffffffffffffffffffffffffff163373ffffffffffffffffffffffffffffffffffffffff16146105c757600080fd5b60018060008373ffffffffffffffffffffffffffffffffffffffff1673ffffffffffffffffffffffffffffffffffffffff16815260200190815260200160002060006101000a81548160ff0219169083151502179055506001600260008282546106319190610e34565b9250508190555050565b600160003373ffffffffffffffffffffffffffffffffffffffff1673ffffffffffffffffffffffffffffffffffffffff16815260200190815260200160002060009054906101000a900460ff166106c7576040517f08c379a00000000000000000000000000000000000000000000000000000000081526004016106be90610db6565b60405180910390fd5b60036040518060a0016040528084815260200183815260200160008152602001600060028111156106fb576106fa610a3f565b5b815260200160001515815250908060018154018082558091505060019003906000526020600020906004020160009091909190915060008201518160000190816107459190611074565b50602082015181600101908161075b9190611074565b506040820151816002015560608201518160030160006101000a81548160ff0219169083600281111561079157610790610a3f565b5b021790555060808201518160030160016101000a81548160ff02191690831515021790555050505050565b60008054906101000a900473ffffffffffffffffffffffffffffffffffffffff1673ffffffffffffffffffffffffffffffffffffffff163373ffffffffffffffffffffffffffffffffffffffff161461081457600080fd5b60006003828154811061082a57610829610dd6565b5b906000526020600020906004020190506001600281111561084e5761084d610a3f565b5b8160030160009054906101000a900460ff16600281111561087257610871610a3f565b5b1461087c57600080fd5b6002805461088a9190611175565b81600201541161089957600080fd5b6001600383815481106108af576108ae610dd6565b5b906000526020600020906004020160030160016101000a81548160ff0219169083151502179055506002600383815481106108ed576108ec610dd6565b5b906000526020600020906004020160030160006101000a81548160ff021916908360028111156109205761091f610a3f565b5b02179055505050565b6000604051905090565b600080fd5b600080fd5b6000819050919050565b6109508161093d565b811461095b57600080fd5b50565b60008135905061096d81610947565b92915050565b60006020828403121561098957610988610933565b5b60006109978482850161095e565b91505092915050565b600081519050919050565b600082825260208201905092915050565b60005b838110156109da5780820151818401526020810190506109bf565b60008484015250505050565b6000601f19601f8301169050919050565b6000610a02826109a0565b610a0c81856109ab565b9350610a1c8185602086016109bc565b610a25816109e6565b840191505092915050565b610a398161093d565b82525050565b7f4e487b7100000000000000000000000000000000000000000000000000000000600052602160045260246000fd5b60038110610a7f57610a7e610a3f565b5b50565b6000819050610a9082610a6e565b919050565b6000610aa082610a82565b9050919050565b610ab081610a95565b82525050565b60008115159050919050565b610acb81610ab6565b82525050565b600060a0820190508181036000830152610aeb81886109f7565b90508181036020830152610aff81876109f7565b9050610b0e6040830186610a30565b610b1b6060830185610aa7565b610b286080830184610ac2565b9695505050505050565b600073ffffffffffffffffffffffffffffffffffffffff82169050919050565b6000610b5d82610b32565b9050919050565b610b6d81610b52565b8114610b7857600080fd5b50565b600081359050610b8a81610b64565b92915050565b600060208284031215610ba657610ba5610933565b5b6000610bb484828501610b7b565b91505092915050565b600080fd5b600080fd5b7f4e487b7100000000000000000000000000000000000000000000000000000000600052604160045260246000fd5b610bff826109e6565b810181811067ffffffffffffffff82111715610c1e57610c1d610bc7565b5b80604052505050565b6000610c31610929565b9050610c3d8282610bf6565b919050565b600067ffffffffffffffff821115610c5d57610c5c610bc7565b5b610c66826109e6565b9050602081019050919050565b82818337600083830152505050565b6000610c95610c9084610c42565b610c27565b905082815260208101848484011115610cb157610cb0610bc2565b5b610cbc848285610c73565b509392505050565b600082601f830112610cd957610cd8610bbd565b5b8135610ce9848260208601610c82565b91505092915050565b60008060408385031215610d0957610d08610933565b5b600083013567ffffffffffffffff811115610d2757610d26610938565b5b610d3385828601610cc4565b925050602083013567ffffffffffffffff811115610d5457610d53610938565b5b610d6085828601610cc4565b9150509250929050565b7f6e6f206d656d6265720000000000000000000000000000000000000000000000600082015250565b6000610da06009836109ab565b9150610dab82610d6a565b602082019050919050565b60006020820190508181036000830152610dcf81610d93565b9050919050565b7f4e487b7100000000000000000000000000000000000000000000000000000000600052603260045260246000fd5b7f4e487b7100000000000000000000000000000000000000000000000000000000600052601160045260246000fd5b6000610e3f8261093d565b9150610e4a8361093d565b9250828201905080821115610e6257610e61610e05565b5b92915050565b7f4e487b7100000000000000000000000000000000000000000000000000000000600052602260045260246000fd5b60006002820490506001821680610eaf57607f821691505b602082108103610ec257610ec1610e68565b5b50919050565b60008190508160005260206000209050919050565b60006020601f8301049050919050565b600082821b905092915050565b600060088302610f2a7fffffffffffffffffffffffffffffffffffffffffffffffffffffffffffffffff82610eed565b610f348683610eed565b95508019841693508086168417925050509392505050565b6000819050919050565b6000610f71610f6c610f678461093d565b610f4c565b61093d565b9050919050565b6000819050919050565b610f8b83610f56565b610f9f610f9782610f78565b848454610efa565b825550505050565b600090565b610fb4610fa7565b610fbf818484610f82565b505050565b5b81811015610fe357610fd8600082610fac565b600181019050610fc5565b5050565b601f82111561102857610ff981610ec8565b61100284610edd565b81016020851015611011578190505b61102561101d85610edd565b830182610fc4565b50505b505050565b600082821c905092915050565b600061104b6000198460080261102d565b1980831691505092915050565b6000611064838361103a565b9150826002028217905092915050565b61107d826109a0565b67ffffffffffffffff81111561109657611095610bc7565b5b6110a08254610e97565b6110ab828285610fe7565b600060209050601f8311600181146110de57600084156110cc578287015190505b6110d68582611058565b86555061113e565b601f1984166110ec86610ec8565b60005b82811015611114578489015182556001820191506020850194506020810190506110ef565b86831015611131578489015161112d601f89168261103a565b8355505b6001600288020188555050505b505050505050565b7f4e487b7100000000000000000000000000000000000000000000000000000000600052601260045260246000fd5b60006111808261093d565b915061118b8361093d565b92508261119b5761119a611146565b5b82820490509291505056fea2646970667358221220988a4c2c80646251d55d3b791a7d8df693f98ecf44e9cb997950e235921390d364736f6c63430008120033",
					"opcodes": "PUSH1 0x80 PUSH1 0x40 MSTORE CALLVALUE DUP1 ISZERO PUSH3 0x11 JUMPI PUSH1 0x0 DUP1 REVERT JUMPDEST POP PUSH1 0x40 MLOAD PUSH3 0x13ED CODESIZE SUB DUP1 PUSH3 0x13ED DUP4 CODECOPY DUP2 DUP2 ADD PUSH1 0x40 MSTORE DUP2 ADD SWAP1 PUSH3 0x37 SWAP2 SWAP1 PUSH3 0x15B JUMP JUMPDEST DUP1 PUSH1 0x0 DUP1 PUSH2 0x100 EXP DUP2 SLOAD DUP2 PUSH20 0xFFFFFFFFFFFFFFFFFFFFFFFFFFFFFFFFFFFFFFFF MUL NOT AND SWAP1 DUP4 PUSH20 0xFFFFFFFFFFFFFFFFFFFFFFFFFFFFFFFFFFFFFFFF AND MUL OR SWAP1 SSTORE POP PUSH1 0x1 DUP1 PUSH1 0x0 DUP4 PUSH20 0xFFFFFFFFFFFFFFFFFFFFFFFFFFFFFFFFFFFFFFFF AND PUSH20 0xFFFFFFFFFFFFFFFFFFFFFFFFFFFFFFFFFFFFFFFF AND DUP2 MSTORE PUSH1 0x20 ADD SWAP1 DUP2 MSTORE PUSH1 0x20 ADD PUSH1 0x0 KECCAK256 PUSH1 0x0 PUSH2 0x100 EXP DUP2 SLOAD DUP2 PUSH1 0xFF MUL NOT AND SWAP1 DUP4 ISZERO ISZERO MUL OR SWAP1 SSTORE POP PUSH1 0x1 PUSH1 0x2 PUSH1 0x0 DUP3 DUP3 SLOAD PUSH3 0xE3 SWAP2 SWAP1 PUSH3 0x1C6 JUMP JUMPDEST SWAP3 POP POP DUP2 SWAP1 SSTORE POP POP PUSH3 0x201 JUMP JUMPDEST PUSH1 0x0 DUP1 REVERT JUMPDEST PUSH1 0x0 PUSH20 0xFFFFFFFFFFFFFFFFFFFFFFFFFFFFFFFFFFFFFFFF DUP3 AND SWAP1 POP SWAP2 SWAP1 POP JUMP JUMPDEST PUSH1 0x0 PUSH3 0x123 DUP3 PUSH3 0xF6 JUMP JUMPDEST SWAP1 POP SWAP2 SWAP1 POP JUMP JUMPDEST PUSH3 0x135 DUP2 PUSH3 0x116 JUMP JUMPDEST DUP2 EQ PUSH3 0x141 JUMPI PUSH1 0x0 DUP1 REVERT JUMPDEST POP JUMP JUMPDEST PUSH1 0x0 DUP2 MLOAD SWAP1 POP PUSH3 0x155 DUP2 PUSH3 0x12A JUMP JUMPDEST SWAP3 SWAP2 POP POP JUMP JUMPDEST PUSH1 0x0 PUSH1 0x20 DUP3 DUP5 SUB SLT ISZERO PUSH3 0x174 JUMPI PUSH3 0x173 PUSH3 0xF1 JUMP JUMPDEST JUMPDEST PUSH1 0x0 PUSH3 0x184 DUP5 DUP3 DUP6 ADD PUSH3 0x144 JUMP JUMPDEST SWAP2 POP POP SWAP3 SWAP2 POP POP JUMP JUMPDEST PUSH1 0x0 DUP2 SWAP1 POP SWAP2 SWAP1 POP JUMP JUMPDEST PUSH32 0x4E487B7100000000000000000000000000000000000000000000000000000000 PUSH1 0x0 MSTORE PUSH1 0x11 PUSH1 0x4 MSTORE PUSH1 0x24 PUSH1 0x0 REVERT JUMPDEST PUSH1 0x0 PUSH3 0x1D3 DUP3 PUSH3 0x18D JUMP JUMPDEST SWAP2 POP PUSH3 0x1E0 DUP4 PUSH3 0x18D JUMP JUMPDEST SWAP3 POP DUP3 DUP3 ADD SWAP1 POP DUP1 DUP3 GT ISZERO PUSH3 0x1FB JUMPI PUSH3 0x1FA PUSH3 0x197 JUMP JUMPDEST JUMPDEST SWAP3 SWAP2 POP POP JUMP JUMPDEST PUSH2 0x11DC DUP1 PUSH3 0x211 PUSH1 0x0 CODECOPY PUSH1 0x0 RETURN INVALID PUSH1 0x80 PUSH1 0x40 MSTORE CALLVALUE DUP1 ISZERO PUSH2 0x10 JUMPI PUSH1 0x0 DUP1 REVERT JUMPDEST POP PUSH1 0x4 CALLDATASIZE LT PUSH2 0x62 JUMPI PUSH1 0x0 CALLDATALOAD PUSH1 0xE0 SHR DUP1 PUSH4 0x121B93F EQ PUSH2 0x67 JUMPI DUP1 PUSH4 0x13CF08B EQ PUSH2 0x83 JUMPI DUP1 PUSH4 0x3F220524 EQ PUSH2 0xB7 JUMPI DUP1 PUSH4 0x44DA4B34 EQ PUSH2 0xD3 JUMPI DUP1 PUSH4 0x65E481E2 EQ PUSH2 0xEF JUMPI DUP1 PUSH4 0x865DF0AD EQ PUSH2 0x10B JUMPI JUMPDEST PUSH1 0x0 DUP1 REVERT JUMPDEST PUSH2 0x81 PUSH1 0x4 DUP1 CALLDATASIZE SUB DUP2 ADD SWAP1 PUSH2 0x7C SWAP2 SWAP1 PUSH2 0x973 JUMP JUMPDEST PUSH2 0x127 JUMP JUMPDEST STOP JUMPDEST PUSH2 0x9D PUSH1 0x4 DUP1 CALLDATASIZE SUB DUP2 ADD SWAP1 PUSH2 0x98 SWAP2 SWAP1 PUSH2 0x973 JUMP JUMPDEST PUSH2 0x32F JUMP JUMPDEST PUSH1 0x40 MLOAD PUSH2 0xAE SWAP6 SWAP5 SWAP4 SWAP3 SWAP2 SWAP1 PUSH2 0xAD1 JUMP JUMPDEST PUSH1 0x40 MLOAD DUP1 SWAP2 SUB SWAP1 RETURN JUMPDEST PUSH2 0xD1 PUSH1 0x4 DUP1 CALLDATASIZE SUB DUP2 ADD SWAP1 PUSH2 0xCC SWAP2 SWAP1 PUSH2 0x973 JUMP JUMPDEST PUSH2 0x49F JUMP JUMPDEST STOP JUMPDEST PUSH2 0xED PUSH1 0x4 DUP1 CALLDATASIZE SUB DUP2 ADD SWAP1 PUSH2 0xE8 SWAP2 SWAP1 PUSH2 0xB90 JUMP JUMPDEST PUSH2 0x56F JUMP JUMPDEST STOP JUMPDEST PUSH2 0x109 PUSH1 0x4 DUP1 CALLDATASIZE SUB DUP2 ADD SWAP1 PUSH2 0x104 SWAP2 SWAP1 PUSH2 0xCF2 JUMP JUMPDEST PUSH2 0x63B JUMP JUMPDEST STOP JUMPDEST PUSH2 0x125 PUSH1 0x4 DUP1 CALLDATASIZE SUB DUP2 ADD SWAP1 PUSH2 0x120 SWAP2 SWAP1 PUSH2 0x973 JUMP JUMPDEST PUSH2 0x7BC JUMP JUMPDEST STOP JUMPDEST PUSH1 0x1 PUSH1 0x0 CALLER PUSH20 0xFFFFFFFFFFFFFFFFFFFFFFFFFFFFFFFFFFFFFFFF AND PUSH20 0xFFFFFFFFFFFFFFFFFFFFFFFFFFFFFFFFFFFFFFFF AND DUP2 MSTORE PUSH1 0x20 ADD SWAP1 DUP2 MSTORE PUSH1 0x20 ADD PUSH1 0x0 KECCAK256 PUSH1 0x0 SWAP1 SLOAD SWAP1 PUSH2 0x100 EXP SWAP1 DIV PUSH1 0xFF AND PUSH2 0x1B3 JUMPI PUSH1 0x40 MLOAD PUSH32 0x8C379A000000000000000000000000000000000000000000000000000000000 DUP2 MSTORE PUSH1 0x4 ADD PUSH2 0x1AA SWAP1 PUSH2 0xDB6 JUMP JUMPDEST PUSH1 0x40 MLOAD DUP1 SWAP2 SUB SWAP1 REVERT JUMPDEST DUP1 PUSH1 0x4 PUSH1 0x0 CALLER PUSH20 0xFFFFFFFFFFFFFFFFFFFFFFFFFFFFFFFFFFFFFFFF AND PUSH20 0xFFFFFFFFFFFFFFFFFFFFFFFFFFFFFFFFFFFFFFFF AND DUP2 MSTORE PUSH1 0x20 ADD SWAP1 DUP2 MSTORE PUSH1 0x20 ADD PUSH1 0x0 KECCAK256 PUSH1 0x0 DUP3 DUP2 MSTORE PUSH1 0x20 ADD SWAP1 DUP2 MSTORE PUSH1 0x20 ADD PUSH1 0x0 KECCAK256 PUSH1 0x0 SWAP1 SLOAD SWAP1 PUSH2 0x100 EXP SWAP1 DIV PUSH1 0xFF AND ISZERO PUSH2 0x21C JUMPI PUSH1 0x0 DUP1 REVERT JUMPDEST PUSH1 0x0 PUSH1 0x3 DUP4 DUP2 SLOAD DUP2 LT PUSH2 0x232 JUMPI PUSH2 0x231 PUSH2 0xDD6 JUMP JUMPDEST JUMPDEST SWAP1 PUSH1 0x0 MSTORE PUSH1 0x20 PUSH1 0x0 KECCAK256 SWAP1 PUSH1 0x4 MUL ADD SWAP1 POP PUSH1 0x1 PUSH1 0x2 DUP2 GT ISZERO PUSH2 0x256 JUMPI PUSH2 0x255 PUSH2 0xA3F JUMP JUMPDEST JUMPDEST DUP2 PUSH1 0x3 ADD PUSH1 0x0 SWAP1 SLOAD SWAP1 PUSH2 0x100 EXP SWAP1 DIV PUSH1 0xFF AND PUSH1 0x2 DUP2 GT ISZERO PUSH2 0x27A JUMPI PUSH2 0x279 PUSH2 0xA3F JUMP JUMPDEST JUMPDEST EQ PUSH2 0x284 JUMPI PUSH1 0x0 DUP1 REVERT JUMPDEST PUSH1 0x1 PUSH1 0x3 DUP5 DUP2 SLOAD DUP2 LT PUSH2 0x29A JUMPI PUSH2 0x299 PUSH2 0xDD6 JUMP JUMPDEST JUMPDEST SWAP1 PUSH1 0x0 MSTORE PUSH1 0x20 PUSH1 0x0 KECCAK256 SWAP1 PUSH1 0x4 MUL ADD PUSH1 0x2 ADD PUSH1 0x0 DUP3 DUP3 SLOAD PUSH2 0x2BA SWAP2 SWAP1 PUSH2 0xE34 JUMP JUMPDEST SWAP3 POP POP DUP2 SWAP1 SSTORE POP PUSH1 0x1 PUSH1 0x4 PUSH1 0x0 CALLER PUSH20 0xFFFFFFFFFFFFFFFFFFFFFFFFFFFFFFFFFFFFFFFF AND PUSH20 0xFFFFFFFFFFFFFFFFFFFFFFFFFFFFFFFFFFFFFFFF AND DUP2 MSTORE PUSH1 0x20 ADD SWAP1 DUP2 MSTORE PUSH1 0x20 ADD PUSH1 0x0 KECCAK256 PUSH1 0x0 DUP6 DUP2 MSTORE PUSH1 0x20 ADD SWAP1 DUP2 MSTORE PUSH1 0x20 ADD PUSH1 0x0 KECCAK256 PUSH1 0x0 PUSH2 0x100 EXP DUP2 SLOAD DUP2 PUSH1 0xFF MUL NOT AND SWAP1 DUP4 ISZERO ISZERO MUL OR SWAP1 SSTORE POP POP POP POP JUMP JUMPDEST PUSH1 0x3 DUP2 DUP2 SLOAD DUP2 LT PUSH2 0x33F JUMPI PUSH1 0x0 DUP1 REVERT JUMPDEST SWAP1 PUSH1 0x0 MSTORE PUSH1 0x20 PUSH1 0x0 KECCAK256 SWAP1 PUSH1 0x4 MUL ADD PUSH1 0x0 SWAP2 POP SWAP1 POP DUP1 PUSH1 0x0 ADD DUP1 SLOAD PUSH2 0x362 SWAP1 PUSH2 0xE97 JUMP JUMPDEST DUP1 PUSH1 0x1F ADD PUSH1 0x20 DUP1 SWAP2 DIV MUL PUSH1 0x20 ADD PUSH1 0x40 MLOAD SWAP1 DUP2 ADD PUSH1 0x40 MSTORE DUP1 SWAP3 SWAP2 SWAP1 DUP2 DUP2 MSTORE PUSH1 0x20 ADD DUP3 DUP1 SLOAD PUSH2 0x38E SWAP1 PUSH2 0xE97 JUMP JUMPDEST DUP1 ISZERO PUSH2 0x3DB JUMPI DUP1 PUSH1 0x1F LT PUSH2 0x3B0 JUMPI PUSH2 0x100 DUP1 DUP4 SLOAD DIV MUL DUP4 MSTORE SWAP2 PUSH1 0x20 ADD SWAP2 PUSH2 0x3DB JUMP JUMPDEST DUP3 ADD SWAP2 SWAP1 PUSH1 0x0 MSTORE PUSH1 0x20 PUSH1 0x0 KECCAK256 SWAP1 JUMPDEST DUP2 SLOAD DUP2 MSTORE SWAP1 PUSH1 0x1 ADD SWAP1 PUSH1 0x20 ADD DUP1 DUP4 GT PUSH2 0x3BE JUMPI DUP3 SWAP1 SUB PUSH1 0x1F AND DUP3 ADD SWAP2 JUMPDEST POP POP POP POP POP SWAP1 DUP1 PUSH1 0x1 ADD DUP1 SLOAD PUSH2 0x3F0 SWAP1 PUSH2 0xE97 JUMP JUMPDEST DUP1 PUSH1 0x1F ADD PUSH1 0x20 DUP1 SWAP2 DIV MUL PUSH1 0x20 ADD PUSH1 0x40 MLOAD SWAP1 DUP2 ADD PUSH1 0x40 MSTORE DUP1 SWAP3 SWAP2 SWAP1 DUP2 DUP2 MSTORE PUSH1 0x20 ADD DUP3 DUP1 SLOAD PUSH2 0x41C SWAP1 PUSH2 0xE97 JUMP JUMPDEST DUP1 ISZERO PUSH2 0x469 JUMPI DUP1 PUSH1 0x1F LT PUSH2 0x43E JUMPI PUSH2 0x100 DUP1 DUP4 SLOAD DIV MUL DUP4 MSTORE SWAP2 PUSH1 0x20 ADD SWAP2 PUSH2 0x469 JUMP JUMPDEST DUP3 ADD SWAP2 SWAP1 PUSH1 0x0 MSTORE PUSH1 0x20 PUSH1 0x0 KECCAK256 SWAP1 JUMPDEST DUP2 SLOAD DUP2 MSTORE SWAP1 PUSH1 0x1 ADD SWAP1 PUSH1 0x20 ADD DUP1 DUP4 GT PUSH2 0x44C JUMPI DUP3 SWAP1 SUB PUSH1 0x1F AND DUP3 ADD SWAP2 JUMPDEST POP POP POP POP POP SWAP1 DUP1 PUSH1 0x2 ADD SLOAD SWAP1 DUP1 PUSH1 0x3 ADD PUSH1 0x0 SWAP1 SLOAD SWAP1 PUSH2 0x100 EXP SWAP1 DIV PUSH1 0xFF AND SWAP1 DUP1 PUSH1 0x3 ADD PUSH1 0x1 SWAP1 SLOAD SWAP1 PUSH2 0x100 EXP SWAP1 DIV PUSH1 0xFF AND SWAP1 POP DUP6 JUMP JUMPDEST PUSH1 0x0 DUP1 SLOAD SWAP1 PUSH2 0x100 EXP SWAP1 DIV PUSH20 0xFFFFFFFFFFFFFFFFFFFFFFFFFFFFFFFFFFFFFFFF AND PUSH20 0xFFFFFFFFFFFFFFFFFFFFFFFFFFFFFFFFFFFFFFFF AND CALLER PUSH20 0xFFFFFFFFFFFFFFFFFFFFFFFFFFFFFFFFFFFFFFFF AND EQ PUSH2 0x4F7 JUMPI PUSH1 0x0 DUP1 REVERT JUMPDEST PUSH1 0x0 PUSH1 0x3 DUP3 DUP2 SLOAD DUP2 LT PUSH2 0x50D JUMPI PUSH2 0x50C PUSH2 0xDD6 JUMP JUMPDEST JUMPDEST SWAP1 PUSH1 0x0 MSTORE PUSH1 0x20 PUSH1 0x0 KECCAK256 SWAP1 PUSH1 0x4 MUL ADD SWAP1 POP PUSH1 0x1 PUSH1 0x3 DUP4 DUP2 SLOAD DUP2 LT PUSH2 0x533 JUMPI PUSH2 0x532 PUSH2 0xDD6 JUMP JUMPDEST JUMPDEST SWAP1 PUSH1 0x0 MSTORE PUSH1 0x20 PUSH1 0x0 KECCAK256 SWAP1 PUSH1 0x4 MUL ADD PUSH1 0x3 ADD PUSH1 0x0 PUSH2 0x100 EXP DUP2 SLOAD DUP2 PUSH1 0xFF MUL NOT AND SWAP1 DUP4 PUSH1 0x2 DUP2 GT ISZERO PUSH2 0x566 JUMPI PUSH2 0x565 PUSH2 0xA3F JUMP JUMPDEST JUMPDEST MUL OR SWAP1 SSTORE POP POP POP JUMP JUMPDEST PUSH1 0x0 DUP1 SLOAD SWAP1 PUSH2 0x100 EXP SWAP1 DIV PUSH20 0xFFFFFFFFFFFFFFFFFFFFFFFFFFFFFFFFFFFFFFFF AND PUSH20 0xFFFFFFFFFFFFFFFFFFFFFFFFFFFFFFFFFFFFFFFF AND CALLER PUSH20 0xFFFFFFFFFFFFFFFFFFFFFFFFFFFFFFFFFFFFFFFF AND EQ PUSH2 0x5C7 JUMPI PUSH1 0x0 DUP1 REVERT JUMPDEST PUSH1 0x1 DUP1 PUSH1 0x0 DUP4 PUSH20 0xFFFFFFFFFFFFFFFFFFFFFFFFFFFFFFFFFFFFFFFF AND PUSH20 0xFFFFFFFFFFFFFFFFFFFFFFFFFFFFFFFFFFFFFFFF AND DUP2 MSTORE PUSH1 0x20 ADD SWAP1 DUP2 MSTORE PUSH1 0x20 ADD PUSH1 0x0 KECCAK256 PUSH1 0x0 PUSH2 0x100 EXP DUP2 SLOAD DUP2 PUSH1 0xFF MUL NOT AND SWAP1 DUP4 ISZERO ISZERO MUL OR SWAP1 SSTORE POP PUSH1 0x1 PUSH1 0x2 PUSH1 0x0 DUP3 DUP3 SLOAD PUSH2 0x631 SWAP2 SWAP1 PUSH2 0xE34 JUMP JUMPDEST SWAP3 POP POP DUP2 SWAP1 SSTORE POP POP JUMP JUMPDEST PUSH1 0x1 PUSH1 0x0 CALLER PUSH20 0xFFFFFFFFFFFFFFFFFFFFFFFFFFFFFFFFFFFFFFFF AND PUSH20 0xFFFFFFFFFFFFFFFFFFFFFFFFFFFFFFFFFFFFFFFF AND DUP2 MSTORE PUSH1 0x20 ADD SWAP1 DUP2 MSTORE PUSH1 0x20 ADD PUSH1 0x0 KECCAK256 PUSH1 0x0 SWAP1 SLOAD SWAP1 PUSH2 0x100 EXP SWAP1 DIV PUSH1 0xFF AND PUSH2 0x6C7 JUMPI PUSH1 0x40 MLOAD PUSH32 0x8C379A000000000000000000000000000000000000000000000000000000000 DUP2 MSTORE PUSH1 0x4 ADD PUSH2 0x6BE SWAP1 PUSH2 0xDB6 JUMP JUMPDEST PUSH1 0x40 MLOAD DUP1 SWAP2 SUB SWAP1 REVERT JUMPDEST PUSH1 0x3 PUSH1 0x40 MLOAD DUP1 PUSH1 0xA0 ADD PUSH1 0x40 MSTORE DUP1 DUP5 DUP2 MSTORE PUSH1 0x20 ADD DUP4 DUP2 MSTORE PUSH1 0x20 ADD PUSH1 0x0 DUP2 MSTORE PUSH1 0x20 ADD PUSH1 0x0 PUSH1 0x2 DUP2 GT ISZERO PUSH2 0x6FB JUMPI PUSH2 0x6FA PUSH2 0xA3F JUMP JUMPDEST JUMPDEST DUP2 MSTORE PUSH1 0x20 ADD PUSH1 0x0 ISZERO ISZERO DUP2 MSTORE POP SWAP1 DUP1 PUSH1 0x1 DUP2 SLOAD ADD DUP1 DUP3 SSTORE DUP1 SWAP2 POP POP PUSH1 0x1 SWAP1 SUB SWAP1 PUSH1 0x0 MSTORE PUSH1 0x20 PUSH1 0x0 KECCAK256 SWAP1 PUSH1 0x4 MUL ADD PUSH1 0x0 SWAP1 SWAP2 SWAP1 SWAP2 SWAP1 SWAP2 POP PUSH1 0x0 DUP3 ADD MLOAD DUP2 PUSH1 0x0 ADD SWAP1 DUP2 PUSH2 0x745 SWAP2 SWAP1 PUSH2 0x1074 JUMP JUMPDEST POP PUSH1 0x20 DUP3 ADD MLOAD DUP2 PUSH1 0x1 ADD SWAP1 DUP2 PUSH2 0x75B SWAP2 SWAP1 PUSH2 0x1074 JUMP JUMPDEST POP PUSH1 0x40 DUP3 ADD MLOAD DUP2 PUSH1 0x2 ADD SSTORE PUSH1 0x60 DUP3 ADD MLOAD DUP2 PUSH1 0x3 ADD PUSH1 0x0 PUSH2 0x100 EXP DUP2 SLOAD DUP2 PUSH1 0xFF MUL NOT AND SWAP1 DUP4 PUSH1 0x2 DUP2 GT ISZERO PUSH2 0x791 JUMPI PUSH2 0x790 PUSH2 0xA3F JUMP JUMPDEST JUMPDEST MUL OR SWAP1 SSTORE POP PUSH1 0x80 DUP3 ADD MLOAD DUP2 PUSH1 0x3 ADD PUSH1 0x1 PUSH2 0x100 EXP DUP2 SLOAD DUP2 PUSH1 0xFF MUL NOT AND SWAP1 DUP4 ISZERO ISZERO MUL OR SWAP1 SSTORE POP POP POP POP POP JUMP JUMPDEST PUSH1 0x0 DUP1 SLOAD SWAP1 PUSH2 0x100 EXP SWAP1 DIV PUSH20 0xFFFFFFFFFFFFFFFFFFFFFFFFFFFFFFFFFFFFFFFF AND PUSH20 0xFFFFFFFFFFFFFFFFFFFFFFFFFFFFFFFFFFFFFFFF AND CALLER PUSH20 0xFFFFFFFFFFFFFFFFFFFFFFFFFFFFFFFFFFFFFFFF AND EQ PUSH2 0x814 JUMPI PUSH1 0x0 DUP1 REVERT JUMPDEST PUSH1 0x0 PUSH1 0x3 DUP3 DUP2 SLOAD DUP2 LT PUSH2 0x82A JUMPI PUSH2 0x829 PUSH2 0xDD6 JUMP JUMPDEST JUMPDEST SWAP1 PUSH1 0x0 MSTORE PUSH1 0x20 PUSH1 0x0 KECCAK256 SWAP1 PUSH1 0x4 MUL ADD SWAP1 POP PUSH1 0x1 PUSH1 0x2 DUP2 GT ISZERO PUSH2 0x84E JUMPI PUSH2 0x84D PUSH2 0xA3F JUMP JUMPDEST JUMPDEST DUP2 PUSH1 0x3 ADD PUSH1 0x0 SWAP1 SLOAD SWAP1 PUSH2 0x100 EXP SWAP1 DIV PUSH1 0xFF AND PUSH1 0x2 DUP2 GT ISZERO PUSH2 0x872 JUMPI PUSH2 0x871 PUSH2 0xA3F JUMP JUMPDEST JUMPDEST EQ PUSH2 0x87C JUMPI PUSH1 0x0 DUP1 REVERT JUMPDEST PUSH1 0x2 DUP1 SLOAD PUSH2 0x88A SWAP2 SWAP1 PUSH2 0x1175 JUMP JUMPDEST DUP2 PUSH1 0x2 ADD SLOAD GT PUSH2 0x899 JUMPI PUSH1 0x0 DUP1 REVERT JUMPDEST PUSH1 0x1 PUSH1 0x3 DUP4 DUP2 SLOAD DUP2 LT PUSH2 0x8AF JUMPI PUSH2 0x8AE PUSH2 0xDD6 JUMP JUMPDEST JUMPDEST SWAP1 PUSH1 0x0 MSTORE PUSH1 0x20 PUSH1 0x0 KECCAK256 SWAP1 PUSH1 0x4 MUL ADD PUSH1 0x3 ADD PUSH1 0x1 PUSH2 0x100 EXP DUP2 SLOAD DUP2 PUSH1 0xFF MUL NOT AND SWAP1 DUP4 ISZERO ISZERO MUL OR SWAP1 SSTORE POP PUSH1 0x2 PUSH1 0x3 DUP4 DUP2 SLOAD DUP2 LT PUSH2 0x8ED JUMPI PUSH2 0x8EC PUSH2 0xDD6 JUMP JUMPDEST JUMPDEST SWAP1 PUSH1 0x0 MSTORE PUSH1 0x20 PUSH1 0x0 KECCAK256 SWAP1 PUSH1 0x4 MUL ADD PUSH1 0x3 ADD PUSH1 0x0 PUSH2 0x100 EXP DUP2 SLOAD DUP2 PUSH1 0xFF MUL NOT AND SWAP1 DUP4 PUSH1 0x2 DUP2 GT ISZERO PUSH2 0x920 JUMPI PUSH2 0x91F PUSH2 0xA3F JUMP JUMPDEST JUMPDEST MUL OR SWAP1 SSTORE POP POP POP JUMP JUMPDEST PUSH1 0x0 PUSH1 0x40 MLOAD SWAP1 POP SWAP1 JUMP JUMPDEST PUSH1 0x0 DUP1 REVERT JUMPDEST PUSH1 0x0 DUP1 REVERT JUMPDEST PUSH1 0x0 DUP2 SWAP1 POP SWAP2 SWAP1 POP JUMP JUMPDEST PUSH2 0x950 DUP2 PUSH2 0x93D JUMP JUMPDEST DUP2 EQ PUSH2 0x95B JUMPI PUSH1 0x0 DUP1 REVERT JUMPDEST POP JUMP JUMPDEST PUSH1 0x0 DUP2 CALLDATALOAD SWAP1 POP PUSH2 0x96D DUP2 PUSH2 0x947 JUMP JUMPDEST SWAP3 SWAP2 POP POP JUMP JUMPDEST PUSH1 0x0 PUSH1 0x20 DUP3 DUP5 SUB SLT ISZERO PUSH2 0x989 JUMPI PUSH2 0x988 PUSH2 0x933 JUMP JUMPDEST JUMPDEST PUSH1 0x0 PUSH2 0x997 DUP5 DUP3 DUP6 ADD PUSH2 0x95E JUMP JUMPDEST SWAP2 POP POP SWAP3 SWAP2 POP POP JUMP JUMPDEST PUSH1 0x0 DUP2 MLOAD SWAP1 POP SWAP2 SWAP1 POP JUMP JUMPDEST PUSH1 0x0 DUP3 DUP3 MSTORE PUSH1 0x20 DUP3 ADD SWAP1 POP SWAP3 SWAP2 POP POP JUMP JUMPDEST PUSH1 0x0 JUMPDEST DUP4 DUP2 LT ISZERO PUSH2 0x9DA JUMPI DUP1 DUP3 ADD MLOAD DUP2 DUP5 ADD MSTORE PUSH1 0x20 DUP2 ADD SWAP1 POP PUSH2 0x9BF JUMP JUMPDEST PUSH1 0x0 DUP5 DUP5 ADD MSTORE POP POP POP POP JUMP JUMPDEST PUSH1 0x0 PUSH1 0x1F NOT PUSH1 0x1F DUP4 ADD AND SWAP1 POP SWAP2 SWAP1 POP JUMP JUMPDEST PUSH1 0x0 PUSH2 0xA02 DUP3 PUSH2 0x9A0 JUMP JUMPDEST PUSH2 0xA0C DUP2 DUP6 PUSH2 0x9AB JUMP JUMPDEST SWAP4 POP PUSH2 0xA1C DUP2 DUP6 PUSH1 0x20 DUP7 ADD PUSH2 0x9BC JUMP JUMPDEST PUSH2 0xA25 DUP2 PUSH2 0x9E6 JUMP JUMPDEST DUP5 ADD SWAP2 POP POP SWAP3 SWAP2 POP POP JUMP JUMPDEST PUSH2 0xA39 DUP2 PUSH2 0x93D JUMP JUMPDEST DUP3 MSTORE POP POP JUMP JUMPDEST PUSH32 0x4E487B7100000000000000000000000000000000000000000000000000000000 PUSH1 0x0 MSTORE PUSH1 0x21 PUSH1 0x4 MSTORE PUSH1 0x24 PUSH1 0x0 REVERT JUMPDEST PUSH1 0x3 DUP2 LT PUSH2 0xA7F JUMPI PUSH2 0xA7E PUSH2 0xA3F JUMP JUMPDEST JUMPDEST POP JUMP JUMPDEST PUSH1 0x0 DUP2 SWAP1 POP PUSH2 0xA90 DUP3 PUSH2 0xA6E JUMP JUMPDEST SWAP2 SWAP1 POP JUMP JUMPDEST PUSH1 0x0 PUSH2 0xAA0 DUP3 PUSH2 0xA82 JUMP JUMPDEST SWAP1 POP SWAP2 SWAP1 POP JUMP JUMPDEST PUSH2 0xAB0 DUP2 PUSH2 0xA95 JUMP JUMPDEST DUP3 MSTORE POP POP JUMP JUMPDEST PUSH1 0x0 DUP2 ISZERO ISZERO SWAP1 POP SWAP2 SWAP1 POP JUMP JUMPDEST PUSH2 0xACB DUP2 PUSH2 0xAB6 JUMP JUMPDEST DUP3 MSTORE POP POP JUMP JUMPDEST PUSH1 0x0 PUSH1 0xA0 DUP3 ADD SWAP1 POP DUP2 DUP2 SUB PUSH1 0x0 DUP4 ADD MSTORE PUSH2 0xAEB DUP2 DUP9 PUSH2 0x9F7 JUMP JUMPDEST SWAP1 POP DUP2 DUP2 SUB PUSH1 0x20 DUP4 ADD MSTORE PUSH2 0xAFF DUP2 DUP8 PUSH2 0x9F7 JUMP JUMPDEST SWAP1 POP PUSH2 0xB0E PUSH1 0x40 DUP4 ADD DUP7 PUSH2 0xA30 JUMP JUMPDEST PUSH2 0xB1B PUSH1 0x60 DUP4 ADD DUP6 PUSH2 0xAA7 JUMP JUMPDEST PUSH2 0xB28 PUSH1 0x80 DUP4 ADD DUP5 PUSH2 0xAC2 JUMP JUMPDEST SWAP7 SWAP6 POP POP POP POP POP POP JUMP JUMPDEST PUSH1 0x0 PUSH20 0xFFFFFFFFFFFFFFFFFFFFFFFFFFFFFFFFFFFFFFFF DUP3 AND SWAP1 POP SWAP2 SWAP1 POP JUMP JUMPDEST PUSH1 0x0 PUSH2 0xB5D DUP3 PUSH2 0xB32 JUMP JUMPDEST SWAP1 POP SWAP2 SWAP1 POP JUMP JUMPDEST PUSH2 0xB6D DUP2 PUSH2 0xB52 JUMP JUMPDEST DUP2 EQ PUSH2 0xB78 JUMPI PUSH1 0x0 DUP1 REVERT JUMPDEST POP JUMP JUMPDEST PUSH1 0x0 DUP2 CALLDATALOAD SWAP1 POP PUSH2 0xB8A DUP2 PUSH2 0xB64 JUMP JUMPDEST SWAP3 SWAP2 POP POP JUMP JUMPDEST PUSH1 0x0 PUSH1 0x20 DUP3 DUP5 SUB SLT ISZERO PUSH2 0xBA6 JUMPI PUSH2 0xBA5 PUSH2 0x933 JUMP JUMPDEST JUMPDEST PUSH1 0x0 PUSH2 0xBB4 DUP5 DUP3 DUP6 ADD PUSH2 0xB7B JUMP JUMPDEST SWAP2 POP POP SWAP3 SWAP2 POP POP JUMP JUMPDEST PUSH1 0x0 DUP1 REVERT JUMPDEST PUSH1 0x0 DUP1 REVERT JUMPDEST PUSH32 0x4E487B7100000000000000000000000000000000000000000000000000000000 PUSH1 0x0 MSTORE PUSH1 0x41 PUSH1 0x4 MSTORE PUSH1 0x24 PUSH1 0x0 REVERT JUMPDEST PUSH2 0xBFF DUP3 PUSH2 0x9E6 JUMP JUMPDEST DUP2 ADD DUP2 DUP2 LT PUSH8 0xFFFFFFFFFFFFFFFF DUP3 GT OR ISZERO PUSH2 0xC1E JUMPI PUSH2 0xC1D PUSH2 0xBC7 JUMP JUMPDEST JUMPDEST DUP1 PUSH1 0x40 MSTORE POP POP POP JUMP JUMPDEST PUSH1 0x0 PUSH2 0xC31 PUSH2 0x929 JUMP JUMPDEST SWAP1 POP PUSH2 0xC3D DUP3 DUP3 PUSH2 0xBF6 JUMP JUMPDEST SWAP2 SWAP1 POP JUMP JUMPDEST PUSH1 0x0 PUSH8 0xFFFFFFFFFFFFFFFF DUP3 GT ISZERO PUSH2 0xC5D JUMPI PUSH2 0xC5C PUSH2 0xBC7 JUMP JUMPDEST JUMPDEST PUSH2 0xC66 DUP3 PUSH2 0x9E6 JUMP JUMPDEST SWAP1 POP PUSH1 0x20 DUP2 ADD SWAP1 POP SWAP2 SWAP1 POP JUMP JUMPDEST DUP3 DUP2 DUP4 CALLDATACOPY PUSH1 0x0 DUP4 DUP4 ADD MSTORE POP POP POP JUMP JUMPDEST PUSH1 0x0 PUSH2 0xC95 PUSH2 0xC90 DUP5 PUSH2 0xC42 JUMP JUMPDEST PUSH2 0xC27 JUMP JUMPDEST SWAP1 POP DUP3 DUP2 MSTORE PUSH1 0x20 DUP2 ADD DUP5 DUP5 DUP5 ADD GT ISZERO PUSH2 0xCB1 JUMPI PUSH2 0xCB0 PUSH2 0xBC2 JUMP JUMPDEST JUMPDEST PUSH2 0xCBC DUP5 DUP3 DUP6 PUSH2 0xC73 JUMP JUMPDEST POP SWAP4 SWAP3 POP POP POP JUMP JUMPDEST PUSH1 0x0 DUP3 PUSH1 0x1F DUP4 ADD SLT PUSH2 0xCD9 JUMPI PUSH2 0xCD8 PUSH2 0xBBD JUMP JUMPDEST JUMPDEST DUP2 CALLDATALOAD PUSH2 0xCE9 DUP5 DUP3 PUSH1 0x20 DUP7 ADD PUSH2 0xC82 JUMP JUMPDEST SWAP2 POP POP SWAP3 SWAP2 POP POP JUMP JUMPDEST PUSH1 0x0 DUP1 PUSH1 0x40 DUP4 DUP6 SUB SLT ISZERO PUSH2 0xD09 JUMPI PUSH2 0xD08 PUSH2 0x933 JUMP JUMPDEST JUMPDEST PUSH1 0x0 DUP4 ADD CALLDATALOAD PUSH8 0xFFFFFFFFFFFFFFFF DUP2 GT ISZERO PUSH2 0xD27 JUMPI PUSH2 0xD26 PUSH2 0x938 JUMP JUMPDEST JUMPDEST PUSH2 0xD33 DUP6 DUP3 DUP7 ADD PUSH2 0xCC4 JUMP JUMPDEST SWAP3 POP POP PUSH1 0x20 DUP4 ADD CALLDATALOAD PUSH8 0xFFFFFFFFFFFFFFFF DUP2 GT ISZERO PUSH2 0xD54 JUMPI PUSH2 0xD53 PUSH2 0x938 JUMP JUMPDEST JUMPDEST PUSH2 0xD60 DUP6 DUP3 DUP7 ADD PUSH2 0xCC4 JUMP JUMPDEST SWAP2 POP POP SWAP3 POP SWAP3 SWAP1 POP JUMP JUMPDEST PUSH32 0x6E6F206D656D6265720000000000000000000000000000000000000000000000 PUSH1 0x0 DUP3 ADD MSTORE POP JUMP JUMPDEST PUSH1 0x0 PUSH2 0xDA0 PUSH1 0x9 DUP4 PUSH2 0x9AB JUMP JUMPDEST SWAP2 POP PUSH2 0xDAB DUP3 PUSH2 0xD6A JUMP JUMPDEST PUSH1 0x20 DUP3 ADD SWAP1 POP SWAP2 SWAP1 POP JUMP JUMPDEST PUSH1 0x0 PUSH1 0x20 DUP3 ADD SWAP1 POP DUP2 DUP2 SUB PUSH1 0x0 DUP4 ADD MSTORE PUSH2 0xDCF DUP2 PUSH2 0xD93 JUMP JUMPDEST SWAP1 POP SWAP2 SWAP1 POP JUMP JUMPDEST PUSH32 0x4E487B7100000000000000000000000000000000000000000000000000000000 PUSH1 0x0 MSTORE PUSH1 0x32 PUSH1 0x4 MSTORE PUSH1 0x24 PUSH1 0x0 REVERT JUMPDEST PUSH32 0x4E487B7100000000000000000000000000000000000000000000000000000000 PUSH1 0x0 MSTORE PUSH1 0x11 PUSH1 0x4 MSTORE PUSH1 0x24 PUSH1 0x0 REVERT JUMPDEST PUSH1 0x0 PUSH2 0xE3F DUP3 PUSH2 0x93D JUMP JUMPDEST SWAP2 POP PUSH2 0xE4A DUP4 PUSH2 0x93D JUMP JUMPDEST SWAP3 POP DUP3 DUP3 ADD SWAP1 POP DUP1 DUP3 GT ISZERO PUSH2 0xE62 JUMPI PUSH2 0xE61 PUSH2 0xE05 JUMP JUMPDEST JUMPDEST SWAP3 SWAP2 POP POP JUMP JUMPDEST PUSH32 0x4E487B7100000000000000000000000000000000000000000000000000000000 PUSH1 0x0 MSTORE PUSH1 0x22 PUSH1 0x4 MSTORE PUSH1 0x24 PUSH1 0x0 REVERT JUMPDEST PUSH1 0x0 PUSH1 0x2 DUP3 DIV SWAP1 POP PUSH1 0x1 DUP3 AND DUP1 PUSH2 0xEAF JUMPI PUSH1 0x7F DUP3 AND SWAP2 POP JUMPDEST PUSH1 0x20 DUP3 LT DUP2 SUB PUSH2 0xEC2 JUMPI PUSH2 0xEC1 PUSH2 0xE68 JUMP JUMPDEST JUMPDEST POP SWAP2 SWAP1 POP JUMP JUMPDEST PUSH1 0x0 DUP2 SWAP1 POP DUP2 PUSH1 0x0 MSTORE PUSH1 0x20 PUSH1 0x0 KECCAK256 SWAP1 POP SWAP2 SWAP1 POP JUMP JUMPDEST PUSH1 0x0 PUSH1 0x20 PUSH1 0x1F DUP4 ADD DIV SWAP1 POP SWAP2 SWAP1 POP JUMP JUMPDEST PUSH1 0x0 DUP3 DUP3 SHL SWAP1 POP SWAP3 SWAP2 POP POP JUMP JUMPDEST PUSH1 0x0 PUSH1 0x8 DUP4 MUL PUSH2 0xF2A PUSH32 0xFFFFFFFFFFFFFFFFFFFFFFFFFFFFFFFFFFFFFFFFFFFFFFFFFFFFFFFFFFFFFFFF DUP3 PUSH2 0xEED JUMP JUMPDEST PUSH2 0xF34 DUP7 DUP4 PUSH2 0xEED JUMP JUMPDEST SWAP6 POP DUP1 NOT DUP5 AND SWAP4 POP DUP1 DUP7 AND DUP5 OR SWAP3 POP POP POP SWAP4 SWAP3 POP POP POP JUMP JUMPDEST PUSH1 0x0 DUP2 SWAP1 POP SWAP2 SWAP1 POP JUMP JUMPDEST PUSH1 0x0 PUSH2 0xF71 PUSH2 0xF6C PUSH2 0xF67 DUP5 PUSH2 0x93D JUMP JUMPDEST PUSH2 0xF4C JUMP JUMPDEST PUSH2 0x93D JUMP JUMPDEST SWAP1 POP SWAP2 SWAP1 POP JUMP JUMPDEST PUSH1 0x0 DUP2 SWAP1 POP SWAP2 SWAP1 POP JUMP JUMPDEST PUSH2 0xF8B DUP4 PUSH2 0xF56 JUMP JUMPDEST PUSH2 0xF9F PUSH2 0xF97 DUP3 PUSH2 0xF78 JUMP JUMPDEST DUP5 DUP5 SLOAD PUSH2 0xEFA JUMP JUMPDEST DUP3 SSTORE POP POP POP POP JUMP JUMPDEST PUSH1 0x0 SWAP1 JUMP JUMPDEST PUSH2 0xFB4 PUSH2 0xFA7 JUMP JUMPDEST PUSH2 0xFBF DUP2 DUP5 DUP5 PUSH2 0xF82 JUMP JUMPDEST POP POP POP JUMP JUMPDEST JUMPDEST DUP2 DUP2 LT ISZERO PUSH2 0xFE3 JUMPI PUSH2 0xFD8 PUSH1 0x0 DUP3 PUSH2 0xFAC JUMP JUMPDEST PUSH1 0x1 DUP2 ADD SWAP1 POP PUSH2 0xFC5 JUMP JUMPDEST POP POP JUMP JUMPDEST PUSH1 0x1F DUP3 GT ISZERO PUSH2 0x1028 JUMPI PUSH2 0xFF9 DUP2 PUSH2 0xEC8 JUMP JUMPDEST PUSH2 0x1002 DUP5 PUSH2 0xEDD JUMP JUMPDEST DUP2 ADD PUSH1 0x20 DUP6 LT ISZERO PUSH2 0x1011 JUMPI DUP2 SWAP1 POP JUMPDEST PUSH2 0x1025 PUSH2 0x101D DUP6 PUSH2 0xEDD JUMP JUMPDEST DUP4 ADD DUP3 PUSH2 0xFC4 JUMP JUMPDEST POP POP JUMPDEST POP POP POP JUMP JUMPDEST PUSH1 0x0 DUP3 DUP3 SHR SWAP1 POP SWAP3 SWAP2 POP POP JUMP JUMPDEST PUSH1 0x0 PUSH2 0x104B PUSH1 0x0 NOT DUP5 PUSH1 0x8 MUL PUSH2 0x102D JUMP JUMPDEST NOT DUP1 DUP4 AND SWAP2 POP POP SWAP3 SWAP2 POP POP JUMP JUMPDEST PUSH1 0x0 PUSH2 0x1064 DUP4 DUP4 PUSH2 0x103A JUMP JUMPDEST SWAP2 POP DUP3 PUSH1 0x2 MUL DUP3 OR SWAP1 POP SWAP3 SWAP2 POP POP JUMP JUMPDEST PUSH2 0x107D DUP3 PUSH2 0x9A0 JUMP JUMPDEST PUSH8 0xFFFFFFFFFFFFFFFF DUP2 GT ISZERO PUSH2 0x1096 JUMPI PUSH2 0x1095 PUSH2 0xBC7 JUMP JUMPDEST JUMPDEST PUSH2 0x10A0 DUP3 SLOAD PUSH2 0xE97 JUMP JUMPDEST PUSH2 0x10AB DUP3 DUP3 DUP6 PUSH2 0xFE7 JUMP JUMPDEST PUSH1 0x0 PUSH1 0x20 SWAP1 POP PUSH1 0x1F DUP4 GT PUSH1 0x1 DUP2 EQ PUSH2 0x10DE JUMPI PUSH1 0x0 DUP5 ISZERO PUSH2 0x10CC JUMPI DUP3 DUP8 ADD MLOAD SWAP1 POP JUMPDEST PUSH2 0x10D6 DUP6 DUP3 PUSH2 0x1058 JUMP JUMPDEST DUP7 SSTORE POP PUSH2 0x113E JUMP JUMPDEST PUSH1 0x1F NOT DUP5 AND PUSH2 0x10EC DUP7 PUSH2 0xEC8 JUMP JUMPDEST PUSH1 0x0 JUMPDEST DUP3 DUP2 LT ISZERO PUSH2 0x1114 JUMPI DUP5 DUP10 ADD MLOAD DUP3 SSTORE PUSH1 0x1 DUP3 ADD SWAP2 POP PUSH1 0x20 DUP6 ADD SWAP5 POP PUSH1 0x20 DUP2 ADD SWAP1 POP PUSH2 0x10EF JUMP JUMPDEST DUP7 DUP4 LT ISZERO PUSH2 0x1131 JUMPI DUP5 DUP10 ADD MLOAD PUSH2 0x112D PUSH1 0x1F DUP10 AND DUP3 PUSH2 0x103A JUMP JUMPDEST DUP4 SSTORE POP JUMPDEST PUSH1 0x1 PUSH1 0x2 DUP9 MUL ADD DUP9 SSTORE POP POP POP JUMPDEST POP POP POP POP POP POP JUMP JUMPDEST PUSH32 0x4E487B7100000000000000000000000000000000000000000000000000000000 PUSH1 0x0 MSTORE PUSH1 0x12 PUSH1 0x4 MSTORE PUSH1 0x24 PUSH1 0x0 REVERT JUMPDEST PUSH1 0x0 PUSH2 0x1180 DUP3 PUSH2 0x93D JUMP JUMPDEST SWAP2 POP PUSH2 0x118B DUP4 PUSH2 0x93D JUMP JUMPDEST SWAP3 POP DUP3 PUSH2 0x119B JUMPI PUSH2 0x119A PUSH2 0x1146 JUMP JUMPDEST JUMPDEST DUP3 DUP3 DIV SWAP1 POP SWAP3 SWAP2 POP POP JUMP INVALID LOG2 PUSH5 0x6970667358 0x22 SLT KECCAK256 SWAP9 DUP11 0x4C 0x2C DUP1 PUSH5 0x6251D55D3B PUSH26 0x1A7D8DF693F98ECF44E9CB997950E235921390D364736F6C6343 STOP ADDMOD SLT STOP CALLER "
				},
				"gasEstimates": {
					"creation": {
						"codeDepositCost": "914400",
						"executionCost": "infinite",
						"totalCost": "infinite"
					},
					"external": {
						"createProposal(string,string)": "infinite",
						"endVote(uint256)": "infinite",
						"proposals(uint256)": "infinite",
						"setghMenbers(address)": "infinite",
						"startVote(uint256)": "31283",
						"vote(uint256)": "infinite"
					}
				},
				"methodIdentifiers": {
					"createProposal(string,string)": "65e481e2",
					"endVote(uint256)": "865df0ad",
					"proposals(uint256)": "013cf08b",
					"setghMenbers(address)": "44da4b34",
					"startVote(uint256)": "3f220524",
					"vote(uint256)": "0121b93f"
				}
			},
			"storageLayout": {
				"storage": [
					{
						"astId": 3,
						"contract": "contracts/DAO.sol:DAO",
						"label": "owner",
						"offset": 0,
						"slot": "0",
						"type": "t_address"
					},
					{
						"astId": 7,
						"contract": "contracts/DAO.sol:DAO",
						"label": "members",
						"offset": 0,
						"slot": "1",
						"type": "t_mapping(t_address,t_bool)"
					},
					{
						"astId": 9,
						"contract": "contracts/DAO.sol:DAO",
						"label": "memberCount",
						"offset": 0,
						"slot": "2",
						"type": "t_uint256"
					},
					{
						"astId": 13,
						"contract": "contracts/DAO.sol:DAO",
						"label": "proposals",
						"offset": 0,
						"slot": "3",
						"type": "t_array(t_struct(Proposal)55_storage)dyn_storage"
					},
					{
						"astId": 19,
						"contract": "contracts/DAO.sol:DAO",
						"label": "voted",
						"offset": 0,
						"slot": "4",
						"type": "t_mapping(t_address,t_mapping(t_uint256,t_bool))"
					}
				],
				"types": {
					"t_address": {
						"encoding": "inplace",
						"label": "address",
						"numberOfBytes": "20"
					},
					"t_array(t_struct(Proposal)55_storage)dyn_storage": {
						"base": "t_struct(Proposal)55_storage",
						"encoding": "dynamic_array",
						"label": "struct DAO.Proposal[]",
						"numberOfBytes": "32"
					},
					"t_bool": {
						"encoding": "inplace",
						"label": "bool",
						"numberOfBytes": "1"
					},
					"t_enum(Play)43": {
						"encoding": "inplace",
						"label": "enum DAO.Play",
						"numberOfBytes": "1"
					},
					"t_mapping(t_address,t_bool)": {
						"encoding": "mapping",
						"key": "t_address",
						"label": "mapping(address => bool)",
						"numberOfBytes": "32",
						"value": "t_bool"
					},
					"t_mapping(t_address,t_mapping(t_uint256,t_bool))": {
						"encoding": "mapping",
						"key": "t_address",
						"label": "mapping(address => mapping(uint256 => bool))",
						"numberOfBytes": "32",
						"value": "t_mapping(t_uint256,t_bool)"
					},
					"t_mapping(t_uint256,t_bool)": {
						"encoding": "mapping",
						"key": "t_uint256",
						"label": "mapping(uint256 => bool)",
						"numberOfBytes": "32",
						"value": "t_bool"
					},
					"t_string_storage": {
						"encoding": "bytes",
						"label": "string",
						"numberOfBytes": "32"
					},
					"t_struct(Proposal)55_storage": {
						"encoding": "inplace",
						"label": "struct DAO.Proposal",
						"members": [
							{
								"astId": 45,
								"contract": "contracts/DAO.sol:DAO",
								"label": "title",
								"offset": 0,
								"slot": "0",
								"type": "t_string_storage"
							},
							{
								"astId": 47,
								"contract": "contracts/DAO.sol:DAO",
								"label": "text",
								"offset": 0,
								"slot": "1",
								"type": "t_string_storage"
							},
							{
								"astId": 49,
								"contract": "contracts/DAO.sol:DAO",
								"label": "votes",
								"offset": 0,
								"slot": "2",
								"type": "t_uint256"
							},
							{
								"astId": 52,
								"contract": "contracts/DAO.sol:DAO",
								"label": "plays",
								"offset": 0,
								"slot": "3",
								"type": "t_enum(Play)43"
							},
							{
								"astId": 54,
								"contract": "contracts/DAO.sol:DAO",
								"label": "execute",
								"offset": 1,
								"slot": "3",
								"type": "t_bool"
							}
						],
						"numberOfBytes": "128"
					},
					"t_uint256": {
						"encoding": "inplace",
						"label": "uint256",
						"numberOfBytes": "32"
					}
				}
			},
			"userdoc": {
				"kind": "user",
				"methods": {},
				"version": 1
			}
		}
	}
}