{
	"src/contracts/metaTransacion.sol": {
		"MetaTransaction": {
			"abi": [
				{
					"inputs": [
						{
							"internalType": "address",
							"name": "_CA",
							"type": "address"
						}
					],
					"stateMutability": "nonpayable",
					"type": "constructor"
				},
				{
					"anonymous": false,
					"inputs": [
						{
							"indexed": false,
							"internalType": "bytes32",
							"name": "r",
							"type": "bytes32"
						},
						{
							"indexed": false,
							"internalType": "bytes32",
							"name": "s",
							"type": "bytes32"
						},
						{
							"indexed": false,
							"internalType": "uint8",
							"name": "v",
							"type": "uint8"
						}
					],
					"name": "event02",
					"type": "event"
				},
				{
					"anonymous": false,
					"inputs": [
						{
							"indexed": false,
							"internalType": "address",
							"name": "account",
							"type": "address"
						}
					],
					"name": "event03",
					"type": "event"
				},
				{
					"anonymous": false,
					"inputs": [
						{
							"indexed": false,
							"internalType": "address",
							"name": "from",
							"type": "address"
						},
						{
							"indexed": false,
							"internalType": "string",
							"name": "_msg",
							"type": "string"
						}
					],
					"name": "evnet01",
					"type": "event"
				},
				{
					"inputs": [
						{
							"internalType": "address[]",
							"name": "_address",
							"type": "address[]"
						},
						{
							"internalType": "uint256[]",
							"name": "token",
							"type": "uint256[]"
						},
						{
							"internalType": "string[]",
							"name": "message",
							"type": "string[]"
						},
						{
							"internalType": "bytes[]",
							"name": "signature",
							"type": "bytes[]"
						}
					],
					"name": "mint",
					"outputs": [],
					"stateMutability": "nonpayable",
					"type": "function"
				},
				{
					"inputs": [
						{
							"internalType": "address",
							"name": "user",
							"type": "address"
						},
						{
							"internalType": "string",
							"name": "_msg",
							"type": "string"
						},
						{
							"internalType": "bytes",
							"name": "signature",
							"type": "bytes"
						}
					],
					"name": "signTransaction",
					"outputs": [],
					"stateMutability": "nonpayable",
					"type": "function"
				},
				{
					"inputs": [
						{
							"internalType": "bytes",
							"name": "sign",
							"type": "bytes"
						}
					],
					"name": "splitSign",
					"outputs": [
						{
							"internalType": "bytes32",
							"name": "r",
							"type": "bytes32"
						},
						{
							"internalType": "bytes32",
							"name": "s",
							"type": "bytes32"
						},
						{
							"internalType": "uint8",
							"name": "v",
							"type": "uint8"
						}
					],
					"stateMutability": "pure",
					"type": "function"
				}
			],
			"devdoc": {
				"kind": "dev",
				"methods": {},
				"version": 1
			},
			"evm": {
				"assembly": "    /* \"src/contracts/metaTransacion.sol\":143:2766  contract MetaTransaction {... */\n  mstore(0x40, 0x80)\n    /* \"src/contracts/metaTransacion.sol\":203:273  constructor(address _CA) {... */\n  callvalue\n  dup1\n  iszero\n  tag_1\n  jumpi\n  0x00\n  dup1\n  revert\ntag_1:\n  pop\n  mload(0x40)\n  sub(codesize, bytecodeSize)\n  dup1\n  bytecodeSize\n  dup4\n  codecopy\n  dup2\n  dup2\n  add\n  0x40\n  mstore\n  dup2\n  add\n  swap1\n  tag_2\n  swap2\n  swap1\n  tag_3\n  jump\t// in\ntag_2:\n    /* \"src/contracts/metaTransacion.sol\":261:264  _CA */\n  dup1\n    /* \"src/contracts/metaTransacion.sol\":239:248  soonToken */\n  0x00\n  dup1\n    /* \"src/contracts/metaTransacion.sol\":239:265  soonToken = SoonToken(_CA) */\n  0x0100\n  exp\n  dup2\n  sload\n  dup2\n  0xffffffffffffffffffffffffffffffffffffffff\n  mul\n  not\n  and\n  swap1\n  dup4\n  0xffffffffffffffffffffffffffffffffffffffff\n  and\n  mul\n  or\n  swap1\n  sstore\n  pop\n    /* \"src/contracts/metaTransacion.sol\":203:273  constructor(address _CA) {... */\n  pop\n    /* \"src/contracts/metaTransacion.sol\":143:2766  contract MetaTransaction {... */\n  jump(tag_6)\n    /* \"#utility.yul\":88:205   */\ntag_8:\n    /* \"#utility.yul\":197:198   */\n  0x00\n    /* \"#utility.yul\":194:195   */\n  dup1\n    /* \"#utility.yul\":187:199   */\n  revert\n    /* \"#utility.yul\":334:460   */\ntag_10:\n    /* \"#utility.yul\":371:378   */\n  0x00\n    /* \"#utility.yul\":411:453   */\n  0xffffffffffffffffffffffffffffffffffffffff\n    /* \"#utility.yul\":404:409   */\n  dup3\n    /* \"#utility.yul\":400:454   */\n  and\n    /* \"#utility.yul\":389:454   */\n  swap1\n  pop\n    /* \"#utility.yul\":334:460   */\n  swap2\n  swap1\n  pop\n  jump\t// out\n    /* \"#utility.yul\":466:562   */\ntag_11:\n    /* \"#utility.yul\":503:510   */\n  0x00\n    /* \"#utility.yul\":532:556   */\n  tag_20\n    /* \"#utility.yul\":550:555   */\n  dup3\n    /* \"#utility.yul\":532:556   */\n  tag_10\n  jump\t// in\ntag_20:\n    /* \"#utility.yul\":521:556   */\n  swap1\n  pop\n    /* \"#utility.yul\":466:562   */\n  swap2\n  swap1\n  pop\n  jump\t// out\n    /* \"#utility.yul\":568:690   */\ntag_12:\n    /* \"#utility.yul\":641:665   */\n  tag_22\n    /* \"#utility.yul\":659:664   */\n  dup2\n    /* \"#utility.yul\":641:665   */\n  tag_11\n  jump\t// in\ntag_22:\n    /* \"#utility.yul\":634:639   */\n  dup2\n    /* \"#utility.yul\":631:666   */\n  eq\n    /* \"#utility.yul\":621:684   */\n  tag_23\n  jumpi\n    /* \"#utility.yul\":680:681   */\n  0x00\n    /* \"#utility.yul\":677:678   */\n  dup1\n    /* \"#utility.yul\":670:682   */\n  revert\n    /* \"#utility.yul\":621:684   */\ntag_23:\n    /* \"#utility.yul\":568:690   */\n  pop\n  jump\t// out\n    /* \"#utility.yul\":696:839   */\ntag_13:\n    /* \"#utility.yul\":753:758   */\n  0x00\n    /* \"#utility.yul\":784:790   */\n  dup2\n    /* \"#utility.yul\":778:791   */\n  mload\n    /* \"#utility.yul\":769:791   */\n  swap1\n  pop\n    /* \"#utility.yul\":800:833   */\n  tag_25\n    /* \"#utility.yul\":827:832   */\n  dup2\n    /* \"#utility.yul\":800:833   */\n  tag_12\n  jump\t// in\ntag_25:\n    /* \"#utility.yul\":696:839   */\n  swap3\n  swap2\n  pop\n  pop\n  jump\t// out\n    /* \"#utility.yul\":845:1196   */\ntag_3:\n    /* \"#utility.yul\":915:921   */\n  0x00\n    /* \"#utility.yul\":964:966   */\n  0x20\n    /* \"#utility.yul\":952:961   */\n  dup3\n    /* \"#utility.yul\":943:950   */\n  dup5\n    /* \"#utility.yul\":939:962   */\n  sub\n    /* \"#utility.yul\":935:967   */\n  slt\n    /* \"#utility.yul\":932:1051   */\n  iszero\n  tag_27\n  jumpi\n    /* \"#utility.yul\":970:1049   */\n  tag_28\n  tag_8\n  jump\t// in\ntag_28:\n    /* \"#utility.yul\":932:1051   */\ntag_27:\n    /* \"#utility.yul\":1090:1091   */\n  0x00\n    /* \"#utility.yul\":1115:1179   */\n  tag_29\n    /* \"#utility.yul\":1171:1178   */\n  dup5\n    /* \"#utility.yul\":1162:1168   */\n  dup3\n    /* \"#utility.yul\":1151:1160   */\n  dup6\n    /* \"#utility.yul\":1147:1169   */\n  add\n    /* \"#utility.yul\":1115:1179   */\n  tag_13\n  jump\t// in\ntag_29:\n    /* \"#utility.yul\":1105:1179   */\n  swap2\n  pop\n    /* \"#utility.yul\":1061:1189   */\n  pop\n    /* \"#utility.yul\":845:1196   */\n  swap3\n  swap2\n  pop\n  pop\n  jump\t// out\n    /* \"src/contracts/metaTransacion.sol\":143:2766  contract MetaTransaction {... */\ntag_6:\n  dataSize(sub_0)\n  dup1\n  dataOffset(sub_0)\n  0x00\n  codecopy\n  0x00\n  return\nstop\n\nsub_0: assembly {\n        /* \"src/contracts/metaTransacion.sol\":143:2766  contract MetaTransaction {... */\n      mstore(0x40, 0x80)\n      callvalue\n      dup1\n      iszero\n      tag_1\n      jumpi\n      0x00\n      dup1\n      revert\n    tag_1:\n      pop\n      jumpi(tag_2, lt(calldatasize, 0x04))\n      shr(0xe0, calldataload(0x00))\n      dup1\n      0x2ff4bb4b\n      eq\n      tag_3\n      jumpi\n      dup1\n      0x883a6c75\n      eq\n      tag_4\n      jumpi\n      dup1\n      0x95e0e0c9\n      eq\n      tag_5\n      jumpi\n    tag_2:\n      0x00\n      dup1\n      revert\n        /* \"src/contracts/metaTransacion.sol\":1867:2626  function splitSign(... */\n    tag_3:\n      tag_6\n      0x04\n      dup1\n      calldatasize\n      sub\n      dup2\n      add\n      swap1\n      tag_7\n      swap2\n      swap1\n      tag_8\n      jump\t// in\n    tag_7:\n      tag_9\n      jump\t// in\n    tag_6:\n      mload(0x40)\n      tag_10\n      swap4\n      swap3\n      swap2\n      swap1\n      tag_11\n      jump\t// in\n    tag_10:\n      mload(0x40)\n      dup1\n      swap2\n      sub\n      swap1\n      return\n        /* \"src/contracts/metaTransacion.sol\":281:754  function mint(... */\n    tag_4:\n      tag_12\n      0x04\n      dup1\n      calldatasize\n      sub\n      dup2\n      add\n      swap1\n      tag_13\n      swap2\n      swap1\n      tag_14\n      jump\t// in\n    tag_13:\n      tag_15\n      jump\t// in\n    tag_12:\n      stop\n        /* \"src/contracts/metaTransacion.sol\":762:1361  function signTransaction(... */\n    tag_5:\n      tag_16\n      0x04\n      dup1\n      calldatasize\n      sub\n      dup2\n      add\n      swap1\n      tag_17\n      swap2\n      swap1\n      tag_18\n      jump\t// in\n    tag_17:\n      tag_19\n      jump\t// in\n    tag_16:\n      stop\n        /* \"src/contracts/metaTransacion.sol\":1867:2626  function splitSign(... */\n    tag_9:\n        /* \"src/contracts/metaTransacion.sol\":1942:1951  bytes32 r */\n      0x00\n        /* \"src/contracts/metaTransacion.sol\":1953:1962  bytes32 s */\n      dup1\n        /* \"src/contracts/metaTransacion.sol\":1964:1971  uint8 v */\n      0x00\n        /* \"src/contracts/metaTransacion.sol\":2046:2048  65 */\n      0x41\n        /* \"src/contracts/metaTransacion.sol\":2031:2035  sign */\n      dup5\n        /* \"src/contracts/metaTransacion.sol\":2031:2042  sign.length */\n      mload\n        /* \"src/contracts/metaTransacion.sol\":2031:2048  sign.length == 65 */\n      eq\n        /* \"src/contracts/metaTransacion.sol\":2023:2049  require(sign.length == 65) */\n      tag_21\n      jumpi\n      0x00\n      dup1\n      revert\n    tag_21:\n        /* \"src/contracts/metaTransacion.sol\":2251:2253  32 */\n      0x20\n        /* \"src/contracts/metaTransacion.sol\":2245:2249  sign */\n      dup5\n        /* \"src/contracts/metaTransacion.sol\":2241:2254  add(sign, 32) */\n      add\n        /* \"src/contracts/metaTransacion.sol\":2235:2255  mload(add(sign, 32)) */\n      mload\n        /* \"src/contracts/metaTransacion.sol\":2230:2255  r := mload(add(sign, 32)) */\n      swap3\n      pop\n        /* \"src/contracts/metaTransacion.sol\":2353:2355  64 */\n      0x40\n        /* \"src/contracts/metaTransacion.sol\":2347:2351  sign */\n      dup5\n        /* \"src/contracts/metaTransacion.sol\":2343:2356  add(sign, 64) */\n      add\n        /* \"src/contracts/metaTransacion.sol\":2337:2357  mload(add(sign, 64)) */\n      mload\n        /* \"src/contracts/metaTransacion.sol\":2332:2357  s := mload(add(sign, 64)) */\n      swap2\n      pop\n        /* \"src/contracts/metaTransacion.sol\":2454:2456  96 */\n      0x60\n        /* \"src/contracts/metaTransacion.sol\":2448:2452  sign */\n      dup5\n        /* \"src/contracts/metaTransacion.sol\":2444:2457  add(sign, 96) */\n      add\n        /* \"src/contracts/metaTransacion.sol\":2438:2458  mload(add(sign, 96)) */\n      mload\n        /* \"src/contracts/metaTransacion.sol\":2435:2436  0 */\n      0x00\n        /* \"src/contracts/metaTransacion.sol\":2430:2459  byte(0, mload(add(sign, 96))) */\n      byte\n        /* \"src/contracts/metaTransacion.sol\":2425:2459  v := byte(0, mload(add(sign, 96))) */\n      swap1\n      pop\n        /* \"src/contracts/metaTransacion.sol\":2541:2543  27 */\n      0x1b\n        /* \"src/contracts/metaTransacion.sol\":2537:2538  v */\n      dup2\n        /* \"src/contracts/metaTransacion.sol\":2537:2543  v < 27 */\n      0xff\n      and\n      lt\n        /* \"src/contracts/metaTransacion.sol\":2533:2579  if (v < 27) {... */\n      iszero\n      tag_22\n      jumpi\n        /* \"src/contracts/metaTransacion.sol\":2565:2567  27 */\n      0x1b\n        /* \"src/contracts/metaTransacion.sol\":2560:2567  v += 27 */\n      dup2\n      tag_23\n      swap2\n      swap1\n      tag_24\n      jump\t// in\n    tag_23:\n      swap1\n      pop\n        /* \"src/contracts/metaTransacion.sol\":2533:2579  if (v < 27) {... */\n    tag_22:\n        /* \"src/contracts/metaTransacion.sol\":2604:2606  27 */\n      0x1b\n        /* \"src/contracts/metaTransacion.sol\":2599:2600  v */\n      dup2\n        /* \"src/contracts/metaTransacion.sol\":2599:2606  v == 27 */\n      0xff\n      and\n      eq\n        /* \"src/contracts/metaTransacion.sol\":2599:2617  v == 27 || v == 28 */\n      dup1\n      tag_25\n      jumpi\n      pop\n        /* \"src/contracts/metaTransacion.sol\":2615:2617  28 */\n      0x1c\n        /* \"src/contracts/metaTransacion.sol\":2610:2611  v */\n      dup2\n        /* \"src/contracts/metaTransacion.sol\":2610:2617  v == 28 */\n      0xff\n      and\n      eq\n        /* \"src/contracts/metaTransacion.sol\":2599:2617  v == 27 || v == 28 */\n    tag_25:\n        /* \"src/contracts/metaTransacion.sol\":2591:2618  require(v == 27 || v == 28) */\n      tag_26\n      jumpi\n      0x00\n      dup1\n      revert\n    tag_26:\n        /* \"src/contracts/metaTransacion.sol\":1867:2626  function splitSign(... */\n      swap2\n      swap4\n      swap1\n      swap3\n      pop\n      jump\t// out\n        /* \"src/contracts/metaTransacion.sol\":281:754  function mint(... */\n    tag_15:\n        /* \"src/contracts/metaTransacion.sol\":460:469  uint256 i */\n      0x00\n        /* \"src/contracts/metaTransacion.sol\":455:747  for (uint256 i = 0; i < _address.length; i++) {... */\n    tag_28:\n        /* \"src/contracts/metaTransacion.sol\":479:487  _address */\n      dup5\n        /* \"src/contracts/metaTransacion.sol\":479:494  _address.length */\n      mload\n        /* \"src/contracts/metaTransacion.sol\":475:476  i */\n      dup2\n        /* \"src/contracts/metaTransacion.sol\":475:494  i < _address.length */\n      lt\n        /* \"src/contracts/metaTransacion.sol\":455:747  for (uint256 i = 0; i < _address.length; i++) {... */\n      iszero\n      tag_29\n      jumpi\n        /* \"src/contracts/metaTransacion.sol\":577:631  signTransaction(_address[i], message[i], signature[i]) */\n      tag_31\n        /* \"src/contracts/metaTransacion.sol\":593:601  _address */\n      dup6\n        /* \"src/contracts/metaTransacion.sol\":602:603  i */\n      dup3\n        /* \"src/contracts/metaTransacion.sol\":593:604  _address[i] */\n      dup2\n      mload\n      dup2\n      lt\n      tag_32\n      jumpi\n      tag_33\n      tag_34\n      jump\t// in\n    tag_33:\n    tag_32:\n      0x20\n      mul\n      0x20\n      add\n      add\n      mload\n        /* \"src/contracts/metaTransacion.sol\":606:613  message */\n      dup5\n        /* \"src/contracts/metaTransacion.sol\":614:615  i */\n      dup4\n        /* \"src/contracts/metaTransacion.sol\":606:616  message[i] */\n      dup2\n      mload\n      dup2\n      lt\n      tag_35\n      jumpi\n      tag_36\n      tag_34\n      jump\t// in\n    tag_36:\n    tag_35:\n      0x20\n      mul\n      0x20\n      add\n      add\n      mload\n        /* \"src/contracts/metaTransacion.sol\":618:627  signature */\n      dup5\n        /* \"src/contracts/metaTransacion.sol\":628:629  i */\n      dup5\n        /* \"src/contracts/metaTransacion.sol\":618:630  signature[i] */\n      dup2\n      mload\n      dup2\n      lt\n      tag_37\n      jumpi\n      tag_38\n      tag_34\n      jump\t// in\n    tag_38:\n    tag_37:\n      0x20\n      mul\n      0x20\n      add\n      add\n      mload\n        /* \"src/contracts/metaTransacion.sol\":577:592  signTransaction */\n      tag_19\n        /* \"src/contracts/metaTransacion.sol\":577:631  signTransaction(_address[i], message[i], signature[i]) */\n      jump\t// in\n    tag_31:\n        /* \"src/contracts/metaTransacion.sol\":646:655  soonToken */\n      0x00\n      dup1\n      sload\n      swap1\n      0x0100\n      exp\n      swap1\n      div\n      0xffffffffffffffffffffffffffffffffffffffff\n      and\n        /* \"src/contracts/metaTransacion.sol\":646:660  soonToken.mint */\n      0xffffffffffffffffffffffffffffffffffffffff\n      and\n      0x40c10f19\n        /* \"src/contracts/metaTransacion.sol\":661:669  _address */\n      dup7\n        /* \"src/contracts/metaTransacion.sol\":670:671  i */\n      dup4\n        /* \"src/contracts/metaTransacion.sol\":661:672  _address[i] */\n      dup2\n      mload\n      dup2\n      lt\n      tag_39\n      jumpi\n      tag_40\n      tag_34\n      jump\t// in\n    tag_40:\n    tag_39:\n      0x20\n      mul\n      0x20\n      add\n      add\n      mload\n        /* \"src/contracts/metaTransacion.sol\":674:679  token */\n      dup7\n        /* \"src/contracts/metaTransacion.sol\":680:681  i */\n      dup5\n        /* \"src/contracts/metaTransacion.sol\":674:682  token[i] */\n      dup2\n      mload\n      dup2\n      lt\n      tag_41\n      jumpi\n      tag_42\n      tag_34\n      jump\t// in\n    tag_42:\n    tag_41:\n      0x20\n      mul\n      0x20\n      add\n      add\n      mload\n        /* \"src/contracts/metaTransacion.sol\":646:683  soonToken.mint(_address[i], token[i]) */\n      mload(0x40)\n      dup4\n      0xffffffff\n      and\n      0xe0\n      shl\n      dup2\n      mstore\n      0x04\n      add\n      tag_43\n      swap3\n      swap2\n      swap1\n      tag_44\n      jump\t// in\n    tag_43:\n      0x00\n      mload(0x40)\n      dup1\n      dup4\n      sub\n      dup2\n      0x00\n      dup8\n      dup1\n      extcodesize\n      iszero\n      dup1\n      iszero\n      tag_45\n      jumpi\n      0x00\n      dup1\n      revert\n    tag_45:\n      pop\n      gas\n      call\n      iszero\n      dup1\n      iszero\n      tag_47\n      jumpi\n      returndatasize\n      0x00\n      dup1\n      returndatacopy\n      revert(0x00, returndatasize)\n    tag_47:\n      pop\n      pop\n      pop\n      pop\n        /* \"src/contracts/metaTransacion.sol\":703:735  evnet01(_address[i], message[i]) */\n      0x710c6bec3cf443b5afbda9ff86716f3a0d00db3ddaee6cc493c93be240533e12\n        /* \"src/contracts/metaTransacion.sol\":711:719  _address */\n      dup6\n        /* \"src/contracts/metaTransacion.sol\":720:721  i */\n      dup3\n        /* \"src/contracts/metaTransacion.sol\":711:722  _address[i] */\n      dup2\n      mload\n      dup2\n      lt\n      tag_48\n      jumpi\n      tag_49\n      tag_34\n      jump\t// in\n    tag_49:\n    tag_48:\n      0x20\n      mul\n      0x20\n      add\n      add\n      mload\n        /* \"src/contracts/metaTransacion.sol\":724:731  message */\n      dup5\n        /* \"src/contracts/metaTransacion.sol\":732:733  i */\n      dup4\n        /* \"src/contracts/metaTransacion.sol\":724:734  message[i] */\n      dup2\n      mload\n      dup2\n      lt\n      tag_50\n      jumpi\n      tag_51\n      tag_34\n      jump\t// in\n    tag_51:\n    tag_50:\n      0x20\n      mul\n      0x20\n      add\n      add\n      mload\n        /* \"src/contracts/metaTransacion.sol\":703:735  evnet01(_address[i], message[i]) */\n      mload(0x40)\n      tag_52\n      swap3\n      swap2\n      swap1\n      tag_53\n      jump\t// in\n    tag_52:\n      mload(0x40)\n      dup1\n      swap2\n      sub\n      swap1\n      log1\n        /* \"src/contracts/metaTransacion.sol\":496:499  i++ */\n      dup1\n      dup1\n      0x01\n      add\n      swap2\n      pop\n      pop\n        /* \"src/contracts/metaTransacion.sol\":455:747  for (uint256 i = 0; i < _address.length; i++) {... */\n      jump(tag_28)\n    tag_29:\n      pop\n        /* \"src/contracts/metaTransacion.sol\":281:754  function mint(... */\n      pop\n      pop\n      pop\n      pop\n      jump\t// out\n        /* \"src/contracts/metaTransacion.sol\":762:1361  function signTransaction(... */\n    tag_19:\n        /* \"src/contracts/metaTransacion.sol\":897:912  bytes32 ethSign */\n      0x00\n        /* \"src/contracts/metaTransacion.sol\":915:938  getEthSignMsgHash(_msg) */\n      tag_55\n        /* \"src/contracts/metaTransacion.sol\":933:937  _msg */\n      dup4\n        /* \"src/contracts/metaTransacion.sol\":915:932  getEthSignMsgHash */\n      tag_56\n        /* \"src/contracts/metaTransacion.sol\":915:938  getEthSignMsgHash(_msg) */\n      jump\t// in\n    tag_55:\n        /* \"src/contracts/metaTransacion.sol\":897:938  bytes32 ethSign = getEthSignMsgHash(_msg) */\n      swap1\n      pop\n        /* \"src/contracts/metaTransacion.sol\":995:1004  bytes32 r */\n      0x00\n        /* \"src/contracts/metaTransacion.sol\":1006:1015  bytes32 s */\n      dup1\n        /* \"src/contracts/metaTransacion.sol\":1017:1024  uint8 v */\n      0x00\n        /* \"src/contracts/metaTransacion.sol\":1028:1048  splitSign(signature) */\n      tag_57\n        /* \"src/contracts/metaTransacion.sol\":1038:1047  signature */\n      dup6\n        /* \"src/contracts/metaTransacion.sol\":1028:1037  splitSign */\n      tag_9\n        /* \"src/contracts/metaTransacion.sol\":1028:1048  splitSign(signature) */\n      jump\t// in\n    tag_57:\n        /* \"src/contracts/metaTransacion.sol\":994:1048  (bytes32 r, bytes32 s, uint8 v) = splitSign(signature) */\n      swap3\n      pop\n      swap3\n      pop\n      swap3\n      pop\n        /* \"src/contracts/metaTransacion.sol\":1201:1217  event02(r, s, v) */\n      0x29bd5e82392230298810019d37e60fc402505adb5afa0f05072474634fcca380\n        /* \"src/contracts/metaTransacion.sol\":1209:1210  r */\n      dup4\n        /* \"src/contracts/metaTransacion.sol\":1212:1213  s */\n      dup4\n        /* \"src/contracts/metaTransacion.sol\":1215:1216  v */\n      dup4\n        /* \"src/contracts/metaTransacion.sol\":1201:1217  event02(r, s, v) */\n      mload(0x40)\n      tag_58\n      swap4\n      swap3\n      swap2\n      swap1\n      tag_11\n      jump\t// in\n    tag_58:\n      mload(0x40)\n      dup1\n      swap2\n      sub\n      swap1\n      log1\n        /* \"src/contracts/metaTransacion.sol\":1233:1269  event03(ecrecover(ethSign, v, r, s)) */\n      0x690c22a325937e3625a470a9f14c15683846660270fb112ea5c93a7ea9de7466\n        /* \"src/contracts/metaTransacion.sol\":1241:1268  ecrecover(ethSign, v, r, s) */\n      0x01\n        /* \"src/contracts/metaTransacion.sol\":1251:1258  ethSign */\n      dup6\n        /* \"src/contracts/metaTransacion.sol\":1260:1261  v */\n      dup4\n        /* \"src/contracts/metaTransacion.sol\":1263:1264  r */\n      dup7\n        /* \"src/contracts/metaTransacion.sol\":1266:1267  s */\n      dup7\n        /* \"src/contracts/metaTransacion.sol\":1241:1268  ecrecover(ethSign, v, r, s) */\n      mload(0x40)\n      0x00\n      dup2\n      mstore\n      0x20\n      add\n      0x40\n      mstore\n      mload(0x40)\n      tag_59\n      swap5\n      swap4\n      swap3\n      swap2\n      swap1\n      tag_60\n      jump\t// in\n    tag_59:\n      0x20\n      mload(0x40)\n      0x20\n      dup2\n      sub\n      swap1\n      dup1\n      dup5\n      sub\n      swap1\n      dup6\n      gas\n      staticcall\n      iszero\n      dup1\n      iszero\n      tag_62\n      jumpi\n      returndatasize\n      0x00\n      dup1\n      returndatacopy\n      revert(0x00, returndatasize)\n    tag_62:\n      pop\n      pop\n      pop\n      mload(sub(mload(0x40), 0x20))\n        /* \"src/contracts/metaTransacion.sol\":1233:1269  event03(ecrecover(ethSign, v, r, s)) */\n      mload(0x40)\n      tag_63\n      swap2\n      swap1\n      tag_64\n      jump\t// in\n    tag_63:\n      mload(0x40)\n      dup1\n      swap2\n      sub\n      swap1\n      log1\n        /* \"src/contracts/metaTransacion.sol\":1285:1298  event03(user) */\n      0x690c22a325937e3625a470a9f14c15683846660270fb112ea5c93a7ea9de7466\n        /* \"src/contracts/metaTransacion.sol\":1293:1297  user */\n      dup8\n        /* \"src/contracts/metaTransacion.sol\":1285:1298  event03(user) */\n      mload(0x40)\n      tag_65\n      swap2\n      swap1\n      tag_64\n      jump\t// in\n    tag_65:\n      mload(0x40)\n      dup1\n      swap2\n      sub\n      swap1\n      log1\n        /* \"src/contracts/metaTransacion.sol\":1325:1352  ecrecover(ethSign, v, r, s) */\n      0x01\n        /* \"src/contracts/metaTransacion.sol\":1335:1342  ethSign */\n      dup5\n        /* \"src/contracts/metaTransacion.sol\":1344:1345  v */\n      dup3\n        /* \"src/contracts/metaTransacion.sol\":1347:1348  r */\n      dup6\n        /* \"src/contracts/metaTransacion.sol\":1350:1351  s */\n      dup6\n        /* \"src/contracts/metaTransacion.sol\":1325:1352  ecrecover(ethSign, v, r, s) */\n      mload(0x40)\n      0x00\n      dup2\n      mstore\n      0x20\n      add\n      0x40\n      mstore\n      mload(0x40)\n      tag_66\n      swap5\n      swap4\n      swap3\n      swap2\n      swap1\n      tag_60\n      jump\t// in\n    tag_66:\n      0x20\n      mload(0x40)\n      0x20\n      dup2\n      sub\n      swap1\n      dup1\n      dup5\n      sub\n      swap1\n      dup6\n      gas\n      staticcall\n      iszero\n      dup1\n      iszero\n      tag_68\n      jumpi\n      returndatasize\n      0x00\n      dup1\n      returndatacopy\n      revert(0x00, returndatasize)\n    tag_68:\n      pop\n      pop\n      pop\n      mload(sub(mload(0x40), 0x20))\n        /* \"src/contracts/metaTransacion.sol\":1317:1352  user == ecrecover(ethSign, v, r, s) */\n      0xffffffffffffffffffffffffffffffffffffffff\n      and\n        /* \"src/contracts/metaTransacion.sol\":1317:1321  user */\n      dup8\n        /* \"src/contracts/metaTransacion.sol\":1317:1352  user == ecrecover(ethSign, v, r, s) */\n      0xffffffffffffffffffffffffffffffffffffffff\n      and\n      eq\n        /* \"src/contracts/metaTransacion.sol\":1309:1353  require(user == ecrecover(ethSign, v, r, s)) */\n      tag_69\n      jumpi\n      0x00\n      dup1\n      revert\n    tag_69:\n        /* \"src/contracts/metaTransacion.sol\":886:1361  {... */\n      pop\n      pop\n      pop\n      pop\n        /* \"src/contracts/metaTransacion.sol\":762:1361  function signTransaction(... */\n      pop\n      pop\n      pop\n      jump\t// out\n        /* \"src/contracts/metaTransacion.sol\":1369:1859  function getEthSignMsgHash(... */\n    tag_56:\n        /* \"src/contracts/metaTransacion.sol\":1455:1462  bytes32 */\n      0x00\n        /* \"src/contracts/metaTransacion.sol\":1575:1589  uint msgLength */\n      dup1\n        /* \"src/contracts/metaTransacion.sol\":1598:1602  _msg */\n      dup3\n        /* \"src/contracts/metaTransacion.sol\":1592:1610  bytes(_msg).length */\n      mload\n        /* \"src/contracts/metaTransacion.sol\":1575:1610  uint msgLength = bytes(_msg).length */\n      swap1\n      pop\n        /* \"src/contracts/metaTransacion.sol\":1763:1790  Strings.toString(msgLength) */\n      tag_71\n        /* \"src/contracts/metaTransacion.sol\":1780:1789  msgLength */\n      dup2\n        /* \"src/contracts/metaTransacion.sol\":1763:1779  Strings.toString */\n      tag_72\n        /* \"src/contracts/metaTransacion.sol\":1763:1790  Strings.toString(msgLength) */\n      jump\t// in\n    tag_71:\n        /* \"src/contracts/metaTransacion.sol\":1813:1817  _msg */\n      dup4\n        /* \"src/contracts/metaTransacion.sol\":1669:1836  abi.encodePacked(... */\n      add(0x20, mload(0x40))\n      tag_73\n      swap3\n      swap2\n      swap1\n      tag_74\n      jump\t// in\n    tag_73:\n      mload(0x40)\n      0x20\n      dup2\n      dup4\n      sub\n      sub\n      dup2\n      mstore\n      swap1\n      0x40\n      mstore\n        /* \"src/contracts/metaTransacion.sol\":1641:1851  keccak256(... */\n      dup1\n      mload\n      swap1\n      0x20\n      add\n      keccak256\n        /* \"src/contracts/metaTransacion.sol\":1621:1851  return... */\n      swap2\n      pop\n      pop\n        /* \"src/contracts/metaTransacion.sol\":1369:1859  function getEthSignMsgHash(... */\n      swap2\n      swap1\n      pop\n      jump\t// out\n        /* \"@openzeppelin/contracts/utils/Strings.sol\":637:1335  function toString(uint256 value) internal pure returns (string memory) {... */\n    tag_72:\n        /* \"@openzeppelin/contracts/utils/Strings.sol\":693:706  string memory */\n      0x60\n        /* \"@openzeppelin/contracts/utils/Strings.sol\":742:756  uint256 length */\n      0x00\n        /* \"@openzeppelin/contracts/utils/Strings.sol\":779:780  1 */\n      0x01\n        /* \"@openzeppelin/contracts/utils/Strings.sol\":759:776  Math.log10(value) */\n      tag_76\n        /* \"@openzeppelin/contracts/utils/Strings.sol\":770:775  value */\n      dup5\n        /* \"@openzeppelin/contracts/utils/Strings.sol\":759:769  Math.log10 */\n      tag_77\n        /* \"@openzeppelin/contracts/utils/Strings.sol\":759:776  Math.log10(value) */\n      jump\t// in\n    tag_76:\n        /* \"@openzeppelin/contracts/utils/Strings.sol\":759:780  Math.log10(value) + 1 */\n      add\n        /* \"@openzeppelin/contracts/utils/Strings.sol\":742:780  uint256 length = Math.log10(value) + 1 */\n      swap1\n      pop\n        /* \"@openzeppelin/contracts/utils/Strings.sol\":794:814  string memory buffer */\n      0x00\n        /* \"@openzeppelin/contracts/utils/Strings.sol\":828:834  length */\n      dup2\n        /* \"@openzeppelin/contracts/utils/Strings.sol\":817:835  new string(length) */\n      0xffffffffffffffff\n      dup2\n      gt\n      iszero\n      tag_78\n      jumpi\n      tag_79\n      tag_80\n      jump\t// in\n    tag_79:\n    tag_78:\n      mload(0x40)\n      swap1\n      dup1\n      dup3\n      mstore\n      dup1\n      0x1f\n      add\n      not(0x1f)\n      and\n      0x20\n      add\n      dup3\n      add\n      0x40\n      mstore\n      dup1\n      iszero\n      tag_81\n      jumpi\n      dup2\n      0x20\n      add\n      0x01\n      dup3\n      mul\n      dup1\n      calldatasize\n      dup4\n      calldatacopy\n      dup1\n      dup3\n      add\n      swap2\n      pop\n      pop\n      swap1\n      pop\n    tag_81:\n      pop\n        /* \"@openzeppelin/contracts/utils/Strings.sol\":794:835  string memory buffer = new string(length) */\n      swap1\n      pop\n        /* \"@openzeppelin/contracts/utils/Strings.sol\":849:860  uint256 ptr */\n      0x00\n        /* \"@openzeppelin/contracts/utils/Strings.sol\":975:981  length */\n      dup3\n        /* \"@openzeppelin/contracts/utils/Strings.sol\":971:973  32 */\n      0x20\n        /* \"@openzeppelin/contracts/utils/Strings.sol\":967:982  add(32, length) */\n      add\n        /* \"@openzeppelin/contracts/utils/Strings.sol\":959:965  buffer */\n      dup3\n        /* \"@openzeppelin/contracts/utils/Strings.sol\":955:983  add(buffer, add(32, length)) */\n      add\n        /* \"@openzeppelin/contracts/utils/Strings.sol\":948:983  ptr := add(buffer, add(32, length)) */\n      swap1\n      pop\n        /* \"@openzeppelin/contracts/utils/Strings.sol\":1010:1292  while (true) {... */\n    tag_82:\n        /* \"@openzeppelin/contracts/utils/Strings.sol\":1017:1021  true */\n      0x01\n        /* \"@openzeppelin/contracts/utils/Strings.sol\":1010:1292  while (true) {... */\n      iszero\n      tag_83\n      jumpi\n        /* \"@openzeppelin/contracts/utils/Strings.sol\":1041:1046  ptr-- */\n      dup1\n      dup1\n      0x01\n      swap1\n      sub\n      swap2\n      pop\n      pop\n        /* \"@openzeppelin/contracts/utils/Strings.sol\":1180:1190  HEX_DIGITS */\n      0x3031323334353637383961626364656600000000000000000000000000000000\n        /* \"@openzeppelin/contracts/utils/Strings.sol\":1175:1177  10 */\n      0x0a\n        /* \"@openzeppelin/contracts/utils/Strings.sol\":1168:1173  value */\n      dup7\n        /* \"@openzeppelin/contracts/utils/Strings.sol\":1164:1178  mod(value, 10) */\n      mod\n        /* \"@openzeppelin/contracts/utils/Strings.sol\":1159:1191  byte(mod(value, 10), HEX_DIGITS) */\n      byte\n        /* \"@openzeppelin/contracts/utils/Strings.sol\":1154:1157  ptr */\n      dup2\n        /* \"@openzeppelin/contracts/utils/Strings.sol\":1146:1192  mstore8(ptr, byte(mod(value, 10), HEX_DIGITS)) */\n      mstore8\n        /* \"@openzeppelin/contracts/utils/Strings.sol\":1236:1238  10 */\n      0x0a\n        /* \"@openzeppelin/contracts/utils/Strings.sol\":1227:1238  value /= 10 */\n      dup6\n      dup2\n      tag_84\n      jumpi\n      tag_85\n      tag_86\n      jump\t// in\n    tag_85:\n    tag_84:\n      div\n      swap5\n      pop\n        /* \"@openzeppelin/contracts/utils/Strings.sol\":1269:1270  0 */\n      0x00\n        /* \"@openzeppelin/contracts/utils/Strings.sol\":1260:1265  value */\n      dup6\n        /* \"@openzeppelin/contracts/utils/Strings.sol\":1260:1270  value == 0 */\n      sub\n        /* \"@openzeppelin/contracts/utils/Strings.sol\":1010:1292  while (true) {... */\n      tag_82\n        /* \"@openzeppelin/contracts/utils/Strings.sol\":1256:1277  if (value == 0) break */\n      jumpi\n        /* \"@openzeppelin/contracts/utils/Strings.sol\":1010:1292  while (true) {... */\n    tag_83:\n        /* \"@openzeppelin/contracts/utils/Strings.sol\":1312:1318  buffer */\n      dup2\n        /* \"@openzeppelin/contracts/utils/Strings.sol\":1305:1318  return buffer */\n      swap4\n      pop\n      pop\n      pop\n      pop\n        /* \"@openzeppelin/contracts/utils/Strings.sol\":637:1335  function toString(uint256 value) internal pure returns (string memory) {... */\n      swap2\n      swap1\n      pop\n      jump\t// out\n        /* \"@openzeppelin/contracts/utils/math/Math.sol\":12214:13130  function log10(uint256 value) internal pure returns (uint256) {... */\n    tag_77:\n        /* \"@openzeppelin/contracts/utils/math/Math.sol\":12267:12274  uint256 */\n      0x00\n        /* \"@openzeppelin/contracts/utils/math/Math.sol\":12286:12300  uint256 result */\n      dup1\n        /* \"@openzeppelin/contracts/utils/math/Math.sol\":12303:12304  0 */\n      0x00\n        /* \"@openzeppelin/contracts/utils/math/Math.sol\":12286:12304  uint256 result = 0 */\n      swap1\n      pop\n        /* \"@openzeppelin/contracts/utils/math/Math.sol\":12351:12359  10 ** 64 */\n      0x184f03e93ff9f4daa797ed6e38ed64bf6a1f010000000000000000\n        /* \"@openzeppelin/contracts/utils/math/Math.sol\":12342:12347  value */\n      dup4\n        /* \"@openzeppelin/contracts/utils/math/Math.sol\":12342:12359  value >= 10 ** 64 */\n      lt\n        /* \"@openzeppelin/contracts/utils/math/Math.sol\":12338:12441  if (value >= 10 ** 64) {... */\n      tag_89\n      jumpi\n        /* \"@openzeppelin/contracts/utils/math/Math.sol\":12388:12396  10 ** 64 */\n      0x184f03e93ff9f4daa797ed6e38ed64bf6a1f010000000000000000\n        /* \"@openzeppelin/contracts/utils/math/Math.sol\":12379:12396  value /= 10 ** 64 */\n      dup4\n      dup2\n      tag_90\n      jumpi\n      tag_91\n      tag_86\n      jump\t// in\n    tag_91:\n    tag_90:\n      div\n      swap3\n      pop\n        /* \"@openzeppelin/contracts/utils/math/Math.sol\":12424:12426  64 */\n      0x40\n        /* \"@openzeppelin/contracts/utils/math/Math.sol\":12414:12426  result += 64 */\n      dup2\n      add\n      swap1\n      pop\n        /* \"@openzeppelin/contracts/utils/math/Math.sol\":12338:12441  if (value >= 10 ** 64) {... */\n    tag_89:\n        /* \"@openzeppelin/contracts/utils/math/Math.sol\":12467:12475  10 ** 32 */\n      0x04ee2d6d415b85acef8100000000\n        /* \"@openzeppelin/contracts/utils/math/Math.sol\":12458:12463  value */\n      dup4\n        /* \"@openzeppelin/contracts/utils/math/Math.sol\":12458:12475  value >= 10 ** 32 */\n      lt\n        /* \"@openzeppelin/contracts/utils/math/Math.sol\":12454:12557  if (value >= 10 ** 32) {... */\n      tag_92\n      jumpi\n        /* \"@openzeppelin/contracts/utils/math/Math.sol\":12504:12512  10 ** 32 */\n      0x04ee2d6d415b85acef8100000000\n        /* \"@openzeppelin/contracts/utils/math/Math.sol\":12495:12512  value /= 10 ** 32 */\n      dup4\n      dup2\n      tag_93\n      jumpi\n      tag_94\n      tag_86\n      jump\t// in\n    tag_94:\n    tag_93:\n      div\n      swap3\n      pop\n        /* \"@openzeppelin/contracts/utils/math/Math.sol\":12540:12542  32 */\n      0x20\n        /* \"@openzeppelin/contracts/utils/math/Math.sol\":12530:12542  result += 32 */\n      dup2\n      add\n      swap1\n      pop\n        /* \"@openzeppelin/contracts/utils/math/Math.sol\":12454:12557  if (value >= 10 ** 32) {... */\n    tag_92:\n        /* \"@openzeppelin/contracts/utils/math/Math.sol\":12583:12591  10 ** 16 */\n      0x2386f26fc10000\n        /* \"@openzeppelin/contracts/utils/math/Math.sol\":12574:12579  value */\n      dup4\n        /* \"@openzeppelin/contracts/utils/math/Math.sol\":12574:12591  value >= 10 ** 16 */\n      lt\n        /* \"@openzeppelin/contracts/utils/math/Math.sol\":12570:12673  if (value >= 10 ** 16) {... */\n      tag_95\n      jumpi\n        /* \"@openzeppelin/contracts/utils/math/Math.sol\":12620:12628  10 ** 16 */\n      0x2386f26fc10000\n        /* \"@openzeppelin/contracts/utils/math/Math.sol\":12611:12628  value /= 10 ** 16 */\n      dup4\n      dup2\n      tag_96\n      jumpi\n      tag_97\n      tag_86\n      jump\t// in\n    tag_97:\n    tag_96:\n      div\n      swap3\n      pop\n        /* \"@openzeppelin/contracts/utils/math/Math.sol\":12656:12658  16 */\n      0x10\n        /* \"@openzeppelin/contracts/utils/math/Math.sol\":12646:12658  result += 16 */\n      dup2\n      add\n      swap1\n      pop\n        /* \"@openzeppelin/contracts/utils/math/Math.sol\":12570:12673  if (value >= 10 ** 16) {... */\n    tag_95:\n        /* \"@openzeppelin/contracts/utils/math/Math.sol\":12699:12706  10 ** 8 */\n      0x05f5e100\n        /* \"@openzeppelin/contracts/utils/math/Math.sol\":12690:12695  value */\n      dup4\n        /* \"@openzeppelin/contracts/utils/math/Math.sol\":12690:12706  value >= 10 ** 8 */\n      lt\n        /* \"@openzeppelin/contracts/utils/math/Math.sol\":12686:12786  if (value >= 10 ** 8) {... */\n      tag_98\n      jumpi\n        /* \"@openzeppelin/contracts/utils/math/Math.sol\":12735:12742  10 ** 8 */\n      0x05f5e100\n        /* \"@openzeppelin/contracts/utils/math/Math.sol\":12726:12742  value /= 10 ** 8 */\n      dup4\n      dup2\n      tag_99\n      jumpi\n      tag_100\n      tag_86\n      jump\t// in\n    tag_100:\n    tag_99:\n      div\n      swap3\n      pop\n        /* \"@openzeppelin/contracts/utils/math/Math.sol\":12770:12771  8 */\n      0x08\n        /* \"@openzeppelin/contracts/utils/math/Math.sol\":12760:12771  result += 8 */\n      dup2\n      add\n      swap1\n      pop\n        /* \"@openzeppelin/contracts/utils/math/Math.sol\":12686:12786  if (value >= 10 ** 8) {... */\n    tag_98:\n        /* \"@openzeppelin/contracts/utils/math/Math.sol\":12812:12819  10 ** 4 */\n      0x2710\n        /* \"@openzeppelin/contracts/utils/math/Math.sol\":12803:12808  value */\n      dup4\n        /* \"@openzeppelin/contracts/utils/math/Math.sol\":12803:12819  value >= 10 ** 4 */\n      lt\n        /* \"@openzeppelin/contracts/utils/math/Math.sol\":12799:12899  if (value >= 10 ** 4) {... */\n      tag_101\n      jumpi\n        /* \"@openzeppelin/contracts/utils/math/Math.sol\":12848:12855  10 ** 4 */\n      0x2710\n        /* \"@openzeppelin/contracts/utils/math/Math.sol\":12839:12855  value /= 10 ** 4 */\n      dup4\n      dup2\n      tag_102\n      jumpi\n      tag_103\n      tag_86\n      jump\t// in\n    tag_103:\n    tag_102:\n      div\n      swap3\n      pop\n        /* \"@openzeppelin/contracts/utils/math/Math.sol\":12883:12884  4 */\n      0x04\n        /* \"@openzeppelin/contracts/utils/math/Math.sol\":12873:12884  result += 4 */\n      dup2\n      add\n      swap1\n      pop\n        /* \"@openzeppelin/contracts/utils/math/Math.sol\":12799:12899  if (value >= 10 ** 4) {... */\n    tag_101:\n        /* \"@openzeppelin/contracts/utils/math/Math.sol\":12925:12932  10 ** 2 */\n      0x64\n        /* \"@openzeppelin/contracts/utils/math/Math.sol\":12916:12921  value */\n      dup4\n        /* \"@openzeppelin/contracts/utils/math/Math.sol\":12916:12932  value >= 10 ** 2 */\n      lt\n        /* \"@openzeppelin/contracts/utils/math/Math.sol\":12912:13012  if (value >= 10 ** 2) {... */\n      tag_104\n      jumpi\n        /* \"@openzeppelin/contracts/utils/math/Math.sol\":12961:12968  10 ** 2 */\n      0x64\n        /* \"@openzeppelin/contracts/utils/math/Math.sol\":12952:12968  value /= 10 ** 2 */\n      dup4\n      dup2\n      tag_105\n      jumpi\n      tag_106\n      tag_86\n      jump\t// in\n    tag_106:\n    tag_105:\n      div\n      swap3\n      pop\n        /* \"@openzeppelin/contracts/utils/math/Math.sol\":12996:12997  2 */\n      0x02\n        /* \"@openzeppelin/contracts/utils/math/Math.sol\":12986:12997  result += 2 */\n      dup2\n      add\n      swap1\n      pop\n        /* \"@openzeppelin/contracts/utils/math/Math.sol\":12912:13012  if (value >= 10 ** 2) {... */\n    tag_104:\n        /* \"@openzeppelin/contracts/utils/math/Math.sol\":13038:13045  10 ** 1 */\n      0x0a\n        /* \"@openzeppelin/contracts/utils/math/Math.sol\":13029:13034  value */\n      dup4\n        /* \"@openzeppelin/contracts/utils/math/Math.sol\":13029:13045  value >= 10 ** 1 */\n      lt\n        /* \"@openzeppelin/contracts/utils/math/Math.sol\":13025:13091  if (value >= 10 ** 1) {... */\n      tag_107\n      jumpi\n        /* \"@openzeppelin/contracts/utils/math/Math.sol\":13075:13076  1 */\n      0x01\n        /* \"@openzeppelin/contracts/utils/math/Math.sol\":13065:13076  result += 1 */\n      dup2\n      add\n      swap1\n      pop\n        /* \"@openzeppelin/contracts/utils/math/Math.sol\":13025:13091  if (value >= 10 ** 1) {... */\n    tag_107:\n        /* \"@openzeppelin/contracts/utils/math/Math.sol\":13117:13123  result */\n      dup1\n        /* \"@openzeppelin/contracts/utils/math/Math.sol\":13110:13123  return result */\n      swap2\n      pop\n      pop\n        /* \"@openzeppelin/contracts/utils/math/Math.sol\":12214:13130  function log10(uint256 value) internal pure returns (uint256) {... */\n      swap2\n      swap1\n      pop\n      jump\t// out\n        /* \"#utility.yul\":7:82   */\n    tag_108:\n        /* \"#utility.yul\":40:46   */\n      0x00\n        /* \"#utility.yul\":73:75   */\n      0x40\n        /* \"#utility.yul\":67:76   */\n      mload\n        /* \"#utility.yul\":57:76   */\n      swap1\n      pop\n        /* \"#utility.yul\":7:82   */\n      swap1\n      jump\t// out\n        /* \"#utility.yul\":88:205   */\n    tag_109:\n        /* \"#utility.yul\":197:198   */\n      0x00\n        /* \"#utility.yul\":194:195   */\n      dup1\n        /* \"#utility.yul\":187:199   */\n      revert\n        /* \"#utility.yul\":211:328   */\n    tag_110:\n        /* \"#utility.yul\":320:321   */\n      0x00\n        /* \"#utility.yul\":317:318   */\n      dup1\n        /* \"#utility.yul\":310:322   */\n      revert\n        /* \"#utility.yul\":334:451   */\n    tag_111:\n        /* \"#utility.yul\":443:444   */\n      0x00\n        /* \"#utility.yul\":440:441   */\n      dup1\n        /* \"#utility.yul\":433:445   */\n      revert\n        /* \"#utility.yul\":457:574   */\n    tag_112:\n        /* \"#utility.yul\":566:567   */\n      0x00\n        /* \"#utility.yul\":563:564   */\n      dup1\n        /* \"#utility.yul\":556:568   */\n      revert\n        /* \"#utility.yul\":580:682   */\n    tag_113:\n        /* \"#utility.yul\":621:627   */\n      0x00\n        /* \"#utility.yul\":672:674   */\n      0x1f\n        /* \"#utility.yul\":668:675   */\n      not\n        /* \"#utility.yul\":663:665   */\n      0x1f\n        /* \"#utility.yul\":656:661   */\n      dup4\n        /* \"#utility.yul\":652:666   */\n      add\n        /* \"#utility.yul\":648:676   */\n      and\n        /* \"#utility.yul\":638:676   */\n      swap1\n      pop\n        /* \"#utility.yul\":580:682   */\n      swap2\n      swap1\n      pop\n      jump\t// out\n        /* \"#utility.yul\":688:868   */\n    tag_80:\n        /* \"#utility.yul\":736:813   */\n      0x4e487b7100000000000000000000000000000000000000000000000000000000\n        /* \"#utility.yul\":733:734   */\n      0x00\n        /* \"#utility.yul\":726:814   */\n      mstore\n        /* \"#utility.yul\":833:837   */\n      0x41\n        /* \"#utility.yul\":830:831   */\n      0x04\n        /* \"#utility.yul\":823:838   */\n      mstore\n        /* \"#utility.yul\":857:861   */\n      0x24\n        /* \"#utility.yul\":854:855   */\n      0x00\n        /* \"#utility.yul\":847:862   */\n      revert\n        /* \"#utility.yul\":874:1155   */\n    tag_114:\n        /* \"#utility.yul\":957:984   */\n      tag_167\n        /* \"#utility.yul\":979:983   */\n      dup3\n        /* \"#utility.yul\":957:984   */\n      tag_113\n      jump\t// in\n    tag_167:\n        /* \"#utility.yul\":949:955   */\n      dup2\n        /* \"#utility.yul\":945:985   */\n      add\n        /* \"#utility.yul\":1087:1093   */\n      dup2\n        /* \"#utility.yul\":1075:1085   */\n      dup2\n        /* \"#utility.yul\":1072:1094   */\n      lt\n        /* \"#utility.yul\":1051:1069   */\n      0xffffffffffffffff\n        /* \"#utility.yul\":1039:1049   */\n      dup3\n        /* \"#utility.yul\":1036:1070   */\n      gt\n        /* \"#utility.yul\":1033:1095   */\n      or\n        /* \"#utility.yul\":1030:1118   */\n      iszero\n      tag_168\n      jumpi\n        /* \"#utility.yul\":1098:1116   */\n      tag_169\n      tag_80\n      jump\t// in\n    tag_169:\n        /* \"#utility.yul\":1030:1118   */\n    tag_168:\n        /* \"#utility.yul\":1138:1148   */\n      dup1\n        /* \"#utility.yul\":1134:1136   */\n      0x40\n        /* \"#utility.yul\":1127:1149   */\n      mstore\n        /* \"#utility.yul\":917:1155   */\n      pop\n        /* \"#utility.yul\":874:1155   */\n      pop\n      pop\n      jump\t// out\n        /* \"#utility.yul\":1161:1290   */\n    tag_115:\n        /* \"#utility.yul\":1195:1201   */\n      0x00\n        /* \"#utility.yul\":1222:1242   */\n      tag_171\n      tag_108\n      jump\t// in\n    tag_171:\n        /* \"#utility.yul\":1212:1242   */\n      swap1\n      pop\n        /* \"#utility.yul\":1251:1284   */\n      tag_172\n        /* \"#utility.yul\":1279:1283   */\n      dup3\n        /* \"#utility.yul\":1271:1277   */\n      dup3\n        /* \"#utility.yul\":1251:1284   */\n      tag_114\n      jump\t// in\n    tag_172:\n        /* \"#utility.yul\":1161:1290   */\n      swap2\n      swap1\n      pop\n      jump\t// out\n        /* \"#utility.yul\":1296:1603   */\n    tag_116:\n        /* \"#utility.yul\":1357:1361   */\n      0x00\n        /* \"#utility.yul\":1447:1465   */\n      0xffffffffffffffff\n        /* \"#utility.yul\":1439:1445   */\n      dup3\n        /* \"#utility.yul\":1436:1466   */\n      gt\n        /* \"#utility.yul\":1433:1489   */\n      iszero\n      tag_174\n      jumpi\n        /* \"#utility.yul\":1469:1487   */\n      tag_175\n      tag_80\n      jump\t// in\n    tag_175:\n        /* \"#utility.yul\":1433:1489   */\n    tag_174:\n        /* \"#utility.yul\":1507:1536   */\n      tag_176\n        /* \"#utility.yul\":1529:1535   */\n      dup3\n        /* \"#utility.yul\":1507:1536   */\n      tag_113\n      jump\t// in\n    tag_176:\n        /* \"#utility.yul\":1499:1536   */\n      swap1\n      pop\n        /* \"#utility.yul\":1591:1595   */\n      0x20\n        /* \"#utility.yul\":1585:1589   */\n      dup2\n        /* \"#utility.yul\":1581:1596   */\n      add\n        /* \"#utility.yul\":1573:1596   */\n      swap1\n      pop\n        /* \"#utility.yul\":1296:1603   */\n      swap2\n      swap1\n      pop\n      jump\t// out\n        /* \"#utility.yul\":1609:1755   */\n    tag_117:\n        /* \"#utility.yul\":1706:1712   */\n      dup3\n        /* \"#utility.yul\":1701:1704   */\n      dup2\n        /* \"#utility.yul\":1696:1699   */\n      dup4\n        /* \"#utility.yul\":1683:1713   */\n      calldatacopy\n        /* \"#utility.yul\":1747:1748   */\n      0x00\n        /* \"#utility.yul\":1738:1744   */\n      dup4\n        /* \"#utility.yul\":1733:1736   */\n      dup4\n        /* \"#utility.yul\":1729:1745   */\n      add\n        /* \"#utility.yul\":1722:1749   */\n      mstore\n        /* \"#utility.yul\":1609:1755   */\n      pop\n      pop\n      pop\n      jump\t// out\n        /* \"#utility.yul\":1761:2184   */\n    tag_118:\n        /* \"#utility.yul\":1838:1843   */\n      0x00\n        /* \"#utility.yul\":1863:1928   */\n      tag_179\n        /* \"#utility.yul\":1879:1927   */\n      tag_180\n        /* \"#utility.yul\":1920:1926   */\n      dup5\n        /* \"#utility.yul\":1879:1927   */\n      tag_116\n      jump\t// in\n    tag_180:\n        /* \"#utility.yul\":1863:1928   */\n      tag_115\n      jump\t// in\n    tag_179:\n        /* \"#utility.yul\":1854:1928   */\n      swap1\n      pop\n        /* \"#utility.yul\":1951:1957   */\n      dup3\n        /* \"#utility.yul\":1944:1949   */\n      dup2\n        /* \"#utility.yul\":1937:1958   */\n      mstore\n        /* \"#utility.yul\":1989:1993   */\n      0x20\n        /* \"#utility.yul\":1982:1987   */\n      dup2\n        /* \"#utility.yul\":1978:1994   */\n      add\n        /* \"#utility.yul\":2027:2030   */\n      dup5\n        /* \"#utility.yul\":2018:2024   */\n      dup5\n        /* \"#utility.yul\":2013:2016   */\n      dup5\n        /* \"#utility.yul\":2009:2025   */\n      add\n        /* \"#utility.yul\":2006:2031   */\n      gt\n        /* \"#utility.yul\":2003:2115   */\n      iszero\n      tag_181\n      jumpi\n        /* \"#utility.yul\":2034:2113   */\n      tag_182\n      tag_112\n      jump\t// in\n    tag_182:\n        /* \"#utility.yul\":2003:2115   */\n    tag_181:\n        /* \"#utility.yul\":2124:2178   */\n      tag_183\n        /* \"#utility.yul\":2171:2177   */\n      dup5\n        /* \"#utility.yul\":2166:2169   */\n      dup3\n        /* \"#utility.yul\":2161:2164   */\n      dup6\n        /* \"#utility.yul\":2124:2178   */\n      tag_117\n      jump\t// in\n    tag_183:\n        /* \"#utility.yul\":1844:2184   */\n      pop\n        /* \"#utility.yul\":1761:2184   */\n      swap4\n      swap3\n      pop\n      pop\n      pop\n      jump\t// out\n        /* \"#utility.yul\":2203:2541   */\n    tag_119:\n        /* \"#utility.yul\":2258:2263   */\n      0x00\n        /* \"#utility.yul\":2307:2310   */\n      dup3\n        /* \"#utility.yul\":2300:2304   */\n      0x1f\n        /* \"#utility.yul\":2292:2298   */\n      dup4\n        /* \"#utility.yul\":2288:2305   */\n      add\n        /* \"#utility.yul\":2284:2311   */\n      slt\n        /* \"#utility.yul\":2274:2396   */\n      tag_185\n      jumpi\n        /* \"#utility.yul\":2315:2394   */\n      tag_186\n      tag_111\n      jump\t// in\n    tag_186:\n        /* \"#utility.yul\":2274:2396   */\n    tag_185:\n        /* \"#utility.yul\":2432:2438   */\n      dup2\n        /* \"#utility.yul\":2419:2439   */\n      calldataload\n        /* \"#utility.yul\":2457:2535   */\n      tag_187\n        /* \"#utility.yul\":2531:2534   */\n      dup5\n        /* \"#utility.yul\":2523:2529   */\n      dup3\n        /* \"#utility.yul\":2516:2520   */\n      0x20\n        /* \"#utility.yul\":2508:2514   */\n      dup7\n        /* \"#utility.yul\":2504:2521   */\n      add\n        /* \"#utility.yul\":2457:2535   */\n      tag_118\n      jump\t// in\n    tag_187:\n        /* \"#utility.yul\":2448:2535   */\n      swap2\n      pop\n        /* \"#utility.yul\":2264:2541   */\n      pop\n        /* \"#utility.yul\":2203:2541   */\n      swap3\n      swap2\n      pop\n      pop\n      jump\t// out\n        /* \"#utility.yul\":2547:3054   */\n    tag_8:\n        /* \"#utility.yul\":2615:2621   */\n      0x00\n        /* \"#utility.yul\":2664:2666   */\n      0x20\n        /* \"#utility.yul\":2652:2661   */\n      dup3\n        /* \"#utility.yul\":2643:2650   */\n      dup5\n        /* \"#utility.yul\":2639:2662   */\n      sub\n        /* \"#utility.yul\":2635:2667   */\n      slt\n        /* \"#utility.yul\":2632:2751   */\n      iszero\n      tag_189\n      jumpi\n        /* \"#utility.yul\":2670:2749   */\n      tag_190\n      tag_109\n      jump\t// in\n    tag_190:\n        /* \"#utility.yul\":2632:2751   */\n    tag_189:\n        /* \"#utility.yul\":2818:2819   */\n      0x00\n        /* \"#utility.yul\":2807:2816   */\n      dup3\n        /* \"#utility.yul\":2803:2820   */\n      add\n        /* \"#utility.yul\":2790:2821   */\n      calldataload\n        /* \"#utility.yul\":2848:2866   */\n      0xffffffffffffffff\n        /* \"#utility.yul\":2840:2846   */\n      dup2\n        /* \"#utility.yul\":2837:2867   */\n      gt\n        /* \"#utility.yul\":2834:2951   */\n      iszero\n      tag_191\n      jumpi\n        /* \"#utility.yul\":2870:2949   */\n      tag_192\n      tag_110\n      jump\t// in\n    tag_192:\n        /* \"#utility.yul\":2834:2951   */\n    tag_191:\n        /* \"#utility.yul\":2975:3037   */\n      tag_193\n        /* \"#utility.yul\":3029:3036   */\n      dup5\n        /* \"#utility.yul\":3020:3026   */\n      dup3\n        /* \"#utility.yul\":3009:3018   */\n      dup6\n        /* \"#utility.yul\":3005:3027   */\n      add\n        /* \"#utility.yul\":2975:3037   */\n      tag_119\n      jump\t// in\n    tag_193:\n        /* \"#utility.yul\":2965:3037   */\n      swap2\n      pop\n        /* \"#utility.yul\":2761:3047   */\n      pop\n        /* \"#utility.yul\":2547:3054   */\n      swap3\n      swap2\n      pop\n      pop\n      jump\t// out\n        /* \"#utility.yul\":3060:3137   */\n    tag_120:\n        /* \"#utility.yul\":3097:3104   */\n      0x00\n        /* \"#utility.yul\":3126:3131   */\n      dup2\n        /* \"#utility.yul\":3115:3131   */\n      swap1\n      pop\n        /* \"#utility.yul\":3060:3137   */\n      swap2\n      swap1\n      pop\n      jump\t// out\n        /* \"#utility.yul\":3143:3261   */\n    tag_121:\n        /* \"#utility.yul\":3230:3254   */\n      tag_196\n        /* \"#utility.yul\":3248:3253   */\n      dup2\n        /* \"#utility.yul\":3230:3254   */\n      tag_120\n      jump\t// in\n    tag_196:\n        /* \"#utility.yul\":3225:3228   */\n      dup3\n        /* \"#utility.yul\":3218:3255   */\n      mstore\n        /* \"#utility.yul\":3143:3261   */\n      pop\n      pop\n      jump\t// out\n        /* \"#utility.yul\":3267:3353   */\n    tag_122:\n        /* \"#utility.yul\":3302:3309   */\n      0x00\n        /* \"#utility.yul\":3342:3346   */\n      0xff\n        /* \"#utility.yul\":3335:3340   */\n      dup3\n        /* \"#utility.yul\":3331:3347   */\n      and\n        /* \"#utility.yul\":3320:3347   */\n      swap1\n      pop\n        /* \"#utility.yul\":3267:3353   */\n      swap2\n      swap1\n      pop\n      jump\t// out\n        /* \"#utility.yul\":3359:3471   */\n    tag_123:\n        /* \"#utility.yul\":3442:3464   */\n      tag_199\n        /* \"#utility.yul\":3458:3463   */\n      dup2\n        /* \"#utility.yul\":3442:3464   */\n      tag_122\n      jump\t// in\n    tag_199:\n        /* \"#utility.yul\":3437:3440   */\n      dup3\n        /* \"#utility.yul\":3430:3465   */\n      mstore\n        /* \"#utility.yul\":3359:3471   */\n      pop\n      pop\n      jump\t// out\n        /* \"#utility.yul\":3477:3911   */\n    tag_11:\n        /* \"#utility.yul\":3622:3626   */\n      0x00\n        /* \"#utility.yul\":3660:3662   */\n      0x60\n        /* \"#utility.yul\":3649:3658   */\n      dup3\n        /* \"#utility.yul\":3645:3663   */\n      add\n        /* \"#utility.yul\":3637:3663   */\n      swap1\n      pop\n        /* \"#utility.yul\":3673:3744   */\n      tag_201\n        /* \"#utility.yul\":3741:3742   */\n      0x00\n        /* \"#utility.yul\":3730:3739   */\n      dup4\n        /* \"#utility.yul\":3726:3743   */\n      add\n        /* \"#utility.yul\":3717:3723   */\n      dup7\n        /* \"#utility.yul\":3673:3744   */\n      tag_121\n      jump\t// in\n    tag_201:\n        /* \"#utility.yul\":3754:3826   */\n      tag_202\n        /* \"#utility.yul\":3822:3824   */\n      0x20\n        /* \"#utility.yul\":3811:3820   */\n      dup4\n        /* \"#utility.yul\":3807:3825   */\n      add\n        /* \"#utility.yul\":3798:3804   */\n      dup6\n        /* \"#utility.yul\":3754:3826   */\n      tag_121\n      jump\t// in\n    tag_202:\n        /* \"#utility.yul\":3836:3904   */\n      tag_203\n        /* \"#utility.yul\":3900:3902   */\n      0x40\n        /* \"#utility.yul\":3889:3898   */\n      dup4\n        /* \"#utility.yul\":3885:3903   */\n      add\n        /* \"#utility.yul\":3876:3882   */\n      dup5\n        /* \"#utility.yul\":3836:3904   */\n      tag_123\n      jump\t// in\n    tag_203:\n        /* \"#utility.yul\":3477:3911   */\n      swap5\n      swap4\n      pop\n      pop\n      pop\n      pop\n      jump\t// out\n        /* \"#utility.yul\":3917:4228   */\n    tag_124:\n        /* \"#utility.yul\":3994:3998   */\n      0x00\n        /* \"#utility.yul\":4084:4102   */\n      0xffffffffffffffff\n        /* \"#utility.yul\":4076:4082   */\n      dup3\n        /* \"#utility.yul\":4073:4103   */\n      gt\n        /* \"#utility.yul\":4070:4126   */\n      iszero\n      tag_205\n      jumpi\n        /* \"#utility.yul\":4106:4124   */\n      tag_206\n      tag_80\n      jump\t// in\n    tag_206:\n        /* \"#utility.yul\":4070:4126   */\n    tag_205:\n        /* \"#utility.yul\":4156:4160   */\n      0x20\n        /* \"#utility.yul\":4148:4154   */\n      dup3\n        /* \"#utility.yul\":4144:4161   */\n      mul\n        /* \"#utility.yul\":4136:4161   */\n      swap1\n      pop\n        /* \"#utility.yul\":4216:4220   */\n      0x20\n        /* \"#utility.yul\":4210:4214   */\n      dup2\n        /* \"#utility.yul\":4206:4221   */\n      add\n        /* \"#utility.yul\":4198:4221   */\n      swap1\n      pop\n        /* \"#utility.yul\":3917:4228   */\n      swap2\n      swap1\n      pop\n      jump\t// out\n        /* \"#utility.yul\":4234:4351   */\n    tag_125:\n        /* \"#utility.yul\":4343:4344   */\n      0x00\n        /* \"#utility.yul\":4340:4341   */\n      dup1\n        /* \"#utility.yul\":4333:4345   */\n      revert\n        /* \"#utility.yul\":4357:4483   */\n    tag_126:\n        /* \"#utility.yul\":4394:4401   */\n      0x00\n        /* \"#utility.yul\":4434:4476   */\n      0xffffffffffffffffffffffffffffffffffffffff\n        /* \"#utility.yul\":4427:4432   */\n      dup3\n        /* \"#utility.yul\":4423:4477   */\n      and\n        /* \"#utility.yul\":4412:4477   */\n      swap1\n      pop\n        /* \"#utility.yul\":4357:4483   */\n      swap2\n      swap1\n      pop\n      jump\t// out\n        /* \"#utility.yul\":4489:4585   */\n    tag_127:\n        /* \"#utility.yul\":4526:4533   */\n      0x00\n        /* \"#utility.yul\":4555:4579   */\n      tag_210\n        /* \"#utility.yul\":4573:4578   */\n      dup3\n        /* \"#utility.yul\":4555:4579   */\n      tag_126\n      jump\t// in\n    tag_210:\n        /* \"#utility.yul\":4544:4579   */\n      swap1\n      pop\n        /* \"#utility.yul\":4489:4585   */\n      swap2\n      swap1\n      pop\n      jump\t// out\n        /* \"#utility.yul\":4591:4713   */\n    tag_128:\n        /* \"#utility.yul\":4664:4688   */\n      tag_212\n        /* \"#utility.yul\":4682:4687   */\n      dup2\n        /* \"#utility.yul\":4664:4688   */\n      tag_127\n      jump\t// in\n    tag_212:\n        /* \"#utility.yul\":4657:4662   */\n      dup2\n        /* \"#utility.yul\":4654:4689   */\n      eq\n        /* \"#utility.yul\":4644:4707   */\n      tag_213\n      jumpi\n        /* \"#utility.yul\":4703:4704   */\n      0x00\n        /* \"#utility.yul\":4700:4701   */\n      dup1\n        /* \"#utility.yul\":4693:4705   */\n      revert\n        /* \"#utility.yul\":4644:4707   */\n    tag_213:\n        /* \"#utility.yul\":4591:4713   */\n      pop\n      jump\t// out\n        /* \"#utility.yul\":4719:4858   */\n    tag_129:\n        /* \"#utility.yul\":4765:4770   */\n      0x00\n        /* \"#utility.yul\":4803:4809   */\n      dup2\n        /* \"#utility.yul\":4790:4810   */\n      calldataload\n        /* \"#utility.yul\":4781:4810   */\n      swap1\n      pop\n        /* \"#utility.yul\":4819:4852   */\n      tag_215\n        /* \"#utility.yul\":4846:4851   */\n      dup2\n        /* \"#utility.yul\":4819:4852   */\n      tag_128\n      jump\t// in\n    tag_215:\n        /* \"#utility.yul\":4719:4858   */\n      swap3\n      swap2\n      pop\n      pop\n      jump\t// out\n        /* \"#utility.yul\":4881:5591   */\n    tag_130:\n        /* \"#utility.yul\":4977:4982   */\n      0x00\n        /* \"#utility.yul\":5002:5083   */\n      tag_217\n        /* \"#utility.yul\":5018:5082   */\n      tag_218\n        /* \"#utility.yul\":5075:5081   */\n      dup5\n        /* \"#utility.yul\":5018:5082   */\n      tag_124\n      jump\t// in\n    tag_218:\n        /* \"#utility.yul\":5002:5083   */\n      tag_115\n      jump\t// in\n    tag_217:\n        /* \"#utility.yul\":4993:5083   */\n      swap1\n      pop\n        /* \"#utility.yul\":5103:5108   */\n      dup1\n        /* \"#utility.yul\":5132:5138   */\n      dup4\n        /* \"#utility.yul\":5125:5130   */\n      dup3\n        /* \"#utility.yul\":5118:5139   */\n      mstore\n        /* \"#utility.yul\":5166:5170   */\n      0x20\n        /* \"#utility.yul\":5159:5164   */\n      dup3\n        /* \"#utility.yul\":5155:5171   */\n      add\n        /* \"#utility.yul\":5148:5171   */\n      swap1\n      pop\n        /* \"#utility.yul\":5219:5223   */\n      0x20\n        /* \"#utility.yul\":5211:5217   */\n      dup5\n        /* \"#utility.yul\":5207:5224   */\n      mul\n        /* \"#utility.yul\":5199:5205   */\n      dup4\n        /* \"#utility.yul\":5195:5225   */\n      add\n        /* \"#utility.yul\":5248:5251   */\n      dup6\n        /* \"#utility.yul\":5240:5246   */\n      dup2\n        /* \"#utility.yul\":5237:5252   */\n      gt\n        /* \"#utility.yul\":5234:5356   */\n      iszero\n      tag_219\n      jumpi\n        /* \"#utility.yul\":5267:5346   */\n      tag_220\n      tag_125\n      jump\t// in\n    tag_220:\n        /* \"#utility.yul\":5234:5356   */\n    tag_219:\n        /* \"#utility.yul\":5382:5388   */\n      dup4\n        /* \"#utility.yul\":5365:5585   */\n    tag_221:\n        /* \"#utility.yul\":5399:5405   */\n      dup2\n        /* \"#utility.yul\":5394:5397   */\n      dup2\n        /* \"#utility.yul\":5391:5406   */\n      lt\n        /* \"#utility.yul\":5365:5585   */\n      iszero\n      tag_223\n      jumpi\n        /* \"#utility.yul\":5474:5477   */\n      dup1\n        /* \"#utility.yul\":5503:5540   */\n      tag_224\n        /* \"#utility.yul\":5536:5539   */\n      dup9\n        /* \"#utility.yul\":5524:5534   */\n      dup3\n        /* \"#utility.yul\":5503:5540   */\n      tag_129\n      jump\t// in\n    tag_224:\n        /* \"#utility.yul\":5498:5501   */\n      dup5\n        /* \"#utility.yul\":5491:5541   */\n      mstore\n        /* \"#utility.yul\":5570:5574   */\n      0x20\n        /* \"#utility.yul\":5565:5568   */\n      dup5\n        /* \"#utility.yul\":5561:5575   */\n      add\n        /* \"#utility.yul\":5554:5575   */\n      swap4\n      pop\n        /* \"#utility.yul\":5441:5585   */\n      pop\n        /* \"#utility.yul\":5425:5429   */\n      0x20\n        /* \"#utility.yul\":5420:5423   */\n      dup2\n        /* \"#utility.yul\":5416:5430   */\n      add\n        /* \"#utility.yul\":5409:5430   */\n      swap1\n      pop\n        /* \"#utility.yul\":5365:5585   */\n      jump(tag_221)\n    tag_223:\n        /* \"#utility.yul\":5369:5390   */\n      pop\n        /* \"#utility.yul\":4983:5591   */\n      pop\n      pop\n        /* \"#utility.yul\":4881:5591   */\n      swap4\n      swap3\n      pop\n      pop\n      pop\n      jump\t// out\n        /* \"#utility.yul\":5614:5984   */\n    tag_131:\n        /* \"#utility.yul\":5685:5690   */\n      0x00\n        /* \"#utility.yul\":5734:5737   */\n      dup3\n        /* \"#utility.yul\":5727:5731   */\n      0x1f\n        /* \"#utility.yul\":5719:5725   */\n      dup4\n        /* \"#utility.yul\":5715:5732   */\n      add\n        /* \"#utility.yul\":5711:5738   */\n      slt\n        /* \"#utility.yul\":5701:5823   */\n      tag_226\n      jumpi\n        /* \"#utility.yul\":5742:5821   */\n      tag_227\n      tag_111\n      jump\t// in\n    tag_227:\n        /* \"#utility.yul\":5701:5823   */\n    tag_226:\n        /* \"#utility.yul\":5859:5865   */\n      dup2\n        /* \"#utility.yul\":5846:5866   */\n      calldataload\n        /* \"#utility.yul\":5884:5978   */\n      tag_228\n        /* \"#utility.yul\":5974:5977   */\n      dup5\n        /* \"#utility.yul\":5966:5972   */\n      dup3\n        /* \"#utility.yul\":5959:5963   */\n      0x20\n        /* \"#utility.yul\":5951:5957   */\n      dup7\n        /* \"#utility.yul\":5947:5964   */\n      add\n        /* \"#utility.yul\":5884:5978   */\n      tag_130\n      jump\t// in\n    tag_228:\n        /* \"#utility.yul\":5875:5978   */\n      swap2\n      pop\n        /* \"#utility.yul\":5691:5984   */\n      pop\n        /* \"#utility.yul\":5614:5984   */\n      swap3\n      swap2\n      pop\n      pop\n      jump\t// out\n        /* \"#utility.yul\":5990:6301   */\n    tag_132:\n        /* \"#utility.yul\":6067:6071   */\n      0x00\n        /* \"#utility.yul\":6157:6175   */\n      0xffffffffffffffff\n        /* \"#utility.yul\":6149:6155   */\n      dup3\n        /* \"#utility.yul\":6146:6176   */\n      gt\n        /* \"#utility.yul\":6143:6199   */\n      iszero\n      tag_230\n      jumpi\n        /* \"#utility.yul\":6179:6197   */\n      tag_231\n      tag_80\n      jump\t// in\n    tag_231:\n        /* \"#utility.yul\":6143:6199   */\n    tag_230:\n        /* \"#utility.yul\":6229:6233   */\n      0x20\n        /* \"#utility.yul\":6221:6227   */\n      dup3\n        /* \"#utility.yul\":6217:6234   */\n      mul\n        /* \"#utility.yul\":6209:6234   */\n      swap1\n      pop\n        /* \"#utility.yul\":6289:6293   */\n      0x20\n        /* \"#utility.yul\":6283:6287   */\n      dup2\n        /* \"#utility.yul\":6279:6294   */\n      add\n        /* \"#utility.yul\":6271:6294   */\n      swap1\n      pop\n        /* \"#utility.yul\":5990:6301   */\n      swap2\n      swap1\n      pop\n      jump\t// out\n        /* \"#utility.yul\":6307:6384   */\n    tag_133:\n        /* \"#utility.yul\":6344:6351   */\n      0x00\n        /* \"#utility.yul\":6373:6378   */\n      dup2\n        /* \"#utility.yul\":6362:6378   */\n      swap1\n      pop\n        /* \"#utility.yul\":6307:6384   */\n      swap2\n      swap1\n      pop\n      jump\t// out\n        /* \"#utility.yul\":6390:6512   */\n    tag_134:\n        /* \"#utility.yul\":6463:6487   */\n      tag_234\n        /* \"#utility.yul\":6481:6486   */\n      dup2\n        /* \"#utility.yul\":6463:6487   */\n      tag_133\n      jump\t// in\n    tag_234:\n        /* \"#utility.yul\":6456:6461   */\n      dup2\n        /* \"#utility.yul\":6453:6488   */\n      eq\n        /* \"#utility.yul\":6443:6506   */\n      tag_235\n      jumpi\n        /* \"#utility.yul\":6502:6503   */\n      0x00\n        /* \"#utility.yul\":6499:6500   */\n      dup1\n        /* \"#utility.yul\":6492:6504   */\n      revert\n        /* \"#utility.yul\":6443:6506   */\n    tag_235:\n        /* \"#utility.yul\":6390:6512   */\n      pop\n      jump\t// out\n        /* \"#utility.yul\":6518:6657   */\n    tag_135:\n        /* \"#utility.yul\":6564:6569   */\n      0x00\n        /* \"#utility.yul\":6602:6608   */\n      dup2\n        /* \"#utility.yul\":6589:6609   */\n      calldataload\n        /* \"#utility.yul\":6580:6609   */\n      swap1\n      pop\n        /* \"#utility.yul\":6618:6651   */\n      tag_237\n        /* \"#utility.yul\":6645:6650   */\n      dup2\n        /* \"#utility.yul\":6618:6651   */\n      tag_134\n      jump\t// in\n    tag_237:\n        /* \"#utility.yul\":6518:6657   */\n      swap3\n      swap2\n      pop\n      pop\n      jump\t// out\n        /* \"#utility.yul\":6680:7390   */\n    tag_136:\n        /* \"#utility.yul\":6776:6781   */\n      0x00\n        /* \"#utility.yul\":6801:6882   */\n      tag_239\n        /* \"#utility.yul\":6817:6881   */\n      tag_240\n        /* \"#utility.yul\":6874:6880   */\n      dup5\n        /* \"#utility.yul\":6817:6881   */\n      tag_132\n      jump\t// in\n    tag_240:\n        /* \"#utility.yul\":6801:6882   */\n      tag_115\n      jump\t// in\n    tag_239:\n        /* \"#utility.yul\":6792:6882   */\n      swap1\n      pop\n        /* \"#utility.yul\":6902:6907   */\n      dup1\n        /* \"#utility.yul\":6931:6937   */\n      dup4\n        /* \"#utility.yul\":6924:6929   */\n      dup3\n        /* \"#utility.yul\":6917:6938   */\n      mstore\n        /* \"#utility.yul\":6965:6969   */\n      0x20\n        /* \"#utility.yul\":6958:6963   */\n      dup3\n        /* \"#utility.yul\":6954:6970   */\n      add\n        /* \"#utility.yul\":6947:6970   */\n      swap1\n      pop\n        /* \"#utility.yul\":7018:7022   */\n      0x20\n        /* \"#utility.yul\":7010:7016   */\n      dup5\n        /* \"#utility.yul\":7006:7023   */\n      mul\n        /* \"#utility.yul\":6998:7004   */\n      dup4\n        /* \"#utility.yul\":6994:7024   */\n      add\n        /* \"#utility.yul\":7047:7050   */\n      dup6\n        /* \"#utility.yul\":7039:7045   */\n      dup2\n        /* \"#utility.yul\":7036:7051   */\n      gt\n        /* \"#utility.yul\":7033:7155   */\n      iszero\n      tag_241\n      jumpi\n        /* \"#utility.yul\":7066:7145   */\n      tag_242\n      tag_125\n      jump\t// in\n    tag_242:\n        /* \"#utility.yul\":7033:7155   */\n    tag_241:\n        /* \"#utility.yul\":7181:7187   */\n      dup4\n        /* \"#utility.yul\":7164:7384   */\n    tag_243:\n        /* \"#utility.yul\":7198:7204   */\n      dup2\n        /* \"#utility.yul\":7193:7196   */\n      dup2\n        /* \"#utility.yul\":7190:7205   */\n      lt\n        /* \"#utility.yul\":7164:7384   */\n      iszero\n      tag_245\n      jumpi\n        /* \"#utility.yul\":7273:7276   */\n      dup1\n        /* \"#utility.yul\":7302:7339   */\n      tag_246\n        /* \"#utility.yul\":7335:7338   */\n      dup9\n        /* \"#utility.yul\":7323:7333   */\n      dup3\n        /* \"#utility.yul\":7302:7339   */\n      tag_135\n      jump\t// in\n    tag_246:\n        /* \"#utility.yul\":7297:7300   */\n      dup5\n        /* \"#utility.yul\":7290:7340   */\n      mstore\n        /* \"#utility.yul\":7369:7373   */\n      0x20\n        /* \"#utility.yul\":7364:7367   */\n      dup5\n        /* \"#utility.yul\":7360:7374   */\n      add\n        /* \"#utility.yul\":7353:7374   */\n      swap4\n      pop\n        /* \"#utility.yul\":7240:7384   */\n      pop\n        /* \"#utility.yul\":7224:7228   */\n      0x20\n        /* \"#utility.yul\":7219:7222   */\n      dup2\n        /* \"#utility.yul\":7215:7229   */\n      add\n        /* \"#utility.yul\":7208:7229   */\n      swap1\n      pop\n        /* \"#utility.yul\":7164:7384   */\n      jump(tag_243)\n    tag_245:\n        /* \"#utility.yul\":7168:7189   */\n      pop\n        /* \"#utility.yul\":6782:7390   */\n      pop\n      pop\n        /* \"#utility.yul\":6680:7390   */\n      swap4\n      swap3\n      pop\n      pop\n      pop\n      jump\t// out\n        /* \"#utility.yul\":7413:7783   */\n    tag_137:\n        /* \"#utility.yul\":7484:7489   */\n      0x00\n        /* \"#utility.yul\":7533:7536   */\n      dup3\n        /* \"#utility.yul\":7526:7530   */\n      0x1f\n        /* \"#utility.yul\":7518:7524   */\n      dup4\n        /* \"#utility.yul\":7514:7531   */\n      add\n        /* \"#utility.yul\":7510:7537   */\n      slt\n        /* \"#utility.yul\":7500:7622   */\n      tag_248\n      jumpi\n        /* \"#utility.yul\":7541:7620   */\n      tag_249\n      tag_111\n      jump\t// in\n    tag_249:\n        /* \"#utility.yul\":7500:7622   */\n    tag_248:\n        /* \"#utility.yul\":7658:7664   */\n      dup2\n        /* \"#utility.yul\":7645:7665   */\n      calldataload\n        /* \"#utility.yul\":7683:7777   */\n      tag_250\n        /* \"#utility.yul\":7773:7776   */\n      dup5\n        /* \"#utility.yul\":7765:7771   */\n      dup3\n        /* \"#utility.yul\":7758:7762   */\n      0x20\n        /* \"#utility.yul\":7750:7756   */\n      dup7\n        /* \"#utility.yul\":7746:7763   */\n      add\n        /* \"#utility.yul\":7683:7777   */\n      tag_136\n      jump\t// in\n    tag_250:\n        /* \"#utility.yul\":7674:7777   */\n      swap2\n      pop\n        /* \"#utility.yul\":7490:7783   */\n      pop\n        /* \"#utility.yul\":7413:7783   */\n      swap3\n      swap2\n      pop\n      pop\n      jump\t// out\n        /* \"#utility.yul\":7789:8110   */\n    tag_138:\n        /* \"#utility.yul\":7876:7880   */\n      0x00\n        /* \"#utility.yul\":7966:7984   */\n      0xffffffffffffffff\n        /* \"#utility.yul\":7958:7964   */\n      dup3\n        /* \"#utility.yul\":7955:7985   */\n      gt\n        /* \"#utility.yul\":7952:8008   */\n      iszero\n      tag_252\n      jumpi\n        /* \"#utility.yul\":7988:8006   */\n      tag_253\n      tag_80\n      jump\t// in\n    tag_253:\n        /* \"#utility.yul\":7952:8008   */\n    tag_252:\n        /* \"#utility.yul\":8038:8042   */\n      0x20\n        /* \"#utility.yul\":8030:8036   */\n      dup3\n        /* \"#utility.yul\":8026:8043   */\n      mul\n        /* \"#utility.yul\":8018:8043   */\n      swap1\n      pop\n        /* \"#utility.yul\":8098:8102   */\n      0x20\n        /* \"#utility.yul\":8092:8096   */\n      dup2\n        /* \"#utility.yul\":8088:8103   */\n      add\n        /* \"#utility.yul\":8080:8103   */\n      swap1\n      pop\n        /* \"#utility.yul\":7789:8110   */\n      swap2\n      swap1\n      pop\n      jump\t// out\n        /* \"#utility.yul\":8116:8424   */\n    tag_139:\n        /* \"#utility.yul\":8178:8182   */\n      0x00\n        /* \"#utility.yul\":8268:8286   */\n      0xffffffffffffffff\n        /* \"#utility.yul\":8260:8266   */\n      dup3\n        /* \"#utility.yul\":8257:8287   */\n      gt\n        /* \"#utility.yul\":8254:8310   */\n      iszero\n      tag_255\n      jumpi\n        /* \"#utility.yul\":8290:8308   */\n      tag_256\n      tag_80\n      jump\t// in\n    tag_256:\n        /* \"#utility.yul\":8254:8310   */\n    tag_255:\n        /* \"#utility.yul\":8328:8357   */\n      tag_257\n        /* \"#utility.yul\":8350:8356   */\n      dup3\n        /* \"#utility.yul\":8328:8357   */\n      tag_113\n      jump\t// in\n    tag_257:\n        /* \"#utility.yul\":8320:8357   */\n      swap1\n      pop\n        /* \"#utility.yul\":8412:8416   */\n      0x20\n        /* \"#utility.yul\":8406:8410   */\n      dup2\n        /* \"#utility.yul\":8402:8417   */\n      add\n        /* \"#utility.yul\":8394:8417   */\n      swap1\n      pop\n        /* \"#utility.yul\":8116:8424   */\n      swap2\n      swap1\n      pop\n      jump\t// out\n        /* \"#utility.yul\":8430:8855   */\n    tag_140:\n        /* \"#utility.yul\":8508:8513   */\n      0x00\n        /* \"#utility.yul\":8533:8599   */\n      tag_259\n        /* \"#utility.yul\":8549:8598   */\n      tag_260\n        /* \"#utility.yul\":8591:8597   */\n      dup5\n        /* \"#utility.yul\":8549:8598   */\n      tag_139\n      jump\t// in\n    tag_260:\n        /* \"#utility.yul\":8533:8599   */\n      tag_115\n      jump\t// in\n    tag_259:\n        /* \"#utility.yul\":8524:8599   */\n      swap1\n      pop\n        /* \"#utility.yul\":8622:8628   */\n      dup3\n        /* \"#utility.yul\":8615:8620   */\n      dup2\n        /* \"#utility.yul\":8608:8629   */\n      mstore\n        /* \"#utility.yul\":8660:8664   */\n      0x20\n        /* \"#utility.yul\":8653:8658   */\n      dup2\n        /* \"#utility.yul\":8649:8665   */\n      add\n        /* \"#utility.yul\":8698:8701   */\n      dup5\n        /* \"#utility.yul\":8689:8695   */\n      dup5\n        /* \"#utility.yul\":8684:8687   */\n      dup5\n        /* \"#utility.yul\":8680:8696   */\n      add\n        /* \"#utility.yul\":8677:8702   */\n      gt\n        /* \"#utility.yul\":8674:8786   */\n      iszero\n      tag_261\n      jumpi\n        /* \"#utility.yul\":8705:8784   */\n      tag_262\n      tag_112\n      jump\t// in\n    tag_262:\n        /* \"#utility.yul\":8674:8786   */\n    tag_261:\n        /* \"#utility.yul\":8795:8849   */\n      tag_263\n        /* \"#utility.yul\":8842:8848   */\n      dup5\n        /* \"#utility.yul\":8837:8840   */\n      dup3\n        /* \"#utility.yul\":8832:8835   */\n      dup6\n        /* \"#utility.yul\":8795:8849   */\n      tag_117\n      jump\t// in\n    tag_263:\n        /* \"#utility.yul\":8514:8855   */\n      pop\n        /* \"#utility.yul\":8430:8855   */\n      swap4\n      swap3\n      pop\n      pop\n      pop\n      jump\t// out\n        /* \"#utility.yul\":8875:9215   */\n    tag_141:\n        /* \"#utility.yul\":8931:8936   */\n      0x00\n        /* \"#utility.yul\":8980:8983   */\n      dup3\n        /* \"#utility.yul\":8973:8977   */\n      0x1f\n        /* \"#utility.yul\":8965:8971   */\n      dup4\n        /* \"#utility.yul\":8961:8978   */\n      add\n        /* \"#utility.yul\":8957:8984   */\n      slt\n        /* \"#utility.yul\":8947:9069   */\n      tag_265\n      jumpi\n        /* \"#utility.yul\":8988:9067   */\n      tag_266\n      tag_111\n      jump\t// in\n    tag_266:\n        /* \"#utility.yul\":8947:9069   */\n    tag_265:\n        /* \"#utility.yul\":9105:9111   */\n      dup2\n        /* \"#utility.yul\":9092:9112   */\n      calldataload\n        /* \"#utility.yul\":9130:9209   */\n      tag_267\n        /* \"#utility.yul\":9205:9208   */\n      dup5\n        /* \"#utility.yul\":9197:9203   */\n      dup3\n        /* \"#utility.yul\":9190:9194   */\n      0x20\n        /* \"#utility.yul\":9182:9188   */\n      dup7\n        /* \"#utility.yul\":9178:9195   */\n      add\n        /* \"#utility.yul\":9130:9209   */\n      tag_140\n      jump\t// in\n    tag_267:\n        /* \"#utility.yul\":9121:9209   */\n      swap2\n      pop\n        /* \"#utility.yul\":8937:9215   */\n      pop\n        /* \"#utility.yul\":8875:9215   */\n      swap3\n      swap2\n      pop\n      pop\n      jump\t// out\n        /* \"#utility.yul\":9237:10182   */\n    tag_142:\n        /* \"#utility.yul\":9343:9348   */\n      0x00\n        /* \"#utility.yul\":9368:9459   */\n      tag_269\n        /* \"#utility.yul\":9384:9458   */\n      tag_270\n        /* \"#utility.yul\":9451:9457   */\n      dup5\n        /* \"#utility.yul\":9384:9458   */\n      tag_138\n      jump\t// in\n    tag_270:\n        /* \"#utility.yul\":9368:9459   */\n      tag_115\n      jump\t// in\n    tag_269:\n        /* \"#utility.yul\":9359:9459   */\n      swap1\n      pop\n        /* \"#utility.yul\":9479:9484   */\n      dup1\n        /* \"#utility.yul\":9508:9514   */\n      dup4\n        /* \"#utility.yul\":9501:9506   */\n      dup3\n        /* \"#utility.yul\":9494:9515   */\n      mstore\n        /* \"#utility.yul\":9542:9546   */\n      0x20\n        /* \"#utility.yul\":9535:9540   */\n      dup3\n        /* \"#utility.yul\":9531:9547   */\n      add\n        /* \"#utility.yul\":9524:9547   */\n      swap1\n      pop\n        /* \"#utility.yul\":9595:9599   */\n      0x20\n        /* \"#utility.yul\":9587:9593   */\n      dup5\n        /* \"#utility.yul\":9583:9600   */\n      mul\n        /* \"#utility.yul\":9575:9581   */\n      dup4\n        /* \"#utility.yul\":9571:9601   */\n      add\n        /* \"#utility.yul\":9624:9627   */\n      dup6\n        /* \"#utility.yul\":9616:9622   */\n      dup2\n        /* \"#utility.yul\":9613:9628   */\n      gt\n        /* \"#utility.yul\":9610:9732   */\n      iszero\n      tag_271\n      jumpi\n        /* \"#utility.yul\":9643:9722   */\n      tag_272\n      tag_125\n      jump\t// in\n    tag_272:\n        /* \"#utility.yul\":9610:9732   */\n    tag_271:\n        /* \"#utility.yul\":9758:9764   */\n      dup4\n        /* \"#utility.yul\":9741:10176   */\n    tag_273:\n        /* \"#utility.yul\":9775:9781   */\n      dup2\n        /* \"#utility.yul\":9770:9773   */\n      dup2\n        /* \"#utility.yul\":9767:9782   */\n      lt\n        /* \"#utility.yul\":9741:10176   */\n      iszero\n      tag_275\n      jumpi\n        /* \"#utility.yul\":9864:9867   */\n      dup1\n        /* \"#utility.yul\":9851:9868   */\n      calldataload\n        /* \"#utility.yul\":9900:9918   */\n      0xffffffffffffffff\n        /* \"#utility.yul\":9887:9898   */\n      dup2\n        /* \"#utility.yul\":9884:9919   */\n      gt\n        /* \"#utility.yul\":9881:10003   */\n      iszero\n      tag_276\n      jumpi\n        /* \"#utility.yul\":9922:10001   */\n      tag_277\n      tag_111\n      jump\t// in\n    tag_277:\n        /* \"#utility.yul\":9881:10003   */\n    tag_276:\n        /* \"#utility.yul\":10046:10057   */\n      dup1\n        /* \"#utility.yul\":10038:10044   */\n      dup7\n        /* \"#utility.yul\":10034:10058   */\n      add\n        /* \"#utility.yul\":10084:10131   */\n      tag_278\n        /* \"#utility.yul\":10127:10130   */\n      dup10\n        /* \"#utility.yul\":10115:10125   */\n      dup3\n        /* \"#utility.yul\":10084:10131   */\n      tag_141\n      jump\t// in\n    tag_278:\n        /* \"#utility.yul\":10079:10082   */\n      dup6\n        /* \"#utility.yul\":10072:10132   */\n      mstore\n        /* \"#utility.yul\":10161:10165   */\n      0x20\n        /* \"#utility.yul\":10156:10159   */\n      dup6\n        /* \"#utility.yul\":10152:10166   */\n      add\n        /* \"#utility.yul\":10145:10166   */\n      swap5\n      pop\n        /* \"#utility.yul\":9817:10176   */\n      pop\n      pop\n        /* \"#utility.yul\":9801:9805   */\n      0x20\n        /* \"#utility.yul\":9796:9799   */\n      dup2\n        /* \"#utility.yul\":9792:9806   */\n      add\n        /* \"#utility.yul\":9785:9806   */\n      swap1\n      pop\n        /* \"#utility.yul\":9741:10176   */\n      jump(tag_273)\n    tag_275:\n        /* \"#utility.yul\":9745:9766   */\n      pop\n        /* \"#utility.yul\":9349:10182   */\n      pop\n      pop\n        /* \"#utility.yul\":9237:10182   */\n      swap4\n      swap3\n      pop\n      pop\n      pop\n      jump\t// out\n        /* \"#utility.yul\":10204:10594   */\n    tag_143:\n        /* \"#utility.yul\":10285:10290   */\n      0x00\n        /* \"#utility.yul\":10334:10337   */\n      dup3\n        /* \"#utility.yul\":10327:10331   */\n      0x1f\n        /* \"#utility.yul\":10319:10325   */\n      dup4\n        /* \"#utility.yul\":10315:10332   */\n      add\n        /* \"#utility.yul\":10311:10338   */\n      slt\n        /* \"#utility.yul\":10301:10423   */\n      tag_280\n      jumpi\n        /* \"#utility.yul\":10342:10421   */\n      tag_281\n      tag_111\n      jump\t// in\n    tag_281:\n        /* \"#utility.yul\":10301:10423   */\n    tag_280:\n        /* \"#utility.yul\":10459:10465   */\n      dup2\n        /* \"#utility.yul\":10446:10466   */\n      calldataload\n        /* \"#utility.yul\":10484:10588   */\n      tag_282\n        /* \"#utility.yul\":10584:10587   */\n      dup5\n        /* \"#utility.yul\":10576:10582   */\n      dup3\n        /* \"#utility.yul\":10569:10573   */\n      0x20\n        /* \"#utility.yul\":10561:10567   */\n      dup7\n        /* \"#utility.yul\":10557:10574   */\n      add\n        /* \"#utility.yul\":10484:10588   */\n      tag_142\n      jump\t// in\n    tag_282:\n        /* \"#utility.yul\":10475:10588   */\n      swap2\n      pop\n        /* \"#utility.yul\":10291:10594   */\n      pop\n        /* \"#utility.yul\":10204:10594   */\n      swap3\n      swap2\n      pop\n      pop\n      jump\t// out\n        /* \"#utility.yul\":10600:10920   */\n    tag_144:\n        /* \"#utility.yul\":10686:10690   */\n      0x00\n        /* \"#utility.yul\":10776:10794   */\n      0xffffffffffffffff\n        /* \"#utility.yul\":10768:10774   */\n      dup3\n        /* \"#utility.yul\":10765:10795   */\n      gt\n        /* \"#utility.yul\":10762:10818   */\n      iszero\n      tag_284\n      jumpi\n        /* \"#utility.yul\":10798:10816   */\n      tag_285\n      tag_80\n      jump\t// in\n    tag_285:\n        /* \"#utility.yul\":10762:10818   */\n    tag_284:\n        /* \"#utility.yul\":10848:10852   */\n      0x20\n        /* \"#utility.yul\":10840:10846   */\n      dup3\n        /* \"#utility.yul\":10836:10853   */\n      mul\n        /* \"#utility.yul\":10828:10853   */\n      swap1\n      pop\n        /* \"#utility.yul\":10908:10912   */\n      0x20\n        /* \"#utility.yul\":10902:10906   */\n      dup2\n        /* \"#utility.yul\":10898:10913   */\n      add\n        /* \"#utility.yul\":10890:10913   */\n      swap1\n      pop\n        /* \"#utility.yul\":10600:10920   */\n      swap2\n      swap1\n      pop\n      jump\t// out\n        /* \"#utility.yul\":10941:11883   */\n    tag_145:\n        /* \"#utility.yul\":11046:11051   */\n      0x00\n        /* \"#utility.yul\":11071:11161   */\n      tag_287\n        /* \"#utility.yul\":11087:11160   */\n      tag_288\n        /* \"#utility.yul\":11153:11159   */\n      dup5\n        /* \"#utility.yul\":11087:11160   */\n      tag_144\n      jump\t// in\n    tag_288:\n        /* \"#utility.yul\":11071:11161   */\n      tag_115\n      jump\t// in\n    tag_287:\n        /* \"#utility.yul\":11062:11161   */\n      swap1\n      pop\n        /* \"#utility.yul\":11181:11186   */\n      dup1\n        /* \"#utility.yul\":11210:11216   */\n      dup4\n        /* \"#utility.yul\":11203:11208   */\n      dup3\n        /* \"#utility.yul\":11196:11217   */\n      mstore\n        /* \"#utility.yul\":11244:11248   */\n      0x20\n        /* \"#utility.yul\":11237:11242   */\n      dup3\n        /* \"#utility.yul\":11233:11249   */\n      add\n        /* \"#utility.yul\":11226:11249   */\n      swap1\n      pop\n        /* \"#utility.yul\":11297:11301   */\n      0x20\n        /* \"#utility.yul\":11289:11295   */\n      dup5\n        /* \"#utility.yul\":11285:11302   */\n      mul\n        /* \"#utility.yul\":11277:11283   */\n      dup4\n        /* \"#utility.yul\":11273:11303   */\n      add\n        /* \"#utility.yul\":11326:11329   */\n      dup6\n        /* \"#utility.yul\":11318:11324   */\n      dup2\n        /* \"#utility.yul\":11315:11330   */\n      gt\n        /* \"#utility.yul\":11312:11434   */\n      iszero\n      tag_289\n      jumpi\n        /* \"#utility.yul\":11345:11424   */\n      tag_290\n      tag_125\n      jump\t// in\n    tag_290:\n        /* \"#utility.yul\":11312:11434   */\n    tag_289:\n        /* \"#utility.yul\":11460:11466   */\n      dup4\n        /* \"#utility.yul\":11443:11877   */\n    tag_291:\n        /* \"#utility.yul\":11477:11483   */\n      dup2\n        /* \"#utility.yul\":11472:11475   */\n      dup2\n        /* \"#utility.yul\":11469:11484   */\n      lt\n        /* \"#utility.yul\":11443:11877   */\n      iszero\n      tag_293\n      jumpi\n        /* \"#utility.yul\":11566:11569   */\n      dup1\n        /* \"#utility.yul\":11553:11570   */\n      calldataload\n        /* \"#utility.yul\":11602:11620   */\n      0xffffffffffffffff\n        /* \"#utility.yul\":11589:11600   */\n      dup2\n        /* \"#utility.yul\":11586:11621   */\n      gt\n        /* \"#utility.yul\":11583:11705   */\n      iszero\n      tag_294\n      jumpi\n        /* \"#utility.yul\":11624:11703   */\n      tag_295\n      tag_111\n      jump\t// in\n    tag_295:\n        /* \"#utility.yul\":11583:11705   */\n    tag_294:\n        /* \"#utility.yul\":11748:11759   */\n      dup1\n        /* \"#utility.yul\":11740:11746   */\n      dup7\n        /* \"#utility.yul\":11736:11760   */\n      add\n        /* \"#utility.yul\":11786:11832   */\n      tag_296\n        /* \"#utility.yul\":11828:11831   */\n      dup10\n        /* \"#utility.yul\":11816:11826   */\n      dup3\n        /* \"#utility.yul\":11786:11832   */\n      tag_119\n      jump\t// in\n    tag_296:\n        /* \"#utility.yul\":11781:11784   */\n      dup6\n        /* \"#utility.yul\":11774:11833   */\n      mstore\n        /* \"#utility.yul\":11862:11866   */\n      0x20\n        /* \"#utility.yul\":11857:11860   */\n      dup6\n        /* \"#utility.yul\":11853:11867   */\n      add\n        /* \"#utility.yul\":11846:11867   */\n      swap5\n      pop\n        /* \"#utility.yul\":11519:11877   */\n      pop\n      pop\n        /* \"#utility.yul\":11503:11507   */\n      0x20\n        /* \"#utility.yul\":11498:11501   */\n      dup2\n        /* \"#utility.yul\":11494:11508   */\n      add\n        /* \"#utility.yul\":11487:11508   */\n      swap1\n      pop\n        /* \"#utility.yul\":11443:11877   */\n      jump(tag_291)\n    tag_293:\n        /* \"#utility.yul\":11447:11468   */\n      pop\n        /* \"#utility.yul\":11052:11883   */\n      pop\n      pop\n        /* \"#utility.yul\":10941:11883   */\n      swap4\n      swap3\n      pop\n      pop\n      pop\n      jump\t// out\n        /* \"#utility.yul\":11904:12292   */\n    tag_146:\n        /* \"#utility.yul\":11984:11989   */\n      0x00\n        /* \"#utility.yul\":12033:12036   */\n      dup3\n        /* \"#utility.yul\":12026:12030   */\n      0x1f\n        /* \"#utility.yul\":12018:12024   */\n      dup4\n        /* \"#utility.yul\":12014:12031   */\n      add\n        /* \"#utility.yul\":12010:12037   */\n      slt\n        /* \"#utility.yul\":12000:12122   */\n      tag_298\n      jumpi\n        /* \"#utility.yul\":12041:12120   */\n      tag_299\n      tag_111\n      jump\t// in\n    tag_299:\n        /* \"#utility.yul\":12000:12122   */\n    tag_298:\n        /* \"#utility.yul\":12158:12164   */\n      dup2\n        /* \"#utility.yul\":12145:12165   */\n      calldataload\n        /* \"#utility.yul\":12183:12286   */\n      tag_300\n        /* \"#utility.yul\":12282:12285   */\n      dup5\n        /* \"#utility.yul\":12274:12280   */\n      dup3\n        /* \"#utility.yul\":12267:12271   */\n      0x20\n        /* \"#utility.yul\":12259:12265   */\n      dup7\n        /* \"#utility.yul\":12255:12272   */\n      add\n        /* \"#utility.yul\":12183:12286   */\n      tag_145\n      jump\t// in\n    tag_300:\n        /* \"#utility.yul\":12174:12286   */\n      swap2\n      pop\n        /* \"#utility.yul\":11990:12292   */\n      pop\n        /* \"#utility.yul\":11904:12292   */\n      swap3\n      swap2\n      pop\n      pop\n      jump\t// out\n        /* \"#utility.yul\":12298:13941   */\n    tag_14:\n        /* \"#utility.yul\":12503:12509   */\n      0x00\n        /* \"#utility.yul\":12511:12517   */\n      dup1\n        /* \"#utility.yul\":12519:12525   */\n      0x00\n        /* \"#utility.yul\":12527:12533   */\n      dup1\n        /* \"#utility.yul\":12576:12579   */\n      0x80\n        /* \"#utility.yul\":12564:12573   */\n      dup6\n        /* \"#utility.yul\":12555:12562   */\n      dup8\n        /* \"#utility.yul\":12551:12574   */\n      sub\n        /* \"#utility.yul\":12547:12580   */\n      slt\n        /* \"#utility.yul\":12544:12664   */\n      iszero\n      tag_302\n      jumpi\n        /* \"#utility.yul\":12583:12662   */\n      tag_303\n      tag_109\n      jump\t// in\n    tag_303:\n        /* \"#utility.yul\":12544:12664   */\n    tag_302:\n        /* \"#utility.yul\":12731:12732   */\n      0x00\n        /* \"#utility.yul\":12720:12729   */\n      dup6\n        /* \"#utility.yul\":12716:12733   */\n      add\n        /* \"#utility.yul\":12703:12734   */\n      calldataload\n        /* \"#utility.yul\":12761:12779   */\n      0xffffffffffffffff\n        /* \"#utility.yul\":12753:12759   */\n      dup2\n        /* \"#utility.yul\":12750:12780   */\n      gt\n        /* \"#utility.yul\":12747:12864   */\n      iszero\n      tag_304\n      jumpi\n        /* \"#utility.yul\":12783:12862   */\n      tag_305\n      tag_110\n      jump\t// in\n    tag_305:\n        /* \"#utility.yul\":12747:12864   */\n    tag_304:\n        /* \"#utility.yul\":12888:12966   */\n      tag_306\n        /* \"#utility.yul\":12958:12965   */\n      dup8\n        /* \"#utility.yul\":12949:12955   */\n      dup3\n        /* \"#utility.yul\":12938:12947   */\n      dup9\n        /* \"#utility.yul\":12934:12956   */\n      add\n        /* \"#utility.yul\":12888:12966   */\n      tag_131\n      jump\t// in\n    tag_306:\n        /* \"#utility.yul\":12878:12966   */\n      swap5\n      pop\n        /* \"#utility.yul\":12674:12976   */\n      pop\n        /* \"#utility.yul\":13043:13045   */\n      0x20\n        /* \"#utility.yul\":13032:13041   */\n      dup6\n        /* \"#utility.yul\":13028:13046   */\n      add\n        /* \"#utility.yul\":13015:13047   */\n      calldataload\n        /* \"#utility.yul\":13074:13092   */\n      0xffffffffffffffff\n        /* \"#utility.yul\":13066:13072   */\n      dup2\n        /* \"#utility.yul\":13063:13093   */\n      gt\n        /* \"#utility.yul\":13060:13177   */\n      iszero\n      tag_307\n      jumpi\n        /* \"#utility.yul\":13096:13175   */\n      tag_308\n      tag_110\n      jump\t// in\n    tag_308:\n        /* \"#utility.yul\":13060:13177   */\n    tag_307:\n        /* \"#utility.yul\":13201:13279   */\n      tag_309\n        /* \"#utility.yul\":13271:13278   */\n      dup8\n        /* \"#utility.yul\":13262:13268   */\n      dup3\n        /* \"#utility.yul\":13251:13260   */\n      dup9\n        /* \"#utility.yul\":13247:13269   */\n      add\n        /* \"#utility.yul\":13201:13279   */\n      tag_137\n      jump\t// in\n    tag_309:\n        /* \"#utility.yul\":13191:13279   */\n      swap4\n      pop\n        /* \"#utility.yul\":12986:13289   */\n      pop\n        /* \"#utility.yul\":13356:13358   */\n      0x40\n        /* \"#utility.yul\":13345:13354   */\n      dup6\n        /* \"#utility.yul\":13341:13359   */\n      add\n        /* \"#utility.yul\":13328:13360   */\n      calldataload\n        /* \"#utility.yul\":13387:13405   */\n      0xffffffffffffffff\n        /* \"#utility.yul\":13379:13385   */\n      dup2\n        /* \"#utility.yul\":13376:13406   */\n      gt\n        /* \"#utility.yul\":13373:13490   */\n      iszero\n      tag_310\n      jumpi\n        /* \"#utility.yul\":13409:13488   */\n      tag_311\n      tag_110\n      jump\t// in\n    tag_311:\n        /* \"#utility.yul\":13373:13490   */\n    tag_310:\n        /* \"#utility.yul\":13514:13602   */\n      tag_312\n        /* \"#utility.yul\":13594:13601   */\n      dup8\n        /* \"#utility.yul\":13585:13591   */\n      dup3\n        /* \"#utility.yul\":13574:13583   */\n      dup9\n        /* \"#utility.yul\":13570:13592   */\n      add\n        /* \"#utility.yul\":13514:13602   */\n      tag_143\n      jump\t// in\n    tag_312:\n        /* \"#utility.yul\":13504:13602   */\n      swap3\n      pop\n        /* \"#utility.yul\":13299:13612   */\n      pop\n        /* \"#utility.yul\":13679:13681   */\n      0x60\n        /* \"#utility.yul\":13668:13677   */\n      dup6\n        /* \"#utility.yul\":13664:13682   */\n      add\n        /* \"#utility.yul\":13651:13683   */\n      calldataload\n        /* \"#utility.yul\":13710:13728   */\n      0xffffffffffffffff\n        /* \"#utility.yul\":13702:13708   */\n      dup2\n        /* \"#utility.yul\":13699:13729   */\n      gt\n        /* \"#utility.yul\":13696:13813   */\n      iszero\n      tag_313\n      jumpi\n        /* \"#utility.yul\":13732:13811   */\n      tag_314\n      tag_110\n      jump\t// in\n    tag_314:\n        /* \"#utility.yul\":13696:13813   */\n    tag_313:\n        /* \"#utility.yul\":13837:13924   */\n      tag_315\n        /* \"#utility.yul\":13916:13923   */\n      dup8\n        /* \"#utility.yul\":13907:13913   */\n      dup3\n        /* \"#utility.yul\":13896:13905   */\n      dup9\n        /* \"#utility.yul\":13892:13914   */\n      add\n        /* \"#utility.yul\":13837:13924   */\n      tag_146\n      jump\t// in\n    tag_315:\n        /* \"#utility.yul\":13827:13924   */\n      swap2\n      pop\n        /* \"#utility.yul\":13622:13934   */\n      pop\n        /* \"#utility.yul\":12298:13941   */\n      swap3\n      swap6\n      swap2\n      swap5\n      pop\n      swap3\n      pop\n      jump\t// out\n        /* \"#utility.yul\":13947:14924   */\n    tag_18:\n        /* \"#utility.yul\":14043:14049   */\n      0x00\n        /* \"#utility.yul\":14051:14057   */\n      dup1\n        /* \"#utility.yul\":14059:14065   */\n      0x00\n        /* \"#utility.yul\":14108:14110   */\n      0x60\n        /* \"#utility.yul\":14096:14105   */\n      dup5\n        /* \"#utility.yul\":14087:14094   */\n      dup7\n        /* \"#utility.yul\":14083:14106   */\n      sub\n        /* \"#utility.yul\":14079:14111   */\n      slt\n        /* \"#utility.yul\":14076:14195   */\n      iszero\n      tag_317\n      jumpi\n        /* \"#utility.yul\":14114:14193   */\n      tag_318\n      tag_109\n      jump\t// in\n    tag_318:\n        /* \"#utility.yul\":14076:14195   */\n    tag_317:\n        /* \"#utility.yul\":14234:14235   */\n      0x00\n        /* \"#utility.yul\":14259:14312   */\n      tag_319\n        /* \"#utility.yul\":14304:14311   */\n      dup7\n        /* \"#utility.yul\":14295:14301   */\n      dup3\n        /* \"#utility.yul\":14284:14293   */\n      dup8\n        /* \"#utility.yul\":14280:14302   */\n      add\n        /* \"#utility.yul\":14259:14312   */\n      tag_129\n      jump\t// in\n    tag_319:\n        /* \"#utility.yul\":14249:14312   */\n      swap4\n      pop\n        /* \"#utility.yul\":14205:14322   */\n      pop\n        /* \"#utility.yul\":14389:14391   */\n      0x20\n        /* \"#utility.yul\":14378:14387   */\n      dup5\n        /* \"#utility.yul\":14374:14392   */\n      add\n        /* \"#utility.yul\":14361:14393   */\n      calldataload\n        /* \"#utility.yul\":14420:14438   */\n      0xffffffffffffffff\n        /* \"#utility.yul\":14412:14418   */\n      dup2\n        /* \"#utility.yul\":14409:14439   */\n      gt\n        /* \"#utility.yul\":14406:14523   */\n      iszero\n      tag_320\n      jumpi\n        /* \"#utility.yul\":14442:14521   */\n      tag_321\n      tag_110\n      jump\t// in\n    tag_321:\n        /* \"#utility.yul\":14406:14523   */\n    tag_320:\n        /* \"#utility.yul\":14547:14610   */\n      tag_322\n        /* \"#utility.yul\":14602:14609   */\n      dup7\n        /* \"#utility.yul\":14593:14599   */\n      dup3\n        /* \"#utility.yul\":14582:14591   */\n      dup8\n        /* \"#utility.yul\":14578:14600   */\n      add\n        /* \"#utility.yul\":14547:14610   */\n      tag_141\n      jump\t// in\n    tag_322:\n        /* \"#utility.yul\":14537:14610   */\n      swap3\n      pop\n        /* \"#utility.yul\":14332:14620   */\n      pop\n        /* \"#utility.yul\":14687:14689   */\n      0x40\n        /* \"#utility.yul\":14676:14685   */\n      dup5\n        /* \"#utility.yul\":14672:14690   */\n      add\n        /* \"#utility.yul\":14659:14691   */\n      calldataload\n        /* \"#utility.yul\":14718:14736   */\n      0xffffffffffffffff\n        /* \"#utility.yul\":14710:14716   */\n      dup2\n        /* \"#utility.yul\":14707:14737   */\n      gt\n        /* \"#utility.yul\":14704:14821   */\n      iszero\n      tag_323\n      jumpi\n        /* \"#utility.yul\":14740:14819   */\n      tag_324\n      tag_110\n      jump\t// in\n    tag_324:\n        /* \"#utility.yul\":14704:14821   */\n    tag_323:\n        /* \"#utility.yul\":14845:14907   */\n      tag_325\n        /* \"#utility.yul\":14899:14906   */\n      dup7\n        /* \"#utility.yul\":14890:14896   */\n      dup3\n        /* \"#utility.yul\":14879:14888   */\n      dup8\n        /* \"#utility.yul\":14875:14897   */\n      add\n        /* \"#utility.yul\":14845:14907   */\n      tag_119\n      jump\t// in\n    tag_325:\n        /* \"#utility.yul\":14835:14907   */\n      swap2\n      pop\n        /* \"#utility.yul\":14630:14917   */\n      pop\n        /* \"#utility.yul\":13947:14924   */\n      swap3\n      pop\n      swap3\n      pop\n      swap3\n      jump\t// out\n        /* \"#utility.yul\":14930:15110   */\n    tag_147:\n        /* \"#utility.yul\":14978:15055   */\n      0x4e487b7100000000000000000000000000000000000000000000000000000000\n        /* \"#utility.yul\":14975:14976   */\n      0x00\n        /* \"#utility.yul\":14968:15056   */\n      mstore\n        /* \"#utility.yul\":15075:15079   */\n      0x11\n        /* \"#utility.yul\":15072:15073   */\n      0x04\n        /* \"#utility.yul\":15065:15080   */\n      mstore\n        /* \"#utility.yul\":15099:15103   */\n      0x24\n        /* \"#utility.yul\":15096:15097   */\n      0x00\n        /* \"#utility.yul\":15089:15104   */\n      revert\n        /* \"#utility.yul\":15116:15304   */\n    tag_24:\n        /* \"#utility.yul\":15154:15157   */\n      0x00\n        /* \"#utility.yul\":15173:15191   */\n      tag_328\n        /* \"#utility.yul\":15189:15190   */\n      dup3\n        /* \"#utility.yul\":15173:15191   */\n      tag_122\n      jump\t// in\n    tag_328:\n        /* \"#utility.yul\":15168:15191   */\n      swap2\n      pop\n        /* \"#utility.yul\":15205:15223   */\n      tag_329\n        /* \"#utility.yul\":15221:15222   */\n      dup4\n        /* \"#utility.yul\":15205:15223   */\n      tag_122\n      jump\t// in\n    tag_329:\n        /* \"#utility.yul\":15200:15223   */\n      swap3\n      pop\n        /* \"#utility.yul\":15246:15247   */\n      dup3\n        /* \"#utility.yul\":15243:15244   */\n      dup3\n        /* \"#utility.yul\":15239:15248   */\n      add\n        /* \"#utility.yul\":15232:15248   */\n      swap1\n      pop\n        /* \"#utility.yul\":15269:15273   */\n      0xff\n        /* \"#utility.yul\":15264:15267   */\n      dup2\n        /* \"#utility.yul\":15261:15274   */\n      gt\n        /* \"#utility.yul\":15258:15297   */\n      iszero\n      tag_330\n      jumpi\n        /* \"#utility.yul\":15277:15295   */\n      tag_331\n      tag_147\n      jump\t// in\n    tag_331:\n        /* \"#utility.yul\":15258:15297   */\n    tag_330:\n        /* \"#utility.yul\":15116:15304   */\n      swap3\n      swap2\n      pop\n      pop\n      jump\t// out\n        /* \"#utility.yul\":15310:15490   */\n    tag_34:\n        /* \"#utility.yul\":15358:15435   */\n      0x4e487b7100000000000000000000000000000000000000000000000000000000\n        /* \"#utility.yul\":15355:15356   */\n      0x00\n        /* \"#utility.yul\":15348:15436   */\n      mstore\n        /* \"#utility.yul\":15455:15459   */\n      0x32\n        /* \"#utility.yul\":15452:15453   */\n      0x04\n        /* \"#utility.yul\":15445:15460   */\n      mstore\n        /* \"#utility.yul\":15479:15483   */\n      0x24\n        /* \"#utility.yul\":15476:15477   */\n      0x00\n        /* \"#utility.yul\":15469:15484   */\n      revert\n        /* \"#utility.yul\":15496:15614   */\n    tag_148:\n        /* \"#utility.yul\":15583:15607   */\n      tag_334\n        /* \"#utility.yul\":15601:15606   */\n      dup2\n        /* \"#utility.yul\":15583:15607   */\n      tag_127\n      jump\t// in\n    tag_334:\n        /* \"#utility.yul\":15578:15581   */\n      dup3\n        /* \"#utility.yul\":15571:15608   */\n      mstore\n        /* \"#utility.yul\":15496:15614   */\n      pop\n      pop\n      jump\t// out\n        /* \"#utility.yul\":15620:15738   */\n    tag_149:\n        /* \"#utility.yul\":15707:15731   */\n      tag_336\n        /* \"#utility.yul\":15725:15730   */\n      dup2\n        /* \"#utility.yul\":15707:15731   */\n      tag_133\n      jump\t// in\n    tag_336:\n        /* \"#utility.yul\":15702:15705   */\n      dup3\n        /* \"#utility.yul\":15695:15732   */\n      mstore\n        /* \"#utility.yul\":15620:15738   */\n      pop\n      pop\n      jump\t// out\n        /* \"#utility.yul\":15744:16076   */\n    tag_44:\n        /* \"#utility.yul\":15865:15869   */\n      0x00\n        /* \"#utility.yul\":15903:15905   */\n      0x40\n        /* \"#utility.yul\":15892:15901   */\n      dup3\n        /* \"#utility.yul\":15888:15906   */\n      add\n        /* \"#utility.yul\":15880:15906   */\n      swap1\n      pop\n        /* \"#utility.yul\":15916:15987   */\n      tag_338\n        /* \"#utility.yul\":15984:15985   */\n      0x00\n        /* \"#utility.yul\":15973:15982   */\n      dup4\n        /* \"#utility.yul\":15969:15986   */\n      add\n        /* \"#utility.yul\":15960:15966   */\n      dup6\n        /* \"#utility.yul\":15916:15987   */\n      tag_148\n      jump\t// in\n    tag_338:\n        /* \"#utility.yul\":15997:16069   */\n      tag_339\n        /* \"#utility.yul\":16065:16067   */\n      0x20\n        /* \"#utility.yul\":16054:16063   */\n      dup4\n        /* \"#utility.yul\":16050:16068   */\n      add\n        /* \"#utility.yul\":16041:16047   */\n      dup5\n        /* \"#utility.yul\":15997:16069   */\n      tag_149\n      jump\t// in\n    tag_339:\n        /* \"#utility.yul\":15744:16076   */\n      swap4\n      swap3\n      pop\n      pop\n      pop\n      jump\t// out\n        /* \"#utility.yul\":16082:16181   */\n    tag_150:\n        /* \"#utility.yul\":16134:16140   */\n      0x00\n        /* \"#utility.yul\":16168:16173   */\n      dup2\n        /* \"#utility.yul\":16162:16174   */\n      mload\n        /* \"#utility.yul\":16152:16174   */\n      swap1\n      pop\n        /* \"#utility.yul\":16082:16181   */\n      swap2\n      swap1\n      pop\n      jump\t// out\n        /* \"#utility.yul\":16187:16356   */\n    tag_151:\n        /* \"#utility.yul\":16271:16282   */\n      0x00\n        /* \"#utility.yul\":16305:16311   */\n      dup3\n        /* \"#utility.yul\":16300:16303   */\n      dup3\n        /* \"#utility.yul\":16293:16312   */\n      mstore\n        /* \"#utility.yul\":16345:16349   */\n      0x20\n        /* \"#utility.yul\":16340:16343   */\n      dup3\n        /* \"#utility.yul\":16336:16350   */\n      add\n        /* \"#utility.yul\":16321:16350   */\n      swap1\n      pop\n        /* \"#utility.yul\":16187:16356   */\n      swap3\n      swap2\n      pop\n      pop\n      jump\t// out\n        /* \"#utility.yul\":16362:16608   */\n    tag_152:\n        /* \"#utility.yul\":16443:16444   */\n      0x00\n        /* \"#utility.yul\":16453:16566   */\n    tag_343:\n        /* \"#utility.yul\":16467:16473   */\n      dup4\n        /* \"#utility.yul\":16464:16465   */\n      dup2\n        /* \"#utility.yul\":16461:16474   */\n      lt\n        /* \"#utility.yul\":16453:16566   */\n      iszero\n      tag_345\n      jumpi\n        /* \"#utility.yul\":16552:16553   */\n      dup1\n        /* \"#utility.yul\":16547:16550   */\n      dup3\n        /* \"#utility.yul\":16543:16554   */\n      add\n        /* \"#utility.yul\":16537:16555   */\n      mload\n        /* \"#utility.yul\":16533:16534   */\n      dup2\n        /* \"#utility.yul\":16528:16531   */\n      dup5\n        /* \"#utility.yul\":16524:16535   */\n      add\n        /* \"#utility.yul\":16517:16556   */\n      mstore\n        /* \"#utility.yul\":16489:16491   */\n      0x20\n        /* \"#utility.yul\":16486:16487   */\n      dup2\n        /* \"#utility.yul\":16482:16492   */\n      add\n        /* \"#utility.yul\":16477:16492   */\n      swap1\n      pop\n        /* \"#utility.yul\":16453:16566   */\n      jump(tag_343)\n    tag_345:\n        /* \"#utility.yul\":16600:16601   */\n      0x00\n        /* \"#utility.yul\":16591:16597   */\n      dup5\n        /* \"#utility.yul\":16586:16589   */\n      dup5\n        /* \"#utility.yul\":16582:16598   */\n      add\n        /* \"#utility.yul\":16575:16602   */\n      mstore\n        /* \"#utility.yul\":16424:16608   */\n      pop\n        /* \"#utility.yul\":16362:16608   */\n      pop\n      pop\n      pop\n      jump\t// out\n        /* \"#utility.yul\":16614:16991   */\n    tag_153:\n        /* \"#utility.yul\":16702:16705   */\n      0x00\n        /* \"#utility.yul\":16730:16769   */\n      tag_347\n        /* \"#utility.yul\":16763:16768   */\n      dup3\n        /* \"#utility.yul\":16730:16769   */\n      tag_150\n      jump\t// in\n    tag_347:\n        /* \"#utility.yul\":16785:16856   */\n      tag_348\n        /* \"#utility.yul\":16849:16855   */\n      dup2\n        /* \"#utility.yul\":16844:16847   */\n      dup6\n        /* \"#utility.yul\":16785:16856   */\n      tag_151\n      jump\t// in\n    tag_348:\n        /* \"#utility.yul\":16778:16856   */\n      swap4\n      pop\n        /* \"#utility.yul\":16865:16930   */\n      tag_349\n        /* \"#utility.yul\":16923:16929   */\n      dup2\n        /* \"#utility.yul\":16918:16921   */\n      dup6\n        /* \"#utility.yul\":16911:16915   */\n      0x20\n        /* \"#utility.yul\":16904:16909   */\n      dup7\n        /* \"#utility.yul\":16900:16916   */\n      add\n        /* \"#utility.yul\":16865:16930   */\n      tag_152\n      jump\t// in\n    tag_349:\n        /* \"#utility.yul\":16955:16984   */\n      tag_350\n        /* \"#utility.yul\":16977:16983   */\n      dup2\n        /* \"#utility.yul\":16955:16984   */\n      tag_113\n      jump\t// in\n    tag_350:\n        /* \"#utility.yul\":16950:16953   */\n      dup5\n        /* \"#utility.yul\":16946:16985   */\n      add\n        /* \"#utility.yul\":16939:16985   */\n      swap2\n      pop\n        /* \"#utility.yul\":16706:16991   */\n      pop\n        /* \"#utility.yul\":16614:16991   */\n      swap3\n      swap2\n      pop\n      pop\n      jump\t// out\n        /* \"#utility.yul\":16997:17420   */\n    tag_53:\n        /* \"#utility.yul\":17138:17142   */\n      0x00\n        /* \"#utility.yul\":17176:17178   */\n      0x40\n        /* \"#utility.yul\":17165:17174   */\n      dup3\n        /* \"#utility.yul\":17161:17179   */\n      add\n        /* \"#utility.yul\":17153:17179   */\n      swap1\n      pop\n        /* \"#utility.yul\":17189:17260   */\n      tag_352\n        /* \"#utility.yul\":17257:17258   */\n      0x00\n        /* \"#utility.yul\":17246:17255   */\n      dup4\n        /* \"#utility.yul\":17242:17259   */\n      add\n        /* \"#utility.yul\":17233:17239   */\n      dup6\n        /* \"#utility.yul\":17189:17260   */\n      tag_148\n      jump\t// in\n    tag_352:\n        /* \"#utility.yul\":17307:17316   */\n      dup2\n        /* \"#utility.yul\":17301:17305   */\n      dup2\n        /* \"#utility.yul\":17297:17317   */\n      sub\n        /* \"#utility.yul\":17292:17294   */\n      0x20\n        /* \"#utility.yul\":17281:17290   */\n      dup4\n        /* \"#utility.yul\":17277:17295   */\n      add\n        /* \"#utility.yul\":17270:17318   */\n      mstore\n        /* \"#utility.yul\":17335:17413   */\n      tag_353\n        /* \"#utility.yul\":17408:17412   */\n      dup2\n        /* \"#utility.yul\":17399:17405   */\n      dup5\n        /* \"#utility.yul\":17335:17413   */\n      tag_153\n      jump\t// in\n    tag_353:\n        /* \"#utility.yul\":17327:17413   */\n      swap1\n      pop\n        /* \"#utility.yul\":16997:17420   */\n      swap4\n      swap3\n      pop\n      pop\n      pop\n      jump\t// out\n        /* \"#utility.yul\":17426:17971   */\n    tag_60:\n        /* \"#utility.yul\":17599:17603   */\n      0x00\n        /* \"#utility.yul\":17637:17640   */\n      0x80\n        /* \"#utility.yul\":17626:17635   */\n      dup3\n        /* \"#utility.yul\":17622:17641   */\n      add\n        /* \"#utility.yul\":17614:17641   */\n      swap1\n      pop\n        /* \"#utility.yul\":17651:17722   */\n      tag_355\n        /* \"#utility.yul\":17719:17720   */\n      0x00\n        /* \"#utility.yul\":17708:17717   */\n      dup4\n        /* \"#utility.yul\":17704:17721   */\n      add\n        /* \"#utility.yul\":17695:17701   */\n      dup8\n        /* \"#utility.yul\":17651:17722   */\n      tag_121\n      jump\t// in\n    tag_355:\n        /* \"#utility.yul\":17732:17800   */\n      tag_356\n        /* \"#utility.yul\":17796:17798   */\n      0x20\n        /* \"#utility.yul\":17785:17794   */\n      dup4\n        /* \"#utility.yul\":17781:17799   */\n      add\n        /* \"#utility.yul\":17772:17778   */\n      dup7\n        /* \"#utility.yul\":17732:17800   */\n      tag_123\n      jump\t// in\n    tag_356:\n        /* \"#utility.yul\":17810:17882   */\n      tag_357\n        /* \"#utility.yul\":17878:17880   */\n      0x40\n        /* \"#utility.yul\":17867:17876   */\n      dup4\n        /* \"#utility.yul\":17863:17881   */\n      add\n        /* \"#utility.yul\":17854:17860   */\n      dup6\n        /* \"#utility.yul\":17810:17882   */\n      tag_121\n      jump\t// in\n    tag_357:\n        /* \"#utility.yul\":17892:17964   */\n      tag_358\n        /* \"#utility.yul\":17960:17962   */\n      0x60\n        /* \"#utility.yul\":17949:17958   */\n      dup4\n        /* \"#utility.yul\":17945:17963   */\n      add\n        /* \"#utility.yul\":17936:17942   */\n      dup5\n        /* \"#utility.yul\":17892:17964   */\n      tag_121\n      jump\t// in\n    tag_358:\n        /* \"#utility.yul\":17426:17971   */\n      swap6\n      swap5\n      pop\n      pop\n      pop\n      pop\n      pop\n      jump\t// out\n        /* \"#utility.yul\":17977:18199   */\n    tag_64:\n        /* \"#utility.yul\":18070:18074   */\n      0x00\n        /* \"#utility.yul\":18108:18110   */\n      0x20\n        /* \"#utility.yul\":18097:18106   */\n      dup3\n        /* \"#utility.yul\":18093:18111   */\n      add\n        /* \"#utility.yul\":18085:18111   */\n      swap1\n      pop\n        /* \"#utility.yul\":18121:18192   */\n      tag_360\n        /* \"#utility.yul\":18189:18190   */\n      0x00\n        /* \"#utility.yul\":18178:18187   */\n      dup4\n        /* \"#utility.yul\":18174:18191   */\n      add\n        /* \"#utility.yul\":18165:18171   */\n      dup5\n        /* \"#utility.yul\":18121:18192   */\n      tag_148\n      jump\t// in\n    tag_360:\n        /* \"#utility.yul\":17977:18199   */\n      swap3\n      swap2\n      pop\n      pop\n      jump\t// out\n        /* \"#utility.yul\":18205:18353   */\n    tag_154:\n        /* \"#utility.yul\":18307:18318   */\n      0x00\n        /* \"#utility.yul\":18344:18347   */\n      dup2\n        /* \"#utility.yul\":18329:18347   */\n      swap1\n      pop\n        /* \"#utility.yul\":18205:18353   */\n      swap3\n      swap2\n      pop\n      pop\n      jump\t// out\n        /* \"#utility.yul\":18359:18573   */\n    tag_155:\n        /* \"#utility.yul\":18499:18565   */\n      0x19457468657265756d205369676e6564204d6573736167653a0a000000000000\n        /* \"#utility.yul\":18495:18496   */\n      0x00\n        /* \"#utility.yul\":18487:18493   */\n      dup3\n        /* \"#utility.yul\":18483:18497   */\n      add\n        /* \"#utility.yul\":18476:18566   */\n      mstore\n        /* \"#utility.yul\":18359:18573   */\n      pop\n      jump\t// out\n        /* \"#utility.yul\":18579:18981   */\n    tag_156:\n        /* \"#utility.yul\":18739:18742   */\n      0x00\n        /* \"#utility.yul\":18760:18845   */\n      tag_364\n        /* \"#utility.yul\":18842:18844   */\n      0x1a\n        /* \"#utility.yul\":18837:18840   */\n      dup4\n        /* \"#utility.yul\":18760:18845   */\n      tag_154\n      jump\t// in\n    tag_364:\n        /* \"#utility.yul\":18753:18845   */\n      swap2\n      pop\n        /* \"#utility.yul\":18854:18947   */\n      tag_365\n        /* \"#utility.yul\":18943:18946   */\n      dup3\n        /* \"#utility.yul\":18854:18947   */\n      tag_155\n      jump\t// in\n    tag_365:\n        /* \"#utility.yul\":18972:18974   */\n      0x1a\n        /* \"#utility.yul\":18967:18970   */\n      dup3\n        /* \"#utility.yul\":18963:18975   */\n      add\n        /* \"#utility.yul\":18956:18975   */\n      swap1\n      pop\n        /* \"#utility.yul\":18579:18981   */\n      swap2\n      swap1\n      pop\n      jump\t// out\n        /* \"#utility.yul\":18987:19377   */\n    tag_157:\n        /* \"#utility.yul\":19093:19096   */\n      0x00\n        /* \"#utility.yul\":19121:19160   */\n      tag_367\n        /* \"#utility.yul\":19154:19159   */\n      dup3\n        /* \"#utility.yul\":19121:19160   */\n      tag_150\n      jump\t// in\n    tag_367:\n        /* \"#utility.yul\":19176:19265   */\n      tag_368\n        /* \"#utility.yul\":19258:19264   */\n      dup2\n        /* \"#utility.yul\":19253:19256   */\n      dup6\n        /* \"#utility.yul\":19176:19265   */\n      tag_154\n      jump\t// in\n    tag_368:\n        /* \"#utility.yul\":19169:19265   */\n      swap4\n      pop\n        /* \"#utility.yul\":19274:19339   */\n      tag_369\n        /* \"#utility.yul\":19332:19338   */\n      dup2\n        /* \"#utility.yul\":19327:19330   */\n      dup6\n        /* \"#utility.yul\":19320:19324   */\n      0x20\n        /* \"#utility.yul\":19313:19318   */\n      dup7\n        /* \"#utility.yul\":19309:19325   */\n      add\n        /* \"#utility.yul\":19274:19339   */\n      tag_152\n      jump\t// in\n    tag_369:\n        /* \"#utility.yul\":19364:19370   */\n      dup1\n        /* \"#utility.yul\":19359:19362   */\n      dup5\n        /* \"#utility.yul\":19355:19371   */\n      add\n        /* \"#utility.yul\":19348:19371   */\n      swap2\n      pop\n        /* \"#utility.yul\":19097:19377   */\n      pop\n        /* \"#utility.yul\":18987:19377   */\n      swap3\n      swap2\n      pop\n      pop\n      jump\t// out\n        /* \"#utility.yul\":19383:20084   */\n    tag_74:\n        /* \"#utility.yul\":19664:19667   */\n      0x00\n        /* \"#utility.yul\":19686:19834   */\n      tag_371\n        /* \"#utility.yul\":19830:19833   */\n      dup3\n        /* \"#utility.yul\":19686:19834   */\n      tag_156\n      jump\t// in\n    tag_371:\n        /* \"#utility.yul\":19679:19834   */\n      swap2\n      pop\n        /* \"#utility.yul\":19851:19946   */\n      tag_372\n        /* \"#utility.yul\":19942:19945   */\n      dup3\n        /* \"#utility.yul\":19933:19939   */\n      dup6\n        /* \"#utility.yul\":19851:19946   */\n      tag_157\n      jump\t// in\n    tag_372:\n        /* \"#utility.yul\":19844:19946   */\n      swap2\n      pop\n        /* \"#utility.yul\":19963:20058   */\n      tag_373\n        /* \"#utility.yul\":20054:20057   */\n      dup3\n        /* \"#utility.yul\":20045:20051   */\n      dup5\n        /* \"#utility.yul\":19963:20058   */\n      tag_157\n      jump\t// in\n    tag_373:\n        /* \"#utility.yul\":19956:20058   */\n      swap2\n      pop\n        /* \"#utility.yul\":20075:20078   */\n      dup2\n        /* \"#utility.yul\":20068:20078   */\n      swap1\n      pop\n        /* \"#utility.yul\":19383:20084   */\n      swap4\n      swap3\n      pop\n      pop\n      pop\n      jump\t// out\n        /* \"#utility.yul\":20090:20270   */\n    tag_86:\n        /* \"#utility.yul\":20138:20215   */\n      0x4e487b7100000000000000000000000000000000000000000000000000000000\n        /* \"#utility.yul\":20135:20136   */\n      0x00\n        /* \"#utility.yul\":20128:20216   */\n      mstore\n        /* \"#utility.yul\":20235:20239   */\n      0x12\n        /* \"#utility.yul\":20232:20233   */\n      0x04\n        /* \"#utility.yul\":20225:20240   */\n      mstore\n        /* \"#utility.yul\":20259:20263   */\n      0x24\n        /* \"#utility.yul\":20256:20257   */\n      0x00\n        /* \"#utility.yul\":20249:20264   */\n      revert\n\n    auxdata: 0xa26469706673582212200dcf5c92c2a434028f9ac55812ed50d5fb9994e6b9de91fd40bd1f5377f7111664736f6c63430008180033\n}\n",
				"bytecode": {
					"linkReferences": {},
					"object": "608060405234801562000010575f80fd5b5060405162001279380380620012798339818101604052810190620000369190620000e1565b805f806101000a81548173ffffffffffffffffffffffffffffffffffffffff021916908373ffffffffffffffffffffffffffffffffffffffff1602179055505062000111565b5f80fd5b5f73ffffffffffffffffffffffffffffffffffffffff82169050919050565b5f620000ab8262000080565b9050919050565b620000bd816200009f565b8114620000c8575f80fd5b50565b5f81519050620000db81620000b2565b92915050565b5f60208284031215620000f957620000f86200007c565b5b5f6200010884828501620000cb565b91505092915050565b61115a806200011f5f395ff3fe608060405234801561000f575f80fd5b506004361061003f575f3560e01c80632ff4bb4b14610043578063883a6c751461007557806395e0e0c914610091575b5f80fd5b61005d600480360381019061005891906107f8565b6100ad565b60405161006c93929190610872565b60405180910390f35b61008f600480360381019061008a9190610d12565b610114565b005b6100ab60048036038101906100a69190610de6565b6102b4565b005b5f805f60418451146100bd575f80fd5b602084015192506040840151915060608401515f1a9050601b8160ff1610156100f057601b816100ed9190610e9b565b90505b601b8160ff1614806101055750601c8160ff16145b61010d575f80fd5b9193909250565b5f5b84518110156102ad5761017885828151811061013557610134610ecf565b5b60200260200101518483815181106101505761014f610ecf565b5b602002602001015184848151811061016b5761016a610ecf565b5b60200260200101516102b4565b5f8054906101000a900473ffffffffffffffffffffffffffffffffffffffff1673ffffffffffffffffffffffffffffffffffffffff166340c10f198683815181106101c6576101c5610ecf565b5b60200260200101518684815181106101e1576101e0610ecf565b5b60200260200101516040518363ffffffff1660e01b8152600401610206929190610f1a565b5f604051808303815f87803b15801561021d575f80fd5b505af115801561022f573d5f803e3d5ffd5b505050507f710c6bec3cf443b5afbda9ff86716f3a0d00db3ddaee6cc493c93be240533e1285828151811061026757610266610ecf565b5b602002602001015184838151811061028257610281610ecf565b5b6020026020010151604051610298929190610fbb565b60405180910390a18080600101915050610116565b5050505050565b5f6102be83610451565b90505f805f6102cc856100ad565b9250925092507f29bd5e82392230298810019d37e60fc402505adb5afa0f05072474634fcca38083838360405161030593929190610872565b60405180910390a17f690c22a325937e3625a470a9f14c15683846660270fb112ea5c93a7ea9de74666001858386866040515f81526020016040526040516103509493929190610fe9565b6020604051602081039080840390855afa158015610370573d5f803e3d5ffd5b50505060206040510351604051610387919061102c565b60405180910390a17f690c22a325937e3625a470a9f14c15683846660270fb112ea5c93a7ea9de7466876040516103be919061102c565b60405180910390a16001848285856040515f81526020016040526040516103e89493929190610fe9565b6020604051602081039080840390855afa158015610408573d5f803e3d5ffd5b5050506020604051035173ffffffffffffffffffffffffffffffffffffffff168773ffffffffffffffffffffffffffffffffffffffff1614610448575f80fd5b50505050505050565b5f808251905061046081610490565b836040516020016104729291906110c9565b60405160208183030381529060405280519060200120915050919050565b60605f600161049e8461055a565b0190505f8167ffffffffffffffff8111156104bc576104bb6106d4565b5b6040519080825280601f01601f1916602001820160405280156104ee5781602001600182028036833780820191505090505b5090505f82602001820190505b60011561054f578080600190039150507f3031323334353637383961626364656600000000000000000000000000000000600a86061a8153600a8581610544576105436110f7565b5b0494505f85036104fb575b819350505050919050565b5f805f90507a184f03e93ff9f4daa797ed6e38ed64bf6a1f01000000000000000083106105b6577a184f03e93ff9f4daa797ed6e38ed64bf6a1f01000000000000000083816105ac576105ab6110f7565b5b0492506040810190505b6d04ee2d6d415b85acef810000000083106105f3576d04ee2d6d415b85acef810000000083816105e9576105e86110f7565b5b0492506020810190505b662386f26fc10000831061062257662386f26fc100008381610618576106176110f7565b5b0492506010810190505b6305f5e100831061064b576305f5e1008381610641576106406110f7565b5b0492506008810190505b6127108310610670576127108381610666576106656110f7565b5b0492506004810190505b606483106106935760648381610689576106886110f7565b5b0492506002810190505b600a83106106a2576001810190505b80915050919050565b5f604051905090565b5f80fd5b5f80fd5b5f80fd5b5f80fd5b5f601f19601f8301169050919050565b7f4e487b71000000000000000000000000000000000000000000000000000000005f52604160045260245ffd5b61070a826106c4565b810181811067ffffffffffffffff82111715610729576107286106d4565b5b80604052505050565b5f61073b6106ab565b90506107478282610701565b919050565b5f67ffffffffffffffff821115610766576107656106d4565b5b61076f826106c4565b9050602081019050919050565b828183375f83830152505050565b5f61079c6107978461074c565b610732565b9050828152602081018484840111156107b8576107b76106c0565b5b6107c384828561077c565b509392505050565b5f82601f8301126107df576107de6106bc565b5b81356107ef84826020860161078a565b91505092915050565b5f6020828403121561080d5761080c6106b4565b5b5f82013567ffffffffffffffff81111561082a576108296106b8565b5b610836848285016107cb565b91505092915050565b5f819050919050565b6108518161083f565b82525050565b5f60ff82169050919050565b61086c81610857565b82525050565b5f6060820190506108855f830186610848565b6108926020830185610848565b61089f6040830184610863565b949350505050565b5f67ffffffffffffffff8211156108c1576108c06106d4565b5b602082029050602081019050919050565b5f80fd5b5f73ffffffffffffffffffffffffffffffffffffffff82169050919050565b5f6108ff826108d6565b9050919050565b61090f816108f5565b8114610919575f80fd5b50565b5f8135905061092a81610906565b92915050565b5f61094261093d846108a7565b610732565b90508083825260208201905060208402830185811115610965576109646108d2565b5b835b8181101561098e578061097a888261091c565b845260208401935050602081019050610967565b5050509392505050565b5f82601f8301126109ac576109ab6106bc565b5b81356109bc848260208601610930565b91505092915050565b5f67ffffffffffffffff8211156109df576109de6106d4565b5b602082029050602081019050919050565b5f819050919050565b610a02816109f0565b8114610a0c575f80fd5b50565b5f81359050610a1d816109f9565b92915050565b5f610a35610a30846109c5565b610732565b90508083825260208201905060208402830185811115610a5857610a576108d2565b5b835b81811015610a815780610a6d8882610a0f565b845260208401935050602081019050610a5a565b5050509392505050565b5f82601f830112610a9f57610a9e6106bc565b5b8135610aaf848260208601610a23565b91505092915050565b5f67ffffffffffffffff821115610ad257610ad16106d4565b5b602082029050602081019050919050565b5f67ffffffffffffffff821115610afd57610afc6106d4565b5b610b06826106c4565b9050602081019050919050565b5f610b25610b2084610ae3565b610732565b905082815260208101848484011115610b4157610b406106c0565b5b610b4c84828561077c565b509392505050565b5f82601f830112610b6857610b676106bc565b5b8135610b78848260208601610b13565b91505092915050565b5f610b93610b8e84610ab8565b610732565b90508083825260208201905060208402830185811115610bb657610bb56108d2565b5b835b81811015610bfd57803567ffffffffffffffff811115610bdb57610bda6106bc565b5b808601610be88982610b54565b85526020850194505050602081019050610bb8565b5050509392505050565b5f82601f830112610c1b57610c1a6106bc565b5b8135610c2b848260208601610b81565b91505092915050565b5f67ffffffffffffffff821115610c4e57610c4d6106d4565b5b602082029050602081019050919050565b5f610c71610c6c84610c34565b610732565b90508083825260208201905060208402830185811115610c9457610c936108d2565b5b835b81811015610cdb57803567ffffffffffffffff811115610cb957610cb86106bc565b5b808601610cc689826107cb565b85526020850194505050602081019050610c96565b5050509392505050565b5f82601f830112610cf957610cf86106bc565b5b8135610d09848260208601610c5f565b91505092915050565b5f805f8060808587031215610d2a57610d296106b4565b5b5f85013567ffffffffffffffff811115610d4757610d466106b8565b5b610d5387828801610998565b945050602085013567ffffffffffffffff811115610d7457610d736106b8565b5b610d8087828801610a8b565b935050604085013567ffffffffffffffff811115610da157610da06106b8565b5b610dad87828801610c07565b925050606085013567ffffffffffffffff811115610dce57610dcd6106b8565b5b610dda87828801610ce5565b91505092959194509250565b5f805f60608486031215610dfd57610dfc6106b4565b5b5f610e0a8682870161091c565b935050602084013567ffffffffffffffff811115610e2b57610e2a6106b8565b5b610e3786828701610b54565b925050604084013567ffffffffffffffff811115610e5857610e576106b8565b5b610e64868287016107cb565b9150509250925092565b7f4e487b71000000000000000000000000000000000000000000000000000000005f52601160045260245ffd5b5f610ea582610857565b9150610eb083610857565b9250828201905060ff811115610ec957610ec8610e6e565b5b92915050565b7f4e487b71000000000000000000000000000000000000000000000000000000005f52603260045260245ffd5b610f05816108f5565b82525050565b610f14816109f0565b82525050565b5f604082019050610f2d5f830185610efc565b610f3a6020830184610f0b565b9392505050565b5f81519050919050565b5f82825260208201905092915050565b5f5b83811015610f78578082015181840152602081019050610f5d565b5f8484015250505050565b5f610f8d82610f41565b610f978185610f4b565b9350610fa7818560208601610f5b565b610fb0816106c4565b840191505092915050565b5f604082019050610fce5f830185610efc565b8181036020830152610fe08184610f83565b90509392505050565b5f608082019050610ffc5f830187610848565b6110096020830186610863565b6110166040830185610848565b6110236060830184610848565b95945050505050565b5f60208201905061103f5f830184610efc565b92915050565b5f81905092915050565b7f19457468657265756d205369676e6564204d6573736167653a0a0000000000005f82015250565b5f611083601a83611045565b915061108e8261104f565b601a82019050919050565b5f6110a382610f41565b6110ad8185611045565b93506110bd818560208601610f5b565b80840191505092915050565b5f6110d382611077565b91506110df8285611099565b91506110eb8284611099565b91508190509392505050565b7f4e487b71000000000000000000000000000000000000000000000000000000005f52601260045260245ffdfea26469706673582212200dcf5c92c2a434028f9ac55812ed50d5fb9994e6b9de91fd40bd1f5377f7111664736f6c63430008180033",
					"opcodes": "PUSH1 0x80 PUSH1 0x40 MSTORE CALLVALUE DUP1 ISZERO PUSH3 0x10 JUMPI PUSH0 DUP1 REVERT JUMPDEST POP PUSH1 0x40 MLOAD PUSH3 0x1279 CODESIZE SUB DUP1 PUSH3 0x1279 DUP4 CODECOPY DUP2 DUP2 ADD PUSH1 0x40 MSTORE DUP2 ADD SWAP1 PUSH3 0x36 SWAP2 SWAP1 PUSH3 0xE1 JUMP JUMPDEST DUP1 PUSH0 DUP1 PUSH2 0x100 EXP DUP2 SLOAD DUP2 PUSH20 0xFFFFFFFFFFFFFFFFFFFFFFFFFFFFFFFFFFFFFFFF MUL NOT AND SWAP1 DUP4 PUSH20 0xFFFFFFFFFFFFFFFFFFFFFFFFFFFFFFFFFFFFFFFF AND MUL OR SWAP1 SSTORE POP POP PUSH3 0x111 JUMP JUMPDEST PUSH0 DUP1 REVERT JUMPDEST PUSH0 PUSH20 0xFFFFFFFFFFFFFFFFFFFFFFFFFFFFFFFFFFFFFFFF DUP3 AND SWAP1 POP SWAP2 SWAP1 POP JUMP JUMPDEST PUSH0 PUSH3 0xAB DUP3 PUSH3 0x80 JUMP JUMPDEST SWAP1 POP SWAP2 SWAP1 POP JUMP JUMPDEST PUSH3 0xBD DUP2 PUSH3 0x9F JUMP JUMPDEST DUP2 EQ PUSH3 0xC8 JUMPI PUSH0 DUP1 REVERT JUMPDEST POP JUMP JUMPDEST PUSH0 DUP2 MLOAD SWAP1 POP PUSH3 0xDB DUP2 PUSH3 0xB2 JUMP JUMPDEST SWAP3 SWAP2 POP POP JUMP JUMPDEST PUSH0 PUSH1 0x20 DUP3 DUP5 SUB SLT ISZERO PUSH3 0xF9 JUMPI PUSH3 0xF8 PUSH3 0x7C JUMP JUMPDEST JUMPDEST PUSH0 PUSH3 0x108 DUP5 DUP3 DUP6 ADD PUSH3 0xCB JUMP JUMPDEST SWAP2 POP POP SWAP3 SWAP2 POP POP JUMP JUMPDEST PUSH2 0x115A DUP1 PUSH3 0x11F PUSH0 CODECOPY PUSH0 RETURN INVALID PUSH1 0x80 PUSH1 0x40 MSTORE CALLVALUE DUP1 ISZERO PUSH2 0xF JUMPI PUSH0 DUP1 REVERT JUMPDEST POP PUSH1 0x4 CALLDATASIZE LT PUSH2 0x3F JUMPI PUSH0 CALLDATALOAD PUSH1 0xE0 SHR DUP1 PUSH4 0x2FF4BB4B EQ PUSH2 0x43 JUMPI DUP1 PUSH4 0x883A6C75 EQ PUSH2 0x75 JUMPI DUP1 PUSH4 0x95E0E0C9 EQ PUSH2 0x91 JUMPI JUMPDEST PUSH0 DUP1 REVERT JUMPDEST PUSH2 0x5D PUSH1 0x4 DUP1 CALLDATASIZE SUB DUP2 ADD SWAP1 PUSH2 0x58 SWAP2 SWAP1 PUSH2 0x7F8 JUMP JUMPDEST PUSH2 0xAD JUMP JUMPDEST PUSH1 0x40 MLOAD PUSH2 0x6C SWAP4 SWAP3 SWAP2 SWAP1 PUSH2 0x872 JUMP JUMPDEST PUSH1 0x40 MLOAD DUP1 SWAP2 SUB SWAP1 RETURN JUMPDEST PUSH2 0x8F PUSH1 0x4 DUP1 CALLDATASIZE SUB DUP2 ADD SWAP1 PUSH2 0x8A SWAP2 SWAP1 PUSH2 0xD12 JUMP JUMPDEST PUSH2 0x114 JUMP JUMPDEST STOP JUMPDEST PUSH2 0xAB PUSH1 0x4 DUP1 CALLDATASIZE SUB DUP2 ADD SWAP1 PUSH2 0xA6 SWAP2 SWAP1 PUSH2 0xDE6 JUMP JUMPDEST PUSH2 0x2B4 JUMP JUMPDEST STOP JUMPDEST PUSH0 DUP1 PUSH0 PUSH1 0x41 DUP5 MLOAD EQ PUSH2 0xBD JUMPI PUSH0 DUP1 REVERT JUMPDEST PUSH1 0x20 DUP5 ADD MLOAD SWAP3 POP PUSH1 0x40 DUP5 ADD MLOAD SWAP2 POP PUSH1 0x60 DUP5 ADD MLOAD PUSH0 BYTE SWAP1 POP PUSH1 0x1B DUP2 PUSH1 0xFF AND LT ISZERO PUSH2 0xF0 JUMPI PUSH1 0x1B DUP2 PUSH2 0xED SWAP2 SWAP1 PUSH2 0xE9B JUMP JUMPDEST SWAP1 POP JUMPDEST PUSH1 0x1B DUP2 PUSH1 0xFF AND EQ DUP1 PUSH2 0x105 JUMPI POP PUSH1 0x1C DUP2 PUSH1 0xFF AND EQ JUMPDEST PUSH2 0x10D JUMPI PUSH0 DUP1 REVERT JUMPDEST SWAP2 SWAP4 SWAP1 SWAP3 POP JUMP JUMPDEST PUSH0 JUMPDEST DUP5 MLOAD DUP2 LT ISZERO PUSH2 0x2AD JUMPI PUSH2 0x178 DUP6 DUP3 DUP2 MLOAD DUP2 LT PUSH2 0x135 JUMPI PUSH2 0x134 PUSH2 0xECF JUMP JUMPDEST JUMPDEST PUSH1 0x20 MUL PUSH1 0x20 ADD ADD MLOAD DUP5 DUP4 DUP2 MLOAD DUP2 LT PUSH2 0x150 JUMPI PUSH2 0x14F PUSH2 0xECF JUMP JUMPDEST JUMPDEST PUSH1 0x20 MUL PUSH1 0x20 ADD ADD MLOAD DUP5 DUP5 DUP2 MLOAD DUP2 LT PUSH2 0x16B JUMPI PUSH2 0x16A PUSH2 0xECF JUMP JUMPDEST JUMPDEST PUSH1 0x20 MUL PUSH1 0x20 ADD ADD MLOAD PUSH2 0x2B4 JUMP JUMPDEST PUSH0 DUP1 SLOAD SWAP1 PUSH2 0x100 EXP SWAP1 DIV PUSH20 0xFFFFFFFFFFFFFFFFFFFFFFFFFFFFFFFFFFFFFFFF AND PUSH20 0xFFFFFFFFFFFFFFFFFFFFFFFFFFFFFFFFFFFFFFFF AND PUSH4 0x40C10F19 DUP7 DUP4 DUP2 MLOAD DUP2 LT PUSH2 0x1C6 JUMPI PUSH2 0x1C5 PUSH2 0xECF JUMP JUMPDEST JUMPDEST PUSH1 0x20 MUL PUSH1 0x20 ADD ADD MLOAD DUP7 DUP5 DUP2 MLOAD DUP2 LT PUSH2 0x1E1 JUMPI PUSH2 0x1E0 PUSH2 0xECF JUMP JUMPDEST JUMPDEST PUSH1 0x20 MUL PUSH1 0x20 ADD ADD MLOAD PUSH1 0x40 MLOAD DUP4 PUSH4 0xFFFFFFFF AND PUSH1 0xE0 SHL DUP2 MSTORE PUSH1 0x4 ADD PUSH2 0x206 SWAP3 SWAP2 SWAP1 PUSH2 0xF1A JUMP JUMPDEST PUSH0 PUSH1 0x40 MLOAD DUP1 DUP4 SUB DUP2 PUSH0 DUP8 DUP1 EXTCODESIZE ISZERO DUP1 ISZERO PUSH2 0x21D JUMPI PUSH0 DUP1 REVERT JUMPDEST POP GAS CALL ISZERO DUP1 ISZERO PUSH2 0x22F JUMPI RETURNDATASIZE PUSH0 DUP1 RETURNDATACOPY RETURNDATASIZE PUSH0 REVERT JUMPDEST POP POP POP POP PUSH32 0x710C6BEC3CF443B5AFBDA9FF86716F3A0D00DB3DDAEE6CC493C93BE240533E12 DUP6 DUP3 DUP2 MLOAD DUP2 LT PUSH2 0x267 JUMPI PUSH2 0x266 PUSH2 0xECF JUMP JUMPDEST JUMPDEST PUSH1 0x20 MUL PUSH1 0x20 ADD ADD MLOAD DUP5 DUP4 DUP2 MLOAD DUP2 LT PUSH2 0x282 JUMPI PUSH2 0x281 PUSH2 0xECF JUMP JUMPDEST JUMPDEST PUSH1 0x20 MUL PUSH1 0x20 ADD ADD MLOAD PUSH1 0x40 MLOAD PUSH2 0x298 SWAP3 SWAP2 SWAP1 PUSH2 0xFBB JUMP JUMPDEST PUSH1 0x40 MLOAD DUP1 SWAP2 SUB SWAP1 LOG1 DUP1 DUP1 PUSH1 0x1 ADD SWAP2 POP POP PUSH2 0x116 JUMP JUMPDEST POP POP POP POP POP JUMP JUMPDEST PUSH0 PUSH2 0x2BE DUP4 PUSH2 0x451 JUMP JUMPDEST SWAP1 POP PUSH0 DUP1 PUSH0 PUSH2 0x2CC DUP6 PUSH2 0xAD JUMP JUMPDEST SWAP3 POP SWAP3 POP SWAP3 POP PUSH32 0x29BD5E82392230298810019D37E60FC402505ADB5AFA0F05072474634FCCA380 DUP4 DUP4 DUP4 PUSH1 0x40 MLOAD PUSH2 0x305 SWAP4 SWAP3 SWAP2 SWAP1 PUSH2 0x872 JUMP JUMPDEST PUSH1 0x40 MLOAD DUP1 SWAP2 SUB SWAP1 LOG1 PUSH32 0x690C22A325937E3625A470A9F14C15683846660270FB112EA5C93A7EA9DE7466 PUSH1 0x1 DUP6 DUP4 DUP7 DUP7 PUSH1 0x40 MLOAD PUSH0 DUP2 MSTORE PUSH1 0x20 ADD PUSH1 0x40 MSTORE PUSH1 0x40 MLOAD PUSH2 0x350 SWAP5 SWAP4 SWAP3 SWAP2 SWAP1 PUSH2 0xFE9 JUMP JUMPDEST PUSH1 0x20 PUSH1 0x40 MLOAD PUSH1 0x20 DUP2 SUB SWAP1 DUP1 DUP5 SUB SWAP1 DUP6 GAS STATICCALL ISZERO DUP1 ISZERO PUSH2 0x370 JUMPI RETURNDATASIZE PUSH0 DUP1 RETURNDATACOPY RETURNDATASIZE PUSH0 REVERT JUMPDEST POP POP POP PUSH1 0x20 PUSH1 0x40 MLOAD SUB MLOAD PUSH1 0x40 MLOAD PUSH2 0x387 SWAP2 SWAP1 PUSH2 0x102C JUMP JUMPDEST PUSH1 0x40 MLOAD DUP1 SWAP2 SUB SWAP1 LOG1 PUSH32 0x690C22A325937E3625A470A9F14C15683846660270FB112EA5C93A7EA9DE7466 DUP8 PUSH1 0x40 MLOAD PUSH2 0x3BE SWAP2 SWAP1 PUSH2 0x102C JUMP JUMPDEST PUSH1 0x40 MLOAD DUP1 SWAP2 SUB SWAP1 LOG1 PUSH1 0x1 DUP5 DUP3 DUP6 DUP6 PUSH1 0x40 MLOAD PUSH0 DUP2 MSTORE PUSH1 0x20 ADD PUSH1 0x40 MSTORE PUSH1 0x40 MLOAD PUSH2 0x3E8 SWAP5 SWAP4 SWAP3 SWAP2 SWAP1 PUSH2 0xFE9 JUMP JUMPDEST PUSH1 0x20 PUSH1 0x40 MLOAD PUSH1 0x20 DUP2 SUB SWAP1 DUP1 DUP5 SUB SWAP1 DUP6 GAS STATICCALL ISZERO DUP1 ISZERO PUSH2 0x408 JUMPI RETURNDATASIZE PUSH0 DUP1 RETURNDATACOPY RETURNDATASIZE PUSH0 REVERT JUMPDEST POP POP POP PUSH1 0x20 PUSH1 0x40 MLOAD SUB MLOAD PUSH20 0xFFFFFFFFFFFFFFFFFFFFFFFFFFFFFFFFFFFFFFFF AND DUP8 PUSH20 0xFFFFFFFFFFFFFFFFFFFFFFFFFFFFFFFFFFFFFFFF AND EQ PUSH2 0x448 JUMPI PUSH0 DUP1 REVERT JUMPDEST POP POP POP POP POP POP POP JUMP JUMPDEST PUSH0 DUP1 DUP3 MLOAD SWAP1 POP PUSH2 0x460 DUP2 PUSH2 0x490 JUMP JUMPDEST DUP4 PUSH1 0x40 MLOAD PUSH1 0x20 ADD PUSH2 0x472 SWAP3 SWAP2 SWAP1 PUSH2 0x10C9 JUMP JUMPDEST PUSH1 0x40 MLOAD PUSH1 0x20 DUP2 DUP4 SUB SUB DUP2 MSTORE SWAP1 PUSH1 0x40 MSTORE DUP1 MLOAD SWAP1 PUSH1 0x20 ADD KECCAK256 SWAP2 POP POP SWAP2 SWAP1 POP JUMP JUMPDEST PUSH1 0x60 PUSH0 PUSH1 0x1 PUSH2 0x49E DUP5 PUSH2 0x55A JUMP JUMPDEST ADD SWAP1 POP PUSH0 DUP2 PUSH8 0xFFFFFFFFFFFFFFFF DUP2 GT ISZERO PUSH2 0x4BC JUMPI PUSH2 0x4BB PUSH2 0x6D4 JUMP JUMPDEST JUMPDEST PUSH1 0x40 MLOAD SWAP1 DUP1 DUP3 MSTORE DUP1 PUSH1 0x1F ADD PUSH1 0x1F NOT AND PUSH1 0x20 ADD DUP3 ADD PUSH1 0x40 MSTORE DUP1 ISZERO PUSH2 0x4EE JUMPI DUP2 PUSH1 0x20 ADD PUSH1 0x1 DUP3 MUL DUP1 CALLDATASIZE DUP4 CALLDATACOPY DUP1 DUP3 ADD SWAP2 POP POP SWAP1 POP JUMPDEST POP SWAP1 POP PUSH0 DUP3 PUSH1 0x20 ADD DUP3 ADD SWAP1 POP JUMPDEST PUSH1 0x1 ISZERO PUSH2 0x54F JUMPI DUP1 DUP1 PUSH1 0x1 SWAP1 SUB SWAP2 POP POP PUSH32 0x3031323334353637383961626364656600000000000000000000000000000000 PUSH1 0xA DUP7 MOD BYTE DUP2 MSTORE8 PUSH1 0xA DUP6 DUP2 PUSH2 0x544 JUMPI PUSH2 0x543 PUSH2 0x10F7 JUMP JUMPDEST JUMPDEST DIV SWAP5 POP PUSH0 DUP6 SUB PUSH2 0x4FB JUMPI JUMPDEST DUP2 SWAP4 POP POP POP POP SWAP2 SWAP1 POP JUMP JUMPDEST PUSH0 DUP1 PUSH0 SWAP1 POP PUSH27 0x184F03E93FF9F4DAA797ED6E38ED64BF6A1F010000000000000000 DUP4 LT PUSH2 0x5B6 JUMPI PUSH27 0x184F03E93FF9F4DAA797ED6E38ED64BF6A1F010000000000000000 DUP4 DUP2 PUSH2 0x5AC JUMPI PUSH2 0x5AB PUSH2 0x10F7 JUMP JUMPDEST JUMPDEST DIV SWAP3 POP PUSH1 0x40 DUP2 ADD SWAP1 POP JUMPDEST PUSH14 0x4EE2D6D415B85ACEF8100000000 DUP4 LT PUSH2 0x5F3 JUMPI PUSH14 0x4EE2D6D415B85ACEF8100000000 DUP4 DUP2 PUSH2 0x5E9 JUMPI PUSH2 0x5E8 PUSH2 0x10F7 JUMP JUMPDEST JUMPDEST DIV SWAP3 POP PUSH1 0x20 DUP2 ADD SWAP1 POP JUMPDEST PUSH7 0x2386F26FC10000 DUP4 LT PUSH2 0x622 JUMPI PUSH7 0x2386F26FC10000 DUP4 DUP2 PUSH2 0x618 JUMPI PUSH2 0x617 PUSH2 0x10F7 JUMP JUMPDEST JUMPDEST DIV SWAP3 POP PUSH1 0x10 DUP2 ADD SWAP1 POP JUMPDEST PUSH4 0x5F5E100 DUP4 LT PUSH2 0x64B JUMPI PUSH4 0x5F5E100 DUP4 DUP2 PUSH2 0x641 JUMPI PUSH2 0x640 PUSH2 0x10F7 JUMP JUMPDEST JUMPDEST DIV SWAP3 POP PUSH1 0x8 DUP2 ADD SWAP1 POP JUMPDEST PUSH2 0x2710 DUP4 LT PUSH2 0x670 JUMPI PUSH2 0x2710 DUP4 DUP2 PUSH2 0x666 JUMPI PUSH2 0x665 PUSH2 0x10F7 JUMP JUMPDEST JUMPDEST DIV SWAP3 POP PUSH1 0x4 DUP2 ADD SWAP1 POP JUMPDEST PUSH1 0x64 DUP4 LT PUSH2 0x693 JUMPI PUSH1 0x64 DUP4 DUP2 PUSH2 0x689 JUMPI PUSH2 0x688 PUSH2 0x10F7 JUMP JUMPDEST JUMPDEST DIV SWAP3 POP PUSH1 0x2 DUP2 ADD SWAP1 POP JUMPDEST PUSH1 0xA DUP4 LT PUSH2 0x6A2 JUMPI PUSH1 0x1 DUP2 ADD SWAP1 POP JUMPDEST DUP1 SWAP2 POP POP SWAP2 SWAP1 POP JUMP JUMPDEST PUSH0 PUSH1 0x40 MLOAD SWAP1 POP SWAP1 JUMP JUMPDEST PUSH0 DUP1 REVERT JUMPDEST PUSH0 DUP1 REVERT JUMPDEST PUSH0 DUP1 REVERT JUMPDEST PUSH0 DUP1 REVERT JUMPDEST PUSH0 PUSH1 0x1F NOT PUSH1 0x1F DUP4 ADD AND SWAP1 POP SWAP2 SWAP1 POP JUMP JUMPDEST PUSH32 0x4E487B7100000000000000000000000000000000000000000000000000000000 PUSH0 MSTORE PUSH1 0x41 PUSH1 0x4 MSTORE PUSH1 0x24 PUSH0 REVERT JUMPDEST PUSH2 0x70A DUP3 PUSH2 0x6C4 JUMP JUMPDEST DUP2 ADD DUP2 DUP2 LT PUSH8 0xFFFFFFFFFFFFFFFF DUP3 GT OR ISZERO PUSH2 0x729 JUMPI PUSH2 0x728 PUSH2 0x6D4 JUMP JUMPDEST JUMPDEST DUP1 PUSH1 0x40 MSTORE POP POP POP JUMP JUMPDEST PUSH0 PUSH2 0x73B PUSH2 0x6AB JUMP JUMPDEST SWAP1 POP PUSH2 0x747 DUP3 DUP3 PUSH2 0x701 JUMP JUMPDEST SWAP2 SWAP1 POP JUMP JUMPDEST PUSH0 PUSH8 0xFFFFFFFFFFFFFFFF DUP3 GT ISZERO PUSH2 0x766 JUMPI PUSH2 0x765 PUSH2 0x6D4 JUMP JUMPDEST JUMPDEST PUSH2 0x76F DUP3 PUSH2 0x6C4 JUMP JUMPDEST SWAP1 POP PUSH1 0x20 DUP2 ADD SWAP1 POP SWAP2 SWAP1 POP JUMP JUMPDEST DUP3 DUP2 DUP4 CALLDATACOPY PUSH0 DUP4 DUP4 ADD MSTORE POP POP POP JUMP JUMPDEST PUSH0 PUSH2 0x79C PUSH2 0x797 DUP5 PUSH2 0x74C JUMP JUMPDEST PUSH2 0x732 JUMP JUMPDEST SWAP1 POP DUP3 DUP2 MSTORE PUSH1 0x20 DUP2 ADD DUP5 DUP5 DUP5 ADD GT ISZERO PUSH2 0x7B8 JUMPI PUSH2 0x7B7 PUSH2 0x6C0 JUMP JUMPDEST JUMPDEST PUSH2 0x7C3 DUP5 DUP3 DUP6 PUSH2 0x77C JUMP JUMPDEST POP SWAP4 SWAP3 POP POP POP JUMP JUMPDEST PUSH0 DUP3 PUSH1 0x1F DUP4 ADD SLT PUSH2 0x7DF JUMPI PUSH2 0x7DE PUSH2 0x6BC JUMP JUMPDEST JUMPDEST DUP2 CALLDATALOAD PUSH2 0x7EF DUP5 DUP3 PUSH1 0x20 DUP7 ADD PUSH2 0x78A JUMP JUMPDEST SWAP2 POP POP SWAP3 SWAP2 POP POP JUMP JUMPDEST PUSH0 PUSH1 0x20 DUP3 DUP5 SUB SLT ISZERO PUSH2 0x80D JUMPI PUSH2 0x80C PUSH2 0x6B4 JUMP JUMPDEST JUMPDEST PUSH0 DUP3 ADD CALLDATALOAD PUSH8 0xFFFFFFFFFFFFFFFF DUP2 GT ISZERO PUSH2 0x82A JUMPI PUSH2 0x829 PUSH2 0x6B8 JUMP JUMPDEST JUMPDEST PUSH2 0x836 DUP5 DUP3 DUP6 ADD PUSH2 0x7CB JUMP JUMPDEST SWAP2 POP POP SWAP3 SWAP2 POP POP JUMP JUMPDEST PUSH0 DUP2 SWAP1 POP SWAP2 SWAP1 POP JUMP JUMPDEST PUSH2 0x851 DUP2 PUSH2 0x83F JUMP JUMPDEST DUP3 MSTORE POP POP JUMP JUMPDEST PUSH0 PUSH1 0xFF DUP3 AND SWAP1 POP SWAP2 SWAP1 POP JUMP JUMPDEST PUSH2 0x86C DUP2 PUSH2 0x857 JUMP JUMPDEST DUP3 MSTORE POP POP JUMP JUMPDEST PUSH0 PUSH1 0x60 DUP3 ADD SWAP1 POP PUSH2 0x885 PUSH0 DUP4 ADD DUP7 PUSH2 0x848 JUMP JUMPDEST PUSH2 0x892 PUSH1 0x20 DUP4 ADD DUP6 PUSH2 0x848 JUMP JUMPDEST PUSH2 0x89F PUSH1 0x40 DUP4 ADD DUP5 PUSH2 0x863 JUMP JUMPDEST SWAP5 SWAP4 POP POP POP POP JUMP JUMPDEST PUSH0 PUSH8 0xFFFFFFFFFFFFFFFF DUP3 GT ISZERO PUSH2 0x8C1 JUMPI PUSH2 0x8C0 PUSH2 0x6D4 JUMP JUMPDEST JUMPDEST PUSH1 0x20 DUP3 MUL SWAP1 POP PUSH1 0x20 DUP2 ADD SWAP1 POP SWAP2 SWAP1 POP JUMP JUMPDEST PUSH0 DUP1 REVERT JUMPDEST PUSH0 PUSH20 0xFFFFFFFFFFFFFFFFFFFFFFFFFFFFFFFFFFFFFFFF DUP3 AND SWAP1 POP SWAP2 SWAP1 POP JUMP JUMPDEST PUSH0 PUSH2 0x8FF DUP3 PUSH2 0x8D6 JUMP JUMPDEST SWAP1 POP SWAP2 SWAP1 POP JUMP JUMPDEST PUSH2 0x90F DUP2 PUSH2 0x8F5 JUMP JUMPDEST DUP2 EQ PUSH2 0x919 JUMPI PUSH0 DUP1 REVERT JUMPDEST POP JUMP JUMPDEST PUSH0 DUP2 CALLDATALOAD SWAP1 POP PUSH2 0x92A DUP2 PUSH2 0x906 JUMP JUMPDEST SWAP3 SWAP2 POP POP JUMP JUMPDEST PUSH0 PUSH2 0x942 PUSH2 0x93D DUP5 PUSH2 0x8A7 JUMP JUMPDEST PUSH2 0x732 JUMP JUMPDEST SWAP1 POP DUP1 DUP4 DUP3 MSTORE PUSH1 0x20 DUP3 ADD SWAP1 POP PUSH1 0x20 DUP5 MUL DUP4 ADD DUP6 DUP2 GT ISZERO PUSH2 0x965 JUMPI PUSH2 0x964 PUSH2 0x8D2 JUMP JUMPDEST JUMPDEST DUP4 JUMPDEST DUP2 DUP2 LT ISZERO PUSH2 0x98E JUMPI DUP1 PUSH2 0x97A DUP9 DUP3 PUSH2 0x91C JUMP JUMPDEST DUP5 MSTORE PUSH1 0x20 DUP5 ADD SWAP4 POP POP PUSH1 0x20 DUP2 ADD SWAP1 POP PUSH2 0x967 JUMP JUMPDEST POP POP POP SWAP4 SWAP3 POP POP POP JUMP JUMPDEST PUSH0 DUP3 PUSH1 0x1F DUP4 ADD SLT PUSH2 0x9AC JUMPI PUSH2 0x9AB PUSH2 0x6BC JUMP JUMPDEST JUMPDEST DUP2 CALLDATALOAD PUSH2 0x9BC DUP5 DUP3 PUSH1 0x20 DUP7 ADD PUSH2 0x930 JUMP JUMPDEST SWAP2 POP POP SWAP3 SWAP2 POP POP JUMP JUMPDEST PUSH0 PUSH8 0xFFFFFFFFFFFFFFFF DUP3 GT ISZERO PUSH2 0x9DF JUMPI PUSH2 0x9DE PUSH2 0x6D4 JUMP JUMPDEST JUMPDEST PUSH1 0x20 DUP3 MUL SWAP1 POP PUSH1 0x20 DUP2 ADD SWAP1 POP SWAP2 SWAP1 POP JUMP JUMPDEST PUSH0 DUP2 SWAP1 POP SWAP2 SWAP1 POP JUMP JUMPDEST PUSH2 0xA02 DUP2 PUSH2 0x9F0 JUMP JUMPDEST DUP2 EQ PUSH2 0xA0C JUMPI PUSH0 DUP1 REVERT JUMPDEST POP JUMP JUMPDEST PUSH0 DUP2 CALLDATALOAD SWAP1 POP PUSH2 0xA1D DUP2 PUSH2 0x9F9 JUMP JUMPDEST SWAP3 SWAP2 POP POP JUMP JUMPDEST PUSH0 PUSH2 0xA35 PUSH2 0xA30 DUP5 PUSH2 0x9C5 JUMP JUMPDEST PUSH2 0x732 JUMP JUMPDEST SWAP1 POP DUP1 DUP4 DUP3 MSTORE PUSH1 0x20 DUP3 ADD SWAP1 POP PUSH1 0x20 DUP5 MUL DUP4 ADD DUP6 DUP2 GT ISZERO PUSH2 0xA58 JUMPI PUSH2 0xA57 PUSH2 0x8D2 JUMP JUMPDEST JUMPDEST DUP4 JUMPDEST DUP2 DUP2 LT ISZERO PUSH2 0xA81 JUMPI DUP1 PUSH2 0xA6D DUP9 DUP3 PUSH2 0xA0F JUMP JUMPDEST DUP5 MSTORE PUSH1 0x20 DUP5 ADD SWAP4 POP POP PUSH1 0x20 DUP2 ADD SWAP1 POP PUSH2 0xA5A JUMP JUMPDEST POP POP POP SWAP4 SWAP3 POP POP POP JUMP JUMPDEST PUSH0 DUP3 PUSH1 0x1F DUP4 ADD SLT PUSH2 0xA9F JUMPI PUSH2 0xA9E PUSH2 0x6BC JUMP JUMPDEST JUMPDEST DUP2 CALLDATALOAD PUSH2 0xAAF DUP5 DUP3 PUSH1 0x20 DUP7 ADD PUSH2 0xA23 JUMP JUMPDEST SWAP2 POP POP SWAP3 SWAP2 POP POP JUMP JUMPDEST PUSH0 PUSH8 0xFFFFFFFFFFFFFFFF DUP3 GT ISZERO PUSH2 0xAD2 JUMPI PUSH2 0xAD1 PUSH2 0x6D4 JUMP JUMPDEST JUMPDEST PUSH1 0x20 DUP3 MUL SWAP1 POP PUSH1 0x20 DUP2 ADD SWAP1 POP SWAP2 SWAP1 POP JUMP JUMPDEST PUSH0 PUSH8 0xFFFFFFFFFFFFFFFF DUP3 GT ISZERO PUSH2 0xAFD JUMPI PUSH2 0xAFC PUSH2 0x6D4 JUMP JUMPDEST JUMPDEST PUSH2 0xB06 DUP3 PUSH2 0x6C4 JUMP JUMPDEST SWAP1 POP PUSH1 0x20 DUP2 ADD SWAP1 POP SWAP2 SWAP1 POP JUMP JUMPDEST PUSH0 PUSH2 0xB25 PUSH2 0xB20 DUP5 PUSH2 0xAE3 JUMP JUMPDEST PUSH2 0x732 JUMP JUMPDEST SWAP1 POP DUP3 DUP2 MSTORE PUSH1 0x20 DUP2 ADD DUP5 DUP5 DUP5 ADD GT ISZERO PUSH2 0xB41 JUMPI PUSH2 0xB40 PUSH2 0x6C0 JUMP JUMPDEST JUMPDEST PUSH2 0xB4C DUP5 DUP3 DUP6 PUSH2 0x77C JUMP JUMPDEST POP SWAP4 SWAP3 POP POP POP JUMP JUMPDEST PUSH0 DUP3 PUSH1 0x1F DUP4 ADD SLT PUSH2 0xB68 JUMPI PUSH2 0xB67 PUSH2 0x6BC JUMP JUMPDEST JUMPDEST DUP2 CALLDATALOAD PUSH2 0xB78 DUP5 DUP3 PUSH1 0x20 DUP7 ADD PUSH2 0xB13 JUMP JUMPDEST SWAP2 POP POP SWAP3 SWAP2 POP POP JUMP JUMPDEST PUSH0 PUSH2 0xB93 PUSH2 0xB8E DUP5 PUSH2 0xAB8 JUMP JUMPDEST PUSH2 0x732 JUMP JUMPDEST SWAP1 POP DUP1 DUP4 DUP3 MSTORE PUSH1 0x20 DUP3 ADD SWAP1 POP PUSH1 0x20 DUP5 MUL DUP4 ADD DUP6 DUP2 GT ISZERO PUSH2 0xBB6 JUMPI PUSH2 0xBB5 PUSH2 0x8D2 JUMP JUMPDEST JUMPDEST DUP4 JUMPDEST DUP2 DUP2 LT ISZERO PUSH2 0xBFD JUMPI DUP1 CALLDATALOAD PUSH8 0xFFFFFFFFFFFFFFFF DUP2 GT ISZERO PUSH2 0xBDB JUMPI PUSH2 0xBDA PUSH2 0x6BC JUMP JUMPDEST JUMPDEST DUP1 DUP7 ADD PUSH2 0xBE8 DUP10 DUP3 PUSH2 0xB54 JUMP JUMPDEST DUP6 MSTORE PUSH1 0x20 DUP6 ADD SWAP5 POP POP POP PUSH1 0x20 DUP2 ADD SWAP1 POP PUSH2 0xBB8 JUMP JUMPDEST POP POP POP SWAP4 SWAP3 POP POP POP JUMP JUMPDEST PUSH0 DUP3 PUSH1 0x1F DUP4 ADD SLT PUSH2 0xC1B JUMPI PUSH2 0xC1A PUSH2 0x6BC JUMP JUMPDEST JUMPDEST DUP2 CALLDATALOAD PUSH2 0xC2B DUP5 DUP3 PUSH1 0x20 DUP7 ADD PUSH2 0xB81 JUMP JUMPDEST SWAP2 POP POP SWAP3 SWAP2 POP POP JUMP JUMPDEST PUSH0 PUSH8 0xFFFFFFFFFFFFFFFF DUP3 GT ISZERO PUSH2 0xC4E JUMPI PUSH2 0xC4D PUSH2 0x6D4 JUMP JUMPDEST JUMPDEST PUSH1 0x20 DUP3 MUL SWAP1 POP PUSH1 0x20 DUP2 ADD SWAP1 POP SWAP2 SWAP1 POP JUMP JUMPDEST PUSH0 PUSH2 0xC71 PUSH2 0xC6C DUP5 PUSH2 0xC34 JUMP JUMPDEST PUSH2 0x732 JUMP JUMPDEST SWAP1 POP DUP1 DUP4 DUP3 MSTORE PUSH1 0x20 DUP3 ADD SWAP1 POP PUSH1 0x20 DUP5 MUL DUP4 ADD DUP6 DUP2 GT ISZERO PUSH2 0xC94 JUMPI PUSH2 0xC93 PUSH2 0x8D2 JUMP JUMPDEST JUMPDEST DUP4 JUMPDEST DUP2 DUP2 LT ISZERO PUSH2 0xCDB JUMPI DUP1 CALLDATALOAD PUSH8 0xFFFFFFFFFFFFFFFF DUP2 GT ISZERO PUSH2 0xCB9 JUMPI PUSH2 0xCB8 PUSH2 0x6BC JUMP JUMPDEST JUMPDEST DUP1 DUP7 ADD PUSH2 0xCC6 DUP10 DUP3 PUSH2 0x7CB JUMP JUMPDEST DUP6 MSTORE PUSH1 0x20 DUP6 ADD SWAP5 POP POP POP PUSH1 0x20 DUP2 ADD SWAP1 POP PUSH2 0xC96 JUMP JUMPDEST POP POP POP SWAP4 SWAP3 POP POP POP JUMP JUMPDEST PUSH0 DUP3 PUSH1 0x1F DUP4 ADD SLT PUSH2 0xCF9 JUMPI PUSH2 0xCF8 PUSH2 0x6BC JUMP JUMPDEST JUMPDEST DUP2 CALLDATALOAD PUSH2 0xD09 DUP5 DUP3 PUSH1 0x20 DUP7 ADD PUSH2 0xC5F JUMP JUMPDEST SWAP2 POP POP SWAP3 SWAP2 POP POP JUMP JUMPDEST PUSH0 DUP1 PUSH0 DUP1 PUSH1 0x80 DUP6 DUP8 SUB SLT ISZERO PUSH2 0xD2A JUMPI PUSH2 0xD29 PUSH2 0x6B4 JUMP JUMPDEST JUMPDEST PUSH0 DUP6 ADD CALLDATALOAD PUSH8 0xFFFFFFFFFFFFFFFF DUP2 GT ISZERO PUSH2 0xD47 JUMPI PUSH2 0xD46 PUSH2 0x6B8 JUMP JUMPDEST JUMPDEST PUSH2 0xD53 DUP8 DUP3 DUP9 ADD PUSH2 0x998 JUMP JUMPDEST SWAP5 POP POP PUSH1 0x20 DUP6 ADD CALLDATALOAD PUSH8 0xFFFFFFFFFFFFFFFF DUP2 GT ISZERO PUSH2 0xD74 JUMPI PUSH2 0xD73 PUSH2 0x6B8 JUMP JUMPDEST JUMPDEST PUSH2 0xD80 DUP8 DUP3 DUP9 ADD PUSH2 0xA8B JUMP JUMPDEST SWAP4 POP POP PUSH1 0x40 DUP6 ADD CALLDATALOAD PUSH8 0xFFFFFFFFFFFFFFFF DUP2 GT ISZERO PUSH2 0xDA1 JUMPI PUSH2 0xDA0 PUSH2 0x6B8 JUMP JUMPDEST JUMPDEST PUSH2 0xDAD DUP8 DUP3 DUP9 ADD PUSH2 0xC07 JUMP JUMPDEST SWAP3 POP POP PUSH1 0x60 DUP6 ADD CALLDATALOAD PUSH8 0xFFFFFFFFFFFFFFFF DUP2 GT ISZERO PUSH2 0xDCE JUMPI PUSH2 0xDCD PUSH2 0x6B8 JUMP JUMPDEST JUMPDEST PUSH2 0xDDA DUP8 DUP3 DUP9 ADD PUSH2 0xCE5 JUMP JUMPDEST SWAP2 POP POP SWAP3 SWAP6 SWAP2 SWAP5 POP SWAP3 POP JUMP JUMPDEST PUSH0 DUP1 PUSH0 PUSH1 0x60 DUP5 DUP7 SUB SLT ISZERO PUSH2 0xDFD JUMPI PUSH2 0xDFC PUSH2 0x6B4 JUMP JUMPDEST JUMPDEST PUSH0 PUSH2 0xE0A DUP7 DUP3 DUP8 ADD PUSH2 0x91C JUMP JUMPDEST SWAP4 POP POP PUSH1 0x20 DUP5 ADD CALLDATALOAD PUSH8 0xFFFFFFFFFFFFFFFF DUP2 GT ISZERO PUSH2 0xE2B JUMPI PUSH2 0xE2A PUSH2 0x6B8 JUMP JUMPDEST JUMPDEST PUSH2 0xE37 DUP7 DUP3 DUP8 ADD PUSH2 0xB54 JUMP JUMPDEST SWAP3 POP POP PUSH1 0x40 DUP5 ADD CALLDATALOAD PUSH8 0xFFFFFFFFFFFFFFFF DUP2 GT ISZERO PUSH2 0xE58 JUMPI PUSH2 0xE57 PUSH2 0x6B8 JUMP JUMPDEST JUMPDEST PUSH2 0xE64 DUP7 DUP3 DUP8 ADD PUSH2 0x7CB JUMP JUMPDEST SWAP2 POP POP SWAP3 POP SWAP3 POP SWAP3 JUMP JUMPDEST PUSH32 0x4E487B7100000000000000000000000000000000000000000000000000000000 PUSH0 MSTORE PUSH1 0x11 PUSH1 0x4 MSTORE PUSH1 0x24 PUSH0 REVERT JUMPDEST PUSH0 PUSH2 0xEA5 DUP3 PUSH2 0x857 JUMP JUMPDEST SWAP2 POP PUSH2 0xEB0 DUP4 PUSH2 0x857 JUMP JUMPDEST SWAP3 POP DUP3 DUP3 ADD SWAP1 POP PUSH1 0xFF DUP2 GT ISZERO PUSH2 0xEC9 JUMPI PUSH2 0xEC8 PUSH2 0xE6E JUMP JUMPDEST JUMPDEST SWAP3 SWAP2 POP POP JUMP JUMPDEST PUSH32 0x4E487B7100000000000000000000000000000000000000000000000000000000 PUSH0 MSTORE PUSH1 0x32 PUSH1 0x4 MSTORE PUSH1 0x24 PUSH0 REVERT JUMPDEST PUSH2 0xF05 DUP2 PUSH2 0x8F5 JUMP JUMPDEST DUP3 MSTORE POP POP JUMP JUMPDEST PUSH2 0xF14 DUP2 PUSH2 0x9F0 JUMP JUMPDEST DUP3 MSTORE POP POP JUMP JUMPDEST PUSH0 PUSH1 0x40 DUP3 ADD SWAP1 POP PUSH2 0xF2D PUSH0 DUP4 ADD DUP6 PUSH2 0xEFC JUMP JUMPDEST PUSH2 0xF3A PUSH1 0x20 DUP4 ADD DUP5 PUSH2 0xF0B JUMP JUMPDEST SWAP4 SWAP3 POP POP POP JUMP JUMPDEST PUSH0 DUP2 MLOAD SWAP1 POP SWAP2 SWAP1 POP JUMP JUMPDEST PUSH0 DUP3 DUP3 MSTORE PUSH1 0x20 DUP3 ADD SWAP1 POP SWAP3 SWAP2 POP POP JUMP JUMPDEST PUSH0 JUMPDEST DUP4 DUP2 LT ISZERO PUSH2 0xF78 JUMPI DUP1 DUP3 ADD MLOAD DUP2 DUP5 ADD MSTORE PUSH1 0x20 DUP2 ADD SWAP1 POP PUSH2 0xF5D JUMP JUMPDEST PUSH0 DUP5 DUP5 ADD MSTORE POP POP POP POP JUMP JUMPDEST PUSH0 PUSH2 0xF8D DUP3 PUSH2 0xF41 JUMP JUMPDEST PUSH2 0xF97 DUP2 DUP6 PUSH2 0xF4B JUMP JUMPDEST SWAP4 POP PUSH2 0xFA7 DUP2 DUP6 PUSH1 0x20 DUP7 ADD PUSH2 0xF5B JUMP JUMPDEST PUSH2 0xFB0 DUP2 PUSH2 0x6C4 JUMP JUMPDEST DUP5 ADD SWAP2 POP POP SWAP3 SWAP2 POP POP JUMP JUMPDEST PUSH0 PUSH1 0x40 DUP3 ADD SWAP1 POP PUSH2 0xFCE PUSH0 DUP4 ADD DUP6 PUSH2 0xEFC JUMP JUMPDEST DUP2 DUP2 SUB PUSH1 0x20 DUP4 ADD MSTORE PUSH2 0xFE0 DUP2 DUP5 PUSH2 0xF83 JUMP JUMPDEST SWAP1 POP SWAP4 SWAP3 POP POP POP JUMP JUMPDEST PUSH0 PUSH1 0x80 DUP3 ADD SWAP1 POP PUSH2 0xFFC PUSH0 DUP4 ADD DUP8 PUSH2 0x848 JUMP JUMPDEST PUSH2 0x1009 PUSH1 0x20 DUP4 ADD DUP7 PUSH2 0x863 JUMP JUMPDEST PUSH2 0x1016 PUSH1 0x40 DUP4 ADD DUP6 PUSH2 0x848 JUMP JUMPDEST PUSH2 0x1023 PUSH1 0x60 DUP4 ADD DUP5 PUSH2 0x848 JUMP JUMPDEST SWAP6 SWAP5 POP POP POP POP POP JUMP JUMPDEST PUSH0 PUSH1 0x20 DUP3 ADD SWAP1 POP PUSH2 0x103F PUSH0 DUP4 ADD DUP5 PUSH2 0xEFC JUMP JUMPDEST SWAP3 SWAP2 POP POP JUMP JUMPDEST PUSH0 DUP2 SWAP1 POP SWAP3 SWAP2 POP POP JUMP JUMPDEST PUSH32 0x19457468657265756D205369676E6564204D6573736167653A0A000000000000 PUSH0 DUP3 ADD MSTORE POP JUMP JUMPDEST PUSH0 PUSH2 0x1083 PUSH1 0x1A DUP4 PUSH2 0x1045 JUMP JUMPDEST SWAP2 POP PUSH2 0x108E DUP3 PUSH2 0x104F JUMP JUMPDEST PUSH1 0x1A DUP3 ADD SWAP1 POP SWAP2 SWAP1 POP JUMP JUMPDEST PUSH0 PUSH2 0x10A3 DUP3 PUSH2 0xF41 JUMP JUMPDEST PUSH2 0x10AD DUP2 DUP6 PUSH2 0x1045 JUMP JUMPDEST SWAP4 POP PUSH2 0x10BD DUP2 DUP6 PUSH1 0x20 DUP7 ADD PUSH2 0xF5B JUMP JUMPDEST DUP1 DUP5 ADD SWAP2 POP POP SWAP3 SWAP2 POP POP JUMP JUMPDEST PUSH0 PUSH2 0x10D3 DUP3 PUSH2 0x1077 JUMP JUMPDEST SWAP2 POP PUSH2 0x10DF DUP3 DUP6 PUSH2 0x1099 JUMP JUMPDEST SWAP2 POP PUSH2 0x10EB DUP3 DUP5 PUSH2 0x1099 JUMP JUMPDEST SWAP2 POP DUP2 SWAP1 POP SWAP4 SWAP3 POP POP POP JUMP JUMPDEST PUSH32 0x4E487B7100000000000000000000000000000000000000000000000000000000 PUSH0 MSTORE PUSH1 0x12 PUSH1 0x4 MSTORE PUSH1 0x24 PUSH0 REVERT INVALID LOG2 PUSH5 0x6970667358 0x22 SLT KECCAK256 0xD 0xCF TLOAD SWAP3 0xC2 LOG4 CALLVALUE MUL DUP16 SWAP11 0xC5 PC SLT 0xED POP 0xD5 0xFB SWAP10 SWAP5 0xE6 0xB9 0xDE SWAP2 REVERT BLOCKHASH 0xBD 0x1F MSTORE8 PUSH24 0xF7111664736F6C6343000818003300000000000000000000 "
				},
				"gasEstimates": {
					"creation": {
						"codeDepositCost": "888400",
						"executionCost": "infinite",
						"totalCost": "infinite"
					},
					"external": {
						"mint(address[],uint256[],string[],bytes[])": "infinite",
						"signTransaction(address,string,bytes)": "infinite",
						"splitSign(bytes)": "infinite"
					},
					"internal": {
						"getEthSignMsgHash(string memory)": "infinite"
					}
				},
				"methodIdentifiers": {
					"mint(address[],uint256[],string[],bytes[])": "883a6c75",
					"signTransaction(address,string,bytes)": "95e0e0c9",
					"splitSign(bytes)": "2ff4bb4b"
				}
			},
			"storageLayout": {
				"storage": [
					{
						"astId": 2233,
						"contract": "src/contracts/metaTransacion.sol:MetaTransaction",
						"label": "soonToken",
						"offset": 0,
						"slot": "0",
						"type": "t_contract(SoonToken)2226"
					}
				],
				"types": {
					"t_contract(SoonToken)2226": {
						"encoding": "inplace",
						"label": "contract SoonToken",
						"numberOfBytes": "20"
					}
				}
			},
			"userdoc": {
				"kind": "user",
				"methods": {},
				"version": 1
			}
		}
	}
}