{
	"data": {
		"bytecode": {
			"linkReferences": {},
			"object": "608060405234801562000010575f80fd5b5060405162001279380380620012798339818101604052810190620000369190620000e1565b805f806101000a81548173ffffffffffffffffffffffffffffffffffffffff021916908373ffffffffffffffffffffffffffffffffffffffff1602179055505062000111565b5f80fd5b5f73ffffffffffffffffffffffffffffffffffffffff82169050919050565b5f620000ab8262000080565b9050919050565b620000bd816200009f565b8114620000c8575f80fd5b50565b5f81519050620000db81620000b2565b92915050565b5f60208284031215620000f957620000f86200007c565b5b5f6200010884828501620000cb565b91505092915050565b61115a806200011f5f395ff3fe608060405234801561000f575f80fd5b506004361061003f575f3560e01c80632ff4bb4b14610043578063883a6c751461007557806395e0e0c914610091575b5f80fd5b61005d600480360381019061005891906107f8565b6100ad565b60405161006c93929190610872565b60405180910390f35b61008f600480360381019061008a9190610d12565b610114565b005b6100ab60048036038101906100a69190610de6565b6102b4565b005b5f805f60418451146100bd575f80fd5b602084015192506040840151915060608401515f1a9050601b8160ff1610156100f057601b816100ed9190610e9b565b90505b601b8160ff1614806101055750601c8160ff16145b61010d575f80fd5b9193909250565b5f5b84518110156102ad5761017885828151811061013557610134610ecf565b5b60200260200101518483815181106101505761014f610ecf565b5b602002602001015184848151811061016b5761016a610ecf565b5b60200260200101516102b4565b5f8054906101000a900473ffffffffffffffffffffffffffffffffffffffff1673ffffffffffffffffffffffffffffffffffffffff166340c10f198683815181106101c6576101c5610ecf565b5b60200260200101518684815181106101e1576101e0610ecf565b5b60200260200101516040518363ffffffff1660e01b8152600401610206929190610f1a565b5f604051808303815f87803b15801561021d575f80fd5b505af115801561022f573d5f803e3d5ffd5b505050507f710c6bec3cf443b5afbda9ff86716f3a0d00db3ddaee6cc493c93be240533e1285828151811061026757610266610ecf565b5b602002602001015184838151811061028257610281610ecf565b5b6020026020010151604051610298929190610fbb565b60405180910390a18080600101915050610116565b5050505050565b5f6102be83610451565b90505f805f6102cc856100ad565b9250925092507f29bd5e82392230298810019d37e60fc402505adb5afa0f05072474634fcca38083838360405161030593929190610872565b60405180910390a17f690c22a325937e3625a470a9f14c15683846660270fb112ea5c93a7ea9de74666001858386866040515f81526020016040526040516103509493929190610fe9565b6020604051602081039080840390855afa158015610370573d5f803e3d5ffd5b50505060206040510351604051610387919061102c565b60405180910390a17f690c22a325937e3625a470a9f14c15683846660270fb112ea5c93a7ea9de7466876040516103be919061102c565b60405180910390a16001848285856040515f81526020016040526040516103e89493929190610fe9565b6020604051602081039080840390855afa158015610408573d5f803e3d5ffd5b5050506020604051035173ffffffffffffffffffffffffffffffffffffffff168773ffffffffffffffffffffffffffffffffffffffff1614610448575f80fd5b50505050505050565b5f808251905061046081610490565b836040516020016104729291906110c9565b60405160208183030381529060405280519060200120915050919050565b60605f600161049e8461055a565b0190505f8167ffffffffffffffff8111156104bc576104bb6106d4565b5b6040519080825280601f01601f1916602001820160405280156104ee5781602001600182028036833780820191505090505b5090505f82602001820190505b60011561054f578080600190039150507f3031323334353637383961626364656600000000000000000000000000000000600a86061a8153600a8581610544576105436110f7565b5b0494505f85036104fb575b819350505050919050565b5f805f90507a184f03e93ff9f4daa797ed6e38ed64bf6a1f01000000000000000083106105b6577a184f03e93ff9f4daa797ed6e38ed64bf6a1f01000000000000000083816105ac576105ab6110f7565b5b0492506040810190505b6d04ee2d6d415b85acef810000000083106105f3576d04ee2d6d415b85acef810000000083816105e9576105e86110f7565b5b0492506020810190505b662386f26fc10000831061062257662386f26fc100008381610618576106176110f7565b5b0492506010810190505b6305f5e100831061064b576305f5e1008381610641576106406110f7565b5b0492506008810190505b6127108310610670576127108381610666576106656110f7565b5b0492506004810190505b606483106106935760648381610689576106886110f7565b5b0492506002810190505b600a83106106a2576001810190505b80915050919050565b5f604051905090565b5f80fd5b5f80fd5b5f80fd5b5f80fd5b5f601f19601f8301169050919050565b7f4e487b71000000000000000000000000000000000000000000000000000000005f52604160045260245ffd5b61070a826106c4565b810181811067ffffffffffffffff82111715610729576107286106d4565b5b80604052505050565b5f61073b6106ab565b90506107478282610701565b919050565b5f67ffffffffffffffff821115610766576107656106d4565b5b61076f826106c4565b9050602081019050919050565b828183375f83830152505050565b5f61079c6107978461074c565b610732565b9050828152602081018484840111156107b8576107b76106c0565b5b6107c384828561077c565b509392505050565b5f82601f8301126107df576107de6106bc565b5b81356107ef84826020860161078a565b91505092915050565b5f6020828403121561080d5761080c6106b4565b5b5f82013567ffffffffffffffff81111561082a576108296106b8565b5b610836848285016107cb565b91505092915050565b5f819050919050565b6108518161083f565b82525050565b5f60ff82169050919050565b61086c81610857565b82525050565b5f6060820190506108855f830186610848565b6108926020830185610848565b61089f6040830184610863565b949350505050565b5f67ffffffffffffffff8211156108c1576108c06106d4565b5b602082029050602081019050919050565b5f80fd5b5f73ffffffffffffffffffffffffffffffffffffffff82169050919050565b5f6108ff826108d6565b9050919050565b61090f816108f5565b8114610919575f80fd5b50565b5f8135905061092a81610906565b92915050565b5f61094261093d846108a7565b610732565b90508083825260208201905060208402830185811115610965576109646108d2565b5b835b8181101561098e578061097a888261091c565b845260208401935050602081019050610967565b5050509392505050565b5f82601f8301126109ac576109ab6106bc565b5b81356109bc848260208601610930565b91505092915050565b5f67ffffffffffffffff8211156109df576109de6106d4565b5b602082029050602081019050919050565b5f819050919050565b610a02816109f0565b8114610a0c575f80fd5b50565b5f81359050610a1d816109f9565b92915050565b5f610a35610a30846109c5565b610732565b90508083825260208201905060208402830185811115610a5857610a576108d2565b5b835b81811015610a815780610a6d8882610a0f565b845260208401935050602081019050610a5a565b5050509392505050565b5f82601f830112610a9f57610a9e6106bc565b5b8135610aaf848260208601610a23565b91505092915050565b5f67ffffffffffffffff821115610ad257610ad16106d4565b5b602082029050602081019050919050565b5f67ffffffffffffffff821115610afd57610afc6106d4565b5b610b06826106c4565b9050602081019050919050565b5f610b25610b2084610ae3565b610732565b905082815260208101848484011115610b4157610b406106c0565b5b610b4c84828561077c565b509392505050565b5f82601f830112610b6857610b676106bc565b5b8135610b78848260208601610b13565b91505092915050565b5f610b93610b8e84610ab8565b610732565b90508083825260208201905060208402830185811115610bb657610bb56108d2565b5b835b81811015610bfd57803567ffffffffffffffff811115610bdb57610bda6106bc565b5b808601610be88982610b54565b85526020850194505050602081019050610bb8565b5050509392505050565b5f82601f830112610c1b57610c1a6106bc565b5b8135610c2b848260208601610b81565b91505092915050565b5f67ffffffffffffffff821115610c4e57610c4d6106d4565b5b602082029050602081019050919050565b5f610c71610c6c84610c34565b610732565b90508083825260208201905060208402830185811115610c9457610c936108d2565b5b835b81811015610cdb57803567ffffffffffffffff811115610cb957610cb86106bc565b5b808601610cc689826107cb565b85526020850194505050602081019050610c96565b5050509392505050565b5f82601f830112610cf957610cf86106bc565b5b8135610d09848260208601610c5f565b91505092915050565b5f805f8060808587031215610d2a57610d296106b4565b5b5f85013567ffffffffffffffff811115610d4757610d466106b8565b5b610d5387828801610998565b945050602085013567ffffffffffffffff811115610d7457610d736106b8565b5b610d8087828801610a8b565b935050604085013567ffffffffffffffff811115610da157610da06106b8565b5b610dad87828801610c07565b925050606085013567ffffffffffffffff811115610dce57610dcd6106b8565b5b610dda87828801610ce5565b91505092959194509250565b5f805f60608486031215610dfd57610dfc6106b4565b5b5f610e0a8682870161091c565b935050602084013567ffffffffffffffff811115610e2b57610e2a6106b8565b5b610e3786828701610b54565b925050604084013567ffffffffffffffff811115610e5857610e576106b8565b5b610e64868287016107cb565b9150509250925092565b7f4e487b71000000000000000000000000000000000000000000000000000000005f52601160045260245ffd5b5f610ea582610857565b9150610eb083610857565b9250828201905060ff811115610ec957610ec8610e6e565b5b92915050565b7f4e487b71000000000000000000000000000000000000000000000000000000005f52603260045260245ffd5b610f05816108f5565b82525050565b610f14816109f0565b82525050565b5f604082019050610f2d5f830185610efc565b610f3a6020830184610f0b565b9392505050565b5f81519050919050565b5f82825260208201905092915050565b5f5b83811015610f78578082015181840152602081019050610f5d565b5f8484015250505050565b5f610f8d82610f41565b610f978185610f4b565b9350610fa7818560208601610f5b565b610fb0816106c4565b840191505092915050565b5f604082019050610fce5f830185610efc565b8181036020830152610fe08184610f83565b90509392505050565b5f608082019050610ffc5f830187610848565b6110096020830186610863565b6110166040830185610848565b6110236060830184610848565b95945050505050565b5f60208201905061103f5f830184610efc565b92915050565b5f81905092915050565b7f19457468657265756d205369676e6564204d6573736167653a0a0000000000005f82015250565b5f611083601a83611045565b915061108e8261104f565b601a82019050919050565b5f6110a382610f41565b6110ad8185611045565b93506110bd818560208601610f5b565b80840191505092915050565b5f6110d382611077565b91506110df8285611099565b91506110eb8284611099565b91508190509392505050565b7f4e487b71000000000000000000000000000000000000000000000000000000005f52601260045260245ffdfea26469706673582212200dcf5c92c2a434028f9ac55812ed50d5fb9994e6b9de91fd40bd1f5377f7111664736f6c63430008180033",
			"opcodes": "PUSH1 0x80 PUSH1 0x40 MSTORE CALLVALUE DUP1 ISZERO PUSH3 0x10 JUMPI PUSH0 DUP1 REVERT JUMPDEST POP PUSH1 0x40 MLOAD PUSH3 0x1279 CODESIZE SUB DUP1 PUSH3 0x1279 DUP4 CODECOPY DUP2 DUP2 ADD PUSH1 0x40 MSTORE DUP2 ADD SWAP1 PUSH3 0x36 SWAP2 SWAP1 PUSH3 0xE1 JUMP JUMPDEST DUP1 PUSH0 DUP1 PUSH2 0x100 EXP DUP2 SLOAD DUP2 PUSH20 0xFFFFFFFFFFFFFFFFFFFFFFFFFFFFFFFFFFFFFFFF MUL NOT AND SWAP1 DUP4 PUSH20 0xFFFFFFFFFFFFFFFFFFFFFFFFFFFFFFFFFFFFFFFF AND MUL OR SWAP1 SSTORE POP POP PUSH3 0x111 JUMP JUMPDEST PUSH0 DUP1 REVERT JUMPDEST PUSH0 PUSH20 0xFFFFFFFFFFFFFFFFFFFFFFFFFFFFFFFFFFFFFFFF DUP3 AND SWAP1 POP SWAP2 SWAP1 POP JUMP JUMPDEST PUSH0 PUSH3 0xAB DUP3 PUSH3 0x80 JUMP JUMPDEST SWAP1 POP SWAP2 SWAP1 POP JUMP JUMPDEST PUSH3 0xBD DUP2 PUSH3 0x9F JUMP JUMPDEST DUP2 EQ PUSH3 0xC8 JUMPI PUSH0 DUP1 REVERT JUMPDEST POP JUMP JUMPDEST PUSH0 DUP2 MLOAD SWAP1 POP PUSH3 0xDB DUP2 PUSH3 0xB2 JUMP JUMPDEST SWAP3 SWAP2 POP POP JUMP JUMPDEST PUSH0 PUSH1 0x20 DUP3 DUP5 SUB SLT ISZERO PUSH3 0xF9 JUMPI PUSH3 0xF8 PUSH3 0x7C JUMP JUMPDEST JUMPDEST PUSH0 PUSH3 0x108 DUP5 DUP3 DUP6 ADD PUSH3 0xCB JUMP JUMPDEST SWAP2 POP POP SWAP3 SWAP2 POP POP JUMP JUMPDEST PUSH2 0x115A DUP1 PUSH3 0x11F PUSH0 CODECOPY PUSH0 RETURN INVALID PUSH1 0x80 PUSH1 0x40 MSTORE CALLVALUE DUP1 ISZERO PUSH2 0xF JUMPI PUSH0 DUP1 REVERT JUMPDEST POP PUSH1 0x4 CALLDATASIZE LT PUSH2 0x3F JUMPI PUSH0 CALLDATALOAD PUSH1 0xE0 SHR DUP1 PUSH4 0x2FF4BB4B EQ PUSH2 0x43 JUMPI DUP1 PUSH4 0x883A6C75 EQ PUSH2 0x75 JUMPI DUP1 PUSH4 0x95E0E0C9 EQ PUSH2 0x91 JUMPI JUMPDEST PUSH0 DUP1 REVERT JUMPDEST PUSH2 0x5D PUSH1 0x4 DUP1 CALLDATASIZE SUB DUP2 ADD SWAP1 PUSH2 0x58 SWAP2 SWAP1 PUSH2 0x7F8 JUMP JUMPDEST PUSH2 0xAD JUMP JUMPDEST PUSH1 0x40 MLOAD PUSH2 0x6C SWAP4 SWAP3 SWAP2 SWAP1 PUSH2 0x872 JUMP JUMPDEST PUSH1 0x40 MLOAD DUP1 SWAP2 SUB SWAP1 RETURN JUMPDEST PUSH2 0x8F PUSH1 0x4 DUP1 CALLDATASIZE SUB DUP2 ADD SWAP1 PUSH2 0x8A SWAP2 SWAP1 PUSH2 0xD12 JUMP JUMPDEST PUSH2 0x114 JUMP JUMPDEST STOP JUMPDEST PUSH2 0xAB PUSH1 0x4 DUP1 CALLDATASIZE SUB DUP2 ADD SWAP1 PUSH2 0xA6 SWAP2 SWAP1 PUSH2 0xDE6 JUMP JUMPDEST PUSH2 0x2B4 JUMP JUMPDEST STOP JUMPDEST PUSH0 DUP1 PUSH0 PUSH1 0x41 DUP5 MLOAD EQ PUSH2 0xBD JUMPI PUSH0 DUP1 REVERT JUMPDEST PUSH1 0x20 DUP5 ADD MLOAD SWAP3 POP PUSH1 0x40 DUP5 ADD MLOAD SWAP2 POP PUSH1 0x60 DUP5 ADD MLOAD PUSH0 BYTE SWAP1 POP PUSH1 0x1B DUP2 PUSH1 0xFF AND LT ISZERO PUSH2 0xF0 JUMPI PUSH1 0x1B DUP2 PUSH2 0xED SWAP2 SWAP1 PUSH2 0xE9B JUMP JUMPDEST SWAP1 POP JUMPDEST PUSH1 0x1B DUP2 PUSH1 0xFF AND EQ DUP1 PUSH2 0x105 JUMPI POP PUSH1 0x1C DUP2 PUSH1 0xFF AND EQ JUMPDEST PUSH2 0x10D JUMPI PUSH0 DUP1 REVERT JUMPDEST SWAP2 SWAP4 SWAP1 SWAP3 POP JUMP JUMPDEST PUSH0 JUMPDEST DUP5 MLOAD DUP2 LT ISZERO PUSH2 0x2AD JUMPI PUSH2 0x178 DUP6 DUP3 DUP2 MLOAD DUP2 LT PUSH2 0x135 JUMPI PUSH2 0x134 PUSH2 0xECF JUMP JUMPDEST JUMPDEST PUSH1 0x20 MUL PUSH1 0x20 ADD ADD MLOAD DUP5 DUP4 DUP2 MLOAD DUP2 LT PUSH2 0x150 JUMPI PUSH2 0x14F PUSH2 0xECF JUMP JUMPDEST JUMPDEST PUSH1 0x20 MUL PUSH1 0x20 ADD ADD MLOAD DUP5 DUP5 DUP2 MLOAD DUP2 LT PUSH2 0x16B JUMPI PUSH2 0x16A PUSH2 0xECF JUMP JUMPDEST JUMPDEST PUSH1 0x20 MUL PUSH1 0x20 ADD ADD MLOAD PUSH2 0x2B4 JUMP JUMPDEST PUSH0 DUP1 SLOAD SWAP1 PUSH2 0x100 EXP SWAP1 DIV PUSH20 0xFFFFFFFFFFFFFFFFFFFFFFFFFFFFFFFFFFFFFFFF AND PUSH20 0xFFFFFFFFFFFFFFFFFFFFFFFFFFFFFFFFFFFFFFFF AND PUSH4 0x40C10F19 DUP7 DUP4 DUP2 MLOAD DUP2 LT PUSH2 0x1C6 JUMPI PUSH2 0x1C5 PUSH2 0xECF JUMP JUMPDEST JUMPDEST PUSH1 0x20 MUL PUSH1 0x20 ADD ADD MLOAD DUP7 DUP5 DUP2 MLOAD DUP2 LT PUSH2 0x1E1 JUMPI PUSH2 0x1E0 PUSH2 0xECF JUMP JUMPDEST JUMPDEST PUSH1 0x20 MUL PUSH1 0x20 ADD ADD MLOAD PUSH1 0x40 MLOAD DUP4 PUSH4 0xFFFFFFFF AND PUSH1 0xE0 SHL DUP2 MSTORE PUSH1 0x4 ADD PUSH2 0x206 SWAP3 SWAP2 SWAP1 PUSH2 0xF1A JUMP JUMPDEST PUSH0 PUSH1 0x40 MLOAD DUP1 DUP4 SUB DUP2 PUSH0 DUP8 DUP1 EXTCODESIZE ISZERO DUP1 ISZERO PUSH2 0x21D JUMPI PUSH0 DUP1 REVERT JUMPDEST POP GAS CALL ISZERO DUP1 ISZERO PUSH2 0x22F JUMPI RETURNDATASIZE PUSH0 DUP1 RETURNDATACOPY RETURNDATASIZE PUSH0 REVERT JUMPDEST POP POP POP POP PUSH32 0x710C6BEC3CF443B5AFBDA9FF86716F3A0D00DB3DDAEE6CC493C93BE240533E12 DUP6 DUP3 DUP2 MLOAD DUP2 LT PUSH2 0x267 JUMPI PUSH2 0x266 PUSH2 0xECF JUMP JUMPDEST JUMPDEST PUSH1 0x20 MUL PUSH1 0x20 ADD ADD MLOAD DUP5 DUP4 DUP2 MLOAD DUP2 LT PUSH2 0x282 JUMPI PUSH2 0x281 PUSH2 0xECF JUMP JUMPDEST JUMPDEST PUSH1 0x20 MUL PUSH1 0x20 ADD ADD MLOAD PUSH1 0x40 MLOAD PUSH2 0x298 SWAP3 SWAP2 SWAP1 PUSH2 0xFBB JUMP JUMPDEST PUSH1 0x40 MLOAD DUP1 SWAP2 SUB SWAP1 LOG1 DUP1 DUP1 PUSH1 0x1 ADD SWAP2 POP POP PUSH2 0x116 JUMP JUMPDEST POP POP POP POP POP JUMP JUMPDEST PUSH0 PUSH2 0x2BE DUP4 PUSH2 0x451 JUMP JUMPDEST SWAP1 POP PUSH0 DUP1 PUSH0 PUSH2 0x2CC DUP6 PUSH2 0xAD JUMP JUMPDEST SWAP3 POP SWAP3 POP SWAP3 POP PUSH32 0x29BD5E82392230298810019D37E60FC402505ADB5AFA0F05072474634FCCA380 DUP4 DUP4 DUP4 PUSH1 0x40 MLOAD PUSH2 0x305 SWAP4 SWAP3 SWAP2 SWAP1 PUSH2 0x872 JUMP JUMPDEST PUSH1 0x40 MLOAD DUP1 SWAP2 SUB SWAP1 LOG1 PUSH32 0x690C22A325937E3625A470A9F14C15683846660270FB112EA5C93A7EA9DE7466 PUSH1 0x1 DUP6 DUP4 DUP7 DUP7 PUSH1 0x40 MLOAD PUSH0 DUP2 MSTORE PUSH1 0x20 ADD PUSH1 0x40 MSTORE PUSH1 0x40 MLOAD PUSH2 0x350 SWAP5 SWAP4 SWAP3 SWAP2 SWAP1 PUSH2 0xFE9 JUMP JUMPDEST PUSH1 0x20 PUSH1 0x40 MLOAD PUSH1 0x20 DUP2 SUB SWAP1 DUP1 DUP5 SUB SWAP1 DUP6 GAS STATICCALL ISZERO DUP1 ISZERO PUSH2 0x370 JUMPI RETURNDATASIZE PUSH0 DUP1 RETURNDATACOPY RETURNDATASIZE PUSH0 REVERT JUMPDEST POP POP POP PUSH1 0x20 PUSH1 0x40 MLOAD SUB MLOAD PUSH1 0x40 MLOAD PUSH2 0x387 SWAP2 SWAP1 PUSH2 0x102C JUMP JUMPDEST PUSH1 0x40 MLOAD DUP1 SWAP2 SUB SWAP1 LOG1 PUSH32 0x690C22A325937E3625A470A9F14C15683846660270FB112EA5C93A7EA9DE7466 DUP8 PUSH1 0x40 MLOAD PUSH2 0x3BE SWAP2 SWAP1 PUSH2 0x102C JUMP JUMPDEST PUSH1 0x40 MLOAD DUP1 SWAP2 SUB SWAP1 LOG1 PUSH1 0x1 DUP5 DUP3 DUP6 DUP6 PUSH1 0x40 MLOAD PUSH0 DUP2 MSTORE PUSH1 0x20 ADD PUSH1 0x40 MSTORE PUSH1 0x40 MLOAD PUSH2 0x3E8 SWAP5 SWAP4 SWAP3 SWAP2 SWAP1 PUSH2 0xFE9 JUMP JUMPDEST PUSH1 0x20 PUSH1 0x40 MLOAD PUSH1 0x20 DUP2 SUB SWAP1 DUP1 DUP5 SUB SWAP1 DUP6 GAS STATICCALL ISZERO DUP1 ISZERO PUSH2 0x408 JUMPI RETURNDATASIZE PUSH0 DUP1 RETURNDATACOPY RETURNDATASIZE PUSH0 REVERT JUMPDEST POP POP POP PUSH1 0x20 PUSH1 0x40 MLOAD SUB MLOAD PUSH20 0xFFFFFFFFFFFFFFFFFFFFFFFFFFFFFFFFFFFFFFFF AND DUP8 PUSH20 0xFFFFFFFFFFFFFFFFFFFFFFFFFFFFFFFFFFFFFFFF AND EQ PUSH2 0x448 JUMPI PUSH0 DUP1 REVERT JUMPDEST POP POP POP POP POP POP POP JUMP JUMPDEST PUSH0 DUP1 DUP3 MLOAD SWAP1 POP PUSH2 0x460 DUP2 PUSH2 0x490 JUMP JUMPDEST DUP4 PUSH1 0x40 MLOAD PUSH1 0x20 ADD PUSH2 0x472 SWAP3 SWAP2 SWAP1 PUSH2 0x10C9 JUMP JUMPDEST PUSH1 0x40 MLOAD PUSH1 0x20 DUP2 DUP4 SUB SUB DUP2 MSTORE SWAP1 PUSH1 0x40 MSTORE DUP1 MLOAD SWAP1 PUSH1 0x20 ADD KECCAK256 SWAP2 POP POP SWAP2 SWAP1 POP JUMP JUMPDEST PUSH1 0x60 PUSH0 PUSH1 0x1 PUSH2 0x49E DUP5 PUSH2 0x55A JUMP JUMPDEST ADD SWAP1 POP PUSH0 DUP2 PUSH8 0xFFFFFFFFFFFFFFFF DUP2 GT ISZERO PUSH2 0x4BC JUMPI PUSH2 0x4BB PUSH2 0x6D4 JUMP JUMPDEST JUMPDEST PUSH1 0x40 MLOAD SWAP1 DUP1 DUP3 MSTORE DUP1 PUSH1 0x1F ADD PUSH1 0x1F NOT AND PUSH1 0x20 ADD DUP3 ADD PUSH1 0x40 MSTORE DUP1 ISZERO PUSH2 0x4EE JUMPI DUP2 PUSH1 0x20 ADD PUSH1 0x1 DUP3 MUL DUP1 CALLDATASIZE DUP4 CALLDATACOPY DUP1 DUP3 ADD SWAP2 POP POP SWAP1 POP JUMPDEST POP SWAP1 POP PUSH0 DUP3 PUSH1 0x20 ADD DUP3 ADD SWAP1 POP JUMPDEST PUSH1 0x1 ISZERO PUSH2 0x54F JUMPI DUP1 DUP1 PUSH1 0x1 SWAP1 SUB SWAP2 POP POP PUSH32 0x3031323334353637383961626364656600000000000000000000000000000000 PUSH1 0xA DUP7 MOD BYTE DUP2 MSTORE8 PUSH1 0xA DUP6 DUP2 PUSH2 0x544 JUMPI PUSH2 0x543 PUSH2 0x10F7 JUMP JUMPDEST JUMPDEST DIV SWAP5 POP PUSH0 DUP6 SUB PUSH2 0x4FB JUMPI JUMPDEST DUP2 SWAP4 POP POP POP POP SWAP2 SWAP1 POP JUMP JUMPDEST PUSH0 DUP1 PUSH0 SWAP1 POP PUSH27 0x184F03E93FF9F4DAA797ED6E38ED64BF6A1F010000000000000000 DUP4 LT PUSH2 0x5B6 JUMPI PUSH27 0x184F03E93FF9F4DAA797ED6E38ED64BF6A1F010000000000000000 DUP4 DUP2 PUSH2 0x5AC JUMPI PUSH2 0x5AB PUSH2 0x10F7 JUMP JUMPDEST JUMPDEST DIV SWAP3 POP PUSH1 0x40 DUP2 ADD SWAP1 POP JUMPDEST PUSH14 0x4EE2D6D415B85ACEF8100000000 DUP4 LT PUSH2 0x5F3 JUMPI PUSH14 0x4EE2D6D415B85ACEF8100000000 DUP4 DUP2 PUSH2 0x5E9 JUMPI PUSH2 0x5E8 PUSH2 0x10F7 JUMP JUMPDEST JUMPDEST DIV SWAP3 POP PUSH1 0x20 DUP2 ADD SWAP1 POP JUMPDEST PUSH7 0x2386F26FC10000 DUP4 LT PUSH2 0x622 JUMPI PUSH7 0x2386F26FC10000 DUP4 DUP2 PUSH2 0x618 JUMPI PUSH2 0x617 PUSH2 0x10F7 JUMP JUMPDEST JUMPDEST DIV SWAP3 POP PUSH1 0x10 DUP2 ADD SWAP1 POP JUMPDEST PUSH4 0x5F5E100 DUP4 LT PUSH2 0x64B JUMPI PUSH4 0x5F5E100 DUP4 DUP2 PUSH2 0x641 JUMPI PUSH2 0x640 PUSH2 0x10F7 JUMP JUMPDEST JUMPDEST DIV SWAP3 POP PUSH1 0x8 DUP2 ADD SWAP1 POP JUMPDEST PUSH2 0x2710 DUP4 LT PUSH2 0x670 JUMPI PUSH2 0x2710 DUP4 DUP2 PUSH2 0x666 JUMPI PUSH2 0x665 PUSH2 0x10F7 JUMP JUMPDEST JUMPDEST DIV SWAP3 POP PUSH1 0x4 DUP2 ADD SWAP1 POP JUMPDEST PUSH1 0x64 DUP4 LT PUSH2 0x693 JUMPI PUSH1 0x64 DUP4 DUP2 PUSH2 0x689 JUMPI PUSH2 0x688 PUSH2 0x10F7 JUMP JUMPDEST JUMPDEST DIV SWAP3 POP PUSH1 0x2 DUP2 ADD SWAP1 POP JUMPDEST PUSH1 0xA DUP4 LT PUSH2 0x6A2 JUMPI PUSH1 0x1 DUP2 ADD SWAP1 POP JUMPDEST DUP1 SWAP2 POP POP SWAP2 SWAP1 POP JUMP JUMPDEST PUSH0 PUSH1 0x40 MLOAD SWAP1 POP SWAP1 JUMP JUMPDEST PUSH0 DUP1 REVERT JUMPDEST PUSH0 DUP1 REVERT JUMPDEST PUSH0 DUP1 REVERT JUMPDEST PUSH0 DUP1 REVERT JUMPDEST PUSH0 PUSH1 0x1F NOT PUSH1 0x1F DUP4 ADD AND SWAP1 POP SWAP2 SWAP1 POP JUMP JUMPDEST PUSH32 0x4E487B7100000000000000000000000000000000000000000000000000000000 PUSH0 MSTORE PUSH1 0x41 PUSH1 0x4 MSTORE PUSH1 0x24 PUSH0 REVERT JUMPDEST PUSH2 0x70A DUP3 PUSH2 0x6C4 JUMP JUMPDEST DUP2 ADD DUP2 DUP2 LT PUSH8 0xFFFFFFFFFFFFFFFF DUP3 GT OR ISZERO PUSH2 0x729 JUMPI PUSH2 0x728 PUSH2 0x6D4 JUMP JUMPDEST JUMPDEST DUP1 PUSH1 0x40 MSTORE POP POP POP JUMP JUMPDEST PUSH0 PUSH2 0x73B PUSH2 0x6AB JUMP JUMPDEST SWAP1 POP PUSH2 0x747 DUP3 DUP3 PUSH2 0x701 JUMP JUMPDEST SWAP2 SWAP1 POP JUMP JUMPDEST PUSH0 PUSH8 0xFFFFFFFFFFFFFFFF DUP3 GT ISZERO PUSH2 0x766 JUMPI PUSH2 0x765 PUSH2 0x6D4 JUMP JUMPDEST JUMPDEST PUSH2 0x76F DUP3 PUSH2 0x6C4 JUMP JUMPDEST SWAP1 POP PUSH1 0x20 DUP2 ADD SWAP1 POP SWAP2 SWAP1 POP JUMP JUMPDEST DUP3 DUP2 DUP4 CALLDATACOPY PUSH0 DUP4 DUP4 ADD MSTORE POP POP POP JUMP JUMPDEST PUSH0 PUSH2 0x79C PUSH2 0x797 DUP5 PUSH2 0x74C JUMP JUMPDEST PUSH2 0x732 JUMP JUMPDEST SWAP1 POP DUP3 DUP2 MSTORE PUSH1 0x20 DUP2 ADD DUP5 DUP5 DUP5 ADD GT ISZERO PUSH2 0x7B8 JUMPI PUSH2 0x7B7 PUSH2 0x6C0 JUMP JUMPDEST JUMPDEST PUSH2 0x7C3 DUP5 DUP3 DUP6 PUSH2 0x77C JUMP JUMPDEST POP SWAP4 SWAP3 POP POP POP JUMP JUMPDEST PUSH0 DUP3 PUSH1 0x1F DUP4 ADD SLT PUSH2 0x7DF JUMPI PUSH2 0x7DE PUSH2 0x6BC JUMP JUMPDEST JUMPDEST DUP2 CALLDATALOAD PUSH2 0x7EF DUP5 DUP3 PUSH1 0x20 DUP7 ADD PUSH2 0x78A JUMP JUMPDEST SWAP2 POP POP SWAP3 SWAP2 POP POP JUMP JUMPDEST PUSH0 PUSH1 0x20 DUP3 DUP5 SUB SLT ISZERO PUSH2 0x80D JUMPI PUSH2 0x80C PUSH2 0x6B4 JUMP JUMPDEST JUMPDEST PUSH0 DUP3 ADD CALLDATALOAD PUSH8 0xFFFFFFFFFFFFFFFF DUP2 GT ISZERO PUSH2 0x82A JUMPI PUSH2 0x829 PUSH2 0x6B8 JUMP JUMPDEST JUMPDEST PUSH2 0x836 DUP5 DUP3 DUP6 ADD PUSH2 0x7CB JUMP JUMPDEST SWAP2 POP POP SWAP3 SWAP2 POP POP JUMP JUMPDEST PUSH0 DUP2 SWAP1 POP SWAP2 SWAP1 POP JUMP JUMPDEST PUSH2 0x851 DUP2 PUSH2 0x83F JUMP JUMPDEST DUP3 MSTORE POP POP JUMP JUMPDEST PUSH0 PUSH1 0xFF DUP3 AND SWAP1 POP SWAP2 SWAP1 POP JUMP JUMPDEST PUSH2 0x86C DUP2 PUSH2 0x857 JUMP JUMPDEST DUP3 MSTORE POP POP JUMP JUMPDEST PUSH0 PUSH1 0x60 DUP3 ADD SWAP1 POP PUSH2 0x885 PUSH0 DUP4 ADD DUP7 PUSH2 0x848 JUMP JUMPDEST PUSH2 0x892 PUSH1 0x20 DUP4 ADD DUP6 PUSH2 0x848 JUMP JUMPDEST PUSH2 0x89F PUSH1 0x40 DUP4 ADD DUP5 PUSH2 0x863 JUMP JUMPDEST SWAP5 SWAP4 POP POP POP POP JUMP JUMPDEST PUSH0 PUSH8 0xFFFFFFFFFFFFFFFF DUP3 GT ISZERO PUSH2 0x8C1 JUMPI PUSH2 0x8C0 PUSH2 0x6D4 JUMP JUMPDEST JUMPDEST PUSH1 0x20 DUP3 MUL SWAP1 POP PUSH1 0x20 DUP2 ADD SWAP1 POP SWAP2 SWAP1 POP JUMP JUMPDEST PUSH0 DUP1 REVERT JUMPDEST PUSH0 PUSH20 0xFFFFFFFFFFFFFFFFFFFFFFFFFFFFFFFFFFFFFFFF DUP3 AND SWAP1 POP SWAP2 SWAP1 POP JUMP JUMPDEST PUSH0 PUSH2 0x8FF DUP3 PUSH2 0x8D6 JUMP JUMPDEST SWAP1 POP SWAP2 SWAP1 POP JUMP JUMPDEST PUSH2 0x90F DUP2 PUSH2 0x8F5 JUMP JUMPDEST DUP2 EQ PUSH2 0x919 JUMPI PUSH0 DUP1 REVERT JUMPDEST POP JUMP JUMPDEST PUSH0 DUP2 CALLDATALOAD SWAP1 POP PUSH2 0x92A DUP2 PUSH2 0x906 JUMP JUMPDEST SWAP3 SWAP2 POP POP JUMP JUMPDEST PUSH0 PUSH2 0x942 PUSH2 0x93D DUP5 PUSH2 0x8A7 JUMP JUMPDEST PUSH2 0x732 JUMP JUMPDEST SWAP1 POP DUP1 DUP4 DUP3 MSTORE PUSH1 0x20 DUP3 ADD SWAP1 POP PUSH1 0x20 DUP5 MUL DUP4 ADD DUP6 DUP2 GT ISZERO PUSH2 0x965 JUMPI PUSH2 0x964 PUSH2 0x8D2 JUMP JUMPDEST JUMPDEST DUP4 JUMPDEST DUP2 DUP2 LT ISZERO PUSH2 0x98E JUMPI DUP1 PUSH2 0x97A DUP9 DUP3 PUSH2 0x91C JUMP JUMPDEST DUP5 MSTORE PUSH1 0x20 DUP5 ADD SWAP4 POP POP PUSH1 0x20 DUP2 ADD SWAP1 POP PUSH2 0x967 JUMP JUMPDEST POP POP POP SWAP4 SWAP3 POP POP POP JUMP JUMPDEST PUSH0 DUP3 PUSH1 0x1F DUP4 ADD SLT PUSH2 0x9AC JUMPI PUSH2 0x9AB PUSH2 0x6BC JUMP JUMPDEST JUMPDEST DUP2 CALLDATALOAD PUSH2 0x9BC DUP5 DUP3 PUSH1 0x20 DUP7 ADD PUSH2 0x930 JUMP JUMPDEST SWAP2 POP POP SWAP3 SWAP2 POP POP JUMP JUMPDEST PUSH0 PUSH8 0xFFFFFFFFFFFFFFFF DUP3 GT ISZERO PUSH2 0x9DF JUMPI PUSH2 0x9DE PUSH2 0x6D4 JUMP JUMPDEST JUMPDEST PUSH1 0x20 DUP3 MUL SWAP1 POP PUSH1 0x20 DUP2 ADD SWAP1 POP SWAP2 SWAP1 POP JUMP JUMPDEST PUSH0 DUP2 SWAP1 POP SWAP2 SWAP1 POP JUMP JUMPDEST PUSH2 0xA02 DUP2 PUSH2 0x9F0 JUMP JUMPDEST DUP2 EQ PUSH2 0xA0C JUMPI PUSH0 DUP1 REVERT JUMPDEST POP JUMP JUMPDEST PUSH0 DUP2 CALLDATALOAD SWAP1 POP PUSH2 0xA1D DUP2 PUSH2 0x9F9 JUMP JUMPDEST SWAP3 SWAP2 POP POP JUMP JUMPDEST PUSH0 PUSH2 0xA35 PUSH2 0xA30 DUP5 PUSH2 0x9C5 JUMP JUMPDEST PUSH2 0x732 JUMP JUMPDEST SWAP1 POP DUP1 DUP4 DUP3 MSTORE PUSH1 0x20 DUP3 ADD SWAP1 POP PUSH1 0x20 DUP5 MUL DUP4 ADD DUP6 DUP2 GT ISZERO PUSH2 0xA58 JUMPI PUSH2 0xA57 PUSH2 0x8D2 JUMP JUMPDEST JUMPDEST DUP4 JUMPDEST DUP2 DUP2 LT ISZERO PUSH2 0xA81 JUMPI DUP1 PUSH2 0xA6D DUP9 DUP3 PUSH2 0xA0F JUMP JUMPDEST DUP5 MSTORE PUSH1 0x20 DUP5 ADD SWAP4 POP POP PUSH1 0x20 DUP2 ADD SWAP1 POP PUSH2 0xA5A JUMP JUMPDEST POP POP POP SWAP4 SWAP3 POP POP POP JUMP JUMPDEST PUSH0 DUP3 PUSH1 0x1F DUP4 ADD SLT PUSH2 0xA9F JUMPI PUSH2 0xA9E PUSH2 0x6BC JUMP JUMPDEST JUMPDEST DUP2 CALLDATALOAD PUSH2 0xAAF DUP5 DUP3 PUSH1 0x20 DUP7 ADD PUSH2 0xA23 JUMP JUMPDEST SWAP2 POP POP SWAP3 SWAP2 POP POP JUMP JUMPDEST PUSH0 PUSH8 0xFFFFFFFFFFFFFFFF DUP3 GT ISZERO PUSH2 0xAD2 JUMPI PUSH2 0xAD1 PUSH2 0x6D4 JUMP JUMPDEST JUMPDEST PUSH1 0x20 DUP3 MUL SWAP1 POP PUSH1 0x20 DUP2 ADD SWAP1 POP SWAP2 SWAP1 POP JUMP JUMPDEST PUSH0 PUSH8 0xFFFFFFFFFFFFFFFF DUP3 GT ISZERO PUSH2 0xAFD JUMPI PUSH2 0xAFC PUSH2 0x6D4 JUMP JUMPDEST JUMPDEST PUSH2 0xB06 DUP3 PUSH2 0x6C4 JUMP JUMPDEST SWAP1 POP PUSH1 0x20 DUP2 ADD SWAP1 POP SWAP2 SWAP1 POP JUMP JUMPDEST PUSH0 PUSH2 0xB25 PUSH2 0xB20 DUP5 PUSH2 0xAE3 JUMP JUMPDEST PUSH2 0x732 JUMP JUMPDEST SWAP1 POP DUP3 DUP2 MSTORE PUSH1 0x20 DUP2 ADD DUP5 DUP5 DUP5 ADD GT ISZERO PUSH2 0xB41 JUMPI PUSH2 0xB40 PUSH2 0x6C0 JUMP JUMPDEST JUMPDEST PUSH2 0xB4C DUP5 DUP3 DUP6 PUSH2 0x77C JUMP JUMPDEST POP SWAP4 SWAP3 POP POP POP JUMP JUMPDEST PUSH0 DUP3 PUSH1 0x1F DUP4 ADD SLT PUSH2 0xB68 JUMPI PUSH2 0xB67 PUSH2 0x6BC JUMP JUMPDEST JUMPDEST DUP2 CALLDATALOAD PUSH2 0xB78 DUP5 DUP3 PUSH1 0x20 DUP7 ADD PUSH2 0xB13 JUMP JUMPDEST SWAP2 POP POP SWAP3 SWAP2 POP POP JUMP JUMPDEST PUSH0 PUSH2 0xB93 PUSH2 0xB8E DUP5 PUSH2 0xAB8 JUMP JUMPDEST PUSH2 0x732 JUMP JUMPDEST SWAP1 POP DUP1 DUP4 DUP3 MSTORE PUSH1 0x20 DUP3 ADD SWAP1 POP PUSH1 0x20 DUP5 MUL DUP4 ADD DUP6 DUP2 GT ISZERO PUSH2 0xBB6 JUMPI PUSH2 0xBB5 PUSH2 0x8D2 JUMP JUMPDEST JUMPDEST DUP4 JUMPDEST DUP2 DUP2 LT ISZERO PUSH2 0xBFD JUMPI DUP1 CALLDATALOAD PUSH8 0xFFFFFFFFFFFFFFFF DUP2 GT ISZERO PUSH2 0xBDB JUMPI PUSH2 0xBDA PUSH2 0x6BC JUMP JUMPDEST JUMPDEST DUP1 DUP7 ADD PUSH2 0xBE8 DUP10 DUP3 PUSH2 0xB54 JUMP JUMPDEST DUP6 MSTORE PUSH1 0x20 DUP6 ADD SWAP5 POP POP POP PUSH1 0x20 DUP2 ADD SWAP1 POP PUSH2 0xBB8 JUMP JUMPDEST POP POP POP SWAP4 SWAP3 POP POP POP JUMP JUMPDEST PUSH0 DUP3 PUSH1 0x1F DUP4 ADD SLT PUSH2 0xC1B JUMPI PUSH2 0xC1A PUSH2 0x6BC JUMP JUMPDEST JUMPDEST DUP2 CALLDATALOAD PUSH2 0xC2B DUP5 DUP3 PUSH1 0x20 DUP7 ADD PUSH2 0xB81 JUMP JUMPDEST SWAP2 POP POP SWAP3 SWAP2 POP POP JUMP JUMPDEST PUSH0 PUSH8 0xFFFFFFFFFFFFFFFF DUP3 GT ISZERO PUSH2 0xC4E JUMPI PUSH2 0xC4D PUSH2 0x6D4 JUMP JUMPDEST JUMPDEST PUSH1 0x20 DUP3 MUL SWAP1 POP PUSH1 0x20 DUP2 ADD SWAP1 POP SWAP2 SWAP1 POP JUMP JUMPDEST PUSH0 PUSH2 0xC71 PUSH2 0xC6C DUP5 PUSH2 0xC34 JUMP JUMPDEST PUSH2 0x732 JUMP JUMPDEST SWAP1 POP DUP1 DUP4 DUP3 MSTORE PUSH1 0x20 DUP3 ADD SWAP1 POP PUSH1 0x20 DUP5 MUL DUP4 ADD DUP6 DUP2 GT ISZERO PUSH2 0xC94 JUMPI PUSH2 0xC93 PUSH2 0x8D2 JUMP JUMPDEST JUMPDEST DUP4 JUMPDEST DUP2 DUP2 LT ISZERO PUSH2 0xCDB JUMPI DUP1 CALLDATALOAD PUSH8 0xFFFFFFFFFFFFFFFF DUP2 GT ISZERO PUSH2 0xCB9 JUMPI PUSH2 0xCB8 PUSH2 0x6BC JUMP JUMPDEST JUMPDEST DUP1 DUP7 ADD PUSH2 0xCC6 DUP10 DUP3 PUSH2 0x7CB JUMP JUMPDEST DUP6 MSTORE PUSH1 0x20 DUP6 ADD SWAP5 POP POP POP PUSH1 0x20 DUP2 ADD SWAP1 POP PUSH2 0xC96 JUMP JUMPDEST POP POP POP SWAP4 SWAP3 POP POP POP JUMP JUMPDEST PUSH0 DUP3 PUSH1 0x1F DUP4 ADD SLT PUSH2 0xCF9 JUMPI PUSH2 0xCF8 PUSH2 0x6BC JUMP JUMPDEST JUMPDEST DUP2 CALLDATALOAD PUSH2 0xD09 DUP5 DUP3 PUSH1 0x20 DUP7 ADD PUSH2 0xC5F JUMP JUMPDEST SWAP2 POP POP SWAP3 SWAP2 POP POP JUMP JUMPDEST PUSH0 DUP1 PUSH0 DUP1 PUSH1 0x80 DUP6 DUP8 SUB SLT ISZERO PUSH2 0xD2A JUMPI PUSH2 0xD29 PUSH2 0x6B4 JUMP JUMPDEST JUMPDEST PUSH0 DUP6 ADD CALLDATALOAD PUSH8 0xFFFFFFFFFFFFFFFF DUP2 GT ISZERO PUSH2 0xD47 JUMPI PUSH2 0xD46 PUSH2 0x6B8 JUMP JUMPDEST JUMPDEST PUSH2 0xD53 DUP8 DUP3 DUP9 ADD PUSH2 0x998 JUMP JUMPDEST SWAP5 POP POP PUSH1 0x20 DUP6 ADD CALLDATALOAD PUSH8 0xFFFFFFFFFFFFFFFF DUP2 GT ISZERO PUSH2 0xD74 JUMPI PUSH2 0xD73 PUSH2 0x6B8 JUMP JUMPDEST JUMPDEST PUSH2 0xD80 DUP8 DUP3 DUP9 ADD PUSH2 0xA8B JUMP JUMPDEST SWAP4 POP POP PUSH1 0x40 DUP6 ADD CALLDATALOAD PUSH8 0xFFFFFFFFFFFFFFFF DUP2 GT ISZERO PUSH2 0xDA1 JUMPI PUSH2 0xDA0 PUSH2 0x6B8 JUMP JUMPDEST JUMPDEST PUSH2 0xDAD DUP8 DUP3 DUP9 ADD PUSH2 0xC07 JUMP JUMPDEST SWAP3 POP POP PUSH1 0x60 DUP6 ADD CALLDATALOAD PUSH8 0xFFFFFFFFFFFFFFFF DUP2 GT ISZERO PUSH2 0xDCE JUMPI PUSH2 0xDCD PUSH2 0x6B8 JUMP JUMPDEST JUMPDEST PUSH2 0xDDA DUP8 DUP3 DUP9 ADD PUSH2 0xCE5 JUMP JUMPDEST SWAP2 POP POP SWAP3 SWAP6 SWAP2 SWAP5 POP SWAP3 POP JUMP JUMPDEST PUSH0 DUP1 PUSH0 PUSH1 0x60 DUP5 DUP7 SUB SLT ISZERO PUSH2 0xDFD JUMPI PUSH2 0xDFC PUSH2 0x6B4 JUMP JUMPDEST JUMPDEST PUSH0 PUSH2 0xE0A DUP7 DUP3 DUP8 ADD PUSH2 0x91C JUMP JUMPDEST SWAP4 POP POP PUSH1 0x20 DUP5 ADD CALLDATALOAD PUSH8 0xFFFFFFFFFFFFFFFF DUP2 GT ISZERO PUSH2 0xE2B JUMPI PUSH2 0xE2A PUSH2 0x6B8 JUMP JUMPDEST JUMPDEST PUSH2 0xE37 DUP7 DUP3 DUP8 ADD PUSH2 0xB54 JUMP JUMPDEST SWAP3 POP POP PUSH1 0x40 DUP5 ADD CALLDATALOAD PUSH8 0xFFFFFFFFFFFFFFFF DUP2 GT ISZERO PUSH2 0xE58 JUMPI PUSH2 0xE57 PUSH2 0x6B8 JUMP JUMPDEST JUMPDEST PUSH2 0xE64 DUP7 DUP3 DUP8 ADD PUSH2 0x7CB JUMP JUMPDEST SWAP2 POP POP SWAP3 POP SWAP3 POP SWAP3 JUMP JUMPDEST PUSH32 0x4E487B7100000000000000000000000000000000000000000000000000000000 PUSH0 MSTORE PUSH1 0x11 PUSH1 0x4 MSTORE PUSH1 0x24 PUSH0 REVERT JUMPDEST PUSH0 PUSH2 0xEA5 DUP3 PUSH2 0x857 JUMP JUMPDEST SWAP2 POP PUSH2 0xEB0 DUP4 PUSH2 0x857 JUMP JUMPDEST SWAP3 POP DUP3 DUP3 ADD SWAP1 POP PUSH1 0xFF DUP2 GT ISZERO PUSH2 0xEC9 JUMPI PUSH2 0xEC8 PUSH2 0xE6E JUMP JUMPDEST JUMPDEST SWAP3 SWAP2 POP POP JUMP JUMPDEST PUSH32 0x4E487B7100000000000000000000000000000000000000000000000000000000 PUSH0 MSTORE PUSH1 0x32 PUSH1 0x4 MSTORE PUSH1 0x24 PUSH0 REVERT JUMPDEST PUSH2 0xF05 DUP2 PUSH2 0x8F5 JUMP JUMPDEST DUP3 MSTORE POP POP JUMP JUMPDEST PUSH2 0xF14 DUP2 PUSH2 0x9F0 JUMP JUMPDEST DUP3 MSTORE POP POP JUMP JUMPDEST PUSH0 PUSH1 0x40 DUP3 ADD SWAP1 POP PUSH2 0xF2D PUSH0 DUP4 ADD DUP6 PUSH2 0xEFC JUMP JUMPDEST PUSH2 0xF3A PUSH1 0x20 DUP4 ADD DUP5 PUSH2 0xF0B JUMP JUMPDEST SWAP4 SWAP3 POP POP POP JUMP JUMPDEST PUSH0 DUP2 MLOAD SWAP1 POP SWAP2 SWAP1 POP JUMP JUMPDEST PUSH0 DUP3 DUP3 MSTORE PUSH1 0x20 DUP3 ADD SWAP1 POP SWAP3 SWAP2 POP POP JUMP JUMPDEST PUSH0 JUMPDEST DUP4 DUP2 LT ISZERO PUSH2 0xF78 JUMPI DUP1 DUP3 ADD MLOAD DUP2 DUP5 ADD MSTORE PUSH1 0x20 DUP2 ADD SWAP1 POP PUSH2 0xF5D JUMP JUMPDEST PUSH0 DUP5 DUP5 ADD MSTORE POP POP POP POP JUMP JUMPDEST PUSH0 PUSH2 0xF8D DUP3 PUSH2 0xF41 JUMP JUMPDEST PUSH2 0xF97 DUP2 DUP6 PUSH2 0xF4B JUMP JUMPDEST SWAP4 POP PUSH2 0xFA7 DUP2 DUP6 PUSH1 0x20 DUP7 ADD PUSH2 0xF5B JUMP JUMPDEST PUSH2 0xFB0 DUP2 PUSH2 0x6C4 JUMP JUMPDEST DUP5 ADD SWAP2 POP POP SWAP3 SWAP2 POP POP JUMP JUMPDEST PUSH0 PUSH1 0x40 DUP3 ADD SWAP1 POP PUSH2 0xFCE PUSH0 DUP4 ADD DUP6 PUSH2 0xEFC JUMP JUMPDEST DUP2 DUP2 SUB PUSH1 0x20 DUP4 ADD MSTORE PUSH2 0xFE0 DUP2 DUP5 PUSH2 0xF83 JUMP JUMPDEST SWAP1 POP SWAP4 SWAP3 POP POP POP JUMP JUMPDEST PUSH0 PUSH1 0x80 DUP3 ADD SWAP1 POP PUSH2 0xFFC PUSH0 DUP4 ADD DUP8 PUSH2 0x848 JUMP JUMPDEST PUSH2 0x1009 PUSH1 0x20 DUP4 ADD DUP7 PUSH2 0x863 JUMP JUMPDEST PUSH2 0x1016 PUSH1 0x40 DUP4 ADD DUP6 PUSH2 0x848 JUMP JUMPDEST PUSH2 0x1023 PUSH1 0x60 DUP4 ADD DUP5 PUSH2 0x848 JUMP JUMPDEST SWAP6 SWAP5 POP POP POP POP POP JUMP JUMPDEST PUSH0 PUSH1 0x20 DUP3 ADD SWAP1 POP PUSH2 0x103F PUSH0 DUP4 ADD DUP5 PUSH2 0xEFC JUMP JUMPDEST SWAP3 SWAP2 POP POP JUMP JUMPDEST PUSH0 DUP2 SWAP1 POP SWAP3 SWAP2 POP POP JUMP JUMPDEST PUSH32 0x19457468657265756D205369676E6564204D6573736167653A0A000000000000 PUSH0 DUP3 ADD MSTORE POP JUMP JUMPDEST PUSH0 PUSH2 0x1083 PUSH1 0x1A DUP4 PUSH2 0x1045 JUMP JUMPDEST SWAP2 POP PUSH2 0x108E DUP3 PUSH2 0x104F JUMP JUMPDEST PUSH1 0x1A DUP3 ADD SWAP1 POP SWAP2 SWAP1 POP JUMP JUMPDEST PUSH0 PUSH2 0x10A3 DUP3 PUSH2 0xF41 JUMP JUMPDEST PUSH2 0x10AD DUP2 DUP6 PUSH2 0x1045 JUMP JUMPDEST SWAP4 POP PUSH2 0x10BD DUP2 DUP6 PUSH1 0x20 DUP7 ADD PUSH2 0xF5B JUMP JUMPDEST DUP1 DUP5 ADD SWAP2 POP POP SWAP3 SWAP2 POP POP JUMP JUMPDEST PUSH0 PUSH2 0x10D3 DUP3 PUSH2 0x1077 JUMP JUMPDEST SWAP2 POP PUSH2 0x10DF DUP3 DUP6 PUSH2 0x1099 JUMP JUMPDEST SWAP2 POP PUSH2 0x10EB DUP3 DUP5 PUSH2 0x1099 JUMP JUMPDEST SWAP2 POP DUP2 SWAP1 POP SWAP4 SWAP3 POP POP POP JUMP JUMPDEST PUSH32 0x4E487B7100000000000000000000000000000000000000000000000000000000 PUSH0 MSTORE PUSH1 0x12 PUSH1 0x4 MSTORE PUSH1 0x24 PUSH0 REVERT INVALID LOG2 PUSH5 0x6970667358 0x22 SLT KECCAK256 0xD 0xCF TLOAD SWAP3 0xC2 LOG4 CALLVALUE MUL DUP16 SWAP11 0xC5 PC SLT 0xED POP 0xD5 0xFB SWAP10 SWAP5 0xE6 0xB9 0xDE SWAP2 REVERT BLOCKHASH 0xBD 0x1F MSTORE8 PUSH24 0xF7111664736F6C6343000818003300000000000000000000 "
		},
		"gasEstimates": {
			"creation": {
				"codeDepositCost": "888400",
				"executionCost": "infinite",
				"totalCost": "infinite"
			},
			"external": {
				"mint(address[],uint256[],string[],bytes[])": "infinite",
				"signTransaction(address,string,bytes)": "infinite",
				"splitSign(bytes)": "infinite"
			},
			"internal": {
				"getEthSignMsgHash(string memory)": "infinite"
			}
		},
		"methodIdentifiers": {
			"mint(address[],uint256[],string[],bytes[])": "883a6c75",
			"signTransaction(address,string,bytes)": "95e0e0c9",
			"splitSign(bytes)": "2ff4bb4b"
		}
	},
	"abi": [
		{
			"inputs": [
				{
					"internalType": "address",
					"name": "_CA",
					"type": "address"
				}
			],
			"stateMutability": "nonpayable",
			"type": "constructor"
		},
		{
			"anonymous": false,
			"inputs": [
				{
					"indexed": false,
					"internalType": "bytes32",
					"name": "r",
					"type": "bytes32"
				},
				{
					"indexed": false,
					"internalType": "bytes32",
					"name": "s",
					"type": "bytes32"
				},
				{
					"indexed": false,
					"internalType": "uint8",
					"name": "v",
					"type": "uint8"
				}
			],
			"name": "event02",
			"type": "event"
		},
		{
			"anonymous": false,
			"inputs": [
				{
					"indexed": false,
					"internalType": "address",
					"name": "account",
					"type": "address"
				}
			],
			"name": "event03",
			"type": "event"
		},
		{
			"anonymous": false,
			"inputs": [
				{
					"indexed": false,
					"internalType": "address",
					"name": "from",
					"type": "address"
				},
				{
					"indexed": false,
					"internalType": "string",
					"name": "_msg",
					"type": "string"
				}
			],
			"name": "evnet01",
			"type": "event"
		},
		{
			"inputs": [
				{
					"internalType": "address[]",
					"name": "_address",
					"type": "address[]"
				},
				{
					"internalType": "uint256[]",
					"name": "token",
					"type": "uint256[]"
				},
				{
					"internalType": "string[]",
					"name": "message",
					"type": "string[]"
				},
				{
					"internalType": "bytes[]",
					"name": "signature",
					"type": "bytes[]"
				}
			],
			"name": "mint",
			"outputs": [],
			"stateMutability": "nonpayable",
			"type": "function"
		},
		{
			"inputs": [
				{
					"internalType": "address",
					"name": "user",
					"type": "address"
				},
				{
					"internalType": "string",
					"name": "_msg",
					"type": "string"
				},
				{
					"internalType": "bytes",
					"name": "signature",
					"type": "bytes"
				}
			],
			"name": "signTransaction",
			"outputs": [],
			"stateMutability": "nonpayable",
			"type": "function"
		},
		{
			"inputs": [
				{
					"internalType": "bytes",
					"name": "sign",
					"type": "bytes"
				}
			],
			"name": "splitSign",
			"outputs": [
				{
					"internalType": "bytes32",
					"name": "r",
					"type": "bytes32"
				},
				{
					"internalType": "bytes32",
					"name": "s",
					"type": "bytes32"
				},
				{
					"internalType": "uint8",
					"name": "v",
					"type": "uint8"
				}
			],
			"stateMutability": "pure",
			"type": "function"
		}
	]
}